{
	"SimpleBank.sol": {
		"SimpleBank": {
			"abi": [
				{
					"inputs": [
						{
							"internalType": "uint256",
							"name": "_fee",
							"type": "uint256"
						},
						{
							"internalType": "address",
							"name": "_treasury",
							"type": "address"
						}
					],
					"stateMutability": "nonpayable",
					"type": "constructor"
				},
				{
					"anonymous": false,
					"inputs": [
						{
							"indexed": true,
							"internalType": "address",
							"name": "userAddress",
							"type": "address"
						},
						{
							"indexed": false,
							"internalType": "uint256",
							"name": "amount",
							"type": "uint256"
						}
					],
					"name": "Deposit",
					"type": "event"
				},
				{
					"anonymous": false,
					"inputs": [
						{
							"indexed": true,
							"internalType": "address",
							"name": "owner",
							"type": "address"
						},
						{
							"indexed": false,
							"internalType": "uint256",
							"name": "amount",
							"type": "uint256"
						}
					],
					"name": "TreasuryWithdrawal",
					"type": "event"
				},
				{
					"anonymous": false,
					"inputs": [
						{
							"indexed": true,
							"internalType": "address",
							"name": "userAddress",
							"type": "address"
						},
						{
							"indexed": false,
							"internalType": "string",
							"name": "firstName",
							"type": "string"
						},
						{
							"indexed": false,
							"internalType": "string",
							"name": "lastName",
							"type": "string"
						}
					],
					"name": "UserRegistered",
					"type": "event"
				},
				{
					"anonymous": false,
					"inputs": [
						{
							"indexed": true,
							"internalType": "address",
							"name": "userAddress",
							"type": "address"
						},
						{
							"indexed": false,
							"internalType": "uint256",
							"name": "amount",
							"type": "uint256"
						},
						{
							"indexed": false,
							"internalType": "uint256",
							"name": "fee",
							"type": "uint256"
						}
					],
					"name": "Withdrawal",
					"type": "event"
				},
				{
					"inputs": [
						{
							"internalType": "uint256",
							"name": "amount",
							"type": "uint256"
						}
					],
					"name": "deposit",
					"outputs": [],
					"stateMutability": "payable",
					"type": "function"
				},
				{
					"inputs": [],
					"name": "fee",
					"outputs": [
						{
							"internalType": "uint256",
							"name": "",
							"type": "uint256"
						}
					],
					"stateMutability": "view",
					"type": "function"
				},
				{
					"inputs": [],
					"name": "getBalance",
					"outputs": [
						{
							"internalType": "uint256",
							"name": "",
							"type": "uint256"
						}
					],
					"stateMutability": "view",
					"type": "function"
				},
				{
					"inputs": [],
					"name": "getContractBalance",
					"outputs": [
						{
							"internalType": "uint256",
							"name": "",
							"type": "uint256"
						}
					],
					"stateMutability": "view",
					"type": "function"
				},
				{
					"inputs": [],
					"name": "owner",
					"outputs": [
						{
							"internalType": "address",
							"name": "",
							"type": "address"
						}
					],
					"stateMutability": "view",
					"type": "function"
				},
				{
					"inputs": [
						{
							"internalType": "string",
							"name": "_firstName",
							"type": "string"
						},
						{
							"internalType": "string",
							"name": "_lastName",
							"type": "string"
						}
					],
					"name": "register",
					"outputs": [],
					"stateMutability": "nonpayable",
					"type": "function"
				},
				{
					"inputs": [],
					"name": "treasury",
					"outputs": [
						{
							"internalType": "address",
							"name": "",
							"type": "address"
						}
					],
					"stateMutability": "view",
					"type": "function"
				},
				{
					"inputs": [],
					"name": "treasuryBalance",
					"outputs": [
						{
							"internalType": "uint256",
							"name": "",
							"type": "uint256"
						}
					],
					"stateMutability": "view",
					"type": "function"
				},
				{
					"inputs": [
						{
							"internalType": "address",
							"name": "",
							"type": "address"
						}
					],
					"name": "users",
					"outputs": [
						{
							"internalType": "string",
							"name": "firstName",
							"type": "string"
						},
						{
							"internalType": "string",
							"name": "lastName",
							"type": "string"
						},
						{
							"internalType": "uint256",
							"name": "balance",
							"type": "uint256"
						},
						{
							"internalType": "bool",
							"name": "isRegistered",
							"type": "bool"
						}
					],
					"stateMutability": "view",
					"type": "function"
				},
				{
					"inputs": [
						{
							"internalType": "uint256",
							"name": "_amount",
							"type": "uint256"
						}
					],
					"name": "withdraw",
					"outputs": [],
					"stateMutability": "nonpayable",
					"type": "function"
				},
				{
					"inputs": [
						{
							"internalType": "uint256",
							"name": "_amount",
							"type": "uint256"
						}
					],
					"name": "withdrawTreasury",
					"outputs": [],
					"stateMutability": "nonpayable",
					"type": "function"
				},
				{
					"stateMutability": "payable",
					"type": "receive"
				}
			],
			"devdoc": {
				"details": "Smart contract para gestionar un banco sencillo donde los usuarios pueden registrarse, depositar y retirar fondos.",
				"kind": "dev",
				"methods": {
					"constructor": {
						"details": "Constructor del contrato",
						"params": {
							"_fee": "El fee en puntos básicos (1% = 100 puntos básicos)",
							"_treasury": "La dirección de la tesorería"
						}
					},
					"getBalance()": {
						"details": "Función para verificar el saldo del usuario",
						"returns": {
							"_0": "El saldo del usuario"
						}
					},
					"register(string,string)": {
						"details": "Función para registrar un nuevo usuario",
						"params": {
							"_firstName": "El primer nombre del usuario",
							"_lastName": "El apellido del usuario"
						}
					},
					"withdraw(uint256)": {
						"details": "Función para retirar fondos de la cuenta del usuario",
						"params": {
							"_amount": "La cantidad a retirar"
						}
					},
					"withdrawTreasury(uint256)": {
						"details": "Función para que el propietario retire fondos de la cuenta de tesorería",
						"params": {
							"_amount": "La cantidad a retirar de la tesorería"
						}
					}
				},
				"title": "SimpleBank",
				"version": 1
			},
			"evm": {
				"assembly": "    /* \"SimpleBank.sol\":216:4085  contract SimpleBank {... */\n  mstore(0x40, 0x80)\n    /* \"SimpleBank.sol\":1292:1504  constructor(uint256 _fee, address _treasury) {... */\n  callvalue\n  dup1\n  iszero\n  tag_1\n  jumpi\n  0x00\n  dup1\n  revert\ntag_1:\n  pop\n  mload(0x40)\n  sub(codesize, bytecodeSize)\n  dup1\n  bytecodeSize\n  dup4\n  codecopy\n  dup2\n  dup2\n  add\n  0x40\n  mstore\n  dup2\n  add\n  swap1\n  tag_2\n  swap2\n  swap1\n  tag_3\n  jump\t// in\ntag_2:\n    /* \"SimpleBank.sol\":1377:1378  0 */\n  0x00\n    /* \"SimpleBank.sol\":1356:1379  _treasury != address(0) */\n  0xffffffffffffffffffffffffffffffffffffffff\n  and\n    /* \"SimpleBank.sol\":1356:1365  _treasury */\n  dup2\n    /* \"SimpleBank.sol\":1356:1379  _treasury != address(0) */\n  0xffffffffffffffffffffffffffffffffffffffff\n  and\n  sub\n    /* \"SimpleBank.sol\":1348:1415  require(_treasury != address(0), \"Treasury address cannot be zero\") */\n  tag_6\n  jumpi\n  mload(0x40)\n  0x08c379a000000000000000000000000000000000000000000000000000000000\n  dup2\n  mstore\n  0x04\n  add\n  tag_7\n  swap1\n  tag_8\n  jump\t// in\ntag_7:\n  mload(0x40)\n  dup1\n  swap2\n  sub\n  swap1\n  revert\ntag_6:\n    /* \"SimpleBank.sol\":1434:1444  msg.sender */\n  caller\n    /* \"SimpleBank.sol\":1426:1431  owner */\n  0x01\n  0x00\n    /* \"SimpleBank.sol\":1426:1444  owner = msg.sender */\n  0x0100\n  exp\n  dup2\n  sload\n  dup2\n  0xffffffffffffffffffffffffffffffffffffffff\n  mul\n  not\n  and\n  swap1\n  dup4\n  0xffffffffffffffffffffffffffffffffffffffff\n  and\n  mul\n  or\n  swap1\n  sstore\n  pop\n    /* \"SimpleBank.sol\":1461:1465  _fee */\n  dup2\n    /* \"SimpleBank.sol\":1455:1458  fee */\n  0x03\n    /* \"SimpleBank.sol\":1455:1465  fee = _fee */\n  dup2\n  swap1\n  sstore\n  pop\n    /* \"SimpleBank.sol\":1487:1496  _treasury */\n  dup1\n    /* \"SimpleBank.sol\":1476:1484  treasury */\n  0x02\n  0x00\n    /* \"SimpleBank.sol\":1476:1496  treasury = _treasury */\n  0x0100\n  exp\n  dup2\n  sload\n  dup2\n  0xffffffffffffffffffffffffffffffffffffffff\n  mul\n  not\n  and\n  swap1\n  dup4\n  0xffffffffffffffffffffffffffffffffffffffff\n  and\n  mul\n  or\n  swap1\n  sstore\n  pop\n    /* \"SimpleBank.sol\":1292:1504  constructor(uint256 _fee, address _treasury) {... */\n  pop\n  pop\n    /* \"SimpleBank.sol\":216:4085  contract SimpleBank {... */\n  jump(tag_9)\n    /* \"#utility.yul\":88:205   */\ntag_11:\n    /* \"#utility.yul\":197:198   */\n  0x00\n    /* \"#utility.yul\":194:195   */\n  dup1\n    /* \"#utility.yul\":187:199   */\n  revert\n    /* \"#utility.yul\":334:411   */\ntag_13:\n    /* \"#utility.yul\":371:378   */\n  0x00\n    /* \"#utility.yul\":400:405   */\n  dup2\n    /* \"#utility.yul\":389:405   */\n  swap1\n  pop\n    /* \"#utility.yul\":334:411   */\n  swap2\n  swap1\n  pop\n  jump\t// out\n    /* \"#utility.yul\":417:539   */\ntag_14:\n    /* \"#utility.yul\":490:514   */\n  tag_29\n    /* \"#utility.yul\":508:513   */\n  dup2\n    /* \"#utility.yul\":490:514   */\n  tag_13\n  jump\t// in\ntag_29:\n    /* \"#utility.yul\":483:488   */\n  dup2\n    /* \"#utility.yul\":480:515   */\n  eq\n    /* \"#utility.yul\":470:533   */\n  tag_30\n  jumpi\n    /* \"#utility.yul\":529:530   */\n  0x00\n    /* \"#utility.yul\":526:527   */\n  dup1\n    /* \"#utility.yul\":519:531   */\n  revert\n    /* \"#utility.yul\":470:533   */\ntag_30:\n    /* \"#utility.yul\":417:539   */\n  pop\n  jump\t// out\n    /* \"#utility.yul\":545:688   */\ntag_15:\n    /* \"#utility.yul\":602:607   */\n  0x00\n    /* \"#utility.yul\":633:639   */\n  dup2\n    /* \"#utility.yul\":627:640   */\n  mload\n    /* \"#utility.yul\":618:640   */\n  swap1\n  pop\n    /* \"#utility.yul\":649:682   */\n  tag_32\n    /* \"#utility.yul\":676:681   */\n  dup2\n    /* \"#utility.yul\":649:682   */\n  tag_14\n  jump\t// in\ntag_32:\n    /* \"#utility.yul\":545:688   */\n  swap3\n  swap2\n  pop\n  pop\n  jump\t// out\n    /* \"#utility.yul\":694:820   */\ntag_16:\n    /* \"#utility.yul\":731:738   */\n  0x00\n    /* \"#utility.yul\":771:813   */\n  0xffffffffffffffffffffffffffffffffffffffff\n    /* \"#utility.yul\":764:769   */\n  dup3\n    /* \"#utility.yul\":760:814   */\n  and\n    /* \"#utility.yul\":749:814   */\n  swap1\n  pop\n    /* \"#utility.yul\":694:820   */\n  swap2\n  swap1\n  pop\n  jump\t// out\n    /* \"#utility.yul\":826:922   */\ntag_17:\n    /* \"#utility.yul\":863:870   */\n  0x00\n    /* \"#utility.yul\":892:916   */\n  tag_35\n    /* \"#utility.yul\":910:915   */\n  dup3\n    /* \"#utility.yul\":892:916   */\n  tag_16\n  jump\t// in\ntag_35:\n    /* \"#utility.yul\":881:916   */\n  swap1\n  pop\n    /* \"#utility.yul\":826:922   */\n  swap2\n  swap1\n  pop\n  jump\t// out\n    /* \"#utility.yul\":928:1050   */\ntag_18:\n    /* \"#utility.yul\":1001:1025   */\n  tag_37\n    /* \"#utility.yul\":1019:1024   */\n  dup2\n    /* \"#utility.yul\":1001:1025   */\n  tag_17\n  jump\t// in\ntag_37:\n    /* \"#utility.yul\":994:999   */\n  dup2\n    /* \"#utility.yul\":991:1026   */\n  eq\n    /* \"#utility.yul\":981:1044   */\n  tag_38\n  jumpi\n    /* \"#utility.yul\":1040:1041   */\n  0x00\n    /* \"#utility.yul\":1037:1038   */\n  dup1\n    /* \"#utility.yul\":1030:1042   */\n  revert\n    /* \"#utility.yul\":981:1044   */\ntag_38:\n    /* \"#utility.yul\":928:1050   */\n  pop\n  jump\t// out\n    /* \"#utility.yul\":1056:1199   */\ntag_19:\n    /* \"#utility.yul\":1113:1118   */\n  0x00\n    /* \"#utility.yul\":1144:1150   */\n  dup2\n    /* \"#utility.yul\":1138:1151   */\n  mload\n    /* \"#utility.yul\":1129:1151   */\n  swap1\n  pop\n    /* \"#utility.yul\":1160:1193   */\n  tag_40\n    /* \"#utility.yul\":1187:1192   */\n  dup2\n    /* \"#utility.yul\":1160:1193   */\n  tag_18\n  jump\t// in\ntag_40:\n    /* \"#utility.yul\":1056:1199   */\n  swap3\n  swap2\n  pop\n  pop\n  jump\t// out\n    /* \"#utility.yul\":1205:1712   */\ntag_3:\n    /* \"#utility.yul\":1284:1290   */\n  0x00\n    /* \"#utility.yul\":1292:1298   */\n  dup1\n    /* \"#utility.yul\":1341:1343   */\n  0x40\n    /* \"#utility.yul\":1329:1338   */\n  dup4\n    /* \"#utility.yul\":1320:1327   */\n  dup6\n    /* \"#utility.yul\":1316:1339   */\n  sub\n    /* \"#utility.yul\":1312:1344   */\n  slt\n    /* \"#utility.yul\":1309:1428   */\n  iszero\n  tag_42\n  jumpi\n    /* \"#utility.yul\":1347:1426   */\n  tag_43\n  tag_11\n  jump\t// in\ntag_43:\n    /* \"#utility.yul\":1309:1428   */\ntag_42:\n    /* \"#utility.yul\":1467:1468   */\n  0x00\n    /* \"#utility.yul\":1492:1556   */\n  tag_44\n    /* \"#utility.yul\":1548:1555   */\n  dup6\n    /* \"#utility.yul\":1539:1545   */\n  dup3\n    /* \"#utility.yul\":1528:1537   */\n  dup7\n    /* \"#utility.yul\":1524:1546   */\n  add\n    /* \"#utility.yul\":1492:1556   */\n  tag_15\n  jump\t// in\ntag_44:\n    /* \"#utility.yul\":1482:1556   */\n  swap3\n  pop\n    /* \"#utility.yul\":1438:1566   */\n  pop\n    /* \"#utility.yul\":1605:1607   */\n  0x20\n    /* \"#utility.yul\":1631:1695   */\n  tag_45\n    /* \"#utility.yul\":1687:1694   */\n  dup6\n    /* \"#utility.yul\":1678:1684   */\n  dup3\n    /* \"#utility.yul\":1667:1676   */\n  dup7\n    /* \"#utility.yul\":1663:1685   */\n  add\n    /* \"#utility.yul\":1631:1695   */\n  tag_19\n  jump\t// in\ntag_45:\n    /* \"#utility.yul\":1621:1695   */\n  swap2\n  pop\n    /* \"#utility.yul\":1576:1705   */\n  pop\n    /* \"#utility.yul\":1205:1712   */\n  swap3\n  pop\n  swap3\n  swap1\n  pop\n  jump\t// out\n    /* \"#utility.yul\":1718:1887   */\ntag_20:\n    /* \"#utility.yul\":1802:1813   */\n  0x00\n    /* \"#utility.yul\":1836:1842   */\n  dup3\n    /* \"#utility.yul\":1831:1834   */\n  dup3\n    /* \"#utility.yul\":1824:1843   */\n  mstore\n    /* \"#utility.yul\":1876:1880   */\n  0x20\n    /* \"#utility.yul\":1871:1874   */\n  dup3\n    /* \"#utility.yul\":1867:1881   */\n  add\n    /* \"#utility.yul\":1852:1881   */\n  swap1\n  pop\n    /* \"#utility.yul\":1718:1887   */\n  swap3\n  swap2\n  pop\n  pop\n  jump\t// out\n    /* \"#utility.yul\":1893:2074   */\ntag_21:\n    /* \"#utility.yul\":2033:2066   */\n  0x547265617375727920616464726573732063616e6e6f74206265207a65726f00\n    /* \"#utility.yul\":2029:2030   */\n  0x00\n    /* \"#utility.yul\":2021:2027   */\n  dup3\n    /* \"#utility.yul\":2017:2031   */\n  add\n    /* \"#utility.yul\":2010:2067   */\n  mstore\n    /* \"#utility.yul\":1893:2074   */\n  pop\n  jump\t// out\n    /* \"#utility.yul\":2080:2446   */\ntag_22:\n    /* \"#utility.yul\":2222:2225   */\n  0x00\n    /* \"#utility.yul\":2243:2310   */\n  tag_49\n    /* \"#utility.yul\":2307:2309   */\n  0x1f\n    /* \"#utility.yul\":2302:2305   */\n  dup4\n    /* \"#utility.yul\":2243:2310   */\n  tag_20\n  jump\t// in\ntag_49:\n    /* \"#utility.yul\":2236:2310   */\n  swap2\n  pop\n    /* \"#utility.yul\":2319:2412   */\n  tag_50\n    /* \"#utility.yul\":2408:2411   */\n  dup3\n    /* \"#utility.yul\":2319:2412   */\n  tag_21\n  jump\t// in\ntag_50:\n    /* \"#utility.yul\":2437:2439   */\n  0x20\n    /* \"#utility.yul\":2432:2435   */\n  dup3\n    /* \"#utility.yul\":2428:2440   */\n  add\n    /* \"#utility.yul\":2421:2440   */\n  swap1\n  pop\n    /* \"#utility.yul\":2080:2446   */\n  swap2\n  swap1\n  pop\n  jump\t// out\n    /* \"#utility.yul\":2452:2871   */\ntag_8:\n    /* \"#utility.yul\":2618:2622   */\n  0x00\n    /* \"#utility.yul\":2656:2658   */\n  0x20\n    /* \"#utility.yul\":2645:2654   */\n  dup3\n    /* \"#utility.yul\":2641:2659   */\n  add\n    /* \"#utility.yul\":2633:2659   */\n  swap1\n  pop\n    /* \"#utility.yul\":2705:2714   */\n  dup2\n    /* \"#utility.yul\":2699:2703   */\n  dup2\n    /* \"#utility.yul\":2695:2715   */\n  sub\n    /* \"#utility.yul\":2691:2692   */\n  0x00\n    /* \"#utility.yul\":2680:2689   */\n  dup4\n    /* \"#utility.yul\":2676:2693   */\n  add\n    /* \"#utility.yul\":2669:2716   */\n  mstore\n    /* \"#utility.yul\":2733:2864   */\n  tag_52\n    /* \"#utility.yul\":2859:2863   */\n  dup2\n    /* \"#utility.yul\":2733:2864   */\n  tag_22\n  jump\t// in\ntag_52:\n    /* \"#utility.yul\":2725:2864   */\n  swap1\n  pop\n    /* \"#utility.yul\":2452:2871   */\n  swap2\n  swap1\n  pop\n  jump\t// out\n    /* \"SimpleBank.sol\":216:4085  contract SimpleBank {... */\ntag_9:\n  dataSize(sub_0)\n  dup1\n  dataOffset(sub_0)\n  0x00\n  codecopy\n  0x00\n  return\nstop\n\nsub_0: assembly {\n        /* \"SimpleBank.sol\":216:4085  contract SimpleBank {... */\n      mstore(0x40, 0x80)\n      jumpi(tag_1, lt(calldatasize, 0x04))\n      shr(0xe0, calldataload(0x00))\n      dup1\n      0x61d027b3\n      gt\n      tag_14\n      jumpi\n      dup1\n      0x61d027b3\n      eq\n      tag_8\n      jumpi\n      dup1\n      0x6f9fb98a\n      eq\n      tag_9\n      jumpi\n      dup1\n      0x8da5cb5b\n      eq\n      tag_10\n      jumpi\n      dup1\n      0xa87430ba\n      eq\n      tag_11\n      jumpi\n      dup1\n      0xb6b55f25\n      eq\n      tag_12\n      jumpi\n      dup1\n      0xddca3f43\n      eq\n      tag_13\n      jumpi\n      jump(tag_2)\n    tag_14:\n      dup1\n      0x11f1fc99\n      eq\n      tag_3\n      jumpi\n      dup1\n      0x12065fe0\n      eq\n      tag_4\n      jumpi\n      dup1\n      0x2e1a7d4d\n      eq\n      tag_5\n      jumpi\n      dup1\n      0x313dab20\n      eq\n      tag_6\n      jumpi\n      dup1\n      0x3ffbd47f\n      eq\n      tag_7\n      jumpi\n      jump(tag_2)\n    tag_1:\n      jumpi(tag_2, calldatasize)\n        /* \"SimpleBank.sol\":3811:3816  users */\n      0x00\n        /* \"SimpleBank.sol\":3811:3828  users[msg.sender] */\n      dup1\n        /* \"SimpleBank.sol\":3817:3827  msg.sender */\n      caller\n        /* \"SimpleBank.sol\":3811:3828  users[msg.sender] */\n      0xffffffffffffffffffffffffffffffffffffffff\n      and\n      0xffffffffffffffffffffffffffffffffffffffff\n      and\n      dup2\n      mstore\n      0x20\n      add\n      swap1\n      dup2\n      mstore\n      0x20\n      add\n      0x00\n      keccak256\n        /* \"SimpleBank.sol\":3811:3841  users[msg.sender].isRegistered */\n      0x03\n      add\n      0x00\n      swap1\n      sload\n      swap1\n      0x0100\n      exp\n      swap1\n      div\n      0xff\n      and\n        /* \"SimpleBank.sol\":3803:3868  require(users[msg.sender].isRegistered, \"User is not registered\") */\n      tag_17\n      jumpi\n      mload(0x40)\n      0x08c379a000000000000000000000000000000000000000000000000000000000\n      dup2\n      mstore\n      0x04\n      add\n      tag_18\n      swap1\n      tag_19\n      jump\t// in\n    tag_18:\n      mload(0x40)\n      dup1\n      swap2\n      sub\n      swap1\n      revert\n    tag_17:\n        /* \"SimpleBank.sol\":3908:3917  msg.value */\n      callvalue\n        /* \"SimpleBank.sol\":3879:3884  users */\n      0x00\n        /* \"SimpleBank.sol\":3879:3896  users[msg.sender] */\n      dup1\n        /* \"SimpleBank.sol\":3885:3895  msg.sender */\n      caller\n        /* \"SimpleBank.sol\":3879:3896  users[msg.sender] */\n      0xffffffffffffffffffffffffffffffffffffffff\n      and\n      0xffffffffffffffffffffffffffffffffffffffff\n      and\n      dup2\n      mstore\n      0x20\n      add\n      swap1\n      dup2\n      mstore\n      0x20\n      add\n      0x00\n      keccak256\n        /* \"SimpleBank.sol\":3879:3904  users[msg.sender].balance */\n      0x02\n      add\n      0x00\n        /* \"SimpleBank.sol\":3879:3917  users[msg.sender].balance += msg.value */\n      dup3\n      dup3\n      sload\n      tag_20\n      swap2\n      swap1\n      tag_21\n      jump\t// in\n    tag_20:\n      swap3\n      pop\n      pop\n      dup2\n      swap1\n      sstore\n      pop\n        /* \"SimpleBank.sol\":3941:3951  msg.sender */\n      caller\n        /* \"SimpleBank.sol\":3933:3963  Deposit(msg.sender, msg.value) */\n      0xffffffffffffffffffffffffffffffffffffffff\n      and\n      0xe1fffcc4923d04b559f4d29a8bfc6cda04eb5b0d3c460751c2402c5c5cc9109c\n        /* \"SimpleBank.sol\":3953:3962  msg.value */\n      callvalue\n        /* \"SimpleBank.sol\":3933:3963  Deposit(msg.sender, msg.value) */\n      mload(0x40)\n      tag_22\n      swap2\n      swap1\n      tag_23\n      jump\t// in\n    tag_22:\n      mload(0x40)\n      dup1\n      swap2\n      sub\n      swap1\n      log2\n        /* \"SimpleBank.sol\":216:4085  contract SimpleBank {... */\n      stop\n    tag_2:\n      0x00\n      dup1\n      revert\n        /* \"SimpleBank.sol\":3394:3721  function withdrawTreasury(uint256 _amount) external onlyOwner {... */\n    tag_3:\n      callvalue\n      dup1\n      iszero\n      tag_24\n      jumpi\n      0x00\n      dup1\n      revert\n    tag_24:\n      pop\n      tag_25\n      0x04\n      dup1\n      calldatasize\n      sub\n      dup2\n      add\n      swap1\n      tag_26\n      swap2\n      swap1\n      tag_27\n      jump\t// in\n    tag_26:\n      tag_28\n      jump\t// in\n    tag_25:\n      stop\n        /* \"SimpleBank.sol\":2473:2593  function getBalance() external view onlyRegistered returns (uint256) {... */\n    tag_4:\n      callvalue\n      dup1\n      iszero\n      tag_29\n      jumpi\n      0x00\n      dup1\n      revert\n    tag_29:\n      pop\n      tag_30\n      tag_31\n      jump\t// in\n    tag_30:\n      mload(0x40)\n      tag_32\n      swap2\n      swap1\n      tag_23\n      jump\t// in\n    tag_32:\n      mload(0x40)\n      dup1\n      swap2\n      sub\n      swap1\n      return\n        /* \"SimpleBank.sol\":2731:3219  function withdraw(uint256 _amount) external onlyRegistered {... */\n    tag_5:\n      callvalue\n      dup1\n      iszero\n      tag_33\n      jumpi\n      0x00\n      dup1\n      revert\n    tag_33:\n      pop\n      tag_34\n      0x04\n      dup1\n      calldatasize\n      sub\n      dup2\n      add\n      swap1\n      tag_35\n      swap2\n      swap1\n      tag_27\n      jump\t// in\n    tag_35:\n      tag_36\n      jump\t// in\n    tag_34:\n      stop\n        /* \"SimpleBank.sol\":504:534  uint256 public treasuryBalance */\n    tag_6:\n      callvalue\n      dup1\n      iszero\n      tag_37\n      jumpi\n      0x00\n      dup1\n      revert\n    tag_37:\n      pop\n      tag_38\n      tag_39\n      jump\t// in\n    tag_38:\n      mload(0x40)\n      tag_40\n      swap2\n      swap1\n      tag_23\n      jump\t// in\n    tag_40:\n      mload(0x40)\n      dup1\n      swap2\n      sub\n      swap1\n      return\n        /* \"SimpleBank.sol\":1688:2109  function register(string calldata _firstName, string calldata _lastName) external {... */\n    tag_7:\n      callvalue\n      dup1\n      iszero\n      tag_41\n      jumpi\n      0x00\n      dup1\n      revert\n    tag_41:\n      pop\n      tag_42\n      0x04\n      dup1\n      calldatasize\n      sub\n      dup2\n      add\n      swap1\n      tag_43\n      swap2\n      swap1\n      tag_44\n      jump\t// in\n    tag_43:\n      tag_45\n      jump\t// in\n    tag_42:\n      stop\n        /* \"SimpleBank.sol\":449:472  address public treasury */\n    tag_8:\n      callvalue\n      dup1\n      iszero\n      tag_46\n      jumpi\n      0x00\n      dup1\n      revert\n    tag_46:\n      pop\n      tag_47\n      tag_48\n      jump\t// in\n    tag_47:\n      mload(0x40)\n      tag_49\n      swap2\n      swap1\n      tag_50\n      jump\t// in\n    tag_49:\n      mload(0x40)\n      dup1\n      swap2\n      sub\n      swap1\n      return\n        /* \"SimpleBank.sol\":3977:4080  function getContractBalance() public view returns (uint256) {... */\n    tag_9:\n      callvalue\n      dup1\n      iszero\n      tag_51\n      jumpi\n      0x00\n      dup1\n      revert\n    tag_51:\n      pop\n      tag_52\n      tag_53\n      jump\t// in\n    tag_52:\n      mload(0x40)\n      tag_54\n      swap2\n      swap1\n      tag_23\n      jump\t// in\n    tag_54:\n      mload(0x40)\n      dup1\n      swap2\n      sub\n      swap1\n      return\n        /* \"SimpleBank.sol\":422:442  address public owner */\n    tag_10:\n      callvalue\n      dup1\n      iszero\n      tag_55\n      jumpi\n      0x00\n      dup1\n      revert\n    tag_55:\n      pop\n      tag_56\n      tag_57\n      jump\t// in\n    tag_56:\n      mload(0x40)\n      tag_58\n      swap2\n      swap1\n      tag_50\n      jump\t// in\n    tag_58:\n      mload(0x40)\n      dup1\n      swap2\n      sub\n      swap1\n      return\n        /* \"SimpleBank.sol\":378:415  mapping(address => User) public users */\n    tag_11:\n      callvalue\n      dup1\n      iszero\n      tag_59\n      jumpi\n      0x00\n      dup1\n      revert\n    tag_59:\n      pop\n      tag_60\n      0x04\n      dup1\n      calldatasize\n      sub\n      dup2\n      add\n      swap1\n      tag_61\n      swap2\n      swap1\n      tag_62\n      jump\t// in\n    tag_61:\n      tag_63\n      jump\t// in\n    tag_60:\n      mload(0x40)\n      tag_64\n      swap5\n      swap4\n      swap3\n      swap2\n      swap1\n      tag_65\n      jump\t// in\n    tag_64:\n      mload(0x40)\n      dup1\n      swap2\n      sub\n      swap1\n      return\n        /* \"SimpleBank.sol\":2119:2352  function deposit(uint256 amount) external payable onlyRegistered {... */\n    tag_12:\n      tag_66\n      0x04\n      dup1\n      calldatasize\n      sub\n      dup2\n      add\n      swap1\n      tag_67\n      swap2\n      swap1\n      tag_27\n      jump\t// in\n    tag_67:\n      tag_68\n      jump\t// in\n    tag_66:\n      stop\n        /* \"SimpleBank.sol\":479:497  uint256 public fee */\n    tag_13:\n      callvalue\n      dup1\n      iszero\n      tag_69\n      jumpi\n      0x00\n      dup1\n      revert\n    tag_69:\n      pop\n      tag_70\n      tag_71\n      jump\t// in\n    tag_70:\n      mload(0x40)\n      tag_72\n      swap2\n      swap1\n      tag_23\n      jump\t// in\n    tag_72:\n      mload(0x40)\n      dup1\n      swap2\n      sub\n      swap1\n      return\n        /* \"SimpleBank.sol\":3394:3721  function withdrawTreasury(uint256 _amount) external onlyOwner {... */\n    tag_28:\n        /* \"SimpleBank.sol\":1036:1041  owner */\n      0x01\n      0x00\n      swap1\n      sload\n      swap1\n      0x0100\n      exp\n      swap1\n      div\n      0xffffffffffffffffffffffffffffffffffffffff\n      and\n        /* \"SimpleBank.sol\":1022:1041  msg.sender == owner */\n      0xffffffffffffffffffffffffffffffffffffffff\n      and\n        /* \"SimpleBank.sol\":1022:1032  msg.sender */\n      caller\n        /* \"SimpleBank.sol\":1022:1041  msg.sender == owner */\n      0xffffffffffffffffffffffffffffffffffffffff\n      and\n      eq\n        /* \"SimpleBank.sol\":1014:1079  require(msg.sender == owner, \"Only owner can call this function\") */\n      tag_74\n      jumpi\n      mload(0x40)\n      0x08c379a000000000000000000000000000000000000000000000000000000000\n      dup2\n      mstore\n      0x04\n      add\n      tag_75\n      swap1\n      tag_76\n      jump\t// in\n    tag_75:\n      mload(0x40)\n      dup1\n      swap2\n      sub\n      swap1\n      revert\n    tag_74:\n        /* \"SimpleBank.sol\":3485:3486  0 */\n      0x00\n        /* \"SimpleBank.sol\":3475:3482  _amount */\n      dup2\n        /* \"SimpleBank.sol\":3475:3486  _amount > 0 */\n      gt\n        /* \"SimpleBank.sol\":3467:3531  require(_amount > 0, \"Withdrawal amount must be greater than 0\") */\n      tag_78\n      jumpi\n      mload(0x40)\n      0x08c379a000000000000000000000000000000000000000000000000000000000\n      dup2\n      mstore\n      0x04\n      add\n      tag_79\n      swap1\n      tag_80\n      jump\t// in\n    tag_79:\n      mload(0x40)\n      dup1\n      swap2\n      sub\n      swap1\n      revert\n    tag_78:\n        /* \"SimpleBank.sol\":3569:3576  _amount */\n      dup1\n        /* \"SimpleBank.sol\":3550:3565  treasuryBalance */\n      sload(0x04)\n        /* \"SimpleBank.sol\":3550:3576  treasuryBalance >= _amount */\n      lt\n      iszero\n        /* \"SimpleBank.sol\":3542:3610  require(treasuryBalance >= _amount, \"Insufficient treasury balance\") */\n      tag_81\n      jumpi\n      mload(0x40)\n      0x08c379a000000000000000000000000000000000000000000000000000000000\n      dup2\n      mstore\n      0x04\n      add\n      tag_82\n      swap1\n      tag_83\n      jump\t// in\n    tag_82:\n      mload(0x40)\n      dup1\n      swap2\n      sub\n      swap1\n      revert\n    tag_81:\n        /* \"SimpleBank.sol\":3642:3649  _amount */\n      dup1\n        /* \"SimpleBank.sol\":3623:3638  treasuryBalance */\n      0x04\n      0x00\n        /* \"SimpleBank.sol\":3623:3649  treasuryBalance -= _amount */\n      dup3\n      dup3\n      sload\n      tag_84\n      swap2\n      swap1\n      tag_85\n      jump\t// in\n    tag_84:\n      swap3\n      pop\n      pop\n      dup2\n      swap1\n      sstore\n      pop\n        /* \"SimpleBank.sol\":3693:3703  msg.sender */\n      caller\n        /* \"SimpleBank.sol\":3674:3713  TreasuryWithdrawal(msg.sender, _amount) */\n      0xffffffffffffffffffffffffffffffffffffffff\n      and\n      0x233c84dc0c19fbf51f9fa92214ffd8a59f512e0098bff5827455d02e401221c0\n        /* \"SimpleBank.sol\":3705:3712  _amount */\n      dup3\n        /* \"SimpleBank.sol\":3674:3713  TreasuryWithdrawal(msg.sender, _amount) */\n      mload(0x40)\n      tag_86\n      swap2\n      swap1\n      tag_23\n      jump\t// in\n    tag_86:\n      mload(0x40)\n      dup1\n      swap2\n      sub\n      swap1\n      log2\n        /* \"SimpleBank.sol\":3394:3721  function withdrawTreasury(uint256 _amount) external onlyOwner {... */\n      pop\n      jump\t// out\n        /* \"SimpleBank.sol\":2473:2593  function getBalance() external view onlyRegistered returns (uint256) {... */\n    tag_31:\n        /* \"SimpleBank.sol\":2533:2540  uint256 */\n      0x00\n        /* \"SimpleBank.sol\":897:902  users */\n      dup1\n        /* \"SimpleBank.sol\":897:914  users[msg.sender] */\n      0x00\n        /* \"SimpleBank.sol\":903:913  msg.sender */\n      caller\n        /* \"SimpleBank.sol\":897:914  users[msg.sender] */\n      0xffffffffffffffffffffffffffffffffffffffff\n      and\n      0xffffffffffffffffffffffffffffffffffffffff\n      and\n      dup2\n      mstore\n      0x20\n      add\n      swap1\n      dup2\n      mstore\n      0x20\n      add\n      0x00\n      keccak256\n        /* \"SimpleBank.sol\":897:927  users[msg.sender].isRegistered */\n      0x03\n      add\n      0x00\n      swap1\n      sload\n      swap1\n      0x0100\n      exp\n      swap1\n      div\n      0xff\n      and\n        /* \"SimpleBank.sol\":889:954  require(users[msg.sender].isRegistered, \"User is not registered\") */\n      tag_88\n      jumpi\n      mload(0x40)\n      0x08c379a000000000000000000000000000000000000000000000000000000000\n      dup2\n      mstore\n      0x04\n      add\n      tag_89\n      swap1\n      tag_19\n      jump\t// in\n    tag_89:\n      mload(0x40)\n      dup1\n      swap2\n      sub\n      swap1\n      revert\n    tag_88:\n        /* \"SimpleBank.sol\":2560:2565  users */\n      0x00\n        /* \"SimpleBank.sol\":2560:2577  users[msg.sender] */\n      dup1\n        /* \"SimpleBank.sol\":2566:2576  msg.sender */\n      caller\n        /* \"SimpleBank.sol\":2560:2577  users[msg.sender] */\n      0xffffffffffffffffffffffffffffffffffffffff\n      and\n      0xffffffffffffffffffffffffffffffffffffffff\n      and\n      dup2\n      mstore\n      0x20\n      add\n      swap1\n      dup2\n      mstore\n      0x20\n      add\n      0x00\n      keccak256\n        /* \"SimpleBank.sol\":2560:2585  users[msg.sender].balance */\n      0x02\n      add\n      sload\n        /* \"SimpleBank.sol\":2553:2585  return users[msg.sender].balance */\n      swap1\n      pop\n        /* \"SimpleBank.sol\":2473:2593  function getBalance() external view onlyRegistered returns (uint256) {... */\n      swap1\n      jump\t// out\n        /* \"SimpleBank.sol\":2731:3219  function withdraw(uint256 _amount) external onlyRegistered {... */\n    tag_36:\n        /* \"SimpleBank.sol\":897:902  users */\n      0x00\n        /* \"SimpleBank.sol\":897:914  users[msg.sender] */\n      dup1\n        /* \"SimpleBank.sol\":903:913  msg.sender */\n      caller\n        /* \"SimpleBank.sol\":897:914  users[msg.sender] */\n      0xffffffffffffffffffffffffffffffffffffffff\n      and\n      0xffffffffffffffffffffffffffffffffffffffff\n      and\n      dup2\n      mstore\n      0x20\n      add\n      swap1\n      dup2\n      mstore\n      0x20\n      add\n      0x00\n      keccak256\n        /* \"SimpleBank.sol\":897:927  users[msg.sender].isRegistered */\n      0x03\n      add\n      0x00\n      swap1\n      sload\n      swap1\n      0x0100\n      exp\n      swap1\n      div\n      0xff\n      and\n        /* \"SimpleBank.sol\":889:954  require(users[msg.sender].isRegistered, \"User is not registered\") */\n      tag_92\n      jumpi\n      mload(0x40)\n      0x08c379a000000000000000000000000000000000000000000000000000000000\n      dup2\n      mstore\n      0x04\n      add\n      tag_93\n      swap1\n      tag_19\n      jump\t// in\n    tag_93:\n      mload(0x40)\n      dup1\n      swap2\n      sub\n      swap1\n      revert\n    tag_92:\n        /* \"SimpleBank.sol\":2819:2820  0 */\n      0x00\n        /* \"SimpleBank.sol\":2809:2816  _amount */\n      dup2\n        /* \"SimpleBank.sol\":2809:2820  _amount > 0 */\n      gt\n        /* \"SimpleBank.sol\":2801:2865  require(_amount > 0, \"Withdrawal amount must be greater than 0\") */\n      tag_95\n      jumpi\n      mload(0x40)\n      0x08c379a000000000000000000000000000000000000000000000000000000000\n      dup2\n      mstore\n      0x04\n      add\n      tag_96\n      swap1\n      tag_80\n      jump\t// in\n    tag_96:\n      mload(0x40)\n      dup1\n      swap2\n      sub\n      swap1\n      revert\n    tag_95:\n        /* \"SimpleBank.sol\":2913:2920  _amount */\n      dup1\n        /* \"SimpleBank.sol\":2884:2889  users */\n      0x00\n        /* \"SimpleBank.sol\":2884:2901  users[msg.sender] */\n      dup1\n        /* \"SimpleBank.sol\":2890:2900  msg.sender */\n      caller\n        /* \"SimpleBank.sol\":2884:2901  users[msg.sender] */\n      0xffffffffffffffffffffffffffffffffffffffff\n      and\n      0xffffffffffffffffffffffffffffffffffffffff\n      and\n      dup2\n      mstore\n      0x20\n      add\n      swap1\n      dup2\n      mstore\n      0x20\n      add\n      0x00\n      keccak256\n        /* \"SimpleBank.sol\":2884:2909  users[msg.sender].balance */\n      0x02\n      add\n      sload\n        /* \"SimpleBank.sol\":2884:2920  users[msg.sender].balance >= _amount */\n      lt\n      iszero\n        /* \"SimpleBank.sol\":2876:2945  require(users[msg.sender].balance >= _amount, \"Insufficient balance\") */\n      tag_97\n      jumpi\n      mload(0x40)\n      0x08c379a000000000000000000000000000000000000000000000000000000000\n      dup2\n      mstore\n      0x04\n      add\n      tag_98\n      swap1\n      tag_99\n      jump\t// in\n    tag_98:\n      mload(0x40)\n      dup1\n      swap2\n      sub\n      swap1\n      revert\n    tag_97:\n        /* \"SimpleBank.sol\":2958:2975  uint256 feeAmount */\n      0x00\n        /* \"SimpleBank.sol\":2996:3001  10000 */\n      0x2710\n        /* \"SimpleBank.sol\":2989:2992  fee */\n      sload(0x03)\n        /* \"SimpleBank.sol\":2979:2986  _amount */\n      dup4\n        /* \"SimpleBank.sol\":2979:2992  _amount * fee */\n      tag_100\n      swap2\n      swap1\n      tag_101\n      jump\t// in\n    tag_100:\n        /* \"SimpleBank.sol\":2978:3001  (_amount * fee) / 10000 */\n      tag_102\n      swap2\n      swap1\n      tag_103\n      jump\t// in\n    tag_102:\n        /* \"SimpleBank.sol\":2958:3001  uint256 feeAmount = (_amount * fee) / 10000 */\n      swap1\n      pop\n        /* \"SimpleBank.sol\":3012:3034  uint256 amountAfterFee */\n      0x00\n        /* \"SimpleBank.sol\":3047:3056  feeAmount */\n      dup2\n        /* \"SimpleBank.sol\":3037:3044  _amount */\n      dup4\n        /* \"SimpleBank.sol\":3037:3056  _amount - feeAmount */\n      tag_104\n      swap2\n      swap1\n      tag_85\n      jump\t// in\n    tag_104:\n        /* \"SimpleBank.sol\":3012:3056  uint256 amountAfterFee = _amount - feeAmount */\n      swap1\n      pop\n        /* \"SimpleBank.sol\":3098:3105  _amount */\n      dup3\n        /* \"SimpleBank.sol\":3069:3074  users */\n      0x00\n        /* \"SimpleBank.sol\":3069:3086  users[msg.sender] */\n      dup1\n        /* \"SimpleBank.sol\":3075:3085  msg.sender */\n      caller\n        /* \"SimpleBank.sol\":3069:3086  users[msg.sender] */\n      0xffffffffffffffffffffffffffffffffffffffff\n      and\n      0xffffffffffffffffffffffffffffffffffffffff\n      and\n      dup2\n      mstore\n      0x20\n      add\n      swap1\n      dup2\n      mstore\n      0x20\n      add\n      0x00\n      keccak256\n        /* \"SimpleBank.sol\":3069:3094  users[msg.sender].balance */\n      0x02\n      add\n      0x00\n        /* \"SimpleBank.sol\":3069:3105  users[msg.sender].balance -= _amount */\n      dup3\n      dup3\n      sload\n      tag_105\n      swap2\n      swap1\n      tag_85\n      jump\t// in\n    tag_105:\n      swap3\n      pop\n      pop\n      dup2\n      swap1\n      sstore\n      pop\n        /* \"SimpleBank.sol\":3135:3144  feeAmount */\n      dup2\n        /* \"SimpleBank.sol\":3116:3131  treasuryBalance */\n      0x04\n      0x00\n        /* \"SimpleBank.sol\":3116:3144  treasuryBalance += feeAmount */\n      dup3\n      dup3\n      sload\n      tag_106\n      swap2\n      swap1\n      tag_21\n      jump\t// in\n    tag_106:\n      swap3\n      pop\n      pop\n      dup2\n      swap1\n      sstore\n      pop\n        /* \"SimpleBank.sol\":3173:3183  msg.sender */\n      caller\n        /* \"SimpleBank.sol\":3162:3211  Withdrawal(msg.sender, amountAfterFee, feeAmount) */\n      0xffffffffffffffffffffffffffffffffffffffff\n      and\n      0xdf273cb619d95419a9cd0ec88123a0538c85064229baa6363788f743fff90deb\n        /* \"SimpleBank.sol\":3185:3199  amountAfterFee */\n      dup3\n        /* \"SimpleBank.sol\":3201:3210  feeAmount */\n      dup5\n        /* \"SimpleBank.sol\":3162:3211  Withdrawal(msg.sender, amountAfterFee, feeAmount) */\n      mload(0x40)\n      tag_107\n      swap3\n      swap2\n      swap1\n      tag_108\n      jump\t// in\n    tag_107:\n      mload(0x40)\n      dup1\n      swap2\n      sub\n      swap1\n      log2\n        /* \"SimpleBank.sol\":2790:3219  {... */\n      pop\n      pop\n        /* \"SimpleBank.sol\":2731:3219  function withdraw(uint256 _amount) external onlyRegistered {... */\n      pop\n      jump\t// out\n        /* \"SimpleBank.sol\":504:534  uint256 public treasuryBalance */\n    tag_39:\n      sload(0x04)\n      dup2\n      jump\t// out\n        /* \"SimpleBank.sol\":1688:2109  function register(string calldata _firstName, string calldata _lastName) external {... */\n    tag_45:\n        /* \"SimpleBank.sol\":1816:1817  0 */\n      0x00\n        /* \"SimpleBank.sol\":1795:1805  _firstName */\n      dup5\n      dup5\n        /* \"SimpleBank.sol\":1789:1813  bytes(_firstName).length */\n      swap1\n      pop\n        /* \"SimpleBank.sol\":1789:1817  bytes(_firstName).length > 0 */\n      gt\n        /* \"SimpleBank.sol\":1789:1848  bytes(_firstName).length > 0 && bytes(_lastName).length > 0 */\n      dup1\n      iszero\n      tag_110\n      jumpi\n      pop\n        /* \"SimpleBank.sol\":1847:1848  0 */\n      0x00\n        /* \"SimpleBank.sol\":1827:1836  _lastName */\n      dup3\n      dup3\n        /* \"SimpleBank.sol\":1821:1844  bytes(_lastName).length */\n      swap1\n      pop\n        /* \"SimpleBank.sol\":1821:1848  bytes(_lastName).length > 0 */\n      gt\n        /* \"SimpleBank.sol\":1789:1848  bytes(_firstName).length > 0 && bytes(_lastName).length > 0 */\n    tag_110:\n        /* \"SimpleBank.sol\":1781:1886  require(bytes(_firstName).length > 0 && bytes(_lastName).length > 0, \"Name and lastname cannot be empty\") */\n      tag_111\n      jumpi\n      mload(0x40)\n      0x08c379a000000000000000000000000000000000000000000000000000000000\n      dup2\n      mstore\n      0x04\n      add\n      tag_112\n      swap1\n      tag_113\n      jump\t// in\n    tag_112:\n      mload(0x40)\n      dup1\n      swap2\n      sub\n      swap1\n      revert\n    tag_111:\n        /* \"SimpleBank.sol\":1906:1911  users */\n      0x00\n        /* \"SimpleBank.sol\":1906:1923  users[msg.sender] */\n      dup1\n        /* \"SimpleBank.sol\":1912:1922  msg.sender */\n      caller\n        /* \"SimpleBank.sol\":1906:1923  users[msg.sender] */\n      0xffffffffffffffffffffffffffffffffffffffff\n      and\n      0xffffffffffffffffffffffffffffffffffffffff\n      and\n      dup2\n      mstore\n      0x20\n      add\n      swap1\n      dup2\n      mstore\n      0x20\n      add\n      0x00\n      keccak256\n        /* \"SimpleBank.sol\":1906:1936  users[msg.sender].isRegistered */\n      0x03\n      add\n      0x00\n      swap1\n      sload\n      swap1\n      0x0100\n      exp\n      swap1\n      div\n      0xff\n      and\n        /* \"SimpleBank.sol\":1905:1936  !users[msg.sender].isRegistered */\n      iszero\n        /* \"SimpleBank.sol\":1897:1967  require(!users[msg.sender].isRegistered, \"User is already registered\") */\n      tag_114\n      jumpi\n      mload(0x40)\n      0x08c379a000000000000000000000000000000000000000000000000000000000\n      dup2\n      mstore\n      0x04\n      add\n      tag_115\n      swap1\n      tag_116\n      jump\t// in\n    tag_115:\n      mload(0x40)\n      dup1\n      swap2\n      sub\n      swap1\n      revert\n    tag_114:\n        /* \"SimpleBank.sol\":2000:2036  User(_firstName, _lastName, 0, true) */\n      mload(0x40)\n      dup1\n      0x80\n      add\n      0x40\n      mstore\n      dup1\n        /* \"SimpleBank.sol\":2005:2015  _firstName */\n      dup6\n      dup6\n        /* \"SimpleBank.sol\":2000:2036  User(_firstName, _lastName, 0, true) */\n      dup1\n      dup1\n      0x1f\n      add\n      0x20\n      dup1\n      swap2\n      div\n      mul\n      0x20\n      add\n      mload(0x40)\n      swap1\n      dup2\n      add\n      0x40\n      mstore\n      dup1\n      swap4\n      swap3\n      swap2\n      swap1\n      dup2\n      dup2\n      mstore\n      0x20\n      add\n      dup4\n      dup4\n      dup1\n      dup3\n      dup5\n      calldatacopy\n      0x00\n      dup2\n      dup5\n      add\n      mstore\n      not(0x1f)\n      0x1f\n      dup3\n      add\n      and\n      swap1\n      pop\n      dup1\n      dup4\n      add\n      swap3\n      pop\n      pop\n      pop\n      pop\n      pop\n      pop\n      pop\n      dup2\n      mstore\n      0x20\n      add\n        /* \"SimpleBank.sol\":2017:2026  _lastName */\n      dup4\n      dup4\n        /* \"SimpleBank.sol\":2000:2036  User(_firstName, _lastName, 0, true) */\n      dup1\n      dup1\n      0x1f\n      add\n      0x20\n      dup1\n      swap2\n      div\n      mul\n      0x20\n      add\n      mload(0x40)\n      swap1\n      dup2\n      add\n      0x40\n      mstore\n      dup1\n      swap4\n      swap3\n      swap2\n      swap1\n      dup2\n      dup2\n      mstore\n      0x20\n      add\n      dup4\n      dup4\n      dup1\n      dup3\n      dup5\n      calldatacopy\n      0x00\n      dup2\n      dup5\n      add\n      mstore\n      not(0x1f)\n      0x1f\n      dup3\n      add\n      and\n      swap1\n      pop\n      dup1\n      dup4\n      add\n      swap3\n      pop\n      pop\n      pop\n      pop\n      pop\n      pop\n      pop\n      dup2\n      mstore\n      0x20\n      add\n        /* \"SimpleBank.sol\":2028:2029  0 */\n      0x00\n        /* \"SimpleBank.sol\":2000:2036  User(_firstName, _lastName, 0, true) */\n      dup2\n      mstore\n      0x20\n      add\n        /* \"SimpleBank.sol\":2031:2035  true */\n      0x01\n        /* \"SimpleBank.sol\":2000:2036  User(_firstName, _lastName, 0, true) */\n      iszero\n      iszero\n      dup2\n      mstore\n      pop\n        /* \"SimpleBank.sol\":1980:1985  users */\n      0x00\n        /* \"SimpleBank.sol\":1980:1997  users[msg.sender] */\n      dup1\n        /* \"SimpleBank.sol\":1986:1996  msg.sender */\n      caller\n        /* \"SimpleBank.sol\":1980:1997  users[msg.sender] */\n      0xffffffffffffffffffffffffffffffffffffffff\n      and\n      0xffffffffffffffffffffffffffffffffffffffff\n      and\n      dup2\n      mstore\n      0x20\n      add\n      swap1\n      dup2\n      mstore\n      0x20\n      add\n      0x00\n      keccak256\n        /* \"SimpleBank.sol\":1980:2036  users[msg.sender] = User(_firstName, _lastName, 0, true) */\n      0x00\n      dup3\n      add\n      mload\n      dup2\n      0x00\n      add\n      swap1\n      dup2\n      tag_117\n      swap2\n      swap1\n      tag_118\n      jump\t// in\n    tag_117:\n      pop\n      0x20\n      dup3\n      add\n      mload\n      dup2\n      0x01\n      add\n      swap1\n      dup2\n      tag_119\n      swap2\n      swap1\n      tag_118\n      jump\t// in\n    tag_119:\n      pop\n      0x40\n      dup3\n      add\n      mload\n      dup2\n      0x02\n      add\n      sstore\n      0x60\n      dup3\n      add\n      mload\n      dup2\n      0x03\n      add\n      exp(0x0100, 0x00)\n      dup2\n      sload\n      dup2\n      0xff\n      mul\n      not\n      and\n      swap1\n      dup4\n      iszero\n      iszero\n      mul\n      or\n      swap1\n      sstore\n      pop\n      swap1\n      pop\n      pop\n        /* \"SimpleBank.sol\":2067:2077  msg.sender */\n      caller\n        /* \"SimpleBank.sol\":2052:2101  UserRegistered(msg.sender, _firstName, _lastName) */\n      0xffffffffffffffffffffffffffffffffffffffff\n      and\n      0x92822564bab8864c3a47b34e8d23fbce5c46234eb5da261f94087b995ac0f33b\n        /* \"SimpleBank.sol\":2079:2089  _firstName */\n      dup6\n      dup6\n        /* \"SimpleBank.sol\":2091:2100  _lastName */\n      dup6\n      dup6\n        /* \"SimpleBank.sol\":2052:2101  UserRegistered(msg.sender, _firstName, _lastName) */\n      mload(0x40)\n      tag_120\n      swap5\n      swap4\n      swap3\n      swap2\n      swap1\n      tag_121\n      jump\t// in\n    tag_120:\n      mload(0x40)\n      dup1\n      swap2\n      sub\n      swap1\n      log2\n        /* \"SimpleBank.sol\":1688:2109  function register(string calldata _firstName, string calldata _lastName) external {... */\n      pop\n      pop\n      pop\n      pop\n      jump\t// out\n        /* \"SimpleBank.sol\":449:472  address public treasury */\n    tag_48:\n      0x02\n      0x00\n      swap1\n      sload\n      swap1\n      0x0100\n      exp\n      swap1\n      div\n      0xffffffffffffffffffffffffffffffffffffffff\n      and\n      dup2\n      jump\t// out\n        /* \"SimpleBank.sol\":3977:4080  function getContractBalance() public view returns (uint256) {... */\n    tag_53:\n        /* \"SimpleBank.sol\":4028:4035  uint256 */\n      0x00\n        /* \"SimpleBank.sol\":4051:4072  address(this).balance */\n      selfbalance\n        /* \"SimpleBank.sol\":4044:4072  return address(this).balance */\n      swap1\n      pop\n        /* \"SimpleBank.sol\":3977:4080  function getContractBalance() public view returns (uint256) {... */\n      swap1\n      jump\t// out\n        /* \"SimpleBank.sol\":422:442  address public owner */\n    tag_57:\n      0x01\n      0x00\n      swap1\n      sload\n      swap1\n      0x0100\n      exp\n      swap1\n      div\n      0xffffffffffffffffffffffffffffffffffffffff\n      and\n      dup2\n      jump\t// out\n        /* \"SimpleBank.sol\":378:415  mapping(address => User) public users */\n    tag_63:\n      mstore(0x20, 0x00)\n      dup1\n      0x00\n      mstore\n      keccak256(0x00, 0x40)\n      0x00\n      swap2\n      pop\n      swap1\n      pop\n      dup1\n      0x00\n      add\n      dup1\n      sload\n      tag_123\n      swap1\n      tag_124\n      jump\t// in\n    tag_123:\n      dup1\n      0x1f\n      add\n      0x20\n      dup1\n      swap2\n      div\n      mul\n      0x20\n      add\n      mload(0x40)\n      swap1\n      dup2\n      add\n      0x40\n      mstore\n      dup1\n      swap3\n      swap2\n      swap1\n      dup2\n      dup2\n      mstore\n      0x20\n      add\n      dup3\n      dup1\n      sload\n      tag_125\n      swap1\n      tag_124\n      jump\t// in\n    tag_125:\n      dup1\n      iszero\n      tag_126\n      jumpi\n      dup1\n      0x1f\n      lt\n      tag_127\n      jumpi\n      0x0100\n      dup1\n      dup4\n      sload\n      div\n      mul\n      dup4\n      mstore\n      swap2\n      0x20\n      add\n      swap2\n      jump(tag_126)\n    tag_127:\n      dup3\n      add\n      swap2\n      swap1\n      0x00\n      mstore\n      keccak256(0x00, 0x20)\n      swap1\n    tag_128:\n      dup2\n      sload\n      dup2\n      mstore\n      swap1\n      0x01\n      add\n      swap1\n      0x20\n      add\n      dup1\n      dup4\n      gt\n      tag_128\n      jumpi\n      dup3\n      swap1\n      sub\n      0x1f\n      and\n      dup3\n      add\n      swap2\n    tag_126:\n      pop\n      pop\n      pop\n      pop\n      pop\n      swap1\n      dup1\n      0x01\n      add\n      dup1\n      sload\n      tag_129\n      swap1\n      tag_124\n      jump\t// in\n    tag_129:\n      dup1\n      0x1f\n      add\n      0x20\n      dup1\n      swap2\n      div\n      mul\n      0x20\n      add\n      mload(0x40)\n      swap1\n      dup2\n      add\n      0x40\n      mstore\n      dup1\n      swap3\n      swap2\n      swap1\n      dup2\n      dup2\n      mstore\n      0x20\n      add\n      dup3\n      dup1\n      sload\n      tag_130\n      swap1\n      tag_124\n      jump\t// in\n    tag_130:\n      dup1\n      iszero\n      tag_131\n      jumpi\n      dup1\n      0x1f\n      lt\n      tag_132\n      jumpi\n      0x0100\n      dup1\n      dup4\n      sload\n      div\n      mul\n      dup4\n      mstore\n      swap2\n      0x20\n      add\n      swap2\n      jump(tag_131)\n    tag_132:\n      dup3\n      add\n      swap2\n      swap1\n      0x00\n      mstore\n      keccak256(0x00, 0x20)\n      swap1\n    tag_133:\n      dup2\n      sload\n      dup2\n      mstore\n      swap1\n      0x01\n      add\n      swap1\n      0x20\n      add\n      dup1\n      dup4\n      gt\n      tag_133\n      jumpi\n      dup3\n      swap1\n      sub\n      0x1f\n      and\n      dup3\n      add\n      swap2\n    tag_131:\n      pop\n      pop\n      pop\n      pop\n      pop\n      swap1\n      dup1\n      0x02\n      add\n      sload\n      swap1\n      dup1\n      0x03\n      add\n      0x00\n      swap1\n      sload\n      swap1\n      0x0100\n      exp\n      swap1\n      div\n      0xff\n      and\n      swap1\n      pop\n      dup5\n      jump\t// out\n        /* \"SimpleBank.sol\":2119:2352  function deposit(uint256 amount) external payable onlyRegistered {... */\n    tag_68:\n        /* \"SimpleBank.sol\":897:902  users */\n      0x00\n        /* \"SimpleBank.sol\":897:914  users[msg.sender] */\n      dup1\n        /* \"SimpleBank.sol\":903:913  msg.sender */\n      caller\n        /* \"SimpleBank.sol\":897:914  users[msg.sender] */\n      0xffffffffffffffffffffffffffffffffffffffff\n      and\n      0xffffffffffffffffffffffffffffffffffffffff\n      and\n      dup2\n      mstore\n      0x20\n      add\n      swap1\n      dup2\n      mstore\n      0x20\n      add\n      0x00\n      keccak256\n        /* \"SimpleBank.sol\":897:927  users[msg.sender].isRegistered */\n      0x03\n      add\n      0x00\n      swap1\n      sload\n      swap1\n      0x0100\n      exp\n      swap1\n      div\n      0xff\n      and\n        /* \"SimpleBank.sol\":889:954  require(users[msg.sender].isRegistered, \"User is not registered\") */\n      tag_135\n      jumpi\n      mload(0x40)\n      0x08c379a000000000000000000000000000000000000000000000000000000000\n      dup2\n      mstore\n      0x04\n      add\n      tag_136\n      swap1\n      tag_19\n      jump\t// in\n    tag_136:\n      mload(0x40)\n      dup1\n      swap2\n      sub\n      swap1\n      revert\n    tag_135:\n        /* \"SimpleBank.sol\":2212:2213  0 */\n      0x00\n        /* \"SimpleBank.sol\":2203:2209  amount */\n      dup2\n        /* \"SimpleBank.sol\":2203:2213  amount > 0 */\n      gt\n        /* \"SimpleBank.sol\":2195:2255  require(amount > 0, \"Deposit amount must be greater than 0\") */\n      tag_138\n      jumpi\n      mload(0x40)\n      0x08c379a000000000000000000000000000000000000000000000000000000000\n      dup2\n      mstore\n      0x04\n      add\n      tag_139\n      swap1\n      tag_140\n      jump\t// in\n    tag_139:\n      mload(0x40)\n      dup1\n      swap2\n      sub\n      swap1\n      revert\n    tag_138:\n        /* \"SimpleBank.sol\":2295:2301  amount */\n      dup1\n        /* \"SimpleBank.sol\":2266:2271  users */\n      0x00\n        /* \"SimpleBank.sol\":2266:2283  users[msg.sender] */\n      dup1\n        /* \"SimpleBank.sol\":2272:2282  msg.sender */\n      caller\n        /* \"SimpleBank.sol\":2266:2283  users[msg.sender] */\n      0xffffffffffffffffffffffffffffffffffffffff\n      and\n      0xffffffffffffffffffffffffffffffffffffffff\n      and\n      dup2\n      mstore\n      0x20\n      add\n      swap1\n      dup2\n      mstore\n      0x20\n      add\n      0x00\n      keccak256\n        /* \"SimpleBank.sol\":2266:2291  users[msg.sender].balance */\n      0x02\n      add\n      0x00\n        /* \"SimpleBank.sol\":2266:2301  users[msg.sender].balance += amount */\n      dup3\n      dup3\n      sload\n      tag_141\n      swap2\n      swap1\n      tag_21\n      jump\t// in\n    tag_141:\n      swap3\n      pop\n      pop\n      dup2\n      swap1\n      sstore\n      pop\n        /* \"SimpleBank.sol\":2325:2335  msg.sender */\n      caller\n        /* \"SimpleBank.sol\":2317:2344  Deposit(msg.sender, amount) */\n      0xffffffffffffffffffffffffffffffffffffffff\n      and\n      0xe1fffcc4923d04b559f4d29a8bfc6cda04eb5b0d3c460751c2402c5c5cc9109c\n        /* \"SimpleBank.sol\":2337:2343  amount */\n      dup3\n        /* \"SimpleBank.sol\":2317:2344  Deposit(msg.sender, amount) */\n      mload(0x40)\n      tag_142\n      swap2\n      swap1\n      tag_23\n      jump\t// in\n    tag_142:\n      mload(0x40)\n      dup1\n      swap2\n      sub\n      swap1\n      log2\n        /* \"SimpleBank.sol\":2119:2352  function deposit(uint256 amount) external payable onlyRegistered {... */\n      pop\n      jump\t// out\n        /* \"SimpleBank.sol\":479:497  uint256 public fee */\n    tag_71:\n      sload(0x03)\n      dup2\n      jump\t// out\n        /* \"#utility.yul\":7:176   */\n    tag_143:\n        /* \"#utility.yul\":91:102   */\n      0x00\n        /* \"#utility.yul\":125:131   */\n      dup3\n        /* \"#utility.yul\":120:123   */\n      dup3\n        /* \"#utility.yul\":113:132   */\n      mstore\n        /* \"#utility.yul\":165:169   */\n      0x20\n        /* \"#utility.yul\":160:163   */\n      dup3\n        /* \"#utility.yul\":156:170   */\n      add\n        /* \"#utility.yul\":141:170   */\n      swap1\n      pop\n        /* \"#utility.yul\":7:176   */\n      swap3\n      swap2\n      pop\n      pop\n      jump\t// out\n        /* \"#utility.yul\":182:354   */\n    tag_144:\n        /* \"#utility.yul\":322:346   */\n      0x55736572206973206e6f74207265676973746572656400000000000000000000\n        /* \"#utility.yul\":318:319   */\n      0x00\n        /* \"#utility.yul\":310:316   */\n      dup3\n        /* \"#utility.yul\":306:320   */\n      add\n        /* \"#utility.yul\":299:347   */\n      mstore\n        /* \"#utility.yul\":182:354   */\n      pop\n      jump\t// out\n        /* \"#utility.yul\":360:726   */\n    tag_145:\n        /* \"#utility.yul\":502:505   */\n      0x00\n        /* \"#utility.yul\":523:590   */\n      tag_207\n        /* \"#utility.yul\":587:589   */\n      0x16\n        /* \"#utility.yul\":582:585   */\n      dup4\n        /* \"#utility.yul\":523:590   */\n      tag_143\n      jump\t// in\n    tag_207:\n        /* \"#utility.yul\":516:590   */\n      swap2\n      pop\n        /* \"#utility.yul\":599:692   */\n      tag_208\n        /* \"#utility.yul\":688:691   */\n      dup3\n        /* \"#utility.yul\":599:692   */\n      tag_144\n      jump\t// in\n    tag_208:\n        /* \"#utility.yul\":717:719   */\n      0x20\n        /* \"#utility.yul\":712:715   */\n      dup3\n        /* \"#utility.yul\":708:720   */\n      add\n        /* \"#utility.yul\":701:720   */\n      swap1\n      pop\n        /* \"#utility.yul\":360:726   */\n      swap2\n      swap1\n      pop\n      jump\t// out\n        /* \"#utility.yul\":732:1151   */\n    tag_19:\n        /* \"#utility.yul\":898:902   */\n      0x00\n        /* \"#utility.yul\":936:938   */\n      0x20\n        /* \"#utility.yul\":925:934   */\n      dup3\n        /* \"#utility.yul\":921:939   */\n      add\n        /* \"#utility.yul\":913:939   */\n      swap1\n      pop\n        /* \"#utility.yul\":985:994   */\n      dup2\n        /* \"#utility.yul\":979:983   */\n      dup2\n        /* \"#utility.yul\":975:995   */\n      sub\n        /* \"#utility.yul\":971:972   */\n      0x00\n        /* \"#utility.yul\":960:969   */\n      dup4\n        /* \"#utility.yul\":956:973   */\n      add\n        /* \"#utility.yul\":949:996   */\n      mstore\n        /* \"#utility.yul\":1013:1144   */\n      tag_210\n        /* \"#utility.yul\":1139:1143   */\n      dup2\n        /* \"#utility.yul\":1013:1144   */\n      tag_145\n      jump\t// in\n    tag_210:\n        /* \"#utility.yul\":1005:1144   */\n      swap1\n      pop\n        /* \"#utility.yul\":732:1151   */\n      swap2\n      swap1\n      pop\n      jump\t// out\n        /* \"#utility.yul\":1157:1234   */\n    tag_146:\n        /* \"#utility.yul\":1194:1201   */\n      0x00\n        /* \"#utility.yul\":1223:1228   */\n      dup2\n        /* \"#utility.yul\":1212:1228   */\n      swap1\n      pop\n        /* \"#utility.yul\":1157:1234   */\n      swap2\n      swap1\n      pop\n      jump\t// out\n        /* \"#utility.yul\":1240:1420   */\n    tag_147:\n        /* \"#utility.yul\":1288:1365   */\n      0x4e487b7100000000000000000000000000000000000000000000000000000000\n        /* \"#utility.yul\":1285:1286   */\n      0x00\n        /* \"#utility.yul\":1278:1366   */\n      mstore\n        /* \"#utility.yul\":1385:1389   */\n      0x11\n        /* \"#utility.yul\":1382:1383   */\n      0x04\n        /* \"#utility.yul\":1375:1390   */\n      mstore\n        /* \"#utility.yul\":1409:1413   */\n      0x24\n        /* \"#utility.yul\":1406:1407   */\n      0x00\n        /* \"#utility.yul\":1399:1414   */\n      revert\n        /* \"#utility.yul\":1426:1617   */\n    tag_21:\n        /* \"#utility.yul\":1466:1469   */\n      0x00\n        /* \"#utility.yul\":1485:1505   */\n      tag_214\n        /* \"#utility.yul\":1503:1504   */\n      dup3\n        /* \"#utility.yul\":1485:1505   */\n      tag_146\n      jump\t// in\n    tag_214:\n        /* \"#utility.yul\":1480:1505   */\n      swap2\n      pop\n        /* \"#utility.yul\":1519:1539   */\n      tag_215\n        /* \"#utility.yul\":1537:1538   */\n      dup4\n        /* \"#utility.yul\":1519:1539   */\n      tag_146\n      jump\t// in\n    tag_215:\n        /* \"#utility.yul\":1514:1539   */\n      swap3\n      pop\n        /* \"#utility.yul\":1562:1563   */\n      dup3\n        /* \"#utility.yul\":1559:1560   */\n      dup3\n        /* \"#utility.yul\":1555:1564   */\n      add\n        /* \"#utility.yul\":1548:1564   */\n      swap1\n      pop\n        /* \"#utility.yul\":1583:1586   */\n      dup1\n        /* \"#utility.yul\":1580:1581   */\n      dup3\n        /* \"#utility.yul\":1577:1587   */\n      gt\n        /* \"#utility.yul\":1574:1610   */\n      iszero\n      tag_216\n      jumpi\n        /* \"#utility.yul\":1590:1608   */\n      tag_217\n      tag_147\n      jump\t// in\n    tag_217:\n        /* \"#utility.yul\":1574:1610   */\n    tag_216:\n        /* \"#utility.yul\":1426:1617   */\n      swap3\n      swap2\n      pop\n      pop\n      jump\t// out\n        /* \"#utility.yul\":1623:1741   */\n    tag_148:\n        /* \"#utility.yul\":1710:1734   */\n      tag_219\n        /* \"#utility.yul\":1728:1733   */\n      dup2\n        /* \"#utility.yul\":1710:1734   */\n      tag_146\n      jump\t// in\n    tag_219:\n        /* \"#utility.yul\":1705:1708   */\n      dup3\n        /* \"#utility.yul\":1698:1735   */\n      mstore\n        /* \"#utility.yul\":1623:1741   */\n      pop\n      pop\n      jump\t// out\n        /* \"#utility.yul\":1747:1969   */\n    tag_23:\n        /* \"#utility.yul\":1840:1844   */\n      0x00\n        /* \"#utility.yul\":1878:1880   */\n      0x20\n        /* \"#utility.yul\":1867:1876   */\n      dup3\n        /* \"#utility.yul\":1863:1881   */\n      add\n        /* \"#utility.yul\":1855:1881   */\n      swap1\n      pop\n        /* \"#utility.yul\":1891:1962   */\n      tag_221\n        /* \"#utility.yul\":1959:1960   */\n      0x00\n        /* \"#utility.yul\":1948:1957   */\n      dup4\n        /* \"#utility.yul\":1944:1961   */\n      add\n        /* \"#utility.yul\":1935:1941   */\n      dup5\n        /* \"#utility.yul\":1891:1962   */\n      tag_148\n      jump\t// in\n    tag_221:\n        /* \"#utility.yul\":1747:1969   */\n      swap3\n      swap2\n      pop\n      pop\n      jump\t// out\n        /* \"#utility.yul\":2056:2173   */\n    tag_150:\n        /* \"#utility.yul\":2165:2166   */\n      0x00\n        /* \"#utility.yul\":2162:2163   */\n      dup1\n        /* \"#utility.yul\":2155:2167   */\n      revert\n        /* \"#utility.yul\":2179:2296   */\n    tag_151:\n        /* \"#utility.yul\":2288:2289   */\n      0x00\n        /* \"#utility.yul\":2285:2286   */\n      dup1\n        /* \"#utility.yul\":2278:2290   */\n      revert\n        /* \"#utility.yul\":2302:2424   */\n    tag_152:\n        /* \"#utility.yul\":2375:2399   */\n      tag_226\n        /* \"#utility.yul\":2393:2398   */\n      dup2\n        /* \"#utility.yul\":2375:2399   */\n      tag_146\n      jump\t// in\n    tag_226:\n        /* \"#utility.yul\":2368:2373   */\n      dup2\n        /* \"#utility.yul\":2365:2400   */\n      eq\n        /* \"#utility.yul\":2355:2418   */\n      tag_227\n      jumpi\n        /* \"#utility.yul\":2414:2415   */\n      0x00\n        /* \"#utility.yul\":2411:2412   */\n      dup1\n        /* \"#utility.yul\":2404:2416   */\n      revert\n        /* \"#utility.yul\":2355:2418   */\n    tag_227:\n        /* \"#utility.yul\":2302:2424   */\n      pop\n      jump\t// out\n        /* \"#utility.yul\":2430:2569   */\n    tag_153:\n        /* \"#utility.yul\":2476:2481   */\n      0x00\n        /* \"#utility.yul\":2514:2520   */\n      dup2\n        /* \"#utility.yul\":2501:2521   */\n      calldataload\n        /* \"#utility.yul\":2492:2521   */\n      swap1\n      pop\n        /* \"#utility.yul\":2530:2563   */\n      tag_229\n        /* \"#utility.yul\":2557:2562   */\n      dup2\n        /* \"#utility.yul\":2530:2563   */\n      tag_152\n      jump\t// in\n    tag_229:\n        /* \"#utility.yul\":2430:2569   */\n      swap3\n      swap2\n      pop\n      pop\n      jump\t// out\n        /* \"#utility.yul\":2575:2904   */\n    tag_27:\n        /* \"#utility.yul\":2634:2640   */\n      0x00\n        /* \"#utility.yul\":2683:2685   */\n      0x20\n        /* \"#utility.yul\":2671:2680   */\n      dup3\n        /* \"#utility.yul\":2662:2669   */\n      dup5\n        /* \"#utility.yul\":2658:2681   */\n      sub\n        /* \"#utility.yul\":2654:2686   */\n      slt\n        /* \"#utility.yul\":2651:2770   */\n      iszero\n      tag_231\n      jumpi\n        /* \"#utility.yul\":2689:2768   */\n      tag_232\n      tag_150\n      jump\t// in\n    tag_232:\n        /* \"#utility.yul\":2651:2770   */\n    tag_231:\n        /* \"#utility.yul\":2809:2810   */\n      0x00\n        /* \"#utility.yul\":2834:2887   */\n      tag_233\n        /* \"#utility.yul\":2879:2886   */\n      dup5\n        /* \"#utility.yul\":2870:2876   */\n      dup3\n        /* \"#utility.yul\":2859:2868   */\n      dup6\n        /* \"#utility.yul\":2855:2877   */\n      add\n        /* \"#utility.yul\":2834:2887   */\n      tag_153\n      jump\t// in\n    tag_233:\n        /* \"#utility.yul\":2824:2887   */\n      swap2\n      pop\n        /* \"#utility.yul\":2780:2897   */\n      pop\n        /* \"#utility.yul\":2575:2904   */\n      swap3\n      swap2\n      pop\n      pop\n      jump\t// out\n        /* \"#utility.yul\":2910:3027   */\n    tag_154:\n        /* \"#utility.yul\":3019:3020   */\n      0x00\n        /* \"#utility.yul\":3016:3017   */\n      dup1\n        /* \"#utility.yul\":3009:3021   */\n      revert\n        /* \"#utility.yul\":3033:3150   */\n    tag_155:\n        /* \"#utility.yul\":3142:3143   */\n      0x00\n        /* \"#utility.yul\":3139:3140   */\n      dup1\n        /* \"#utility.yul\":3132:3144   */\n      revert\n        /* \"#utility.yul\":3156:3273   */\n    tag_156:\n        /* \"#utility.yul\":3265:3266   */\n      0x00\n        /* \"#utility.yul\":3262:3263   */\n      dup1\n        /* \"#utility.yul\":3255:3267   */\n      revert\n        /* \"#utility.yul\":3293:3846   */\n    tag_157:\n        /* \"#utility.yul\":3351:3359   */\n      0x00\n        /* \"#utility.yul\":3361:3367   */\n      dup1\n        /* \"#utility.yul\":3411:3414   */\n      dup4\n        /* \"#utility.yul\":3404:3408   */\n      0x1f\n        /* \"#utility.yul\":3396:3402   */\n      dup5\n        /* \"#utility.yul\":3392:3409   */\n      add\n        /* \"#utility.yul\":3388:3415   */\n      slt\n        /* \"#utility.yul\":3378:3500   */\n      tag_238\n      jumpi\n        /* \"#utility.yul\":3419:3498   */\n      tag_239\n      tag_154\n      jump\t// in\n    tag_239:\n        /* \"#utility.yul\":3378:3500   */\n    tag_238:\n        /* \"#utility.yul\":3532:3538   */\n      dup3\n        /* \"#utility.yul\":3519:3539   */\n      calldataload\n        /* \"#utility.yul\":3509:3539   */\n      swap1\n      pop\n        /* \"#utility.yul\":3562:3580   */\n      0xffffffffffffffff\n        /* \"#utility.yul\":3554:3560   */\n      dup2\n        /* \"#utility.yul\":3551:3581   */\n      gt\n        /* \"#utility.yul\":3548:3665   */\n      iszero\n      tag_240\n      jumpi\n        /* \"#utility.yul\":3584:3663   */\n      tag_241\n      tag_155\n      jump\t// in\n    tag_241:\n        /* \"#utility.yul\":3548:3665   */\n    tag_240:\n        /* \"#utility.yul\":3698:3702   */\n      0x20\n        /* \"#utility.yul\":3690:3696   */\n      dup4\n        /* \"#utility.yul\":3686:3703   */\n      add\n        /* \"#utility.yul\":3674:3703   */\n      swap2\n      pop\n        /* \"#utility.yul\":3752:3755   */\n      dup4\n        /* \"#utility.yul\":3744:3748   */\n      0x01\n        /* \"#utility.yul\":3736:3742   */\n      dup3\n        /* \"#utility.yul\":3732:3749   */\n      mul\n        /* \"#utility.yul\":3722:3730   */\n      dup4\n        /* \"#utility.yul\":3718:3750   */\n      add\n        /* \"#utility.yul\":3715:3756   */\n      gt\n        /* \"#utility.yul\":3712:3840   */\n      iszero\n      tag_242\n      jumpi\n        /* \"#utility.yul\":3759:3838   */\n      tag_243\n      tag_156\n      jump\t// in\n    tag_243:\n        /* \"#utility.yul\":3712:3840   */\n    tag_242:\n        /* \"#utility.yul\":3293:3846   */\n      swap3\n      pop\n      swap3\n      swap1\n      pop\n      jump\t// out\n        /* \"#utility.yul\":3852:4726   */\n    tag_44:\n        /* \"#utility.yul\":3944:3950   */\n      0x00\n        /* \"#utility.yul\":3952:3958   */\n      dup1\n        /* \"#utility.yul\":3960:3966   */\n      0x00\n        /* \"#utility.yul\":3968:3974   */\n      dup1\n        /* \"#utility.yul\":4017:4019   */\n      0x40\n        /* \"#utility.yul\":4005:4014   */\n      dup6\n        /* \"#utility.yul\":3996:4003   */\n      dup8\n        /* \"#utility.yul\":3992:4015   */\n      sub\n        /* \"#utility.yul\":3988:4020   */\n      slt\n        /* \"#utility.yul\":3985:4104   */\n      iszero\n      tag_245\n      jumpi\n        /* \"#utility.yul\":4023:4102   */\n      tag_246\n      tag_150\n      jump\t// in\n    tag_246:\n        /* \"#utility.yul\":3985:4104   */\n    tag_245:\n        /* \"#utility.yul\":4171:4172   */\n      0x00\n        /* \"#utility.yul\":4160:4169   */\n      dup6\n        /* \"#utility.yul\":4156:4173   */\n      add\n        /* \"#utility.yul\":4143:4174   */\n      calldataload\n        /* \"#utility.yul\":4201:4219   */\n      0xffffffffffffffff\n        /* \"#utility.yul\":4193:4199   */\n      dup2\n        /* \"#utility.yul\":4190:4220   */\n      gt\n        /* \"#utility.yul\":4187:4304   */\n      iszero\n      tag_247\n      jumpi\n        /* \"#utility.yul\":4223:4302   */\n      tag_248\n      tag_151\n      jump\t// in\n    tag_248:\n        /* \"#utility.yul\":4187:4304   */\n    tag_247:\n        /* \"#utility.yul\":4336:4401   */\n      tag_249\n        /* \"#utility.yul\":4393:4400   */\n      dup8\n        /* \"#utility.yul\":4384:4390   */\n      dup3\n        /* \"#utility.yul\":4373:4382   */\n      dup9\n        /* \"#utility.yul\":4369:4391   */\n      add\n        /* \"#utility.yul\":4336:4401   */\n      tag_157\n      jump\t// in\n    tag_249:\n        /* \"#utility.yul\":4318:4401   */\n      swap5\n      pop\n      swap5\n      pop\n        /* \"#utility.yul\":4114:4411   */\n      pop\n        /* \"#utility.yul\":4478:4480   */\n      0x20\n        /* \"#utility.yul\":4467:4476   */\n      dup6\n        /* \"#utility.yul\":4463:4481   */\n      add\n        /* \"#utility.yul\":4450:4482   */\n      calldataload\n        /* \"#utility.yul\":4509:4527   */\n      0xffffffffffffffff\n        /* \"#utility.yul\":4501:4507   */\n      dup2\n        /* \"#utility.yul\":4498:4528   */\n      gt\n        /* \"#utility.yul\":4495:4612   */\n      iszero\n      tag_250\n      jumpi\n        /* \"#utility.yul\":4531:4610   */\n      tag_251\n      tag_151\n      jump\t// in\n    tag_251:\n        /* \"#utility.yul\":4495:4612   */\n    tag_250:\n        /* \"#utility.yul\":4644:4709   */\n      tag_252\n        /* \"#utility.yul\":4701:4708   */\n      dup8\n        /* \"#utility.yul\":4692:4698   */\n      dup3\n        /* \"#utility.yul\":4681:4690   */\n      dup9\n        /* \"#utility.yul\":4677:4699   */\n      add\n        /* \"#utility.yul\":4644:4709   */\n      tag_157\n      jump\t// in\n    tag_252:\n        /* \"#utility.yul\":4626:4709   */\n      swap3\n      pop\n      swap3\n      pop\n        /* \"#utility.yul\":4421:4719   */\n      pop\n        /* \"#utility.yul\":3852:4726   */\n      swap3\n      swap6\n      swap2\n      swap5\n      pop\n      swap3\n      pop\n      jump\t// out\n        /* \"#utility.yul\":4732:4858   */\n    tag_158:\n        /* \"#utility.yul\":4769:4776   */\n      0x00\n        /* \"#utility.yul\":4809:4851   */\n      0xffffffffffffffffffffffffffffffffffffffff\n        /* \"#utility.yul\":4802:4807   */\n      dup3\n        /* \"#utility.yul\":4798:4852   */\n      and\n        /* \"#utility.yul\":4787:4852   */\n      swap1\n      pop\n        /* \"#utility.yul\":4732:4858   */\n      swap2\n      swap1\n      pop\n      jump\t// out\n        /* \"#utility.yul\":4864:4960   */\n    tag_159:\n        /* \"#utility.yul\":4901:4908   */\n      0x00\n        /* \"#utility.yul\":4930:4954   */\n      tag_255\n        /* \"#utility.yul\":4948:4953   */\n      dup3\n        /* \"#utility.yul\":4930:4954   */\n      tag_158\n      jump\t// in\n    tag_255:\n        /* \"#utility.yul\":4919:4954   */\n      swap1\n      pop\n        /* \"#utility.yul\":4864:4960   */\n      swap2\n      swap1\n      pop\n      jump\t// out\n        /* \"#utility.yul\":4966:5084   */\n    tag_160:\n        /* \"#utility.yul\":5053:5077   */\n      tag_257\n        /* \"#utility.yul\":5071:5076   */\n      dup2\n        /* \"#utility.yul\":5053:5077   */\n      tag_159\n      jump\t// in\n    tag_257:\n        /* \"#utility.yul\":5048:5051   */\n      dup3\n        /* \"#utility.yul\":5041:5078   */\n      mstore\n        /* \"#utility.yul\":4966:5084   */\n      pop\n      pop\n      jump\t// out\n        /* \"#utility.yul\":5090:5312   */\n    tag_50:\n        /* \"#utility.yul\":5183:5187   */\n      0x00\n        /* \"#utility.yul\":5221:5223   */\n      0x20\n        /* \"#utility.yul\":5210:5219   */\n      dup3\n        /* \"#utility.yul\":5206:5224   */\n      add\n        /* \"#utility.yul\":5198:5224   */\n      swap1\n      pop\n        /* \"#utility.yul\":5234:5305   */\n      tag_259\n        /* \"#utility.yul\":5302:5303   */\n      0x00\n        /* \"#utility.yul\":5291:5300   */\n      dup4\n        /* \"#utility.yul\":5287:5304   */\n      add\n        /* \"#utility.yul\":5278:5284   */\n      dup5\n        /* \"#utility.yul\":5234:5305   */\n      tag_160\n      jump\t// in\n    tag_259:\n        /* \"#utility.yul\":5090:5312   */\n      swap3\n      swap2\n      pop\n      pop\n      jump\t// out\n        /* \"#utility.yul\":5318:5440   */\n    tag_161:\n        /* \"#utility.yul\":5391:5415   */\n      tag_261\n        /* \"#utility.yul\":5409:5414   */\n      dup2\n        /* \"#utility.yul\":5391:5415   */\n      tag_159\n      jump\t// in\n    tag_261:\n        /* \"#utility.yul\":5384:5389   */\n      dup2\n        /* \"#utility.yul\":5381:5416   */\n      eq\n        /* \"#utility.yul\":5371:5434   */\n      tag_262\n      jumpi\n        /* \"#utility.yul\":5430:5431   */\n      0x00\n        /* \"#utility.yul\":5427:5428   */\n      dup1\n        /* \"#utility.yul\":5420:5432   */\n      revert\n        /* \"#utility.yul\":5371:5434   */\n    tag_262:\n        /* \"#utility.yul\":5318:5440   */\n      pop\n      jump\t// out\n        /* \"#utility.yul\":5446:5585   */\n    tag_162:\n        /* \"#utility.yul\":5492:5497   */\n      0x00\n        /* \"#utility.yul\":5530:5536   */\n      dup2\n        /* \"#utility.yul\":5517:5537   */\n      calldataload\n        /* \"#utility.yul\":5508:5537   */\n      swap1\n      pop\n        /* \"#utility.yul\":5546:5579   */\n      tag_264\n        /* \"#utility.yul\":5573:5578   */\n      dup2\n        /* \"#utility.yul\":5546:5579   */\n      tag_161\n      jump\t// in\n    tag_264:\n        /* \"#utility.yul\":5446:5585   */\n      swap3\n      swap2\n      pop\n      pop\n      jump\t// out\n        /* \"#utility.yul\":5591:5920   */\n    tag_62:\n        /* \"#utility.yul\":5650:5656   */\n      0x00\n        /* \"#utility.yul\":5699:5701   */\n      0x20\n        /* \"#utility.yul\":5687:5696   */\n      dup3\n        /* \"#utility.yul\":5678:5685   */\n      dup5\n        /* \"#utility.yul\":5674:5697   */\n      sub\n        /* \"#utility.yul\":5670:5702   */\n      slt\n        /* \"#utility.yul\":5667:5786   */\n      iszero\n      tag_266\n      jumpi\n        /* \"#utility.yul\":5705:5784   */\n      tag_267\n      tag_150\n      jump\t// in\n    tag_267:\n        /* \"#utility.yul\":5667:5786   */\n    tag_266:\n        /* \"#utility.yul\":5825:5826   */\n      0x00\n        /* \"#utility.yul\":5850:5903   */\n      tag_268\n        /* \"#utility.yul\":5895:5902   */\n      dup5\n        /* \"#utility.yul\":5886:5892   */\n      dup3\n        /* \"#utility.yul\":5875:5884   */\n      dup6\n        /* \"#utility.yul\":5871:5893   */\n      add\n        /* \"#utility.yul\":5850:5903   */\n      tag_162\n      jump\t// in\n    tag_268:\n        /* \"#utility.yul\":5840:5903   */\n      swap2\n      pop\n        /* \"#utility.yul\":5796:5913   */\n      pop\n        /* \"#utility.yul\":5591:5920   */\n      swap3\n      swap2\n      pop\n      pop\n      jump\t// out\n        /* \"#utility.yul\":5926:6025   */\n    tag_163:\n        /* \"#utility.yul\":5978:5984   */\n      0x00\n        /* \"#utility.yul\":6012:6017   */\n      dup2\n        /* \"#utility.yul\":6006:6018   */\n      mload\n        /* \"#utility.yul\":5996:6018   */\n      swap1\n      pop\n        /* \"#utility.yul\":5926:6025   */\n      swap2\n      swap1\n      pop\n      jump\t// out\n        /* \"#utility.yul\":6031:6170   */\n    tag_164:\n        /* \"#utility.yul\":6120:6126   */\n      dup3\n        /* \"#utility.yul\":6115:6118   */\n      dup2\n        /* \"#utility.yul\":6110:6113   */\n      dup4\n        /* \"#utility.yul\":6104:6127   */\n      mcopy\n        /* \"#utility.yul\":6161:6162   */\n      0x00\n        /* \"#utility.yul\":6152:6158   */\n      dup4\n        /* \"#utility.yul\":6147:6150   */\n      dup4\n        /* \"#utility.yul\":6143:6159   */\n      add\n        /* \"#utility.yul\":6136:6163   */\n      mstore\n        /* \"#utility.yul\":6031:6170   */\n      pop\n      pop\n      pop\n      jump\t// out\n        /* \"#utility.yul\":6176:6278   */\n    tag_165:\n        /* \"#utility.yul\":6217:6223   */\n      0x00\n        /* \"#utility.yul\":6268:6270   */\n      0x1f\n        /* \"#utility.yul\":6264:6271   */\n      not\n        /* \"#utility.yul\":6259:6261   */\n      0x1f\n        /* \"#utility.yul\":6252:6257   */\n      dup4\n        /* \"#utility.yul\":6248:6262   */\n      add\n        /* \"#utility.yul\":6244:6272   */\n      and\n        /* \"#utility.yul\":6234:6272   */\n      swap1\n      pop\n        /* \"#utility.yul\":6176:6278   */\n      swap2\n      swap1\n      pop\n      jump\t// out\n        /* \"#utility.yul\":6284:6661   */\n    tag_166:\n        /* \"#utility.yul\":6372:6375   */\n      0x00\n        /* \"#utility.yul\":6400:6439   */\n      tag_273\n        /* \"#utility.yul\":6433:6438   */\n      dup3\n        /* \"#utility.yul\":6400:6439   */\n      tag_163\n      jump\t// in\n    tag_273:\n        /* \"#utility.yul\":6455:6526   */\n      tag_274\n        /* \"#utility.yul\":6519:6525   */\n      dup2\n        /* \"#utility.yul\":6514:6517   */\n      dup6\n        /* \"#utility.yul\":6455:6526   */\n      tag_143\n      jump\t// in\n    tag_274:\n        /* \"#utility.yul\":6448:6526   */\n      swap4\n      pop\n        /* \"#utility.yul\":6535:6600   */\n      tag_275\n        /* \"#utility.yul\":6593:6599   */\n      dup2\n        /* \"#utility.yul\":6588:6591   */\n      dup6\n        /* \"#utility.yul\":6581:6585   */\n      0x20\n        /* \"#utility.yul\":6574:6579   */\n      dup7\n        /* \"#utility.yul\":6570:6586   */\n      add\n        /* \"#utility.yul\":6535:6600   */\n      tag_164\n      jump\t// in\n    tag_275:\n        /* \"#utility.yul\":6625:6654   */\n      tag_276\n        /* \"#utility.yul\":6647:6653   */\n      dup2\n        /* \"#utility.yul\":6625:6654   */\n      tag_165\n      jump\t// in\n    tag_276:\n        /* \"#utility.yul\":6620:6623   */\n      dup5\n        /* \"#utility.yul\":6616:6655   */\n      add\n        /* \"#utility.yul\":6609:6655   */\n      swap2\n      pop\n        /* \"#utility.yul\":6376:6661   */\n      pop\n        /* \"#utility.yul\":6284:6661   */\n      swap3\n      swap2\n      pop\n      pop\n      jump\t// out\n        /* \"#utility.yul\":6667:6757   */\n    tag_167:\n        /* \"#utility.yul\":6701:6708   */\n      0x00\n        /* \"#utility.yul\":6744:6749   */\n      dup2\n        /* \"#utility.yul\":6737:6750   */\n      iszero\n        /* \"#utility.yul\":6730:6751   */\n      iszero\n        /* \"#utility.yul\":6719:6751   */\n      swap1\n      pop\n        /* \"#utility.yul\":6667:6757   */\n      swap2\n      swap1\n      pop\n      jump\t// out\n        /* \"#utility.yul\":6763:6872   */\n    tag_168:\n        /* \"#utility.yul\":6844:6865   */\n      tag_279\n        /* \"#utility.yul\":6859:6864   */\n      dup2\n        /* \"#utility.yul\":6844:6865   */\n      tag_167\n      jump\t// in\n    tag_279:\n        /* \"#utility.yul\":6839:6842   */\n      dup3\n        /* \"#utility.yul\":6832:6866   */\n      mstore\n        /* \"#utility.yul\":6763:6872   */\n      pop\n      pop\n      jump\t// out\n        /* \"#utility.yul\":6878:7601   */\n    tag_65:\n        /* \"#utility.yul\":7089:7093   */\n      0x00\n        /* \"#utility.yul\":7127:7130   */\n      0x80\n        /* \"#utility.yul\":7116:7125   */\n      dup3\n        /* \"#utility.yul\":7112:7131   */\n      add\n        /* \"#utility.yul\":7104:7131   */\n      swap1\n      pop\n        /* \"#utility.yul\":7177:7186   */\n      dup2\n        /* \"#utility.yul\":7171:7175   */\n      dup2\n        /* \"#utility.yul\":7167:7187   */\n      sub\n        /* \"#utility.yul\":7163:7164   */\n      0x00\n        /* \"#utility.yul\":7152:7161   */\n      dup4\n        /* \"#utility.yul\":7148:7165   */\n      add\n        /* \"#utility.yul\":7141:7188   */\n      mstore\n        /* \"#utility.yul\":7205:7283   */\n      tag_281\n        /* \"#utility.yul\":7278:7282   */\n      dup2\n        /* \"#utility.yul\":7269:7275   */\n      dup8\n        /* \"#utility.yul\":7205:7283   */\n      tag_166\n      jump\t// in\n    tag_281:\n        /* \"#utility.yul\":7197:7283   */\n      swap1\n      pop\n        /* \"#utility.yul\":7330:7339   */\n      dup2\n        /* \"#utility.yul\":7324:7328   */\n      dup2\n        /* \"#utility.yul\":7320:7340   */\n      sub\n        /* \"#utility.yul\":7315:7317   */\n      0x20\n        /* \"#utility.yul\":7304:7313   */\n      dup4\n        /* \"#utility.yul\":7300:7318   */\n      add\n        /* \"#utility.yul\":7293:7341   */\n      mstore\n        /* \"#utility.yul\":7358:7436   */\n      tag_282\n        /* \"#utility.yul\":7431:7435   */\n      dup2\n        /* \"#utility.yul\":7422:7428   */\n      dup7\n        /* \"#utility.yul\":7358:7436   */\n      tag_166\n      jump\t// in\n    tag_282:\n        /* \"#utility.yul\":7350:7436   */\n      swap1\n      pop\n        /* \"#utility.yul\":7446:7518   */\n      tag_283\n        /* \"#utility.yul\":7514:7516   */\n      0x40\n        /* \"#utility.yul\":7503:7512   */\n      dup4\n        /* \"#utility.yul\":7499:7517   */\n      add\n        /* \"#utility.yul\":7490:7496   */\n      dup6\n        /* \"#utility.yul\":7446:7518   */\n      tag_148\n      jump\t// in\n    tag_283:\n        /* \"#utility.yul\":7528:7594   */\n      tag_284\n        /* \"#utility.yul\":7590:7592   */\n      0x60\n        /* \"#utility.yul\":7579:7588   */\n      dup4\n        /* \"#utility.yul\":7575:7593   */\n      add\n        /* \"#utility.yul\":7566:7572   */\n      dup5\n        /* \"#utility.yul\":7528:7594   */\n      tag_168\n      jump\t// in\n    tag_284:\n        /* \"#utility.yul\":6878:7601   */\n      swap6\n      swap5\n      pop\n      pop\n      pop\n      pop\n      pop\n      jump\t// out\n        /* \"#utility.yul\":7607:7827   */\n    tag_169:\n        /* \"#utility.yul\":7747:7781   */\n      0x4f6e6c79206f776e65722063616e2063616c6c20746869732066756e6374696f\n        /* \"#utility.yul\":7743:7744   */\n      0x00\n        /* \"#utility.yul\":7735:7741   */\n      dup3\n        /* \"#utility.yul\":7731:7745   */\n      add\n        /* \"#utility.yul\":7724:7782   */\n      mstore\n        /* \"#utility.yul\":7816:7819   */\n      0x6e00000000000000000000000000000000000000000000000000000000000000\n        /* \"#utility.yul\":7811:7813   */\n      0x20\n        /* \"#utility.yul\":7803:7809   */\n      dup3\n        /* \"#utility.yul\":7799:7814   */\n      add\n        /* \"#utility.yul\":7792:7820   */\n      mstore\n        /* \"#utility.yul\":7607:7827   */\n      pop\n      jump\t// out\n        /* \"#utility.yul\":7833:8199   */\n    tag_170:\n        /* \"#utility.yul\":7975:7978   */\n      0x00\n        /* \"#utility.yul\":7996:8063   */\n      tag_287\n        /* \"#utility.yul\":8060:8062   */\n      0x21\n        /* \"#utility.yul\":8055:8058   */\n      dup4\n        /* \"#utility.yul\":7996:8063   */\n      tag_143\n      jump\t// in\n    tag_287:\n        /* \"#utility.yul\":7989:8063   */\n      swap2\n      pop\n        /* \"#utility.yul\":8072:8165   */\n      tag_288\n        /* \"#utility.yul\":8161:8164   */\n      dup3\n        /* \"#utility.yul\":8072:8165   */\n      tag_169\n      jump\t// in\n    tag_288:\n        /* \"#utility.yul\":8190:8192   */\n      0x40\n        /* \"#utility.yul\":8185:8188   */\n      dup3\n        /* \"#utility.yul\":8181:8193   */\n      add\n        /* \"#utility.yul\":8174:8193   */\n      swap1\n      pop\n        /* \"#utility.yul\":7833:8199   */\n      swap2\n      swap1\n      pop\n      jump\t// out\n        /* \"#utility.yul\":8205:8624   */\n    tag_76:\n        /* \"#utility.yul\":8371:8375   */\n      0x00\n        /* \"#utility.yul\":8409:8411   */\n      0x20\n        /* \"#utility.yul\":8398:8407   */\n      dup3\n        /* \"#utility.yul\":8394:8412   */\n      add\n        /* \"#utility.yul\":8386:8412   */\n      swap1\n      pop\n        /* \"#utility.yul\":8458:8467   */\n      dup2\n        /* \"#utility.yul\":8452:8456   */\n      dup2\n        /* \"#utility.yul\":8448:8468   */\n      sub\n        /* \"#utility.yul\":8444:8445   */\n      0x00\n        /* \"#utility.yul\":8433:8442   */\n      dup4\n        /* \"#utility.yul\":8429:8446   */\n      add\n        /* \"#utility.yul\":8422:8469   */\n      mstore\n        /* \"#utility.yul\":8486:8617   */\n      tag_290\n        /* \"#utility.yul\":8612:8616   */\n      dup2\n        /* \"#utility.yul\":8486:8617   */\n      tag_170\n      jump\t// in\n    tag_290:\n        /* \"#utility.yul\":8478:8617   */\n      swap1\n      pop\n        /* \"#utility.yul\":8205:8624   */\n      swap2\n      swap1\n      pop\n      jump\t// out\n        /* \"#utility.yul\":8630:8857   */\n    tag_171:\n        /* \"#utility.yul\":8770:8804   */\n      0x5769746864726177616c20616d6f756e74206d75737420626520677265617465\n        /* \"#utility.yul\":8766:8767   */\n      0x00\n        /* \"#utility.yul\":8758:8764   */\n      dup3\n        /* \"#utility.yul\":8754:8768   */\n      add\n        /* \"#utility.yul\":8747:8805   */\n      mstore\n        /* \"#utility.yul\":8839:8849   */\n      0x72207468616e2030000000000000000000000000000000000000000000000000\n        /* \"#utility.yul\":8834:8836   */\n      0x20\n        /* \"#utility.yul\":8826:8832   */\n      dup3\n        /* \"#utility.yul\":8822:8837   */\n      add\n        /* \"#utility.yul\":8815:8850   */\n      mstore\n        /* \"#utility.yul\":8630:8857   */\n      pop\n      jump\t// out\n        /* \"#utility.yul\":8863:9229   */\n    tag_172:\n        /* \"#utility.yul\":9005:9008   */\n      0x00\n        /* \"#utility.yul\":9026:9093   */\n      tag_293\n        /* \"#utility.yul\":9090:9092   */\n      0x28\n        /* \"#utility.yul\":9085:9088   */\n      dup4\n        /* \"#utility.yul\":9026:9093   */\n      tag_143\n      jump\t// in\n    tag_293:\n        /* \"#utility.yul\":9019:9093   */\n      swap2\n      pop\n        /* \"#utility.yul\":9102:9195   */\n      tag_294\n        /* \"#utility.yul\":9191:9194   */\n      dup3\n        /* \"#utility.yul\":9102:9195   */\n      tag_171\n      jump\t// in\n    tag_294:\n        /* \"#utility.yul\":9220:9222   */\n      0x40\n        /* \"#utility.yul\":9215:9218   */\n      dup3\n        /* \"#utility.yul\":9211:9223   */\n      add\n        /* \"#utility.yul\":9204:9223   */\n      swap1\n      pop\n        /* \"#utility.yul\":8863:9229   */\n      swap2\n      swap1\n      pop\n      jump\t// out\n        /* \"#utility.yul\":9235:9654   */\n    tag_80:\n        /* \"#utility.yul\":9401:9405   */\n      0x00\n        /* \"#utility.yul\":9439:9441   */\n      0x20\n        /* \"#utility.yul\":9428:9437   */\n      dup3\n        /* \"#utility.yul\":9424:9442   */\n      add\n        /* \"#utility.yul\":9416:9442   */\n      swap1\n      pop\n        /* \"#utility.yul\":9488:9497   */\n      dup2\n        /* \"#utility.yul\":9482:9486   */\n      dup2\n        /* \"#utility.yul\":9478:9498   */\n      sub\n        /* \"#utility.yul\":9474:9475   */\n      0x00\n        /* \"#utility.yul\":9463:9472   */\n      dup4\n        /* \"#utility.yul\":9459:9476   */\n      add\n        /* \"#utility.yul\":9452:9499   */\n      mstore\n        /* \"#utility.yul\":9516:9647   */\n      tag_296\n        /* \"#utility.yul\":9642:9646   */\n      dup2\n        /* \"#utility.yul\":9516:9647   */\n      tag_172\n      jump\t// in\n    tag_296:\n        /* \"#utility.yul\":9508:9647   */\n      swap1\n      pop\n        /* \"#utility.yul\":9235:9654   */\n      swap2\n      swap1\n      pop\n      jump\t// out\n        /* \"#utility.yul\":9660:9839   */\n    tag_173:\n        /* \"#utility.yul\":9800:9831   */\n      0x496e73756666696369656e742074726561737572792062616c616e6365000000\n        /* \"#utility.yul\":9796:9797   */\n      0x00\n        /* \"#utility.yul\":9788:9794   */\n      dup3\n        /* \"#utility.yul\":9784:9798   */\n      add\n        /* \"#utility.yul\":9777:9832   */\n      mstore\n        /* \"#utility.yul\":9660:9839   */\n      pop\n      jump\t// out\n        /* \"#utility.yul\":9845:10211   */\n    tag_174:\n        /* \"#utility.yul\":9987:9990   */\n      0x00\n        /* \"#utility.yul\":10008:10075   */\n      tag_299\n        /* \"#utility.yul\":10072:10074   */\n      0x1d\n        /* \"#utility.yul\":10067:10070   */\n      dup4\n        /* \"#utility.yul\":10008:10075   */\n      tag_143\n      jump\t// in\n    tag_299:\n        /* \"#utility.yul\":10001:10075   */\n      swap2\n      pop\n        /* \"#utility.yul\":10084:10177   */\n      tag_300\n        /* \"#utility.yul\":10173:10176   */\n      dup3\n        /* \"#utility.yul\":10084:10177   */\n      tag_173\n      jump\t// in\n    tag_300:\n        /* \"#utility.yul\":10202:10204   */\n      0x20\n        /* \"#utility.yul\":10197:10200   */\n      dup3\n        /* \"#utility.yul\":10193:10205   */\n      add\n        /* \"#utility.yul\":10186:10205   */\n      swap1\n      pop\n        /* \"#utility.yul\":9845:10211   */\n      swap2\n      swap1\n      pop\n      jump\t// out\n        /* \"#utility.yul\":10217:10636   */\n    tag_83:\n        /* \"#utility.yul\":10383:10387   */\n      0x00\n        /* \"#utility.yul\":10421:10423   */\n      0x20\n        /* \"#utility.yul\":10410:10419   */\n      dup3\n        /* \"#utility.yul\":10406:10424   */\n      add\n        /* \"#utility.yul\":10398:10424   */\n      swap1\n      pop\n        /* \"#utility.yul\":10470:10479   */\n      dup2\n        /* \"#utility.yul\":10464:10468   */\n      dup2\n        /* \"#utility.yul\":10460:10480   */\n      sub\n        /* \"#utility.yul\":10456:10457   */\n      0x00\n        /* \"#utility.yul\":10445:10454   */\n      dup4\n        /* \"#utility.yul\":10441:10458   */\n      add\n        /* \"#utility.yul\":10434:10481   */\n      mstore\n        /* \"#utility.yul\":10498:10629   */\n      tag_302\n        /* \"#utility.yul\":10624:10628   */\n      dup2\n        /* \"#utility.yul\":10498:10629   */\n      tag_174\n      jump\t// in\n    tag_302:\n        /* \"#utility.yul\":10490:10629   */\n      swap1\n      pop\n        /* \"#utility.yul\":10217:10636   */\n      swap2\n      swap1\n      pop\n      jump\t// out\n        /* \"#utility.yul\":10642:10836   */\n    tag_85:\n        /* \"#utility.yul\":10682:10686   */\n      0x00\n        /* \"#utility.yul\":10702:10722   */\n      tag_304\n        /* \"#utility.yul\":10720:10721   */\n      dup3\n        /* \"#utility.yul\":10702:10722   */\n      tag_146\n      jump\t// in\n    tag_304:\n        /* \"#utility.yul\":10697:10722   */\n      swap2\n      pop\n        /* \"#utility.yul\":10736:10756   */\n      tag_305\n        /* \"#utility.yul\":10754:10755   */\n      dup4\n        /* \"#utility.yul\":10736:10756   */\n      tag_146\n      jump\t// in\n    tag_305:\n        /* \"#utility.yul\":10731:10756   */\n      swap3\n      pop\n        /* \"#utility.yul\":10780:10781   */\n      dup3\n        /* \"#utility.yul\":10777:10778   */\n      dup3\n        /* \"#utility.yul\":10773:10782   */\n      sub\n        /* \"#utility.yul\":10765:10782   */\n      swap1\n      pop\n        /* \"#utility.yul\":10804:10805   */\n      dup2\n        /* \"#utility.yul\":10798:10802   */\n      dup2\n        /* \"#utility.yul\":10795:10806   */\n      gt\n        /* \"#utility.yul\":10792:10829   */\n      iszero\n      tag_306\n      jumpi\n        /* \"#utility.yul\":10809:10827   */\n      tag_307\n      tag_147\n      jump\t// in\n    tag_307:\n        /* \"#utility.yul\":10792:10829   */\n    tag_306:\n        /* \"#utility.yul\":10642:10836   */\n      swap3\n      swap2\n      pop\n      pop\n      jump\t// out\n        /* \"#utility.yul\":10842:11012   */\n    tag_175:\n        /* \"#utility.yul\":10982:11004   */\n      0x496e73756666696369656e742062616c616e6365000000000000000000000000\n        /* \"#utility.yul\":10978:10979   */\n      0x00\n        /* \"#utility.yul\":10970:10976   */\n      dup3\n        /* \"#utility.yul\":10966:10980   */\n      add\n        /* \"#utility.yul\":10959:11005   */\n      mstore\n        /* \"#utility.yul\":10842:11012   */\n      pop\n      jump\t// out\n        /* \"#utility.yul\":11018:11384   */\n    tag_176:\n        /* \"#utility.yul\":11160:11163   */\n      0x00\n        /* \"#utility.yul\":11181:11248   */\n      tag_310\n        /* \"#utility.yul\":11245:11247   */\n      0x14\n        /* \"#utility.yul\":11240:11243   */\n      dup4\n        /* \"#utility.yul\":11181:11248   */\n      tag_143\n      jump\t// in\n    tag_310:\n        /* \"#utility.yul\":11174:11248   */\n      swap2\n      pop\n        /* \"#utility.yul\":11257:11350   */\n      tag_311\n        /* \"#utility.yul\":11346:11349   */\n      dup3\n        /* \"#utility.yul\":11257:11350   */\n      tag_175\n      jump\t// in\n    tag_311:\n        /* \"#utility.yul\":11375:11377   */\n      0x20\n        /* \"#utility.yul\":11370:11373   */\n      dup3\n        /* \"#utility.yul\":11366:11378   */\n      add\n        /* \"#utility.yul\":11359:11378   */\n      swap1\n      pop\n        /* \"#utility.yul\":11018:11384   */\n      swap2\n      swap1\n      pop\n      jump\t// out\n        /* \"#utility.yul\":11390:11809   */\n    tag_99:\n        /* \"#utility.yul\":11556:11560   */\n      0x00\n        /* \"#utility.yul\":11594:11596   */\n      0x20\n        /* \"#utility.yul\":11583:11592   */\n      dup3\n        /* \"#utility.yul\":11579:11597   */\n      add\n        /* \"#utility.yul\":11571:11597   */\n      swap1\n      pop\n        /* \"#utility.yul\":11643:11652   */\n      dup2\n        /* \"#utility.yul\":11637:11641   */\n      dup2\n        /* \"#utility.yul\":11633:11653   */\n      sub\n        /* \"#utility.yul\":11629:11630   */\n      0x00\n        /* \"#utility.yul\":11618:11627   */\n      dup4\n        /* \"#utility.yul\":11614:11631   */\n      add\n        /* \"#utility.yul\":11607:11654   */\n      mstore\n        /* \"#utility.yul\":11671:11802   */\n      tag_313\n        /* \"#utility.yul\":11797:11801   */\n      dup2\n        /* \"#utility.yul\":11671:11802   */\n      tag_176\n      jump\t// in\n    tag_313:\n        /* \"#utility.yul\":11663:11802   */\n      swap1\n      pop\n        /* \"#utility.yul\":11390:11809   */\n      swap2\n      swap1\n      pop\n      jump\t// out\n        /* \"#utility.yul\":11815:12225   */\n    tag_101:\n        /* \"#utility.yul\":11855:11862   */\n      0x00\n        /* \"#utility.yul\":11878:11898   */\n      tag_315\n        /* \"#utility.yul\":11896:11897   */\n      dup3\n        /* \"#utility.yul\":11878:11898   */\n      tag_146\n      jump\t// in\n    tag_315:\n        /* \"#utility.yul\":11873:11898   */\n      swap2\n      pop\n        /* \"#utility.yul\":11912:11932   */\n      tag_316\n        /* \"#utility.yul\":11930:11931   */\n      dup4\n        /* \"#utility.yul\":11912:11932   */\n      tag_146\n      jump\t// in\n    tag_316:\n        /* \"#utility.yul\":11907:11932   */\n      swap3\n      pop\n        /* \"#utility.yul\":11967:11968   */\n      dup3\n        /* \"#utility.yul\":11964:11965   */\n      dup3\n        /* \"#utility.yul\":11960:11969   */\n      mul\n        /* \"#utility.yul\":11989:12019   */\n      tag_317\n        /* \"#utility.yul\":12007:12018   */\n      dup2\n        /* \"#utility.yul\":11989:12019   */\n      tag_146\n      jump\t// in\n    tag_317:\n        /* \"#utility.yul\":11978:12019   */\n      swap2\n      pop\n        /* \"#utility.yul\":12168:12169   */\n      dup3\n        /* \"#utility.yul\":12159:12166   */\n      dup3\n        /* \"#utility.yul\":12155:12170   */\n      div\n        /* \"#utility.yul\":12152:12153   */\n      dup5\n        /* \"#utility.yul\":12149:12171   */\n      eq\n        /* \"#utility.yul\":12129:12130   */\n      dup4\n        /* \"#utility.yul\":12122:12131   */\n      iszero\n        /* \"#utility.yul\":12102:12185   */\n      or\n        /* \"#utility.yul\":12079:12218   */\n      tag_318\n      jumpi\n        /* \"#utility.yul\":12198:12216   */\n      tag_319\n      tag_147\n      jump\t// in\n    tag_319:\n        /* \"#utility.yul\":12079:12218   */\n    tag_318:\n        /* \"#utility.yul\":11863:12225   */\n      pop\n        /* \"#utility.yul\":11815:12225   */\n      swap3\n      swap2\n      pop\n      pop\n      jump\t// out\n        /* \"#utility.yul\":12231:12411   */\n    tag_177:\n        /* \"#utility.yul\":12279:12356   */\n      0x4e487b7100000000000000000000000000000000000000000000000000000000\n        /* \"#utility.yul\":12276:12277   */\n      0x00\n        /* \"#utility.yul\":12269:12357   */\n      mstore\n        /* \"#utility.yul\":12376:12380   */\n      0x12\n        /* \"#utility.yul\":12373:12374   */\n      0x04\n        /* \"#utility.yul\":12366:12381   */\n      mstore\n        /* \"#utility.yul\":12400:12404   */\n      0x24\n        /* \"#utility.yul\":12397:12398   */\n      0x00\n        /* \"#utility.yul\":12390:12405   */\n      revert\n        /* \"#utility.yul\":12417:12602   */\n    tag_103:\n        /* \"#utility.yul\":12457:12458   */\n      0x00\n        /* \"#utility.yul\":12474:12494   */\n      tag_322\n        /* \"#utility.yul\":12492:12493   */\n      dup3\n        /* \"#utility.yul\":12474:12494   */\n      tag_146\n      jump\t// in\n    tag_322:\n        /* \"#utility.yul\":12469:12494   */\n      swap2\n      pop\n        /* \"#utility.yul\":12508:12528   */\n      tag_323\n        /* \"#utility.yul\":12526:12527   */\n      dup4\n        /* \"#utility.yul\":12508:12528   */\n      tag_146\n      jump\t// in\n    tag_323:\n        /* \"#utility.yul\":12503:12528   */\n      swap3\n      pop\n        /* \"#utility.yul\":12547:12548   */\n      dup3\n        /* \"#utility.yul\":12537:12572   */\n      tag_324\n      jumpi\n        /* \"#utility.yul\":12552:12570   */\n      tag_325\n      tag_177\n      jump\t// in\n    tag_325:\n        /* \"#utility.yul\":12537:12572   */\n    tag_324:\n        /* \"#utility.yul\":12594:12595   */\n      dup3\n        /* \"#utility.yul\":12591:12592   */\n      dup3\n        /* \"#utility.yul\":12587:12596   */\n      div\n        /* \"#utility.yul\":12582:12596   */\n      swap1\n      pop\n        /* \"#utility.yul\":12417:12602   */\n      swap3\n      swap2\n      pop\n      pop\n      jump\t// out\n        /* \"#utility.yul\":12608:12940   */\n    tag_108:\n        /* \"#utility.yul\":12729:12733   */\n      0x00\n        /* \"#utility.yul\":12767:12769   */\n      0x40\n        /* \"#utility.yul\":12756:12765   */\n      dup3\n        /* \"#utility.yul\":12752:12770   */\n      add\n        /* \"#utility.yul\":12744:12770   */\n      swap1\n      pop\n        /* \"#utility.yul\":12780:12851   */\n      tag_327\n        /* \"#utility.yul\":12848:12849   */\n      0x00\n        /* \"#utility.yul\":12837:12846   */\n      dup4\n        /* \"#utility.yul\":12833:12850   */\n      add\n        /* \"#utility.yul\":12824:12830   */\n      dup6\n        /* \"#utility.yul\":12780:12851   */\n      tag_148\n      jump\t// in\n    tag_327:\n        /* \"#utility.yul\":12861:12933   */\n      tag_328\n        /* \"#utility.yul\":12929:12931   */\n      0x20\n        /* \"#utility.yul\":12918:12927   */\n      dup4\n        /* \"#utility.yul\":12914:12932   */\n      add\n        /* \"#utility.yul\":12905:12911   */\n      dup5\n        /* \"#utility.yul\":12861:12933   */\n      tag_148\n      jump\t// in\n    tag_328:\n        /* \"#utility.yul\":12608:12940   */\n      swap4\n      swap3\n      pop\n      pop\n      pop\n      jump\t// out\n        /* \"#utility.yul\":12946:13166   */\n    tag_178:\n        /* \"#utility.yul\":13086:13120   */\n      0x4e616d6520616e64206c6173746e616d652063616e6e6f7420626520656d7074\n        /* \"#utility.yul\":13082:13083   */\n      0x00\n        /* \"#utility.yul\":13074:13080   */\n      dup3\n        /* \"#utility.yul\":13070:13084   */\n      add\n        /* \"#utility.yul\":13063:13121   */\n      mstore\n        /* \"#utility.yul\":13155:13158   */\n      0x7900000000000000000000000000000000000000000000000000000000000000\n        /* \"#utility.yul\":13150:13152   */\n      0x20\n        /* \"#utility.yul\":13142:13148   */\n      dup3\n        /* \"#utility.yul\":13138:13153   */\n      add\n        /* \"#utility.yul\":13131:13159   */\n      mstore\n        /* \"#utility.yul\":12946:13166   */\n      pop\n      jump\t// out\n        /* \"#utility.yul\":13172:13538   */\n    tag_179:\n        /* \"#utility.yul\":13314:13317   */\n      0x00\n        /* \"#utility.yul\":13335:13402   */\n      tag_331\n        /* \"#utility.yul\":13399:13401   */\n      0x21\n        /* \"#utility.yul\":13394:13397   */\n      dup4\n        /* \"#utility.yul\":13335:13402   */\n      tag_143\n      jump\t// in\n    tag_331:\n        /* \"#utility.yul\":13328:13402   */\n      swap2\n      pop\n        /* \"#utility.yul\":13411:13504   */\n      tag_332\n        /* \"#utility.yul\":13500:13503   */\n      dup3\n        /* \"#utility.yul\":13411:13504   */\n      tag_178\n      jump\t// in\n    tag_332:\n        /* \"#utility.yul\":13529:13531   */\n      0x40\n        /* \"#utility.yul\":13524:13527   */\n      dup3\n        /* \"#utility.yul\":13520:13532   */\n      add\n        /* \"#utility.yul\":13513:13532   */\n      swap1\n      pop\n        /* \"#utility.yul\":13172:13538   */\n      swap2\n      swap1\n      pop\n      jump\t// out\n        /* \"#utility.yul\":13544:13963   */\n    tag_113:\n        /* \"#utility.yul\":13710:13714   */\n      0x00\n        /* \"#utility.yul\":13748:13750   */\n      0x20\n        /* \"#utility.yul\":13737:13746   */\n      dup3\n        /* \"#utility.yul\":13733:13751   */\n      add\n        /* \"#utility.yul\":13725:13751   */\n      swap1\n      pop\n        /* \"#utility.yul\":13797:13806   */\n      dup2\n        /* \"#utility.yul\":13791:13795   */\n      dup2\n        /* \"#utility.yul\":13787:13807   */\n      sub\n        /* \"#utility.yul\":13783:13784   */\n      0x00\n        /* \"#utility.yul\":13772:13781   */\n      dup4\n        /* \"#utility.yul\":13768:13785   */\n      add\n        /* \"#utility.yul\":13761:13808   */\n      mstore\n        /* \"#utility.yul\":13825:13956   */\n      tag_334\n        /* \"#utility.yul\":13951:13955   */\n      dup2\n        /* \"#utility.yul\":13825:13956   */\n      tag_179\n      jump\t// in\n    tag_334:\n        /* \"#utility.yul\":13817:13956   */\n      swap1\n      pop\n        /* \"#utility.yul\":13544:13963   */\n      swap2\n      swap1\n      pop\n      jump\t// out\n        /* \"#utility.yul\":13969:14145   */\n    tag_180:\n        /* \"#utility.yul\":14109:14137   */\n      0x5573657220697320616c72656164792072656769737465726564000000000000\n        /* \"#utility.yul\":14105:14106   */\n      0x00\n        /* \"#utility.yul\":14097:14103   */\n      dup3\n        /* \"#utility.yul\":14093:14107   */\n      add\n        /* \"#utility.yul\":14086:14138   */\n      mstore\n        /* \"#utility.yul\":13969:14145   */\n      pop\n      jump\t// out\n        /* \"#utility.yul\":14151:14517   */\n    tag_181:\n        /* \"#utility.yul\":14293:14296   */\n      0x00\n        /* \"#utility.yul\":14314:14381   */\n      tag_337\n        /* \"#utility.yul\":14378:14380   */\n      0x1a\n        /* \"#utility.yul\":14373:14376   */\n      dup4\n        /* \"#utility.yul\":14314:14381   */\n      tag_143\n      jump\t// in\n    tag_337:\n        /* \"#utility.yul\":14307:14381   */\n      swap2\n      pop\n        /* \"#utility.yul\":14390:14483   */\n      tag_338\n        /* \"#utility.yul\":14479:14482   */\n      dup3\n        /* \"#utility.yul\":14390:14483   */\n      tag_180\n      jump\t// in\n    tag_338:\n        /* \"#utility.yul\":14508:14510   */\n      0x20\n        /* \"#utility.yul\":14503:14506   */\n      dup3\n        /* \"#utility.yul\":14499:14511   */\n      add\n        /* \"#utility.yul\":14492:14511   */\n      swap1\n      pop\n        /* \"#utility.yul\":14151:14517   */\n      swap2\n      swap1\n      pop\n      jump\t// out\n        /* \"#utility.yul\":14523:14942   */\n    tag_116:\n        /* \"#utility.yul\":14689:14693   */\n      0x00\n        /* \"#utility.yul\":14727:14729   */\n      0x20\n        /* \"#utility.yul\":14716:14725   */\n      dup3\n        /* \"#utility.yul\":14712:14730   */\n      add\n        /* \"#utility.yul\":14704:14730   */\n      swap1\n      pop\n        /* \"#utility.yul\":14776:14785   */\n      dup2\n        /* \"#utility.yul\":14770:14774   */\n      dup2\n        /* \"#utility.yul\":14766:14786   */\n      sub\n        /* \"#utility.yul\":14762:14763   */\n      0x00\n        /* \"#utility.yul\":14751:14760   */\n      dup4\n        /* \"#utility.yul\":14747:14764   */\n      add\n        /* \"#utility.yul\":14740:14787   */\n      mstore\n        /* \"#utility.yul\":14804:14935   */\n      tag_340\n        /* \"#utility.yul\":14930:14934   */\n      dup2\n        /* \"#utility.yul\":14804:14935   */\n      tag_181\n      jump\t// in\n    tag_340:\n        /* \"#utility.yul\":14796:14935   */\n      swap1\n      pop\n        /* \"#utility.yul\":14523:14942   */\n      swap2\n      swap1\n      pop\n      jump\t// out\n        /* \"#utility.yul\":14948:15128   */\n    tag_182:\n        /* \"#utility.yul\":14996:15073   */\n      0x4e487b7100000000000000000000000000000000000000000000000000000000\n        /* \"#utility.yul\":14993:14994   */\n      0x00\n        /* \"#utility.yul\":14986:15074   */\n      mstore\n        /* \"#utility.yul\":15093:15097   */\n      0x41\n        /* \"#utility.yul\":15090:15091   */\n      0x04\n        /* \"#utility.yul\":15083:15098   */\n      mstore\n        /* \"#utility.yul\":15117:15121   */\n      0x24\n        /* \"#utility.yul\":15114:15115   */\n      0x00\n        /* \"#utility.yul\":15107:15122   */\n      revert\n        /* \"#utility.yul\":15134:15314   */\n    tag_183:\n        /* \"#utility.yul\":15182:15259   */\n      0x4e487b7100000000000000000000000000000000000000000000000000000000\n        /* \"#utility.yul\":15179:15180   */\n      0x00\n        /* \"#utility.yul\":15172:15260   */\n      mstore\n        /* \"#utility.yul\":15279:15283   */\n      0x22\n        /* \"#utility.yul\":15276:15277   */\n      0x04\n        /* \"#utility.yul\":15269:15284   */\n      mstore\n        /* \"#utility.yul\":15303:15307   */\n      0x24\n        /* \"#utility.yul\":15300:15301   */\n      0x00\n        /* \"#utility.yul\":15293:15308   */\n      revert\n        /* \"#utility.yul\":15320:15640   */\n    tag_124:\n        /* \"#utility.yul\":15364:15370   */\n      0x00\n        /* \"#utility.yul\":15401:15402   */\n      0x02\n        /* \"#utility.yul\":15395:15399   */\n      dup3\n        /* \"#utility.yul\":15391:15403   */\n      div\n        /* \"#utility.yul\":15381:15403   */\n      swap1\n      pop\n        /* \"#utility.yul\":15448:15449   */\n      0x01\n        /* \"#utility.yul\":15442:15446   */\n      dup3\n        /* \"#utility.yul\":15438:15450   */\n      and\n        /* \"#utility.yul\":15469:15487   */\n      dup1\n        /* \"#utility.yul\":15459:15540   */\n      tag_344\n      jumpi\n        /* \"#utility.yul\":15525:15529   */\n      0x7f\n        /* \"#utility.yul\":15517:15523   */\n      dup3\n        /* \"#utility.yul\":15513:15530   */\n      and\n        /* \"#utility.yul\":15503:15530   */\n      swap2\n      pop\n        /* \"#utility.yul\":15459:15540   */\n    tag_344:\n        /* \"#utility.yul\":15587:15589   */\n      0x20\n        /* \"#utility.yul\":15579:15585   */\n      dup3\n        /* \"#utility.yul\":15576:15590   */\n      lt\n        /* \"#utility.yul\":15556:15574   */\n      dup2\n        /* \"#utility.yul\":15553:15591   */\n      sub\n        /* \"#utility.yul\":15550:15634   */\n      tag_345\n      jumpi\n        /* \"#utility.yul\":15606:15624   */\n      tag_346\n      tag_183\n      jump\t// in\n    tag_346:\n        /* \"#utility.yul\":15550:15634   */\n    tag_345:\n        /* \"#utility.yul\":15371:15640   */\n      pop\n        /* \"#utility.yul\":15320:15640   */\n      swap2\n      swap1\n      pop\n      jump\t// out\n        /* \"#utility.yul\":15646:15787   */\n    tag_184:\n        /* \"#utility.yul\":15695:15699   */\n      0x00\n        /* \"#utility.yul\":15718:15721   */\n      dup2\n        /* \"#utility.yul\":15710:15721   */\n      swap1\n      pop\n        /* \"#utility.yul\":15741:15744   */\n      dup2\n        /* \"#utility.yul\":15738:15739   */\n      0x00\n        /* \"#utility.yul\":15731:15745   */\n      mstore\n        /* \"#utility.yul\":15775:15779   */\n      0x20\n        /* \"#utility.yul\":15772:15773   */\n      0x00\n        /* \"#utility.yul\":15762:15780   */\n      keccak256\n        /* \"#utility.yul\":15754:15780   */\n      swap1\n      pop\n        /* \"#utility.yul\":15646:15787   */\n      swap2\n      swap1\n      pop\n      jump\t// out\n        /* \"#utility.yul\":15793:15886   */\n    tag_185:\n        /* \"#utility.yul\":15830:15836   */\n      0x00\n        /* \"#utility.yul\":15877:15879   */\n      0x20\n        /* \"#utility.yul\":15872:15874   */\n      0x1f\n        /* \"#utility.yul\":15865:15870   */\n      dup4\n        /* \"#utility.yul\":15861:15875   */\n      add\n        /* \"#utility.yul\":15857:15880   */\n      div\n        /* \"#utility.yul\":15847:15880   */\n      swap1\n      pop\n        /* \"#utility.yul\":15793:15886   */\n      swap2\n      swap1\n      pop\n      jump\t// out\n        /* \"#utility.yul\":15892:15999   */\n    tag_186:\n        /* \"#utility.yul\":15936:15944   */\n      0x00\n        /* \"#utility.yul\":15986:15991   */\n      dup3\n        /* \"#utility.yul\":15980:15984   */\n      dup3\n        /* \"#utility.yul\":15976:15992   */\n      shl\n        /* \"#utility.yul\":15955:15992   */\n      swap1\n      pop\n        /* \"#utility.yul\":15892:15999   */\n      swap3\n      swap2\n      pop\n      pop\n      jump\t// out\n        /* \"#utility.yul\":16005:16398   */\n    tag_187:\n        /* \"#utility.yul\":16074:16080   */\n      0x00\n        /* \"#utility.yul\":16124:16125   */\n      0x08\n        /* \"#utility.yul\":16112:16122   */\n      dup4\n        /* \"#utility.yul\":16108:16126   */\n      mul\n        /* \"#utility.yul\":16147:16244   */\n      tag_351\n        /* \"#utility.yul\":16177:16243   */\n      0xffffffffffffffffffffffffffffffffffffffffffffffffffffffffffffffff\n        /* \"#utility.yul\":16166:16175   */\n      dup3\n        /* \"#utility.yul\":16147:16244   */\n      tag_186\n      jump\t// in\n    tag_351:\n        /* \"#utility.yul\":16265:16304   */\n      tag_352\n        /* \"#utility.yul\":16295:16303   */\n      dup7\n        /* \"#utility.yul\":16284:16293   */\n      dup4\n        /* \"#utility.yul\":16265:16304   */\n      tag_186\n      jump\t// in\n    tag_352:\n        /* \"#utility.yul\":16253:16304   */\n      swap6\n      pop\n        /* \"#utility.yul\":16337:16341   */\n      dup1\n        /* \"#utility.yul\":16333:16342   */\n      not\n        /* \"#utility.yul\":16326:16331   */\n      dup5\n        /* \"#utility.yul\":16322:16343   */\n      and\n        /* \"#utility.yul\":16313:16343   */\n      swap4\n      pop\n        /* \"#utility.yul\":16386:16390   */\n      dup1\n        /* \"#utility.yul\":16376:16384   */\n      dup7\n        /* \"#utility.yul\":16372:16391   */\n      and\n        /* \"#utility.yul\":16365:16370   */\n      dup5\n        /* \"#utility.yul\":16362:16392   */\n      or\n        /* \"#utility.yul\":16352:16392   */\n      swap3\n      pop\n        /* \"#utility.yul\":16081:16398   */\n      pop\n      pop\n        /* \"#utility.yul\":16005:16398   */\n      swap4\n      swap3\n      pop\n      pop\n      pop\n      jump\t// out\n        /* \"#utility.yul\":16404:16464   */\n    tag_188:\n        /* \"#utility.yul\":16432:16435   */\n      0x00\n        /* \"#utility.yul\":16453:16458   */\n      dup2\n        /* \"#utility.yul\":16446:16458   */\n      swap1\n      pop\n        /* \"#utility.yul\":16404:16464   */\n      swap2\n      swap1\n      pop\n      jump\t// out\n        /* \"#utility.yul\":16470:16612   */\n    tag_189:\n        /* \"#utility.yul\":16520:16529   */\n      0x00\n        /* \"#utility.yul\":16553:16606   */\n      tag_355\n        /* \"#utility.yul\":16571:16605   */\n      tag_356\n        /* \"#utility.yul\":16580:16604   */\n      tag_357\n        /* \"#utility.yul\":16598:16603   */\n      dup5\n        /* \"#utility.yul\":16580:16604   */\n      tag_146\n      jump\t// in\n    tag_357:\n        /* \"#utility.yul\":16571:16605   */\n      tag_188\n      jump\t// in\n    tag_356:\n        /* \"#utility.yul\":16553:16606   */\n      tag_146\n      jump\t// in\n    tag_355:\n        /* \"#utility.yul\":16540:16606   */\n      swap1\n      pop\n        /* \"#utility.yul\":16470:16612   */\n      swap2\n      swap1\n      pop\n      jump\t// out\n        /* \"#utility.yul\":16618:16693   */\n    tag_190:\n        /* \"#utility.yul\":16661:16664   */\n      0x00\n        /* \"#utility.yul\":16682:16687   */\n      dup2\n        /* \"#utility.yul\":16675:16687   */\n      swap1\n      pop\n        /* \"#utility.yul\":16618:16693   */\n      swap2\n      swap1\n      pop\n      jump\t// out\n        /* \"#utility.yul\":16699:16968   */\n    tag_191:\n        /* \"#utility.yul\":16809:16848   */\n      tag_360\n        /* \"#utility.yul\":16840:16847   */\n      dup4\n        /* \"#utility.yul\":16809:16848   */\n      tag_189\n      jump\t// in\n    tag_360:\n        /* \"#utility.yul\":16870:16961   */\n      tag_361\n        /* \"#utility.yul\":16919:16960   */\n      tag_362\n        /* \"#utility.yul\":16943:16959   */\n      dup3\n        /* \"#utility.yul\":16919:16960   */\n      tag_190\n      jump\t// in\n    tag_362:\n        /* \"#utility.yul\":16911:16917   */\n      dup5\n        /* \"#utility.yul\":16904:16908   */\n      dup5\n        /* \"#utility.yul\":16898:16909   */\n      sload\n        /* \"#utility.yul\":16870:16961   */\n      tag_187\n      jump\t// in\n    tag_361:\n        /* \"#utility.yul\":16864:16868   */\n      dup3\n        /* \"#utility.yul\":16857:16962   */\n      sstore\n        /* \"#utility.yul\":16775:16968   */\n      pop\n        /* \"#utility.yul\":16699:16968   */\n      pop\n      pop\n      pop\n      jump\t// out\n        /* \"#utility.yul\":16974:17047   */\n    tag_192:\n        /* \"#utility.yul\":17019:17022   */\n      0x00\n        /* \"#utility.yul\":16974:17047   */\n      swap1\n      jump\t// out\n        /* \"#utility.yul\":17053:17242   */\n    tag_193:\n        /* \"#utility.yul\":17130:17162   */\n      tag_365\n      tag_192\n      jump\t// in\n    tag_365:\n        /* \"#utility.yul\":17171:17236   */\n      tag_366\n        /* \"#utility.yul\":17229:17235   */\n      dup2\n        /* \"#utility.yul\":17221:17227   */\n      dup5\n        /* \"#utility.yul\":17215:17219   */\n      dup5\n        /* \"#utility.yul\":17171:17236   */\n      tag_191\n      jump\t// in\n    tag_366:\n        /* \"#utility.yul\":17106:17242   */\n      pop\n        /* \"#utility.yul\":17053:17242   */\n      pop\n      pop\n      jump\t// out\n        /* \"#utility.yul\":17248:17434   */\n    tag_194:\n        /* \"#utility.yul\":17308:17428   */\n    tag_368:\n        /* \"#utility.yul\":17325:17328   */\n      dup2\n        /* \"#utility.yul\":17318:17323   */\n      dup2\n        /* \"#utility.yul\":17315:17329   */\n      lt\n        /* \"#utility.yul\":17308:17428   */\n      iszero\n      tag_370\n      jumpi\n        /* \"#utility.yul\":17379:17418   */\n      tag_371\n        /* \"#utility.yul\":17416:17417   */\n      0x00\n        /* \"#utility.yul\":17409:17414   */\n      dup3\n        /* \"#utility.yul\":17379:17418   */\n      tag_193\n      jump\t// in\n    tag_371:\n        /* \"#utility.yul\":17352:17353   */\n      0x01\n        /* \"#utility.yul\":17345:17350   */\n      dup2\n        /* \"#utility.yul\":17341:17354   */\n      add\n        /* \"#utility.yul\":17332:17354   */\n      swap1\n      pop\n        /* \"#utility.yul\":17308:17428   */\n      jump(tag_368)\n    tag_370:\n        /* \"#utility.yul\":17248:17434   */\n      pop\n      pop\n      jump\t// out\n        /* \"#utility.yul\":17440:17983   */\n    tag_195:\n        /* \"#utility.yul\":17541:17543   */\n      0x1f\n        /* \"#utility.yul\":17536:17539   */\n      dup3\n        /* \"#utility.yul\":17533:17544   */\n      gt\n        /* \"#utility.yul\":17530:17976   */\n      iszero\n      tag_373\n      jumpi\n        /* \"#utility.yul\":17575:17613   */\n      tag_374\n        /* \"#utility.yul\":17607:17612   */\n      dup2\n        /* \"#utility.yul\":17575:17613   */\n      tag_184\n      jump\t// in\n    tag_374:\n        /* \"#utility.yul\":17659:17688   */\n      tag_375\n        /* \"#utility.yul\":17677:17687   */\n      dup5\n        /* \"#utility.yul\":17659:17688   */\n      tag_185\n      jump\t// in\n    tag_375:\n        /* \"#utility.yul\":17649:17657   */\n      dup2\n        /* \"#utility.yul\":17645:17689   */\n      add\n        /* \"#utility.yul\":17842:17844   */\n      0x20\n        /* \"#utility.yul\":17830:17840   */\n      dup6\n        /* \"#utility.yul\":17827:17845   */\n      lt\n        /* \"#utility.yul\":17824:17873   */\n      iszero\n      tag_376\n      jumpi\n        /* \"#utility.yul\":17863:17871   */\n      dup2\n        /* \"#utility.yul\":17848:17871   */\n      swap1\n      pop\n        /* \"#utility.yul\":17824:17873   */\n    tag_376:\n        /* \"#utility.yul\":17886:17966   */\n      tag_377\n        /* \"#utility.yul\":17942:17964   */\n      tag_378\n        /* \"#utility.yul\":17960:17963   */\n      dup6\n        /* \"#utility.yul\":17942:17964   */\n      tag_185\n      jump\t// in\n    tag_378:\n        /* \"#utility.yul\":17932:17940   */\n      dup4\n        /* \"#utility.yul\":17928:17965   */\n      add\n        /* \"#utility.yul\":17915:17926   */\n      dup3\n        /* \"#utility.yul\":17886:17966   */\n      tag_194\n      jump\t// in\n    tag_377:\n        /* \"#utility.yul\":17545:17976   */\n      pop\n      pop\n        /* \"#utility.yul\":17530:17976   */\n    tag_373:\n        /* \"#utility.yul\":17440:17983   */\n      pop\n      pop\n      pop\n      jump\t// out\n        /* \"#utility.yul\":17989:18106   */\n    tag_196:\n        /* \"#utility.yul\":18043:18051   */\n      0x00\n        /* \"#utility.yul\":18093:18098   */\n      dup3\n        /* \"#utility.yul\":18087:18091   */\n      dup3\n        /* \"#utility.yul\":18083:18099   */\n      shr\n        /* \"#utility.yul\":18062:18099   */\n      swap1\n      pop\n        /* \"#utility.yul\":17989:18106   */\n      swap3\n      swap2\n      pop\n      pop\n      jump\t// out\n        /* \"#utility.yul\":18112:18281   */\n    tag_197:\n        /* \"#utility.yul\":18156:18162   */\n      0x00\n        /* \"#utility.yul\":18189:18240   */\n      tag_381\n        /* \"#utility.yul\":18237:18238   */\n      0x00\n        /* \"#utility.yul\":18233:18239   */\n      not\n        /* \"#utility.yul\":18225:18230   */\n      dup5\n        /* \"#utility.yul\":18222:18223   */\n      0x08\n        /* \"#utility.yul\":18218:18231   */\n      mul\n        /* \"#utility.yul\":18189:18240   */\n      tag_196\n      jump\t// in\n    tag_381:\n        /* \"#utility.yul\":18185:18241   */\n      not\n        /* \"#utility.yul\":18270:18274   */\n      dup1\n        /* \"#utility.yul\":18264:18268   */\n      dup4\n        /* \"#utility.yul\":18260:18275   */\n      and\n        /* \"#utility.yul\":18250:18275   */\n      swap2\n      pop\n        /* \"#utility.yul\":18163:18281   */\n      pop\n        /* \"#utility.yul\":18112:18281   */\n      swap3\n      swap2\n      pop\n      pop\n      jump\t// out\n        /* \"#utility.yul\":18286:18581   */\n    tag_198:\n        /* \"#utility.yul\":18362:18366   */\n      0x00\n        /* \"#utility.yul\":18508:18537   */\n      tag_383\n        /* \"#utility.yul\":18533:18536   */\n      dup4\n        /* \"#utility.yul\":18527:18531   */\n      dup4\n        /* \"#utility.yul\":18508:18537   */\n      tag_197\n      jump\t// in\n    tag_383:\n        /* \"#utility.yul\":18500:18537   */\n      swap2\n      pop\n        /* \"#utility.yul\":18570:18573   */\n      dup3\n        /* \"#utility.yul\":18567:18568   */\n      0x02\n        /* \"#utility.yul\":18563:18574   */\n      mul\n        /* \"#utility.yul\":18557:18561   */\n      dup3\n        /* \"#utility.yul\":18554:18575   */\n      or\n        /* \"#utility.yul\":18546:18575   */\n      swap1\n      pop\n        /* \"#utility.yul\":18286:18581   */\n      swap3\n      swap2\n      pop\n      pop\n      jump\t// out\n        /* \"#utility.yul\":18586:19981   */\n    tag_118:\n        /* \"#utility.yul\":18703:18740   */\n      tag_385\n        /* \"#utility.yul\":18736:18739   */\n      dup3\n        /* \"#utility.yul\":18703:18740   */\n      tag_163\n      jump\t// in\n    tag_385:\n        /* \"#utility.yul\":18805:18823   */\n      0xffffffffffffffff\n        /* \"#utility.yul\":18797:18803   */\n      dup2\n        /* \"#utility.yul\":18794:18824   */\n      gt\n        /* \"#utility.yul\":18791:18847   */\n      iszero\n      tag_386\n      jumpi\n        /* \"#utility.yul\":18827:18845   */\n      tag_387\n      tag_182\n      jump\t// in\n    tag_387:\n        /* \"#utility.yul\":18791:18847   */\n    tag_386:\n        /* \"#utility.yul\":18871:18909   */\n      tag_388\n        /* \"#utility.yul\":18903:18907   */\n      dup3\n        /* \"#utility.yul\":18897:18908   */\n      sload\n        /* \"#utility.yul\":18871:18909   */\n      tag_124\n      jump\t// in\n    tag_388:\n        /* \"#utility.yul\":18956:19023   */\n      tag_389\n        /* \"#utility.yul\":19016:19022   */\n      dup3\n        /* \"#utility.yul\":19008:19014   */\n      dup3\n        /* \"#utility.yul\":19002:19006   */\n      dup6\n        /* \"#utility.yul\":18956:19023   */\n      tag_195\n      jump\t// in\n    tag_389:\n        /* \"#utility.yul\":19050:19051   */\n      0x00\n        /* \"#utility.yul\":19074:19078   */\n      0x20\n        /* \"#utility.yul\":19061:19078   */\n      swap1\n      pop\n        /* \"#utility.yul\":19106:19108   */\n      0x1f\n        /* \"#utility.yul\":19098:19104   */\n      dup4\n        /* \"#utility.yul\":19095:19109   */\n      gt\n        /* \"#utility.yul\":19123:19124   */\n      0x01\n        /* \"#utility.yul\":19118:19736   */\n      dup2\n      eq\n      tag_391\n      jumpi\n        /* \"#utility.yul\":19780:19781   */\n      0x00\n        /* \"#utility.yul\":19797:19803   */\n      dup5\n        /* \"#utility.yul\":19794:19871   */\n      iszero\n      tag_392\n      jumpi\n        /* \"#utility.yul\":19846:19855   */\n      dup3\n        /* \"#utility.yul\":19841:19844   */\n      dup8\n        /* \"#utility.yul\":19837:19856   */\n      add\n        /* \"#utility.yul\":19831:19857   */\n      mload\n        /* \"#utility.yul\":19822:19857   */\n      swap1\n      pop\n        /* \"#utility.yul\":19794:19871   */\n    tag_392:\n        /* \"#utility.yul\":19897:19964   */\n      tag_393\n        /* \"#utility.yul\":19957:19963   */\n      dup6\n        /* \"#utility.yul\":19950:19955   */\n      dup3\n        /* \"#utility.yul\":19897:19964   */\n      tag_198\n      jump\t// in\n    tag_393:\n        /* \"#utility.yul\":19891:19895   */\n      dup7\n        /* \"#utility.yul\":19884:19965   */\n      sstore\n        /* \"#utility.yul\":19753:19975   */\n      pop\n        /* \"#utility.yul\":19088:19975   */\n      jump(tag_390)\n        /* \"#utility.yul\":19118:19736   */\n    tag_391:\n        /* \"#utility.yul\":19170:19174   */\n      0x1f\n        /* \"#utility.yul\":19166:19175   */\n      not\n        /* \"#utility.yul\":19158:19164   */\n      dup5\n        /* \"#utility.yul\":19154:19176   */\n      and\n        /* \"#utility.yul\":19204:19241   */\n      tag_394\n        /* \"#utility.yul\":19236:19240   */\n      dup7\n        /* \"#utility.yul\":19204:19241   */\n      tag_184\n      jump\t// in\n    tag_394:\n        /* \"#utility.yul\":19263:19264   */\n      0x00\n        /* \"#utility.yul\":19277:19485   */\n    tag_395:\n        /* \"#utility.yul\":19291:19298   */\n      dup3\n        /* \"#utility.yul\":19288:19289   */\n      dup2\n        /* \"#utility.yul\":19285:19299   */\n      lt\n        /* \"#utility.yul\":19277:19485   */\n      iszero\n      tag_397\n      jumpi\n        /* \"#utility.yul\":19370:19379   */\n      dup5\n        /* \"#utility.yul\":19365:19368   */\n      dup10\n        /* \"#utility.yul\":19361:19380   */\n      add\n        /* \"#utility.yul\":19355:19381   */\n      mload\n        /* \"#utility.yul\":19347:19353   */\n      dup3\n        /* \"#utility.yul\":19340:19382   */\n      sstore\n        /* \"#utility.yul\":19421:19422   */\n      0x01\n        /* \"#utility.yul\":19413:19419   */\n      dup3\n        /* \"#utility.yul\":19409:19423   */\n      add\n        /* \"#utility.yul\":19399:19423   */\n      swap2\n      pop\n        /* \"#utility.yul\":19468:19470   */\n      0x20\n        /* \"#utility.yul\":19457:19466   */\n      dup6\n        /* \"#utility.yul\":19453:19471   */\n      add\n        /* \"#utility.yul\":19440:19471   */\n      swap5\n      pop\n        /* \"#utility.yul\":19314:19318   */\n      0x20\n        /* \"#utility.yul\":19311:19312   */\n      dup2\n        /* \"#utility.yul\":19307:19319   */\n      add\n        /* \"#utility.yul\":19302:19319   */\n      swap1\n      pop\n        /* \"#utility.yul\":19277:19485   */\n      jump(tag_395)\n    tag_397:\n        /* \"#utility.yul\":19513:19519   */\n      dup7\n        /* \"#utility.yul\":19504:19511   */\n      dup4\n        /* \"#utility.yul\":19501:19520   */\n      lt\n        /* \"#utility.yul\":19498:19677   */\n      iszero\n      tag_398\n      jumpi\n        /* \"#utility.yul\":19571:19580   */\n      dup5\n        /* \"#utility.yul\":19566:19569   */\n      dup10\n        /* \"#utility.yul\":19562:19581   */\n      add\n        /* \"#utility.yul\":19556:19582   */\n      mload\n        /* \"#utility.yul\":19614:19662   */\n      tag_399\n        /* \"#utility.yul\":19656:19660   */\n      0x1f\n        /* \"#utility.yul\":19648:19654   */\n      dup10\n        /* \"#utility.yul\":19644:19661   */\n      and\n        /* \"#utility.yul\":19633:19642   */\n      dup3\n        /* \"#utility.yul\":19614:19662   */\n      tag_197\n      jump\t// in\n    tag_399:\n        /* \"#utility.yul\":19606:19612   */\n      dup4\n        /* \"#utility.yul\":19599:19663   */\n      sstore\n        /* \"#utility.yul\":19521:19677   */\n      pop\n        /* \"#utility.yul\":19498:19677   */\n    tag_398:\n        /* \"#utility.yul\":19723:19724   */\n      0x01\n        /* \"#utility.yul\":19719:19720   */\n      0x02\n        /* \"#utility.yul\":19711:19717   */\n      dup9\n        /* \"#utility.yul\":19707:19721   */\n      mul\n        /* \"#utility.yul\":19703:19725   */\n      add\n        /* \"#utility.yul\":19697:19701   */\n      dup9\n        /* \"#utility.yul\":19690:19726   */\n      sstore\n        /* \"#utility.yul\":19125:19736   */\n      pop\n      pop\n      pop\n        /* \"#utility.yul\":19088:19975   */\n    tag_390:\n      pop\n        /* \"#utility.yul\":18678:19981   */\n      pop\n      pop\n      pop\n        /* \"#utility.yul\":18586:19981   */\n      pop\n      pop\n      jump\t// out\n        /* \"#utility.yul\":19987:20135   */\n    tag_199:\n        /* \"#utility.yul\":20085:20091   */\n      dup3\n        /* \"#utility.yul\":20080:20083   */\n      dup2\n        /* \"#utility.yul\":20075:20078   */\n      dup4\n        /* \"#utility.yul\":20062:20092   */\n      calldatacopy\n        /* \"#utility.yul\":20126:20127   */\n      0x00\n        /* \"#utility.yul\":20117:20123   */\n      dup4\n        /* \"#utility.yul\":20112:20115   */\n      dup4\n        /* \"#utility.yul\":20108:20124   */\n      add\n        /* \"#utility.yul\":20101:20128   */\n      mstore\n        /* \"#utility.yul\":19987:20135   */\n      pop\n      pop\n      pop\n      jump\t// out\n        /* \"#utility.yul\":20165:20482   */\n    tag_200:\n        /* \"#utility.yul\":20263:20266   */\n      0x00\n        /* \"#utility.yul\":20284:20355   */\n      tag_402\n        /* \"#utility.yul\":20348:20354   */\n      dup4\n        /* \"#utility.yul\":20343:20346   */\n      dup6\n        /* \"#utility.yul\":20284:20355   */\n      tag_143\n      jump\t// in\n    tag_402:\n        /* \"#utility.yul\":20277:20355   */\n      swap4\n      pop\n        /* \"#utility.yul\":20365:20421   */\n      tag_403\n        /* \"#utility.yul\":20414:20420   */\n      dup4\n        /* \"#utility.yul\":20409:20412   */\n      dup6\n        /* \"#utility.yul\":20402:20407   */\n      dup5\n        /* \"#utility.yul\":20365:20421   */\n      tag_199\n      jump\t// in\n    tag_403:\n        /* \"#utility.yul\":20446:20475   */\n      tag_404\n        /* \"#utility.yul\":20468:20474   */\n      dup4\n        /* \"#utility.yul\":20446:20475   */\n      tag_165\n      jump\t// in\n    tag_404:\n        /* \"#utility.yul\":20441:20444   */\n      dup5\n        /* \"#utility.yul\":20437:20476   */\n      add\n        /* \"#utility.yul\":20430:20476   */\n      swap1\n      pop\n        /* \"#utility.yul\":20165:20482   */\n      swap4\n      swap3\n      pop\n      pop\n      pop\n      jump\t// out\n        /* \"#utility.yul\":20488:21042   */\n    tag_121:\n        /* \"#utility.yul\":20669:20673   */\n      0x00\n        /* \"#utility.yul\":20707:20709   */\n      0x40\n        /* \"#utility.yul\":20696:20705   */\n      dup3\n        /* \"#utility.yul\":20692:20710   */\n      add\n        /* \"#utility.yul\":20684:20710   */\n      swap1\n      pop\n        /* \"#utility.yul\":20756:20765   */\n      dup2\n        /* \"#utility.yul\":20750:20754   */\n      dup2\n        /* \"#utility.yul\":20746:20766   */\n      sub\n        /* \"#utility.yul\":20742:20743   */\n      0x00\n        /* \"#utility.yul\":20731:20740   */\n      dup4\n        /* \"#utility.yul\":20727:20744   */\n      add\n        /* \"#utility.yul\":20720:20767   */\n      mstore\n        /* \"#utility.yul\":20784:20872   */\n      tag_406\n        /* \"#utility.yul\":20867:20871   */\n      dup2\n        /* \"#utility.yul\":20858:20864   */\n      dup7\n        /* \"#utility.yul\":20850:20856   */\n      dup9\n        /* \"#utility.yul\":20784:20872   */\n      tag_200\n      jump\t// in\n    tag_406:\n        /* \"#utility.yul\":20776:20872   */\n      swap1\n      pop\n        /* \"#utility.yul\":20919:20928   */\n      dup2\n        /* \"#utility.yul\":20913:20917   */\n      dup2\n        /* \"#utility.yul\":20909:20929   */\n      sub\n        /* \"#utility.yul\":20904:20906   */\n      0x20\n        /* \"#utility.yul\":20893:20902   */\n      dup4\n        /* \"#utility.yul\":20889:20907   */\n      add\n        /* \"#utility.yul\":20882:20930   */\n      mstore\n        /* \"#utility.yul\":20947:21035   */\n      tag_407\n        /* \"#utility.yul\":21030:21034   */\n      dup2\n        /* \"#utility.yul\":21021:21027   */\n      dup5\n        /* \"#utility.yul\":21013:21019   */\n      dup7\n        /* \"#utility.yul\":20947:21035   */\n      tag_200\n      jump\t// in\n    tag_407:\n        /* \"#utility.yul\":20939:21035   */\n      swap1\n      pop\n        /* \"#utility.yul\":20488:21042   */\n      swap6\n      swap5\n      pop\n      pop\n      pop\n      pop\n      pop\n      jump\t// out\n        /* \"#utility.yul\":21048:21272   */\n    tag_201:\n        /* \"#utility.yul\":21188:21222   */\n      0x4465706f73697420616d6f756e74206d75737420626520677265617465722074\n        /* \"#utility.yul\":21184:21185   */\n      0x00\n        /* \"#utility.yul\":21176:21182   */\n      dup3\n        /* \"#utility.yul\":21172:21186   */\n      add\n        /* \"#utility.yul\":21165:21223   */\n      mstore\n        /* \"#utility.yul\":21257:21264   */\n      0x68616e2030000000000000000000000000000000000000000000000000000000\n        /* \"#utility.yul\":21252:21254   */\n      0x20\n        /* \"#utility.yul\":21244:21250   */\n      dup3\n        /* \"#utility.yul\":21240:21255   */\n      add\n        /* \"#utility.yul\":21233:21265   */\n      mstore\n        /* \"#utility.yul\":21048:21272   */\n      pop\n      jump\t// out\n        /* \"#utility.yul\":21278:21644   */\n    tag_202:\n        /* \"#utility.yul\":21420:21423   */\n      0x00\n        /* \"#utility.yul\":21441:21508   */\n      tag_410\n        /* \"#utility.yul\":21505:21507   */\n      0x25\n        /* \"#utility.yul\":21500:21503   */\n      dup4\n        /* \"#utility.yul\":21441:21508   */\n      tag_143\n      jump\t// in\n    tag_410:\n        /* \"#utility.yul\":21434:21508   */\n      swap2\n      pop\n        /* \"#utility.yul\":21517:21610   */\n      tag_411\n        /* \"#utility.yul\":21606:21609   */\n      dup3\n        /* \"#utility.yul\":21517:21610   */\n      tag_201\n      jump\t// in\n    tag_411:\n        /* \"#utility.yul\":21635:21637   */\n      0x40\n        /* \"#utility.yul\":21630:21633   */\n      dup3\n        /* \"#utility.yul\":21626:21638   */\n      add\n        /* \"#utility.yul\":21619:21638   */\n      swap1\n      pop\n        /* \"#utility.yul\":21278:21644   */\n      swap2\n      swap1\n      pop\n      jump\t// out\n        /* \"#utility.yul\":21650:22069   */\n    tag_140:\n        /* \"#utility.yul\":21816:21820   */\n      0x00\n        /* \"#utility.yul\":21854:21856   */\n      0x20\n        /* \"#utility.yul\":21843:21852   */\n      dup3\n        /* \"#utility.yul\":21839:21857   */\n      add\n        /* \"#utility.yul\":21831:21857   */\n      swap1\n      pop\n        /* \"#utility.yul\":21903:21912   */\n      dup2\n        /* \"#utility.yul\":21897:21901   */\n      dup2\n        /* \"#utility.yul\":21893:21913   */\n      sub\n        /* \"#utility.yul\":21889:21890   */\n      0x00\n        /* \"#utility.yul\":21878:21887   */\n      dup4\n        /* \"#utility.yul\":21874:21891   */\n      add\n        /* \"#utility.yul\":21867:21914   */\n      mstore\n        /* \"#utility.yul\":21931:22062   */\n      tag_413\n        /* \"#utility.yul\":22057:22061   */\n      dup2\n        /* \"#utility.yul\":21931:22062   */\n      tag_202\n      jump\t// in\n    tag_413:\n        /* \"#utility.yul\":21923:22062   */\n      swap1\n      pop\n        /* \"#utility.yul\":21650:22069   */\n      swap2\n      swap1\n      pop\n      jump\t// out\n\n    auxdata: 0xa264697066735822122086d571fc1ae58796c0bc85b1adaa50d2d62d6e8e15ab89a6950d1c60514a68dc64736f6c634300081a0033\n}\n",
				"bytecode": {
					"linkReferences": {},
					"object": "608060405234801561000f575f80fd5b50604051611c02380380611c02833981810160405281019061003191906101be565b5f73ffffffffffffffffffffffffffffffffffffffff168173ffffffffffffffffffffffffffffffffffffffff160361009f576040517f08c379a000000000000000000000000000000000000000000000000000000000815260040161009690610256565b60405180910390fd5b3360015f6101000a81548173ffffffffffffffffffffffffffffffffffffffff021916908373ffffffffffffffffffffffffffffffffffffffff160217905550816003819055508060025f6101000a81548173ffffffffffffffffffffffffffffffffffffffff021916908373ffffffffffffffffffffffffffffffffffffffff1602179055505050610274565b5f80fd5b5f819050919050565b61014381610131565b811461014d575f80fd5b50565b5f8151905061015e8161013a565b92915050565b5f73ffffffffffffffffffffffffffffffffffffffff82169050919050565b5f61018d82610164565b9050919050565b61019d81610183565b81146101a7575f80fd5b50565b5f815190506101b881610194565b92915050565b5f80604083850312156101d4576101d361012d565b5b5f6101e185828601610150565b92505060206101f2858286016101aa565b9150509250929050565b5f82825260208201905092915050565b7f547265617375727920616464726573732063616e6e6f74206265207a65726f005f82015250565b5f610240601f836101fc565b915061024b8261020c565b602082019050919050565b5f6020820190508181035f83015261026d81610234565b9050919050565b611981806102815f395ff3fe60806040526004361061009f575f3560e01c806361d027b31161006357806361d027b3146102a45780636f9fb98a146102ce5780638da5cb5b146102f8578063a87430ba14610322578063b6b55f2514610361578063ddca3f431461037d576101d4565b806311f1fc99146101d857806312065fe0146102005780632e1a7d4d1461022a578063313dab20146102525780633ffbd47f1461027c576101d4565b366101d4575f803373ffffffffffffffffffffffffffffffffffffffff1673ffffffffffffffffffffffffffffffffffffffff1681526020019081526020015f206003015f9054906101000a900460ff1661012f576040517f08c379a000000000000000000000000000000000000000000000000000000000815260040161012690610e17565b60405180910390fd5b345f803373ffffffffffffffffffffffffffffffffffffffff1673ffffffffffffffffffffffffffffffffffffffff1681526020019081526020015f206002015f82825461017d9190610e6b565b925050819055503373ffffffffffffffffffffffffffffffffffffffff167fe1fffcc4923d04b559f4d29a8bfc6cda04eb5b0d3c460751c2402c5c5cc9109c346040516101ca9190610ead565b60405180910390a2005b5f80fd5b3480156101e3575f80fd5b506101fe60048036038101906101f99190610ef8565b6103a7565b005b34801561020b575f80fd5b50610214610526565b6040516102219190610ead565b60405180910390f35b348015610235575f80fd5b50610250600480360381019061024b9190610ef8565b6105f7565b005b34801561025d575f80fd5b50610266610835565b6040516102739190610ead565b60405180910390f35b348015610287575f80fd5b506102a2600480360381019061029d9190610f84565b61083b565b005b3480156102af575f80fd5b506102b8610ab0565b6040516102c59190611041565b60405180910390f35b3480156102d9575f80fd5b506102e2610ad5565b6040516102ef9190610ead565b60405180910390f35b348015610303575f80fd5b5061030c610adc565b6040516103199190611041565b60405180910390f35b34801561032d575f80fd5b5061034860048036038101906103439190611084565b610b01565b6040516103589493929190611129565b60405180910390f35b61037b60048036038101906103769190610ef8565b610c44565b005b348015610388575f80fd5b50610391610db7565b60405161039e9190610ead565b60405180910390f35b60015f9054906101000a900473ffffffffffffffffffffffffffffffffffffffff1673ffffffffffffffffffffffffffffffffffffffff163373ffffffffffffffffffffffffffffffffffffffff1614610436576040517f08c379a000000000000000000000000000000000000000000000000000000000815260040161042d906111ea565b60405180910390fd5b5f8111610478576040517f08c379a000000000000000000000000000000000000000000000000000000000815260040161046f90611278565b60405180910390fd5b8060045410156104bd576040517f08c379a00000000000000000000000000000000000000000000000000000000081526004016104b4906112e0565b60405180910390fd5b8060045f8282546104ce91906112fe565b925050819055503373ffffffffffffffffffffffffffffffffffffffff167f233c84dc0c19fbf51f9fa92214ffd8a59f512e0098bff5827455d02e401221c08260405161051b9190610ead565b60405180910390a250565b5f805f3373ffffffffffffffffffffffffffffffffffffffff1673ffffffffffffffffffffffffffffffffffffffff1681526020019081526020015f206003015f9054906101000a900460ff166105b2576040517f08c379a00000000000000000000000000000000000000000000000000000000081526004016105a990610e17565b60405180910390fd5b5f803373ffffffffffffffffffffffffffffffffffffffff1673ffffffffffffffffffffffffffffffffffffffff1681526020019081526020015f2060020154905090565b5f803373ffffffffffffffffffffffffffffffffffffffff1673ffffffffffffffffffffffffffffffffffffffff1681526020019081526020015f206003015f9054906101000a900460ff16610682576040517f08c379a000000000000000000000000000000000000000000000000000000000815260040161067990610e17565b60405180910390fd5b5f81116106c4576040517f08c379a00000000000000000000000000000000000000000000000000000000081526004016106bb90611278565b60405180910390fd5b805f803373ffffffffffffffffffffffffffffffffffffffff1673ffffffffffffffffffffffffffffffffffffffff1681526020019081526020015f20600201541015610746576040517f08c379a000000000000000000000000000000000000000000000000000000000815260040161073d9061137b565b60405180910390fd5b5f612710600354836107589190611399565b6107629190611407565b90505f818361077191906112fe565b9050825f803373ffffffffffffffffffffffffffffffffffffffff1673ffffffffffffffffffffffffffffffffffffffff1681526020019081526020015f206002015f8282546107c191906112fe565b925050819055508160045f8282546107d99190610e6b565b925050819055503373ffffffffffffffffffffffffffffffffffffffff167fdf273cb619d95419a9cd0ec88123a0538c85064229baa6363788f743fff90deb8284604051610828929190611437565b60405180910390a2505050565b60045481565b5f8484905011801561084f57505f82829050115b61088e576040517f08c379a0000000000000000000000000000000000000000000000000000000008152600401610885906114ce565b60405180910390fd5b5f803373ffffffffffffffffffffffffffffffffffffffff1673ffffffffffffffffffffffffffffffffffffffff1681526020019081526020015f206003015f9054906101000a900460ff161561091a576040517f08c379a000000000000000000000000000000000000000000000000000000000815260040161091190611536565b60405180910390fd5b604051806080016040528085858080601f0160208091040260200160405190810160405280939291908181526020018383808284375f81840152601f19601f82011690508083019250505050505050815260200183838080601f0160208091040260200160405190810160405280939291908181526020018383808284375f81840152601f19601f8201169050808301925050505050505081526020015f8152602001600115158152505f803373ffffffffffffffffffffffffffffffffffffffff1673ffffffffffffffffffffffffffffffffffffffff1681526020019081526020015f205f820151815f019081610a13919061177b565b506020820151816001019081610a29919061177b565b50604082015181600201556060820151816003015f6101000a81548160ff0219169083151502179055509050503373ffffffffffffffffffffffffffffffffffffffff167f92822564bab8864c3a47b34e8d23fbce5c46234eb5da261f94087b995ac0f33b85858585604051610aa29493929190611884565b60405180910390a250505050565b60025f9054906101000a900473ffffffffffffffffffffffffffffffffffffffff1681565b5f47905090565b60015f9054906101000a900473ffffffffffffffffffffffffffffffffffffffff1681565b5f602052805f5260405f205f91509050805f018054610b1f906115ae565b80601f0160208091040260200160405190810160405280929190818152602001828054610b4b906115ae565b8015610b965780601f10610b6d57610100808354040283529160200191610b96565b820191905f5260205f20905b815481529060010190602001808311610b7957829003601f168201915b505050505090806001018054610bab906115ae565b80601f0160208091040260200160405190810160405280929190818152602001828054610bd7906115ae565b8015610c225780601f10610bf957610100808354040283529160200191610c22565b820191905f5260205f20905b815481529060010190602001808311610c0557829003601f168201915b505050505090806002015490806003015f9054906101000a900460ff16905084565b5f803373ffffffffffffffffffffffffffffffffffffffff1673ffffffffffffffffffffffffffffffffffffffff1681526020019081526020015f206003015f9054906101000a900460ff16610ccf576040517f08c379a0000000000000000000000000000000000000000000000000000000008152600401610cc690610e17565b60405180910390fd5b5f8111610d11576040517f08c379a0000000000000000000000000000000000000000000000000000000008152600401610d089061192d565b60405180910390fd5b805f803373ffffffffffffffffffffffffffffffffffffffff1673ffffffffffffffffffffffffffffffffffffffff1681526020019081526020015f206002015f828254610d5f9190610e6b565b925050819055503373ffffffffffffffffffffffffffffffffffffffff167fe1fffcc4923d04b559f4d29a8bfc6cda04eb5b0d3c460751c2402c5c5cc9109c82604051610dac9190610ead565b60405180910390a250565b60035481565b5f82825260208201905092915050565b7f55736572206973206e6f742072656769737465726564000000000000000000005f82015250565b5f610e01601683610dbd565b9150610e0c82610dcd565b602082019050919050565b5f6020820190508181035f830152610e2e81610df5565b9050919050565b5f819050919050565b7f4e487b71000000000000000000000000000000000000000000000000000000005f52601160045260245ffd5b5f610e7582610e35565b9150610e8083610e35565b9250828201905080821115610e9857610e97610e3e565b5b92915050565b610ea781610e35565b82525050565b5f602082019050610ec05f830184610e9e565b92915050565b5f80fd5b5f80fd5b610ed781610e35565b8114610ee1575f80fd5b50565b5f81359050610ef281610ece565b92915050565b5f60208284031215610f0d57610f0c610ec6565b5b5f610f1a84828501610ee4565b91505092915050565b5f80fd5b5f80fd5b5f80fd5b5f8083601f840112610f4457610f43610f23565b5b8235905067ffffffffffffffff811115610f6157610f60610f27565b5b602083019150836001820283011115610f7d57610f7c610f2b565b5b9250929050565b5f805f8060408587031215610f9c57610f9b610ec6565b5b5f85013567ffffffffffffffff811115610fb957610fb8610eca565b5b610fc587828801610f2f565b9450945050602085013567ffffffffffffffff811115610fe857610fe7610eca565b5b610ff487828801610f2f565b925092505092959194509250565b5f73ffffffffffffffffffffffffffffffffffffffff82169050919050565b5f61102b82611002565b9050919050565b61103b81611021565b82525050565b5f6020820190506110545f830184611032565b92915050565b61106381611021565b811461106d575f80fd5b50565b5f8135905061107e8161105a565b92915050565b5f6020828403121561109957611098610ec6565b5b5f6110a684828501611070565b91505092915050565b5f81519050919050565b8281835e5f83830152505050565b5f601f19601f8301169050919050565b5f6110e1826110af565b6110eb8185610dbd565b93506110fb8185602086016110b9565b611104816110c7565b840191505092915050565b5f8115159050919050565b6111238161110f565b82525050565b5f6080820190508181035f83015261114181876110d7565b9050818103602083015261115581866110d7565b90506111646040830185610e9e565b611171606083018461111a565b95945050505050565b7f4f6e6c79206f776e65722063616e2063616c6c20746869732066756e6374696f5f8201527f6e00000000000000000000000000000000000000000000000000000000000000602082015250565b5f6111d4602183610dbd565b91506111df8261117a565b604082019050919050565b5f6020820190508181035f830152611201816111c8565b9050919050565b7f5769746864726177616c20616d6f756e74206d757374206265206772656174655f8201527f72207468616e2030000000000000000000000000000000000000000000000000602082015250565b5f611262602883610dbd565b915061126d82611208565b604082019050919050565b5f6020820190508181035f83015261128f81611256565b9050919050565b7f496e73756666696369656e742074726561737572792062616c616e63650000005f82015250565b5f6112ca601d83610dbd565b91506112d582611296565b602082019050919050565b5f6020820190508181035f8301526112f7816112be565b9050919050565b5f61130882610e35565b915061131383610e35565b925082820390508181111561132b5761132a610e3e565b5b92915050565b7f496e73756666696369656e742062616c616e63650000000000000000000000005f82015250565b5f611365601483610dbd565b915061137082611331565b602082019050919050565b5f6020820190508181035f83015261139281611359565b9050919050565b5f6113a382610e35565b91506113ae83610e35565b92508282026113bc81610e35565b915082820484148315176113d3576113d2610e3e565b5b5092915050565b7f4e487b71000000000000000000000000000000000000000000000000000000005f52601260045260245ffd5b5f61141182610e35565b915061141c83610e35565b92508261142c5761142b6113da565b5b828204905092915050565b5f60408201905061144a5f830185610e9e565b6114576020830184610e9e565b9392505050565b7f4e616d6520616e64206c6173746e616d652063616e6e6f7420626520656d70745f8201527f7900000000000000000000000000000000000000000000000000000000000000602082015250565b5f6114b8602183610dbd565b91506114c38261145e565b604082019050919050565b5f6020820190508181035f8301526114e5816114ac565b9050919050565b7f5573657220697320616c726561647920726567697374657265640000000000005f82015250565b5f611520601a83610dbd565b915061152b826114ec565b602082019050919050565b5f6020820190508181035f83015261154d81611514565b9050919050565b7f4e487b71000000000000000000000000000000000000000000000000000000005f52604160045260245ffd5b7f4e487b71000000000000000000000000000000000000000000000000000000005f52602260045260245ffd5b5f60028204905060018216806115c557607f821691505b6020821081036115d8576115d7611581565b5b50919050565b5f819050815f5260205f209050919050565b5f6020601f8301049050919050565b5f82821b905092915050565b5f6008830261163a7fffffffffffffffffffffffffffffffffffffffffffffffffffffffffffffffff826115ff565b61164486836115ff565b95508019841693508086168417925050509392505050565b5f819050919050565b5f61167f61167a61167584610e35565b61165c565b610e35565b9050919050565b5f819050919050565b61169883611665565b6116ac6116a482611686565b84845461160b565b825550505050565b5f90565b6116c06116b4565b6116cb81848461168f565b505050565b5b818110156116ee576116e35f826116b8565b6001810190506116d1565b5050565b601f82111561173357611704816115de565b61170d846115f0565b8101602085101561171c578190505b611730611728856115f0565b8301826116d0565b50505b505050565b5f82821c905092915050565b5f6117535f1984600802611738565b1980831691505092915050565b5f61176b8383611744565b9150826002028217905092915050565b611784826110af565b67ffffffffffffffff81111561179d5761179c611554565b5b6117a782546115ae565b6117b28282856116f2565b5f60209050601f8311600181146117e3575f84156117d1578287015190505b6117db8582611760565b865550611842565b601f1984166117f1866115de565b5f5b82811015611818578489015182556001820191506020850194506020810190506117f3565b868310156118355784890151611831601f891682611744565b8355505b6001600288020188555050505b505050505050565b828183375f83830152505050565b5f6118638385610dbd565b935061187083858461184a565b611879836110c7565b840190509392505050565b5f6040820190508181035f83015261189d818688611858565b905081810360208301526118b2818486611858565b905095945050505050565b7f4465706f73697420616d6f756e74206d757374206265206772656174657220745f8201527f68616e2030000000000000000000000000000000000000000000000000000000602082015250565b5f611917602583610dbd565b9150611922826118bd565b604082019050919050565b5f6020820190508181035f8301526119448161190b565b905091905056fea264697066735822122086d571fc1ae58796c0bc85b1adaa50d2d62d6e8e15ab89a6950d1c60514a68dc64736f6c634300081a0033",
					"opcodes": "PUSH1 0x80 PUSH1 0x40 MSTORE CALLVALUE DUP1 ISZERO PUSH2 0xF JUMPI PUSH0 DUP1 REVERT JUMPDEST POP PUSH1 0x40 MLOAD PUSH2 0x1C02 CODESIZE SUB DUP1 PUSH2 0x1C02 DUP4 CODECOPY DUP2 DUP2 ADD PUSH1 0x40 MSTORE DUP2 ADD SWAP1 PUSH2 0x31 SWAP2 SWAP1 PUSH2 0x1BE JUMP JUMPDEST PUSH0 PUSH20 0xFFFFFFFFFFFFFFFFFFFFFFFFFFFFFFFFFFFFFFFF AND DUP2 PUSH20 0xFFFFFFFFFFFFFFFFFFFFFFFFFFFFFFFFFFFFFFFF AND SUB PUSH2 0x9F JUMPI PUSH1 0x40 MLOAD PUSH32 0x8C379A000000000000000000000000000000000000000000000000000000000 DUP2 MSTORE PUSH1 0x4 ADD PUSH2 0x96 SWAP1 PUSH2 0x256 JUMP JUMPDEST PUSH1 0x40 MLOAD DUP1 SWAP2 SUB SWAP1 REVERT JUMPDEST CALLER PUSH1 0x1 PUSH0 PUSH2 0x100 EXP DUP2 SLOAD DUP2 PUSH20 0xFFFFFFFFFFFFFFFFFFFFFFFFFFFFFFFFFFFFFFFF MUL NOT AND SWAP1 DUP4 PUSH20 0xFFFFFFFFFFFFFFFFFFFFFFFFFFFFFFFFFFFFFFFF AND MUL OR SWAP1 SSTORE POP DUP2 PUSH1 0x3 DUP2 SWAP1 SSTORE POP DUP1 PUSH1 0x2 PUSH0 PUSH2 0x100 EXP DUP2 SLOAD DUP2 PUSH20 0xFFFFFFFFFFFFFFFFFFFFFFFFFFFFFFFFFFFFFFFF MUL NOT AND SWAP1 DUP4 PUSH20 0xFFFFFFFFFFFFFFFFFFFFFFFFFFFFFFFFFFFFFFFF AND MUL OR SWAP1 SSTORE POP POP POP PUSH2 0x274 JUMP JUMPDEST PUSH0 DUP1 REVERT JUMPDEST PUSH0 DUP2 SWAP1 POP SWAP2 SWAP1 POP JUMP JUMPDEST PUSH2 0x143 DUP2 PUSH2 0x131 JUMP JUMPDEST DUP2 EQ PUSH2 0x14D JUMPI PUSH0 DUP1 REVERT JUMPDEST POP JUMP JUMPDEST PUSH0 DUP2 MLOAD SWAP1 POP PUSH2 0x15E DUP2 PUSH2 0x13A JUMP JUMPDEST SWAP3 SWAP2 POP POP JUMP JUMPDEST PUSH0 PUSH20 0xFFFFFFFFFFFFFFFFFFFFFFFFFFFFFFFFFFFFFFFF DUP3 AND SWAP1 POP SWAP2 SWAP1 POP JUMP JUMPDEST PUSH0 PUSH2 0x18D DUP3 PUSH2 0x164 JUMP JUMPDEST SWAP1 POP SWAP2 SWAP1 POP JUMP JUMPDEST PUSH2 0x19D DUP2 PUSH2 0x183 JUMP JUMPDEST DUP2 EQ PUSH2 0x1A7 JUMPI PUSH0 DUP1 REVERT JUMPDEST POP JUMP JUMPDEST PUSH0 DUP2 MLOAD SWAP1 POP PUSH2 0x1B8 DUP2 PUSH2 0x194 JUMP JUMPDEST SWAP3 SWAP2 POP POP JUMP JUMPDEST PUSH0 DUP1 PUSH1 0x40 DUP4 DUP6 SUB SLT ISZERO PUSH2 0x1D4 JUMPI PUSH2 0x1D3 PUSH2 0x12D JUMP JUMPDEST JUMPDEST PUSH0 PUSH2 0x1E1 DUP6 DUP3 DUP7 ADD PUSH2 0x150 JUMP JUMPDEST SWAP3 POP POP PUSH1 0x20 PUSH2 0x1F2 DUP6 DUP3 DUP7 ADD PUSH2 0x1AA JUMP JUMPDEST SWAP2 POP POP SWAP3 POP SWAP3 SWAP1 POP JUMP JUMPDEST PUSH0 DUP3 DUP3 MSTORE PUSH1 0x20 DUP3 ADD SWAP1 POP SWAP3 SWAP2 POP POP JUMP JUMPDEST PUSH32 0x547265617375727920616464726573732063616E6E6F74206265207A65726F00 PUSH0 DUP3 ADD MSTORE POP JUMP JUMPDEST PUSH0 PUSH2 0x240 PUSH1 0x1F DUP4 PUSH2 0x1FC JUMP JUMPDEST SWAP2 POP PUSH2 0x24B DUP3 PUSH2 0x20C JUMP JUMPDEST PUSH1 0x20 DUP3 ADD SWAP1 POP SWAP2 SWAP1 POP JUMP JUMPDEST PUSH0 PUSH1 0x20 DUP3 ADD SWAP1 POP DUP2 DUP2 SUB PUSH0 DUP4 ADD MSTORE PUSH2 0x26D DUP2 PUSH2 0x234 JUMP JUMPDEST SWAP1 POP SWAP2 SWAP1 POP JUMP JUMPDEST PUSH2 0x1981 DUP1 PUSH2 0x281 PUSH0 CODECOPY PUSH0 RETURN INVALID PUSH1 0x80 PUSH1 0x40 MSTORE PUSH1 0x4 CALLDATASIZE LT PUSH2 0x9F JUMPI PUSH0 CALLDATALOAD PUSH1 0xE0 SHR DUP1 PUSH4 0x61D027B3 GT PUSH2 0x63 JUMPI DUP1 PUSH4 0x61D027B3 EQ PUSH2 0x2A4 JUMPI DUP1 PUSH4 0x6F9FB98A EQ PUSH2 0x2CE JUMPI DUP1 PUSH4 0x8DA5CB5B EQ PUSH2 0x2F8 JUMPI DUP1 PUSH4 0xA87430BA EQ PUSH2 0x322 JUMPI DUP1 PUSH4 0xB6B55F25 EQ PUSH2 0x361 JUMPI DUP1 PUSH4 0xDDCA3F43 EQ PUSH2 0x37D JUMPI PUSH2 0x1D4 JUMP JUMPDEST DUP1 PUSH4 0x11F1FC99 EQ PUSH2 0x1D8 JUMPI DUP1 PUSH4 0x12065FE0 EQ PUSH2 0x200 JUMPI DUP1 PUSH4 0x2E1A7D4D EQ PUSH2 0x22A JUMPI DUP1 PUSH4 0x313DAB20 EQ PUSH2 0x252 JUMPI DUP1 PUSH4 0x3FFBD47F EQ PUSH2 0x27C JUMPI PUSH2 0x1D4 JUMP JUMPDEST CALLDATASIZE PUSH2 0x1D4 JUMPI PUSH0 DUP1 CALLER PUSH20 0xFFFFFFFFFFFFFFFFFFFFFFFFFFFFFFFFFFFFFFFF AND PUSH20 0xFFFFFFFFFFFFFFFFFFFFFFFFFFFFFFFFFFFFFFFF AND DUP2 MSTORE PUSH1 0x20 ADD SWAP1 DUP2 MSTORE PUSH1 0x20 ADD PUSH0 KECCAK256 PUSH1 0x3 ADD PUSH0 SWAP1 SLOAD SWAP1 PUSH2 0x100 EXP SWAP1 DIV PUSH1 0xFF AND PUSH2 0x12F JUMPI PUSH1 0x40 MLOAD PUSH32 0x8C379A000000000000000000000000000000000000000000000000000000000 DUP2 MSTORE PUSH1 0x4 ADD PUSH2 0x126 SWAP1 PUSH2 0xE17 JUMP JUMPDEST PUSH1 0x40 MLOAD DUP1 SWAP2 SUB SWAP1 REVERT JUMPDEST CALLVALUE PUSH0 DUP1 CALLER PUSH20 0xFFFFFFFFFFFFFFFFFFFFFFFFFFFFFFFFFFFFFFFF AND PUSH20 0xFFFFFFFFFFFFFFFFFFFFFFFFFFFFFFFFFFFFFFFF AND DUP2 MSTORE PUSH1 0x20 ADD SWAP1 DUP2 MSTORE PUSH1 0x20 ADD PUSH0 KECCAK256 PUSH1 0x2 ADD PUSH0 DUP3 DUP3 SLOAD PUSH2 0x17D SWAP2 SWAP1 PUSH2 0xE6B JUMP JUMPDEST SWAP3 POP POP DUP2 SWAP1 SSTORE POP CALLER PUSH20 0xFFFFFFFFFFFFFFFFFFFFFFFFFFFFFFFFFFFFFFFF AND PUSH32 0xE1FFFCC4923D04B559F4D29A8BFC6CDA04EB5B0D3C460751C2402C5C5CC9109C CALLVALUE PUSH1 0x40 MLOAD PUSH2 0x1CA SWAP2 SWAP1 PUSH2 0xEAD JUMP JUMPDEST PUSH1 0x40 MLOAD DUP1 SWAP2 SUB SWAP1 LOG2 STOP JUMPDEST PUSH0 DUP1 REVERT JUMPDEST CALLVALUE DUP1 ISZERO PUSH2 0x1E3 JUMPI PUSH0 DUP1 REVERT JUMPDEST POP PUSH2 0x1FE PUSH1 0x4 DUP1 CALLDATASIZE SUB DUP2 ADD SWAP1 PUSH2 0x1F9 SWAP2 SWAP1 PUSH2 0xEF8 JUMP JUMPDEST PUSH2 0x3A7 JUMP JUMPDEST STOP JUMPDEST CALLVALUE DUP1 ISZERO PUSH2 0x20B JUMPI PUSH0 DUP1 REVERT JUMPDEST POP PUSH2 0x214 PUSH2 0x526 JUMP JUMPDEST PUSH1 0x40 MLOAD PUSH2 0x221 SWAP2 SWAP1 PUSH2 0xEAD JUMP JUMPDEST PUSH1 0x40 MLOAD DUP1 SWAP2 SUB SWAP1 RETURN JUMPDEST CALLVALUE DUP1 ISZERO PUSH2 0x235 JUMPI PUSH0 DUP1 REVERT JUMPDEST POP PUSH2 0x250 PUSH1 0x4 DUP1 CALLDATASIZE SUB DUP2 ADD SWAP1 PUSH2 0x24B SWAP2 SWAP1 PUSH2 0xEF8 JUMP JUMPDEST PUSH2 0x5F7 JUMP JUMPDEST STOP JUMPDEST CALLVALUE DUP1 ISZERO PUSH2 0x25D JUMPI PUSH0 DUP1 REVERT JUMPDEST POP PUSH2 0x266 PUSH2 0x835 JUMP JUMPDEST PUSH1 0x40 MLOAD PUSH2 0x273 SWAP2 SWAP1 PUSH2 0xEAD JUMP JUMPDEST PUSH1 0x40 MLOAD DUP1 SWAP2 SUB SWAP1 RETURN JUMPDEST CALLVALUE DUP1 ISZERO PUSH2 0x287 JUMPI PUSH0 DUP1 REVERT JUMPDEST POP PUSH2 0x2A2 PUSH1 0x4 DUP1 CALLDATASIZE SUB DUP2 ADD SWAP1 PUSH2 0x29D SWAP2 SWAP1 PUSH2 0xF84 JUMP JUMPDEST PUSH2 0x83B JUMP JUMPDEST STOP JUMPDEST CALLVALUE DUP1 ISZERO PUSH2 0x2AF JUMPI PUSH0 DUP1 REVERT JUMPDEST POP PUSH2 0x2B8 PUSH2 0xAB0 JUMP JUMPDEST PUSH1 0x40 MLOAD PUSH2 0x2C5 SWAP2 SWAP1 PUSH2 0x1041 JUMP JUMPDEST PUSH1 0x40 MLOAD DUP1 SWAP2 SUB SWAP1 RETURN JUMPDEST CALLVALUE DUP1 ISZERO PUSH2 0x2D9 JUMPI PUSH0 DUP1 REVERT JUMPDEST POP PUSH2 0x2E2 PUSH2 0xAD5 JUMP JUMPDEST PUSH1 0x40 MLOAD PUSH2 0x2EF SWAP2 SWAP1 PUSH2 0xEAD JUMP JUMPDEST PUSH1 0x40 MLOAD DUP1 SWAP2 SUB SWAP1 RETURN JUMPDEST CALLVALUE DUP1 ISZERO PUSH2 0x303 JUMPI PUSH0 DUP1 REVERT JUMPDEST POP PUSH2 0x30C PUSH2 0xADC JUMP JUMPDEST PUSH1 0x40 MLOAD PUSH2 0x319 SWAP2 SWAP1 PUSH2 0x1041 JUMP JUMPDEST PUSH1 0x40 MLOAD DUP1 SWAP2 SUB SWAP1 RETURN JUMPDEST CALLVALUE DUP1 ISZERO PUSH2 0x32D JUMPI PUSH0 DUP1 REVERT JUMPDEST POP PUSH2 0x348 PUSH1 0x4 DUP1 CALLDATASIZE SUB DUP2 ADD SWAP1 PUSH2 0x343 SWAP2 SWAP1 PUSH2 0x1084 JUMP JUMPDEST PUSH2 0xB01 JUMP JUMPDEST PUSH1 0x40 MLOAD PUSH2 0x358 SWAP5 SWAP4 SWAP3 SWAP2 SWAP1 PUSH2 0x1129 JUMP JUMPDEST PUSH1 0x40 MLOAD DUP1 SWAP2 SUB SWAP1 RETURN JUMPDEST PUSH2 0x37B PUSH1 0x4 DUP1 CALLDATASIZE SUB DUP2 ADD SWAP1 PUSH2 0x376 SWAP2 SWAP1 PUSH2 0xEF8 JUMP JUMPDEST PUSH2 0xC44 JUMP JUMPDEST STOP JUMPDEST CALLVALUE DUP1 ISZERO PUSH2 0x388 JUMPI PUSH0 DUP1 REVERT JUMPDEST POP PUSH2 0x391 PUSH2 0xDB7 JUMP JUMPDEST PUSH1 0x40 MLOAD PUSH2 0x39E SWAP2 SWAP1 PUSH2 0xEAD JUMP JUMPDEST PUSH1 0x40 MLOAD DUP1 SWAP2 SUB SWAP1 RETURN JUMPDEST PUSH1 0x1 PUSH0 SWAP1 SLOAD SWAP1 PUSH2 0x100 EXP SWAP1 DIV PUSH20 0xFFFFFFFFFFFFFFFFFFFFFFFFFFFFFFFFFFFFFFFF AND PUSH20 0xFFFFFFFFFFFFFFFFFFFFFFFFFFFFFFFFFFFFFFFF AND CALLER PUSH20 0xFFFFFFFFFFFFFFFFFFFFFFFFFFFFFFFFFFFFFFFF AND EQ PUSH2 0x436 JUMPI PUSH1 0x40 MLOAD PUSH32 0x8C379A000000000000000000000000000000000000000000000000000000000 DUP2 MSTORE PUSH1 0x4 ADD PUSH2 0x42D SWAP1 PUSH2 0x11EA JUMP JUMPDEST PUSH1 0x40 MLOAD DUP1 SWAP2 SUB SWAP1 REVERT JUMPDEST PUSH0 DUP2 GT PUSH2 0x478 JUMPI PUSH1 0x40 MLOAD PUSH32 0x8C379A000000000000000000000000000000000000000000000000000000000 DUP2 MSTORE PUSH1 0x4 ADD PUSH2 0x46F SWAP1 PUSH2 0x1278 JUMP JUMPDEST PUSH1 0x40 MLOAD DUP1 SWAP2 SUB SWAP1 REVERT JUMPDEST DUP1 PUSH1 0x4 SLOAD LT ISZERO PUSH2 0x4BD JUMPI PUSH1 0x40 MLOAD PUSH32 0x8C379A000000000000000000000000000000000000000000000000000000000 DUP2 MSTORE PUSH1 0x4 ADD PUSH2 0x4B4 SWAP1 PUSH2 0x12E0 JUMP JUMPDEST PUSH1 0x40 MLOAD DUP1 SWAP2 SUB SWAP1 REVERT JUMPDEST DUP1 PUSH1 0x4 PUSH0 DUP3 DUP3 SLOAD PUSH2 0x4CE SWAP2 SWAP1 PUSH2 0x12FE JUMP JUMPDEST SWAP3 POP POP DUP2 SWAP1 SSTORE POP CALLER PUSH20 0xFFFFFFFFFFFFFFFFFFFFFFFFFFFFFFFFFFFFFFFF AND PUSH32 0x233C84DC0C19FBF51F9FA92214FFD8A59F512E0098BFF5827455D02E401221C0 DUP3 PUSH1 0x40 MLOAD PUSH2 0x51B SWAP2 SWAP1 PUSH2 0xEAD JUMP JUMPDEST PUSH1 0x40 MLOAD DUP1 SWAP2 SUB SWAP1 LOG2 POP JUMP JUMPDEST PUSH0 DUP1 PUSH0 CALLER PUSH20 0xFFFFFFFFFFFFFFFFFFFFFFFFFFFFFFFFFFFFFFFF AND PUSH20 0xFFFFFFFFFFFFFFFFFFFFFFFFFFFFFFFFFFFFFFFF AND DUP2 MSTORE PUSH1 0x20 ADD SWAP1 DUP2 MSTORE PUSH1 0x20 ADD PUSH0 KECCAK256 PUSH1 0x3 ADD PUSH0 SWAP1 SLOAD SWAP1 PUSH2 0x100 EXP SWAP1 DIV PUSH1 0xFF AND PUSH2 0x5B2 JUMPI PUSH1 0x40 MLOAD PUSH32 0x8C379A000000000000000000000000000000000000000000000000000000000 DUP2 MSTORE PUSH1 0x4 ADD PUSH2 0x5A9 SWAP1 PUSH2 0xE17 JUMP JUMPDEST PUSH1 0x40 MLOAD DUP1 SWAP2 SUB SWAP1 REVERT JUMPDEST PUSH0 DUP1 CALLER PUSH20 0xFFFFFFFFFFFFFFFFFFFFFFFFFFFFFFFFFFFFFFFF AND PUSH20 0xFFFFFFFFFFFFFFFFFFFFFFFFFFFFFFFFFFFFFFFF AND DUP2 MSTORE PUSH1 0x20 ADD SWAP1 DUP2 MSTORE PUSH1 0x20 ADD PUSH0 KECCAK256 PUSH1 0x2 ADD SLOAD SWAP1 POP SWAP1 JUMP JUMPDEST PUSH0 DUP1 CALLER PUSH20 0xFFFFFFFFFFFFFFFFFFFFFFFFFFFFFFFFFFFFFFFF AND PUSH20 0xFFFFFFFFFFFFFFFFFFFFFFFFFFFFFFFFFFFFFFFF AND DUP2 MSTORE PUSH1 0x20 ADD SWAP1 DUP2 MSTORE PUSH1 0x20 ADD PUSH0 KECCAK256 PUSH1 0x3 ADD PUSH0 SWAP1 SLOAD SWAP1 PUSH2 0x100 EXP SWAP1 DIV PUSH1 0xFF AND PUSH2 0x682 JUMPI PUSH1 0x40 MLOAD PUSH32 0x8C379A000000000000000000000000000000000000000000000000000000000 DUP2 MSTORE PUSH1 0x4 ADD PUSH2 0x679 SWAP1 PUSH2 0xE17 JUMP JUMPDEST PUSH1 0x40 MLOAD DUP1 SWAP2 SUB SWAP1 REVERT JUMPDEST PUSH0 DUP2 GT PUSH2 0x6C4 JUMPI PUSH1 0x40 MLOAD PUSH32 0x8C379A000000000000000000000000000000000000000000000000000000000 DUP2 MSTORE PUSH1 0x4 ADD PUSH2 0x6BB SWAP1 PUSH2 0x1278 JUMP JUMPDEST PUSH1 0x40 MLOAD DUP1 SWAP2 SUB SWAP1 REVERT JUMPDEST DUP1 PUSH0 DUP1 CALLER PUSH20 0xFFFFFFFFFFFFFFFFFFFFFFFFFFFFFFFFFFFFFFFF AND PUSH20 0xFFFFFFFFFFFFFFFFFFFFFFFFFFFFFFFFFFFFFFFF AND DUP2 MSTORE PUSH1 0x20 ADD SWAP1 DUP2 MSTORE PUSH1 0x20 ADD PUSH0 KECCAK256 PUSH1 0x2 ADD SLOAD LT ISZERO PUSH2 0x746 JUMPI PUSH1 0x40 MLOAD PUSH32 0x8C379A000000000000000000000000000000000000000000000000000000000 DUP2 MSTORE PUSH1 0x4 ADD PUSH2 0x73D SWAP1 PUSH2 0x137B JUMP JUMPDEST PUSH1 0x40 MLOAD DUP1 SWAP2 SUB SWAP1 REVERT JUMPDEST PUSH0 PUSH2 0x2710 PUSH1 0x3 SLOAD DUP4 PUSH2 0x758 SWAP2 SWAP1 PUSH2 0x1399 JUMP JUMPDEST PUSH2 0x762 SWAP2 SWAP1 PUSH2 0x1407 JUMP JUMPDEST SWAP1 POP PUSH0 DUP2 DUP4 PUSH2 0x771 SWAP2 SWAP1 PUSH2 0x12FE JUMP JUMPDEST SWAP1 POP DUP3 PUSH0 DUP1 CALLER PUSH20 0xFFFFFFFFFFFFFFFFFFFFFFFFFFFFFFFFFFFFFFFF AND PUSH20 0xFFFFFFFFFFFFFFFFFFFFFFFFFFFFFFFFFFFFFFFF AND DUP2 MSTORE PUSH1 0x20 ADD SWAP1 DUP2 MSTORE PUSH1 0x20 ADD PUSH0 KECCAK256 PUSH1 0x2 ADD PUSH0 DUP3 DUP3 SLOAD PUSH2 0x7C1 SWAP2 SWAP1 PUSH2 0x12FE JUMP JUMPDEST SWAP3 POP POP DUP2 SWAP1 SSTORE POP DUP2 PUSH1 0x4 PUSH0 DUP3 DUP3 SLOAD PUSH2 0x7D9 SWAP2 SWAP1 PUSH2 0xE6B JUMP JUMPDEST SWAP3 POP POP DUP2 SWAP1 SSTORE POP CALLER PUSH20 0xFFFFFFFFFFFFFFFFFFFFFFFFFFFFFFFFFFFFFFFF AND PUSH32 0xDF273CB619D95419A9CD0EC88123A0538C85064229BAA6363788F743FFF90DEB DUP3 DUP5 PUSH1 0x40 MLOAD PUSH2 0x828 SWAP3 SWAP2 SWAP1 PUSH2 0x1437 JUMP JUMPDEST PUSH1 0x40 MLOAD DUP1 SWAP2 SUB SWAP1 LOG2 POP POP POP JUMP JUMPDEST PUSH1 0x4 SLOAD DUP2 JUMP JUMPDEST PUSH0 DUP5 DUP5 SWAP1 POP GT DUP1 ISZERO PUSH2 0x84F JUMPI POP PUSH0 DUP3 DUP3 SWAP1 POP GT JUMPDEST PUSH2 0x88E JUMPI PUSH1 0x40 MLOAD PUSH32 0x8C379A000000000000000000000000000000000000000000000000000000000 DUP2 MSTORE PUSH1 0x4 ADD PUSH2 0x885 SWAP1 PUSH2 0x14CE JUMP JUMPDEST PUSH1 0x40 MLOAD DUP1 SWAP2 SUB SWAP1 REVERT JUMPDEST PUSH0 DUP1 CALLER PUSH20 0xFFFFFFFFFFFFFFFFFFFFFFFFFFFFFFFFFFFFFFFF AND PUSH20 0xFFFFFFFFFFFFFFFFFFFFFFFFFFFFFFFFFFFFFFFF AND DUP2 MSTORE PUSH1 0x20 ADD SWAP1 DUP2 MSTORE PUSH1 0x20 ADD PUSH0 KECCAK256 PUSH1 0x3 ADD PUSH0 SWAP1 SLOAD SWAP1 PUSH2 0x100 EXP SWAP1 DIV PUSH1 0xFF AND ISZERO PUSH2 0x91A JUMPI PUSH1 0x40 MLOAD PUSH32 0x8C379A000000000000000000000000000000000000000000000000000000000 DUP2 MSTORE PUSH1 0x4 ADD PUSH2 0x911 SWAP1 PUSH2 0x1536 JUMP JUMPDEST PUSH1 0x40 MLOAD DUP1 SWAP2 SUB SWAP1 REVERT JUMPDEST PUSH1 0x40 MLOAD DUP1 PUSH1 0x80 ADD PUSH1 0x40 MSTORE DUP1 DUP6 DUP6 DUP1 DUP1 PUSH1 0x1F ADD PUSH1 0x20 DUP1 SWAP2 DIV MUL PUSH1 0x20 ADD PUSH1 0x40 MLOAD SWAP1 DUP2 ADD PUSH1 0x40 MSTORE DUP1 SWAP4 SWAP3 SWAP2 SWAP1 DUP2 DUP2 MSTORE PUSH1 0x20 ADD DUP4 DUP4 DUP1 DUP3 DUP5 CALLDATACOPY PUSH0 DUP2 DUP5 ADD MSTORE PUSH1 0x1F NOT PUSH1 0x1F DUP3 ADD AND SWAP1 POP DUP1 DUP4 ADD SWAP3 POP POP POP POP POP POP POP DUP2 MSTORE PUSH1 0x20 ADD DUP4 DUP4 DUP1 DUP1 PUSH1 0x1F ADD PUSH1 0x20 DUP1 SWAP2 DIV MUL PUSH1 0x20 ADD PUSH1 0x40 MLOAD SWAP1 DUP2 ADD PUSH1 0x40 MSTORE DUP1 SWAP4 SWAP3 SWAP2 SWAP1 DUP2 DUP2 MSTORE PUSH1 0x20 ADD DUP4 DUP4 DUP1 DUP3 DUP5 CALLDATACOPY PUSH0 DUP2 DUP5 ADD MSTORE PUSH1 0x1F NOT PUSH1 0x1F DUP3 ADD AND SWAP1 POP DUP1 DUP4 ADD SWAP3 POP POP POP POP POP POP POP DUP2 MSTORE PUSH1 0x20 ADD PUSH0 DUP2 MSTORE PUSH1 0x20 ADD PUSH1 0x1 ISZERO ISZERO DUP2 MSTORE POP PUSH0 DUP1 CALLER PUSH20 0xFFFFFFFFFFFFFFFFFFFFFFFFFFFFFFFFFFFFFFFF AND PUSH20 0xFFFFFFFFFFFFFFFFFFFFFFFFFFFFFFFFFFFFFFFF AND DUP2 MSTORE PUSH1 0x20 ADD SWAP1 DUP2 MSTORE PUSH1 0x20 ADD PUSH0 KECCAK256 PUSH0 DUP3 ADD MLOAD DUP2 PUSH0 ADD SWAP1 DUP2 PUSH2 0xA13 SWAP2 SWAP1 PUSH2 0x177B JUMP JUMPDEST POP PUSH1 0x20 DUP3 ADD MLOAD DUP2 PUSH1 0x1 ADD SWAP1 DUP2 PUSH2 0xA29 SWAP2 SWAP1 PUSH2 0x177B JUMP JUMPDEST POP PUSH1 0x40 DUP3 ADD MLOAD DUP2 PUSH1 0x2 ADD SSTORE PUSH1 0x60 DUP3 ADD MLOAD DUP2 PUSH1 0x3 ADD PUSH0 PUSH2 0x100 EXP DUP2 SLOAD DUP2 PUSH1 0xFF MUL NOT AND SWAP1 DUP4 ISZERO ISZERO MUL OR SWAP1 SSTORE POP SWAP1 POP POP CALLER PUSH20 0xFFFFFFFFFFFFFFFFFFFFFFFFFFFFFFFFFFFFFFFF AND PUSH32 0x92822564BAB8864C3A47B34E8D23FBCE5C46234EB5DA261F94087B995AC0F33B DUP6 DUP6 DUP6 DUP6 PUSH1 0x40 MLOAD PUSH2 0xAA2 SWAP5 SWAP4 SWAP3 SWAP2 SWAP1 PUSH2 0x1884 JUMP JUMPDEST PUSH1 0x40 MLOAD DUP1 SWAP2 SUB SWAP1 LOG2 POP POP POP POP JUMP JUMPDEST PUSH1 0x2 PUSH0 SWAP1 SLOAD SWAP1 PUSH2 0x100 EXP SWAP1 DIV PUSH20 0xFFFFFFFFFFFFFFFFFFFFFFFFFFFFFFFFFFFFFFFF AND DUP2 JUMP JUMPDEST PUSH0 SELFBALANCE SWAP1 POP SWAP1 JUMP JUMPDEST PUSH1 0x1 PUSH0 SWAP1 SLOAD SWAP1 PUSH2 0x100 EXP SWAP1 DIV PUSH20 0xFFFFFFFFFFFFFFFFFFFFFFFFFFFFFFFFFFFFFFFF AND DUP2 JUMP JUMPDEST PUSH0 PUSH1 0x20 MSTORE DUP1 PUSH0 MSTORE PUSH1 0x40 PUSH0 KECCAK256 PUSH0 SWAP2 POP SWAP1 POP DUP1 PUSH0 ADD DUP1 SLOAD PUSH2 0xB1F SWAP1 PUSH2 0x15AE JUMP JUMPDEST DUP1 PUSH1 0x1F ADD PUSH1 0x20 DUP1 SWAP2 DIV MUL PUSH1 0x20 ADD PUSH1 0x40 MLOAD SWAP1 DUP2 ADD PUSH1 0x40 MSTORE DUP1 SWAP3 SWAP2 SWAP1 DUP2 DUP2 MSTORE PUSH1 0x20 ADD DUP3 DUP1 SLOAD PUSH2 0xB4B SWAP1 PUSH2 0x15AE JUMP JUMPDEST DUP1 ISZERO PUSH2 0xB96 JUMPI DUP1 PUSH1 0x1F LT PUSH2 0xB6D JUMPI PUSH2 0x100 DUP1 DUP4 SLOAD DIV MUL DUP4 MSTORE SWAP2 PUSH1 0x20 ADD SWAP2 PUSH2 0xB96 JUMP JUMPDEST DUP3 ADD SWAP2 SWAP1 PUSH0 MSTORE PUSH1 0x20 PUSH0 KECCAK256 SWAP1 JUMPDEST DUP2 SLOAD DUP2 MSTORE SWAP1 PUSH1 0x1 ADD SWAP1 PUSH1 0x20 ADD DUP1 DUP4 GT PUSH2 0xB79 JUMPI DUP3 SWAP1 SUB PUSH1 0x1F AND DUP3 ADD SWAP2 JUMPDEST POP POP POP POP POP SWAP1 DUP1 PUSH1 0x1 ADD DUP1 SLOAD PUSH2 0xBAB SWAP1 PUSH2 0x15AE JUMP JUMPDEST DUP1 PUSH1 0x1F ADD PUSH1 0x20 DUP1 SWAP2 DIV MUL PUSH1 0x20 ADD PUSH1 0x40 MLOAD SWAP1 DUP2 ADD PUSH1 0x40 MSTORE DUP1 SWAP3 SWAP2 SWAP1 DUP2 DUP2 MSTORE PUSH1 0x20 ADD DUP3 DUP1 SLOAD PUSH2 0xBD7 SWAP1 PUSH2 0x15AE JUMP JUMPDEST DUP1 ISZERO PUSH2 0xC22 JUMPI DUP1 PUSH1 0x1F LT PUSH2 0xBF9 JUMPI PUSH2 0x100 DUP1 DUP4 SLOAD DIV MUL DUP4 MSTORE SWAP2 PUSH1 0x20 ADD SWAP2 PUSH2 0xC22 JUMP JUMPDEST DUP3 ADD SWAP2 SWAP1 PUSH0 MSTORE PUSH1 0x20 PUSH0 KECCAK256 SWAP1 JUMPDEST DUP2 SLOAD DUP2 MSTORE SWAP1 PUSH1 0x1 ADD SWAP1 PUSH1 0x20 ADD DUP1 DUP4 GT PUSH2 0xC05 JUMPI DUP3 SWAP1 SUB PUSH1 0x1F AND DUP3 ADD SWAP2 JUMPDEST POP POP POP POP POP SWAP1 DUP1 PUSH1 0x2 ADD SLOAD SWAP1 DUP1 PUSH1 0x3 ADD PUSH0 SWAP1 SLOAD SWAP1 PUSH2 0x100 EXP SWAP1 DIV PUSH1 0xFF AND SWAP1 POP DUP5 JUMP JUMPDEST PUSH0 DUP1 CALLER PUSH20 0xFFFFFFFFFFFFFFFFFFFFFFFFFFFFFFFFFFFFFFFF AND PUSH20 0xFFFFFFFFFFFFFFFFFFFFFFFFFFFFFFFFFFFFFFFF AND DUP2 MSTORE PUSH1 0x20 ADD SWAP1 DUP2 MSTORE PUSH1 0x20 ADD PUSH0 KECCAK256 PUSH1 0x3 ADD PUSH0 SWAP1 SLOAD SWAP1 PUSH2 0x100 EXP SWAP1 DIV PUSH1 0xFF AND PUSH2 0xCCF JUMPI PUSH1 0x40 MLOAD PUSH32 0x8C379A000000000000000000000000000000000000000000000000000000000 DUP2 MSTORE PUSH1 0x4 ADD PUSH2 0xCC6 SWAP1 PUSH2 0xE17 JUMP JUMPDEST PUSH1 0x40 MLOAD DUP1 SWAP2 SUB SWAP1 REVERT JUMPDEST PUSH0 DUP2 GT PUSH2 0xD11 JUMPI PUSH1 0x40 MLOAD PUSH32 0x8C379A000000000000000000000000000000000000000000000000000000000 DUP2 MSTORE PUSH1 0x4 ADD PUSH2 0xD08 SWAP1 PUSH2 0x192D JUMP JUMPDEST PUSH1 0x40 MLOAD DUP1 SWAP2 SUB SWAP1 REVERT JUMPDEST DUP1 PUSH0 DUP1 CALLER PUSH20 0xFFFFFFFFFFFFFFFFFFFFFFFFFFFFFFFFFFFFFFFF AND PUSH20 0xFFFFFFFFFFFFFFFFFFFFFFFFFFFFFFFFFFFFFFFF AND DUP2 MSTORE PUSH1 0x20 ADD SWAP1 DUP2 MSTORE PUSH1 0x20 ADD PUSH0 KECCAK256 PUSH1 0x2 ADD PUSH0 DUP3 DUP3 SLOAD PUSH2 0xD5F SWAP2 SWAP1 PUSH2 0xE6B JUMP JUMPDEST SWAP3 POP POP DUP2 SWAP1 SSTORE POP CALLER PUSH20 0xFFFFFFFFFFFFFFFFFFFFFFFFFFFFFFFFFFFFFFFF AND PUSH32 0xE1FFFCC4923D04B559F4D29A8BFC6CDA04EB5B0D3C460751C2402C5C5CC9109C DUP3 PUSH1 0x40 MLOAD PUSH2 0xDAC SWAP2 SWAP1 PUSH2 0xEAD JUMP JUMPDEST PUSH1 0x40 MLOAD DUP1 SWAP2 SUB SWAP1 LOG2 POP JUMP JUMPDEST PUSH1 0x3 SLOAD DUP2 JUMP JUMPDEST PUSH0 DUP3 DUP3 MSTORE PUSH1 0x20 DUP3 ADD SWAP1 POP SWAP3 SWAP2 POP POP JUMP JUMPDEST PUSH32 0x55736572206973206E6F74207265676973746572656400000000000000000000 PUSH0 DUP3 ADD MSTORE POP JUMP JUMPDEST PUSH0 PUSH2 0xE01 PUSH1 0x16 DUP4 PUSH2 0xDBD JUMP JUMPDEST SWAP2 POP PUSH2 0xE0C DUP3 PUSH2 0xDCD JUMP JUMPDEST PUSH1 0x20 DUP3 ADD SWAP1 POP SWAP2 SWAP1 POP JUMP JUMPDEST PUSH0 PUSH1 0x20 DUP3 ADD SWAP1 POP DUP2 DUP2 SUB PUSH0 DUP4 ADD MSTORE PUSH2 0xE2E DUP2 PUSH2 0xDF5 JUMP JUMPDEST SWAP1 POP SWAP2 SWAP1 POP JUMP JUMPDEST PUSH0 DUP2 SWAP1 POP SWAP2 SWAP1 POP JUMP JUMPDEST PUSH32 0x4E487B7100000000000000000000000000000000000000000000000000000000 PUSH0 MSTORE PUSH1 0x11 PUSH1 0x4 MSTORE PUSH1 0x24 PUSH0 REVERT JUMPDEST PUSH0 PUSH2 0xE75 DUP3 PUSH2 0xE35 JUMP JUMPDEST SWAP2 POP PUSH2 0xE80 DUP4 PUSH2 0xE35 JUMP JUMPDEST SWAP3 POP DUP3 DUP3 ADD SWAP1 POP DUP1 DUP3 GT ISZERO PUSH2 0xE98 JUMPI PUSH2 0xE97 PUSH2 0xE3E JUMP JUMPDEST JUMPDEST SWAP3 SWAP2 POP POP JUMP JUMPDEST PUSH2 0xEA7 DUP2 PUSH2 0xE35 JUMP JUMPDEST DUP3 MSTORE POP POP JUMP JUMPDEST PUSH0 PUSH1 0x20 DUP3 ADD SWAP1 POP PUSH2 0xEC0 PUSH0 DUP4 ADD DUP5 PUSH2 0xE9E JUMP JUMPDEST SWAP3 SWAP2 POP POP JUMP JUMPDEST PUSH0 DUP1 REVERT JUMPDEST PUSH0 DUP1 REVERT JUMPDEST PUSH2 0xED7 DUP2 PUSH2 0xE35 JUMP JUMPDEST DUP2 EQ PUSH2 0xEE1 JUMPI PUSH0 DUP1 REVERT JUMPDEST POP JUMP JUMPDEST PUSH0 DUP2 CALLDATALOAD SWAP1 POP PUSH2 0xEF2 DUP2 PUSH2 0xECE JUMP JUMPDEST SWAP3 SWAP2 POP POP JUMP JUMPDEST PUSH0 PUSH1 0x20 DUP3 DUP5 SUB SLT ISZERO PUSH2 0xF0D JUMPI PUSH2 0xF0C PUSH2 0xEC6 JUMP JUMPDEST JUMPDEST PUSH0 PUSH2 0xF1A DUP5 DUP3 DUP6 ADD PUSH2 0xEE4 JUMP JUMPDEST SWAP2 POP POP SWAP3 SWAP2 POP POP JUMP JUMPDEST PUSH0 DUP1 REVERT JUMPDEST PUSH0 DUP1 REVERT JUMPDEST PUSH0 DUP1 REVERT JUMPDEST PUSH0 DUP1 DUP4 PUSH1 0x1F DUP5 ADD SLT PUSH2 0xF44 JUMPI PUSH2 0xF43 PUSH2 0xF23 JUMP JUMPDEST JUMPDEST DUP3 CALLDATALOAD SWAP1 POP PUSH8 0xFFFFFFFFFFFFFFFF DUP2 GT ISZERO PUSH2 0xF61 JUMPI PUSH2 0xF60 PUSH2 0xF27 JUMP JUMPDEST JUMPDEST PUSH1 0x20 DUP4 ADD SWAP2 POP DUP4 PUSH1 0x1 DUP3 MUL DUP4 ADD GT ISZERO PUSH2 0xF7D JUMPI PUSH2 0xF7C PUSH2 0xF2B JUMP JUMPDEST JUMPDEST SWAP3 POP SWAP3 SWAP1 POP JUMP JUMPDEST PUSH0 DUP1 PUSH0 DUP1 PUSH1 0x40 DUP6 DUP8 SUB SLT ISZERO PUSH2 0xF9C JUMPI PUSH2 0xF9B PUSH2 0xEC6 JUMP JUMPDEST JUMPDEST PUSH0 DUP6 ADD CALLDATALOAD PUSH8 0xFFFFFFFFFFFFFFFF DUP2 GT ISZERO PUSH2 0xFB9 JUMPI PUSH2 0xFB8 PUSH2 0xECA JUMP JUMPDEST JUMPDEST PUSH2 0xFC5 DUP8 DUP3 DUP9 ADD PUSH2 0xF2F JUMP JUMPDEST SWAP5 POP SWAP5 POP POP PUSH1 0x20 DUP6 ADD CALLDATALOAD PUSH8 0xFFFFFFFFFFFFFFFF DUP2 GT ISZERO PUSH2 0xFE8 JUMPI PUSH2 0xFE7 PUSH2 0xECA JUMP JUMPDEST JUMPDEST PUSH2 0xFF4 DUP8 DUP3 DUP9 ADD PUSH2 0xF2F JUMP JUMPDEST SWAP3 POP SWAP3 POP POP SWAP3 SWAP6 SWAP2 SWAP5 POP SWAP3 POP JUMP JUMPDEST PUSH0 PUSH20 0xFFFFFFFFFFFFFFFFFFFFFFFFFFFFFFFFFFFFFFFF DUP3 AND SWAP1 POP SWAP2 SWAP1 POP JUMP JUMPDEST PUSH0 PUSH2 0x102B DUP3 PUSH2 0x1002 JUMP JUMPDEST SWAP1 POP SWAP2 SWAP1 POP JUMP JUMPDEST PUSH2 0x103B DUP2 PUSH2 0x1021 JUMP JUMPDEST DUP3 MSTORE POP POP JUMP JUMPDEST PUSH0 PUSH1 0x20 DUP3 ADD SWAP1 POP PUSH2 0x1054 PUSH0 DUP4 ADD DUP5 PUSH2 0x1032 JUMP JUMPDEST SWAP3 SWAP2 POP POP JUMP JUMPDEST PUSH2 0x1063 DUP2 PUSH2 0x1021 JUMP JUMPDEST DUP2 EQ PUSH2 0x106D JUMPI PUSH0 DUP1 REVERT JUMPDEST POP JUMP JUMPDEST PUSH0 DUP2 CALLDATALOAD SWAP1 POP PUSH2 0x107E DUP2 PUSH2 0x105A JUMP JUMPDEST SWAP3 SWAP2 POP POP JUMP JUMPDEST PUSH0 PUSH1 0x20 DUP3 DUP5 SUB SLT ISZERO PUSH2 0x1099 JUMPI PUSH2 0x1098 PUSH2 0xEC6 JUMP JUMPDEST JUMPDEST PUSH0 PUSH2 0x10A6 DUP5 DUP3 DUP6 ADD PUSH2 0x1070 JUMP JUMPDEST SWAP2 POP POP SWAP3 SWAP2 POP POP JUMP JUMPDEST PUSH0 DUP2 MLOAD SWAP1 POP SWAP2 SWAP1 POP JUMP JUMPDEST DUP3 DUP2 DUP4 MCOPY PUSH0 DUP4 DUP4 ADD MSTORE POP POP POP JUMP JUMPDEST PUSH0 PUSH1 0x1F NOT PUSH1 0x1F DUP4 ADD AND SWAP1 POP SWAP2 SWAP1 POP JUMP JUMPDEST PUSH0 PUSH2 0x10E1 DUP3 PUSH2 0x10AF JUMP JUMPDEST PUSH2 0x10EB DUP2 DUP6 PUSH2 0xDBD JUMP JUMPDEST SWAP4 POP PUSH2 0x10FB DUP2 DUP6 PUSH1 0x20 DUP7 ADD PUSH2 0x10B9 JUMP JUMPDEST PUSH2 0x1104 DUP2 PUSH2 0x10C7 JUMP JUMPDEST DUP5 ADD SWAP2 POP POP SWAP3 SWAP2 POP POP JUMP JUMPDEST PUSH0 DUP2 ISZERO ISZERO SWAP1 POP SWAP2 SWAP1 POP JUMP JUMPDEST PUSH2 0x1123 DUP2 PUSH2 0x110F JUMP JUMPDEST DUP3 MSTORE POP POP JUMP JUMPDEST PUSH0 PUSH1 0x80 DUP3 ADD SWAP1 POP DUP2 DUP2 SUB PUSH0 DUP4 ADD MSTORE PUSH2 0x1141 DUP2 DUP8 PUSH2 0x10D7 JUMP JUMPDEST SWAP1 POP DUP2 DUP2 SUB PUSH1 0x20 DUP4 ADD MSTORE PUSH2 0x1155 DUP2 DUP7 PUSH2 0x10D7 JUMP JUMPDEST SWAP1 POP PUSH2 0x1164 PUSH1 0x40 DUP4 ADD DUP6 PUSH2 0xE9E JUMP JUMPDEST PUSH2 0x1171 PUSH1 0x60 DUP4 ADD DUP5 PUSH2 0x111A JUMP JUMPDEST SWAP6 SWAP5 POP POP POP POP POP JUMP JUMPDEST PUSH32 0x4F6E6C79206F776E65722063616E2063616C6C20746869732066756E6374696F PUSH0 DUP3 ADD MSTORE PUSH32 0x6E00000000000000000000000000000000000000000000000000000000000000 PUSH1 0x20 DUP3 ADD MSTORE POP JUMP JUMPDEST PUSH0 PUSH2 0x11D4 PUSH1 0x21 DUP4 PUSH2 0xDBD JUMP JUMPDEST SWAP2 POP PUSH2 0x11DF DUP3 PUSH2 0x117A JUMP JUMPDEST PUSH1 0x40 DUP3 ADD SWAP1 POP SWAP2 SWAP1 POP JUMP JUMPDEST PUSH0 PUSH1 0x20 DUP3 ADD SWAP1 POP DUP2 DUP2 SUB PUSH0 DUP4 ADD MSTORE PUSH2 0x1201 DUP2 PUSH2 0x11C8 JUMP JUMPDEST SWAP1 POP SWAP2 SWAP1 POP JUMP JUMPDEST PUSH32 0x5769746864726177616C20616D6F756E74206D75737420626520677265617465 PUSH0 DUP3 ADD MSTORE PUSH32 0x72207468616E2030000000000000000000000000000000000000000000000000 PUSH1 0x20 DUP3 ADD MSTORE POP JUMP JUMPDEST PUSH0 PUSH2 0x1262 PUSH1 0x28 DUP4 PUSH2 0xDBD JUMP JUMPDEST SWAP2 POP PUSH2 0x126D DUP3 PUSH2 0x1208 JUMP JUMPDEST PUSH1 0x40 DUP3 ADD SWAP1 POP SWAP2 SWAP1 POP JUMP JUMPDEST PUSH0 PUSH1 0x20 DUP3 ADD SWAP1 POP DUP2 DUP2 SUB PUSH0 DUP4 ADD MSTORE PUSH2 0x128F DUP2 PUSH2 0x1256 JUMP JUMPDEST SWAP1 POP SWAP2 SWAP1 POP JUMP JUMPDEST PUSH32 0x496E73756666696369656E742074726561737572792062616C616E6365000000 PUSH0 DUP3 ADD MSTORE POP JUMP JUMPDEST PUSH0 PUSH2 0x12CA PUSH1 0x1D DUP4 PUSH2 0xDBD JUMP JUMPDEST SWAP2 POP PUSH2 0x12D5 DUP3 PUSH2 0x1296 JUMP JUMPDEST PUSH1 0x20 DUP3 ADD SWAP1 POP SWAP2 SWAP1 POP JUMP JUMPDEST PUSH0 PUSH1 0x20 DUP3 ADD SWAP1 POP DUP2 DUP2 SUB PUSH0 DUP4 ADD MSTORE PUSH2 0x12F7 DUP2 PUSH2 0x12BE JUMP JUMPDEST SWAP1 POP SWAP2 SWAP1 POP JUMP JUMPDEST PUSH0 PUSH2 0x1308 DUP3 PUSH2 0xE35 JUMP JUMPDEST SWAP2 POP PUSH2 0x1313 DUP4 PUSH2 0xE35 JUMP JUMPDEST SWAP3 POP DUP3 DUP3 SUB SWAP1 POP DUP2 DUP2 GT ISZERO PUSH2 0x132B JUMPI PUSH2 0x132A PUSH2 0xE3E JUMP JUMPDEST JUMPDEST SWAP3 SWAP2 POP POP JUMP JUMPDEST PUSH32 0x496E73756666696369656E742062616C616E6365000000000000000000000000 PUSH0 DUP3 ADD MSTORE POP JUMP JUMPDEST PUSH0 PUSH2 0x1365 PUSH1 0x14 DUP4 PUSH2 0xDBD JUMP JUMPDEST SWAP2 POP PUSH2 0x1370 DUP3 PUSH2 0x1331 JUMP JUMPDEST PUSH1 0x20 DUP3 ADD SWAP1 POP SWAP2 SWAP1 POP JUMP JUMPDEST PUSH0 PUSH1 0x20 DUP3 ADD SWAP1 POP DUP2 DUP2 SUB PUSH0 DUP4 ADD MSTORE PUSH2 0x1392 DUP2 PUSH2 0x1359 JUMP JUMPDEST SWAP1 POP SWAP2 SWAP1 POP JUMP JUMPDEST PUSH0 PUSH2 0x13A3 DUP3 PUSH2 0xE35 JUMP JUMPDEST SWAP2 POP PUSH2 0x13AE DUP4 PUSH2 0xE35 JUMP JUMPDEST SWAP3 POP DUP3 DUP3 MUL PUSH2 0x13BC DUP2 PUSH2 0xE35 JUMP JUMPDEST SWAP2 POP DUP3 DUP3 DIV DUP5 EQ DUP4 ISZERO OR PUSH2 0x13D3 JUMPI PUSH2 0x13D2 PUSH2 0xE3E JUMP JUMPDEST JUMPDEST POP SWAP3 SWAP2 POP POP JUMP JUMPDEST PUSH32 0x4E487B7100000000000000000000000000000000000000000000000000000000 PUSH0 MSTORE PUSH1 0x12 PUSH1 0x4 MSTORE PUSH1 0x24 PUSH0 REVERT JUMPDEST PUSH0 PUSH2 0x1411 DUP3 PUSH2 0xE35 JUMP JUMPDEST SWAP2 POP PUSH2 0x141C DUP4 PUSH2 0xE35 JUMP JUMPDEST SWAP3 POP DUP3 PUSH2 0x142C JUMPI PUSH2 0x142B PUSH2 0x13DA JUMP JUMPDEST JUMPDEST DUP3 DUP3 DIV SWAP1 POP SWAP3 SWAP2 POP POP JUMP JUMPDEST PUSH0 PUSH1 0x40 DUP3 ADD SWAP1 POP PUSH2 0x144A PUSH0 DUP4 ADD DUP6 PUSH2 0xE9E JUMP JUMPDEST PUSH2 0x1457 PUSH1 0x20 DUP4 ADD DUP5 PUSH2 0xE9E JUMP JUMPDEST SWAP4 SWAP3 POP POP POP JUMP JUMPDEST PUSH32 0x4E616D6520616E64206C6173746E616D652063616E6E6F7420626520656D7074 PUSH0 DUP3 ADD MSTORE PUSH32 0x7900000000000000000000000000000000000000000000000000000000000000 PUSH1 0x20 DUP3 ADD MSTORE POP JUMP JUMPDEST PUSH0 PUSH2 0x14B8 PUSH1 0x21 DUP4 PUSH2 0xDBD JUMP JUMPDEST SWAP2 POP PUSH2 0x14C3 DUP3 PUSH2 0x145E JUMP JUMPDEST PUSH1 0x40 DUP3 ADD SWAP1 POP SWAP2 SWAP1 POP JUMP JUMPDEST PUSH0 PUSH1 0x20 DUP3 ADD SWAP1 POP DUP2 DUP2 SUB PUSH0 DUP4 ADD MSTORE PUSH2 0x14E5 DUP2 PUSH2 0x14AC JUMP JUMPDEST SWAP1 POP SWAP2 SWAP1 POP JUMP JUMPDEST PUSH32 0x5573657220697320616C72656164792072656769737465726564000000000000 PUSH0 DUP3 ADD MSTORE POP JUMP JUMPDEST PUSH0 PUSH2 0x1520 PUSH1 0x1A DUP4 PUSH2 0xDBD JUMP JUMPDEST SWAP2 POP PUSH2 0x152B DUP3 PUSH2 0x14EC JUMP JUMPDEST PUSH1 0x20 DUP3 ADD SWAP1 POP SWAP2 SWAP1 POP JUMP JUMPDEST PUSH0 PUSH1 0x20 DUP3 ADD SWAP1 POP DUP2 DUP2 SUB PUSH0 DUP4 ADD MSTORE PUSH2 0x154D DUP2 PUSH2 0x1514 JUMP JUMPDEST SWAP1 POP SWAP2 SWAP1 POP JUMP JUMPDEST PUSH32 0x4E487B7100000000000000000000000000000000000000000000000000000000 PUSH0 MSTORE PUSH1 0x41 PUSH1 0x4 MSTORE PUSH1 0x24 PUSH0 REVERT JUMPDEST PUSH32 0x4E487B7100000000000000000000000000000000000000000000000000000000 PUSH0 MSTORE PUSH1 0x22 PUSH1 0x4 MSTORE PUSH1 0x24 PUSH0 REVERT JUMPDEST PUSH0 PUSH1 0x2 DUP3 DIV SWAP1 POP PUSH1 0x1 DUP3 AND DUP1 PUSH2 0x15C5 JUMPI PUSH1 0x7F DUP3 AND SWAP2 POP JUMPDEST PUSH1 0x20 DUP3 LT DUP2 SUB PUSH2 0x15D8 JUMPI PUSH2 0x15D7 PUSH2 0x1581 JUMP JUMPDEST JUMPDEST POP SWAP2 SWAP1 POP JUMP JUMPDEST PUSH0 DUP2 SWAP1 POP DUP2 PUSH0 MSTORE PUSH1 0x20 PUSH0 KECCAK256 SWAP1 POP SWAP2 SWAP1 POP JUMP JUMPDEST PUSH0 PUSH1 0x20 PUSH1 0x1F DUP4 ADD DIV SWAP1 POP SWAP2 SWAP1 POP JUMP JUMPDEST PUSH0 DUP3 DUP3 SHL SWAP1 POP SWAP3 SWAP2 POP POP JUMP JUMPDEST PUSH0 PUSH1 0x8 DUP4 MUL PUSH2 0x163A PUSH32 0xFFFFFFFFFFFFFFFFFFFFFFFFFFFFFFFFFFFFFFFFFFFFFFFFFFFFFFFFFFFFFFFF DUP3 PUSH2 0x15FF JUMP JUMPDEST PUSH2 0x1644 DUP7 DUP4 PUSH2 0x15FF JUMP JUMPDEST SWAP6 POP DUP1 NOT DUP5 AND SWAP4 POP DUP1 DUP7 AND DUP5 OR SWAP3 POP POP POP SWAP4 SWAP3 POP POP POP JUMP JUMPDEST PUSH0 DUP2 SWAP1 POP SWAP2 SWAP1 POP JUMP JUMPDEST PUSH0 PUSH2 0x167F PUSH2 0x167A PUSH2 0x1675 DUP5 PUSH2 0xE35 JUMP JUMPDEST PUSH2 0x165C JUMP JUMPDEST PUSH2 0xE35 JUMP JUMPDEST SWAP1 POP SWAP2 SWAP1 POP JUMP JUMPDEST PUSH0 DUP2 SWAP1 POP SWAP2 SWAP1 POP JUMP JUMPDEST PUSH2 0x1698 DUP4 PUSH2 0x1665 JUMP JUMPDEST PUSH2 0x16AC PUSH2 0x16A4 DUP3 PUSH2 0x1686 JUMP JUMPDEST DUP5 DUP5 SLOAD PUSH2 0x160B JUMP JUMPDEST DUP3 SSTORE POP POP POP POP JUMP JUMPDEST PUSH0 SWAP1 JUMP JUMPDEST PUSH2 0x16C0 PUSH2 0x16B4 JUMP JUMPDEST PUSH2 0x16CB DUP2 DUP5 DUP5 PUSH2 0x168F JUMP JUMPDEST POP POP POP JUMP JUMPDEST JUMPDEST DUP2 DUP2 LT ISZERO PUSH2 0x16EE JUMPI PUSH2 0x16E3 PUSH0 DUP3 PUSH2 0x16B8 JUMP JUMPDEST PUSH1 0x1 DUP2 ADD SWAP1 POP PUSH2 0x16D1 JUMP JUMPDEST POP POP JUMP JUMPDEST PUSH1 0x1F DUP3 GT ISZERO PUSH2 0x1733 JUMPI PUSH2 0x1704 DUP2 PUSH2 0x15DE JUMP JUMPDEST PUSH2 0x170D DUP5 PUSH2 0x15F0 JUMP JUMPDEST DUP2 ADD PUSH1 0x20 DUP6 LT ISZERO PUSH2 0x171C JUMPI DUP2 SWAP1 POP JUMPDEST PUSH2 0x1730 PUSH2 0x1728 DUP6 PUSH2 0x15F0 JUMP JUMPDEST DUP4 ADD DUP3 PUSH2 0x16D0 JUMP JUMPDEST POP POP JUMPDEST POP POP POP JUMP JUMPDEST PUSH0 DUP3 DUP3 SHR SWAP1 POP SWAP3 SWAP2 POP POP JUMP JUMPDEST PUSH0 PUSH2 0x1753 PUSH0 NOT DUP5 PUSH1 0x8 MUL PUSH2 0x1738 JUMP JUMPDEST NOT DUP1 DUP4 AND SWAP2 POP POP SWAP3 SWAP2 POP POP JUMP JUMPDEST PUSH0 PUSH2 0x176B DUP4 DUP4 PUSH2 0x1744 JUMP JUMPDEST SWAP2 POP DUP3 PUSH1 0x2 MUL DUP3 OR SWAP1 POP SWAP3 SWAP2 POP POP JUMP JUMPDEST PUSH2 0x1784 DUP3 PUSH2 0x10AF JUMP JUMPDEST PUSH8 0xFFFFFFFFFFFFFFFF DUP2 GT ISZERO PUSH2 0x179D JUMPI PUSH2 0x179C PUSH2 0x1554 JUMP JUMPDEST JUMPDEST PUSH2 0x17A7 DUP3 SLOAD PUSH2 0x15AE JUMP JUMPDEST PUSH2 0x17B2 DUP3 DUP3 DUP6 PUSH2 0x16F2 JUMP JUMPDEST PUSH0 PUSH1 0x20 SWAP1 POP PUSH1 0x1F DUP4 GT PUSH1 0x1 DUP2 EQ PUSH2 0x17E3 JUMPI PUSH0 DUP5 ISZERO PUSH2 0x17D1 JUMPI DUP3 DUP8 ADD MLOAD SWAP1 POP JUMPDEST PUSH2 0x17DB DUP6 DUP3 PUSH2 0x1760 JUMP JUMPDEST DUP7 SSTORE POP PUSH2 0x1842 JUMP JUMPDEST PUSH1 0x1F NOT DUP5 AND PUSH2 0x17F1 DUP7 PUSH2 0x15DE JUMP JUMPDEST PUSH0 JUMPDEST DUP3 DUP2 LT ISZERO PUSH2 0x1818 JUMPI DUP5 DUP10 ADD MLOAD DUP3 SSTORE PUSH1 0x1 DUP3 ADD SWAP2 POP PUSH1 0x20 DUP6 ADD SWAP5 POP PUSH1 0x20 DUP2 ADD SWAP1 POP PUSH2 0x17F3 JUMP JUMPDEST DUP7 DUP4 LT ISZERO PUSH2 0x1835 JUMPI DUP5 DUP10 ADD MLOAD PUSH2 0x1831 PUSH1 0x1F DUP10 AND DUP3 PUSH2 0x1744 JUMP JUMPDEST DUP4 SSTORE POP JUMPDEST PUSH1 0x1 PUSH1 0x2 DUP9 MUL ADD DUP9 SSTORE POP POP POP JUMPDEST POP POP POP POP POP POP JUMP JUMPDEST DUP3 DUP2 DUP4 CALLDATACOPY PUSH0 DUP4 DUP4 ADD MSTORE POP POP POP JUMP JUMPDEST PUSH0 PUSH2 0x1863 DUP4 DUP6 PUSH2 0xDBD JUMP JUMPDEST SWAP4 POP PUSH2 0x1870 DUP4 DUP6 DUP5 PUSH2 0x184A JUMP JUMPDEST PUSH2 0x1879 DUP4 PUSH2 0x10C7 JUMP JUMPDEST DUP5 ADD SWAP1 POP SWAP4 SWAP3 POP POP POP JUMP JUMPDEST PUSH0 PUSH1 0x40 DUP3 ADD SWAP1 POP DUP2 DUP2 SUB PUSH0 DUP4 ADD MSTORE PUSH2 0x189D DUP2 DUP7 DUP9 PUSH2 0x1858 JUMP JUMPDEST SWAP1 POP DUP2 DUP2 SUB PUSH1 0x20 DUP4 ADD MSTORE PUSH2 0x18B2 DUP2 DUP5 DUP7 PUSH2 0x1858 JUMP JUMPDEST SWAP1 POP SWAP6 SWAP5 POP POP POP POP POP JUMP JUMPDEST PUSH32 0x4465706F73697420616D6F756E74206D75737420626520677265617465722074 PUSH0 DUP3 ADD MSTORE PUSH32 0x68616E2030000000000000000000000000000000000000000000000000000000 PUSH1 0x20 DUP3 ADD MSTORE POP JUMP JUMPDEST PUSH0 PUSH2 0x1917 PUSH1 0x25 DUP4 PUSH2 0xDBD JUMP JUMPDEST SWAP2 POP PUSH2 0x1922 DUP3 PUSH2 0x18BD JUMP JUMPDEST PUSH1 0x40 DUP3 ADD SWAP1 POP SWAP2 SWAP1 POP JUMP JUMPDEST PUSH0 PUSH1 0x20 DUP3 ADD SWAP1 POP DUP2 DUP2 SUB PUSH0 DUP4 ADD MSTORE PUSH2 0x1944 DUP2 PUSH2 0x190B JUMP JUMPDEST SWAP1 POP SWAP2 SWAP1 POP JUMP INVALID LOG2 PUSH5 0x6970667358 0x22 SLT KECCAK256 DUP7 0xD5 PUSH18 0xFC1AE58796C0BC85B1ADAA50D2D62D6E8E15 0xAB DUP10 0xA6 SWAP6 0xD SHR PUSH1 0x51 BLOBBASEFEE PUSH9 0xDC64736F6C63430008 BYTE STOP CALLER "
				},
				"gasEstimates": {
					"creation": {
						"codeDepositCost": "1305800",
						"executionCost": "infinite",
						"totalCost": "infinite"
					},
					"external": {
						"deposit(uint256)": "infinite",
						"fee()": "2535",
						"getBalance()": "4793",
						"getContractBalance()": "356",
						"owner()": "2552",
						"register(string,string)": "infinite",
						"treasury()": "2508",
						"treasuryBalance()": "2492",
						"users(address)": "infinite",
						"withdraw(uint256)": "infinite",
						"withdrawTreasury(uint256)": "infinite"
					}
				},
				"methodIdentifiers": {
					"deposit(uint256)": "b6b55f25",
					"fee()": "ddca3f43",
					"getBalance()": "12065fe0",
					"getContractBalance()": "6f9fb98a",
					"owner()": "8da5cb5b",
					"register(string,string)": "3ffbd47f",
					"treasury()": "61d027b3",
					"treasuryBalance()": "313dab20",
					"users(address)": "a87430ba",
					"withdraw(uint256)": "2e1a7d4d",
					"withdrawTreasury(uint256)": "11f1fc99"
				}
			},
			"storageLayout": {
				"storage": [
					{
						"astId": 16,
						"contract": "SimpleBank.sol:SimpleBank",
						"label": "users",
						"offset": 0,
						"slot": "0",
						"type": "t_mapping(t_address,t_struct(User)11_storage)"
					},
					{
						"astId": 18,
						"contract": "SimpleBank.sol:SimpleBank",
						"label": "owner",
						"offset": 0,
						"slot": "1",
						"type": "t_address"
					},
					{
						"astId": 20,
						"contract": "SimpleBank.sol:SimpleBank",
						"label": "treasury",
						"offset": 0,
						"slot": "2",
						"type": "t_address"
					},
					{
						"astId": 22,
						"contract": "SimpleBank.sol:SimpleBank",
						"label": "fee",
						"offset": 0,
						"slot": "3",
						"type": "t_uint256"
					},
					{
						"astId": 24,
						"contract": "SimpleBank.sol:SimpleBank",
						"label": "treasuryBalance",
						"offset": 0,
						"slot": "4",
						"type": "t_uint256"
					}
				],
				"types": {
					"t_address": {
						"encoding": "inplace",
						"label": "address",
						"numberOfBytes": "20"
					},
					"t_bool": {
						"encoding": "inplace",
						"label": "bool",
						"numberOfBytes": "1"
					},
					"t_mapping(t_address,t_struct(User)11_storage)": {
						"encoding": "mapping",
						"key": "t_address",
						"label": "mapping(address => struct SimpleBank.User)",
						"numberOfBytes": "32",
						"value": "t_struct(User)11_storage"
					},
					"t_string_storage": {
						"encoding": "bytes",
						"label": "string",
						"numberOfBytes": "32"
					},
					"t_struct(User)11_storage": {
						"encoding": "inplace",
						"label": "struct SimpleBank.User",
						"members": [
							{
								"astId": 4,
								"contract": "SimpleBank.sol:SimpleBank",
								"label": "firstName",
								"offset": 0,
								"slot": "0",
								"type": "t_string_storage"
							},
							{
								"astId": 6,
								"contract": "SimpleBank.sol:SimpleBank",
								"label": "lastName",
								"offset": 0,
								"slot": "1",
								"type": "t_string_storage"
							},
							{
								"astId": 8,
								"contract": "SimpleBank.sol:SimpleBank",
								"label": "balance",
								"offset": 0,
								"slot": "2",
								"type": "t_uint256"
							},
							{
								"astId": 10,
								"contract": "SimpleBank.sol:SimpleBank",
								"label": "isRegistered",
								"offset": 0,
								"slot": "3",
								"type": "t_bool"
							}
						],
						"numberOfBytes": "128"
					},
					"t_uint256": {
						"encoding": "inplace",
						"label": "uint256",
						"numberOfBytes": "32"
					}
				}
			},
			"userdoc": {
				"kind": "user",
				"methods": {},
				"version": 1
			}
		}
	}
}