{
	"Whitelisting.sol": {
		"Whitelisting": {
			"abi": [
				{
					"stateMutability": "payable",
					"type": "fallback"
				},
				{
					"inputs": [],
					"name": "counter",
					"outputs": [
						{
							"internalType": "uint256",
							"name": "",
							"type": "uint256"
						}
					],
					"stateMutability": "view",
					"type": "function"
				},
				{
					"inputs": [],
					"name": "fallbackCounter",
					"outputs": [
						{
							"internalType": "uint256",
							"name": "",
							"type": "uint256"
						}
					],
					"stateMutability": "view",
					"type": "function"
				},
				{
					"inputs": [],
					"name": "incCounter",
					"outputs": [],
					"stateMutability": "nonpayable",
					"type": "function"
				},
				{
					"inputs": [],
					"name": "receiveCounter",
					"outputs": [
						{
							"internalType": "uint256",
							"name": "",
							"type": "uint256"
						}
					],
					"stateMutability": "view",
					"type": "function"
				},
				{
					"inputs": [
						{
							"internalType": "address",
							"name": "_addr",
							"type": "address"
						}
					],
					"name": "setWhitelist",
					"outputs": [],
					"stateMutability": "nonpayable",
					"type": "function"
				},
				{
					"inputs": [
						{
							"internalType": "address",
							"name": "",
							"type": "address"
						}
					],
					"name": "whitelist",
					"outputs": [
						{
							"internalType": "bool",
							"name": "",
							"type": "bool"
						}
					],
					"stateMutability": "view",
					"type": "function"
				},
				{
					"inputs": [],
					"name": "withdraw",
					"outputs": [],
					"stateMutability": "nonpayable",
					"type": "function"
				},
				{
					"stateMutability": "payable",
					"type": "receive"
				}
			],
			"devdoc": {
				"kind": "dev",
				"methods": {},
				"version": 1
			},
			"evm": {
				"assembly": "    /* \"Whitelisting.sol\":59:864  contract Whitelisting {... */\n  mstore(0x40, 0x80)\n  callvalue\n  dup1\n  iszero\n  tag_1\n  jumpi\n  0x00\n  dup1\n  revert\ntag_1:\n  pop\n  dataSize(sub_0)\n  dup1\n  dataOffset(sub_0)\n  0x00\n  codecopy\n  0x00\n  return\nstop\n\nsub_0: assembly {\n        /* \"Whitelisting.sol\":59:864  contract Whitelisting {... */\n      mstore(0x40, 0x80)\n      jumpi(tag_1, lt(calldatasize, 0x04))\n      shr(0xe0, calldataload(0x00))\n      dup1\n      0x854cff2f\n      gt\n      tag_10\n      jumpi\n      dup1\n      0x854cff2f\n      eq\n      tag_6\n      jumpi\n      dup1\n      0x9b19251a\n      eq\n      tag_7\n      jumpi\n      dup1\n      0xa170d737\n      eq\n      tag_8\n      jumpi\n      dup1\n      0xc3ca5ffe\n      eq\n      tag_9\n      jumpi\n      jump(tag_2)\n    tag_10:\n      dup1\n      0x22aacad5\n      eq\n      tag_3\n      jumpi\n      dup1\n      0x3ccfd60b\n      eq\n      tag_4\n      jumpi\n      dup1\n      0x61bc221a\n      eq\n      tag_5\n      jumpi\n      jump(tag_2)\n    tag_1:\n      jumpi(tag_2, calldatasize)\n        /* \"Whitelisting.sol\":575:589  receiveCounter */\n      0x02\n      0x00\n        /* \"Whitelisting.sol\":575:591  receiveCounter++ */\n      dup2\n      sload\n      dup1\n      swap3\n      swap2\n      swap1\n      tag_13\n      swap1\n      tag_14\n      jump\t// in\n    tag_13:\n      swap2\n      swap1\n      pop\n      sstore\n      stop\n        /* \"Whitelisting.sol\":59:864  contract Whitelisting {... */\n    tag_2:\n        /* \"Whitelisting.sol\":646:661  fallbackCounter */\n      0x03\n      0x00\n        /* \"Whitelisting.sol\":646:663  fallbackCounter++ */\n      dup2\n      sload\n      dup1\n      swap3\n      swap2\n      swap1\n      tag_17\n      swap1\n      tag_14\n      jump\t// in\n    tag_17:\n      swap2\n      swap1\n      pop\n      sstore\n      stop\n        /* \"Whitelisting.sol\":361:434  function incCounter() public onlyWhitelisted {... */\n    tag_3:\n      callvalue\n      dup1\n      iszero\n      tag_18\n      jumpi\n      0x00\n      dup1\n      revert\n    tag_18:\n      pop\n      tag_19\n      tag_20\n      jump\t// in\n    tag_19:\n      stop\n        /* \"Whitelisting.sol\":681:859  function withdraw() external {... */\n    tag_4:\n      callvalue\n      dup1\n      iszero\n      tag_21\n      jumpi\n      0x00\n      dup1\n      revert\n    tag_21:\n      pop\n      tag_22\n      tag_23\n      jump\t// in\n    tag_22:\n      stop\n        /* \"Whitelisting.sol\":136:158  uint256 public counter */\n    tag_5:\n      callvalue\n      dup1\n      iszero\n      tag_24\n      jumpi\n      0x00\n      dup1\n      revert\n    tag_24:\n      pop\n      tag_25\n      tag_26\n      jump\t// in\n    tag_25:\n      mload(0x40)\n      tag_27\n      swap2\n      swap1\n      tag_28\n      jump\t// in\n    tag_27:\n      mload(0x40)\n      dup1\n      swap2\n      sub\n      swap1\n      return\n        /* \"Whitelisting.sol\":442:528  function setWhitelist(address _addr) public {... */\n    tag_6:\n      callvalue\n      dup1\n      iszero\n      tag_29\n      jumpi\n      0x00\n      dup1\n      revert\n    tag_29:\n      pop\n      tag_30\n      0x04\n      dup1\n      calldatasize\n      sub\n      dup2\n      add\n      swap1\n      tag_31\n      swap2\n      swap1\n      tag_32\n      jump\t// in\n    tag_31:\n      tag_33\n      jump\t// in\n    tag_30:\n      stop\n        /* \"Whitelisting.sol\":88:129  mapping(address => bool) public whitelist */\n    tag_7:\n      callvalue\n      dup1\n      iszero\n      tag_34\n      jumpi\n      0x00\n      dup1\n      revert\n    tag_34:\n      pop\n      tag_35\n      0x04\n      dup1\n      calldatasize\n      sub\n      dup2\n      add\n      swap1\n      tag_36\n      swap2\n      swap1\n      tag_32\n      jump\t// in\n    tag_36:\n      tag_37\n      jump\t// in\n    tag_35:\n      mload(0x40)\n      tag_38\n      swap2\n      swap1\n      tag_39\n      jump\t// in\n    tag_38:\n      mload(0x40)\n      dup1\n      swap2\n      sub\n      swap1\n      return\n        /* \"Whitelisting.sol\":201:231  uint256 public fallbackCounter */\n    tag_8:\n      callvalue\n      dup1\n      iszero\n      tag_40\n      jumpi\n      0x00\n      dup1\n      revert\n    tag_40:\n      pop\n      tag_41\n      tag_42\n      jump\t// in\n    tag_41:\n      mload(0x40)\n      tag_43\n      swap2\n      swap1\n      tag_28\n      jump\t// in\n    tag_43:\n      mload(0x40)\n      dup1\n      swap2\n      sub\n      swap1\n      return\n        /* \"Whitelisting.sol\":165:194  uint256 public receiveCounter */\n    tag_9:\n      callvalue\n      dup1\n      iszero\n      tag_44\n      jumpi\n      0x00\n      dup1\n      revert\n    tag_44:\n      pop\n      tag_45\n      tag_46\n      jump\t// in\n    tag_45:\n      mload(0x40)\n      tag_47\n      swap2\n      swap1\n      tag_28\n      jump\t// in\n    tag_47:\n      mload(0x40)\n      dup1\n      swap2\n      sub\n      swap1\n      return\n        /* \"Whitelisting.sol\":361:434  function incCounter() public onlyWhitelisted {... */\n    tag_20:\n        /* \"Whitelisting.sol\":286:295  whitelist */\n      0x00\n        /* \"Whitelisting.sol\":286:307  whitelist[msg.sender] */\n      dup1\n        /* \"Whitelisting.sol\":296:306  msg.sender */\n      caller\n        /* \"Whitelisting.sol\":286:307  whitelist[msg.sender] */\n      0xffffffffffffffffffffffffffffffffffffffff\n      and\n      0xffffffffffffffffffffffffffffffffffffffff\n      and\n      dup2\n      mstore\n      0x20\n      add\n      swap1\n      dup2\n      mstore\n      0x20\n      add\n      0x00\n      keccak256\n      0x00\n      swap1\n      sload\n      swap1\n      0x0100\n      exp\n      swap1\n      div\n      0xff\n      and\n        /* \"Whitelisting.sol\":278:333  require(whitelist[msg.sender],\"No estas whitelisteado\") */\n      tag_49\n      jumpi\n      mload(0x40)\n      0x08c379a000000000000000000000000000000000000000000000000000000000\n      dup2\n      mstore\n      0x04\n      add\n      tag_50\n      swap1\n      tag_51\n      jump\t// in\n    tag_50:\n      mload(0x40)\n      dup1\n      swap2\n      sub\n      swap1\n      revert\n    tag_49:\n        /* \"Whitelisting.sol\":417:424  counter */\n      0x01\n      0x00\n        /* \"Whitelisting.sol\":417:426  counter++ */\n      dup2\n      sload\n      dup1\n      swap3\n      swap2\n      swap1\n      tag_53\n      swap1\n      tag_14\n      jump\t// in\n    tag_53:\n      swap2\n      swap1\n      pop\n      sstore\n      pop\n        /* \"Whitelisting.sol\":361:434  function incCounter() public onlyWhitelisted {... */\n      jump\t// out\n        /* \"Whitelisting.sol\":681:859  function withdraw() external {... */\n    tag_23:\n        /* \"Whitelisting.sol\":721:738  address _contrato */\n      0x00\n        /* \"Whitelisting.sol\":749:753  this */\n      address\n        /* \"Whitelisting.sol\":721:754  address _contrato = address(this) */\n      swap1\n      pop\n        /* \"Whitelisting.sol\":765:781  uint256 _balance */\n      0x00\n        /* \"Whitelisting.sol\":784:793  _contrato */\n      dup2\n        /* \"Whitelisting.sol\":784:801  _contrato.balance */\n      0xffffffffffffffffffffffffffffffffffffffff\n      and\n      balance\n        /* \"Whitelisting.sol\":765:801  uint256 _balance = _contrato.balance */\n      swap1\n      pop\n        /* \"Whitelisting.sol\":820:830  msg.sender */\n      caller\n        /* \"Whitelisting.sol\":812:840  payable(msg.sender).transfer */\n      0xffffffffffffffffffffffffffffffffffffffff\n      and\n        /* \"Whitelisting.sol\":812:850  payable(msg.sender).transfer(_balance) */\n      0x08fc\n        /* \"Whitelisting.sol\":841:849  _balance */\n      dup3\n        /* \"Whitelisting.sol\":812:850  payable(msg.sender).transfer(_balance) */\n      swap1\n      dup2\n      iszero\n      mul\n      swap1\n      mload(0x40)\n      0x00\n      mload(0x40)\n      dup1\n      dup4\n      sub\n      dup2\n      dup6\n      dup9\n      dup9\n      call\n      swap4\n      pop\n      pop\n      pop\n      pop\n      iszero\n      dup1\n      iszero\n      tag_56\n      jumpi\n      returndatasize\n      0x00\n      dup1\n      returndatacopy\n      revert(0x00, returndatasize)\n    tag_56:\n      pop\n        /* \"Whitelisting.sol\":710:859  {... */\n      pop\n      pop\n        /* \"Whitelisting.sol\":681:859  function withdraw() external {... */\n      jump\t// out\n        /* \"Whitelisting.sol\":136:158  uint256 public counter */\n    tag_26:\n      sload(0x01)\n      dup2\n      jump\t// out\n        /* \"Whitelisting.sol\":442:528  function setWhitelist(address _addr) public {... */\n    tag_33:\n        /* \"Whitelisting.sol\":516:520  true */\n      0x01\n        /* \"Whitelisting.sol\":497:506  whitelist */\n      0x00\n        /* \"Whitelisting.sol\":497:513  whitelist[_addr] */\n      dup1\n        /* \"Whitelisting.sol\":507:512  _addr */\n      dup4\n        /* \"Whitelisting.sol\":497:513  whitelist[_addr] */\n      0xffffffffffffffffffffffffffffffffffffffff\n      and\n      0xffffffffffffffffffffffffffffffffffffffff\n      and\n      dup2\n      mstore\n      0x20\n      add\n      swap1\n      dup2\n      mstore\n      0x20\n      add\n      0x00\n      keccak256\n      0x00\n        /* \"Whitelisting.sol\":497:520  whitelist[_addr] = true */\n      0x0100\n      exp\n      dup2\n      sload\n      dup2\n      0xff\n      mul\n      not\n      and\n      swap1\n      dup4\n      iszero\n      iszero\n      mul\n      or\n      swap1\n      sstore\n      pop\n        /* \"Whitelisting.sol\":442:528  function setWhitelist(address _addr) public {... */\n      pop\n      jump\t// out\n        /* \"Whitelisting.sol\":88:129  mapping(address => bool) public whitelist */\n    tag_37:\n      mstore(0x20, 0x00)\n      dup1\n      0x00\n      mstore\n      keccak256(0x00, 0x40)\n      0x00\n      swap2\n      pop\n      sload\n      swap1\n      0x0100\n      exp\n      swap1\n      div\n      0xff\n      and\n      dup2\n      jump\t// out\n        /* \"Whitelisting.sol\":201:231  uint256 public fallbackCounter */\n    tag_42:\n      sload(0x03)\n      dup2\n      jump\t// out\n        /* \"Whitelisting.sol\":165:194  uint256 public receiveCounter */\n    tag_46:\n      sload(0x02)\n      dup2\n      jump\t// out\n        /* \"#utility.yul\":7:187   */\n    tag_58:\n        /* \"#utility.yul\":55:132   */\n      0x4e487b7100000000000000000000000000000000000000000000000000000000\n        /* \"#utility.yul\":52:53   */\n      0x00\n        /* \"#utility.yul\":45:133   */\n      mstore\n        /* \"#utility.yul\":152:156   */\n      0x11\n        /* \"#utility.yul\":149:150   */\n      0x04\n        /* \"#utility.yul\":142:157   */\n      mstore\n        /* \"#utility.yul\":176:180   */\n      0x24\n        /* \"#utility.yul\":173:174   */\n      0x00\n        /* \"#utility.yul\":166:181   */\n      revert\n        /* \"#utility.yul\":193:270   */\n    tag_59:\n        /* \"#utility.yul\":230:237   */\n      0x00\n        /* \"#utility.yul\":259:264   */\n      dup2\n        /* \"#utility.yul\":248:264   */\n      swap1\n      pop\n        /* \"#utility.yul\":193:270   */\n      swap2\n      swap1\n      pop\n      jump\t// out\n        /* \"#utility.yul\":276:509   */\n    tag_14:\n        /* \"#utility.yul\":315:318   */\n      0x00\n        /* \"#utility.yul\":338:362   */\n      tag_77\n        /* \"#utility.yul\":356:361   */\n      dup3\n        /* \"#utility.yul\":338:362   */\n      tag_59\n      jump\t// in\n    tag_77:\n        /* \"#utility.yul\":329:362   */\n      swap2\n      pop\n        /* \"#utility.yul\":384:450   */\n      0xffffffffffffffffffffffffffffffffffffffffffffffffffffffffffffffff\n        /* \"#utility.yul\":377:382   */\n      dup3\n        /* \"#utility.yul\":374:451   */\n      sub\n        /* \"#utility.yul\":371:474   */\n      tag_78\n      jumpi\n        /* \"#utility.yul\":454:472   */\n      tag_79\n      tag_58\n      jump\t// in\n    tag_79:\n        /* \"#utility.yul\":371:474   */\n    tag_78:\n        /* \"#utility.yul\":501:502   */\n      0x01\n        /* \"#utility.yul\":494:499   */\n      dup3\n        /* \"#utility.yul\":490:503   */\n      add\n        /* \"#utility.yul\":483:503   */\n      swap1\n      pop\n        /* \"#utility.yul\":276:509   */\n      swap2\n      swap1\n      pop\n      jump\t// out\n        /* \"#utility.yul\":515:633   */\n    tag_60:\n        /* \"#utility.yul\":602:626   */\n      tag_81\n        /* \"#utility.yul\":620:625   */\n      dup2\n        /* \"#utility.yul\":602:626   */\n      tag_59\n      jump\t// in\n    tag_81:\n        /* \"#utility.yul\":597:600   */\n      dup3\n        /* \"#utility.yul\":590:627   */\n      mstore\n        /* \"#utility.yul\":515:633   */\n      pop\n      pop\n      jump\t// out\n        /* \"#utility.yul\":639:861   */\n    tag_28:\n        /* \"#utility.yul\":732:736   */\n      0x00\n        /* \"#utility.yul\":770:772   */\n      0x20\n        /* \"#utility.yul\":759:768   */\n      dup3\n        /* \"#utility.yul\":755:773   */\n      add\n        /* \"#utility.yul\":747:773   */\n      swap1\n      pop\n        /* \"#utility.yul\":783:854   */\n      tag_83\n        /* \"#utility.yul\":851:852   */\n      0x00\n        /* \"#utility.yul\":840:849   */\n      dup4\n        /* \"#utility.yul\":836:853   */\n      add\n        /* \"#utility.yul\":827:833   */\n      dup5\n        /* \"#utility.yul\":783:854   */\n      tag_60\n      jump\t// in\n    tag_83:\n        /* \"#utility.yul\":639:861   */\n      swap3\n      swap2\n      pop\n      pop\n      jump\t// out\n        /* \"#utility.yul\":948:1065   */\n    tag_62:\n        /* \"#utility.yul\":1057:1058   */\n      0x00\n        /* \"#utility.yul\":1054:1055   */\n      dup1\n        /* \"#utility.yul\":1047:1059   */\n      revert\n        /* \"#utility.yul\":1194:1320   */\n    tag_64:\n        /* \"#utility.yul\":1231:1238   */\n      0x00\n        /* \"#utility.yul\":1271:1313   */\n      0xffffffffffffffffffffffffffffffffffffffff\n        /* \"#utility.yul\":1264:1269   */\n      dup3\n        /* \"#utility.yul\":1260:1314   */\n      and\n        /* \"#utility.yul\":1249:1314   */\n      swap1\n      pop\n        /* \"#utility.yul\":1194:1320   */\n      swap2\n      swap1\n      pop\n      jump\t// out\n        /* \"#utility.yul\":1326:1422   */\n    tag_65:\n        /* \"#utility.yul\":1363:1370   */\n      0x00\n        /* \"#utility.yul\":1392:1416   */\n      tag_89\n        /* \"#utility.yul\":1410:1415   */\n      dup3\n        /* \"#utility.yul\":1392:1416   */\n      tag_64\n      jump\t// in\n    tag_89:\n        /* \"#utility.yul\":1381:1416   */\n      swap1\n      pop\n        /* \"#utility.yul\":1326:1422   */\n      swap2\n      swap1\n      pop\n      jump\t// out\n        /* \"#utility.yul\":1428:1550   */\n    tag_66:\n        /* \"#utility.yul\":1501:1525   */\n      tag_91\n        /* \"#utility.yul\":1519:1524   */\n      dup2\n        /* \"#utility.yul\":1501:1525   */\n      tag_65\n      jump\t// in\n    tag_91:\n        /* \"#utility.yul\":1494:1499   */\n      dup2\n        /* \"#utility.yul\":1491:1526   */\n      eq\n        /* \"#utility.yul\":1481:1544   */\n      tag_92\n      jumpi\n        /* \"#utility.yul\":1540:1541   */\n      0x00\n        /* \"#utility.yul\":1537:1538   */\n      dup1\n        /* \"#utility.yul\":1530:1542   */\n      revert\n        /* \"#utility.yul\":1481:1544   */\n    tag_92:\n        /* \"#utility.yul\":1428:1550   */\n      pop\n      jump\t// out\n        /* \"#utility.yul\":1556:1695   */\n    tag_67:\n        /* \"#utility.yul\":1602:1607   */\n      0x00\n        /* \"#utility.yul\":1640:1646   */\n      dup2\n        /* \"#utility.yul\":1627:1647   */\n      calldataload\n        /* \"#utility.yul\":1618:1647   */\n      swap1\n      pop\n        /* \"#utility.yul\":1656:1689   */\n      tag_94\n        /* \"#utility.yul\":1683:1688   */\n      dup2\n        /* \"#utility.yul\":1656:1689   */\n      tag_66\n      jump\t// in\n    tag_94:\n        /* \"#utility.yul\":1556:1695   */\n      swap3\n      swap2\n      pop\n      pop\n      jump\t// out\n        /* \"#utility.yul\":1701:2030   */\n    tag_32:\n        /* \"#utility.yul\":1760:1766   */\n      0x00\n        /* \"#utility.yul\":1809:1811   */\n      0x20\n        /* \"#utility.yul\":1797:1806   */\n      dup3\n        /* \"#utility.yul\":1788:1795   */\n      dup5\n        /* \"#utility.yul\":1784:1807   */\n      sub\n        /* \"#utility.yul\":1780:1812   */\n      slt\n        /* \"#utility.yul\":1777:1896   */\n      iszero\n      tag_96\n      jumpi\n        /* \"#utility.yul\":1815:1894   */\n      tag_97\n      tag_62\n      jump\t// in\n    tag_97:\n        /* \"#utility.yul\":1777:1896   */\n    tag_96:\n        /* \"#utility.yul\":1935:1936   */\n      0x00\n        /* \"#utility.yul\":1960:2013   */\n      tag_98\n        /* \"#utility.yul\":2005:2012   */\n      dup5\n        /* \"#utility.yul\":1996:2002   */\n      dup3\n        /* \"#utility.yul\":1985:1994   */\n      dup6\n        /* \"#utility.yul\":1981:2003   */\n      add\n        /* \"#utility.yul\":1960:2013   */\n      tag_67\n      jump\t// in\n    tag_98:\n        /* \"#utility.yul\":1950:2013   */\n      swap2\n      pop\n        /* \"#utility.yul\":1906:2023   */\n      pop\n        /* \"#utility.yul\":1701:2030   */\n      swap3\n      swap2\n      pop\n      pop\n      jump\t// out\n        /* \"#utility.yul\":2036:2126   */\n    tag_68:\n        /* \"#utility.yul\":2070:2077   */\n      0x00\n        /* \"#utility.yul\":2113:2118   */\n      dup2\n        /* \"#utility.yul\":2106:2119   */\n      iszero\n        /* \"#utility.yul\":2099:2120   */\n      iszero\n        /* \"#utility.yul\":2088:2120   */\n      swap1\n      pop\n        /* \"#utility.yul\":2036:2126   */\n      swap2\n      swap1\n      pop\n      jump\t// out\n        /* \"#utility.yul\":2132:2241   */\n    tag_69:\n        /* \"#utility.yul\":2213:2234   */\n      tag_101\n        /* \"#utility.yul\":2228:2233   */\n      dup2\n        /* \"#utility.yul\":2213:2234   */\n      tag_68\n      jump\t// in\n    tag_101:\n        /* \"#utility.yul\":2208:2211   */\n      dup3\n        /* \"#utility.yul\":2201:2235   */\n      mstore\n        /* \"#utility.yul\":2132:2241   */\n      pop\n      pop\n      jump\t// out\n        /* \"#utility.yul\":2247:2457   */\n    tag_39:\n        /* \"#utility.yul\":2334:2338   */\n      0x00\n        /* \"#utility.yul\":2372:2374   */\n      0x20\n        /* \"#utility.yul\":2361:2370   */\n      dup3\n        /* \"#utility.yul\":2357:2375   */\n      add\n        /* \"#utility.yul\":2349:2375   */\n      swap1\n      pop\n        /* \"#utility.yul\":2385:2450   */\n      tag_103\n        /* \"#utility.yul\":2447:2448   */\n      0x00\n        /* \"#utility.yul\":2436:2445   */\n      dup4\n        /* \"#utility.yul\":2432:2449   */\n      add\n        /* \"#utility.yul\":2423:2429   */\n      dup5\n        /* \"#utility.yul\":2385:2450   */\n      tag_69\n      jump\t// in\n    tag_103:\n        /* \"#utility.yul\":2247:2457   */\n      swap3\n      swap2\n      pop\n      pop\n      jump\t// out\n        /* \"#utility.yul\":2463:2632   */\n    tag_70:\n        /* \"#utility.yul\":2547:2558   */\n      0x00\n        /* \"#utility.yul\":2581:2587   */\n      dup3\n        /* \"#utility.yul\":2576:2579   */\n      dup3\n        /* \"#utility.yul\":2569:2588   */\n      mstore\n        /* \"#utility.yul\":2621:2625   */\n      0x20\n        /* \"#utility.yul\":2616:2619   */\n      dup3\n        /* \"#utility.yul\":2612:2626   */\n      add\n        /* \"#utility.yul\":2597:2626   */\n      swap1\n      pop\n        /* \"#utility.yul\":2463:2632   */\n      swap3\n      swap2\n      pop\n      pop\n      jump\t// out\n        /* \"#utility.yul\":2638:2810   */\n    tag_71:\n        /* \"#utility.yul\":2778:2802   */\n      0x4e6f2065737461732077686974656c6973746561646f00000000000000000000\n        /* \"#utility.yul\":2774:2775   */\n      0x00\n        /* \"#utility.yul\":2766:2772   */\n      dup3\n        /* \"#utility.yul\":2762:2776   */\n      add\n        /* \"#utility.yul\":2755:2803   */\n      mstore\n        /* \"#utility.yul\":2638:2810   */\n      pop\n      jump\t// out\n        /* \"#utility.yul\":2816:3182   */\n    tag_72:\n        /* \"#utility.yul\":2958:2961   */\n      0x00\n        /* \"#utility.yul\":2979:3046   */\n      tag_107\n        /* \"#utility.yul\":3043:3045   */\n      0x16\n        /* \"#utility.yul\":3038:3041   */\n      dup4\n        /* \"#utility.yul\":2979:3046   */\n      tag_70\n      jump\t// in\n    tag_107:\n        /* \"#utility.yul\":2972:3046   */\n      swap2\n      pop\n        /* \"#utility.yul\":3055:3148   */\n      tag_108\n        /* \"#utility.yul\":3144:3147   */\n      dup3\n        /* \"#utility.yul\":3055:3148   */\n      tag_71\n      jump\t// in\n    tag_108:\n        /* \"#utility.yul\":3173:3175   */\n      0x20\n        /* \"#utility.yul\":3168:3171   */\n      dup3\n        /* \"#utility.yul\":3164:3176   */\n      add\n        /* \"#utility.yul\":3157:3176   */\n      swap1\n      pop\n        /* \"#utility.yul\":2816:3182   */\n      swap2\n      swap1\n      pop\n      jump\t// out\n        /* \"#utility.yul\":3188:3607   */\n    tag_51:\n        /* \"#utility.yul\":3354:3358   */\n      0x00\n        /* \"#utility.yul\":3392:3394   */\n      0x20\n        /* \"#utility.yul\":3381:3390   */\n      dup3\n        /* \"#utility.yul\":3377:3395   */\n      add\n        /* \"#utility.yul\":3369:3395   */\n      swap1\n      pop\n        /* \"#utility.yul\":3441:3450   */\n      dup2\n        /* \"#utility.yul\":3435:3439   */\n      dup2\n        /* \"#utility.yul\":3431:3451   */\n      sub\n        /* \"#utility.yul\":3427:3428   */\n      0x00\n        /* \"#utility.yul\":3416:3425   */\n      dup4\n        /* \"#utility.yul\":3412:3429   */\n      add\n        /* \"#utility.yul\":3405:3452   */\n      mstore\n        /* \"#utility.yul\":3469:3600   */\n      tag_110\n        /* \"#utility.yul\":3595:3599   */\n      dup2\n        /* \"#utility.yul\":3469:3600   */\n      tag_72\n      jump\t// in\n    tag_110:\n        /* \"#utility.yul\":3461:3600   */\n      swap1\n      pop\n        /* \"#utility.yul\":3188:3607   */\n      swap2\n      swap1\n      pop\n      jump\t// out\n\n    auxdata: 0xa264697066735822122078dff68f76607cd41042b3f75e3aa7178d34961100003a83559baba647f0e80164736f6c634300081a0033\n}\n",
				"bytecode": {
					"linkReferences": {},
					"object": "6080604052348015600e575f80fd5b506105528061001c5f395ff3fe608060405260043610610073575f3560e01c8063854cff2f1161004d578063854cff2f146100fe5780639b19251a14610126578063a170d73714610162578063c3ca5ffe1461018c57610090565b806322aacad5146100a85780633ccfd60b146100be57806361bc221a146100d457610090565b366100905760025f81548092919061008a90610379565b91905055005b60035f8154809291906100a290610379565b91905055005b3480156100b3575f80fd5b506100bc6101b6565b005b3480156100c9575f80fd5b506100d2610257565b005b3480156100df575f80fd5b506100e86102be565b6040516100f591906103cf565b60405180910390f35b348015610109575f80fd5b50610124600480360381019061011f9190610446565b6102c4565b005b348015610131575f80fd5b5061014c60048036038101906101479190610446565b61031b565b604051610159919061048b565b60405180910390f35b34801561016d575f80fd5b50610176610337565b60405161018391906103cf565b60405180910390f35b348015610197575f80fd5b506101a061033d565b6040516101ad91906103cf565b60405180910390f35b5f803373ffffffffffffffffffffffffffffffffffffffff1673ffffffffffffffffffffffffffffffffffffffff1681526020019081526020015f205f9054906101000a900460ff1661023e576040517f08c379a0000000000000000000000000000000000000000000000000000000008152600401610235906104fe565b60405180910390fd5b60015f81548092919061025090610379565b9190505550565b5f3090505f8173ffffffffffffffffffffffffffffffffffffffff163190503373ffffffffffffffffffffffffffffffffffffffff166108fc8290811502906040515f60405180830381858888f193505050501580156102b9573d5f803e3d5ffd5b505050565b60015481565b60015f808373ffffffffffffffffffffffffffffffffffffffff1673ffffffffffffffffffffffffffffffffffffffff1681526020019081526020015f205f6101000a81548160ff02191690831515021790555050565b5f602052805f5260405f205f915054906101000a900460ff1681565b60035481565b60025481565b7f4e487b71000000000000000000000000000000000000000000000000000000005f52601160045260245ffd5b5f819050919050565b5f61038382610370565b91507fffffffffffffffffffffffffffffffffffffffffffffffffffffffffffffffff82036103b5576103b4610343565b5b600182019050919050565b6103c981610370565b82525050565b5f6020820190506103e25f8301846103c0565b92915050565b5f80fd5b5f73ffffffffffffffffffffffffffffffffffffffff82169050919050565b5f610415826103ec565b9050919050565b6104258161040b565b811461042f575f80fd5b50565b5f813590506104408161041c565b92915050565b5f6020828403121561045b5761045a6103e8565b5b5f61046884828501610432565b91505092915050565b5f8115159050919050565b61048581610471565b82525050565b5f60208201905061049e5f83018461047c565b92915050565b5f82825260208201905092915050565b7f4e6f2065737461732077686974656c6973746561646f000000000000000000005f82015250565b5f6104e86016836104a4565b91506104f3826104b4565b602082019050919050565b5f6020820190508181035f830152610515816104dc565b905091905056fea264697066735822122078dff68f76607cd41042b3f75e3aa7178d34961100003a83559baba647f0e80164736f6c634300081a0033",
					"opcodes": "PUSH1 0x80 PUSH1 0x40 MSTORE CALLVALUE DUP1 ISZERO PUSH1 0xE JUMPI PUSH0 DUP1 REVERT JUMPDEST POP PUSH2 0x552 DUP1 PUSH2 0x1C PUSH0 CODECOPY PUSH0 RETURN INVALID PUSH1 0x80 PUSH1 0x40 MSTORE PUSH1 0x4 CALLDATASIZE LT PUSH2 0x73 JUMPI PUSH0 CALLDATALOAD PUSH1 0xE0 SHR DUP1 PUSH4 0x854CFF2F GT PUSH2 0x4D JUMPI DUP1 PUSH4 0x854CFF2F EQ PUSH2 0xFE JUMPI DUP1 PUSH4 0x9B19251A EQ PUSH2 0x126 JUMPI DUP1 PUSH4 0xA170D737 EQ PUSH2 0x162 JUMPI DUP1 PUSH4 0xC3CA5FFE EQ PUSH2 0x18C JUMPI PUSH2 0x90 JUMP JUMPDEST DUP1 PUSH4 0x22AACAD5 EQ PUSH2 0xA8 JUMPI DUP1 PUSH4 0x3CCFD60B EQ PUSH2 0xBE JUMPI DUP1 PUSH4 0x61BC221A EQ PUSH2 0xD4 JUMPI PUSH2 0x90 JUMP JUMPDEST CALLDATASIZE PUSH2 0x90 JUMPI PUSH1 0x2 PUSH0 DUP2 SLOAD DUP1 SWAP3 SWAP2 SWAP1 PUSH2 0x8A SWAP1 PUSH2 0x379 JUMP JUMPDEST SWAP2 SWAP1 POP SSTORE STOP JUMPDEST PUSH1 0x3 PUSH0 DUP2 SLOAD DUP1 SWAP3 SWAP2 SWAP1 PUSH2 0xA2 SWAP1 PUSH2 0x379 JUMP JUMPDEST SWAP2 SWAP1 POP SSTORE STOP JUMPDEST CALLVALUE DUP1 ISZERO PUSH2 0xB3 JUMPI PUSH0 DUP1 REVERT JUMPDEST POP PUSH2 0xBC PUSH2 0x1B6 JUMP JUMPDEST STOP JUMPDEST CALLVALUE DUP1 ISZERO PUSH2 0xC9 JUMPI PUSH0 DUP1 REVERT JUMPDEST POP PUSH2 0xD2 PUSH2 0x257 JUMP JUMPDEST STOP JUMPDEST CALLVALUE DUP1 ISZERO PUSH2 0xDF JUMPI PUSH0 DUP1 REVERT JUMPDEST POP PUSH2 0xE8 PUSH2 0x2BE JUMP JUMPDEST PUSH1 0x40 MLOAD PUSH2 0xF5 SWAP2 SWAP1 PUSH2 0x3CF JUMP JUMPDEST PUSH1 0x40 MLOAD DUP1 SWAP2 SUB SWAP1 RETURN JUMPDEST CALLVALUE DUP1 ISZERO PUSH2 0x109 JUMPI PUSH0 DUP1 REVERT JUMPDEST POP PUSH2 0x124 PUSH1 0x4 DUP1 CALLDATASIZE SUB DUP2 ADD SWAP1 PUSH2 0x11F SWAP2 SWAP1 PUSH2 0x446 JUMP JUMPDEST PUSH2 0x2C4 JUMP JUMPDEST STOP JUMPDEST CALLVALUE DUP1 ISZERO PUSH2 0x131 JUMPI PUSH0 DUP1 REVERT JUMPDEST POP PUSH2 0x14C PUSH1 0x4 DUP1 CALLDATASIZE SUB DUP2 ADD SWAP1 PUSH2 0x147 SWAP2 SWAP1 PUSH2 0x446 JUMP JUMPDEST PUSH2 0x31B JUMP JUMPDEST PUSH1 0x40 MLOAD PUSH2 0x159 SWAP2 SWAP1 PUSH2 0x48B JUMP JUMPDEST PUSH1 0x40 MLOAD DUP1 SWAP2 SUB SWAP1 RETURN JUMPDEST CALLVALUE DUP1 ISZERO PUSH2 0x16D JUMPI PUSH0 DUP1 REVERT JUMPDEST POP PUSH2 0x176 PUSH2 0x337 JUMP JUMPDEST PUSH1 0x40 MLOAD PUSH2 0x183 SWAP2 SWAP1 PUSH2 0x3CF JUMP JUMPDEST PUSH1 0x40 MLOAD DUP1 SWAP2 SUB SWAP1 RETURN JUMPDEST CALLVALUE DUP1 ISZERO PUSH2 0x197 JUMPI PUSH0 DUP1 REVERT JUMPDEST POP PUSH2 0x1A0 PUSH2 0x33D JUMP JUMPDEST PUSH1 0x40 MLOAD PUSH2 0x1AD SWAP2 SWAP1 PUSH2 0x3CF JUMP JUMPDEST PUSH1 0x40 MLOAD DUP1 SWAP2 SUB SWAP1 RETURN JUMPDEST PUSH0 DUP1 CALLER PUSH20 0xFFFFFFFFFFFFFFFFFFFFFFFFFFFFFFFFFFFFFFFF AND PUSH20 0xFFFFFFFFFFFFFFFFFFFFFFFFFFFFFFFFFFFFFFFF AND DUP2 MSTORE PUSH1 0x20 ADD SWAP1 DUP2 MSTORE PUSH1 0x20 ADD PUSH0 KECCAK256 PUSH0 SWAP1 SLOAD SWAP1 PUSH2 0x100 EXP SWAP1 DIV PUSH1 0xFF AND PUSH2 0x23E JUMPI PUSH1 0x40 MLOAD PUSH32 0x8C379A000000000000000000000000000000000000000000000000000000000 DUP2 MSTORE PUSH1 0x4 ADD PUSH2 0x235 SWAP1 PUSH2 0x4FE JUMP JUMPDEST PUSH1 0x40 MLOAD DUP1 SWAP2 SUB SWAP1 REVERT JUMPDEST PUSH1 0x1 PUSH0 DUP2 SLOAD DUP1 SWAP3 SWAP2 SWAP1 PUSH2 0x250 SWAP1 PUSH2 0x379 JUMP JUMPDEST SWAP2 SWAP1 POP SSTORE POP JUMP JUMPDEST PUSH0 ADDRESS SWAP1 POP PUSH0 DUP2 PUSH20 0xFFFFFFFFFFFFFFFFFFFFFFFFFFFFFFFFFFFFFFFF AND BALANCE SWAP1 POP CALLER PUSH20 0xFFFFFFFFFFFFFFFFFFFFFFFFFFFFFFFFFFFFFFFF AND PUSH2 0x8FC DUP3 SWAP1 DUP2 ISZERO MUL SWAP1 PUSH1 0x40 MLOAD PUSH0 PUSH1 0x40 MLOAD DUP1 DUP4 SUB DUP2 DUP6 DUP9 DUP9 CALL SWAP4 POP POP POP POP ISZERO DUP1 ISZERO PUSH2 0x2B9 JUMPI RETURNDATASIZE PUSH0 DUP1 RETURNDATACOPY RETURNDATASIZE PUSH0 REVERT JUMPDEST POP POP POP JUMP JUMPDEST PUSH1 0x1 SLOAD DUP2 JUMP JUMPDEST PUSH1 0x1 PUSH0 DUP1 DUP4 PUSH20 0xFFFFFFFFFFFFFFFFFFFFFFFFFFFFFFFFFFFFFFFF AND PUSH20 0xFFFFFFFFFFFFFFFFFFFFFFFFFFFFFFFFFFFFFFFF AND DUP2 MSTORE PUSH1 0x20 ADD SWAP1 DUP2 MSTORE PUSH1 0x20 ADD PUSH0 KECCAK256 PUSH0 PUSH2 0x100 EXP DUP2 SLOAD DUP2 PUSH1 0xFF MUL NOT AND SWAP1 DUP4 ISZERO ISZERO MUL OR SWAP1 SSTORE POP POP JUMP JUMPDEST PUSH0 PUSH1 0x20 MSTORE DUP1 PUSH0 MSTORE PUSH1 0x40 PUSH0 KECCAK256 PUSH0 SWAP2 POP SLOAD SWAP1 PUSH2 0x100 EXP SWAP1 DIV PUSH1 0xFF AND DUP2 JUMP JUMPDEST PUSH1 0x3 SLOAD DUP2 JUMP JUMPDEST PUSH1 0x2 SLOAD DUP2 JUMP JUMPDEST PUSH32 0x4E487B7100000000000000000000000000000000000000000000000000000000 PUSH0 MSTORE PUSH1 0x11 PUSH1 0x4 MSTORE PUSH1 0x24 PUSH0 REVERT JUMPDEST PUSH0 DUP2 SWAP1 POP SWAP2 SWAP1 POP JUMP JUMPDEST PUSH0 PUSH2 0x383 DUP3 PUSH2 0x370 JUMP JUMPDEST SWAP2 POP PUSH32 0xFFFFFFFFFFFFFFFFFFFFFFFFFFFFFFFFFFFFFFFFFFFFFFFFFFFFFFFFFFFFFFFF DUP3 SUB PUSH2 0x3B5 JUMPI PUSH2 0x3B4 PUSH2 0x343 JUMP JUMPDEST JUMPDEST PUSH1 0x1 DUP3 ADD SWAP1 POP SWAP2 SWAP1 POP JUMP JUMPDEST PUSH2 0x3C9 DUP2 PUSH2 0x370 JUMP JUMPDEST DUP3 MSTORE POP POP JUMP JUMPDEST PUSH0 PUSH1 0x20 DUP3 ADD SWAP1 POP PUSH2 0x3E2 PUSH0 DUP4 ADD DUP5 PUSH2 0x3C0 JUMP JUMPDEST SWAP3 SWAP2 POP POP JUMP JUMPDEST PUSH0 DUP1 REVERT JUMPDEST PUSH0 PUSH20 0xFFFFFFFFFFFFFFFFFFFFFFFFFFFFFFFFFFFFFFFF DUP3 AND SWAP1 POP SWAP2 SWAP1 POP JUMP JUMPDEST PUSH0 PUSH2 0x415 DUP3 PUSH2 0x3EC JUMP JUMPDEST SWAP1 POP SWAP2 SWAP1 POP JUMP JUMPDEST PUSH2 0x425 DUP2 PUSH2 0x40B JUMP JUMPDEST DUP2 EQ PUSH2 0x42F JUMPI PUSH0 DUP1 REVERT JUMPDEST POP JUMP JUMPDEST PUSH0 DUP2 CALLDATALOAD SWAP1 POP PUSH2 0x440 DUP2 PUSH2 0x41C JUMP JUMPDEST SWAP3 SWAP2 POP POP JUMP JUMPDEST PUSH0 PUSH1 0x20 DUP3 DUP5 SUB SLT ISZERO PUSH2 0x45B JUMPI PUSH2 0x45A PUSH2 0x3E8 JUMP JUMPDEST JUMPDEST PUSH0 PUSH2 0x468 DUP5 DUP3 DUP6 ADD PUSH2 0x432 JUMP JUMPDEST SWAP2 POP POP SWAP3 SWAP2 POP POP JUMP JUMPDEST PUSH0 DUP2 ISZERO ISZERO SWAP1 POP SWAP2 SWAP1 POP JUMP JUMPDEST PUSH2 0x485 DUP2 PUSH2 0x471 JUMP JUMPDEST DUP3 MSTORE POP POP JUMP JUMPDEST PUSH0 PUSH1 0x20 DUP3 ADD SWAP1 POP PUSH2 0x49E PUSH0 DUP4 ADD DUP5 PUSH2 0x47C JUMP JUMPDEST SWAP3 SWAP2 POP POP JUMP JUMPDEST PUSH0 DUP3 DUP3 MSTORE PUSH1 0x20 DUP3 ADD SWAP1 POP SWAP3 SWAP2 POP POP JUMP JUMPDEST PUSH32 0x4E6F2065737461732077686974656C6973746561646F00000000000000000000 PUSH0 DUP3 ADD MSTORE POP JUMP JUMPDEST PUSH0 PUSH2 0x4E8 PUSH1 0x16 DUP4 PUSH2 0x4A4 JUMP JUMPDEST SWAP2 POP PUSH2 0x4F3 DUP3 PUSH2 0x4B4 JUMP JUMPDEST PUSH1 0x20 DUP3 ADD SWAP1 POP SWAP2 SWAP1 POP JUMP JUMPDEST PUSH0 PUSH1 0x20 DUP3 ADD SWAP1 POP DUP2 DUP2 SUB PUSH0 DUP4 ADD MSTORE PUSH2 0x515 DUP2 PUSH2 0x4DC JUMP JUMPDEST SWAP1 POP SWAP2 SWAP1 POP JUMP INVALID LOG2 PUSH5 0x6970667358 0x22 SLT KECCAK256 PUSH25 0xDFF68F76607CD41042B3F75E3AA7178D34961100003A83559B 0xAB 0xA6 SELFBALANCE CREATE 0xE8 ADD PUSH5 0x736F6C6343 STOP ADDMOD BYTE STOP CALLER "
				},
				"gasEstimates": {
					"creation": {
						"codeDepositCost": "272400",
						"executionCost": "310",
						"totalCost": "272710"
					},
					"external": {
						"": "24503",
						"counter()": "2470",
						"fallbackCounter()": "2469",
						"incCounter()": "26737",
						"receiveCounter()": "2491",
						"setWhitelist(address)": "24803",
						"whitelist(address)": "2854",
						"withdraw()": "infinite"
					}
				},
				"methodIdentifiers": {
					"counter()": "61bc221a",
					"fallbackCounter()": "a170d737",
					"incCounter()": "22aacad5",
					"receiveCounter()": "c3ca5ffe",
					"setWhitelist(address)": "854cff2f",
					"whitelist(address)": "9b19251a",
					"withdraw()": "3ccfd60b"
				}
			},
			"storageLayout": {
				"storage": [
					{
						"astId": 5,
						"contract": "Whitelisting.sol:Whitelisting",
						"label": "whitelist",
						"offset": 0,
						"slot": "0",
						"type": "t_mapping(t_address,t_bool)"
					},
					{
						"astId": 7,
						"contract": "Whitelisting.sol:Whitelisting",
						"label": "counter",
						"offset": 0,
						"slot": "1",
						"type": "t_uint256"
					},
					{
						"astId": 9,
						"contract": "Whitelisting.sol:Whitelisting",
						"label": "receiveCounter",
						"offset": 0,
						"slot": "2",
						"type": "t_uint256"
					},
					{
						"astId": 11,
						"contract": "Whitelisting.sol:Whitelisting",
						"label": "fallbackCounter",
						"offset": 0,
						"slot": "3",
						"type": "t_uint256"
					}
				],
				"types": {
					"t_address": {
						"encoding": "inplace",
						"label": "address",
						"numberOfBytes": "20"
					},
					"t_bool": {
						"encoding": "inplace",
						"label": "bool",
						"numberOfBytes": "1"
					},
					"t_mapping(t_address,t_bool)": {
						"encoding": "mapping",
						"key": "t_address",
						"label": "mapping(address => bool)",
						"numberOfBytes": "32",
						"value": "t_bool"
					},
					"t_uint256": {
						"encoding": "inplace",
						"label": "uint256",
						"numberOfBytes": "32"
					}
				}
			},
			"userdoc": {
				"kind": "user",
				"methods": {},
				"version": 1
			}
		}
	}
}