{
	"FinalAuction.sol": {
		"FinalAuction": {
			"abi": [
				{
					"inputs": [
						{
							"internalType": "address",
							"name": "_seller",
							"type": "address"
						},
						{
							"internalType": "uint256",
							"name": "_biddingTime",
							"type": "uint256"
						}
					],
					"stateMutability": "nonpayable",
					"type": "constructor"
				},
				{
					"anonymous": false,
					"inputs": [
						{
							"indexed": true,
							"internalType": "address",
							"name": "winner",
							"type": "address"
						},
						{
							"indexed": false,
							"internalType": "uint256",
							"name": "amount",
							"type": "uint256"
						}
					],
					"name": "AuctionEnded",
					"type": "event"
				},
				{
					"anonymous": false,
					"inputs": [
						{
							"indexed": true,
							"internalType": "address",
							"name": "bidder",
							"type": "address"
						},
						{
							"indexed": false,
							"internalType": "uint256",
							"name": "amount",
							"type": "uint256"
						}
					],
					"name": "NewBid",
					"type": "event"
				},
				{
					"inputs": [],
					"name": "COMISSION_RATE",
					"outputs": [
						{
							"internalType": "uint256",
							"name": "",
							"type": "uint256"
						}
					],
					"stateMutability": "view",
					"type": "function"
				},
				{
					"inputs": [],
					"name": "MINIMUM_INCREASE",
					"outputs": [
						{
							"internalType": "uint256",
							"name": "",
							"type": "uint256"
						}
					],
					"stateMutability": "view",
					"type": "function"
				},
				{
					"inputs": [],
					"name": "auctionEndTime",
					"outputs": [
						{
							"internalType": "uint256",
							"name": "",
							"type": "uint256"
						}
					],
					"stateMutability": "view",
					"type": "function"
				},
				{
					"inputs": [],
					"name": "bid",
					"outputs": [],
					"stateMutability": "payable",
					"type": "function"
				},
				{
					"inputs": [
						{
							"internalType": "uint256",
							"name": "",
							"type": "uint256"
						}
					],
					"name": "bids",
					"outputs": [
						{
							"internalType": "address",
							"name": "bidder",
							"type": "address"
						},
						{
							"internalType": "uint256",
							"name": "amount",
							"type": "uint256"
						}
					],
					"stateMutability": "view",
					"type": "function"
				},
				{
					"inputs": [
						{
							"internalType": "address",
							"name": "",
							"type": "address"
						}
					],
					"name": "deposits",
					"outputs": [
						{
							"internalType": "uint256",
							"name": "",
							"type": "uint256"
						}
					],
					"stateMutability": "view",
					"type": "function"
				},
				{
					"inputs": [],
					"name": "ended",
					"outputs": [
						{
							"internalType": "bool",
							"name": "",
							"type": "bool"
						}
					],
					"stateMutability": "view",
					"type": "function"
				},
				{
					"inputs": [],
					"name": "finishTime",
					"outputs": [],
					"stateMutability": "nonpayable",
					"type": "function"
				},
				{
					"inputs": [],
					"name": "highestBid",
					"outputs": [
						{
							"internalType": "uint256",
							"name": "",
							"type": "uint256"
						}
					],
					"stateMutability": "view",
					"type": "function"
				},
				{
					"inputs": [],
					"name": "highestBidder",
					"outputs": [
						{
							"internalType": "address",
							"name": "",
							"type": "address"
						}
					],
					"stateMutability": "view",
					"type": "function"
				},
				{
					"inputs": [],
					"name": "owner",
					"outputs": [
						{
							"internalType": "address",
							"name": "",
							"type": "address"
						}
					],
					"stateMutability": "view",
					"type": "function"
				},
				{
					"inputs": [],
					"name": "returnDeposits",
					"outputs": [],
					"stateMutability": "nonpayable",
					"type": "function"
				},
				{
					"inputs": [],
					"name": "seller",
					"outputs": [
						{
							"internalType": "address",
							"name": "",
							"type": "address"
						}
					],
					"stateMutability": "view",
					"type": "function"
				},
				{
					"inputs": [],
					"name": "showBids",
					"outputs": [
						{
							"components": [
								{
									"internalType": "address",
									"name": "bidder",
									"type": "address"
								},
								{
									"internalType": "uint256",
									"name": "amount",
									"type": "uint256"
								}
							],
							"internalType": "struct FinalAuction.Bidder[]",
							"name": "",
							"type": "tuple[]"
						}
					],
					"stateMutability": "view",
					"type": "function"
				},
				{
					"inputs": [],
					"name": "showWinner",
					"outputs": [
						{
							"internalType": "address",
							"name": "",
							"type": "address"
						},
						{
							"internalType": "uint256",
							"name": "",
							"type": "uint256"
						}
					],
					"stateMutability": "view",
					"type": "function"
				},
				{
					"inputs": [],
					"name": "withdrawAll",
					"outputs": [],
					"stateMutability": "nonpayable",
					"type": "function"
				},
				{
					"inputs": [],
					"name": "withdrawPartial",
					"outputs": [],
					"stateMutability": "nonpayable",
					"type": "function"
				}
			],
			"devdoc": {
				"kind": "dev",
				"methods": {},
				"version": 1
			},
			"evm": {
				"assembly": "    /* \"FinalAuction.sol\":60:6185  contract FinalAuction {... */\n  mstore(0x40, 0x80)\n    /* \"FinalAuction.sol\":1385:1731  constructor(address _seller, uint256 _biddingTime/*, uint256 _minimumIncrease*/) {... */\n  callvalue\n  dup1\n  iszero\n  tag_1\n  jumpi\n  0x00\n  dup1\n  revert\ntag_1:\n  pop\n  mload(0x40)\n  sub(codesize, bytecodeSize)\n  dup1\n  bytecodeSize\n  dup4\n  codecopy\n  dup2\n  dup2\n  add\n  0x40\n  mstore\n  dup2\n  add\n  swap1\n  tag_2\n  swap2\n  swap1\n  tag_3\n  jump\t// in\ntag_2:\n    /* \"FinalAuction.sol\":1485:1495  msg.sender */\n  caller\n    /* \"FinalAuction.sol\":1477:1482  owner */\n  0x00\n  dup1\n    /* \"FinalAuction.sol\":1477:1495  owner = msg.sender */\n  0x0100\n  exp\n  dup2\n  sload\n  dup2\n  0xffffffffffffffffffffffffffffffffffffffff\n  mul\n  not\n  and\n  swap1\n  dup4\n  0xffffffffffffffffffffffffffffffffffffffff\n  and\n  mul\n  or\n  swap1\n  sstore\n  pop\n    /* \"FinalAuction.sol\":1515:1522  _seller */\n  dup2\n    /* \"FinalAuction.sol\":1506:1512  seller */\n  0x01\n  0x00\n    /* \"FinalAuction.sol\":1506:1522  seller = _seller */\n  0x0100\n  exp\n  dup2\n  sload\n  dup2\n  0xffffffffffffffffffffffffffffffffffffffff\n  mul\n  not\n  and\n  swap1\n  dup4\n  0xffffffffffffffffffffffffffffffffffffffff\n  and\n  mul\n  or\n  swap1\n  sstore\n  pop\n    /* \"FinalAuction.sol\":1568:1580  _biddingTime */\n  dup1\n    /* \"FinalAuction.sol\":1550:1565  block.timestamp */\n  timestamp\n    /* \"FinalAuction.sol\":1550:1580  block.timestamp + _biddingTime */\n  tag_6\n  swap2\n  swap1\n  tag_7\n  jump\t// in\ntag_6:\n    /* \"FinalAuction.sol\":1533:1547  auctionEndTime */\n  0x04\n    /* \"FinalAuction.sol\":1533:1580  auctionEndTime = block.timestamp + _biddingTime */\n  dup2\n  swap1\n  sstore\n  pop\n    /* \"FinalAuction.sol\":1385:1731  constructor(address _seller, uint256 _biddingTime/*, uint256 _minimumIncrease*/) {... */\n  pop\n  pop\n    /* \"FinalAuction.sol\":60:6185  contract FinalAuction {... */\n  jump(tag_8)\n    /* \"#utility.yul\":88:205   */\ntag_10:\n    /* \"#utility.yul\":197:198   */\n  0x00\n    /* \"#utility.yul\":194:195   */\n  dup1\n    /* \"#utility.yul\":187:199   */\n  revert\n    /* \"#utility.yul\":334:460   */\ntag_12:\n    /* \"#utility.yul\":371:378   */\n  0x00\n    /* \"#utility.yul\":411:453   */\n  0xffffffffffffffffffffffffffffffffffffffff\n    /* \"#utility.yul\":404:409   */\n  dup3\n    /* \"#utility.yul\":400:454   */\n  and\n    /* \"#utility.yul\":389:454   */\n  swap1\n  pop\n    /* \"#utility.yul\":334:460   */\n  swap2\n  swap1\n  pop\n  jump\t// out\n    /* \"#utility.yul\":466:562   */\ntag_13:\n    /* \"#utility.yul\":503:510   */\n  0x00\n    /* \"#utility.yul\":532:556   */\n  tag_26\n    /* \"#utility.yul\":550:555   */\n  dup3\n    /* \"#utility.yul\":532:556   */\n  tag_12\n  jump\t// in\ntag_26:\n    /* \"#utility.yul\":521:556   */\n  swap1\n  pop\n    /* \"#utility.yul\":466:562   */\n  swap2\n  swap1\n  pop\n  jump\t// out\n    /* \"#utility.yul\":568:690   */\ntag_14:\n    /* \"#utility.yul\":641:665   */\n  tag_28\n    /* \"#utility.yul\":659:664   */\n  dup2\n    /* \"#utility.yul\":641:665   */\n  tag_13\n  jump\t// in\ntag_28:\n    /* \"#utility.yul\":634:639   */\n  dup2\n    /* \"#utility.yul\":631:666   */\n  eq\n    /* \"#utility.yul\":621:684   */\n  tag_29\n  jumpi\n    /* \"#utility.yul\":680:681   */\n  0x00\n    /* \"#utility.yul\":677:678   */\n  dup1\n    /* \"#utility.yul\":670:682   */\n  revert\n    /* \"#utility.yul\":621:684   */\ntag_29:\n    /* \"#utility.yul\":568:690   */\n  pop\n  jump\t// out\n    /* \"#utility.yul\":696:839   */\ntag_15:\n    /* \"#utility.yul\":753:758   */\n  0x00\n    /* \"#utility.yul\":784:790   */\n  dup2\n    /* \"#utility.yul\":778:791   */\n  mload\n    /* \"#utility.yul\":769:791   */\n  swap1\n  pop\n    /* \"#utility.yul\":800:833   */\n  tag_31\n    /* \"#utility.yul\":827:832   */\n  dup2\n    /* \"#utility.yul\":800:833   */\n  tag_14\n  jump\t// in\ntag_31:\n    /* \"#utility.yul\":696:839   */\n  swap3\n  swap2\n  pop\n  pop\n  jump\t// out\n    /* \"#utility.yul\":845:922   */\ntag_16:\n    /* \"#utility.yul\":882:889   */\n  0x00\n    /* \"#utility.yul\":911:916   */\n  dup2\n    /* \"#utility.yul\":900:916   */\n  swap1\n  pop\n    /* \"#utility.yul\":845:922   */\n  swap2\n  swap1\n  pop\n  jump\t// out\n    /* \"#utility.yul\":928:1050   */\ntag_17:\n    /* \"#utility.yul\":1001:1025   */\n  tag_34\n    /* \"#utility.yul\":1019:1024   */\n  dup2\n    /* \"#utility.yul\":1001:1025   */\n  tag_16\n  jump\t// in\ntag_34:\n    /* \"#utility.yul\":994:999   */\n  dup2\n    /* \"#utility.yul\":991:1026   */\n  eq\n    /* \"#utility.yul\":981:1044   */\n  tag_35\n  jumpi\n    /* \"#utility.yul\":1040:1041   */\n  0x00\n    /* \"#utility.yul\":1037:1038   */\n  dup1\n    /* \"#utility.yul\":1030:1042   */\n  revert\n    /* \"#utility.yul\":981:1044   */\ntag_35:\n    /* \"#utility.yul\":928:1050   */\n  pop\n  jump\t// out\n    /* \"#utility.yul\":1056:1199   */\ntag_18:\n    /* \"#utility.yul\":1113:1118   */\n  0x00\n    /* \"#utility.yul\":1144:1150   */\n  dup2\n    /* \"#utility.yul\":1138:1151   */\n  mload\n    /* \"#utility.yul\":1129:1151   */\n  swap1\n  pop\n    /* \"#utility.yul\":1160:1193   */\n  tag_37\n    /* \"#utility.yul\":1187:1192   */\n  dup2\n    /* \"#utility.yul\":1160:1193   */\n  tag_17\n  jump\t// in\ntag_37:\n    /* \"#utility.yul\":1056:1199   */\n  swap3\n  swap2\n  pop\n  pop\n  jump\t// out\n    /* \"#utility.yul\":1205:1712   */\ntag_3:\n    /* \"#utility.yul\":1284:1290   */\n  0x00\n    /* \"#utility.yul\":1292:1298   */\n  dup1\n    /* \"#utility.yul\":1341:1343   */\n  0x40\n    /* \"#utility.yul\":1329:1338   */\n  dup4\n    /* \"#utility.yul\":1320:1327   */\n  dup6\n    /* \"#utility.yul\":1316:1339   */\n  sub\n    /* \"#utility.yul\":1312:1344   */\n  slt\n    /* \"#utility.yul\":1309:1428   */\n  iszero\n  tag_39\n  jumpi\n    /* \"#utility.yul\":1347:1426   */\n  tag_40\n  tag_10\n  jump\t// in\ntag_40:\n    /* \"#utility.yul\":1309:1428   */\ntag_39:\n    /* \"#utility.yul\":1467:1468   */\n  0x00\n    /* \"#utility.yul\":1492:1556   */\n  tag_41\n    /* \"#utility.yul\":1548:1555   */\n  dup6\n    /* \"#utility.yul\":1539:1545   */\n  dup3\n    /* \"#utility.yul\":1528:1537   */\n  dup7\n    /* \"#utility.yul\":1524:1546   */\n  add\n    /* \"#utility.yul\":1492:1556   */\n  tag_15\n  jump\t// in\ntag_41:\n    /* \"#utility.yul\":1482:1556   */\n  swap3\n  pop\n    /* \"#utility.yul\":1438:1566   */\n  pop\n    /* \"#utility.yul\":1605:1607   */\n  0x20\n    /* \"#utility.yul\":1631:1695   */\n  tag_42\n    /* \"#utility.yul\":1687:1694   */\n  dup6\n    /* \"#utility.yul\":1678:1684   */\n  dup3\n    /* \"#utility.yul\":1667:1676   */\n  dup7\n    /* \"#utility.yul\":1663:1685   */\n  add\n    /* \"#utility.yul\":1631:1695   */\n  tag_18\n  jump\t// in\ntag_42:\n    /* \"#utility.yul\":1621:1695   */\n  swap2\n  pop\n    /* \"#utility.yul\":1576:1705   */\n  pop\n    /* \"#utility.yul\":1205:1712   */\n  swap3\n  pop\n  swap3\n  swap1\n  pop\n  jump\t// out\n    /* \"#utility.yul\":1718:1898   */\ntag_19:\n    /* \"#utility.yul\":1766:1843   */\n  0x4e487b7100000000000000000000000000000000000000000000000000000000\n    /* \"#utility.yul\":1763:1764   */\n  0x00\n    /* \"#utility.yul\":1756:1844   */\n  mstore\n    /* \"#utility.yul\":1863:1867   */\n  0x11\n    /* \"#utility.yul\":1860:1861   */\n  0x04\n    /* \"#utility.yul\":1853:1868   */\n  mstore\n    /* \"#utility.yul\":1887:1891   */\n  0x24\n    /* \"#utility.yul\":1884:1885   */\n  0x00\n    /* \"#utility.yul\":1877:1892   */\n  revert\n    /* \"#utility.yul\":1904:2095   */\ntag_7:\n    /* \"#utility.yul\":1944:1947   */\n  0x00\n    /* \"#utility.yul\":1963:1983   */\n  tag_45\n    /* \"#utility.yul\":1981:1982   */\n  dup3\n    /* \"#utility.yul\":1963:1983   */\n  tag_16\n  jump\t// in\ntag_45:\n    /* \"#utility.yul\":1958:1983   */\n  swap2\n  pop\n    /* \"#utility.yul\":1997:2017   */\n  tag_46\n    /* \"#utility.yul\":2015:2016   */\n  dup4\n    /* \"#utility.yul\":1997:2017   */\n  tag_16\n  jump\t// in\ntag_46:\n    /* \"#utility.yul\":1992:2017   */\n  swap3\n  pop\n    /* \"#utility.yul\":2040:2041   */\n  dup3\n    /* \"#utility.yul\":2037:2038   */\n  dup3\n    /* \"#utility.yul\":2033:2042   */\n  add\n    /* \"#utility.yul\":2026:2042   */\n  swap1\n  pop\n    /* \"#utility.yul\":2061:2064   */\n  dup1\n    /* \"#utility.yul\":2058:2059   */\n  dup3\n    /* \"#utility.yul\":2055:2065   */\n  gt\n    /* \"#utility.yul\":2052:2088   */\n  iszero\n  tag_47\n  jumpi\n    /* \"#utility.yul\":2068:2086   */\n  tag_48\n  tag_19\n  jump\t// in\ntag_48:\n    /* \"#utility.yul\":2052:2088   */\ntag_47:\n    /* \"#utility.yul\":1904:2095   */\n  swap3\n  swap2\n  pop\n  pop\n  jump\t// out\n    /* \"FinalAuction.sol\":60:6185  contract FinalAuction {... */\ntag_8:\n  dataSize(sub_0)\n  dup1\n  dataOffset(sub_0)\n  0x00\n  codecopy\n  0x00\n  return\nstop\n\nsub_0: assembly {\n        /* \"FinalAuction.sol\":60:6185  contract FinalAuction {... */\n      mstore(0x40, 0x80)\n      jumpi(tag_1, lt(calldatasize, 0x04))\n      shr(0xe0, calldataload(0x00))\n      dup1\n      0x783e4d3d\n      gt\n      tag_19\n      jumpi\n      dup1\n      0x91f90157\n      gt\n      tag_20\n      jumpi\n      dup1\n      0x91f90157\n      eq\n      tag_14\n      jumpi\n      dup1\n      0xb7e03264\n      eq\n      tag_15\n      jumpi\n      dup1\n      0xd57bde79\n      eq\n      tag_16\n      jumpi\n      dup1\n      0xfb7e5ad0\n      eq\n      tag_17\n      jumpi\n      dup1\n      0xfc7e286d\n      eq\n      tag_18\n      jumpi\n      jump(tag_1)\n    tag_20:\n      dup1\n      0x783e4d3d\n      eq\n      tag_10\n      jumpi\n      dup1\n      0x853828b6\n      eq\n      tag_11\n      jumpi\n      dup1\n      0x8bf43a83\n      eq\n      tag_12\n      jumpi\n      dup1\n      0x8da5cb5b\n      eq\n      tag_13\n      jumpi\n      jump(tag_1)\n    tag_19:\n      dup1\n      0x362e2565\n      gt\n      tag_21\n      jumpi\n      dup1\n      0x362e2565\n      eq\n      tag_6\n      jumpi\n      dup1\n      0x4423c5f1\n      eq\n      tag_7\n      jumpi\n      dup1\n      0x4b449cba\n      eq\n      tag_8\n      jumpi\n      dup1\n      0x5958611e\n      eq\n      tag_9\n      jumpi\n      jump(tag_1)\n    tag_21:\n      dup1\n      0x08551a53\n      eq\n      tag_2\n      jumpi\n      dup1\n      0x12fa6feb\n      eq\n      tag_3\n      jumpi\n      dup1\n      0x14d2687c\n      eq\n      tag_4\n      jumpi\n      dup1\n      0x1998aeef\n      eq\n      tag_5\n      jumpi\n    tag_1:\n      0x00\n      dup1\n      revert\n        /* \"FinalAuction.sol\":116:137  address public seller */\n    tag_2:\n      callvalue\n      dup1\n      iszero\n      tag_22\n      jumpi\n      0x00\n      dup1\n      revert\n    tag_22:\n      pop\n      tag_23\n      tag_24\n      jump\t// in\n    tag_23:\n      mload(0x40)\n      tag_25\n      swap2\n      swap1\n      tag_26\n      jump\t// in\n    tag_25:\n      mload(0x40)\n      dup1\n      swap2\n      sub\n      swap1\n      return\n        /* \"FinalAuction.sol\":518:535  bool public ended */\n    tag_3:\n      callvalue\n      dup1\n      iszero\n      tag_27\n      jumpi\n      0x00\n      dup1\n      revert\n    tag_27:\n      pop\n      tag_28\n      tag_29\n      jump\t// in\n    tag_28:\n      mload(0x40)\n      tag_30\n      swap2\n      swap1\n      tag_31\n      jump\t// in\n    tag_30:\n      mload(0x40)\n      dup1\n      swap2\n      sub\n      swap1\n      return\n        /* \"FinalAuction.sol\":6092:6182  function showBids() external view returns (Bidder[] memory) {... */\n    tag_4:\n      callvalue\n      dup1\n      iszero\n      tag_32\n      jumpi\n      0x00\n      dup1\n      revert\n    tag_32:\n      pop\n      tag_33\n      tag_34\n      jump\t// in\n    tag_33:\n      mload(0x40)\n      tag_35\n      swap2\n      swap1\n      tag_36\n      jump\t// in\n    tag_35:\n      mload(0x40)\n      dup1\n      swap2\n      sub\n      swap1\n      return\n        /* \"FinalAuction.sol\":1833:2776  function bid() external payable beforeEnd {... */\n    tag_5:\n      tag_37\n      tag_38\n      jump\t// in\n    tag_37:\n      stop\n        /* \"FinalAuction.sol\":2784:4191  function returnDeposits() external onlyOwner afterEnd {... */\n    tag_6:\n      callvalue\n      dup1\n      iszero\n      tag_39\n      jumpi\n      0x00\n      dup1\n      revert\n    tag_39:\n      pop\n      tag_40\n      tag_41\n      jump\t// in\n    tag_40:\n      stop\n        /* \"FinalAuction.sol\":624:644  Bidder[] public bids */\n    tag_7:\n      callvalue\n      dup1\n      iszero\n      tag_42\n      jumpi\n      0x00\n      dup1\n      revert\n    tag_42:\n      pop\n      tag_43\n      0x04\n      dup1\n      calldatasize\n      sub\n      dup2\n      add\n      swap1\n      tag_44\n      swap2\n      swap1\n      tag_45\n      jump\t// in\n    tag_44:\n      tag_46\n      jump\t// in\n    tag_43:\n      mload(0x40)\n      tag_47\n      swap3\n      swap2\n      swap1\n      tag_48\n      jump\t// in\n    tag_47:\n      mload(0x40)\n      dup1\n      swap2\n      sub\n      swap1\n      return\n        /* \"FinalAuction.sol\":211:240  uint256 public auctionEndTime */\n    tag_8:\n      callvalue\n      dup1\n      iszero\n      tag_49\n      jumpi\n      0x00\n      dup1\n      revert\n    tag_49:\n      pop\n      tag_50\n      tag_51\n      jump\t// in\n    tag_50:\n      mload(0x40)\n      tag_52\n      swap2\n      swap1\n      tag_53\n      jump\t// in\n    tag_52:\n      mload(0x40)\n      dup1\n      swap2\n      sub\n      swap1\n      return\n        /* \"FinalAuction.sol\":1739:1825  function finishTime() external {... */\n    tag_9:\n      callvalue\n      dup1\n      iszero\n      tag_54\n      jumpi\n      0x00\n      dup1\n      revert\n    tag_54:\n      pop\n      tag_55\n      tag_56\n      jump\t// in\n    tag_55:\n      stop\n        /* \"FinalAuction.sol\":286:332  uint256 public constant MINIMUM_INCREASE = 105 */\n    tag_10:\n      callvalue\n      dup1\n      iszero\n      tag_57\n      jumpi\n      0x00\n      dup1\n      revert\n    tag_57:\n      pop\n      tag_58\n      tag_59\n      jump\t// in\n    tag_58:\n      mload(0x40)\n      tag_60\n      swap2\n      swap1\n      tag_53\n      jump\t// in\n    tag_60:\n      mload(0x40)\n      dup1\n      swap2\n      sub\n      swap1\n      return\n        /* \"FinalAuction.sol\":5594:5895  function withdrawAll() external afterEnd onlyOwner {... */\n    tag_11:\n      callvalue\n      dup1\n      iszero\n      tag_61\n      jumpi\n      0x00\n      dup1\n      revert\n    tag_61:\n      pop\n      tag_62\n      tag_63\n      jump\t// in\n    tag_62:\n      stop\n        /* \"FinalAuction.sol\":4287:5198  function withdrawPartial() external beforeEnd {... */\n    tag_12:\n      callvalue\n      dup1\n      iszero\n      tag_64\n      jumpi\n      0x00\n      dup1\n      revert\n    tag_64:\n      pop\n      tag_65\n      tag_66\n      jump\t// in\n    tag_65:\n      stop\n        /* \"FinalAuction.sol\":89:109  address public owner */\n    tag_13:\n      callvalue\n      dup1\n      iszero\n      tag_67\n      jumpi\n      0x00\n      dup1\n      revert\n    tag_67:\n      pop\n      tag_68\n      tag_69\n      jump\t// in\n    tag_68:\n      mload(0x40)\n      tag_70\n      swap2\n      swap1\n      tag_26\n      jump\t// in\n    tag_70:\n      mload(0x40)\n      dup1\n      swap2\n      sub\n      swap1\n      return\n        /* \"FinalAuction.sol\":144:172  address public highestBidder */\n    tag_14:\n      callvalue\n      dup1\n      iszero\n      tag_71\n      jumpi\n      0x00\n      dup1\n      revert\n    tag_71:\n      pop\n      tag_72\n      tag_73\n      jump\t// in\n    tag_72:\n      mload(0x40)\n      tag_74\n      swap2\n      swap1\n      tag_26\n      jump\t// in\n    tag_74:\n      mload(0x40)\n      dup1\n      swap2\n      sub\n      swap1\n      return\n        /* \"FinalAuction.sol\":5907:6084  function showWinner() external view returns (address, uint256) {... */\n    tag_15:\n      callvalue\n      dup1\n      iszero\n      tag_75\n      jumpi\n      0x00\n      dup1\n      revert\n    tag_75:\n      pop\n      tag_76\n      tag_77\n      jump\t// in\n    tag_76:\n      mload(0x40)\n      tag_78\n      swap3\n      swap2\n      swap1\n      tag_48\n      jump\t// in\n    tag_78:\n      mload(0x40)\n      dup1\n      swap2\n      sub\n      swap1\n      return\n        /* \"FinalAuction.sol\":179:204  uint256 public highestBid */\n    tag_16:\n      callvalue\n      dup1\n      iszero\n      tag_79\n      jumpi\n      0x00\n      dup1\n      revert\n    tag_79:\n      pop\n      tag_80\n      tag_81\n      jump\t// in\n    tag_80:\n      mload(0x40)\n      tag_82\n      swap2\n      swap1\n      tag_53\n      jump\t// in\n    tag_82:\n      mload(0x40)\n      dup1\n      swap2\n      sub\n      swap1\n      return\n        /* \"FinalAuction.sol\":447:489  uint256 public constant COMISSION_RATE = 2 */\n    tag_17:\n      callvalue\n      dup1\n      iszero\n      tag_83\n      jumpi\n      0x00\n      dup1\n      revert\n    tag_83:\n      pop\n      tag_84\n      tag_85\n      jump\t// in\n    tag_84:\n      mload(0x40)\n      tag_86\n      swap2\n      swap1\n      tag_53\n      jump\t// in\n    tag_86:\n      mload(0x40)\n      dup1\n      swap2\n      sub\n      swap1\n      return\n        /* \"FinalAuction.sol\":651:694  mapping(address => uint256) public deposits */\n    tag_18:\n      callvalue\n      dup1\n      iszero\n      tag_87\n      jumpi\n      0x00\n      dup1\n      revert\n    tag_87:\n      pop\n      tag_88\n      0x04\n      dup1\n      calldatasize\n      sub\n      dup2\n      add\n      swap1\n      tag_89\n      swap2\n      swap1\n      tag_90\n      jump\t// in\n    tag_89:\n      tag_91\n      jump\t// in\n    tag_88:\n      mload(0x40)\n      tag_92\n      swap2\n      swap1\n      tag_53\n      jump\t// in\n    tag_92:\n      mload(0x40)\n      dup1\n      swap2\n      sub\n      swap1\n      return\n        /* \"FinalAuction.sol\":116:137  address public seller */\n    tag_24:\n      0x01\n      0x00\n      swap1\n      sload\n      swap1\n      0x0100\n      exp\n      swap1\n      div\n      0xffffffffffffffffffffffffffffffffffffffff\n      and\n      dup2\n      jump\t// out\n        /* \"FinalAuction.sol\":518:535  bool public ended */\n    tag_29:\n      0x05\n      0x00\n      swap1\n      sload\n      swap1\n      0x0100\n      exp\n      swap1\n      div\n      0xff\n      and\n      dup2\n      jump\t// out\n        /* \"FinalAuction.sol\":6092:6182  function showBids() external view returns (Bidder[] memory) {... */\n    tag_34:\n        /* \"FinalAuction.sol\":6135:6150  Bidder[] memory */\n      0x60\n        /* \"FinalAuction.sol\":6170:6174  bids */\n      0x06\n        /* \"FinalAuction.sol\":6163:6174  return bids */\n      dup1\n      sload\n      dup1\n      0x20\n      mul\n      0x20\n      add\n      mload(0x40)\n      swap1\n      dup2\n      add\n      0x40\n      mstore\n      dup1\n      swap3\n      swap2\n      swap1\n      dup2\n      dup2\n      mstore\n      0x20\n      add\n      0x00\n      swap1\n    tag_94:\n      dup3\n      dup3\n      lt\n      iszero\n      tag_95\n      jumpi\n      dup4\n      dup3\n      swap1\n      0x00\n      mstore\n      keccak256(0x00, 0x20)\n      swap1\n      0x02\n      mul\n      add\n      mload(0x40)\n      dup1\n      0x40\n      add\n      0x40\n      mstore\n      swap1\n      dup2\n      0x00\n      dup3\n      add\n      0x00\n      swap1\n      sload\n      swap1\n      0x0100\n      exp\n      swap1\n      div\n      0xffffffffffffffffffffffffffffffffffffffff\n      and\n      0xffffffffffffffffffffffffffffffffffffffff\n      and\n      0xffffffffffffffffffffffffffffffffffffffff\n      and\n      dup2\n      mstore\n      0x20\n      add\n      0x01\n      dup3\n      add\n      sload\n      dup2\n      mstore\n      pop\n      pop\n      dup2\n      mstore\n      0x20\n      add\n      swap1\n      0x01\n      add\n      swap1\n      jump(tag_94)\n    tag_95:\n      pop\n      pop\n      pop\n      pop\n      swap1\n      pop\n        /* \"FinalAuction.sol\":6092:6182  function showBids() external view returns (Bidder[] memory) {... */\n      swap1\n      jump\t// out\n        /* \"FinalAuction.sol\":1833:2776  function bid() external payable beforeEnd {... */\n    tag_38:\n        /* \"FinalAuction.sol\":1184:1198  auctionEndTime */\n      sload(0x04)\n        /* \"FinalAuction.sol\":1166:1181  block.timestamp */\n      timestamp\n        /* \"FinalAuction.sol\":1166:1198  block.timestamp < auctionEndTime */\n      lt\n        /* \"FinalAuction.sol\":1158:1220  require(block.timestamp < auctionEndTime, \"Auction has ended\") */\n      tag_98\n      jumpi\n      mload(0x40)\n      0x08c379a000000000000000000000000000000000000000000000000000000000\n      dup2\n      mstore\n      0x04\n      add\n      tag_99\n      swap1\n      tag_100\n      jump\t// in\n    tag_99:\n      mload(0x40)\n      dup1\n      swap2\n      sub\n      swap1\n      revert\n    tag_98:\n        /* \"FinalAuction.sol\":1886:1905  uint256 _highestBid */\n      0x00\n        /* \"FinalAuction.sol\":1908:1918  highestBid */\n      sload(0x03)\n        /* \"FinalAuction.sol\":1886:1918  uint256 _highestBid = highestBid */\n      swap1\n      pop\n        /* \"FinalAuction.sol\":2175:2178  100 */\n      0x64\n        /* \"FinalAuction.sol\":329:332  105 */\n      0x69\n        /* \"FinalAuction.sol\":2142:2153  _highestBid */\n      dup3\n        /* \"FinalAuction.sol\":2142:2172  _highestBid * MINIMUM_INCREASE */\n      tag_102\n      swap2\n      swap1\n      tag_103\n      jump\t// in\n    tag_102:\n        /* \"FinalAuction.sol\":2142:2178  _highestBid * MINIMUM_INCREASE / 100 */\n      tag_104\n      swap2\n      swap1\n      tag_105\n      jump\t// in\n    tag_104:\n        /* \"FinalAuction.sol\":2130:2139  msg.value */\n      callvalue\n        /* \"FinalAuction.sol\":2130:2178  msg.value > _highestBid * MINIMUM_INCREASE / 100 */\n      gt\n        /* \"FinalAuction.sol\":2122:2207  require(msg.value > _highestBid * MINIMUM_INCREASE / 100, \"Offer must exceed min. %\") */\n      tag_106\n      jumpi\n      mload(0x40)\n      0x08c379a000000000000000000000000000000000000000000000000000000000\n      dup2\n      mstore\n      0x04\n      add\n      tag_107\n      swap1\n      tag_108\n      jump\t// in\n    tag_107:\n      mload(0x40)\n      dup1\n      swap2\n      sub\n      swap1\n      revert\n    tag_106:\n        /* \"FinalAuction.sol\":2262:2272  msg.sender */\n      caller\n        /* \"FinalAuction.sol\":2246:2259  highestBidder */\n      0x02\n      0x00\n        /* \"FinalAuction.sol\":2246:2272  highestBidder = msg.sender */\n      0x0100\n      exp\n      dup2\n      sload\n      dup2\n      0xffffffffffffffffffffffffffffffffffffffff\n      mul\n      not\n      and\n      swap1\n      dup4\n      0xffffffffffffffffffffffffffffffffffffffff\n      and\n      mul\n      or\n      swap1\n      sstore\n      pop\n        /* \"FinalAuction.sol\":2333:2342  msg.value */\n      callvalue\n        /* \"FinalAuction.sol\":2320:2330  highestBid */\n      0x03\n        /* \"FinalAuction.sol\":2320:2342  highestBid = msg.value */\n      dup2\n      swap1\n      sstore\n      pop\n        /* \"FinalAuction.sol\":2379:2388  msg.value */\n      callvalue\n        /* \"FinalAuction.sol\":2355:2363  deposits */\n      0x07\n        /* \"FinalAuction.sol\":2355:2375  deposits[msg.sender] */\n      0x00\n        /* \"FinalAuction.sol\":2364:2374  msg.sender */\n      caller\n        /* \"FinalAuction.sol\":2355:2375  deposits[msg.sender] */\n      0xffffffffffffffffffffffffffffffffffffffff\n      and\n      0xffffffffffffffffffffffffffffffffffffffff\n      and\n      dup2\n      mstore\n      0x20\n      add\n      swap1\n      dup2\n      mstore\n      0x20\n      add\n      0x00\n      keccak256\n      0x00\n        /* \"FinalAuction.sol\":2355:2388  deposits[msg.sender] += msg.value */\n      dup3\n      dup3\n      sload\n      tag_109\n      swap2\n      swap1\n      tag_110\n      jump\t// in\n    tag_109:\n      swap3\n      pop\n      pop\n      dup2\n      swap1\n      sstore\n      pop\n        /* \"FinalAuction.sol\":2431:2435  bids */\n      0x06\n        /* \"FinalAuction.sol\":2441:2488  Bidder({bidder: msg.sender, amount: msg.value}) */\n      mload(0x40)\n      dup1\n      0x40\n      add\n      0x40\n      mstore\n      dup1\n        /* \"FinalAuction.sol\":2457:2467  msg.sender */\n      caller\n        /* \"FinalAuction.sol\":2441:2488  Bidder({bidder: msg.sender, amount: msg.value}) */\n      0xffffffffffffffffffffffffffffffffffffffff\n      and\n      dup2\n      mstore\n      0x20\n      add\n        /* \"FinalAuction.sol\":2477:2486  msg.value */\n      callvalue\n        /* \"FinalAuction.sol\":2441:2488  Bidder({bidder: msg.sender, amount: msg.value}) */\n      dup2\n      mstore\n      pop\n        /* \"FinalAuction.sol\":2431:2489  bids.push(Bidder({bidder: msg.sender, amount: msg.value})) */\n      swap1\n      dup1\n      0x01\n      dup2\n      sload\n      add\n      dup1\n      dup3\n      sstore\n      dup1\n      swap2\n      pop\n      pop\n      0x01\n      swap1\n      sub\n      swap1\n      0x00\n      mstore\n      keccak256(0x00, 0x20)\n      swap1\n      0x02\n      mul\n      add\n      0x00\n      swap1\n      swap2\n      swap1\n      swap2\n      swap1\n      swap2\n      pop\n      0x00\n      dup3\n      add\n      mload\n      dup2\n      0x00\n      add\n      exp(0x0100, 0x00)\n      dup2\n      sload\n      dup2\n      0xffffffffffffffffffffffffffffffffffffffff\n      mul\n      not\n      and\n      swap1\n      dup4\n      0xffffffffffffffffffffffffffffffffffffffff\n      and\n      mul\n      or\n      swap1\n      sstore\n      pop\n      0x20\n      dup3\n      add\n      mload\n      dup2\n      0x01\n      add\n      sstore\n      pop\n      pop\n        /* \"FinalAuction.sol\":2548:2571  uint256 _auctionEndTime */\n      0x00\n        /* \"FinalAuction.sol\":2574:2588  auctionEndTime */\n      sload(0x04)\n        /* \"FinalAuction.sol\":2548:2588  uint256 _auctionEndTime = auctionEndTime */\n      swap1\n      pop\n        /* \"FinalAuction.sol\":2640:2650  10 minutes */\n      0x0258\n        /* \"FinalAuction.sol\":2622:2637  _auctionEndTime */\n      dup2\n        /* \"FinalAuction.sol\":2622:2650  _auctionEndTime - 10 minutes */\n      tag_112\n      swap2\n      swap1\n      tag_113\n      jump\t// in\n    tag_112:\n        /* \"FinalAuction.sol\":2603:2618  block.timestamp */\n      timestamp\n        /* \"FinalAuction.sol\":2603:2650  block.timestamp >= _auctionEndTime - 10 minutes */\n      lt\n        /* \"FinalAuction.sol\":2599:2724  if (block.timestamp >= _auctionEndTime - 10 minutes) {... */\n      tag_114\n      jumpi\n        /* \"FinalAuction.sol\":2702:2712  10 minutes */\n      0x0258\n        /* \"FinalAuction.sol\":2684:2699  _auctionEndTime */\n      dup2\n        /* \"FinalAuction.sol\":2684:2712  _auctionEndTime + 10 minutes */\n      tag_115\n      swap2\n      swap1\n      tag_110\n      jump\t// in\n    tag_115:\n        /* \"FinalAuction.sol\":2667:2681  auctionEndTime */\n      0x04\n        /* \"FinalAuction.sol\":2667:2712  auctionEndTime = _auctionEndTime + 10 minutes */\n      dup2\n      swap1\n      sstore\n      pop\n        /* \"FinalAuction.sol\":2599:2724  if (block.timestamp >= _auctionEndTime - 10 minutes) {... */\n    tag_114:\n        /* \"FinalAuction.sol\":2746:2756  msg.sender */\n      caller\n        /* \"FinalAuction.sol\":2739:2768  NewBid(msg.sender, msg.value) */\n      0xffffffffffffffffffffffffffffffffffffffff\n      and\n      0xdd0b6c6a77960e2066c96171b4d7ac9e8b4c184011f38544afa36a5bb63ec59f\n        /* \"FinalAuction.sol\":2758:2767  msg.value */\n      callvalue\n        /* \"FinalAuction.sol\":2739:2768  NewBid(msg.sender, msg.value) */\n      mload(0x40)\n      tag_116\n      swap2\n      swap1\n      tag_53\n      jump\t// in\n    tag_116:\n      mload(0x40)\n      dup1\n      swap2\n      sub\n      swap1\n      log2\n        /* \"FinalAuction.sol\":1875:2776  {... */\n      pop\n      pop\n        /* \"FinalAuction.sol\":1833:2776  function bid() external payable beforeEnd {... */\n      jump\t// out\n        /* \"FinalAuction.sol\":2784:4191  function returnDeposits() external onlyOwner afterEnd {... */\n    tag_41:\n        /* \"FinalAuction.sol\":925:930  owner */\n      0x00\n      dup1\n      sload\n      swap1\n      0x0100\n      exp\n      swap1\n      div\n      0xffffffffffffffffffffffffffffffffffffffff\n      and\n        /* \"FinalAuction.sol\":911:930  msg.sender == owner */\n      0xffffffffffffffffffffffffffffffffffffffff\n      and\n        /* \"FinalAuction.sol\":911:921  msg.sender */\n      caller\n        /* \"FinalAuction.sol\":911:930  msg.sender == owner */\n      0xffffffffffffffffffffffffffffffffffffffff\n      and\n      eq\n        /* \"FinalAuction.sol\":903:956  require(msg.sender == owner, \"Not the auction owner\") */\n      tag_118\n      jumpi\n      mload(0x40)\n      0x08c379a000000000000000000000000000000000000000000000000000000000\n      dup2\n      mstore\n      0x04\n      add\n      tag_119\n      swap1\n      tag_120\n      jump\t// in\n    tag_119:\n      mload(0x40)\n      dup1\n      swap2\n      sub\n      swap1\n      revert\n    tag_118:\n        /* \"FinalAuction.sol\":1317:1331  auctionEndTime */\n      sload(0x04)\n        /* \"FinalAuction.sol\":1298:1313  block.timestamp */\n      timestamp\n        /* \"FinalAuction.sol\":1298:1331  block.timestamp >= auctionEndTime */\n      lt\n      iszero\n        /* \"FinalAuction.sol\":1290:1357  require(block.timestamp >= auctionEndTime, \"Auction has not ended\") */\n      tag_122\n      jumpi\n      mload(0x40)\n      0x08c379a000000000000000000000000000000000000000000000000000000000\n      dup2\n      mstore\n      0x04\n      add\n      tag_123\n      swap1\n      tag_124\n      jump\t// in\n    tag_123:\n      mload(0x40)\n      dup1\n      swap2\n      sub\n      swap1\n      revert\n    tag_122:\n        /* \"FinalAuction.sol\":2858:2863  ended */\n      0x05\n      0x00\n      swap1\n      sload\n      swap1\n      0x0100\n      exp\n      swap1\n      div\n      0xff\n      and\n        /* \"FinalAuction.sol\":2857:2863  !ended */\n      iszero\n        /* \"FinalAuction.sol\":2849:2895  require(!ended, \"Deposits have been refunded\") */\n      tag_126\n      jumpi\n      mload(0x40)\n      0x08c379a000000000000000000000000000000000000000000000000000000000\n      dup2\n      mstore\n      0x04\n      add\n      tag_127\n      swap1\n      tag_128\n      jump\t// in\n    tag_127:\n      mload(0x40)\n      dup1\n      swap2\n      sub\n      swap1\n      revert\n    tag_126:\n        /* \"FinalAuction.sol\":2942:2946  true */\n      0x01\n        /* \"FinalAuction.sol\":2934:2939  ended */\n      0x05\n      0x00\n        /* \"FinalAuction.sol\":2934:2946  ended = true */\n      0x0100\n      exp\n      dup2\n      sload\n      dup2\n      0xff\n      mul\n      not\n      and\n      swap1\n      dup4\n      iszero\n      iszero\n      mul\n      or\n      swap1\n      sstore\n      pop\n        /* \"FinalAuction.sol\":2959:2970  uint256 len */\n      0x00\n        /* \"FinalAuction.sol\":2973:2977  bids */\n      0x06\n        /* \"FinalAuction.sol\":2973:2984  bids.length */\n      dup1\n      sload\n      swap1\n      pop\n        /* \"FinalAuction.sol\":2959:2984  uint256 len = bids.length */\n      swap1\n      pop\n        /* \"FinalAuction.sol\":3041:3063  address _highestBidder */\n      0x00\n        /* \"FinalAuction.sol\":3066:3079  highestBidder */\n      0x02\n      0x00\n      swap1\n      sload\n      swap1\n      0x0100\n      exp\n      swap1\n      div\n      0xffffffffffffffffffffffffffffffffffffffff\n      and\n        /* \"FinalAuction.sol\":3041:3079  address _highestBidder = highestBidder */\n      swap1\n      pop\n        /* \"FinalAuction.sol\":3136:3148  bool success */\n      0x00\n        /* \"FinalAuction.sol\":3209:3215  uint i */\n      dup1\n        /* \"FinalAuction.sol\":3218:3219  0 */\n      0x00\n        /* \"FinalAuction.sol\":3209:3219  uint i = 0 */\n      swap1\n      pop\n        /* \"FinalAuction.sol\":3204:3910  for (uint i = 0; i < len; i++) {... */\n    tag_129:\n        /* \"FinalAuction.sol\":3225:3228  len */\n      dup4\n        /* \"FinalAuction.sol\":3221:3222  i */\n      dup2\n        /* \"FinalAuction.sol\":3221:3228  i < len */\n      lt\n        /* \"FinalAuction.sol\":3204:3910  for (uint i = 0; i < len; i++) {... */\n      iszero\n      tag_130\n      jumpi\n        /* \"FinalAuction.sol\":3250:3265  address _bidder */\n      0x00\n        /* \"FinalAuction.sol\":3268:3272  bids */\n      0x06\n        /* \"FinalAuction.sol\":3273:3274  i */\n      dup3\n        /* \"FinalAuction.sol\":3268:3275  bids[i] */\n      dup2\n      sload\n      dup2\n      lt\n      tag_132\n      jumpi\n      tag_133\n      tag_134\n      jump\t// in\n    tag_133:\n    tag_132:\n      swap1\n      0x00\n      mstore\n      keccak256(0x00, 0x20)\n      swap1\n      0x02\n      mul\n      add\n        /* \"FinalAuction.sol\":3268:3282  bids[i].bidder */\n      0x00\n      add\n      0x00\n      swap1\n      sload\n      swap1\n      0x0100\n      exp\n      swap1\n      div\n      0xffffffffffffffffffffffffffffffffffffffff\n      and\n        /* \"FinalAuction.sol\":3250:3282  address _bidder = bids[i].bidder */\n      swap1\n      pop\n        /* \"FinalAuction.sol\":3358:3372  _highestBidder */\n      dup4\n        /* \"FinalAuction.sol\":3347:3372  _bidder != _highestBidder */\n      0xffffffffffffffffffffffffffffffffffffffff\n      and\n        /* \"FinalAuction.sol\":3347:3354  _bidder */\n      dup2\n        /* \"FinalAuction.sol\":3347:3372  _bidder != _highestBidder */\n      0xffffffffffffffffffffffffffffffffffffffff\n      and\n      eq\n        /* \"FinalAuction.sol\":3343:3899  if (_bidder != _highestBidder) { // changedlogicbecause it was wrong... */\n      tag_136\n      jumpi\n        /* \"FinalAuction.sol\":3429:3443  uint256 amount */\n      0x00\n        /* \"FinalAuction.sol\":3446:3454  deposits */\n      0x07\n        /* \"FinalAuction.sol\":3446:3463  deposits[_bidder] */\n      0x00\n        /* \"FinalAuction.sol\":3455:3462  _bidder */\n      dup4\n        /* \"FinalAuction.sol\":3446:3463  deposits[_bidder] */\n      0xffffffffffffffffffffffffffffffffffffffff\n      and\n      0xffffffffffffffffffffffffffffffffffffffff\n      and\n      dup2\n      mstore\n      0x20\n      add\n      swap1\n      dup2\n      mstore\n      0x20\n      add\n      0x00\n      keccak256\n      sload\n        /* \"FinalAuction.sol\":3429:3463  uint256 amount = deposits[_bidder] */\n      swap1\n      pop\n        /* \"FinalAuction.sol\":3530:3541  uint256 fee */\n      0x00\n        /* \"FinalAuction.sol\":3572:3575  100 */\n      0x64\n        /* \"FinalAuction.sol\":488:489  2 */\n      0x02\n        /* \"FinalAuction.sol\":3545:3551  amount */\n      dup4\n        /* \"FinalAuction.sol\":3545:3568  amount * COMISSION_RATE */\n      tag_137\n      swap2\n      swap1\n      tag_103\n      jump\t// in\n    tag_137:\n        /* \"FinalAuction.sol\":3544:3575  (amount * COMISSION_RATE) / 100 */\n      tag_138\n      swap2\n      swap1\n      tag_105\n      jump\t// in\n    tag_138:\n        /* \"FinalAuction.sol\":3530:3575  uint256 fee = (amount * COMISSION_RATE) / 100 */\n      swap1\n      pop\n        /* \"FinalAuction.sol\":3621:3635  uint256 refund */\n      0x00\n        /* \"FinalAuction.sol\":3647:3650  fee */\n      dup2\n        /* \"FinalAuction.sol\":3638:3644  amount */\n      dup4\n        /* \"FinalAuction.sol\":3638:3650  amount - fee */\n      tag_139\n      swap2\n      swap1\n      tag_113\n      jump\t// in\n    tag_139:\n        /* \"FinalAuction.sol\":3621:3650  uint256 refund = amount - fee */\n      swap1\n      pop\n        /* \"FinalAuction.sol\":3689:3690  0 */\n      0x00\n        /* \"FinalAuction.sol\":3669:3677  deposits */\n      0x07\n        /* \"FinalAuction.sol\":3669:3686  deposits[_bidder] */\n      0x00\n        /* \"FinalAuction.sol\":3678:3685  _bidder */\n      dup7\n        /* \"FinalAuction.sol\":3669:3686  deposits[_bidder] */\n      0xffffffffffffffffffffffffffffffffffffffff\n      and\n      0xffffffffffffffffffffffffffffffffffffffff\n      and\n      dup2\n      mstore\n      0x20\n      add\n      swap1\n      dup2\n      mstore\n      0x20\n      add\n      0x00\n      keccak256\n        /* \"FinalAuction.sol\":3669:3690  deposits[_bidder] = 0 */\n      dup2\n      swap1\n      sstore\n      pop\n        /* \"FinalAuction.sol\":3723:3730  _bidder */\n      dup4\n        /* \"FinalAuction.sol\":3723:3735  _bidder.call */\n      0xffffffffffffffffffffffffffffffffffffffff\n      and\n        /* \"FinalAuction.sol\":3743:3749  refund */\n      dup2\n        /* \"FinalAuction.sol\":3723:3754  _bidder.call{value: refund}(\"\") */\n      mload(0x40)\n      tag_140\n      swap1\n      tag_141\n      jump\t// in\n    tag_140:\n      0x00\n      mload(0x40)\n      dup1\n      dup4\n      sub\n      dup2\n      dup6\n      dup8\n      gas\n      call\n      swap3\n      pop\n      pop\n      pop\n      returndatasize\n      dup1\n      0x00\n      dup2\n      eq\n      tag_144\n      jumpi\n      mload(0x40)\n      swap2\n      pop\n      and(add(returndatasize, 0x3f), not(0x1f))\n      dup3\n      add\n      0x40\n      mstore\n      returndatasize\n      dup3\n      mstore\n      returndatasize\n      0x00\n      0x20\n      dup5\n      add\n      returndatacopy\n      jump(tag_143)\n    tag_144:\n      0x60\n      swap2\n      pop\n    tag_143:\n      pop\n        /* \"FinalAuction.sol\":3709:3754  (success, ) = _bidder.call{value: refund}(\"\") */\n      pop\n      dup1\n      swap7\n      pop\n      pop\n        /* \"FinalAuction.sol\":3838:3845  success */\n      dup6\n        /* \"FinalAuction.sol\":3830:3872  require(success, \"Failure to send refund\") */\n      tag_145\n      jumpi\n      mload(0x40)\n      0x08c379a000000000000000000000000000000000000000000000000000000000\n      dup2\n      mstore\n      0x04\n      add\n      tag_146\n      swap1\n      tag_147\n      jump\t// in\n    tag_146:\n      mload(0x40)\n      dup1\n      swap2\n      sub\n      swap1\n      revert\n    tag_145:\n        /* \"FinalAuction.sol\":3374:3899  { // changedlogicbecause it was wrong... */\n      pop\n      pop\n      pop\n        /* \"FinalAuction.sol\":3343:3899  if (_bidder != _highestBidder) { // changedlogicbecause it was wrong... */\n    tag_136:\n        /* \"FinalAuction.sol\":3235:3910  {... */\n      pop\n        /* \"FinalAuction.sol\":3230:3233  i++ */\n      dup1\n      dup1\n      0x01\n      add\n      swap2\n      pop\n      pop\n        /* \"FinalAuction.sol\":3204:3910  for (uint i = 0; i < len; i++) {... */\n      jump(tag_129)\n    tag_130:\n      pop\n        /* \"FinalAuction.sol\":3920:3939  uint256 _highestBid */\n      0x00\n        /* \"FinalAuction.sol\":3942:3952  highestBid */\n      sload(0x03)\n        /* \"FinalAuction.sol\":3920:3952  uint256 _highestBid = highestBid */\n      swap1\n      pop\n        /* \"FinalAuction.sol\":3981:3995  _highestBidder */\n      dup3\n        /* \"FinalAuction.sol\":3968:4009  AuctionEnded(_highestBidder, _highestBid) */\n      0xffffffffffffffffffffffffffffffffffffffff\n      and\n      0xdaec4582d5d9595688c8c98545fdd1c696d41c6aeaeb636737e84ed2f5c00eda\n        /* \"FinalAuction.sol\":3997:4008  _highestBid */\n      dup3\n        /* \"FinalAuction.sol\":3968:4009  AuctionEnded(_highestBidder, _highestBid) */\n      mload(0x40)\n      tag_148\n      swap2\n      swap1\n      tag_53\n      jump\t// in\n    tag_148:\n      mload(0x40)\n      dup1\n      swap2\n      sub\n      swap1\n      log2\n        /* \"FinalAuction.sol\":4082:4088  seller */\n      0x01\n      0x00\n      swap1\n      sload\n      swap1\n      0x0100\n      exp\n      swap1\n      div\n      0xffffffffffffffffffffffffffffffffffffffff\n      and\n        /* \"FinalAuction.sol\":4082:4093  seller.call */\n      0xffffffffffffffffffffffffffffffffffffffff\n      and\n        /* \"FinalAuction.sol\":4101:4112  _highestBid */\n      dup2\n        /* \"FinalAuction.sol\":4082:4117  seller.call{value: _highestBid}(\"\") */\n      mload(0x40)\n      tag_149\n      swap1\n      tag_141\n      jump\t// in\n    tag_149:\n      0x00\n      mload(0x40)\n      dup1\n      dup4\n      sub\n      dup2\n      dup6\n      dup8\n      gas\n      call\n      swap3\n      pop\n      pop\n      pop\n      returndatasize\n      dup1\n      0x00\n      dup2\n      eq\n      tag_152\n      jumpi\n      mload(0x40)\n      swap2\n      pop\n      and(add(returndatasize, 0x3f), not(0x1f))\n      dup3\n      add\n      0x40\n      mstore\n      returndatasize\n      dup3\n      mstore\n      returndatasize\n      0x00\n      0x20\n      dup5\n      add\n      returndatacopy\n      jump(tag_151)\n    tag_152:\n      0x60\n      swap2\n      pop\n    tag_151:\n      pop\n        /* \"FinalAuction.sol\":4068:4117  (success, ) = seller.call{value: _highestBid}(\"\") */\n      pop\n      dup1\n      swap3\n      pop\n      pop\n        /* \"FinalAuction.sol\":4138:4145  success */\n      dup2\n        /* \"FinalAuction.sol\":4130:4172  require(success, \"Failure to send seller\") */\n      tag_153\n      jumpi\n      mload(0x40)\n      0x08c379a000000000000000000000000000000000000000000000000000000000\n      dup2\n      mstore\n      0x04\n      add\n      tag_154\n      swap1\n      tag_155\n      jump\t// in\n    tag_154:\n      mload(0x40)\n      dup1\n      swap2\n      sub\n      swap1\n      revert\n    tag_153:\n        /* \"FinalAuction.sol\":2838:4191  {... */\n      pop\n      pop\n      pop\n      pop\n        /* \"FinalAuction.sol\":2784:4191  function returnDeposits() external onlyOwner afterEnd {... */\n      jump\t// out\n        /* \"FinalAuction.sol\":624:644  Bidder[] public bids */\n    tag_46:\n      0x06\n      dup2\n      dup2\n      sload\n      dup2\n      lt\n      tag_156\n      jumpi\n      0x00\n      dup1\n      revert\n    tag_156:\n      swap1\n      0x00\n      mstore\n      keccak256(0x00, 0x20)\n      swap1\n      0x02\n      mul\n      add\n      0x00\n      swap2\n      pop\n      swap1\n      pop\n      dup1\n      0x00\n      add\n      0x00\n      swap1\n      sload\n      swap1\n      0x0100\n      exp\n      swap1\n      div\n      0xffffffffffffffffffffffffffffffffffffffff\n      and\n      swap1\n      dup1\n      0x01\n      add\n      sload\n      swap1\n      pop\n      dup3\n      jump\t// out\n        /* \"FinalAuction.sol\":211:240  uint256 public auctionEndTime */\n    tag_51:\n      sload(0x04)\n      dup2\n      jump\t// out\n        /* \"FinalAuction.sol\":1739:1825  function finishTime() external {... */\n    tag_56:\n        /* \"FinalAuction.sol\":1816:1817  1 */\n      0x01\n        /* \"FinalAuction.sol\":1798:1813  block.timestamp */\n      timestamp\n        /* \"FinalAuction.sol\":1798:1817  block.timestamp - 1 */\n      tag_159\n      swap2\n      swap1\n      tag_113\n      jump\t// in\n    tag_159:\n        /* \"FinalAuction.sol\":1781:1795  auctionEndTime */\n      0x04\n        /* \"FinalAuction.sol\":1781:1817  auctionEndTime = block.timestamp - 1 */\n      dup2\n      swap1\n      sstore\n      pop\n        /* \"FinalAuction.sol\":1739:1825  function finishTime() external {... */\n      jump\t// out\n        /* \"FinalAuction.sol\":286:332  uint256 public constant MINIMUM_INCREASE = 105 */\n    tag_59:\n        /* \"FinalAuction.sol\":329:332  105 */\n      0x69\n        /* \"FinalAuction.sol\":286:332  uint256 public constant MINIMUM_INCREASE = 105 */\n      dup2\n      jump\t// out\n        /* \"FinalAuction.sol\":5594:5895  function withdrawAll() external afterEnd onlyOwner {... */\n    tag_63:\n        /* \"FinalAuction.sol\":1317:1331  auctionEndTime */\n      sload(0x04)\n        /* \"FinalAuction.sol\":1298:1313  block.timestamp */\n      timestamp\n        /* \"FinalAuction.sol\":1298:1331  block.timestamp >= auctionEndTime */\n      lt\n      iszero\n        /* \"FinalAuction.sol\":1290:1357  require(block.timestamp >= auctionEndTime, \"Auction has not ended\") */\n      tag_161\n      jumpi\n      mload(0x40)\n      0x08c379a000000000000000000000000000000000000000000000000000000000\n      dup2\n      mstore\n      0x04\n      add\n      tag_162\n      swap1\n      tag_124\n      jump\t// in\n    tag_162:\n      mload(0x40)\n      dup1\n      swap2\n      sub\n      swap1\n      revert\n    tag_161:\n        /* \"FinalAuction.sol\":925:930  owner */\n      0x00\n      dup1\n      sload\n      swap1\n      0x0100\n      exp\n      swap1\n      div\n      0xffffffffffffffffffffffffffffffffffffffff\n      and\n        /* \"FinalAuction.sol\":911:930  msg.sender == owner */\n      0xffffffffffffffffffffffffffffffffffffffff\n      and\n        /* \"FinalAuction.sol\":911:921  msg.sender */\n      caller\n        /* \"FinalAuction.sol\":911:930  msg.sender == owner */\n      0xffffffffffffffffffffffffffffffffffffffff\n      and\n      eq\n        /* \"FinalAuction.sol\":903:956  require(msg.sender == owner, \"Not the auction owner\") */\n      tag_164\n      jumpi\n      mload(0x40)\n      0x08c379a000000000000000000000000000000000000000000000000000000000\n      dup2\n      mstore\n      0x04\n      add\n      tag_165\n      swap1\n      tag_120\n      jump\t// in\n    tag_165:\n      mload(0x40)\n      dup1\n      swap2\n      sub\n      swap1\n      revert\n    tag_164:\n        /* \"FinalAuction.sol\":5741:5753  bool success */\n      0x00\n        /* \"FinalAuction.sol\":5759:5764  owner */\n      dup1\n      0x00\n      swap1\n      sload\n      swap1\n      0x0100\n      exp\n      swap1\n      div\n      0xffffffffffffffffffffffffffffffffffffffff\n      and\n        /* \"FinalAuction.sol\":5759:5769  owner.call */\n      0xffffffffffffffffffffffffffffffffffffffff\n      and\n        /* \"FinalAuction.sol\":5777:5798  address(this).balance */\n      selfbalance\n        /* \"FinalAuction.sol\":5759:5803  owner.call{value: address(this).balance}(\"\") */\n      mload(0x40)\n      tag_167\n      swap1\n      tag_141\n      jump\t// in\n    tag_167:\n      0x00\n      mload(0x40)\n      dup1\n      dup4\n      sub\n      dup2\n      dup6\n      dup8\n      gas\n      call\n      swap3\n      pop\n      pop\n      pop\n      returndatasize\n      dup1\n      0x00\n      dup2\n      eq\n      tag_170\n      jumpi\n      mload(0x40)\n      swap2\n      pop\n      and(add(returndatasize, 0x3f), not(0x1f))\n      dup3\n      add\n      0x40\n      mstore\n      returndatasize\n      dup3\n      mstore\n      returndatasize\n      0x00\n      0x20\n      dup5\n      add\n      returndatacopy\n      jump(tag_169)\n    tag_170:\n      0x60\n      swap2\n      pop\n    tag_169:\n      pop\n        /* \"FinalAuction.sol\":5740:5803  (bool success, ) = owner.call{value: address(this).balance}(\"\") */\n      pop\n      swap1\n      pop\n        /* \"FinalAuction.sol\":5822:5829  success */\n      dup1\n        /* \"FinalAuction.sol\":5814:5861  require(success, \"fail to send funds to owner\") */\n      tag_171\n      jumpi\n      mload(0x40)\n      0x08c379a000000000000000000000000000000000000000000000000000000000\n      dup2\n      mstore\n      0x04\n      add\n      tag_172\n      swap1\n      tag_173\n      jump\t// in\n    tag_172:\n      mload(0x40)\n      dup1\n      swap2\n      sub\n      swap1\n      revert\n    tag_171:\n        /* \"FinalAuction.sol\":5645:5895  {... */\n      pop\n        /* \"FinalAuction.sol\":5594:5895  function withdrawAll() external afterEnd onlyOwner {... */\n      jump\t// out\n        /* \"FinalAuction.sol\":4287:5198  function withdrawPartial() external beforeEnd {... */\n    tag_66:\n        /* \"FinalAuction.sol\":1184:1198  auctionEndTime */\n      sload(0x04)\n        /* \"FinalAuction.sol\":1166:1181  block.timestamp */\n      timestamp\n        /* \"FinalAuction.sol\":1166:1198  block.timestamp < auctionEndTime */\n      lt\n        /* \"FinalAuction.sol\":1158:1220  require(block.timestamp < auctionEndTime, \"Auction has ended\") */\n      tag_175\n      jumpi\n      mload(0x40)\n      0x08c379a000000000000000000000000000000000000000000000000000000000\n      dup2\n      mstore\n      0x04\n      add\n      tag_176\n      swap1\n      tag_100\n      jump\t// in\n    tag_176:\n      mload(0x40)\n      dup1\n      swap2\n      sub\n      swap1\n      revert\n    tag_175:\n        /* \"FinalAuction.sol\":4344:4364  uint256 totalDeposit */\n      0x00\n        /* \"FinalAuction.sol\":4367:4375  deposits */\n      0x07\n        /* \"FinalAuction.sol\":4367:4387  deposits[msg.sender] */\n      0x00\n        /* \"FinalAuction.sol\":4376:4386  msg.sender */\n      caller\n        /* \"FinalAuction.sol\":4367:4387  deposits[msg.sender] */\n      0xffffffffffffffffffffffffffffffffffffffff\n      and\n      0xffffffffffffffffffffffffffffffffffffffff\n      and\n      dup2\n      mstore\n      0x20\n      add\n      swap1\n      dup2\n      mstore\n      0x20\n      add\n      0x00\n      keccak256\n      sload\n        /* \"FinalAuction.sol\":4344:4387  uint256 totalDeposit = deposits[msg.sender] */\n      swap1\n      pop\n        /* \"FinalAuction.sol\":4398:4419  uint256 lastBidAmount */\n      0x00\n        /* \"FinalAuction.sol\":4494:4500  uint i */\n      dup1\n        /* \"FinalAuction.sol\":4489:4653  for (uint i = 0; i < bids.length; i++) {... */\n    tag_178:\n        /* \"FinalAuction.sol\":4510:4514  bids */\n      0x06\n        /* \"FinalAuction.sol\":4510:4521  bids.length */\n      dup1\n      sload\n      swap1\n      pop\n        /* \"FinalAuction.sol\":4506:4507  i */\n      dup2\n        /* \"FinalAuction.sol\":4506:4521  i < bids.length */\n      lt\n        /* \"FinalAuction.sol\":4489:4653  for (uint i = 0; i < bids.length; i++) {... */\n      iszero\n      tag_179\n      jumpi\n        /* \"FinalAuction.sol\":4565:4575  msg.sender */\n      caller\n        /* \"FinalAuction.sol\":4547:4575  bids[i].bidder == msg.sender */\n      0xffffffffffffffffffffffffffffffffffffffff\n      and\n        /* \"FinalAuction.sol\":4547:4551  bids */\n      0x06\n        /* \"FinalAuction.sol\":4552:4553  i */\n      dup3\n        /* \"FinalAuction.sol\":4547:4554  bids[i] */\n      dup2\n      sload\n      dup2\n      lt\n      tag_181\n      jumpi\n      tag_182\n      tag_134\n      jump\t// in\n    tag_182:\n    tag_181:\n      swap1\n      0x00\n      mstore\n      keccak256(0x00, 0x20)\n      swap1\n      0x02\n      mul\n      add\n        /* \"FinalAuction.sol\":4547:4561  bids[i].bidder */\n      0x00\n      add\n      0x00\n      swap1\n      sload\n      swap1\n      0x0100\n      exp\n      swap1\n      div\n      0xffffffffffffffffffffffffffffffffffffffff\n      and\n        /* \"FinalAuction.sol\":4547:4575  bids[i].bidder == msg.sender */\n      0xffffffffffffffffffffffffffffffffffffffff\n      and\n      sub\n        /* \"FinalAuction.sol\":4543:4642  if (bids[i].bidder == msg.sender) {... */\n      tag_184\n      jumpi\n        /* \"FinalAuction.sol\":4612:4616  bids */\n      0x06\n        /* \"FinalAuction.sol\":4617:4618  i */\n      dup2\n        /* \"FinalAuction.sol\":4612:4619  bids[i] */\n      dup2\n      sload\n      dup2\n      lt\n      tag_185\n      jumpi\n      tag_186\n      tag_134\n      jump\t// in\n    tag_186:\n    tag_185:\n      swap1\n      0x00\n      mstore\n      keccak256(0x00, 0x20)\n      swap1\n      0x02\n      mul\n      add\n        /* \"FinalAuction.sol\":4612:4626  bids[i].amount */\n      0x01\n      add\n      sload\n        /* \"FinalAuction.sol\":4596:4626  lastBidAmount = bids[i].amount */\n      swap2\n      pop\n        /* \"FinalAuction.sol\":4543:4642  if (bids[i].bidder == msg.sender) {... */\n    tag_184:\n        /* \"FinalAuction.sol\":4523:4526  i++ */\n      dup1\n      dup1\n      0x01\n      add\n      swap2\n      pop\n      pop\n        /* \"FinalAuction.sol\":4489:4653  for (uint i = 0; i < bids.length; i++) {... */\n      jump(tag_178)\n    tag_179:\n      pop\n        /* \"FinalAuction.sol\":4688:4701  lastBidAmount */\n      dup1\n        /* \"FinalAuction.sol\":4673:4685  totalDeposit */\n      dup3\n        /* \"FinalAuction.sol\":4673:4701  totalDeposit > lastBidAmount */\n      gt\n        /* \"FinalAuction.sol\":4665:4733  require(totalDeposit > lastBidAmount, \"No excess funds to withdraw\") */\n      tag_188\n      jumpi\n      mload(0x40)\n      0x08c379a000000000000000000000000000000000000000000000000000000000\n      dup2\n      mstore\n      0x04\n      add\n      tag_189\n      swap1\n      tag_190\n      jump\t// in\n    tag_189:\n      mload(0x40)\n      dup1\n      swap2\n      sub\n      swap1\n      revert\n    tag_188:\n        /* \"FinalAuction.sol\":4796:4816  uint256 excessAmount */\n      0x00\n        /* \"FinalAuction.sol\":4834:4847  lastBidAmount */\n      dup2\n        /* \"FinalAuction.sol\":4819:4831  totalDeposit */\n      dup4\n        /* \"FinalAuction.sol\":4819:4847  totalDeposit - lastBidAmount */\n      tag_191\n      swap2\n      swap1\n      tag_113\n      jump\t// in\n    tag_191:\n        /* \"FinalAuction.sol\":4796:4847  uint256 excessAmount = totalDeposit - lastBidAmount */\n      swap1\n      pop\n        /* \"FinalAuction.sol\":4881:4894  lastBidAmount */\n      dup2\n        /* \"FinalAuction.sol\":4858:4866  deposits */\n      0x07\n        /* \"FinalAuction.sol\":4858:4878  deposits[msg.sender] */\n      0x00\n        /* \"FinalAuction.sol\":4867:4877  msg.sender */\n      caller\n        /* \"FinalAuction.sol\":4858:4878  deposits[msg.sender] */\n      0xffffffffffffffffffffffffffffffffffffffff\n      and\n      0xffffffffffffffffffffffffffffffffffffffff\n      and\n      dup2\n      mstore\n      0x20\n      add\n      swap1\n      dup2\n      mstore\n      0x20\n      add\n      0x00\n      keccak256\n        /* \"FinalAuction.sol\":4858:4894  deposits[msg.sender] = lastBidAmount */\n      dup2\n      swap1\n      sstore\n      pop\n        /* \"FinalAuction.sol\":4907:4918  uint256 fee */\n      0x00\n        /* \"FinalAuction.sol\":4955:4958  100 */\n      0x64\n        /* \"FinalAuction.sol\":488:489  2 */\n      0x02\n        /* \"FinalAuction.sol\":4922:4934  excessAmount */\n      dup4\n        /* \"FinalAuction.sol\":4922:4951  excessAmount * COMISSION_RATE */\n      tag_192\n      swap2\n      swap1\n      tag_103\n      jump\t// in\n    tag_192:\n        /* \"FinalAuction.sol\":4921:4958  (excessAmount * COMISSION_RATE) / 100 */\n      tag_193\n      swap2\n      swap1\n      tag_105\n      jump\t// in\n    tag_193:\n        /* \"FinalAuction.sol\":4907:4958  uint256 fee = (excessAmount * COMISSION_RATE) / 100 */\n      swap1\n      pop\n        /* \"FinalAuction.sol\":4997:5011  uint256 refund */\n      0x00\n        /* \"FinalAuction.sol\":5029:5032  fee */\n      dup2\n        /* \"FinalAuction.sol\":5014:5026  excessAmount */\n      dup4\n        /* \"FinalAuction.sol\":5014:5032  excessAmount - fee */\n      tag_194\n      swap2\n      swap1\n      tag_113\n      jump\t// in\n    tag_194:\n        /* \"FinalAuction.sol\":4997:5032  uint256 refund = excessAmount - fee */\n      swap1\n      pop\n        /* \"FinalAuction.sol\":5054:5066  bool success */\n      0x00\n        /* \"FinalAuction.sol\":5072:5082  msg.sender */\n      caller\n        /* \"FinalAuction.sol\":5072:5087  msg.sender.call */\n      0xffffffffffffffffffffffffffffffffffffffff\n      and\n        /* \"FinalAuction.sol\":5095:5101  refund */\n      dup3\n        /* \"FinalAuction.sol\":5072:5106  msg.sender.call{value: refund}(\"\") */\n      mload(0x40)\n      tag_195\n      swap1\n      tag_141\n      jump\t// in\n    tag_195:\n      0x00\n      mload(0x40)\n      dup1\n      dup4\n      sub\n      dup2\n      dup6\n      dup8\n      gas\n      call\n      swap3\n      pop\n      pop\n      pop\n      returndatasize\n      dup1\n      0x00\n      dup2\n      eq\n      tag_198\n      jumpi\n      mload(0x40)\n      swap2\n      pop\n      and(add(returndatasize, 0x3f), not(0x1f))\n      dup3\n      add\n      0x40\n      mstore\n      returndatasize\n      dup3\n      mstore\n      returndatasize\n      0x00\n      0x20\n      dup5\n      add\n      returndatacopy\n      jump(tag_197)\n    tag_198:\n      0x60\n      swap2\n      pop\n    tag_197:\n      pop\n        /* \"FinalAuction.sol\":5053:5106  (bool success, ) = msg.sender.call{value: refund}(\"\") */\n      pop\n      swap1\n      pop\n        /* \"FinalAuction.sol\":5125:5132  success */\n      dup1\n        /* \"FinalAuction.sol\":5117:5164  require(success, \"fail to send partial refund\") */\n      tag_199\n      jumpi\n      mload(0x40)\n      0x08c379a000000000000000000000000000000000000000000000000000000000\n      dup2\n      mstore\n      0x04\n      add\n      tag_200\n      swap1\n      tag_201\n      jump\t// in\n    tag_200:\n      mload(0x40)\n      dup1\n      swap2\n      sub\n      swap1\n      revert\n    tag_199:\n        /* \"FinalAuction.sol\":4333:5198  {... */\n      pop\n      pop\n      pop\n      pop\n      pop\n      pop\n        /* \"FinalAuction.sol\":4287:5198  function withdrawPartial() external beforeEnd {... */\n      jump\t// out\n        /* \"FinalAuction.sol\":89:109  address public owner */\n    tag_69:\n      0x00\n      dup1\n      sload\n      swap1\n      0x0100\n      exp\n      swap1\n      div\n      0xffffffffffffffffffffffffffffffffffffffff\n      and\n      dup2\n      jump\t// out\n        /* \"FinalAuction.sol\":144:172  address public highestBidder */\n    tag_73:\n      0x02\n      0x00\n      swap1\n      sload\n      swap1\n      0x0100\n      exp\n      swap1\n      div\n      0xffffffffffffffffffffffffffffffffffffffff\n      and\n      dup2\n      jump\t// out\n        /* \"FinalAuction.sol\":5907:6084  function showWinner() external view returns (address, uint256) {... */\n    tag_77:\n        /* \"FinalAuction.sol\":5952:5959  address */\n      0x00\n        /* \"FinalAuction.sol\":5961:5968  uint256 */\n      dup1\n        /* \"FinalAuction.sol\":5989:5994  ended */\n      0x05\n      0x00\n      swap1\n      sload\n      swap1\n      0x0100\n      exp\n      swap1\n      div\n      0xff\n      and\n        /* \"FinalAuction.sol\":5981:6020  require(ended, \"Auction has not ended\") */\n      tag_203\n      jumpi\n      mload(0x40)\n      0x08c379a000000000000000000000000000000000000000000000000000000000\n      dup2\n      mstore\n      0x04\n      add\n      tag_204\n      swap1\n      tag_124\n      jump\t// in\n    tag_204:\n      mload(0x40)\n      dup1\n      swap2\n      sub\n      swap1\n      revert\n    tag_203:\n        /* \"FinalAuction.sol\":6050:6063  highestBidder */\n      0x02\n      0x00\n      swap1\n      sload\n      swap1\n      0x0100\n      exp\n      swap1\n      div\n      0xffffffffffffffffffffffffffffffffffffffff\n      and\n        /* \"FinalAuction.sol\":6065:6075  highestBid */\n      sload(0x03)\n        /* \"FinalAuction.sol\":6042:6076  return (highestBidder, highestBid) */\n      swap2\n      pop\n      swap2\n      pop\n        /* \"FinalAuction.sol\":5907:6084  function showWinner() external view returns (address, uint256) {... */\n      swap1\n      swap2\n      jump\t// out\n        /* \"FinalAuction.sol\":179:204  uint256 public highestBid */\n    tag_81:\n      sload(0x03)\n      dup2\n      jump\t// out\n        /* \"FinalAuction.sol\":447:489  uint256 public constant COMISSION_RATE = 2 */\n    tag_85:\n        /* \"FinalAuction.sol\":488:489  2 */\n      0x02\n        /* \"FinalAuction.sol\":447:489  uint256 public constant COMISSION_RATE = 2 */\n      dup2\n      jump\t// out\n        /* \"FinalAuction.sol\":651:694  mapping(address => uint256) public deposits */\n    tag_91:\n      mstore(0x20, 0x07)\n      dup1\n      0x00\n      mstore\n      keccak256(0x00, 0x40)\n      0x00\n      swap2\n      pop\n      swap1\n      pop\n      sload\n      dup2\n      jump\t// out\n        /* \"#utility.yul\":7:133   */\n    tag_205:\n        /* \"#utility.yul\":44:51   */\n      0x00\n        /* \"#utility.yul\":84:126   */\n      0xffffffffffffffffffffffffffffffffffffffff\n        /* \"#utility.yul\":77:82   */\n      dup3\n        /* \"#utility.yul\":73:127   */\n      and\n        /* \"#utility.yul\":62:127   */\n      swap1\n      pop\n        /* \"#utility.yul\":7:133   */\n      swap2\n      swap1\n      pop\n      jump\t// out\n        /* \"#utility.yul\":139:235   */\n    tag_206:\n        /* \"#utility.yul\":176:183   */\n      0x00\n        /* \"#utility.yul\":205:229   */\n      tag_257\n        /* \"#utility.yul\":223:228   */\n      dup3\n        /* \"#utility.yul\":205:229   */\n      tag_205\n      jump\t// in\n    tag_257:\n        /* \"#utility.yul\":194:229   */\n      swap1\n      pop\n        /* \"#utility.yul\":139:235   */\n      swap2\n      swap1\n      pop\n      jump\t// out\n        /* \"#utility.yul\":241:359   */\n    tag_207:\n        /* \"#utility.yul\":328:352   */\n      tag_259\n        /* \"#utility.yul\":346:351   */\n      dup2\n        /* \"#utility.yul\":328:352   */\n      tag_206\n      jump\t// in\n    tag_259:\n        /* \"#utility.yul\":323:326   */\n      dup3\n        /* \"#utility.yul\":316:353   */\n      mstore\n        /* \"#utility.yul\":241:359   */\n      pop\n      pop\n      jump\t// out\n        /* \"#utility.yul\":365:587   */\n    tag_26:\n        /* \"#utility.yul\":458:462   */\n      0x00\n        /* \"#utility.yul\":496:498   */\n      0x20\n        /* \"#utility.yul\":485:494   */\n      dup3\n        /* \"#utility.yul\":481:499   */\n      add\n        /* \"#utility.yul\":473:499   */\n      swap1\n      pop\n        /* \"#utility.yul\":509:580   */\n      tag_261\n        /* \"#utility.yul\":577:578   */\n      0x00\n        /* \"#utility.yul\":566:575   */\n      dup4\n        /* \"#utility.yul\":562:579   */\n      add\n        /* \"#utility.yul\":553:559   */\n      dup5\n        /* \"#utility.yul\":509:580   */\n      tag_207\n      jump\t// in\n    tag_261:\n        /* \"#utility.yul\":365:587   */\n      swap3\n      swap2\n      pop\n      pop\n      jump\t// out\n        /* \"#utility.yul\":593:683   */\n    tag_208:\n        /* \"#utility.yul\":627:634   */\n      0x00\n        /* \"#utility.yul\":670:675   */\n      dup2\n        /* \"#utility.yul\":663:676   */\n      iszero\n        /* \"#utility.yul\":656:677   */\n      iszero\n        /* \"#utility.yul\":645:677   */\n      swap1\n      pop\n        /* \"#utility.yul\":593:683   */\n      swap2\n      swap1\n      pop\n      jump\t// out\n        /* \"#utility.yul\":689:798   */\n    tag_209:\n        /* \"#utility.yul\":770:791   */\n      tag_264\n        /* \"#utility.yul\":785:790   */\n      dup2\n        /* \"#utility.yul\":770:791   */\n      tag_208\n      jump\t// in\n    tag_264:\n        /* \"#utility.yul\":765:768   */\n      dup3\n        /* \"#utility.yul\":758:792   */\n      mstore\n        /* \"#utility.yul\":689:798   */\n      pop\n      pop\n      jump\t// out\n        /* \"#utility.yul\":804:1014   */\n    tag_31:\n        /* \"#utility.yul\":891:895   */\n      0x00\n        /* \"#utility.yul\":929:931   */\n      0x20\n        /* \"#utility.yul\":918:927   */\n      dup3\n        /* \"#utility.yul\":914:932   */\n      add\n        /* \"#utility.yul\":906:932   */\n      swap1\n      pop\n        /* \"#utility.yul\":942:1007   */\n      tag_266\n        /* \"#utility.yul\":1004:1005   */\n      0x00\n        /* \"#utility.yul\":993:1002   */\n      dup4\n        /* \"#utility.yul\":989:1006   */\n      add\n        /* \"#utility.yul\":980:986   */\n      dup5\n        /* \"#utility.yul\":942:1007   */\n      tag_209\n      jump\t// in\n    tag_266:\n        /* \"#utility.yul\":804:1014   */\n      swap3\n      swap2\n      pop\n      pop\n      jump\t// out\n        /* \"#utility.yul\":1020:1156   */\n    tag_210:\n        /* \"#utility.yul\":1109:1115   */\n      0x00\n        /* \"#utility.yul\":1143:1148   */\n      dup2\n        /* \"#utility.yul\":1137:1149   */\n      mload\n        /* \"#utility.yul\":1127:1149   */\n      swap1\n      pop\n        /* \"#utility.yul\":1020:1156   */\n      swap2\n      swap1\n      pop\n      jump\t// out\n        /* \"#utility.yul\":1162:1368   */\n    tag_211:\n        /* \"#utility.yul\":1283:1294   */\n      0x00\n        /* \"#utility.yul\":1317:1323   */\n      dup3\n        /* \"#utility.yul\":1312:1315   */\n      dup3\n        /* \"#utility.yul\":1305:1324   */\n      mstore\n        /* \"#utility.yul\":1357:1361   */\n      0x20\n        /* \"#utility.yul\":1352:1355   */\n      dup3\n        /* \"#utility.yul\":1348:1362   */\n      add\n        /* \"#utility.yul\":1333:1362   */\n      swap1\n      pop\n        /* \"#utility.yul\":1162:1368   */\n      swap3\n      swap2\n      pop\n      pop\n      jump\t// out\n        /* \"#utility.yul\":1374:1528   */\n    tag_212:\n        /* \"#utility.yul\":1463:1467   */\n      0x00\n        /* \"#utility.yul\":1486:1489   */\n      dup2\n        /* \"#utility.yul\":1478:1489   */\n      swap1\n      pop\n        /* \"#utility.yul\":1516:1520   */\n      0x20\n        /* \"#utility.yul\":1511:1514   */\n      dup3\n        /* \"#utility.yul\":1507:1521   */\n      add\n        /* \"#utility.yul\":1499:1521   */\n      swap1\n      pop\n        /* \"#utility.yul\":1374:1528   */\n      swap2\n      swap1\n      pop\n      jump\t// out\n        /* \"#utility.yul\":1534:1642   */\n    tag_213:\n        /* \"#utility.yul\":1611:1635   */\n      tag_271\n        /* \"#utility.yul\":1629:1634   */\n      dup2\n        /* \"#utility.yul\":1611:1635   */\n      tag_206\n      jump\t// in\n    tag_271:\n        /* \"#utility.yul\":1606:1609   */\n      dup3\n        /* \"#utility.yul\":1599:1636   */\n      mstore\n        /* \"#utility.yul\":1534:1642   */\n      pop\n      pop\n      jump\t// out\n        /* \"#utility.yul\":1648:1725   */\n    tag_214:\n        /* \"#utility.yul\":1685:1692   */\n      0x00\n        /* \"#utility.yul\":1714:1719   */\n      dup2\n        /* \"#utility.yul\":1703:1719   */\n      swap1\n      pop\n        /* \"#utility.yul\":1648:1725   */\n      swap2\n      swap1\n      pop\n      jump\t// out\n        /* \"#utility.yul\":1731:1839   */\n    tag_215:\n        /* \"#utility.yul\":1808:1832   */\n      tag_274\n        /* \"#utility.yul\":1826:1831   */\n      dup2\n        /* \"#utility.yul\":1808:1832   */\n      tag_214\n      jump\t// in\n    tag_274:\n        /* \"#utility.yul\":1803:1806   */\n      dup3\n        /* \"#utility.yul\":1796:1833   */\n      mstore\n        /* \"#utility.yul\":1731:1839   */\n      pop\n      pop\n      jump\t// out\n        /* \"#utility.yul\":1909:2404   */\n    tag_216:\n        /* \"#utility.yul\":2040:2044   */\n      0x40\n        /* \"#utility.yul\":2035:2038   */\n      dup3\n        /* \"#utility.yul\":2031:2045   */\n      add\n        /* \"#utility.yul\":2129:2133   */\n      0x00\n        /* \"#utility.yul\":2122:2127   */\n      dup3\n        /* \"#utility.yul\":2118:2134   */\n      add\n        /* \"#utility.yul\":2112:2135   */\n      mload\n        /* \"#utility.yul\":2148:2211   */\n      tag_276\n        /* \"#utility.yul\":2205:2209   */\n      0x00\n        /* \"#utility.yul\":2200:2203   */\n      dup6\n        /* \"#utility.yul\":2196:2210   */\n      add\n        /* \"#utility.yul\":2182:2194   */\n      dup3\n        /* \"#utility.yul\":2148:2211   */\n      tag_213\n      jump\t// in\n    tag_276:\n        /* \"#utility.yul\":2055:2221   */\n      pop\n        /* \"#utility.yul\":2305:2309   */\n      0x20\n        /* \"#utility.yul\":2298:2303   */\n      dup3\n        /* \"#utility.yul\":2294:2310   */\n      add\n        /* \"#utility.yul\":2288:2311   */\n      mload\n        /* \"#utility.yul\":2324:2387   */\n      tag_277\n        /* \"#utility.yul\":2381:2385   */\n      0x20\n        /* \"#utility.yul\":2376:2379   */\n      dup6\n        /* \"#utility.yul\":2372:2386   */\n      add\n        /* \"#utility.yul\":2358:2370   */\n      dup3\n        /* \"#utility.yul\":2324:2387   */\n      tag_215\n      jump\t// in\n    tag_277:\n        /* \"#utility.yul\":2231:2397   */\n      pop\n        /* \"#utility.yul\":2009:2404   */\n      pop\n        /* \"#utility.yul\":1909:2404   */\n      pop\n      pop\n      jump\t// out\n        /* \"#utility.yul\":2410:2677   */\n    tag_217:\n        /* \"#utility.yul\":2523:2533   */\n      0x00\n        /* \"#utility.yul\":2544:2634   */\n      tag_279\n        /* \"#utility.yul\":2630:2633   */\n      dup4\n        /* \"#utility.yul\":2622:2628   */\n      dup4\n        /* \"#utility.yul\":2544:2634   */\n      tag_216\n      jump\t// in\n    tag_279:\n        /* \"#utility.yul\":2666:2670   */\n      0x40\n        /* \"#utility.yul\":2661:2664   */\n      dup4\n        /* \"#utility.yul\":2657:2671   */\n      add\n        /* \"#utility.yul\":2643:2671   */\n      swap1\n      pop\n        /* \"#utility.yul\":2410:2677   */\n      swap3\n      swap2\n      pop\n      pop\n      jump\t// out\n        /* \"#utility.yul\":2683:2818   */\n    tag_218:\n        /* \"#utility.yul\":2775:2779   */\n      0x00\n        /* \"#utility.yul\":2807:2811   */\n      0x20\n        /* \"#utility.yul\":2802:2805   */\n      dup3\n        /* \"#utility.yul\":2798:2812   */\n      add\n        /* \"#utility.yul\":2790:2812   */\n      swap1\n      pop\n        /* \"#utility.yul\":2683:2818   */\n      swap2\n      swap1\n      pop\n      jump\t// out\n        /* \"#utility.yul\":2892:3800   */\n    tag_219:\n        /* \"#utility.yul\":3055:3058   */\n      0x00\n        /* \"#utility.yul\":3084:3160   */\n      tag_282\n        /* \"#utility.yul\":3154:3159   */\n      dup3\n        /* \"#utility.yul\":3084:3160   */\n      tag_210\n      jump\t// in\n    tag_282:\n        /* \"#utility.yul\":3176:3284   */\n      tag_283\n        /* \"#utility.yul\":3277:3283   */\n      dup2\n        /* \"#utility.yul\":3272:3275   */\n      dup6\n        /* \"#utility.yul\":3176:3284   */\n      tag_211\n      jump\t// in\n    tag_283:\n        /* \"#utility.yul\":3169:3284   */\n      swap4\n      pop\n        /* \"#utility.yul\":3308:3386   */\n      tag_284\n        /* \"#utility.yul\":3380:3385   */\n      dup4\n        /* \"#utility.yul\":3308:3386   */\n      tag_212\n      jump\t// in\n    tag_284:\n        /* \"#utility.yul\":3409:3416   */\n      dup1\n        /* \"#utility.yul\":3440:3441   */\n      0x00\n        /* \"#utility.yul\":3425:3775   */\n    tag_285:\n        /* \"#utility.yul\":3450:3456   */\n      dup4\n        /* \"#utility.yul\":3447:3448   */\n      dup2\n        /* \"#utility.yul\":3444:3457   */\n      lt\n        /* \"#utility.yul\":3425:3775   */\n      iszero\n      tag_287\n      jumpi\n        /* \"#utility.yul\":3526:3532   */\n      dup2\n        /* \"#utility.yul\":3520:3533   */\n      mload\n        /* \"#utility.yul\":3553:3660   */\n      tag_288\n        /* \"#utility.yul\":3656:3659   */\n      dup9\n        /* \"#utility.yul\":3641:3654   */\n      dup3\n        /* \"#utility.yul\":3553:3660   */\n      tag_217\n      jump\t// in\n    tag_288:\n        /* \"#utility.yul\":3546:3660   */\n      swap8\n      pop\n        /* \"#utility.yul\":3683:3765   */\n      tag_289\n        /* \"#utility.yul\":3758:3764   */\n      dup4\n        /* \"#utility.yul\":3683:3765   */\n      tag_218\n      jump\t// in\n    tag_289:\n        /* \"#utility.yul\":3673:3765   */\n      swap3\n      pop\n        /* \"#utility.yul\":3485:3775   */\n      pop\n        /* \"#utility.yul\":3472:3473   */\n      0x01\n        /* \"#utility.yul\":3469:3470   */\n      dup2\n        /* \"#utility.yul\":3465:3474   */\n      add\n        /* \"#utility.yul\":3460:3474   */\n      swap1\n      pop\n        /* \"#utility.yul\":3425:3775   */\n      jump(tag_285)\n    tag_287:\n        /* \"#utility.yul\":3429:3443   */\n      pop\n        /* \"#utility.yul\":3791:3794   */\n      dup6\n        /* \"#utility.yul\":3784:3794   */\n      swap4\n      pop\n        /* \"#utility.yul\":3060:3800   */\n      pop\n      pop\n      pop\n        /* \"#utility.yul\":2892:3800   */\n      swap3\n      swap2\n      pop\n      pop\n      jump\t// out\n        /* \"#utility.yul\":3806:4267   */\n    tag_36:\n        /* \"#utility.yul\":3993:3997   */\n      0x00\n        /* \"#utility.yul\":4031:4033   */\n      0x20\n        /* \"#utility.yul\":4020:4029   */\n      dup3\n        /* \"#utility.yul\":4016:4034   */\n      add\n        /* \"#utility.yul\":4008:4034   */\n      swap1\n      pop\n        /* \"#utility.yul\":4080:4089   */\n      dup2\n        /* \"#utility.yul\":4074:4078   */\n      dup2\n        /* \"#utility.yul\":4070:4090   */\n      sub\n        /* \"#utility.yul\":4066:4067   */\n      0x00\n        /* \"#utility.yul\":4055:4064   */\n      dup4\n        /* \"#utility.yul\":4051:4068   */\n      add\n        /* \"#utility.yul\":4044:4091   */\n      mstore\n        /* \"#utility.yul\":4108:4260   */\n      tag_291\n        /* \"#utility.yul\":4255:4259   */\n      dup2\n        /* \"#utility.yul\":4246:4252   */\n      dup5\n        /* \"#utility.yul\":4108:4260   */\n      tag_219\n      jump\t// in\n    tag_291:\n        /* \"#utility.yul\":4100:4260   */\n      swap1\n      pop\n        /* \"#utility.yul\":3806:4267   */\n      swap3\n      swap2\n      pop\n      pop\n      jump\t// out\n        /* \"#utility.yul\":4354:4471   */\n    tag_221:\n        /* \"#utility.yul\":4463:4464   */\n      0x00\n        /* \"#utility.yul\":4460:4461   */\n      dup1\n        /* \"#utility.yul\":4453:4465   */\n      revert\n        /* \"#utility.yul\":4600:4722   */\n    tag_223:\n        /* \"#utility.yul\":4673:4697   */\n      tag_296\n        /* \"#utility.yul\":4691:4696   */\n      dup2\n        /* \"#utility.yul\":4673:4697   */\n      tag_214\n      jump\t// in\n    tag_296:\n        /* \"#utility.yul\":4666:4671   */\n      dup2\n        /* \"#utility.yul\":4663:4698   */\n      eq\n        /* \"#utility.yul\":4653:4716   */\n      tag_297\n      jumpi\n        /* \"#utility.yul\":4712:4713   */\n      0x00\n        /* \"#utility.yul\":4709:4710   */\n      dup1\n        /* \"#utility.yul\":4702:4714   */\n      revert\n        /* \"#utility.yul\":4653:4716   */\n    tag_297:\n        /* \"#utility.yul\":4600:4722   */\n      pop\n      jump\t// out\n        /* \"#utility.yul\":4728:4867   */\n    tag_224:\n        /* \"#utility.yul\":4774:4779   */\n      0x00\n        /* \"#utility.yul\":4812:4818   */\n      dup2\n        /* \"#utility.yul\":4799:4819   */\n      calldataload\n        /* \"#utility.yul\":4790:4819   */\n      swap1\n      pop\n        /* \"#utility.yul\":4828:4861   */\n      tag_299\n        /* \"#utility.yul\":4855:4860   */\n      dup2\n        /* \"#utility.yul\":4828:4861   */\n      tag_223\n      jump\t// in\n    tag_299:\n        /* \"#utility.yul\":4728:4867   */\n      swap3\n      swap2\n      pop\n      pop\n      jump\t// out\n        /* \"#utility.yul\":4873:5202   */\n    tag_45:\n        /* \"#utility.yul\":4932:4938   */\n      0x00\n        /* \"#utility.yul\":4981:4983   */\n      0x20\n        /* \"#utility.yul\":4969:4978   */\n      dup3\n        /* \"#utility.yul\":4960:4967   */\n      dup5\n        /* \"#utility.yul\":4956:4979   */\n      sub\n        /* \"#utility.yul\":4952:4984   */\n      slt\n        /* \"#utility.yul\":4949:5068   */\n      iszero\n      tag_301\n      jumpi\n        /* \"#utility.yul\":4987:5066   */\n      tag_302\n      tag_221\n      jump\t// in\n    tag_302:\n        /* \"#utility.yul\":4949:5068   */\n    tag_301:\n        /* \"#utility.yul\":5107:5108   */\n      0x00\n        /* \"#utility.yul\":5132:5185   */\n      tag_303\n        /* \"#utility.yul\":5177:5184   */\n      dup5\n        /* \"#utility.yul\":5168:5174   */\n      dup3\n        /* \"#utility.yul\":5157:5166   */\n      dup6\n        /* \"#utility.yul\":5153:5175   */\n      add\n        /* \"#utility.yul\":5132:5185   */\n      tag_224\n      jump\t// in\n    tag_303:\n        /* \"#utility.yul\":5122:5185   */\n      swap2\n      pop\n        /* \"#utility.yul\":5078:5195   */\n      pop\n        /* \"#utility.yul\":4873:5202   */\n      swap3\n      swap2\n      pop\n      pop\n      jump\t// out\n        /* \"#utility.yul\":5208:5326   */\n    tag_225:\n        /* \"#utility.yul\":5295:5319   */\n      tag_305\n        /* \"#utility.yul\":5313:5318   */\n      dup2\n        /* \"#utility.yul\":5295:5319   */\n      tag_214\n      jump\t// in\n    tag_305:\n        /* \"#utility.yul\":5290:5293   */\n      dup3\n        /* \"#utility.yul\":5283:5320   */\n      mstore\n        /* \"#utility.yul\":5208:5326   */\n      pop\n      pop\n      jump\t// out\n        /* \"#utility.yul\":5332:5664   */\n    tag_48:\n        /* \"#utility.yul\":5453:5457   */\n      0x00\n        /* \"#utility.yul\":5491:5493   */\n      0x40\n        /* \"#utility.yul\":5480:5489   */\n      dup3\n        /* \"#utility.yul\":5476:5494   */\n      add\n        /* \"#utility.yul\":5468:5494   */\n      swap1\n      pop\n        /* \"#utility.yul\":5504:5575   */\n      tag_307\n        /* \"#utility.yul\":5572:5573   */\n      0x00\n        /* \"#utility.yul\":5561:5570   */\n      dup4\n        /* \"#utility.yul\":5557:5574   */\n      add\n        /* \"#utility.yul\":5548:5554   */\n      dup6\n        /* \"#utility.yul\":5504:5575   */\n      tag_207\n      jump\t// in\n    tag_307:\n        /* \"#utility.yul\":5585:5657   */\n      tag_308\n        /* \"#utility.yul\":5653:5655   */\n      0x20\n        /* \"#utility.yul\":5642:5651   */\n      dup4\n        /* \"#utility.yul\":5638:5656   */\n      add\n        /* \"#utility.yul\":5629:5635   */\n      dup5\n        /* \"#utility.yul\":5585:5657   */\n      tag_225\n      jump\t// in\n    tag_308:\n        /* \"#utility.yul\":5332:5664   */\n      swap4\n      swap3\n      pop\n      pop\n      pop\n      jump\t// out\n        /* \"#utility.yul\":5670:5892   */\n    tag_53:\n        /* \"#utility.yul\":5763:5767   */\n      0x00\n        /* \"#utility.yul\":5801:5803   */\n      0x20\n        /* \"#utility.yul\":5790:5799   */\n      dup3\n        /* \"#utility.yul\":5786:5804   */\n      add\n        /* \"#utility.yul\":5778:5804   */\n      swap1\n      pop\n        /* \"#utility.yul\":5814:5885   */\n      tag_310\n        /* \"#utility.yul\":5882:5883   */\n      0x00\n        /* \"#utility.yul\":5871:5880   */\n      dup4\n        /* \"#utility.yul\":5867:5884   */\n      add\n        /* \"#utility.yul\":5858:5864   */\n      dup5\n        /* \"#utility.yul\":5814:5885   */\n      tag_225\n      jump\t// in\n    tag_310:\n        /* \"#utility.yul\":5670:5892   */\n      swap3\n      swap2\n      pop\n      pop\n      jump\t// out\n        /* \"#utility.yul\":5898:6020   */\n    tag_226:\n        /* \"#utility.yul\":5971:5995   */\n      tag_312\n        /* \"#utility.yul\":5989:5994   */\n      dup2\n        /* \"#utility.yul\":5971:5995   */\n      tag_206\n      jump\t// in\n    tag_312:\n        /* \"#utility.yul\":5964:5969   */\n      dup2\n        /* \"#utility.yul\":5961:5996   */\n      eq\n        /* \"#utility.yul\":5951:6014   */\n      tag_313\n      jumpi\n        /* \"#utility.yul\":6010:6011   */\n      0x00\n        /* \"#utility.yul\":6007:6008   */\n      dup1\n        /* \"#utility.yul\":6000:6012   */\n      revert\n        /* \"#utility.yul\":5951:6014   */\n    tag_313:\n        /* \"#utility.yul\":5898:6020   */\n      pop\n      jump\t// out\n        /* \"#utility.yul\":6026:6165   */\n    tag_227:\n        /* \"#utility.yul\":6072:6077   */\n      0x00\n        /* \"#utility.yul\":6110:6116   */\n      dup2\n        /* \"#utility.yul\":6097:6117   */\n      calldataload\n        /* \"#utility.yul\":6088:6117   */\n      swap1\n      pop\n        /* \"#utility.yul\":6126:6159   */\n      tag_315\n        /* \"#utility.yul\":6153:6158   */\n      dup2\n        /* \"#utility.yul\":6126:6159   */\n      tag_226\n      jump\t// in\n    tag_315:\n        /* \"#utility.yul\":6026:6165   */\n      swap3\n      swap2\n      pop\n      pop\n      jump\t// out\n        /* \"#utility.yul\":6171:6500   */\n    tag_90:\n        /* \"#utility.yul\":6230:6236   */\n      0x00\n        /* \"#utility.yul\":6279:6281   */\n      0x20\n        /* \"#utility.yul\":6267:6276   */\n      dup3\n        /* \"#utility.yul\":6258:6265   */\n      dup5\n        /* \"#utility.yul\":6254:6277   */\n      sub\n        /* \"#utility.yul\":6250:6282   */\n      slt\n        /* \"#utility.yul\":6247:6366   */\n      iszero\n      tag_317\n      jumpi\n        /* \"#utility.yul\":6285:6364   */\n      tag_318\n      tag_221\n      jump\t// in\n    tag_318:\n        /* \"#utility.yul\":6247:6366   */\n    tag_317:\n        /* \"#utility.yul\":6405:6406   */\n      0x00\n        /* \"#utility.yul\":6430:6483   */\n      tag_319\n        /* \"#utility.yul\":6475:6482   */\n      dup5\n        /* \"#utility.yul\":6466:6472   */\n      dup3\n        /* \"#utility.yul\":6455:6464   */\n      dup6\n        /* \"#utility.yul\":6451:6473   */\n      add\n        /* \"#utility.yul\":6430:6483   */\n      tag_227\n      jump\t// in\n    tag_319:\n        /* \"#utility.yul\":6420:6483   */\n      swap2\n      pop\n        /* \"#utility.yul\":6376:6493   */\n      pop\n        /* \"#utility.yul\":6171:6500   */\n      swap3\n      swap2\n      pop\n      pop\n      jump\t// out\n        /* \"#utility.yul\":6506:6675   */\n    tag_228:\n        /* \"#utility.yul\":6590:6601   */\n      0x00\n        /* \"#utility.yul\":6624:6630   */\n      dup3\n        /* \"#utility.yul\":6619:6622   */\n      dup3\n        /* \"#utility.yul\":6612:6631   */\n      mstore\n        /* \"#utility.yul\":6664:6668   */\n      0x20\n        /* \"#utility.yul\":6659:6662   */\n      dup3\n        /* \"#utility.yul\":6655:6669   */\n      add\n        /* \"#utility.yul\":6640:6669   */\n      swap1\n      pop\n        /* \"#utility.yul\":6506:6675   */\n      swap3\n      swap2\n      pop\n      pop\n      jump\t// out\n        /* \"#utility.yul\":6681:6848   */\n    tag_229:\n        /* \"#utility.yul\":6821:6840   */\n      0x41756374696f6e2068617320656e646564000000000000000000000000000000\n        /* \"#utility.yul\":6817:6818   */\n      0x00\n        /* \"#utility.yul\":6809:6815   */\n      dup3\n        /* \"#utility.yul\":6805:6819   */\n      add\n        /* \"#utility.yul\":6798:6841   */\n      mstore\n        /* \"#utility.yul\":6681:6848   */\n      pop\n      jump\t// out\n        /* \"#utility.yul\":6854:7220   */\n    tag_230:\n        /* \"#utility.yul\":6996:6999   */\n      0x00\n        /* \"#utility.yul\":7017:7084   */\n      tag_323\n        /* \"#utility.yul\":7081:7083   */\n      0x11\n        /* \"#utility.yul\":7076:7079   */\n      dup4\n        /* \"#utility.yul\":7017:7084   */\n      tag_228\n      jump\t// in\n    tag_323:\n        /* \"#utility.yul\":7010:7084   */\n      swap2\n      pop\n        /* \"#utility.yul\":7093:7186   */\n      tag_324\n        /* \"#utility.yul\":7182:7185   */\n      dup3\n        /* \"#utility.yul\":7093:7186   */\n      tag_229\n      jump\t// in\n    tag_324:\n        /* \"#utility.yul\":7211:7213   */\n      0x20\n        /* \"#utility.yul\":7206:7209   */\n      dup3\n        /* \"#utility.yul\":7202:7214   */\n      add\n        /* \"#utility.yul\":7195:7214   */\n      swap1\n      pop\n        /* \"#utility.yul\":6854:7220   */\n      swap2\n      swap1\n      pop\n      jump\t// out\n        /* \"#utility.yul\":7226:7645   */\n    tag_100:\n        /* \"#utility.yul\":7392:7396   */\n      0x00\n        /* \"#utility.yul\":7430:7432   */\n      0x20\n        /* \"#utility.yul\":7419:7428   */\n      dup3\n        /* \"#utility.yul\":7415:7433   */\n      add\n        /* \"#utility.yul\":7407:7433   */\n      swap1\n      pop\n        /* \"#utility.yul\":7479:7488   */\n      dup2\n        /* \"#utility.yul\":7473:7477   */\n      dup2\n        /* \"#utility.yul\":7469:7489   */\n      sub\n        /* \"#utility.yul\":7465:7466   */\n      0x00\n        /* \"#utility.yul\":7454:7463   */\n      dup4\n        /* \"#utility.yul\":7450:7467   */\n      add\n        /* \"#utility.yul\":7443:7490   */\n      mstore\n        /* \"#utility.yul\":7507:7638   */\n      tag_326\n        /* \"#utility.yul\":7633:7637   */\n      dup2\n        /* \"#utility.yul\":7507:7638   */\n      tag_230\n      jump\t// in\n    tag_326:\n        /* \"#utility.yul\":7499:7638   */\n      swap1\n      pop\n        /* \"#utility.yul\":7226:7645   */\n      swap2\n      swap1\n      pop\n      jump\t// out\n        /* \"#utility.yul\":7651:7831   */\n    tag_231:\n        /* \"#utility.yul\":7699:7776   */\n      0x4e487b7100000000000000000000000000000000000000000000000000000000\n        /* \"#utility.yul\":7696:7697   */\n      0x00\n        /* \"#utility.yul\":7689:7777   */\n      mstore\n        /* \"#utility.yul\":7796:7800   */\n      0x11\n        /* \"#utility.yul\":7793:7794   */\n      0x04\n        /* \"#utility.yul\":7786:7801   */\n      mstore\n        /* \"#utility.yul\":7820:7824   */\n      0x24\n        /* \"#utility.yul\":7817:7818   */\n      0x00\n        /* \"#utility.yul\":7810:7825   */\n      revert\n        /* \"#utility.yul\":7837:8247   */\n    tag_103:\n        /* \"#utility.yul\":7877:7884   */\n      0x00\n        /* \"#utility.yul\":7900:7920   */\n      tag_329\n        /* \"#utility.yul\":7918:7919   */\n      dup3\n        /* \"#utility.yul\":7900:7920   */\n      tag_214\n      jump\t// in\n    tag_329:\n        /* \"#utility.yul\":7895:7920   */\n      swap2\n      pop\n        /* \"#utility.yul\":7934:7954   */\n      tag_330\n        /* \"#utility.yul\":7952:7953   */\n      dup4\n        /* \"#utility.yul\":7934:7954   */\n      tag_214\n      jump\t// in\n    tag_330:\n        /* \"#utility.yul\":7929:7954   */\n      swap3\n      pop\n        /* \"#utility.yul\":7989:7990   */\n      dup3\n        /* \"#utility.yul\":7986:7987   */\n      dup3\n        /* \"#utility.yul\":7982:7991   */\n      mul\n        /* \"#utility.yul\":8011:8041   */\n      tag_331\n        /* \"#utility.yul\":8029:8040   */\n      dup2\n        /* \"#utility.yul\":8011:8041   */\n      tag_214\n      jump\t// in\n    tag_331:\n        /* \"#utility.yul\":8000:8041   */\n      swap2\n      pop\n        /* \"#utility.yul\":8190:8191   */\n      dup3\n        /* \"#utility.yul\":8181:8188   */\n      dup3\n        /* \"#utility.yul\":8177:8192   */\n      div\n        /* \"#utility.yul\":8174:8175   */\n      dup5\n        /* \"#utility.yul\":8171:8193   */\n      eq\n        /* \"#utility.yul\":8151:8152   */\n      dup4\n        /* \"#utility.yul\":8144:8153   */\n      iszero\n        /* \"#utility.yul\":8124:8207   */\n      or\n        /* \"#utility.yul\":8101:8240   */\n      tag_332\n      jumpi\n        /* \"#utility.yul\":8220:8238   */\n      tag_333\n      tag_231\n      jump\t// in\n    tag_333:\n        /* \"#utility.yul\":8101:8240   */\n    tag_332:\n        /* \"#utility.yul\":7885:8247   */\n      pop\n        /* \"#utility.yul\":7837:8247   */\n      swap3\n      swap2\n      pop\n      pop\n      jump\t// out\n        /* \"#utility.yul\":8253:8433   */\n    tag_232:\n        /* \"#utility.yul\":8301:8378   */\n      0x4e487b7100000000000000000000000000000000000000000000000000000000\n        /* \"#utility.yul\":8298:8299   */\n      0x00\n        /* \"#utility.yul\":8291:8379   */\n      mstore\n        /* \"#utility.yul\":8398:8402   */\n      0x12\n        /* \"#utility.yul\":8395:8396   */\n      0x04\n        /* \"#utility.yul\":8388:8403   */\n      mstore\n        /* \"#utility.yul\":8422:8426   */\n      0x24\n        /* \"#utility.yul\":8419:8420   */\n      0x00\n        /* \"#utility.yul\":8412:8427   */\n      revert\n        /* \"#utility.yul\":8439:8624   */\n    tag_105:\n        /* \"#utility.yul\":8479:8480   */\n      0x00\n        /* \"#utility.yul\":8496:8516   */\n      tag_336\n        /* \"#utility.yul\":8514:8515   */\n      dup3\n        /* \"#utility.yul\":8496:8516   */\n      tag_214\n      jump\t// in\n    tag_336:\n        /* \"#utility.yul\":8491:8516   */\n      swap2\n      pop\n        /* \"#utility.yul\":8530:8550   */\n      tag_337\n        /* \"#utility.yul\":8548:8549   */\n      dup4\n        /* \"#utility.yul\":8530:8550   */\n      tag_214\n      jump\t// in\n    tag_337:\n        /* \"#utility.yul\":8525:8550   */\n      swap3\n      pop\n        /* \"#utility.yul\":8569:8570   */\n      dup3\n        /* \"#utility.yul\":8559:8594   */\n      tag_338\n      jumpi\n        /* \"#utility.yul\":8574:8592   */\n      tag_339\n      tag_232\n      jump\t// in\n    tag_339:\n        /* \"#utility.yul\":8559:8594   */\n    tag_338:\n        /* \"#utility.yul\":8616:8617   */\n      dup3\n        /* \"#utility.yul\":8613:8614   */\n      dup3\n        /* \"#utility.yul\":8609:8618   */\n      div\n        /* \"#utility.yul\":8604:8618   */\n      swap1\n      pop\n        /* \"#utility.yul\":8439:8624   */\n      swap3\n      swap2\n      pop\n      pop\n      jump\t// out\n        /* \"#utility.yul\":8630:8804   */\n    tag_233:\n        /* \"#utility.yul\":8770:8796   */\n      0x4f66666572206d75737420657863656564206d696e2e20250000000000000000\n        /* \"#utility.yul\":8766:8767   */\n      0x00\n        /* \"#utility.yul\":8758:8764   */\n      dup3\n        /* \"#utility.yul\":8754:8768   */\n      add\n        /* \"#utility.yul\":8747:8797   */\n      mstore\n        /* \"#utility.yul\":8630:8804   */\n      pop\n      jump\t// out\n        /* \"#utility.yul\":8810:9176   */\n    tag_234:\n        /* \"#utility.yul\":8952:8955   */\n      0x00\n        /* \"#utility.yul\":8973:9040   */\n      tag_342\n        /* \"#utility.yul\":9037:9039   */\n      0x18\n        /* \"#utility.yul\":9032:9035   */\n      dup4\n        /* \"#utility.yul\":8973:9040   */\n      tag_228\n      jump\t// in\n    tag_342:\n        /* \"#utility.yul\":8966:9040   */\n      swap2\n      pop\n        /* \"#utility.yul\":9049:9142   */\n      tag_343\n        /* \"#utility.yul\":9138:9141   */\n      dup3\n        /* \"#utility.yul\":9049:9142   */\n      tag_233\n      jump\t// in\n    tag_343:\n        /* \"#utility.yul\":9167:9169   */\n      0x20\n        /* \"#utility.yul\":9162:9165   */\n      dup3\n        /* \"#utility.yul\":9158:9170   */\n      add\n        /* \"#utility.yul\":9151:9170   */\n      swap1\n      pop\n        /* \"#utility.yul\":8810:9176   */\n      swap2\n      swap1\n      pop\n      jump\t// out\n        /* \"#utility.yul\":9182:9601   */\n    tag_108:\n        /* \"#utility.yul\":9348:9352   */\n      0x00\n        /* \"#utility.yul\":9386:9388   */\n      0x20\n        /* \"#utility.yul\":9375:9384   */\n      dup3\n        /* \"#utility.yul\":9371:9389   */\n      add\n        /* \"#utility.yul\":9363:9389   */\n      swap1\n      pop\n        /* \"#utility.yul\":9435:9444   */\n      dup2\n        /* \"#utility.yul\":9429:9433   */\n      dup2\n        /* \"#utility.yul\":9425:9445   */\n      sub\n        /* \"#utility.yul\":9421:9422   */\n      0x00\n        /* \"#utility.yul\":9410:9419   */\n      dup4\n        /* \"#utility.yul\":9406:9423   */\n      add\n        /* \"#utility.yul\":9399:9446   */\n      mstore\n        /* \"#utility.yul\":9463:9594   */\n      tag_345\n        /* \"#utility.yul\":9589:9593   */\n      dup2\n        /* \"#utility.yul\":9463:9594   */\n      tag_234\n      jump\t// in\n    tag_345:\n        /* \"#utility.yul\":9455:9594   */\n      swap1\n      pop\n        /* \"#utility.yul\":9182:9601   */\n      swap2\n      swap1\n      pop\n      jump\t// out\n        /* \"#utility.yul\":9607:9798   */\n    tag_110:\n        /* \"#utility.yul\":9647:9650   */\n      0x00\n        /* \"#utility.yul\":9666:9686   */\n      tag_347\n        /* \"#utility.yul\":9684:9685   */\n      dup3\n        /* \"#utility.yul\":9666:9686   */\n      tag_214\n      jump\t// in\n    tag_347:\n        /* \"#utility.yul\":9661:9686   */\n      swap2\n      pop\n        /* \"#utility.yul\":9700:9720   */\n      tag_348\n        /* \"#utility.yul\":9718:9719   */\n      dup4\n        /* \"#utility.yul\":9700:9720   */\n      tag_214\n      jump\t// in\n    tag_348:\n        /* \"#utility.yul\":9695:9720   */\n      swap3\n      pop\n        /* \"#utility.yul\":9743:9744   */\n      dup3\n        /* \"#utility.yul\":9740:9741   */\n      dup3\n        /* \"#utility.yul\":9736:9745   */\n      add\n        /* \"#utility.yul\":9729:9745   */\n      swap1\n      pop\n        /* \"#utility.yul\":9764:9767   */\n      dup1\n        /* \"#utility.yul\":9761:9762   */\n      dup3\n        /* \"#utility.yul\":9758:9768   */\n      gt\n        /* \"#utility.yul\":9755:9791   */\n      iszero\n      tag_349\n      jumpi\n        /* \"#utility.yul\":9771:9789   */\n      tag_350\n      tag_231\n      jump\t// in\n    tag_350:\n        /* \"#utility.yul\":9755:9791   */\n    tag_349:\n        /* \"#utility.yul\":9607:9798   */\n      swap3\n      swap2\n      pop\n      pop\n      jump\t// out\n        /* \"#utility.yul\":9804:9998   */\n    tag_113:\n        /* \"#utility.yul\":9844:9848   */\n      0x00\n        /* \"#utility.yul\":9864:9884   */\n      tag_352\n        /* \"#utility.yul\":9882:9883   */\n      dup3\n        /* \"#utility.yul\":9864:9884   */\n      tag_214\n      jump\t// in\n    tag_352:\n        /* \"#utility.yul\":9859:9884   */\n      swap2\n      pop\n        /* \"#utility.yul\":9898:9918   */\n      tag_353\n        /* \"#utility.yul\":9916:9917   */\n      dup4\n        /* \"#utility.yul\":9898:9918   */\n      tag_214\n      jump\t// in\n    tag_353:\n        /* \"#utility.yul\":9893:9918   */\n      swap3\n      pop\n        /* \"#utility.yul\":9942:9943   */\n      dup3\n        /* \"#utility.yul\":9939:9940   */\n      dup3\n        /* \"#utility.yul\":9935:9944   */\n      sub\n        /* \"#utility.yul\":9927:9944   */\n      swap1\n      pop\n        /* \"#utility.yul\":9966:9967   */\n      dup2\n        /* \"#utility.yul\":9960:9964   */\n      dup2\n        /* \"#utility.yul\":9957:9968   */\n      gt\n        /* \"#utility.yul\":9954:9991   */\n      iszero\n      tag_354\n      jumpi\n        /* \"#utility.yul\":9971:9989   */\n      tag_355\n      tag_231\n      jump\t// in\n    tag_355:\n        /* \"#utility.yul\":9954:9991   */\n    tag_354:\n        /* \"#utility.yul\":9804:9998   */\n      swap3\n      swap2\n      pop\n      pop\n      jump\t// out\n        /* \"#utility.yul\":10004:10175   */\n    tag_235:\n        /* \"#utility.yul\":10144:10167   */\n      0x4e6f74207468652061756374696f6e206f776e65720000000000000000000000\n        /* \"#utility.yul\":10140:10141   */\n      0x00\n        /* \"#utility.yul\":10132:10138   */\n      dup3\n        /* \"#utility.yul\":10128:10142   */\n      add\n        /* \"#utility.yul\":10121:10168   */\n      mstore\n        /* \"#utility.yul\":10004:10175   */\n      pop\n      jump\t// out\n        /* \"#utility.yul\":10181:10547   */\n    tag_236:\n        /* \"#utility.yul\":10323:10326   */\n      0x00\n        /* \"#utility.yul\":10344:10411   */\n      tag_358\n        /* \"#utility.yul\":10408:10410   */\n      0x15\n        /* \"#utility.yul\":10403:10406   */\n      dup4\n        /* \"#utility.yul\":10344:10411   */\n      tag_228\n      jump\t// in\n    tag_358:\n        /* \"#utility.yul\":10337:10411   */\n      swap2\n      pop\n        /* \"#utility.yul\":10420:10513   */\n      tag_359\n        /* \"#utility.yul\":10509:10512   */\n      dup3\n        /* \"#utility.yul\":10420:10513   */\n      tag_235\n      jump\t// in\n    tag_359:\n        /* \"#utility.yul\":10538:10540   */\n      0x20\n        /* \"#utility.yul\":10533:10536   */\n      dup3\n        /* \"#utility.yul\":10529:10541   */\n      add\n        /* \"#utility.yul\":10522:10541   */\n      swap1\n      pop\n        /* \"#utility.yul\":10181:10547   */\n      swap2\n      swap1\n      pop\n      jump\t// out\n        /* \"#utility.yul\":10553:10972   */\n    tag_120:\n        /* \"#utility.yul\":10719:10723   */\n      0x00\n        /* \"#utility.yul\":10757:10759   */\n      0x20\n        /* \"#utility.yul\":10746:10755   */\n      dup3\n        /* \"#utility.yul\":10742:10760   */\n      add\n        /* \"#utility.yul\":10734:10760   */\n      swap1\n      pop\n        /* \"#utility.yul\":10806:10815   */\n      dup2\n        /* \"#utility.yul\":10800:10804   */\n      dup2\n        /* \"#utility.yul\":10796:10816   */\n      sub\n        /* \"#utility.yul\":10792:10793   */\n      0x00\n        /* \"#utility.yul\":10781:10790   */\n      dup4\n        /* \"#utility.yul\":10777:10794   */\n      add\n        /* \"#utility.yul\":10770:10817   */\n      mstore\n        /* \"#utility.yul\":10834:10965   */\n      tag_361\n        /* \"#utility.yul\":10960:10964   */\n      dup2\n        /* \"#utility.yul\":10834:10965   */\n      tag_236\n      jump\t// in\n    tag_361:\n        /* \"#utility.yul\":10826:10965   */\n      swap1\n      pop\n        /* \"#utility.yul\":10553:10972   */\n      swap2\n      swap1\n      pop\n      jump\t// out\n        /* \"#utility.yul\":10978:11149   */\n    tag_237:\n        /* \"#utility.yul\":11118:11141   */\n      0x41756374696f6e20686173206e6f7420656e6465640000000000000000000000\n        /* \"#utility.yul\":11114:11115   */\n      0x00\n        /* \"#utility.yul\":11106:11112   */\n      dup3\n        /* \"#utility.yul\":11102:11116   */\n      add\n        /* \"#utility.yul\":11095:11142   */\n      mstore\n        /* \"#utility.yul\":10978:11149   */\n      pop\n      jump\t// out\n        /* \"#utility.yul\":11155:11521   */\n    tag_238:\n        /* \"#utility.yul\":11297:11300   */\n      0x00\n        /* \"#utility.yul\":11318:11385   */\n      tag_364\n        /* \"#utility.yul\":11382:11384   */\n      0x15\n        /* \"#utility.yul\":11377:11380   */\n      dup4\n        /* \"#utility.yul\":11318:11385   */\n      tag_228\n      jump\t// in\n    tag_364:\n        /* \"#utility.yul\":11311:11385   */\n      swap2\n      pop\n        /* \"#utility.yul\":11394:11487   */\n      tag_365\n        /* \"#utility.yul\":11483:11486   */\n      dup3\n        /* \"#utility.yul\":11394:11487   */\n      tag_237\n      jump\t// in\n    tag_365:\n        /* \"#utility.yul\":11512:11514   */\n      0x20\n        /* \"#utility.yul\":11507:11510   */\n      dup3\n        /* \"#utility.yul\":11503:11515   */\n      add\n        /* \"#utility.yul\":11496:11515   */\n      swap1\n      pop\n        /* \"#utility.yul\":11155:11521   */\n      swap2\n      swap1\n      pop\n      jump\t// out\n        /* \"#utility.yul\":11527:11946   */\n    tag_124:\n        /* \"#utility.yul\":11693:11697   */\n      0x00\n        /* \"#utility.yul\":11731:11733   */\n      0x20\n        /* \"#utility.yul\":11720:11729   */\n      dup3\n        /* \"#utility.yul\":11716:11734   */\n      add\n        /* \"#utility.yul\":11708:11734   */\n      swap1\n      pop\n        /* \"#utility.yul\":11780:11789   */\n      dup2\n        /* \"#utility.yul\":11774:11778   */\n      dup2\n        /* \"#utility.yul\":11770:11790   */\n      sub\n        /* \"#utility.yul\":11766:11767   */\n      0x00\n        /* \"#utility.yul\":11755:11764   */\n      dup4\n        /* \"#utility.yul\":11751:11768   */\n      add\n        /* \"#utility.yul\":11744:11791   */\n      mstore\n        /* \"#utility.yul\":11808:11939   */\n      tag_367\n        /* \"#utility.yul\":11934:11938   */\n      dup2\n        /* \"#utility.yul\":11808:11939   */\n      tag_238\n      jump\t// in\n    tag_367:\n        /* \"#utility.yul\":11800:11939   */\n      swap1\n      pop\n        /* \"#utility.yul\":11527:11946   */\n      swap2\n      swap1\n      pop\n      jump\t// out\n        /* \"#utility.yul\":11952:12129   */\n    tag_239:\n        /* \"#utility.yul\":12092:12121   */\n      0x4465706f736974732068617665206265656e20726566756e6465640000000000\n        /* \"#utility.yul\":12088:12089   */\n      0x00\n        /* \"#utility.yul\":12080:12086   */\n      dup3\n        /* \"#utility.yul\":12076:12090   */\n      add\n        /* \"#utility.yul\":12069:12122   */\n      mstore\n        /* \"#utility.yul\":11952:12129   */\n      pop\n      jump\t// out\n        /* \"#utility.yul\":12135:12501   */\n    tag_240:\n        /* \"#utility.yul\":12277:12280   */\n      0x00\n        /* \"#utility.yul\":12298:12365   */\n      tag_370\n        /* \"#utility.yul\":12362:12364   */\n      0x1b\n        /* \"#utility.yul\":12357:12360   */\n      dup4\n        /* \"#utility.yul\":12298:12365   */\n      tag_228\n      jump\t// in\n    tag_370:\n        /* \"#utility.yul\":12291:12365   */\n      swap2\n      pop\n        /* \"#utility.yul\":12374:12467   */\n      tag_371\n        /* \"#utility.yul\":12463:12466   */\n      dup3\n        /* \"#utility.yul\":12374:12467   */\n      tag_239\n      jump\t// in\n    tag_371:\n        /* \"#utility.yul\":12492:12494   */\n      0x20\n        /* \"#utility.yul\":12487:12490   */\n      dup3\n        /* \"#utility.yul\":12483:12495   */\n      add\n        /* \"#utility.yul\":12476:12495   */\n      swap1\n      pop\n        /* \"#utility.yul\":12135:12501   */\n      swap2\n      swap1\n      pop\n      jump\t// out\n        /* \"#utility.yul\":12507:12926   */\n    tag_128:\n        /* \"#utility.yul\":12673:12677   */\n      0x00\n        /* \"#utility.yul\":12711:12713   */\n      0x20\n        /* \"#utility.yul\":12700:12709   */\n      dup3\n        /* \"#utility.yul\":12696:12714   */\n      add\n        /* \"#utility.yul\":12688:12714   */\n      swap1\n      pop\n        /* \"#utility.yul\":12760:12769   */\n      dup2\n        /* \"#utility.yul\":12754:12758   */\n      dup2\n        /* \"#utility.yul\":12750:12770   */\n      sub\n        /* \"#utility.yul\":12746:12747   */\n      0x00\n        /* \"#utility.yul\":12735:12744   */\n      dup4\n        /* \"#utility.yul\":12731:12748   */\n      add\n        /* \"#utility.yul\":12724:12771   */\n      mstore\n        /* \"#utility.yul\":12788:12919   */\n      tag_373\n        /* \"#utility.yul\":12914:12918   */\n      dup2\n        /* \"#utility.yul\":12788:12919   */\n      tag_240\n      jump\t// in\n    tag_373:\n        /* \"#utility.yul\":12780:12919   */\n      swap1\n      pop\n        /* \"#utility.yul\":12507:12926   */\n      swap2\n      swap1\n      pop\n      jump\t// out\n        /* \"#utility.yul\":12932:13112   */\n    tag_134:\n        /* \"#utility.yul\":12980:13057   */\n      0x4e487b7100000000000000000000000000000000000000000000000000000000\n        /* \"#utility.yul\":12977:12978   */\n      0x00\n        /* \"#utility.yul\":12970:13058   */\n      mstore\n        /* \"#utility.yul\":13077:13081   */\n      0x32\n        /* \"#utility.yul\":13074:13075   */\n      0x04\n        /* \"#utility.yul\":13067:13082   */\n      mstore\n        /* \"#utility.yul\":13101:13105   */\n      0x24\n        /* \"#utility.yul\":13098:13099   */\n      0x00\n        /* \"#utility.yul\":13091:13106   */\n      revert\n        /* \"#utility.yul\":13118:13265   */\n    tag_241:\n        /* \"#utility.yul\":13219:13230   */\n      0x00\n        /* \"#utility.yul\":13256:13259   */\n      dup2\n        /* \"#utility.yul\":13241:13259   */\n      swap1\n      pop\n        /* \"#utility.yul\":13118:13265   */\n      swap3\n      swap2\n      pop\n      pop\n      jump\t// out\n        /* \"#utility.yul\":13271:13385   */\n    tag_242:\n      pop\n      jump\t// out\n        /* \"#utility.yul\":13391:13789   */\n    tag_243:\n        /* \"#utility.yul\":13550:13553   */\n      0x00\n        /* \"#utility.yul\":13571:13654   */\n      tag_378\n        /* \"#utility.yul\":13652:13653   */\n      0x00\n        /* \"#utility.yul\":13647:13650   */\n      dup4\n        /* \"#utility.yul\":13571:13654   */\n      tag_241\n      jump\t// in\n    tag_378:\n        /* \"#utility.yul\":13564:13654   */\n      swap2\n      pop\n        /* \"#utility.yul\":13663:13756   */\n      tag_379\n        /* \"#utility.yul\":13752:13755   */\n      dup3\n        /* \"#utility.yul\":13663:13756   */\n      tag_242\n      jump\t// in\n    tag_379:\n        /* \"#utility.yul\":13781:13782   */\n      0x00\n        /* \"#utility.yul\":13776:13779   */\n      dup3\n        /* \"#utility.yul\":13772:13783   */\n      add\n        /* \"#utility.yul\":13765:13783   */\n      swap1\n      pop\n        /* \"#utility.yul\":13391:13789   */\n      swap2\n      swap1\n      pop\n      jump\t// out\n        /* \"#utility.yul\":13795:14174   */\n    tag_141:\n        /* \"#utility.yul\":13979:13982   */\n      0x00\n        /* \"#utility.yul\":14001:14148   */\n      tag_381\n        /* \"#utility.yul\":14144:14147   */\n      dup3\n        /* \"#utility.yul\":14001:14148   */\n      tag_243\n      jump\t// in\n    tag_381:\n        /* \"#utility.yul\":13994:14148   */\n      swap2\n      pop\n        /* \"#utility.yul\":14165:14168   */\n      dup2\n        /* \"#utility.yul\":14158:14168   */\n      swap1\n      pop\n        /* \"#utility.yul\":13795:14174   */\n      swap2\n      swap1\n      pop\n      jump\t// out\n        /* \"#utility.yul\":14180:14352   */\n    tag_244:\n        /* \"#utility.yul\":14320:14344   */\n      0x4661696c75726520746f2073656e6420726566756e6400000000000000000000\n        /* \"#utility.yul\":14316:14317   */\n      0x00\n        /* \"#utility.yul\":14308:14314   */\n      dup3\n        /* \"#utility.yul\":14304:14318   */\n      add\n        /* \"#utility.yul\":14297:14345   */\n      mstore\n        /* \"#utility.yul\":14180:14352   */\n      pop\n      jump\t// out\n        /* \"#utility.yul\":14358:14724   */\n    tag_245:\n        /* \"#utility.yul\":14500:14503   */\n      0x00\n        /* \"#utility.yul\":14521:14588   */\n      tag_384\n        /* \"#utility.yul\":14585:14587   */\n      0x16\n        /* \"#utility.yul\":14580:14583   */\n      dup4\n        /* \"#utility.yul\":14521:14588   */\n      tag_228\n      jump\t// in\n    tag_384:\n        /* \"#utility.yul\":14514:14588   */\n      swap2\n      pop\n        /* \"#utility.yul\":14597:14690   */\n      tag_385\n        /* \"#utility.yul\":14686:14689   */\n      dup3\n        /* \"#utility.yul\":14597:14690   */\n      tag_244\n      jump\t// in\n    tag_385:\n        /* \"#utility.yul\":14715:14717   */\n      0x20\n        /* \"#utility.yul\":14710:14713   */\n      dup3\n        /* \"#utility.yul\":14706:14718   */\n      add\n        /* \"#utility.yul\":14699:14718   */\n      swap1\n      pop\n        /* \"#utility.yul\":14358:14724   */\n      swap2\n      swap1\n      pop\n      jump\t// out\n        /* \"#utility.yul\":14730:15149   */\n    tag_147:\n        /* \"#utility.yul\":14896:14900   */\n      0x00\n        /* \"#utility.yul\":14934:14936   */\n      0x20\n        /* \"#utility.yul\":14923:14932   */\n      dup3\n        /* \"#utility.yul\":14919:14937   */\n      add\n        /* \"#utility.yul\":14911:14937   */\n      swap1\n      pop\n        /* \"#utility.yul\":14983:14992   */\n      dup2\n        /* \"#utility.yul\":14977:14981   */\n      dup2\n        /* \"#utility.yul\":14973:14993   */\n      sub\n        /* \"#utility.yul\":14969:14970   */\n      0x00\n        /* \"#utility.yul\":14958:14967   */\n      dup4\n        /* \"#utility.yul\":14954:14971   */\n      add\n        /* \"#utility.yul\":14947:14994   */\n      mstore\n        /* \"#utility.yul\":15011:15142   */\n      tag_387\n        /* \"#utility.yul\":15137:15141   */\n      dup2\n        /* \"#utility.yul\":15011:15142   */\n      tag_245\n      jump\t// in\n    tag_387:\n        /* \"#utility.yul\":15003:15142   */\n      swap1\n      pop\n        /* \"#utility.yul\":14730:15149   */\n      swap2\n      swap1\n      pop\n      jump\t// out\n        /* \"#utility.yul\":15155:15327   */\n    tag_246:\n        /* \"#utility.yul\":15295:15319   */\n      0x4661696c75726520746f2073656e642073656c6c657200000000000000000000\n        /* \"#utility.yul\":15291:15292   */\n      0x00\n        /* \"#utility.yul\":15283:15289   */\n      dup3\n        /* \"#utility.yul\":15279:15293   */\n      add\n        /* \"#utility.yul\":15272:15320   */\n      mstore\n        /* \"#utility.yul\":15155:15327   */\n      pop\n      jump\t// out\n        /* \"#utility.yul\":15333:15699   */\n    tag_247:\n        /* \"#utility.yul\":15475:15478   */\n      0x00\n        /* \"#utility.yul\":15496:15563   */\n      tag_390\n        /* \"#utility.yul\":15560:15562   */\n      0x16\n        /* \"#utility.yul\":15555:15558   */\n      dup4\n        /* \"#utility.yul\":15496:15563   */\n      tag_228\n      jump\t// in\n    tag_390:\n        /* \"#utility.yul\":15489:15563   */\n      swap2\n      pop\n        /* \"#utility.yul\":15572:15665   */\n      tag_391\n        /* \"#utility.yul\":15661:15664   */\n      dup3\n        /* \"#utility.yul\":15572:15665   */\n      tag_246\n      jump\t// in\n    tag_391:\n        /* \"#utility.yul\":15690:15692   */\n      0x20\n        /* \"#utility.yul\":15685:15688   */\n      dup3\n        /* \"#utility.yul\":15681:15693   */\n      add\n        /* \"#utility.yul\":15674:15693   */\n      swap1\n      pop\n        /* \"#utility.yul\":15333:15699   */\n      swap2\n      swap1\n      pop\n      jump\t// out\n        /* \"#utility.yul\":15705:16124   */\n    tag_155:\n        /* \"#utility.yul\":15871:15875   */\n      0x00\n        /* \"#utility.yul\":15909:15911   */\n      0x20\n        /* \"#utility.yul\":15898:15907   */\n      dup3\n        /* \"#utility.yul\":15894:15912   */\n      add\n        /* \"#utility.yul\":15886:15912   */\n      swap1\n      pop\n        /* \"#utility.yul\":15958:15967   */\n      dup2\n        /* \"#utility.yul\":15952:15956   */\n      dup2\n        /* \"#utility.yul\":15948:15968   */\n      sub\n        /* \"#utility.yul\":15944:15945   */\n      0x00\n        /* \"#utility.yul\":15933:15942   */\n      dup4\n        /* \"#utility.yul\":15929:15946   */\n      add\n        /* \"#utility.yul\":15922:15969   */\n      mstore\n        /* \"#utility.yul\":15986:16117   */\n      tag_393\n        /* \"#utility.yul\":16112:16116   */\n      dup2\n        /* \"#utility.yul\":15986:16117   */\n      tag_247\n      jump\t// in\n    tag_393:\n        /* \"#utility.yul\":15978:16117   */\n      swap1\n      pop\n        /* \"#utility.yul\":15705:16124   */\n      swap2\n      swap1\n      pop\n      jump\t// out\n        /* \"#utility.yul\":16130:16307   */\n    tag_248:\n        /* \"#utility.yul\":16270:16299   */\n      0x6661696c20746f2073656e642066756e647320746f206f776e65720000000000\n        /* \"#utility.yul\":16266:16267   */\n      0x00\n        /* \"#utility.yul\":16258:16264   */\n      dup3\n        /* \"#utility.yul\":16254:16268   */\n      add\n        /* \"#utility.yul\":16247:16300   */\n      mstore\n        /* \"#utility.yul\":16130:16307   */\n      pop\n      jump\t// out\n        /* \"#utility.yul\":16313:16679   */\n    tag_249:\n        /* \"#utility.yul\":16455:16458   */\n      0x00\n        /* \"#utility.yul\":16476:16543   */\n      tag_396\n        /* \"#utility.yul\":16540:16542   */\n      0x1b\n        /* \"#utility.yul\":16535:16538   */\n      dup4\n        /* \"#utility.yul\":16476:16543   */\n      tag_228\n      jump\t// in\n    tag_396:\n        /* \"#utility.yul\":16469:16543   */\n      swap2\n      pop\n        /* \"#utility.yul\":16552:16645   */\n      tag_397\n        /* \"#utility.yul\":16641:16644   */\n      dup3\n        /* \"#utility.yul\":16552:16645   */\n      tag_248\n      jump\t// in\n    tag_397:\n        /* \"#utility.yul\":16670:16672   */\n      0x20\n        /* \"#utility.yul\":16665:16668   */\n      dup3\n        /* \"#utility.yul\":16661:16673   */\n      add\n        /* \"#utility.yul\":16654:16673   */\n      swap1\n      pop\n        /* \"#utility.yul\":16313:16679   */\n      swap2\n      swap1\n      pop\n      jump\t// out\n        /* \"#utility.yul\":16685:17104   */\n    tag_173:\n        /* \"#utility.yul\":16851:16855   */\n      0x00\n        /* \"#utility.yul\":16889:16891   */\n      0x20\n        /* \"#utility.yul\":16878:16887   */\n      dup3\n        /* \"#utility.yul\":16874:16892   */\n      add\n        /* \"#utility.yul\":16866:16892   */\n      swap1\n      pop\n        /* \"#utility.yul\":16938:16947   */\n      dup2\n        /* \"#utility.yul\":16932:16936   */\n      dup2\n        /* \"#utility.yul\":16928:16948   */\n      sub\n        /* \"#utility.yul\":16924:16925   */\n      0x00\n        /* \"#utility.yul\":16913:16922   */\n      dup4\n        /* \"#utility.yul\":16909:16926   */\n      add\n        /* \"#utility.yul\":16902:16949   */\n      mstore\n        /* \"#utility.yul\":16966:17097   */\n      tag_399\n        /* \"#utility.yul\":17092:17096   */\n      dup2\n        /* \"#utility.yul\":16966:17097   */\n      tag_249\n      jump\t// in\n    tag_399:\n        /* \"#utility.yul\":16958:17097   */\n      swap1\n      pop\n        /* \"#utility.yul\":16685:17104   */\n      swap2\n      swap1\n      pop\n      jump\t// out\n        /* \"#utility.yul\":17110:17287   */\n    tag_250:\n        /* \"#utility.yul\":17250:17279   */\n      0x4e6f206578636573732066756e647320746f2077697468647261770000000000\n        /* \"#utility.yul\":17246:17247   */\n      0x00\n        /* \"#utility.yul\":17238:17244   */\n      dup3\n        /* \"#utility.yul\":17234:17248   */\n      add\n        /* \"#utility.yul\":17227:17280   */\n      mstore\n        /* \"#utility.yul\":17110:17287   */\n      pop\n      jump\t// out\n        /* \"#utility.yul\":17293:17659   */\n    tag_251:\n        /* \"#utility.yul\":17435:17438   */\n      0x00\n        /* \"#utility.yul\":17456:17523   */\n      tag_402\n        /* \"#utility.yul\":17520:17522   */\n      0x1b\n        /* \"#utility.yul\":17515:17518   */\n      dup4\n        /* \"#utility.yul\":17456:17523   */\n      tag_228\n      jump\t// in\n    tag_402:\n        /* \"#utility.yul\":17449:17523   */\n      swap2\n      pop\n        /* \"#utility.yul\":17532:17625   */\n      tag_403\n        /* \"#utility.yul\":17621:17624   */\n      dup3\n        /* \"#utility.yul\":17532:17625   */\n      tag_250\n      jump\t// in\n    tag_403:\n        /* \"#utility.yul\":17650:17652   */\n      0x20\n        /* \"#utility.yul\":17645:17648   */\n      dup3\n        /* \"#utility.yul\":17641:17653   */\n      add\n        /* \"#utility.yul\":17634:17653   */\n      swap1\n      pop\n        /* \"#utility.yul\":17293:17659   */\n      swap2\n      swap1\n      pop\n      jump\t// out\n        /* \"#utility.yul\":17665:18084   */\n    tag_190:\n        /* \"#utility.yul\":17831:17835   */\n      0x00\n        /* \"#utility.yul\":17869:17871   */\n      0x20\n        /* \"#utility.yul\":17858:17867   */\n      dup3\n        /* \"#utility.yul\":17854:17872   */\n      add\n        /* \"#utility.yul\":17846:17872   */\n      swap1\n      pop\n        /* \"#utility.yul\":17918:17927   */\n      dup2\n        /* \"#utility.yul\":17912:17916   */\n      dup2\n        /* \"#utility.yul\":17908:17928   */\n      sub\n        /* \"#utility.yul\":17904:17905   */\n      0x00\n        /* \"#utility.yul\":17893:17902   */\n      dup4\n        /* \"#utility.yul\":17889:17906   */\n      add\n        /* \"#utility.yul\":17882:17929   */\n      mstore\n        /* \"#utility.yul\":17946:18077   */\n      tag_405\n        /* \"#utility.yul\":18072:18076   */\n      dup2\n        /* \"#utility.yul\":17946:18077   */\n      tag_251\n      jump\t// in\n    tag_405:\n        /* \"#utility.yul\":17938:18077   */\n      swap1\n      pop\n        /* \"#utility.yul\":17665:18084   */\n      swap2\n      swap1\n      pop\n      jump\t// out\n        /* \"#utility.yul\":18090:18267   */\n    tag_252:\n        /* \"#utility.yul\":18230:18259   */\n      0x6661696c20746f2073656e64207061727469616c20726566756e640000000000\n        /* \"#utility.yul\":18226:18227   */\n      0x00\n        /* \"#utility.yul\":18218:18224   */\n      dup3\n        /* \"#utility.yul\":18214:18228   */\n      add\n        /* \"#utility.yul\":18207:18260   */\n      mstore\n        /* \"#utility.yul\":18090:18267   */\n      pop\n      jump\t// out\n        /* \"#utility.yul\":18273:18639   */\n    tag_253:\n        /* \"#utility.yul\":18415:18418   */\n      0x00\n        /* \"#utility.yul\":18436:18503   */\n      tag_408\n        /* \"#utility.yul\":18500:18502   */\n      0x1b\n        /* \"#utility.yul\":18495:18498   */\n      dup4\n        /* \"#utility.yul\":18436:18503   */\n      tag_228\n      jump\t// in\n    tag_408:\n        /* \"#utility.yul\":18429:18503   */\n      swap2\n      pop\n        /* \"#utility.yul\":18512:18605   */\n      tag_409\n        /* \"#utility.yul\":18601:18604   */\n      dup3\n        /* \"#utility.yul\":18512:18605   */\n      tag_252\n      jump\t// in\n    tag_409:\n        /* \"#utility.yul\":18630:18632   */\n      0x20\n        /* \"#utility.yul\":18625:18628   */\n      dup3\n        /* \"#utility.yul\":18621:18633   */\n      add\n        /* \"#utility.yul\":18614:18633   */\n      swap1\n      pop\n        /* \"#utility.yul\":18273:18639   */\n      swap2\n      swap1\n      pop\n      jump\t// out\n        /* \"#utility.yul\":18645:19064   */\n    tag_201:\n        /* \"#utility.yul\":18811:18815   */\n      0x00\n        /* \"#utility.yul\":18849:18851   */\n      0x20\n        /* \"#utility.yul\":18838:18847   */\n      dup3\n        /* \"#utility.yul\":18834:18852   */\n      add\n        /* \"#utility.yul\":18826:18852   */\n      swap1\n      pop\n        /* \"#utility.yul\":18898:18907   */\n      dup2\n        /* \"#utility.yul\":18892:18896   */\n      dup2\n        /* \"#utility.yul\":18888:18908   */\n      sub\n        /* \"#utility.yul\":18884:18885   */\n      0x00\n        /* \"#utility.yul\":18873:18882   */\n      dup4\n        /* \"#utility.yul\":18869:18886   */\n      add\n        /* \"#utility.yul\":18862:18909   */\n      mstore\n        /* \"#utility.yul\":18926:19057   */\n      tag_411\n        /* \"#utility.yul\":19052:19056   */\n      dup2\n        /* \"#utility.yul\":18926:19057   */\n      tag_253\n      jump\t// in\n    tag_411:\n        /* \"#utility.yul\":18918:19057   */\n      swap1\n      pop\n        /* \"#utility.yul\":18645:19064   */\n      swap2\n      swap1\n      pop\n      jump\t// out\n\n    auxdata: 0xa2646970667358221220909c6cb196cc2065b589c13e4be00b1a1c436516a7af3caba8830f89fb1387cc64736f6c634300081a0033\n}\n",
				"bytecode": {
					"linkReferences": {},
					"object": "608060405234801561000f575f80fd5b50604051611b8b380380611b8b8339818101604052810190610031919061015a565b335f806101000a81548173ffffffffffffffffffffffffffffffffffffffff021916908373ffffffffffffffffffffffffffffffffffffffff1602179055508160015f6101000a81548173ffffffffffffffffffffffffffffffffffffffff021916908373ffffffffffffffffffffffffffffffffffffffff16021790555080426100bc91906101c5565b60048190555050506101f8565b5f80fd5b5f73ffffffffffffffffffffffffffffffffffffffff82169050919050565b5f6100f6826100cd565b9050919050565b610106816100ec565b8114610110575f80fd5b50565b5f81519050610121816100fd565b92915050565b5f819050919050565b61013981610127565b8114610143575f80fd5b50565b5f8151905061015481610130565b92915050565b5f80604083850312156101705761016f6100c9565b5b5f61017d85828601610113565b925050602061018e85828601610146565b9150509250929050565b7f4e487b71000000000000000000000000000000000000000000000000000000005f52601160045260245ffd5b5f6101cf82610127565b91506101da83610127565b92508282019050808211156101f2576101f1610198565b5b92915050565b611986806102055f395ff3fe6080604052600436106100fd575f3560e01c8063783e4d3d1161009457806391f901571161006357806391f901571461029c578063b7e03264146102c6578063d57bde79146102f1578063fb7e5ad01461031b578063fc7e286d14610345576100fd565b8063783e4d3d1461021c578063853828b6146102465780638bf43a831461025c5780638da5cb5b14610272576100fd565b8063362e2565116100d0578063362e2565146101895780634423c5f11461019f5780634b449cba146101dc5780635958611e14610206576100fd565b806308551a531461010157806312fa6feb1461012b57806314d2687c146101555780631998aeef1461017f575b5f80fd5b34801561010c575f80fd5b50610115610381565b604051610122919061112c565b60405180910390f35b348015610136575f80fd5b5061013f6103a6565b60405161014c919061115f565b60405180910390f35b348015610160575f80fd5b506101696103b8565b6040516101769190611274565b60405180910390f35b610187610472565b005b348015610194575f80fd5b5061019d6106d4565b005b3480156101aa575f80fd5b506101c560048036038101906101c091906112c2565b610b51565b6040516101d39291906112fc565b60405180910390f35b3480156101e7575f80fd5b506101f0610b9f565b6040516101fd9190611323565b60405180910390f35b348015610211575f80fd5b5061021a610ba5565b005b348015610227575f80fd5b50610230610bba565b60405161023d9190611323565b60405180910390f35b348015610251575f80fd5b5061025a610bbf565b005b348015610267575f80fd5b50610270610d5c565b005b34801561027d575f80fd5b50610286611008565b604051610293919061112c565b60405180910390f35b3480156102a7575f80fd5b506102b061102b565b6040516102bd919061112c565b60405180910390f35b3480156102d1575f80fd5b506102da611050565b6040516102e89291906112fc565b60405180910390f35b3480156102fc575f80fd5b506103056110cd565b6040516103129190611323565b60405180910390f35b348015610326575f80fd5b5061032f6110d3565b60405161033c9190611323565b60405180910390f35b348015610350575f80fd5b5061036b60048036038101906103669190611366565b6110d8565b6040516103789190611323565b60405180910390f35b60015f9054906101000a900473ffffffffffffffffffffffffffffffffffffffff1681565b60055f9054906101000a900460ff1681565b60606006805480602002602001604051908101604052809291908181526020015f905b82821015610469578382905f5260205f2090600202016040518060400160405290815f82015f9054906101000a900473ffffffffffffffffffffffffffffffffffffffff1673ffffffffffffffffffffffffffffffffffffffff1673ffffffffffffffffffffffffffffffffffffffff168152602001600182015481525050815260200190600101906103db565b50505050905090565b60045442106104b6576040517f08c379a00000000000000000000000000000000000000000000000000000000081526004016104ad906113eb565b60405180910390fd5b5f600354905060646069826104cb9190611436565b6104d591906114a4565b3411610516576040517f08c379a000000000000000000000000000000000000000000000000000000000815260040161050d9061151e565b60405180910390fd5b3360025f6101000a81548173ffffffffffffffffffffffffffffffffffffffff021916908373ffffffffffffffffffffffffffffffffffffffff160217905550346003819055503460075f3373ffffffffffffffffffffffffffffffffffffffff1673ffffffffffffffffffffffffffffffffffffffff1681526020019081526020015f205f8282546105a9919061153c565b92505081905550600660405180604001604052803373ffffffffffffffffffffffffffffffffffffffff16815260200134815250908060018154018082558091505060019003905f5260205f2090600202015f909190919091505f820151815f015f6101000a81548173ffffffffffffffffffffffffffffffffffffffff021916908373ffffffffffffffffffffffffffffffffffffffff1602179055506020820151816001015550505f600454905061025881610667919061156f565b4210610682576102588161067b919061153c565b6004819055505b3373ffffffffffffffffffffffffffffffffffffffff167fdd0b6c6a77960e2066c96171b4d7ac9e8b4c184011f38544afa36a5bb63ec59f346040516106c89190611323565b60405180910390a25050565b5f8054906101000a900473ffffffffffffffffffffffffffffffffffffffff1673ffffffffffffffffffffffffffffffffffffffff163373ffffffffffffffffffffffffffffffffffffffff1614610761576040517f08c379a0000000000000000000000000000000000000000000000000000000008152600401610758906115ec565b60405180910390fd5b6004544210156107a6576040517f08c379a000000000000000000000000000000000000000000000000000000000815260040161079d90611654565b60405180910390fd5b60055f9054906101000a900460ff16156107f5576040517f08c379a00000000000000000000000000000000000000000000000000000000081526004016107ec906116bc565b60405180910390fd5b600160055f6101000a81548160ff0219169083151502179055505f60068054905090505f60025f9054906101000a900473ffffffffffffffffffffffffffffffffffffffff1690505f805f90505b83811015610a2c575f600682815481106108605761085f6116da565b5b905f5260205f2090600202015f015f9054906101000a900473ffffffffffffffffffffffffffffffffffffffff1690508373ffffffffffffffffffffffffffffffffffffffff168173ffffffffffffffffffffffffffffffffffffffff1614610a1e575f60075f8373ffffffffffffffffffffffffffffffffffffffff1673ffffffffffffffffffffffffffffffffffffffff1681526020019081526020015f205490505f60646002836109149190611436565b61091e91906114a4565b90505f818361092d919061156f565b90505f60075f8673ffffffffffffffffffffffffffffffffffffffff1673ffffffffffffffffffffffffffffffffffffffff1681526020019081526020015f20819055508373ffffffffffffffffffffffffffffffffffffffff168160405161099590611734565b5f6040518083038185875af1925050503d805f81146109cf576040519150601f19603f3d011682016040523d82523d5f602084013e6109d4565b606091505b50508096505085610a1a576040517f08c379a0000000000000000000000000000000000000000000000000000000008152600401610a1190611792565b60405180910390fd5b5050505b508080600101915050610843565b505f60035490508273ffffffffffffffffffffffffffffffffffffffff167fdaec4582d5d9595688c8c98545fdd1c696d41c6aeaeb636737e84ed2f5c00eda82604051610a799190611323565b60405180910390a260015f9054906101000a900473ffffffffffffffffffffffffffffffffffffffff1673ffffffffffffffffffffffffffffffffffffffff1681604051610ac690611734565b5f6040518083038185875af1925050503d805f8114610b00576040519150601f19603f3d011682016040523d82523d5f602084013e610b05565b606091505b50508092505081610b4b576040517f08c379a0000000000000000000000000000000000000000000000000000000008152600401610b42906117fa565b60405180910390fd5b50505050565b60068181548110610b60575f80fd5b905f5260205f2090600202015f91509050805f015f9054906101000a900473ffffffffffffffffffffffffffffffffffffffff16908060010154905082565b60045481565b600142610bb2919061156f565b600481905550565b606981565b600454421015610c04576040517f08c379a0000000000000000000000000000000000000000000000000000000008152600401610bfb90611654565b60405180910390fd5b5f8054906101000a900473ffffffffffffffffffffffffffffffffffffffff1673ffffffffffffffffffffffffffffffffffffffff163373ffffffffffffffffffffffffffffffffffffffff1614610c91576040517f08c379a0000000000000000000000000000000000000000000000000000000008152600401610c88906115ec565b60405180910390fd5b5f805f9054906101000a900473ffffffffffffffffffffffffffffffffffffffff1673ffffffffffffffffffffffffffffffffffffffff1647604051610cd690611734565b5f6040518083038185875af1925050503d805f8114610d10576040519150601f19603f3d011682016040523d82523d5f602084013e610d15565b606091505b5050905080610d59576040517f08c379a0000000000000000000000000000000000000000000000000000000008152600401610d5090611862565b60405180910390fd5b50565b6004544210610da0576040517f08c379a0000000000000000000000000000000000000000000000000000000008152600401610d97906113eb565b60405180910390fd5b5f60075f3373ffffffffffffffffffffffffffffffffffffffff1673ffffffffffffffffffffffffffffffffffffffff1681526020019081526020015f205490505f805b600680549050811015610e99573373ffffffffffffffffffffffffffffffffffffffff1660068281548110610e1c57610e1b6116da565b5b905f5260205f2090600202015f015f9054906101000a900473ffffffffffffffffffffffffffffffffffffffff1673ffffffffffffffffffffffffffffffffffffffff1603610e8c5760068181548110610e7957610e786116da565b5b905f5260205f2090600202016001015491505b8080600101915050610de4565b50808211610edc576040517f08c379a0000000000000000000000000000000000000000000000000000000008152600401610ed3906118ca565b60405180910390fd5b5f8183610ee9919061156f565b90508160075f3373ffffffffffffffffffffffffffffffffffffffff1673ffffffffffffffffffffffffffffffffffffffff1681526020019081526020015f20819055505f6064600283610f3d9190611436565b610f4791906114a4565b90505f8183610f56919061156f565b90505f3373ffffffffffffffffffffffffffffffffffffffff1682604051610f7d90611734565b5f6040518083038185875af1925050503d805f8114610fb7576040519150601f19603f3d011682016040523d82523d5f602084013e610fbc565b606091505b5050905080611000576040517f08c379a0000000000000000000000000000000000000000000000000000000008152600401610ff790611932565b60405180910390fd5b505050505050565b5f8054906101000a900473ffffffffffffffffffffffffffffffffffffffff1681565b60025f9054906101000a900473ffffffffffffffffffffffffffffffffffffffff1681565b5f8060055f9054906101000a900460ff166110a0576040517f08c379a000000000000000000000000000000000000000000000000000000000815260040161109790611654565b60405180910390fd5b60025f9054906101000a900473ffffffffffffffffffffffffffffffffffffffff16600354915091509091565b60035481565b600281565b6007602052805f5260405f205f915090505481565b5f73ffffffffffffffffffffffffffffffffffffffff82169050919050565b5f611116826110ed565b9050919050565b6111268161110c565b82525050565b5f60208201905061113f5f83018461111d565b92915050565b5f8115159050919050565b61115981611145565b82525050565b5f6020820190506111725f830184611150565b92915050565b5f81519050919050565b5f82825260208201905092915050565b5f819050602082019050919050565b6111aa8161110c565b82525050565b5f819050919050565b6111c2816111b0565b82525050565b604082015f8201516111dc5f8501826111a1565b5060208201516111ef60208501826111b9565b50505050565b5f61120083836111c8565b60408301905092915050565b5f602082019050919050565b5f61122282611178565b61122c8185611182565b935061123783611192565b805f5b8381101561126757815161124e88826111f5565b97506112598361120c565b92505060018101905061123a565b5085935050505092915050565b5f6020820190508181035f83015261128c8184611218565b905092915050565b5f80fd5b6112a1816111b0565b81146112ab575f80fd5b50565b5f813590506112bc81611298565b92915050565b5f602082840312156112d7576112d6611294565b5b5f6112e4848285016112ae565b91505092915050565b6112f6816111b0565b82525050565b5f60408201905061130f5f83018561111d565b61131c60208301846112ed565b9392505050565b5f6020820190506113365f8301846112ed565b92915050565b6113458161110c565b811461134f575f80fd5b50565b5f813590506113608161133c565b92915050565b5f6020828403121561137b5761137a611294565b5b5f61138884828501611352565b91505092915050565b5f82825260208201905092915050565b7f41756374696f6e2068617320656e6465640000000000000000000000000000005f82015250565b5f6113d5601183611391565b91506113e0826113a1565b602082019050919050565b5f6020820190508181035f830152611402816113c9565b9050919050565b7f4e487b71000000000000000000000000000000000000000000000000000000005f52601160045260245ffd5b5f611440826111b0565b915061144b836111b0565b9250828202611459816111b0565b915082820484148315176114705761146f611409565b5b5092915050565b7f4e487b71000000000000000000000000000000000000000000000000000000005f52601260045260245ffd5b5f6114ae826111b0565b91506114b9836111b0565b9250826114c9576114c8611477565b5b828204905092915050565b7f4f66666572206d75737420657863656564206d696e2e202500000000000000005f82015250565b5f611508601883611391565b9150611513826114d4565b602082019050919050565b5f6020820190508181035f830152611535816114fc565b9050919050565b5f611546826111b0565b9150611551836111b0565b925082820190508082111561156957611568611409565b5b92915050565b5f611579826111b0565b9150611584836111b0565b925082820390508181111561159c5761159b611409565b5b92915050565b7f4e6f74207468652061756374696f6e206f776e657200000000000000000000005f82015250565b5f6115d6601583611391565b91506115e1826115a2565b602082019050919050565b5f6020820190508181035f830152611603816115ca565b9050919050565b7f41756374696f6e20686173206e6f7420656e64656400000000000000000000005f82015250565b5f61163e601583611391565b91506116498261160a565b602082019050919050565b5f6020820190508181035f83015261166b81611632565b9050919050565b7f4465706f736974732068617665206265656e20726566756e64656400000000005f82015250565b5f6116a6601b83611391565b91506116b182611672565b602082019050919050565b5f6020820190508181035f8301526116d38161169a565b9050919050565b7f4e487b71000000000000000000000000000000000000000000000000000000005f52603260045260245ffd5b5f81905092915050565b50565b5f61171f5f83611707565b915061172a82611711565b5f82019050919050565b5f61173e82611714565b9150819050919050565b7f4661696c75726520746f2073656e6420726566756e64000000000000000000005f82015250565b5f61177c601683611391565b915061178782611748565b602082019050919050565b5f6020820190508181035f8301526117a981611770565b9050919050565b7f4661696c75726520746f2073656e642073656c6c6572000000000000000000005f82015250565b5f6117e4601683611391565b91506117ef826117b0565b602082019050919050565b5f6020820190508181035f830152611811816117d8565b9050919050565b7f6661696c20746f2073656e642066756e647320746f206f776e657200000000005f82015250565b5f61184c601b83611391565b915061185782611818565b602082019050919050565b5f6020820190508181035f83015261187981611840565b9050919050565b7f4e6f206578636573732066756e647320746f20776974686472617700000000005f82015250565b5f6118b4601b83611391565b91506118bf82611880565b602082019050919050565b5f6020820190508181035f8301526118e1816118a8565b9050919050565b7f6661696c20746f2073656e64207061727469616c20726566756e6400000000005f82015250565b5f61191c601b83611391565b9150611927826118e8565b602082019050919050565b5f6020820190508181035f83015261194981611910565b905091905056fea2646970667358221220909c6cb196cc2065b589c13e4be00b1a1c436516a7af3caba8830f89fb1387cc64736f6c634300081a0033",
					"opcodes": "PUSH1 0x80 PUSH1 0x40 MSTORE CALLVALUE DUP1 ISZERO PUSH2 0xF JUMPI PUSH0 DUP1 REVERT JUMPDEST POP PUSH1 0x40 MLOAD PUSH2 0x1B8B CODESIZE SUB DUP1 PUSH2 0x1B8B DUP4 CODECOPY DUP2 DUP2 ADD PUSH1 0x40 MSTORE DUP2 ADD SWAP1 PUSH2 0x31 SWAP2 SWAP1 PUSH2 0x15A JUMP JUMPDEST CALLER PUSH0 DUP1 PUSH2 0x100 EXP DUP2 SLOAD DUP2 PUSH20 0xFFFFFFFFFFFFFFFFFFFFFFFFFFFFFFFFFFFFFFFF MUL NOT AND SWAP1 DUP4 PUSH20 0xFFFFFFFFFFFFFFFFFFFFFFFFFFFFFFFFFFFFFFFF AND MUL OR SWAP1 SSTORE POP DUP2 PUSH1 0x1 PUSH0 PUSH2 0x100 EXP DUP2 SLOAD DUP2 PUSH20 0xFFFFFFFFFFFFFFFFFFFFFFFFFFFFFFFFFFFFFFFF MUL NOT AND SWAP1 DUP4 PUSH20 0xFFFFFFFFFFFFFFFFFFFFFFFFFFFFFFFFFFFFFFFF AND MUL OR SWAP1 SSTORE POP DUP1 TIMESTAMP PUSH2 0xBC SWAP2 SWAP1 PUSH2 0x1C5 JUMP JUMPDEST PUSH1 0x4 DUP2 SWAP1 SSTORE POP POP POP PUSH2 0x1F8 JUMP JUMPDEST PUSH0 DUP1 REVERT JUMPDEST PUSH0 PUSH20 0xFFFFFFFFFFFFFFFFFFFFFFFFFFFFFFFFFFFFFFFF DUP3 AND SWAP1 POP SWAP2 SWAP1 POP JUMP JUMPDEST PUSH0 PUSH2 0xF6 DUP3 PUSH2 0xCD JUMP JUMPDEST SWAP1 POP SWAP2 SWAP1 POP JUMP JUMPDEST PUSH2 0x106 DUP2 PUSH2 0xEC JUMP JUMPDEST DUP2 EQ PUSH2 0x110 JUMPI PUSH0 DUP1 REVERT JUMPDEST POP JUMP JUMPDEST PUSH0 DUP2 MLOAD SWAP1 POP PUSH2 0x121 DUP2 PUSH2 0xFD JUMP JUMPDEST SWAP3 SWAP2 POP POP JUMP JUMPDEST PUSH0 DUP2 SWAP1 POP SWAP2 SWAP1 POP JUMP JUMPDEST PUSH2 0x139 DUP2 PUSH2 0x127 JUMP JUMPDEST DUP2 EQ PUSH2 0x143 JUMPI PUSH0 DUP1 REVERT JUMPDEST POP JUMP JUMPDEST PUSH0 DUP2 MLOAD SWAP1 POP PUSH2 0x154 DUP2 PUSH2 0x130 JUMP JUMPDEST SWAP3 SWAP2 POP POP JUMP JUMPDEST PUSH0 DUP1 PUSH1 0x40 DUP4 DUP6 SUB SLT ISZERO PUSH2 0x170 JUMPI PUSH2 0x16F PUSH2 0xC9 JUMP JUMPDEST JUMPDEST PUSH0 PUSH2 0x17D DUP6 DUP3 DUP7 ADD PUSH2 0x113 JUMP JUMPDEST SWAP3 POP POP PUSH1 0x20 PUSH2 0x18E DUP6 DUP3 DUP7 ADD PUSH2 0x146 JUMP JUMPDEST SWAP2 POP POP SWAP3 POP SWAP3 SWAP1 POP JUMP JUMPDEST PUSH32 0x4E487B7100000000000000000000000000000000000000000000000000000000 PUSH0 MSTORE PUSH1 0x11 PUSH1 0x4 MSTORE PUSH1 0x24 PUSH0 REVERT JUMPDEST PUSH0 PUSH2 0x1CF DUP3 PUSH2 0x127 JUMP JUMPDEST SWAP2 POP PUSH2 0x1DA DUP4 PUSH2 0x127 JUMP JUMPDEST SWAP3 POP DUP3 DUP3 ADD SWAP1 POP DUP1 DUP3 GT ISZERO PUSH2 0x1F2 JUMPI PUSH2 0x1F1 PUSH2 0x198 JUMP JUMPDEST JUMPDEST SWAP3 SWAP2 POP POP JUMP JUMPDEST PUSH2 0x1986 DUP1 PUSH2 0x205 PUSH0 CODECOPY PUSH0 RETURN INVALID PUSH1 0x80 PUSH1 0x40 MSTORE PUSH1 0x4 CALLDATASIZE LT PUSH2 0xFD JUMPI PUSH0 CALLDATALOAD PUSH1 0xE0 SHR DUP1 PUSH4 0x783E4D3D GT PUSH2 0x94 JUMPI DUP1 PUSH4 0x91F90157 GT PUSH2 0x63 JUMPI DUP1 PUSH4 0x91F90157 EQ PUSH2 0x29C JUMPI DUP1 PUSH4 0xB7E03264 EQ PUSH2 0x2C6 JUMPI DUP1 PUSH4 0xD57BDE79 EQ PUSH2 0x2F1 JUMPI DUP1 PUSH4 0xFB7E5AD0 EQ PUSH2 0x31B JUMPI DUP1 PUSH4 0xFC7E286D EQ PUSH2 0x345 JUMPI PUSH2 0xFD JUMP JUMPDEST DUP1 PUSH4 0x783E4D3D EQ PUSH2 0x21C JUMPI DUP1 PUSH4 0x853828B6 EQ PUSH2 0x246 JUMPI DUP1 PUSH4 0x8BF43A83 EQ PUSH2 0x25C JUMPI DUP1 PUSH4 0x8DA5CB5B EQ PUSH2 0x272 JUMPI PUSH2 0xFD JUMP JUMPDEST DUP1 PUSH4 0x362E2565 GT PUSH2 0xD0 JUMPI DUP1 PUSH4 0x362E2565 EQ PUSH2 0x189 JUMPI DUP1 PUSH4 0x4423C5F1 EQ PUSH2 0x19F JUMPI DUP1 PUSH4 0x4B449CBA EQ PUSH2 0x1DC JUMPI DUP1 PUSH4 0x5958611E EQ PUSH2 0x206 JUMPI PUSH2 0xFD JUMP JUMPDEST DUP1 PUSH4 0x8551A53 EQ PUSH2 0x101 JUMPI DUP1 PUSH4 0x12FA6FEB EQ PUSH2 0x12B JUMPI DUP1 PUSH4 0x14D2687C EQ PUSH2 0x155 JUMPI DUP1 PUSH4 0x1998AEEF EQ PUSH2 0x17F JUMPI JUMPDEST PUSH0 DUP1 REVERT JUMPDEST CALLVALUE DUP1 ISZERO PUSH2 0x10C JUMPI PUSH0 DUP1 REVERT JUMPDEST POP PUSH2 0x115 PUSH2 0x381 JUMP JUMPDEST PUSH1 0x40 MLOAD PUSH2 0x122 SWAP2 SWAP1 PUSH2 0x112C JUMP JUMPDEST PUSH1 0x40 MLOAD DUP1 SWAP2 SUB SWAP1 RETURN JUMPDEST CALLVALUE DUP1 ISZERO PUSH2 0x136 JUMPI PUSH0 DUP1 REVERT JUMPDEST POP PUSH2 0x13F PUSH2 0x3A6 JUMP JUMPDEST PUSH1 0x40 MLOAD PUSH2 0x14C SWAP2 SWAP1 PUSH2 0x115F JUMP JUMPDEST PUSH1 0x40 MLOAD DUP1 SWAP2 SUB SWAP1 RETURN JUMPDEST CALLVALUE DUP1 ISZERO PUSH2 0x160 JUMPI PUSH0 DUP1 REVERT JUMPDEST POP PUSH2 0x169 PUSH2 0x3B8 JUMP JUMPDEST PUSH1 0x40 MLOAD PUSH2 0x176 SWAP2 SWAP1 PUSH2 0x1274 JUMP JUMPDEST PUSH1 0x40 MLOAD DUP1 SWAP2 SUB SWAP1 RETURN JUMPDEST PUSH2 0x187 PUSH2 0x472 JUMP JUMPDEST STOP JUMPDEST CALLVALUE DUP1 ISZERO PUSH2 0x194 JUMPI PUSH0 DUP1 REVERT JUMPDEST POP PUSH2 0x19D PUSH2 0x6D4 JUMP JUMPDEST STOP JUMPDEST CALLVALUE DUP1 ISZERO PUSH2 0x1AA JUMPI PUSH0 DUP1 REVERT JUMPDEST POP PUSH2 0x1C5 PUSH1 0x4 DUP1 CALLDATASIZE SUB DUP2 ADD SWAP1 PUSH2 0x1C0 SWAP2 SWAP1 PUSH2 0x12C2 JUMP JUMPDEST PUSH2 0xB51 JUMP JUMPDEST PUSH1 0x40 MLOAD PUSH2 0x1D3 SWAP3 SWAP2 SWAP1 PUSH2 0x12FC JUMP JUMPDEST PUSH1 0x40 MLOAD DUP1 SWAP2 SUB SWAP1 RETURN JUMPDEST CALLVALUE DUP1 ISZERO PUSH2 0x1E7 JUMPI PUSH0 DUP1 REVERT JUMPDEST POP PUSH2 0x1F0 PUSH2 0xB9F JUMP JUMPDEST PUSH1 0x40 MLOAD PUSH2 0x1FD SWAP2 SWAP1 PUSH2 0x1323 JUMP JUMPDEST PUSH1 0x40 MLOAD DUP1 SWAP2 SUB SWAP1 RETURN JUMPDEST CALLVALUE DUP1 ISZERO PUSH2 0x211 JUMPI PUSH0 DUP1 REVERT JUMPDEST POP PUSH2 0x21A PUSH2 0xBA5 JUMP JUMPDEST STOP JUMPDEST CALLVALUE DUP1 ISZERO PUSH2 0x227 JUMPI PUSH0 DUP1 REVERT JUMPDEST POP PUSH2 0x230 PUSH2 0xBBA JUMP JUMPDEST PUSH1 0x40 MLOAD PUSH2 0x23D SWAP2 SWAP1 PUSH2 0x1323 JUMP JUMPDEST PUSH1 0x40 MLOAD DUP1 SWAP2 SUB SWAP1 RETURN JUMPDEST CALLVALUE DUP1 ISZERO PUSH2 0x251 JUMPI PUSH0 DUP1 REVERT JUMPDEST POP PUSH2 0x25A PUSH2 0xBBF JUMP JUMPDEST STOP JUMPDEST CALLVALUE DUP1 ISZERO PUSH2 0x267 JUMPI PUSH0 DUP1 REVERT JUMPDEST POP PUSH2 0x270 PUSH2 0xD5C JUMP JUMPDEST STOP JUMPDEST CALLVALUE DUP1 ISZERO PUSH2 0x27D JUMPI PUSH0 DUP1 REVERT JUMPDEST POP PUSH2 0x286 PUSH2 0x1008 JUMP JUMPDEST PUSH1 0x40 MLOAD PUSH2 0x293 SWAP2 SWAP1 PUSH2 0x112C JUMP JUMPDEST PUSH1 0x40 MLOAD DUP1 SWAP2 SUB SWAP1 RETURN JUMPDEST CALLVALUE DUP1 ISZERO PUSH2 0x2A7 JUMPI PUSH0 DUP1 REVERT JUMPDEST POP PUSH2 0x2B0 PUSH2 0x102B JUMP JUMPDEST PUSH1 0x40 MLOAD PUSH2 0x2BD SWAP2 SWAP1 PUSH2 0x112C JUMP JUMPDEST PUSH1 0x40 MLOAD DUP1 SWAP2 SUB SWAP1 RETURN JUMPDEST CALLVALUE DUP1 ISZERO PUSH2 0x2D1 JUMPI PUSH0 DUP1 REVERT JUMPDEST POP PUSH2 0x2DA PUSH2 0x1050 JUMP JUMPDEST PUSH1 0x40 MLOAD PUSH2 0x2E8 SWAP3 SWAP2 SWAP1 PUSH2 0x12FC JUMP JUMPDEST PUSH1 0x40 MLOAD DUP1 SWAP2 SUB SWAP1 RETURN JUMPDEST CALLVALUE DUP1 ISZERO PUSH2 0x2FC JUMPI PUSH0 DUP1 REVERT JUMPDEST POP PUSH2 0x305 PUSH2 0x10CD JUMP JUMPDEST PUSH1 0x40 MLOAD PUSH2 0x312 SWAP2 SWAP1 PUSH2 0x1323 JUMP JUMPDEST PUSH1 0x40 MLOAD DUP1 SWAP2 SUB SWAP1 RETURN JUMPDEST CALLVALUE DUP1 ISZERO PUSH2 0x326 JUMPI PUSH0 DUP1 REVERT JUMPDEST POP PUSH2 0x32F PUSH2 0x10D3 JUMP JUMPDEST PUSH1 0x40 MLOAD PUSH2 0x33C SWAP2 SWAP1 PUSH2 0x1323 JUMP JUMPDEST PUSH1 0x40 MLOAD DUP1 SWAP2 SUB SWAP1 RETURN JUMPDEST CALLVALUE DUP1 ISZERO PUSH2 0x350 JUMPI PUSH0 DUP1 REVERT JUMPDEST POP PUSH2 0x36B PUSH1 0x4 DUP1 CALLDATASIZE SUB DUP2 ADD SWAP1 PUSH2 0x366 SWAP2 SWAP1 PUSH2 0x1366 JUMP JUMPDEST PUSH2 0x10D8 JUMP JUMPDEST PUSH1 0x40 MLOAD PUSH2 0x378 SWAP2 SWAP1 PUSH2 0x1323 JUMP JUMPDEST PUSH1 0x40 MLOAD DUP1 SWAP2 SUB SWAP1 RETURN JUMPDEST PUSH1 0x1 PUSH0 SWAP1 SLOAD SWAP1 PUSH2 0x100 EXP SWAP1 DIV PUSH20 0xFFFFFFFFFFFFFFFFFFFFFFFFFFFFFFFFFFFFFFFF AND DUP2 JUMP JUMPDEST PUSH1 0x5 PUSH0 SWAP1 SLOAD SWAP1 PUSH2 0x100 EXP SWAP1 DIV PUSH1 0xFF AND DUP2 JUMP JUMPDEST PUSH1 0x60 PUSH1 0x6 DUP1 SLOAD DUP1 PUSH1 0x20 MUL PUSH1 0x20 ADD PUSH1 0x40 MLOAD SWAP1 DUP2 ADD PUSH1 0x40 MSTORE DUP1 SWAP3 SWAP2 SWAP1 DUP2 DUP2 MSTORE PUSH1 0x20 ADD PUSH0 SWAP1 JUMPDEST DUP3 DUP3 LT ISZERO PUSH2 0x469 JUMPI DUP4 DUP3 SWAP1 PUSH0 MSTORE PUSH1 0x20 PUSH0 KECCAK256 SWAP1 PUSH1 0x2 MUL ADD PUSH1 0x40 MLOAD DUP1 PUSH1 0x40 ADD PUSH1 0x40 MSTORE SWAP1 DUP2 PUSH0 DUP3 ADD PUSH0 SWAP1 SLOAD SWAP1 PUSH2 0x100 EXP SWAP1 DIV PUSH20 0xFFFFFFFFFFFFFFFFFFFFFFFFFFFFFFFFFFFFFFFF AND PUSH20 0xFFFFFFFFFFFFFFFFFFFFFFFFFFFFFFFFFFFFFFFF AND PUSH20 0xFFFFFFFFFFFFFFFFFFFFFFFFFFFFFFFFFFFFFFFF AND DUP2 MSTORE PUSH1 0x20 ADD PUSH1 0x1 DUP3 ADD SLOAD DUP2 MSTORE POP POP DUP2 MSTORE PUSH1 0x20 ADD SWAP1 PUSH1 0x1 ADD SWAP1 PUSH2 0x3DB JUMP JUMPDEST POP POP POP POP SWAP1 POP SWAP1 JUMP JUMPDEST PUSH1 0x4 SLOAD TIMESTAMP LT PUSH2 0x4B6 JUMPI PUSH1 0x40 MLOAD PUSH32 0x8C379A000000000000000000000000000000000000000000000000000000000 DUP2 MSTORE PUSH1 0x4 ADD PUSH2 0x4AD SWAP1 PUSH2 0x13EB JUMP JUMPDEST PUSH1 0x40 MLOAD DUP1 SWAP2 SUB SWAP1 REVERT JUMPDEST PUSH0 PUSH1 0x3 SLOAD SWAP1 POP PUSH1 0x64 PUSH1 0x69 DUP3 PUSH2 0x4CB SWAP2 SWAP1 PUSH2 0x1436 JUMP JUMPDEST PUSH2 0x4D5 SWAP2 SWAP1 PUSH2 0x14A4 JUMP JUMPDEST CALLVALUE GT PUSH2 0x516 JUMPI PUSH1 0x40 MLOAD PUSH32 0x8C379A000000000000000000000000000000000000000000000000000000000 DUP2 MSTORE PUSH1 0x4 ADD PUSH2 0x50D SWAP1 PUSH2 0x151E JUMP JUMPDEST PUSH1 0x40 MLOAD DUP1 SWAP2 SUB SWAP1 REVERT JUMPDEST CALLER PUSH1 0x2 PUSH0 PUSH2 0x100 EXP DUP2 SLOAD DUP2 PUSH20 0xFFFFFFFFFFFFFFFFFFFFFFFFFFFFFFFFFFFFFFFF MUL NOT AND SWAP1 DUP4 PUSH20 0xFFFFFFFFFFFFFFFFFFFFFFFFFFFFFFFFFFFFFFFF AND MUL OR SWAP1 SSTORE POP CALLVALUE PUSH1 0x3 DUP2 SWAP1 SSTORE POP CALLVALUE PUSH1 0x7 PUSH0 CALLER PUSH20 0xFFFFFFFFFFFFFFFFFFFFFFFFFFFFFFFFFFFFFFFF AND PUSH20 0xFFFFFFFFFFFFFFFFFFFFFFFFFFFFFFFFFFFFFFFF AND DUP2 MSTORE PUSH1 0x20 ADD SWAP1 DUP2 MSTORE PUSH1 0x20 ADD PUSH0 KECCAK256 PUSH0 DUP3 DUP3 SLOAD PUSH2 0x5A9 SWAP2 SWAP1 PUSH2 0x153C JUMP JUMPDEST SWAP3 POP POP DUP2 SWAP1 SSTORE POP PUSH1 0x6 PUSH1 0x40 MLOAD DUP1 PUSH1 0x40 ADD PUSH1 0x40 MSTORE DUP1 CALLER PUSH20 0xFFFFFFFFFFFFFFFFFFFFFFFFFFFFFFFFFFFFFFFF AND DUP2 MSTORE PUSH1 0x20 ADD CALLVALUE DUP2 MSTORE POP SWAP1 DUP1 PUSH1 0x1 DUP2 SLOAD ADD DUP1 DUP3 SSTORE DUP1 SWAP2 POP POP PUSH1 0x1 SWAP1 SUB SWAP1 PUSH0 MSTORE PUSH1 0x20 PUSH0 KECCAK256 SWAP1 PUSH1 0x2 MUL ADD PUSH0 SWAP1 SWAP2 SWAP1 SWAP2 SWAP1 SWAP2 POP PUSH0 DUP3 ADD MLOAD DUP2 PUSH0 ADD PUSH0 PUSH2 0x100 EXP DUP2 SLOAD DUP2 PUSH20 0xFFFFFFFFFFFFFFFFFFFFFFFFFFFFFFFFFFFFFFFF MUL NOT AND SWAP1 DUP4 PUSH20 0xFFFFFFFFFFFFFFFFFFFFFFFFFFFFFFFFFFFFFFFF AND MUL OR SWAP1 SSTORE POP PUSH1 0x20 DUP3 ADD MLOAD DUP2 PUSH1 0x1 ADD SSTORE POP POP PUSH0 PUSH1 0x4 SLOAD SWAP1 POP PUSH2 0x258 DUP2 PUSH2 0x667 SWAP2 SWAP1 PUSH2 0x156F JUMP JUMPDEST TIMESTAMP LT PUSH2 0x682 JUMPI PUSH2 0x258 DUP2 PUSH2 0x67B SWAP2 SWAP1 PUSH2 0x153C JUMP JUMPDEST PUSH1 0x4 DUP2 SWAP1 SSTORE POP JUMPDEST CALLER PUSH20 0xFFFFFFFFFFFFFFFFFFFFFFFFFFFFFFFFFFFFFFFF AND PUSH32 0xDD0B6C6A77960E2066C96171B4D7AC9E8B4C184011F38544AFA36A5BB63EC59F CALLVALUE PUSH1 0x40 MLOAD PUSH2 0x6C8 SWAP2 SWAP1 PUSH2 0x1323 JUMP JUMPDEST PUSH1 0x40 MLOAD DUP1 SWAP2 SUB SWAP1 LOG2 POP POP JUMP JUMPDEST PUSH0 DUP1 SLOAD SWAP1 PUSH2 0x100 EXP SWAP1 DIV PUSH20 0xFFFFFFFFFFFFFFFFFFFFFFFFFFFFFFFFFFFFFFFF AND PUSH20 0xFFFFFFFFFFFFFFFFFFFFFFFFFFFFFFFFFFFFFFFF AND CALLER PUSH20 0xFFFFFFFFFFFFFFFFFFFFFFFFFFFFFFFFFFFFFFFF AND EQ PUSH2 0x761 JUMPI PUSH1 0x40 MLOAD PUSH32 0x8C379A000000000000000000000000000000000000000000000000000000000 DUP2 MSTORE PUSH1 0x4 ADD PUSH2 0x758 SWAP1 PUSH2 0x15EC JUMP JUMPDEST PUSH1 0x40 MLOAD DUP1 SWAP2 SUB SWAP1 REVERT JUMPDEST PUSH1 0x4 SLOAD TIMESTAMP LT ISZERO PUSH2 0x7A6 JUMPI PUSH1 0x40 MLOAD PUSH32 0x8C379A000000000000000000000000000000000000000000000000000000000 DUP2 MSTORE PUSH1 0x4 ADD PUSH2 0x79D SWAP1 PUSH2 0x1654 JUMP JUMPDEST PUSH1 0x40 MLOAD DUP1 SWAP2 SUB SWAP1 REVERT JUMPDEST PUSH1 0x5 PUSH0 SWAP1 SLOAD SWAP1 PUSH2 0x100 EXP SWAP1 DIV PUSH1 0xFF AND ISZERO PUSH2 0x7F5 JUMPI PUSH1 0x40 MLOAD PUSH32 0x8C379A000000000000000000000000000000000000000000000000000000000 DUP2 MSTORE PUSH1 0x4 ADD PUSH2 0x7EC SWAP1 PUSH2 0x16BC JUMP JUMPDEST PUSH1 0x40 MLOAD DUP1 SWAP2 SUB SWAP1 REVERT JUMPDEST PUSH1 0x1 PUSH1 0x5 PUSH0 PUSH2 0x100 EXP DUP2 SLOAD DUP2 PUSH1 0xFF MUL NOT AND SWAP1 DUP4 ISZERO ISZERO MUL OR SWAP1 SSTORE POP PUSH0 PUSH1 0x6 DUP1 SLOAD SWAP1 POP SWAP1 POP PUSH0 PUSH1 0x2 PUSH0 SWAP1 SLOAD SWAP1 PUSH2 0x100 EXP SWAP1 DIV PUSH20 0xFFFFFFFFFFFFFFFFFFFFFFFFFFFFFFFFFFFFFFFF AND SWAP1 POP PUSH0 DUP1 PUSH0 SWAP1 POP JUMPDEST DUP4 DUP2 LT ISZERO PUSH2 0xA2C JUMPI PUSH0 PUSH1 0x6 DUP3 DUP2 SLOAD DUP2 LT PUSH2 0x860 JUMPI PUSH2 0x85F PUSH2 0x16DA JUMP JUMPDEST JUMPDEST SWAP1 PUSH0 MSTORE PUSH1 0x20 PUSH0 KECCAK256 SWAP1 PUSH1 0x2 MUL ADD PUSH0 ADD PUSH0 SWAP1 SLOAD SWAP1 PUSH2 0x100 EXP SWAP1 DIV PUSH20 0xFFFFFFFFFFFFFFFFFFFFFFFFFFFFFFFFFFFFFFFF AND SWAP1 POP DUP4 PUSH20 0xFFFFFFFFFFFFFFFFFFFFFFFFFFFFFFFFFFFFFFFF AND DUP2 PUSH20 0xFFFFFFFFFFFFFFFFFFFFFFFFFFFFFFFFFFFFFFFF AND EQ PUSH2 0xA1E JUMPI PUSH0 PUSH1 0x7 PUSH0 DUP4 PUSH20 0xFFFFFFFFFFFFFFFFFFFFFFFFFFFFFFFFFFFFFFFF AND PUSH20 0xFFFFFFFFFFFFFFFFFFFFFFFFFFFFFFFFFFFFFFFF AND DUP2 MSTORE PUSH1 0x20 ADD SWAP1 DUP2 MSTORE PUSH1 0x20 ADD PUSH0 KECCAK256 SLOAD SWAP1 POP PUSH0 PUSH1 0x64 PUSH1 0x2 DUP4 PUSH2 0x914 SWAP2 SWAP1 PUSH2 0x1436 JUMP JUMPDEST PUSH2 0x91E SWAP2 SWAP1 PUSH2 0x14A4 JUMP JUMPDEST SWAP1 POP PUSH0 DUP2 DUP4 PUSH2 0x92D SWAP2 SWAP1 PUSH2 0x156F JUMP JUMPDEST SWAP1 POP PUSH0 PUSH1 0x7 PUSH0 DUP7 PUSH20 0xFFFFFFFFFFFFFFFFFFFFFFFFFFFFFFFFFFFFFFFF AND PUSH20 0xFFFFFFFFFFFFFFFFFFFFFFFFFFFFFFFFFFFFFFFF AND DUP2 MSTORE PUSH1 0x20 ADD SWAP1 DUP2 MSTORE PUSH1 0x20 ADD PUSH0 KECCAK256 DUP2 SWAP1 SSTORE POP DUP4 PUSH20 0xFFFFFFFFFFFFFFFFFFFFFFFFFFFFFFFFFFFFFFFF AND DUP2 PUSH1 0x40 MLOAD PUSH2 0x995 SWAP1 PUSH2 0x1734 JUMP JUMPDEST PUSH0 PUSH1 0x40 MLOAD DUP1 DUP4 SUB DUP2 DUP6 DUP8 GAS CALL SWAP3 POP POP POP RETURNDATASIZE DUP1 PUSH0 DUP2 EQ PUSH2 0x9CF JUMPI PUSH1 0x40 MLOAD SWAP2 POP PUSH1 0x1F NOT PUSH1 0x3F RETURNDATASIZE ADD AND DUP3 ADD PUSH1 0x40 MSTORE RETURNDATASIZE DUP3 MSTORE RETURNDATASIZE PUSH0 PUSH1 0x20 DUP5 ADD RETURNDATACOPY PUSH2 0x9D4 JUMP JUMPDEST PUSH1 0x60 SWAP2 POP JUMPDEST POP POP DUP1 SWAP7 POP POP DUP6 PUSH2 0xA1A JUMPI PUSH1 0x40 MLOAD PUSH32 0x8C379A000000000000000000000000000000000000000000000000000000000 DUP2 MSTORE PUSH1 0x4 ADD PUSH2 0xA11 SWAP1 PUSH2 0x1792 JUMP JUMPDEST PUSH1 0x40 MLOAD DUP1 SWAP2 SUB SWAP1 REVERT JUMPDEST POP POP POP JUMPDEST POP DUP1 DUP1 PUSH1 0x1 ADD SWAP2 POP POP PUSH2 0x843 JUMP JUMPDEST POP PUSH0 PUSH1 0x3 SLOAD SWAP1 POP DUP3 PUSH20 0xFFFFFFFFFFFFFFFFFFFFFFFFFFFFFFFFFFFFFFFF AND PUSH32 0xDAEC4582D5D9595688C8C98545FDD1C696D41C6AEAEB636737E84ED2F5C00EDA DUP3 PUSH1 0x40 MLOAD PUSH2 0xA79 SWAP2 SWAP1 PUSH2 0x1323 JUMP JUMPDEST PUSH1 0x40 MLOAD DUP1 SWAP2 SUB SWAP1 LOG2 PUSH1 0x1 PUSH0 SWAP1 SLOAD SWAP1 PUSH2 0x100 EXP SWAP1 DIV PUSH20 0xFFFFFFFFFFFFFFFFFFFFFFFFFFFFFFFFFFFFFFFF AND PUSH20 0xFFFFFFFFFFFFFFFFFFFFFFFFFFFFFFFFFFFFFFFF AND DUP2 PUSH1 0x40 MLOAD PUSH2 0xAC6 SWAP1 PUSH2 0x1734 JUMP JUMPDEST PUSH0 PUSH1 0x40 MLOAD DUP1 DUP4 SUB DUP2 DUP6 DUP8 GAS CALL SWAP3 POP POP POP RETURNDATASIZE DUP1 PUSH0 DUP2 EQ PUSH2 0xB00 JUMPI PUSH1 0x40 MLOAD SWAP2 POP PUSH1 0x1F NOT PUSH1 0x3F RETURNDATASIZE ADD AND DUP3 ADD PUSH1 0x40 MSTORE RETURNDATASIZE DUP3 MSTORE RETURNDATASIZE PUSH0 PUSH1 0x20 DUP5 ADD RETURNDATACOPY PUSH2 0xB05 JUMP JUMPDEST PUSH1 0x60 SWAP2 POP JUMPDEST POP POP DUP1 SWAP3 POP POP DUP2 PUSH2 0xB4B JUMPI PUSH1 0x40 MLOAD PUSH32 0x8C379A000000000000000000000000000000000000000000000000000000000 DUP2 MSTORE PUSH1 0x4 ADD PUSH2 0xB42 SWAP1 PUSH2 0x17FA JUMP JUMPDEST PUSH1 0x40 MLOAD DUP1 SWAP2 SUB SWAP1 REVERT JUMPDEST POP POP POP POP JUMP JUMPDEST PUSH1 0x6 DUP2 DUP2 SLOAD DUP2 LT PUSH2 0xB60 JUMPI PUSH0 DUP1 REVERT JUMPDEST SWAP1 PUSH0 MSTORE PUSH1 0x20 PUSH0 KECCAK256 SWAP1 PUSH1 0x2 MUL ADD PUSH0 SWAP2 POP SWAP1 POP DUP1 PUSH0 ADD PUSH0 SWAP1 SLOAD SWAP1 PUSH2 0x100 EXP SWAP1 DIV PUSH20 0xFFFFFFFFFFFFFFFFFFFFFFFFFFFFFFFFFFFFFFFF AND SWAP1 DUP1 PUSH1 0x1 ADD SLOAD SWAP1 POP DUP3 JUMP JUMPDEST PUSH1 0x4 SLOAD DUP2 JUMP JUMPDEST PUSH1 0x1 TIMESTAMP PUSH2 0xBB2 SWAP2 SWAP1 PUSH2 0x156F JUMP JUMPDEST PUSH1 0x4 DUP2 SWAP1 SSTORE POP JUMP JUMPDEST PUSH1 0x69 DUP2 JUMP JUMPDEST PUSH1 0x4 SLOAD TIMESTAMP LT ISZERO PUSH2 0xC04 JUMPI PUSH1 0x40 MLOAD PUSH32 0x8C379A000000000000000000000000000000000000000000000000000000000 DUP2 MSTORE PUSH1 0x4 ADD PUSH2 0xBFB SWAP1 PUSH2 0x1654 JUMP JUMPDEST PUSH1 0x40 MLOAD DUP1 SWAP2 SUB SWAP1 REVERT JUMPDEST PUSH0 DUP1 SLOAD SWAP1 PUSH2 0x100 EXP SWAP1 DIV PUSH20 0xFFFFFFFFFFFFFFFFFFFFFFFFFFFFFFFFFFFFFFFF AND PUSH20 0xFFFFFFFFFFFFFFFFFFFFFFFFFFFFFFFFFFFFFFFF AND CALLER PUSH20 0xFFFFFFFFFFFFFFFFFFFFFFFFFFFFFFFFFFFFFFFF AND EQ PUSH2 0xC91 JUMPI PUSH1 0x40 MLOAD PUSH32 0x8C379A000000000000000000000000000000000000000000000000000000000 DUP2 MSTORE PUSH1 0x4 ADD PUSH2 0xC88 SWAP1 PUSH2 0x15EC JUMP JUMPDEST PUSH1 0x40 MLOAD DUP1 SWAP2 SUB SWAP1 REVERT JUMPDEST PUSH0 DUP1 PUSH0 SWAP1 SLOAD SWAP1 PUSH2 0x100 EXP SWAP1 DIV PUSH20 0xFFFFFFFFFFFFFFFFFFFFFFFFFFFFFFFFFFFFFFFF AND PUSH20 0xFFFFFFFFFFFFFFFFFFFFFFFFFFFFFFFFFFFFFFFF AND SELFBALANCE PUSH1 0x40 MLOAD PUSH2 0xCD6 SWAP1 PUSH2 0x1734 JUMP JUMPDEST PUSH0 PUSH1 0x40 MLOAD DUP1 DUP4 SUB DUP2 DUP6 DUP8 GAS CALL SWAP3 POP POP POP RETURNDATASIZE DUP1 PUSH0 DUP2 EQ PUSH2 0xD10 JUMPI PUSH1 0x40 MLOAD SWAP2 POP PUSH1 0x1F NOT PUSH1 0x3F RETURNDATASIZE ADD AND DUP3 ADD PUSH1 0x40 MSTORE RETURNDATASIZE DUP3 MSTORE RETURNDATASIZE PUSH0 PUSH1 0x20 DUP5 ADD RETURNDATACOPY PUSH2 0xD15 JUMP JUMPDEST PUSH1 0x60 SWAP2 POP JUMPDEST POP POP SWAP1 POP DUP1 PUSH2 0xD59 JUMPI PUSH1 0x40 MLOAD PUSH32 0x8C379A000000000000000000000000000000000000000000000000000000000 DUP2 MSTORE PUSH1 0x4 ADD PUSH2 0xD50 SWAP1 PUSH2 0x1862 JUMP JUMPDEST PUSH1 0x40 MLOAD DUP1 SWAP2 SUB SWAP1 REVERT JUMPDEST POP JUMP JUMPDEST PUSH1 0x4 SLOAD TIMESTAMP LT PUSH2 0xDA0 JUMPI PUSH1 0x40 MLOAD PUSH32 0x8C379A000000000000000000000000000000000000000000000000000000000 DUP2 MSTORE PUSH1 0x4 ADD PUSH2 0xD97 SWAP1 PUSH2 0x13EB JUMP JUMPDEST PUSH1 0x40 MLOAD DUP1 SWAP2 SUB SWAP1 REVERT JUMPDEST PUSH0 PUSH1 0x7 PUSH0 CALLER PUSH20 0xFFFFFFFFFFFFFFFFFFFFFFFFFFFFFFFFFFFFFFFF AND PUSH20 0xFFFFFFFFFFFFFFFFFFFFFFFFFFFFFFFFFFFFFFFF AND DUP2 MSTORE PUSH1 0x20 ADD SWAP1 DUP2 MSTORE PUSH1 0x20 ADD PUSH0 KECCAK256 SLOAD SWAP1 POP PUSH0 DUP1 JUMPDEST PUSH1 0x6 DUP1 SLOAD SWAP1 POP DUP2 LT ISZERO PUSH2 0xE99 JUMPI CALLER PUSH20 0xFFFFFFFFFFFFFFFFFFFFFFFFFFFFFFFFFFFFFFFF AND PUSH1 0x6 DUP3 DUP2 SLOAD DUP2 LT PUSH2 0xE1C JUMPI PUSH2 0xE1B PUSH2 0x16DA JUMP JUMPDEST JUMPDEST SWAP1 PUSH0 MSTORE PUSH1 0x20 PUSH0 KECCAK256 SWAP1 PUSH1 0x2 MUL ADD PUSH0 ADD PUSH0 SWAP1 SLOAD SWAP1 PUSH2 0x100 EXP SWAP1 DIV PUSH20 0xFFFFFFFFFFFFFFFFFFFFFFFFFFFFFFFFFFFFFFFF AND PUSH20 0xFFFFFFFFFFFFFFFFFFFFFFFFFFFFFFFFFFFFFFFF AND SUB PUSH2 0xE8C JUMPI PUSH1 0x6 DUP2 DUP2 SLOAD DUP2 LT PUSH2 0xE79 JUMPI PUSH2 0xE78 PUSH2 0x16DA JUMP JUMPDEST JUMPDEST SWAP1 PUSH0 MSTORE PUSH1 0x20 PUSH0 KECCAK256 SWAP1 PUSH1 0x2 MUL ADD PUSH1 0x1 ADD SLOAD SWAP2 POP JUMPDEST DUP1 DUP1 PUSH1 0x1 ADD SWAP2 POP POP PUSH2 0xDE4 JUMP JUMPDEST POP DUP1 DUP3 GT PUSH2 0xEDC JUMPI PUSH1 0x40 MLOAD PUSH32 0x8C379A000000000000000000000000000000000000000000000000000000000 DUP2 MSTORE PUSH1 0x4 ADD PUSH2 0xED3 SWAP1 PUSH2 0x18CA JUMP JUMPDEST PUSH1 0x40 MLOAD DUP1 SWAP2 SUB SWAP1 REVERT JUMPDEST PUSH0 DUP2 DUP4 PUSH2 0xEE9 SWAP2 SWAP1 PUSH2 0x156F JUMP JUMPDEST SWAP1 POP DUP2 PUSH1 0x7 PUSH0 CALLER PUSH20 0xFFFFFFFFFFFFFFFFFFFFFFFFFFFFFFFFFFFFFFFF AND PUSH20 0xFFFFFFFFFFFFFFFFFFFFFFFFFFFFFFFFFFFFFFFF AND DUP2 MSTORE PUSH1 0x20 ADD SWAP1 DUP2 MSTORE PUSH1 0x20 ADD PUSH0 KECCAK256 DUP2 SWAP1 SSTORE POP PUSH0 PUSH1 0x64 PUSH1 0x2 DUP4 PUSH2 0xF3D SWAP2 SWAP1 PUSH2 0x1436 JUMP JUMPDEST PUSH2 0xF47 SWAP2 SWAP1 PUSH2 0x14A4 JUMP JUMPDEST SWAP1 POP PUSH0 DUP2 DUP4 PUSH2 0xF56 SWAP2 SWAP1 PUSH2 0x156F JUMP JUMPDEST SWAP1 POP PUSH0 CALLER PUSH20 0xFFFFFFFFFFFFFFFFFFFFFFFFFFFFFFFFFFFFFFFF AND DUP3 PUSH1 0x40 MLOAD PUSH2 0xF7D SWAP1 PUSH2 0x1734 JUMP JUMPDEST PUSH0 PUSH1 0x40 MLOAD DUP1 DUP4 SUB DUP2 DUP6 DUP8 GAS CALL SWAP3 POP POP POP RETURNDATASIZE DUP1 PUSH0 DUP2 EQ PUSH2 0xFB7 JUMPI PUSH1 0x40 MLOAD SWAP2 POP PUSH1 0x1F NOT PUSH1 0x3F RETURNDATASIZE ADD AND DUP3 ADD PUSH1 0x40 MSTORE RETURNDATASIZE DUP3 MSTORE RETURNDATASIZE PUSH0 PUSH1 0x20 DUP5 ADD RETURNDATACOPY PUSH2 0xFBC JUMP JUMPDEST PUSH1 0x60 SWAP2 POP JUMPDEST POP POP SWAP1 POP DUP1 PUSH2 0x1000 JUMPI PUSH1 0x40 MLOAD PUSH32 0x8C379A000000000000000000000000000000000000000000000000000000000 DUP2 MSTORE PUSH1 0x4 ADD PUSH2 0xFF7 SWAP1 PUSH2 0x1932 JUMP JUMPDEST PUSH1 0x40 MLOAD DUP1 SWAP2 SUB SWAP1 REVERT JUMPDEST POP POP POP POP POP POP JUMP JUMPDEST PUSH0 DUP1 SLOAD SWAP1 PUSH2 0x100 EXP SWAP1 DIV PUSH20 0xFFFFFFFFFFFFFFFFFFFFFFFFFFFFFFFFFFFFFFFF AND DUP2 JUMP JUMPDEST PUSH1 0x2 PUSH0 SWAP1 SLOAD SWAP1 PUSH2 0x100 EXP SWAP1 DIV PUSH20 0xFFFFFFFFFFFFFFFFFFFFFFFFFFFFFFFFFFFFFFFF AND DUP2 JUMP JUMPDEST PUSH0 DUP1 PUSH1 0x5 PUSH0 SWAP1 SLOAD SWAP1 PUSH2 0x100 EXP SWAP1 DIV PUSH1 0xFF AND PUSH2 0x10A0 JUMPI PUSH1 0x40 MLOAD PUSH32 0x8C379A000000000000000000000000000000000000000000000000000000000 DUP2 MSTORE PUSH1 0x4 ADD PUSH2 0x1097 SWAP1 PUSH2 0x1654 JUMP JUMPDEST PUSH1 0x40 MLOAD DUP1 SWAP2 SUB SWAP1 REVERT JUMPDEST PUSH1 0x2 PUSH0 SWAP1 SLOAD SWAP1 PUSH2 0x100 EXP SWAP1 DIV PUSH20 0xFFFFFFFFFFFFFFFFFFFFFFFFFFFFFFFFFFFFFFFF AND PUSH1 0x3 SLOAD SWAP2 POP SWAP2 POP SWAP1 SWAP2 JUMP JUMPDEST PUSH1 0x3 SLOAD DUP2 JUMP JUMPDEST PUSH1 0x2 DUP2 JUMP JUMPDEST PUSH1 0x7 PUSH1 0x20 MSTORE DUP1 PUSH0 MSTORE PUSH1 0x40 PUSH0 KECCAK256 PUSH0 SWAP2 POP SWAP1 POP SLOAD DUP2 JUMP JUMPDEST PUSH0 PUSH20 0xFFFFFFFFFFFFFFFFFFFFFFFFFFFFFFFFFFFFFFFF DUP3 AND SWAP1 POP SWAP2 SWAP1 POP JUMP JUMPDEST PUSH0 PUSH2 0x1116 DUP3 PUSH2 0x10ED JUMP JUMPDEST SWAP1 POP SWAP2 SWAP1 POP JUMP JUMPDEST PUSH2 0x1126 DUP2 PUSH2 0x110C JUMP JUMPDEST DUP3 MSTORE POP POP JUMP JUMPDEST PUSH0 PUSH1 0x20 DUP3 ADD SWAP1 POP PUSH2 0x113F PUSH0 DUP4 ADD DUP5 PUSH2 0x111D JUMP JUMPDEST SWAP3 SWAP2 POP POP JUMP JUMPDEST PUSH0 DUP2 ISZERO ISZERO SWAP1 POP SWAP2 SWAP1 POP JUMP JUMPDEST PUSH2 0x1159 DUP2 PUSH2 0x1145 JUMP JUMPDEST DUP3 MSTORE POP POP JUMP JUMPDEST PUSH0 PUSH1 0x20 DUP3 ADD SWAP1 POP PUSH2 0x1172 PUSH0 DUP4 ADD DUP5 PUSH2 0x1150 JUMP JUMPDEST SWAP3 SWAP2 POP POP JUMP JUMPDEST PUSH0 DUP2 MLOAD SWAP1 POP SWAP2 SWAP1 POP JUMP JUMPDEST PUSH0 DUP3 DUP3 MSTORE PUSH1 0x20 DUP3 ADD SWAP1 POP SWAP3 SWAP2 POP POP JUMP JUMPDEST PUSH0 DUP2 SWAP1 POP PUSH1 0x20 DUP3 ADD SWAP1 POP SWAP2 SWAP1 POP JUMP JUMPDEST PUSH2 0x11AA DUP2 PUSH2 0x110C JUMP JUMPDEST DUP3 MSTORE POP POP JUMP JUMPDEST PUSH0 DUP2 SWAP1 POP SWAP2 SWAP1 POP JUMP JUMPDEST PUSH2 0x11C2 DUP2 PUSH2 0x11B0 JUMP JUMPDEST DUP3 MSTORE POP POP JUMP JUMPDEST PUSH1 0x40 DUP3 ADD PUSH0 DUP3 ADD MLOAD PUSH2 0x11DC PUSH0 DUP6 ADD DUP3 PUSH2 0x11A1 JUMP JUMPDEST POP PUSH1 0x20 DUP3 ADD MLOAD PUSH2 0x11EF PUSH1 0x20 DUP6 ADD DUP3 PUSH2 0x11B9 JUMP JUMPDEST POP POP POP POP JUMP JUMPDEST PUSH0 PUSH2 0x1200 DUP4 DUP4 PUSH2 0x11C8 JUMP JUMPDEST PUSH1 0x40 DUP4 ADD SWAP1 POP SWAP3 SWAP2 POP POP JUMP JUMPDEST PUSH0 PUSH1 0x20 DUP3 ADD SWAP1 POP SWAP2 SWAP1 POP JUMP JUMPDEST PUSH0 PUSH2 0x1222 DUP3 PUSH2 0x1178 JUMP JUMPDEST PUSH2 0x122C DUP2 DUP6 PUSH2 0x1182 JUMP JUMPDEST SWAP4 POP PUSH2 0x1237 DUP4 PUSH2 0x1192 JUMP JUMPDEST DUP1 PUSH0 JUMPDEST DUP4 DUP2 LT ISZERO PUSH2 0x1267 JUMPI DUP2 MLOAD PUSH2 0x124E DUP9 DUP3 PUSH2 0x11F5 JUMP JUMPDEST SWAP8 POP PUSH2 0x1259 DUP4 PUSH2 0x120C JUMP JUMPDEST SWAP3 POP POP PUSH1 0x1 DUP2 ADD SWAP1 POP PUSH2 0x123A JUMP JUMPDEST POP DUP6 SWAP4 POP POP POP POP SWAP3 SWAP2 POP POP JUMP JUMPDEST PUSH0 PUSH1 0x20 DUP3 ADD SWAP1 POP DUP2 DUP2 SUB PUSH0 DUP4 ADD MSTORE PUSH2 0x128C DUP2 DUP5 PUSH2 0x1218 JUMP JUMPDEST SWAP1 POP SWAP3 SWAP2 POP POP JUMP JUMPDEST PUSH0 DUP1 REVERT JUMPDEST PUSH2 0x12A1 DUP2 PUSH2 0x11B0 JUMP JUMPDEST DUP2 EQ PUSH2 0x12AB JUMPI PUSH0 DUP1 REVERT JUMPDEST POP JUMP JUMPDEST PUSH0 DUP2 CALLDATALOAD SWAP1 POP PUSH2 0x12BC DUP2 PUSH2 0x1298 JUMP JUMPDEST SWAP3 SWAP2 POP POP JUMP JUMPDEST PUSH0 PUSH1 0x20 DUP3 DUP5 SUB SLT ISZERO PUSH2 0x12D7 JUMPI PUSH2 0x12D6 PUSH2 0x1294 JUMP JUMPDEST JUMPDEST PUSH0 PUSH2 0x12E4 DUP5 DUP3 DUP6 ADD PUSH2 0x12AE JUMP JUMPDEST SWAP2 POP POP SWAP3 SWAP2 POP POP JUMP JUMPDEST PUSH2 0x12F6 DUP2 PUSH2 0x11B0 JUMP JUMPDEST DUP3 MSTORE POP POP JUMP JUMPDEST PUSH0 PUSH1 0x40 DUP3 ADD SWAP1 POP PUSH2 0x130F PUSH0 DUP4 ADD DUP6 PUSH2 0x111D JUMP JUMPDEST PUSH2 0x131C PUSH1 0x20 DUP4 ADD DUP5 PUSH2 0x12ED JUMP JUMPDEST SWAP4 SWAP3 POP POP POP JUMP JUMPDEST PUSH0 PUSH1 0x20 DUP3 ADD SWAP1 POP PUSH2 0x1336 PUSH0 DUP4 ADD DUP5 PUSH2 0x12ED JUMP JUMPDEST SWAP3 SWAP2 POP POP JUMP JUMPDEST PUSH2 0x1345 DUP2 PUSH2 0x110C JUMP JUMPDEST DUP2 EQ PUSH2 0x134F JUMPI PUSH0 DUP1 REVERT JUMPDEST POP JUMP JUMPDEST PUSH0 DUP2 CALLDATALOAD SWAP1 POP PUSH2 0x1360 DUP2 PUSH2 0x133C JUMP JUMPDEST SWAP3 SWAP2 POP POP JUMP JUMPDEST PUSH0 PUSH1 0x20 DUP3 DUP5 SUB SLT ISZERO PUSH2 0x137B JUMPI PUSH2 0x137A PUSH2 0x1294 JUMP JUMPDEST JUMPDEST PUSH0 PUSH2 0x1388 DUP5 DUP3 DUP6 ADD PUSH2 0x1352 JUMP JUMPDEST SWAP2 POP POP SWAP3 SWAP2 POP POP JUMP JUMPDEST PUSH0 DUP3 DUP3 MSTORE PUSH1 0x20 DUP3 ADD SWAP1 POP SWAP3 SWAP2 POP POP JUMP JUMPDEST PUSH32 0x41756374696F6E2068617320656E646564000000000000000000000000000000 PUSH0 DUP3 ADD MSTORE POP JUMP JUMPDEST PUSH0 PUSH2 0x13D5 PUSH1 0x11 DUP4 PUSH2 0x1391 JUMP JUMPDEST SWAP2 POP PUSH2 0x13E0 DUP3 PUSH2 0x13A1 JUMP JUMPDEST PUSH1 0x20 DUP3 ADD SWAP1 POP SWAP2 SWAP1 POP JUMP JUMPDEST PUSH0 PUSH1 0x20 DUP3 ADD SWAP1 POP DUP2 DUP2 SUB PUSH0 DUP4 ADD MSTORE PUSH2 0x1402 DUP2 PUSH2 0x13C9 JUMP JUMPDEST SWAP1 POP SWAP2 SWAP1 POP JUMP JUMPDEST PUSH32 0x4E487B7100000000000000000000000000000000000000000000000000000000 PUSH0 MSTORE PUSH1 0x11 PUSH1 0x4 MSTORE PUSH1 0x24 PUSH0 REVERT JUMPDEST PUSH0 PUSH2 0x1440 DUP3 PUSH2 0x11B0 JUMP JUMPDEST SWAP2 POP PUSH2 0x144B DUP4 PUSH2 0x11B0 JUMP JUMPDEST SWAP3 POP DUP3 DUP3 MUL PUSH2 0x1459 DUP2 PUSH2 0x11B0 JUMP JUMPDEST SWAP2 POP DUP3 DUP3 DIV DUP5 EQ DUP4 ISZERO OR PUSH2 0x1470 JUMPI PUSH2 0x146F PUSH2 0x1409 JUMP JUMPDEST JUMPDEST POP SWAP3 SWAP2 POP POP JUMP JUMPDEST PUSH32 0x4E487B7100000000000000000000000000000000000000000000000000000000 PUSH0 MSTORE PUSH1 0x12 PUSH1 0x4 MSTORE PUSH1 0x24 PUSH0 REVERT JUMPDEST PUSH0 PUSH2 0x14AE DUP3 PUSH2 0x11B0 JUMP JUMPDEST SWAP2 POP PUSH2 0x14B9 DUP4 PUSH2 0x11B0 JUMP JUMPDEST SWAP3 POP DUP3 PUSH2 0x14C9 JUMPI PUSH2 0x14C8 PUSH2 0x1477 JUMP JUMPDEST JUMPDEST DUP3 DUP3 DIV SWAP1 POP SWAP3 SWAP2 POP POP JUMP JUMPDEST PUSH32 0x4F66666572206D75737420657863656564206D696E2E20250000000000000000 PUSH0 DUP3 ADD MSTORE POP JUMP JUMPDEST PUSH0 PUSH2 0x1508 PUSH1 0x18 DUP4 PUSH2 0x1391 JUMP JUMPDEST SWAP2 POP PUSH2 0x1513 DUP3 PUSH2 0x14D4 JUMP JUMPDEST PUSH1 0x20 DUP3 ADD SWAP1 POP SWAP2 SWAP1 POP JUMP JUMPDEST PUSH0 PUSH1 0x20 DUP3 ADD SWAP1 POP DUP2 DUP2 SUB PUSH0 DUP4 ADD MSTORE PUSH2 0x1535 DUP2 PUSH2 0x14FC JUMP JUMPDEST SWAP1 POP SWAP2 SWAP1 POP JUMP JUMPDEST PUSH0 PUSH2 0x1546 DUP3 PUSH2 0x11B0 JUMP JUMPDEST SWAP2 POP PUSH2 0x1551 DUP4 PUSH2 0x11B0 JUMP JUMPDEST SWAP3 POP DUP3 DUP3 ADD SWAP1 POP DUP1 DUP3 GT ISZERO PUSH2 0x1569 JUMPI PUSH2 0x1568 PUSH2 0x1409 JUMP JUMPDEST JUMPDEST SWAP3 SWAP2 POP POP JUMP JUMPDEST PUSH0 PUSH2 0x1579 DUP3 PUSH2 0x11B0 JUMP JUMPDEST SWAP2 POP PUSH2 0x1584 DUP4 PUSH2 0x11B0 JUMP JUMPDEST SWAP3 POP DUP3 DUP3 SUB SWAP1 POP DUP2 DUP2 GT ISZERO PUSH2 0x159C JUMPI PUSH2 0x159B PUSH2 0x1409 JUMP JUMPDEST JUMPDEST SWAP3 SWAP2 POP POP JUMP JUMPDEST PUSH32 0x4E6F74207468652061756374696F6E206F776E65720000000000000000000000 PUSH0 DUP3 ADD MSTORE POP JUMP JUMPDEST PUSH0 PUSH2 0x15D6 PUSH1 0x15 DUP4 PUSH2 0x1391 JUMP JUMPDEST SWAP2 POP PUSH2 0x15E1 DUP3 PUSH2 0x15A2 JUMP JUMPDEST PUSH1 0x20 DUP3 ADD SWAP1 POP SWAP2 SWAP1 POP JUMP JUMPDEST PUSH0 PUSH1 0x20 DUP3 ADD SWAP1 POP DUP2 DUP2 SUB PUSH0 DUP4 ADD MSTORE PUSH2 0x1603 DUP2 PUSH2 0x15CA JUMP JUMPDEST SWAP1 POP SWAP2 SWAP1 POP JUMP JUMPDEST PUSH32 0x41756374696F6E20686173206E6F7420656E6465640000000000000000000000 PUSH0 DUP3 ADD MSTORE POP JUMP JUMPDEST PUSH0 PUSH2 0x163E PUSH1 0x15 DUP4 PUSH2 0x1391 JUMP JUMPDEST SWAP2 POP PUSH2 0x1649 DUP3 PUSH2 0x160A JUMP JUMPDEST PUSH1 0x20 DUP3 ADD SWAP1 POP SWAP2 SWAP1 POP JUMP JUMPDEST PUSH0 PUSH1 0x20 DUP3 ADD SWAP1 POP DUP2 DUP2 SUB PUSH0 DUP4 ADD MSTORE PUSH2 0x166B DUP2 PUSH2 0x1632 JUMP JUMPDEST SWAP1 POP SWAP2 SWAP1 POP JUMP JUMPDEST PUSH32 0x4465706F736974732068617665206265656E20726566756E6465640000000000 PUSH0 DUP3 ADD MSTORE POP JUMP JUMPDEST PUSH0 PUSH2 0x16A6 PUSH1 0x1B DUP4 PUSH2 0x1391 JUMP JUMPDEST SWAP2 POP PUSH2 0x16B1 DUP3 PUSH2 0x1672 JUMP JUMPDEST PUSH1 0x20 DUP3 ADD SWAP1 POP SWAP2 SWAP1 POP JUMP JUMPDEST PUSH0 PUSH1 0x20 DUP3 ADD SWAP1 POP DUP2 DUP2 SUB PUSH0 DUP4 ADD MSTORE PUSH2 0x16D3 DUP2 PUSH2 0x169A JUMP JUMPDEST SWAP1 POP SWAP2 SWAP1 POP JUMP JUMPDEST PUSH32 0x4E487B7100000000000000000000000000000000000000000000000000000000 PUSH0 MSTORE PUSH1 0x32 PUSH1 0x4 MSTORE PUSH1 0x24 PUSH0 REVERT JUMPDEST PUSH0 DUP2 SWAP1 POP SWAP3 SWAP2 POP POP JUMP JUMPDEST POP JUMP JUMPDEST PUSH0 PUSH2 0x171F PUSH0 DUP4 PUSH2 0x1707 JUMP JUMPDEST SWAP2 POP PUSH2 0x172A DUP3 PUSH2 0x1711 JUMP JUMPDEST PUSH0 DUP3 ADD SWAP1 POP SWAP2 SWAP1 POP JUMP JUMPDEST PUSH0 PUSH2 0x173E DUP3 PUSH2 0x1714 JUMP JUMPDEST SWAP2 POP DUP2 SWAP1 POP SWAP2 SWAP1 POP JUMP JUMPDEST PUSH32 0x4661696C75726520746F2073656E6420726566756E6400000000000000000000 PUSH0 DUP3 ADD MSTORE POP JUMP JUMPDEST PUSH0 PUSH2 0x177C PUSH1 0x16 DUP4 PUSH2 0x1391 JUMP JUMPDEST SWAP2 POP PUSH2 0x1787 DUP3 PUSH2 0x1748 JUMP JUMPDEST PUSH1 0x20 DUP3 ADD SWAP1 POP SWAP2 SWAP1 POP JUMP JUMPDEST PUSH0 PUSH1 0x20 DUP3 ADD SWAP1 POP DUP2 DUP2 SUB PUSH0 DUP4 ADD MSTORE PUSH2 0x17A9 DUP2 PUSH2 0x1770 JUMP JUMPDEST SWAP1 POP SWAP2 SWAP1 POP JUMP JUMPDEST PUSH32 0x4661696C75726520746F2073656E642073656C6C657200000000000000000000 PUSH0 DUP3 ADD MSTORE POP JUMP JUMPDEST PUSH0 PUSH2 0x17E4 PUSH1 0x16 DUP4 PUSH2 0x1391 JUMP JUMPDEST SWAP2 POP PUSH2 0x17EF DUP3 PUSH2 0x17B0 JUMP JUMPDEST PUSH1 0x20 DUP3 ADD SWAP1 POP SWAP2 SWAP1 POP JUMP JUMPDEST PUSH0 PUSH1 0x20 DUP3 ADD SWAP1 POP DUP2 DUP2 SUB PUSH0 DUP4 ADD MSTORE PUSH2 0x1811 DUP2 PUSH2 0x17D8 JUMP JUMPDEST SWAP1 POP SWAP2 SWAP1 POP JUMP JUMPDEST PUSH32 0x6661696C20746F2073656E642066756E647320746F206F776E65720000000000 PUSH0 DUP3 ADD MSTORE POP JUMP JUMPDEST PUSH0 PUSH2 0x184C PUSH1 0x1B DUP4 PUSH2 0x1391 JUMP JUMPDEST SWAP2 POP PUSH2 0x1857 DUP3 PUSH2 0x1818 JUMP JUMPDEST PUSH1 0x20 DUP3 ADD SWAP1 POP SWAP2 SWAP1 POP JUMP JUMPDEST PUSH0 PUSH1 0x20 DUP3 ADD SWAP1 POP DUP2 DUP2 SUB PUSH0 DUP4 ADD MSTORE PUSH2 0x1879 DUP2 PUSH2 0x1840 JUMP JUMPDEST SWAP1 POP SWAP2 SWAP1 POP JUMP JUMPDEST PUSH32 0x4E6F206578636573732066756E647320746F2077697468647261770000000000 PUSH0 DUP3 ADD MSTORE POP JUMP JUMPDEST PUSH0 PUSH2 0x18B4 PUSH1 0x1B DUP4 PUSH2 0x1391 JUMP JUMPDEST SWAP2 POP PUSH2 0x18BF DUP3 PUSH2 0x1880 JUMP JUMPDEST PUSH1 0x20 DUP3 ADD SWAP1 POP SWAP2 SWAP1 POP JUMP JUMPDEST PUSH0 PUSH1 0x20 DUP3 ADD SWAP1 POP DUP2 DUP2 SUB PUSH0 DUP4 ADD MSTORE PUSH2 0x18E1 DUP2 PUSH2 0x18A8 JUMP JUMPDEST SWAP1 POP SWAP2 SWAP1 POP JUMP JUMPDEST PUSH32 0x6661696C20746F2073656E64207061727469616C20726566756E640000000000 PUSH0 DUP3 ADD MSTORE POP JUMP JUMPDEST PUSH0 PUSH2 0x191C PUSH1 0x1B DUP4 PUSH2 0x1391 JUMP JUMPDEST SWAP2 POP PUSH2 0x1927 DUP3 PUSH2 0x18E8 JUMP JUMPDEST PUSH1 0x20 DUP3 ADD SWAP1 POP SWAP2 SWAP1 POP JUMP JUMPDEST PUSH0 PUSH1 0x20 DUP3 ADD SWAP1 POP DUP2 DUP2 SUB PUSH0 DUP4 ADD MSTORE PUSH2 0x1949 DUP2 PUSH2 0x1910 JUMP JUMPDEST SWAP1 POP SWAP2 SWAP1 POP JUMP INVALID LOG2 PUSH5 0x6970667358 0x22 SLT KECCAK256 SWAP1 SWAP13 PUSH13 0xB196CC2065B589C13E4BE00B1A SHR NUMBER PUSH6 0x16A7AF3CABA8 DUP4 0xF DUP10 0xFB SGT DUP8 0xCC PUSH5 0x736F6C6343 STOP ADDMOD BYTE STOP CALLER "
				},
				"gasEstimates": {
					"creation": {
						"codeDepositCost": "1306800",
						"executionCost": "infinite",
						"totalCost": "infinite"
					},
					"external": {
						"COMISSION_RATE()": "413",
						"MINIMUM_INCREASE()": "348",
						"auctionEndTime()": "2492",
						"bid()": "infinite",
						"bids(uint256)": "infinite",
						"deposits(address)": "2912",
						"ended()": "2512",
						"finishTime()": "infinite",
						"highestBid()": "2491",
						"highestBidder()": "2530",
						"owner()": "2594",
						"returnDeposits()": "infinite",
						"seller()": "2532",
						"showBids()": "infinite",
						"showWinner()": "6924",
						"withdrawAll()": "infinite",
						"withdrawPartial()": "infinite"
					}
				},
				"methodIdentifiers": {
					"COMISSION_RATE()": "fb7e5ad0",
					"MINIMUM_INCREASE()": "783e4d3d",
					"auctionEndTime()": "4b449cba",
					"bid()": "1998aeef",
					"bids(uint256)": "4423c5f1",
					"deposits(address)": "fc7e286d",
					"ended()": "12fa6feb",
					"finishTime()": "5958611e",
					"highestBid()": "d57bde79",
					"highestBidder()": "91f90157",
					"owner()": "8da5cb5b",
					"returnDeposits()": "362e2565",
					"seller()": "08551a53",
					"showBids()": "14d2687c",
					"showWinner()": "b7e03264",
					"withdrawAll()": "853828b6",
					"withdrawPartial()": "8bf43a83"
				}
			},
			"storageLayout": {
				"storage": [
					{
						"astId": 3,
						"contract": "FinalAuction.sol:FinalAuction",
						"label": "owner",
						"offset": 0,
						"slot": "0",
						"type": "t_address"
					},
					{
						"astId": 5,
						"contract": "FinalAuction.sol:FinalAuction",
						"label": "seller",
						"offset": 0,
						"slot": "1",
						"type": "t_address"
					},
					{
						"astId": 7,
						"contract": "FinalAuction.sol:FinalAuction",
						"label": "highestBidder",
						"offset": 0,
						"slot": "2",
						"type": "t_address"
					},
					{
						"astId": 9,
						"contract": "FinalAuction.sol:FinalAuction",
						"label": "highestBid",
						"offset": 0,
						"slot": "3",
						"type": "t_uint256"
					},
					{
						"astId": 11,
						"contract": "FinalAuction.sol:FinalAuction",
						"label": "auctionEndTime",
						"offset": 0,
						"slot": "4",
						"type": "t_uint256"
					},
					{
						"astId": 19,
						"contract": "FinalAuction.sol:FinalAuction",
						"label": "ended",
						"offset": 0,
						"slot": "5",
						"type": "t_bool"
					},
					{
						"astId": 28,
						"contract": "FinalAuction.sol:FinalAuction",
						"label": "bids",
						"offset": 0,
						"slot": "6",
						"type": "t_array(t_struct(Bidder)24_storage)dyn_storage"
					},
					{
						"astId": 32,
						"contract": "FinalAuction.sol:FinalAuction",
						"label": "deposits",
						"offset": 0,
						"slot": "7",
						"type": "t_mapping(t_address,t_uint256)"
					}
				],
				"types": {
					"t_address": {
						"encoding": "inplace",
						"label": "address",
						"numberOfBytes": "20"
					},
					"t_array(t_struct(Bidder)24_storage)dyn_storage": {
						"base": "t_struct(Bidder)24_storage",
						"encoding": "dynamic_array",
						"label": "struct FinalAuction.Bidder[]",
						"numberOfBytes": "32"
					},
					"t_bool": {
						"encoding": "inplace",
						"label": "bool",
						"numberOfBytes": "1"
					},
					"t_mapping(t_address,t_uint256)": {
						"encoding": "mapping",
						"key": "t_address",
						"label": "mapping(address => uint256)",
						"numberOfBytes": "32",
						"value": "t_uint256"
					},
					"t_struct(Bidder)24_storage": {
						"encoding": "inplace",
						"label": "struct FinalAuction.Bidder",
						"members": [
							{
								"astId": 21,
								"contract": "FinalAuction.sol:FinalAuction",
								"label": "bidder",
								"offset": 0,
								"slot": "0",
								"type": "t_address"
							},
							{
								"astId": 23,
								"contract": "FinalAuction.sol:FinalAuction",
								"label": "amount",
								"offset": 0,
								"slot": "1",
								"type": "t_uint256"
							}
						],
						"numberOfBytes": "64"
					},
					"t_uint256": {
						"encoding": "inplace",
						"label": "uint256",
						"numberOfBytes": "32"
					}
				}
			},
			"userdoc": {
				"kind": "user",
				"methods": {},
				"version": 1
			}
		}
	}
}