{
	"TaskManager.sol": {
		"TaskManager": {
			"abi": [
				{
					"anonymous": false,
					"inputs": [
						{
							"indexed": true,
							"internalType": "uint256",
							"name": "id",
							"type": "uint256"
						},
						{
							"indexed": false,
							"internalType": "string",
							"name": "title",
							"type": "string"
						}
					],
					"name": "taskCreated",
					"type": "event"
				},
				{
					"inputs": [
						{
							"internalType": "string",
							"name": "_title",
							"type": "string"
						}
					],
					"name": "createTask",
					"outputs": [],
					"stateMutability": "nonpayable",
					"type": "function"
				},
				{
					"inputs": [],
					"name": "readFirstPending",
					"outputs": [
						{
							"components": [
								{
									"internalType": "uint256",
									"name": "id",
									"type": "uint256"
								},
								{
									"internalType": "string",
									"name": "title",
									"type": "string"
								},
								{
									"internalType": "enum TaskManager.TaskStatus",
									"name": "status",
									"type": "uint8"
								}
							],
							"internalType": "struct TaskManager.Task",
							"name": "",
							"type": "tuple"
						}
					],
					"stateMutability": "view",
					"type": "function"
				},
				{
					"inputs": [],
					"name": "taskCounter",
					"outputs": [
						{
							"internalType": "uint256",
							"name": "",
							"type": "uint256"
						}
					],
					"stateMutability": "view",
					"type": "function"
				},
				{
					"inputs": [
						{
							"internalType": "uint256",
							"name": "",
							"type": "uint256"
						}
					],
					"name": "tasks",
					"outputs": [
						{
							"internalType": "uint256",
							"name": "id",
							"type": "uint256"
						},
						{
							"internalType": "string",
							"name": "title",
							"type": "string"
						},
						{
							"internalType": "enum TaskManager.TaskStatus",
							"name": "status",
							"type": "uint8"
						}
					],
					"stateMutability": "view",
					"type": "function"
				},
				{
					"inputs": [
						{
							"internalType": "uint256",
							"name": "_id",
							"type": "uint256"
						},
						{
							"internalType": "enum TaskManager.TaskStatus",
							"name": "_status",
							"type": "uint8"
						}
					],
					"name": "updateStatus",
					"outputs": [],
					"stateMutability": "nonpayable",
					"type": "function"
				}
			],
			"devdoc": {
				"kind": "dev",
				"methods": {},
				"version": 1
			},
			"evm": {
				"assembly": "    /* \"TaskManager.sol\":60:1685  contract TaskManager {... */\n  mstore(0x40, 0x80)\n  callvalue\n  dup1\n  iszero\n  tag_1\n  jumpi\n  0x00\n  dup1\n  revert\ntag_1:\n  pop\n  dataSize(sub_0)\n  dup1\n  dataOffset(sub_0)\n  0x00\n  codecopy\n  0x00\n  return\nstop\n\nsub_0: assembly {\n        /* \"TaskManager.sol\":60:1685  contract TaskManager {... */\n      mstore(0x40, 0x80)\n      callvalue\n      dup1\n      iszero\n      tag_1\n      jumpi\n      0x00\n      dup1\n      revert\n    tag_1:\n      pop\n      jumpi(tag_2, lt(calldatasize, 0x04))\n      shr(0xe0, calldataload(0x00))\n      dup1\n      0x111002aa\n      eq\n      tag_3\n      jumpi\n      dup1\n      0x3a1b3d31\n      eq\n      tag_4\n      jumpi\n      dup1\n      0x58671730\n      eq\n      tag_5\n      jumpi\n      dup1\n      0x8d977672\n      eq\n      tag_6\n      jumpi\n      dup1\n      0xab85789e\n      eq\n      tag_7\n      jumpi\n    tag_2:\n      0x00\n      dup1\n      revert\n        /* \"TaskManager.sol\":758:1120  function createTask(string calldata _title) external maxTask { ... */\n    tag_3:\n      tag_8\n      0x04\n      dup1\n      calldatasize\n      sub\n      dup2\n      add\n      swap1\n      tag_9\n      swap2\n      swap1\n      tag_10\n      jump\t// in\n    tag_9:\n      tag_11\n      jump\t// in\n    tag_8:\n      stop\n        /* \"TaskManager.sol\":1258:1381  function updateStatus(uint256 _id, TaskStatus _status) external existId(_id) {... */\n    tag_4:\n      tag_12\n      0x04\n      dup1\n      calldatasize\n      sub\n      dup2\n      add\n      swap1\n      tag_13\n      swap2\n      swap1\n      tag_14\n      jump\t// in\n    tag_13:\n      tag_15\n      jump\t// in\n    tag_12:\n      stop\n        /* \"TaskManager.sol\":387:413  uint256 public taskCounter */\n    tag_5:\n      tag_16\n      tag_17\n      jump\t// in\n    tag_16:\n      mload(0x40)\n      tag_18\n      swap2\n      swap1\n      tag_19\n      jump\t// in\n    tag_18:\n      mload(0x40)\n      dup1\n      swap2\n      sub\n      swap1\n      return\n        /* \"TaskManager.sol\":361:380  Task[] public tasks */\n    tag_6:\n      tag_20\n      0x04\n      dup1\n      calldatasize\n      sub\n      dup2\n      add\n      swap1\n      tag_21\n      swap2\n      swap1\n      tag_22\n      jump\t// in\n    tag_21:\n      tag_23\n      jump\t// in\n    tag_20:\n      mload(0x40)\n      tag_24\n      swap4\n      swap3\n      swap2\n      swap1\n      tag_25\n      jump\t// in\n    tag_24:\n      mload(0x40)\n      dup1\n      swap2\n      sub\n      swap1\n      return\n        /* \"TaskManager.sol\":1389:1680  function readFirstPending() external view returns (Task memory) {... */\n    tag_7:\n      tag_26\n      tag_27\n      jump\t// in\n    tag_26:\n      mload(0x40)\n      tag_28\n      swap2\n      swap1\n      tag_29\n      jump\t// in\n    tag_28:\n      mload(0x40)\n      dup1\n      swap2\n      sub\n      swap1\n      return\n        /* \"TaskManager.sol\":758:1120  function createTask(string calldata _title) external maxTask { ... */\n    tag_11:\n        /* \"TaskManager.sol\":446:448  10 */\n      0x0a\n        /* \"TaskManager.sol\":604:615  taskCounter */\n      sload(0x01)\n        /* \"TaskManager.sol\":604:626  taskCounter < MAX_TASK */\n      lt\n        /* \"TaskManager.sol\":596:637  require(taskCounter < MAX_TASK,\"Me pase\") */\n      tag_31\n      jumpi\n      mload(0x40)\n      0x08c379a000000000000000000000000000000000000000000000000000000000\n      dup2\n      mstore\n      0x04\n      add\n      tag_32\n      swap1\n      tag_33\n      jump\t// in\n    tag_32:\n      mload(0x40)\n      dup1\n      swap2\n      sub\n      swap1\n      revert\n    tag_31:\n        /* \"TaskManager.sol\":831:851  uint256 _taskCounter */\n      0x00\n        /* \"TaskManager.sol\":854:865  taskCounter */\n      sload(0x01)\n        /* \"TaskManager.sol\":831:865  uint256 _taskCounter = taskCounter */\n      swap1\n      pop\n        /* \"TaskManager.sol\":881:886  tasks */\n      0x00\n        /* \"TaskManager.sol\":892:938  Task(_taskCounter, _title, TaskStatus.Pending) */\n      mload(0x40)\n      dup1\n      0x60\n      add\n      0x40\n      mstore\n      dup1\n        /* \"TaskManager.sol\":897:909  _taskCounter */\n      dup4\n        /* \"TaskManager.sol\":892:938  Task(_taskCounter, _title, TaskStatus.Pending) */\n      dup2\n      mstore\n      0x20\n      add\n        /* \"TaskManager.sol\":911:917  _title */\n      dup6\n      dup6\n        /* \"TaskManager.sol\":892:938  Task(_taskCounter, _title, TaskStatus.Pending) */\n      dup1\n      dup1\n      0x1f\n      add\n      0x20\n      dup1\n      swap2\n      div\n      mul\n      0x20\n      add\n      mload(0x40)\n      swap1\n      dup2\n      add\n      0x40\n      mstore\n      dup1\n      swap4\n      swap3\n      swap2\n      swap1\n      dup2\n      dup2\n      mstore\n      0x20\n      add\n      dup4\n      dup4\n      dup1\n      dup3\n      dup5\n      calldatacopy\n      0x00\n      dup2\n      dup5\n      add\n      mstore\n      not(0x1f)\n      0x1f\n      dup3\n      add\n      and\n      swap1\n      pop\n      dup1\n      dup4\n      add\n      swap3\n      pop\n      pop\n      pop\n      pop\n      pop\n      pop\n      pop\n      dup2\n      mstore\n      0x20\n      add\n        /* \"TaskManager.sol\":919:937  TaskStatus.Pending */\n      0x00\n        /* \"TaskManager.sol\":892:938  Task(_taskCounter, _title, TaskStatus.Pending) */\n      0x02\n      dup2\n      gt\n      iszero\n      tag_35\n      jumpi\n      tag_36\n      tag_37\n      jump\t// in\n    tag_36:\n    tag_35:\n      dup2\n      mstore\n      pop\n        /* \"TaskManager.sol\":881:939  tasks.push(Task(_taskCounter, _title, TaskStatus.Pending)) */\n      swap1\n      dup1\n      0x01\n      dup2\n      sload\n      add\n      dup1\n      dup3\n      sstore\n      dup1\n      swap2\n      pop\n      pop\n      0x01\n      swap1\n      sub\n      swap1\n      0x00\n      mstore\n      keccak256(0x00, 0x20)\n      swap1\n      0x03\n      mul\n      add\n      0x00\n      swap1\n      swap2\n      swap1\n      swap2\n      swap1\n      swap2\n      pop\n      0x00\n      dup3\n      add\n      mload\n      dup2\n      0x00\n      add\n      sstore\n      0x20\n      dup3\n      add\n      mload\n      dup2\n      0x01\n      add\n      swap1\n      dup2\n      tag_39\n      swap2\n      swap1\n      tag_40\n      jump\t// in\n    tag_39:\n      pop\n      0x40\n      dup3\n      add\n      mload\n      dup2\n      0x02\n      add\n      exp(0x0100, 0x00)\n      dup2\n      sload\n      dup2\n      0xff\n      mul\n      not\n      and\n      swap1\n      dup4\n      0x02\n      dup2\n      gt\n      iszero\n      tag_41\n      jumpi\n      tag_42\n      tag_37\n      jump\t// in\n    tag_42:\n    tag_41:\n      mul\n      or\n      swap1\n      sstore\n      pop\n      pop\n      pop\n        /* \"TaskManager.sol\":1029:1041  _taskCounter */\n      dup1\n        /* \"TaskManager.sol\":1017:1050  taskCreated(_taskCounter, _title) */\n      0xdc8a9d0709c6ad2a14185c02b1ef388b73a1024f451590c5de574f514bb56db0\n        /* \"TaskManager.sol\":1043:1049  _title */\n      dup5\n      dup5\n        /* \"TaskManager.sol\":1017:1050  taskCreated(_taskCounter, _title) */\n      mload(0x40)\n      tag_43\n      swap3\n      swap2\n      swap1\n      tag_44\n      jump\t// in\n    tag_43:\n      mload(0x40)\n      dup1\n      swap2\n      sub\n      swap1\n      log2\n        /* \"TaskManager.sol\":1061:1072  taskCounter */\n      0x01\n      0x00\n        /* \"TaskManager.sol\":1061:1075  taskCounter ++ */\n      dup2\n      sload\n      dup1\n      swap3\n      swap2\n      swap1\n      tag_45\n      swap1\n      tag_46\n      jump\t// in\n    tag_45:\n      swap2\n      swap1\n      pop\n      sstore\n      pop\n        /* \"TaskManager.sol\":1100:1112  _taskCounter */\n      dup1\n        /* \"TaskManager.sol\":1086:1097  taskCounter */\n      0x01\n        /* \"TaskManager.sol\":1086:1112  taskCounter = _taskCounter */\n      dup2\n      swap1\n      sstore\n      pop\n        /* \"TaskManager.sol\":819:1120  { ... */\n      pop\n        /* \"TaskManager.sol\":758:1120  function createTask(string calldata _title) external maxTask { ... */\n      pop\n      pop\n      jump\t// out\n        /* \"TaskManager.sol\":1258:1381  function updateStatus(uint256 _id, TaskStatus _status) external existId(_id) {... */\n    tag_15:\n        /* \"TaskManager.sol\":1330:1333  _id */\n      dup2\n        /* \"TaskManager.sol\":1181:1192  taskCounter */\n      sload(0x01)\n        /* \"TaskManager.sol\":1177:1180  _id */\n      dup2\n        /* \"TaskManager.sol\":1177:1192  _id<taskCounter */\n      lt\n        /* \"TaskManager.sol\":1169:1206  require(_id<taskCounter, \"not exist\") */\n      tag_48\n      jumpi\n      mload(0x40)\n      0x08c379a000000000000000000000000000000000000000000000000000000000\n      dup2\n      mstore\n      0x04\n      add\n      tag_49\n      swap1\n      tag_50\n      jump\t// in\n    tag_49:\n      mload(0x40)\n      dup1\n      swap2\n      sub\n      swap1\n      revert\n    tag_48:\n        /* \"TaskManager.sol\":1366:1373  _status */\n      dup2\n        /* \"TaskManager.sol\":1346:1351  tasks */\n      0x00\n        /* \"TaskManager.sol\":1352:1355  _id */\n      dup5\n        /* \"TaskManager.sol\":1346:1356  tasks[_id] */\n      dup2\n      sload\n      dup2\n      lt\n      tag_52\n      jumpi\n      tag_53\n      tag_54\n      jump\t// in\n    tag_53:\n    tag_52:\n      swap1\n      0x00\n      mstore\n      keccak256(0x00, 0x20)\n      swap1\n      0x03\n      mul\n      add\n        /* \"TaskManager.sol\":1346:1363  tasks[_id].status */\n      0x02\n      add\n      0x00\n        /* \"TaskManager.sol\":1346:1373  tasks[_id].status = _status */\n      0x0100\n      exp\n      dup2\n      sload\n      dup2\n      0xff\n      mul\n      not\n      and\n      swap1\n      dup4\n      0x02\n      dup2\n      gt\n      iszero\n      tag_56\n      jumpi\n      tag_57\n      tag_37\n      jump\t// in\n    tag_57:\n    tag_56:\n      mul\n      or\n      swap1\n      sstore\n      pop\n        /* \"TaskManager.sol\":1258:1381  function updateStatus(uint256 _id, TaskStatus _status) external existId(_id) {... */\n      pop\n      pop\n      pop\n      jump\t// out\n        /* \"TaskManager.sol\":387:413  uint256 public taskCounter */\n    tag_17:\n      sload(0x01)\n      dup2\n      jump\t// out\n        /* \"TaskManager.sol\":361:380  Task[] public tasks */\n    tag_23:\n      0x00\n      dup2\n      dup2\n      sload\n      dup2\n      lt\n      tag_58\n      jumpi\n      0x00\n      dup1\n      revert\n    tag_58:\n      swap1\n      0x00\n      mstore\n      keccak256(0x00, 0x20)\n      swap1\n      0x03\n      mul\n      add\n      0x00\n      swap2\n      pop\n      swap1\n      pop\n      dup1\n      0x00\n      add\n      sload\n      swap1\n      dup1\n      0x01\n      add\n      dup1\n      sload\n      tag_60\n      swap1\n      tag_61\n      jump\t// in\n    tag_60:\n      dup1\n      0x1f\n      add\n      0x20\n      dup1\n      swap2\n      div\n      mul\n      0x20\n      add\n      mload(0x40)\n      swap1\n      dup2\n      add\n      0x40\n      mstore\n      dup1\n      swap3\n      swap2\n      swap1\n      dup2\n      dup2\n      mstore\n      0x20\n      add\n      dup3\n      dup1\n      sload\n      tag_62\n      swap1\n      tag_61\n      jump\t// in\n    tag_62:\n      dup1\n      iszero\n      tag_63\n      jumpi\n      dup1\n      0x1f\n      lt\n      tag_64\n      jumpi\n      0x0100\n      dup1\n      dup4\n      sload\n      div\n      mul\n      dup4\n      mstore\n      swap2\n      0x20\n      add\n      swap2\n      jump(tag_63)\n    tag_64:\n      dup3\n      add\n      swap2\n      swap1\n      0x00\n      mstore\n      keccak256(0x00, 0x20)\n      swap1\n    tag_65:\n      dup2\n      sload\n      dup2\n      mstore\n      swap1\n      0x01\n      add\n      swap1\n      0x20\n      add\n      dup1\n      dup4\n      gt\n      tag_65\n      jumpi\n      dup3\n      swap1\n      sub\n      0x1f\n      and\n      dup3\n      add\n      swap2\n    tag_63:\n      pop\n      pop\n      pop\n      pop\n      pop\n      swap1\n      dup1\n      0x02\n      add\n      0x00\n      swap1\n      sload\n      swap1\n      0x0100\n      exp\n      swap1\n      div\n      0xff\n      and\n      swap1\n      pop\n      dup4\n      jump\t// out\n        /* \"TaskManager.sol\":1389:1680  function readFirstPending() external view returns (Task memory) {... */\n    tag_27:\n        /* \"TaskManager.sol\":1440:1451  Task memory */\n      tag_66\n      tag_67\n      jump\t// in\n    tag_66:\n        /* \"TaskManager.sol\":1464:1475  uint256 Len */\n      0x00\n        /* \"TaskManager.sol\":1478:1483  tasks */\n      dup1\n        /* \"TaskManager.sol\":1478:1490  tasks.length */\n      dup1\n      sload\n      swap1\n      pop\n        /* \"TaskManager.sol\":1464:1490  uint256 Len = tasks.length */\n      swap1\n      pop\n        /* \"TaskManager.sol\":1505:1514  uint256 i */\n      0x00\n        /* \"TaskManager.sol\":1501:1643  for(uint256 i=0; 5 < Len; i++) {... */\n    tag_69:\n        /* \"TaskManager.sol\":1522:1525  Len */\n      dup2\n        /* \"TaskManager.sol\":1518:1519  5 */\n      0x05\n        /* \"TaskManager.sol\":1518:1525  5 < Len */\n      lt\n        /* \"TaskManager.sol\":1501:1643  for(uint256 i=0; 5 < Len; i++) {... */\n      iszero\n      tag_70\n      jumpi\n        /* \"TaskManager.sol\":1569:1587  TaskStatus.Pending */\n      0x00\n        /* \"TaskManager.sol\":1550:1587  tasks[i].status == TaskStatus.Pending */\n      0x02\n      dup2\n      gt\n      iszero\n      tag_72\n      jumpi\n      tag_73\n      tag_37\n      jump\t// in\n    tag_73:\n    tag_72:\n        /* \"TaskManager.sol\":1550:1555  tasks */\n      0x00\n        /* \"TaskManager.sol\":1556:1557  i */\n      dup3\n        /* \"TaskManager.sol\":1550:1558  tasks[i] */\n      dup2\n      sload\n      dup2\n      lt\n      tag_74\n      jumpi\n      tag_75\n      tag_54\n      jump\t// in\n    tag_75:\n    tag_74:\n      swap1\n      0x00\n      mstore\n      keccak256(0x00, 0x20)\n      swap1\n      0x03\n      mul\n      add\n        /* \"TaskManager.sol\":1550:1565  tasks[i].status */\n      0x02\n      add\n      0x00\n      swap1\n      sload\n      swap1\n      0x0100\n      exp\n      swap1\n      div\n      0xff\n      and\n        /* \"TaskManager.sol\":1550:1587  tasks[i].status == TaskStatus.Pending */\n      0x02\n      dup2\n      gt\n      iszero\n      tag_77\n      jumpi\n      tag_78\n      tag_37\n      jump\t// in\n    tag_78:\n    tag_77:\n      sub\n        /* \"TaskManager.sol\":1547:1632  if(tasks[i].status == TaskStatus.Pending) {... */\n      tag_79\n      jumpi\n        /* \"TaskManager.sol\":1608:1613  tasks */\n      0x00\n        /* \"TaskManager.sol\":1614:1615  i */\n      dup2\n        /* \"TaskManager.sol\":1608:1616  tasks[i] */\n      dup2\n      sload\n      dup2\n      lt\n      tag_80\n      jumpi\n      tag_81\n      tag_54\n      jump\t// in\n    tag_81:\n    tag_80:\n      swap1\n      0x00\n      mstore\n      keccak256(0x00, 0x20)\n      swap1\n      pop\n      pop\n        /* \"TaskManager.sol\":1547:1632  if(tasks[i].status == TaskStatus.Pending) {... */\n    tag_79:\n        /* \"TaskManager.sol\":1527:1530  i++ */\n      dup1\n      dup1\n      tag_83\n      swap1\n      tag_46\n      jump\t// in\n    tag_83:\n      swap2\n      pop\n      pop\n        /* \"TaskManager.sol\":1501:1643  for(uint256 i=0; 5 < Len; i++) {... */\n      jump(tag_69)\n    tag_70:\n      pop\n        /* \"TaskManager.sol\":1660:1665  tasks */\n      0x00\n        /* \"TaskManager.sol\":1670:1671  1 */\n      0x01\n        /* \"TaskManager.sol\":1666:1669  Len */\n      dup3\n        /* \"TaskManager.sol\":1666:1671  Len-1 */\n      tag_84\n      swap2\n      swap1\n      tag_85\n      jump\t// in\n    tag_84:\n        /* \"TaskManager.sol\":1660:1672  tasks[Len-1] */\n      dup2\n      sload\n      dup2\n      lt\n      tag_86\n      jumpi\n      tag_87\n      tag_54\n      jump\t// in\n    tag_87:\n    tag_86:\n      swap1\n      0x00\n      mstore\n      keccak256(0x00, 0x20)\n      swap1\n      0x03\n      mul\n      add\n        /* \"TaskManager.sol\":1653:1672  return tasks[Len-1] */\n      mload(0x40)\n      dup1\n      0x60\n      add\n      0x40\n      mstore\n      swap1\n      dup2\n      0x00\n      dup3\n      add\n      sload\n      dup2\n      mstore\n      0x20\n      add\n      0x01\n      dup3\n      add\n      dup1\n      sload\n      tag_89\n      swap1\n      tag_61\n      jump\t// in\n    tag_89:\n      dup1\n      0x1f\n      add\n      0x20\n      dup1\n      swap2\n      div\n      mul\n      0x20\n      add\n      mload(0x40)\n      swap1\n      dup2\n      add\n      0x40\n      mstore\n      dup1\n      swap3\n      swap2\n      swap1\n      dup2\n      dup2\n      mstore\n      0x20\n      add\n      dup3\n      dup1\n      sload\n      tag_90\n      swap1\n      tag_61\n      jump\t// in\n    tag_90:\n      dup1\n      iszero\n      tag_91\n      jumpi\n      dup1\n      0x1f\n      lt\n      tag_92\n      jumpi\n      0x0100\n      dup1\n      dup4\n      sload\n      div\n      mul\n      dup4\n      mstore\n      swap2\n      0x20\n      add\n      swap2\n      jump(tag_91)\n    tag_92:\n      dup3\n      add\n      swap2\n      swap1\n      0x00\n      mstore\n      keccak256(0x00, 0x20)\n      swap1\n    tag_93:\n      dup2\n      sload\n      dup2\n      mstore\n      swap1\n      0x01\n      add\n      swap1\n      0x20\n      add\n      dup1\n      dup4\n      gt\n      tag_93\n      jumpi\n      dup3\n      swap1\n      sub\n      0x1f\n      and\n      dup3\n      add\n      swap2\n    tag_91:\n      pop\n      pop\n      pop\n      pop\n      pop\n      dup2\n      mstore\n      0x20\n      add\n      0x02\n      dup3\n      add\n      0x00\n      swap1\n      sload\n      swap1\n      0x0100\n      exp\n      swap1\n      div\n      0xff\n      and\n      0x02\n      dup2\n      gt\n      iszero\n      tag_94\n      jumpi\n      tag_95\n      tag_37\n      jump\t// in\n    tag_95:\n    tag_94:\n      0x02\n      dup2\n      gt\n      iszero\n      tag_96\n      jumpi\n      tag_97\n      tag_37\n      jump\t// in\n    tag_97:\n    tag_96:\n      dup2\n      mstore\n      pop\n      pop\n      swap2\n      pop\n      pop\n        /* \"TaskManager.sol\":1389:1680  function readFirstPending() external view returns (Task memory) {... */\n      swap1\n      jump\t// out\n    tag_67:\n      mload(0x40)\n      dup1\n      0x60\n      add\n      0x40\n      mstore\n      dup1\n      0x00\n      dup2\n      mstore\n      0x20\n      add\n      0x60\n      dup2\n      mstore\n      0x20\n      add\n      0x00\n      0x02\n      dup2\n      gt\n      iszero\n      tag_98\n      jumpi\n      tag_99\n      tag_37\n      jump\t// in\n    tag_99:\n    tag_98:\n      dup2\n      mstore\n      pop\n      swap1\n      jump\t// out\n        /* \"#utility.yul\":88:205   */\n    tag_101:\n        /* \"#utility.yul\":197:198   */\n      0x00\n        /* \"#utility.yul\":194:195   */\n      dup1\n        /* \"#utility.yul\":187:199   */\n      revert\n        /* \"#utility.yul\":211:328   */\n    tag_102:\n        /* \"#utility.yul\":320:321   */\n      0x00\n        /* \"#utility.yul\":317:318   */\n      dup1\n        /* \"#utility.yul\":310:322   */\n      revert\n        /* \"#utility.yul\":334:451   */\n    tag_103:\n        /* \"#utility.yul\":443:444   */\n      0x00\n        /* \"#utility.yul\":440:441   */\n      dup1\n        /* \"#utility.yul\":433:445   */\n      revert\n        /* \"#utility.yul\":457:574   */\n    tag_104:\n        /* \"#utility.yul\":566:567   */\n      0x00\n        /* \"#utility.yul\":563:564   */\n      dup1\n        /* \"#utility.yul\":556:568   */\n      revert\n        /* \"#utility.yul\":580:697   */\n    tag_105:\n        /* \"#utility.yul\":689:690   */\n      0x00\n        /* \"#utility.yul\":686:687   */\n      dup1\n        /* \"#utility.yul\":679:691   */\n      revert\n        /* \"#utility.yul\":717:1270   */\n    tag_106:\n        /* \"#utility.yul\":775:783   */\n      0x00\n        /* \"#utility.yul\":785:791   */\n      dup1\n        /* \"#utility.yul\":835:838   */\n      dup4\n        /* \"#utility.yul\":828:832   */\n      0x1f\n        /* \"#utility.yul\":820:826   */\n      dup5\n        /* \"#utility.yul\":816:833   */\n      add\n        /* \"#utility.yul\":812:839   */\n      slt\n        /* \"#utility.yul\":802:924   */\n      tag_159\n      jumpi\n        /* \"#utility.yul\":843:922   */\n      tag_160\n      tag_103\n      jump\t// in\n    tag_160:\n        /* \"#utility.yul\":802:924   */\n    tag_159:\n        /* \"#utility.yul\":956:962   */\n      dup3\n        /* \"#utility.yul\":943:963   */\n      calldataload\n        /* \"#utility.yul\":933:963   */\n      swap1\n      pop\n        /* \"#utility.yul\":986:1004   */\n      0xffffffffffffffff\n        /* \"#utility.yul\":978:984   */\n      dup2\n        /* \"#utility.yul\":975:1005   */\n      gt\n        /* \"#utility.yul\":972:1089   */\n      iszero\n      tag_161\n      jumpi\n        /* \"#utility.yul\":1008:1087   */\n      tag_162\n      tag_104\n      jump\t// in\n    tag_162:\n        /* \"#utility.yul\":972:1089   */\n    tag_161:\n        /* \"#utility.yul\":1122:1126   */\n      0x20\n        /* \"#utility.yul\":1114:1120   */\n      dup4\n        /* \"#utility.yul\":1110:1127   */\n      add\n        /* \"#utility.yul\":1098:1127   */\n      swap2\n      pop\n        /* \"#utility.yul\":1176:1179   */\n      dup4\n        /* \"#utility.yul\":1168:1172   */\n      0x01\n        /* \"#utility.yul\":1160:1166   */\n      dup3\n        /* \"#utility.yul\":1156:1173   */\n      mul\n        /* \"#utility.yul\":1146:1154   */\n      dup4\n        /* \"#utility.yul\":1142:1174   */\n      add\n        /* \"#utility.yul\":1139:1180   */\n      gt\n        /* \"#utility.yul\":1136:1264   */\n      iszero\n      tag_163\n      jumpi\n        /* \"#utility.yul\":1183:1262   */\n      tag_164\n      tag_105\n      jump\t// in\n    tag_164:\n        /* \"#utility.yul\":1136:1264   */\n    tag_163:\n        /* \"#utility.yul\":717:1270   */\n      swap3\n      pop\n      swap3\n      swap1\n      pop\n      jump\t// out\n        /* \"#utility.yul\":1276:1805   */\n    tag_10:\n        /* \"#utility.yul\":1347:1353   */\n      0x00\n        /* \"#utility.yul\":1355:1361   */\n      dup1\n        /* \"#utility.yul\":1404:1406   */\n      0x20\n        /* \"#utility.yul\":1392:1401   */\n      dup4\n        /* \"#utility.yul\":1383:1390   */\n      dup6\n        /* \"#utility.yul\":1379:1402   */\n      sub\n        /* \"#utility.yul\":1375:1407   */\n      slt\n        /* \"#utility.yul\":1372:1491   */\n      iszero\n      tag_166\n      jumpi\n        /* \"#utility.yul\":1410:1489   */\n      tag_167\n      tag_101\n      jump\t// in\n    tag_167:\n        /* \"#utility.yul\":1372:1491   */\n    tag_166:\n        /* \"#utility.yul\":1558:1559   */\n      0x00\n        /* \"#utility.yul\":1547:1556   */\n      dup4\n        /* \"#utility.yul\":1543:1560   */\n      add\n        /* \"#utility.yul\":1530:1561   */\n      calldataload\n        /* \"#utility.yul\":1588:1606   */\n      0xffffffffffffffff\n        /* \"#utility.yul\":1580:1586   */\n      dup2\n        /* \"#utility.yul\":1577:1607   */\n      gt\n        /* \"#utility.yul\":1574:1691   */\n      iszero\n      tag_168\n      jumpi\n        /* \"#utility.yul\":1610:1689   */\n      tag_169\n      tag_102\n      jump\t// in\n    tag_169:\n        /* \"#utility.yul\":1574:1691   */\n    tag_168:\n        /* \"#utility.yul\":1723:1788   */\n      tag_170\n        /* \"#utility.yul\":1780:1787   */\n      dup6\n        /* \"#utility.yul\":1771:1777   */\n      dup3\n        /* \"#utility.yul\":1760:1769   */\n      dup7\n        /* \"#utility.yul\":1756:1778   */\n      add\n        /* \"#utility.yul\":1723:1788   */\n      tag_106\n      jump\t// in\n    tag_170:\n        /* \"#utility.yul\":1705:1788   */\n      swap3\n      pop\n      swap3\n      pop\n        /* \"#utility.yul\":1501:1798   */\n      pop\n        /* \"#utility.yul\":1276:1805   */\n      swap3\n      pop\n      swap3\n      swap1\n      pop\n      jump\t// out\n        /* \"#utility.yul\":1811:1888   */\n    tag_107:\n        /* \"#utility.yul\":1848:1855   */\n      0x00\n        /* \"#utility.yul\":1877:1882   */\n      dup2\n        /* \"#utility.yul\":1866:1882   */\n      swap1\n      pop\n        /* \"#utility.yul\":1811:1888   */\n      swap2\n      swap1\n      pop\n      jump\t// out\n        /* \"#utility.yul\":1894:2016   */\n    tag_108:\n        /* \"#utility.yul\":1967:1991   */\n      tag_173\n        /* \"#utility.yul\":1985:1990   */\n      dup2\n        /* \"#utility.yul\":1967:1991   */\n      tag_107\n      jump\t// in\n    tag_173:\n        /* \"#utility.yul\":1960:1965   */\n      dup2\n        /* \"#utility.yul\":1957:1992   */\n      eq\n        /* \"#utility.yul\":1947:2010   */\n      tag_174\n      jumpi\n        /* \"#utility.yul\":2006:2007   */\n      0x00\n        /* \"#utility.yul\":2003:2004   */\n      dup1\n        /* \"#utility.yul\":1996:2008   */\n      revert\n        /* \"#utility.yul\":1947:2010   */\n    tag_174:\n        /* \"#utility.yul\":1894:2016   */\n      pop\n      jump\t// out\n        /* \"#utility.yul\":2022:2161   */\n    tag_109:\n        /* \"#utility.yul\":2068:2073   */\n      0x00\n        /* \"#utility.yul\":2106:2112   */\n      dup2\n        /* \"#utility.yul\":2093:2113   */\n      calldataload\n        /* \"#utility.yul\":2084:2113   */\n      swap1\n      pop\n        /* \"#utility.yul\":2122:2155   */\n      tag_176\n        /* \"#utility.yul\":2149:2154   */\n      dup2\n        /* \"#utility.yul\":2122:2155   */\n      tag_108\n      jump\t// in\n    tag_176:\n        /* \"#utility.yul\":2022:2161   */\n      swap3\n      swap2\n      pop\n      pop\n      jump\t// out\n        /* \"#utility.yul\":2167:2278   */\n    tag_110:\n        /* \"#utility.yul\":2252:2253   */\n      0x03\n        /* \"#utility.yul\":2245:2250   */\n      dup2\n        /* \"#utility.yul\":2242:2254   */\n      lt\n        /* \"#utility.yul\":2232:2272   */\n      tag_178\n      jumpi\n        /* \"#utility.yul\":2268:2269   */\n      0x00\n        /* \"#utility.yul\":2265:2266   */\n      dup1\n        /* \"#utility.yul\":2258:2270   */\n      revert\n        /* \"#utility.yul\":2232:2272   */\n    tag_178:\n        /* \"#utility.yul\":2167:2278   */\n      pop\n      jump\t// out\n        /* \"#utility.yul\":2284:2447   */\n    tag_111:\n        /* \"#utility.yul\":2342:2347   */\n      0x00\n        /* \"#utility.yul\":2380:2386   */\n      dup2\n        /* \"#utility.yul\":2367:2387   */\n      calldataload\n        /* \"#utility.yul\":2358:2387   */\n      swap1\n      pop\n        /* \"#utility.yul\":2396:2441   */\n      tag_180\n        /* \"#utility.yul\":2435:2440   */\n      dup2\n        /* \"#utility.yul\":2396:2441   */\n      tag_110\n      jump\t// in\n    tag_180:\n        /* \"#utility.yul\":2284:2447   */\n      swap3\n      swap2\n      pop\n      pop\n      jump\t// out\n        /* \"#utility.yul\":2453:2951   */\n    tag_14:\n        /* \"#utility.yul\":2533:2539   */\n      0x00\n        /* \"#utility.yul\":2541:2547   */\n      dup1\n        /* \"#utility.yul\":2590:2592   */\n      0x40\n        /* \"#utility.yul\":2578:2587   */\n      dup4\n        /* \"#utility.yul\":2569:2576   */\n      dup6\n        /* \"#utility.yul\":2565:2588   */\n      sub\n        /* \"#utility.yul\":2561:2593   */\n      slt\n        /* \"#utility.yul\":2558:2677   */\n      iszero\n      tag_182\n      jumpi\n        /* \"#utility.yul\":2596:2675   */\n      tag_183\n      tag_101\n      jump\t// in\n    tag_183:\n        /* \"#utility.yul\":2558:2677   */\n    tag_182:\n        /* \"#utility.yul\":2716:2717   */\n      0x00\n        /* \"#utility.yul\":2741:2794   */\n      tag_184\n        /* \"#utility.yul\":2786:2793   */\n      dup6\n        /* \"#utility.yul\":2777:2783   */\n      dup3\n        /* \"#utility.yul\":2766:2775   */\n      dup7\n        /* \"#utility.yul\":2762:2784   */\n      add\n        /* \"#utility.yul\":2741:2794   */\n      tag_109\n      jump\t// in\n    tag_184:\n        /* \"#utility.yul\":2731:2794   */\n      swap3\n      pop\n        /* \"#utility.yul\":2687:2804   */\n      pop\n        /* \"#utility.yul\":2843:2845   */\n      0x20\n        /* \"#utility.yul\":2869:2934   */\n      tag_185\n        /* \"#utility.yul\":2926:2933   */\n      dup6\n        /* \"#utility.yul\":2917:2923   */\n      dup3\n        /* \"#utility.yul\":2906:2915   */\n      dup7\n        /* \"#utility.yul\":2902:2924   */\n      add\n        /* \"#utility.yul\":2869:2934   */\n      tag_111\n      jump\t// in\n    tag_185:\n        /* \"#utility.yul\":2859:2934   */\n      swap2\n      pop\n        /* \"#utility.yul\":2814:2944   */\n      pop\n        /* \"#utility.yul\":2453:2951   */\n      swap3\n      pop\n      swap3\n      swap1\n      pop\n      jump\t// out\n        /* \"#utility.yul\":2957:3075   */\n    tag_112:\n        /* \"#utility.yul\":3044:3068   */\n      tag_187\n        /* \"#utility.yul\":3062:3067   */\n      dup2\n        /* \"#utility.yul\":3044:3068   */\n      tag_107\n      jump\t// in\n    tag_187:\n        /* \"#utility.yul\":3039:3042   */\n      dup3\n        /* \"#utility.yul\":3032:3069   */\n      mstore\n        /* \"#utility.yul\":2957:3075   */\n      pop\n      pop\n      jump\t// out\n        /* \"#utility.yul\":3081:3303   */\n    tag_19:\n        /* \"#utility.yul\":3174:3178   */\n      0x00\n        /* \"#utility.yul\":3212:3214   */\n      0x20\n        /* \"#utility.yul\":3201:3210   */\n      dup3\n        /* \"#utility.yul\":3197:3215   */\n      add\n        /* \"#utility.yul\":3189:3215   */\n      swap1\n      pop\n        /* \"#utility.yul\":3225:3296   */\n      tag_189\n        /* \"#utility.yul\":3293:3294   */\n      0x00\n        /* \"#utility.yul\":3282:3291   */\n      dup4\n        /* \"#utility.yul\":3278:3295   */\n      add\n        /* \"#utility.yul\":3269:3275   */\n      dup5\n        /* \"#utility.yul\":3225:3296   */\n      tag_112\n      jump\t// in\n    tag_189:\n        /* \"#utility.yul\":3081:3303   */\n      swap3\n      swap2\n      pop\n      pop\n      jump\t// out\n        /* \"#utility.yul\":3309:3638   */\n    tag_22:\n        /* \"#utility.yul\":3368:3374   */\n      0x00\n        /* \"#utility.yul\":3417:3419   */\n      0x20\n        /* \"#utility.yul\":3405:3414   */\n      dup3\n        /* \"#utility.yul\":3396:3403   */\n      dup5\n        /* \"#utility.yul\":3392:3415   */\n      sub\n        /* \"#utility.yul\":3388:3420   */\n      slt\n        /* \"#utility.yul\":3385:3504   */\n      iszero\n      tag_191\n      jumpi\n        /* \"#utility.yul\":3423:3502   */\n      tag_192\n      tag_101\n      jump\t// in\n    tag_192:\n        /* \"#utility.yul\":3385:3504   */\n    tag_191:\n        /* \"#utility.yul\":3543:3544   */\n      0x00\n        /* \"#utility.yul\":3568:3621   */\n      tag_193\n        /* \"#utility.yul\":3613:3620   */\n      dup5\n        /* \"#utility.yul\":3604:3610   */\n      dup3\n        /* \"#utility.yul\":3593:3602   */\n      dup6\n        /* \"#utility.yul\":3589:3611   */\n      add\n        /* \"#utility.yul\":3568:3621   */\n      tag_109\n      jump\t// in\n    tag_193:\n        /* \"#utility.yul\":3558:3621   */\n      swap2\n      pop\n        /* \"#utility.yul\":3514:3631   */\n      pop\n        /* \"#utility.yul\":3309:3638   */\n      swap3\n      swap2\n      pop\n      pop\n      jump\t// out\n        /* \"#utility.yul\":3644:3743   */\n    tag_113:\n        /* \"#utility.yul\":3696:3702   */\n      0x00\n        /* \"#utility.yul\":3730:3735   */\n      dup2\n        /* \"#utility.yul\":3724:3736   */\n      mload\n        /* \"#utility.yul\":3714:3736   */\n      swap1\n      pop\n        /* \"#utility.yul\":3644:3743   */\n      swap2\n      swap1\n      pop\n      jump\t// out\n        /* \"#utility.yul\":3749:3918   */\n    tag_114:\n        /* \"#utility.yul\":3833:3844   */\n      0x00\n        /* \"#utility.yul\":3867:3873   */\n      dup3\n        /* \"#utility.yul\":3862:3865   */\n      dup3\n        /* \"#utility.yul\":3855:3874   */\n      mstore\n        /* \"#utility.yul\":3907:3911   */\n      0x20\n        /* \"#utility.yul\":3902:3905   */\n      dup3\n        /* \"#utility.yul\":3898:3912   */\n      add\n        /* \"#utility.yul\":3883:3912   */\n      swap1\n      pop\n        /* \"#utility.yul\":3749:3918   */\n      swap3\n      swap2\n      pop\n      pop\n      jump\t// out\n        /* \"#utility.yul\":3924:4063   */\n    tag_115:\n        /* \"#utility.yul\":4013:4019   */\n      dup3\n        /* \"#utility.yul\":4008:4011   */\n      dup2\n        /* \"#utility.yul\":4003:4006   */\n      dup4\n        /* \"#utility.yul\":3997:4020   */\n      mcopy\n        /* \"#utility.yul\":4054:4055   */\n      0x00\n        /* \"#utility.yul\":4045:4051   */\n      dup4\n        /* \"#utility.yul\":4040:4043   */\n      dup4\n        /* \"#utility.yul\":4036:4052   */\n      add\n        /* \"#utility.yul\":4029:4056   */\n      mstore\n        /* \"#utility.yul\":3924:4063   */\n      pop\n      pop\n      pop\n      jump\t// out\n        /* \"#utility.yul\":4069:4171   */\n    tag_116:\n        /* \"#utility.yul\":4110:4116   */\n      0x00\n        /* \"#utility.yul\":4161:4163   */\n      0x1f\n        /* \"#utility.yul\":4157:4164   */\n      not\n        /* \"#utility.yul\":4152:4154   */\n      0x1f\n        /* \"#utility.yul\":4145:4150   */\n      dup4\n        /* \"#utility.yul\":4141:4155   */\n      add\n        /* \"#utility.yul\":4137:4165   */\n      and\n        /* \"#utility.yul\":4127:4165   */\n      swap1\n      pop\n        /* \"#utility.yul\":4069:4171   */\n      swap2\n      swap1\n      pop\n      jump\t// out\n        /* \"#utility.yul\":4177:4554   */\n    tag_117:\n        /* \"#utility.yul\":4265:4268   */\n      0x00\n        /* \"#utility.yul\":4293:4332   */\n      tag_199\n        /* \"#utility.yul\":4326:4331   */\n      dup3\n        /* \"#utility.yul\":4293:4332   */\n      tag_113\n      jump\t// in\n    tag_199:\n        /* \"#utility.yul\":4348:4419   */\n      tag_200\n        /* \"#utility.yul\":4412:4418   */\n      dup2\n        /* \"#utility.yul\":4407:4410   */\n      dup6\n        /* \"#utility.yul\":4348:4419   */\n      tag_114\n      jump\t// in\n    tag_200:\n        /* \"#utility.yul\":4341:4419   */\n      swap4\n      pop\n        /* \"#utility.yul\":4428:4493   */\n      tag_201\n        /* \"#utility.yul\":4486:4492   */\n      dup2\n        /* \"#utility.yul\":4481:4484   */\n      dup6\n        /* \"#utility.yul\":4474:4478   */\n      0x20\n        /* \"#utility.yul\":4467:4472   */\n      dup7\n        /* \"#utility.yul\":4463:4479   */\n      add\n        /* \"#utility.yul\":4428:4493   */\n      tag_115\n      jump\t// in\n    tag_201:\n        /* \"#utility.yul\":4518:4547   */\n      tag_202\n        /* \"#utility.yul\":4540:4546   */\n      dup2\n        /* \"#utility.yul\":4518:4547   */\n      tag_116\n      jump\t// in\n    tag_202:\n        /* \"#utility.yul\":4513:4516   */\n      dup5\n        /* \"#utility.yul\":4509:4548   */\n      add\n        /* \"#utility.yul\":4502:4548   */\n      swap2\n      pop\n        /* \"#utility.yul\":4269:4554   */\n      pop\n        /* \"#utility.yul\":4177:4554   */\n      swap3\n      swap2\n      pop\n      pop\n      jump\t// out\n        /* \"#utility.yul\":4560:4740   */\n    tag_37:\n        /* \"#utility.yul\":4608:4685   */\n      0x4e487b7100000000000000000000000000000000000000000000000000000000\n        /* \"#utility.yul\":4605:4606   */\n      0x00\n        /* \"#utility.yul\":4598:4686   */\n      mstore\n        /* \"#utility.yul\":4705:4709   */\n      0x21\n        /* \"#utility.yul\":4702:4703   */\n      0x04\n        /* \"#utility.yul\":4695:4710   */\n      mstore\n        /* \"#utility.yul\":4729:4733   */\n      0x24\n        /* \"#utility.yul\":4726:4727   */\n      0x00\n        /* \"#utility.yul\":4719:4734   */\n      revert\n        /* \"#utility.yul\":4746:4863   */\n    tag_118:\n        /* \"#utility.yul\":4831:4832   */\n      0x03\n        /* \"#utility.yul\":4824:4829   */\n      dup2\n        /* \"#utility.yul\":4821:4833   */\n      lt\n        /* \"#utility.yul\":4811:4857   */\n      tag_205\n      jumpi\n        /* \"#utility.yul\":4837:4855   */\n      tag_206\n      tag_37\n      jump\t// in\n    tag_206:\n        /* \"#utility.yul\":4811:4857   */\n    tag_205:\n        /* \"#utility.yul\":4746:4863   */\n      pop\n      jump\t// out\n        /* \"#utility.yul\":4869:5004   */\n    tag_119:\n        /* \"#utility.yul\":4918:4925   */\n      0x00\n        /* \"#utility.yul\":4947:4952   */\n      dup2\n        /* \"#utility.yul\":4936:4952   */\n      swap1\n      pop\n        /* \"#utility.yul\":4953:4998   */\n      tag_208\n        /* \"#utility.yul\":4992:4997   */\n      dup3\n        /* \"#utility.yul\":4953:4998   */\n      tag_118\n      jump\t// in\n    tag_208:\n        /* \"#utility.yul\":4869:5004   */\n      swap2\n      swap1\n      pop\n      jump\t// out\n        /* \"#utility.yul\":5010:5145   */\n    tag_120:\n        /* \"#utility.yul\":5070:5079   */\n      0x00\n        /* \"#utility.yul\":5103:5139   */\n      tag_210\n        /* \"#utility.yul\":5133:5138   */\n      dup3\n        /* \"#utility.yul\":5103:5139   */\n      tag_119\n      jump\t// in\n    tag_210:\n        /* \"#utility.yul\":5090:5139   */\n      swap1\n      pop\n        /* \"#utility.yul\":5010:5145   */\n      swap2\n      swap1\n      pop\n      jump\t// out\n        /* \"#utility.yul\":5151:5302   */\n    tag_121:\n        /* \"#utility.yul\":5248:5295   */\n      tag_212\n        /* \"#utility.yul\":5289:5294   */\n      dup2\n        /* \"#utility.yul\":5248:5295   */\n      tag_120\n      jump\t// in\n    tag_212:\n        /* \"#utility.yul\":5243:5246   */\n      dup3\n        /* \"#utility.yul\":5236:5296   */\n      mstore\n        /* \"#utility.yul\":5151:5302   */\n      pop\n      pop\n      jump\t// out\n        /* \"#utility.yul\":5308:5861   */\n    tag_25:\n        /* \"#utility.yul\":5487:5491   */\n      0x00\n        /* \"#utility.yul\":5525:5527   */\n      0x60\n        /* \"#utility.yul\":5514:5523   */\n      dup3\n        /* \"#utility.yul\":5510:5528   */\n      add\n        /* \"#utility.yul\":5502:5528   */\n      swap1\n      pop\n        /* \"#utility.yul\":5538:5609   */\n      tag_214\n        /* \"#utility.yul\":5606:5607   */\n      0x00\n        /* \"#utility.yul\":5595:5604   */\n      dup4\n        /* \"#utility.yul\":5591:5608   */\n      add\n        /* \"#utility.yul\":5582:5588   */\n      dup7\n        /* \"#utility.yul\":5538:5609   */\n      tag_112\n      jump\t// in\n    tag_214:\n        /* \"#utility.yul\":5656:5665   */\n      dup2\n        /* \"#utility.yul\":5650:5654   */\n      dup2\n        /* \"#utility.yul\":5646:5666   */\n      sub\n        /* \"#utility.yul\":5641:5643   */\n      0x20\n        /* \"#utility.yul\":5630:5639   */\n      dup4\n        /* \"#utility.yul\":5626:5644   */\n      add\n        /* \"#utility.yul\":5619:5667   */\n      mstore\n        /* \"#utility.yul\":5684:5762   */\n      tag_215\n        /* \"#utility.yul\":5757:5761   */\n      dup2\n        /* \"#utility.yul\":5748:5754   */\n      dup6\n        /* \"#utility.yul\":5684:5762   */\n      tag_117\n      jump\t// in\n    tag_215:\n        /* \"#utility.yul\":5676:5762   */\n      swap1\n      pop\n        /* \"#utility.yul\":5772:5854   */\n      tag_216\n        /* \"#utility.yul\":5850:5852   */\n      0x40\n        /* \"#utility.yul\":5839:5848   */\n      dup4\n        /* \"#utility.yul\":5835:5853   */\n      add\n        /* \"#utility.yul\":5826:5832   */\n      dup5\n        /* \"#utility.yul\":5772:5854   */\n      tag_121\n      jump\t// in\n    tag_216:\n        /* \"#utility.yul\":5308:5861   */\n      swap5\n      swap4\n      pop\n      pop\n      pop\n      pop\n      jump\t// out\n        /* \"#utility.yul\":5867:5975   */\n    tag_122:\n        /* \"#utility.yul\":5944:5968   */\n      tag_218\n        /* \"#utility.yul\":5962:5967   */\n      dup2\n        /* \"#utility.yul\":5944:5968   */\n      tag_107\n      jump\t// in\n    tag_218:\n        /* \"#utility.yul\":5939:5942   */\n      dup3\n        /* \"#utility.yul\":5932:5969   */\n      mstore\n        /* \"#utility.yul\":5867:5975   */\n      pop\n      pop\n      jump\t// out\n        /* \"#utility.yul\":5981:6140   */\n    tag_123:\n        /* \"#utility.yul\":6055:6066   */\n      0x00\n        /* \"#utility.yul\":6089:6095   */\n      dup3\n        /* \"#utility.yul\":6084:6087   */\n      dup3\n        /* \"#utility.yul\":6077:6096   */\n      mstore\n        /* \"#utility.yul\":6129:6133   */\n      0x20\n        /* \"#utility.yul\":6124:6127   */\n      dup3\n        /* \"#utility.yul\":6120:6134   */\n      add\n        /* \"#utility.yul\":6105:6134   */\n      swap1\n      pop\n        /* \"#utility.yul\":5981:6140   */\n      swap3\n      swap2\n      pop\n      pop\n      jump\t// out\n        /* \"#utility.yul\":6146:6503   */\n    tag_124:\n        /* \"#utility.yul\":6224:6227   */\n      0x00\n        /* \"#utility.yul\":6252:6291   */\n      tag_221\n        /* \"#utility.yul\":6285:6290   */\n      dup3\n        /* \"#utility.yul\":6252:6291   */\n      tag_113\n      jump\t// in\n    tag_221:\n        /* \"#utility.yul\":6307:6368   */\n      tag_222\n        /* \"#utility.yul\":6361:6367   */\n      dup2\n        /* \"#utility.yul\":6356:6359   */\n      dup6\n        /* \"#utility.yul\":6307:6368   */\n      tag_123\n      jump\t// in\n    tag_222:\n        /* \"#utility.yul\":6300:6368   */\n      swap4\n      pop\n        /* \"#utility.yul\":6377:6442   */\n      tag_223\n        /* \"#utility.yul\":6435:6441   */\n      dup2\n        /* \"#utility.yul\":6430:6433   */\n      dup6\n        /* \"#utility.yul\":6423:6427   */\n      0x20\n        /* \"#utility.yul\":6416:6421   */\n      dup7\n        /* \"#utility.yul\":6412:6428   */\n      add\n        /* \"#utility.yul\":6377:6442   */\n      tag_115\n      jump\t// in\n    tag_223:\n        /* \"#utility.yul\":6467:6496   */\n      tag_224\n        /* \"#utility.yul\":6489:6495   */\n      dup2\n        /* \"#utility.yul\":6467:6496   */\n      tag_116\n      jump\t// in\n    tag_224:\n        /* \"#utility.yul\":6462:6465   */\n      dup5\n        /* \"#utility.yul\":6458:6497   */\n      add\n        /* \"#utility.yul\":6451:6497   */\n      swap2\n      pop\n        /* \"#utility.yul\":6228:6503   */\n      pop\n        /* \"#utility.yul\":6146:6503   */\n      swap3\n      swap2\n      pop\n      pop\n      jump\t// out\n        /* \"#utility.yul\":6509:6650   */\n    tag_125:\n        /* \"#utility.yul\":6596:6643   */\n      tag_226\n        /* \"#utility.yul\":6637:6642   */\n      dup2\n        /* \"#utility.yul\":6596:6643   */\n      tag_120\n      jump\t// in\n    tag_226:\n        /* \"#utility.yul\":6591:6594   */\n      dup3\n        /* \"#utility.yul\":6584:6644   */\n      mstore\n        /* \"#utility.yul\":6509:6650   */\n      pop\n      pop\n      jump\t// out\n        /* \"#utility.yul\":6714:7495   */\n    tag_126:\n        /* \"#utility.yul\":6823:6826   */\n      0x00\n        /* \"#utility.yul\":6859:6863   */\n      0x60\n        /* \"#utility.yul\":6854:6857   */\n      dup4\n        /* \"#utility.yul\":6850:6864   */\n      add\n        /* \"#utility.yul\":6944:6948   */\n      0x00\n        /* \"#utility.yul\":6937:6942   */\n      dup4\n        /* \"#utility.yul\":6933:6949   */\n      add\n        /* \"#utility.yul\":6927:6950   */\n      mload\n        /* \"#utility.yul\":6963:7026   */\n      tag_228\n        /* \"#utility.yul\":7020:7024   */\n      0x00\n        /* \"#utility.yul\":7015:7018   */\n      dup7\n        /* \"#utility.yul\":7011:7025   */\n      add\n        /* \"#utility.yul\":6997:7009   */\n      dup3\n        /* \"#utility.yul\":6963:7026   */\n      tag_122\n      jump\t// in\n    tag_228:\n        /* \"#utility.yul\":6874:7036   */\n      pop\n        /* \"#utility.yul\":7119:7123   */\n      0x20\n        /* \"#utility.yul\":7112:7117   */\n      dup4\n        /* \"#utility.yul\":7108:7124   */\n      add\n        /* \"#utility.yul\":7102:7125   */\n      mload\n        /* \"#utility.yul\":7172:7175   */\n      dup5\n        /* \"#utility.yul\":7166:7170   */\n      dup3\n        /* \"#utility.yul\":7162:7176   */\n      sub\n        /* \"#utility.yul\":7155:7159   */\n      0x20\n        /* \"#utility.yul\":7150:7153   */\n      dup7\n        /* \"#utility.yul\":7146:7160   */\n      add\n        /* \"#utility.yul\":7139:7177   */\n      mstore\n        /* \"#utility.yul\":7198:7271   */\n      tag_229\n        /* \"#utility.yul\":7266:7270   */\n      dup3\n        /* \"#utility.yul\":7252:7264   */\n      dup3\n        /* \"#utility.yul\":7198:7271   */\n      tag_124\n      jump\t// in\n    tag_229:\n        /* \"#utility.yul\":7190:7271   */\n      swap2\n      pop\n        /* \"#utility.yul\":7046:7282   */\n      pop\n        /* \"#utility.yul\":7366:7370   */\n      0x40\n        /* \"#utility.yul\":7359:7364   */\n      dup4\n        /* \"#utility.yul\":7355:7371   */\n      add\n        /* \"#utility.yul\":7349:7372   */\n      mload\n        /* \"#utility.yul\":7385:7458   */\n      tag_230\n        /* \"#utility.yul\":7452:7456   */\n      0x40\n        /* \"#utility.yul\":7447:7450   */\n      dup7\n        /* \"#utility.yul\":7443:7457   */\n      add\n        /* \"#utility.yul\":7429:7441   */\n      dup3\n        /* \"#utility.yul\":7385:7458   */\n      tag_125\n      jump\t// in\n    tag_230:\n        /* \"#utility.yul\":7292:7468   */\n      pop\n        /* \"#utility.yul\":7485:7489   */\n      dup1\n        /* \"#utility.yul\":7478:7489   */\n      swap2\n      pop\n        /* \"#utility.yul\":6828:7495   */\n      pop\n        /* \"#utility.yul\":6714:7495   */\n      swap3\n      swap2\n      pop\n      pop\n      jump\t// out\n        /* \"#utility.yul\":7501:7854   */\n    tag_29:\n        /* \"#utility.yul\":7634:7638   */\n      0x00\n        /* \"#utility.yul\":7672:7674   */\n      0x20\n        /* \"#utility.yul\":7661:7670   */\n      dup3\n        /* \"#utility.yul\":7657:7675   */\n      add\n        /* \"#utility.yul\":7649:7675   */\n      swap1\n      pop\n        /* \"#utility.yul\":7721:7730   */\n      dup2\n        /* \"#utility.yul\":7715:7719   */\n      dup2\n        /* \"#utility.yul\":7711:7731   */\n      sub\n        /* \"#utility.yul\":7707:7708   */\n      0x00\n        /* \"#utility.yul\":7696:7705   */\n      dup4\n        /* \"#utility.yul\":7692:7709   */\n      add\n        /* \"#utility.yul\":7685:7732   */\n      mstore\n        /* \"#utility.yul\":7749:7847   */\n      tag_232\n        /* \"#utility.yul\":7842:7846   */\n      dup2\n        /* \"#utility.yul\":7833:7839   */\n      dup5\n        /* \"#utility.yul\":7749:7847   */\n      tag_126\n      jump\t// in\n    tag_232:\n        /* \"#utility.yul\":7741:7847   */\n      swap1\n      pop\n        /* \"#utility.yul\":7501:7854   */\n      swap3\n      swap2\n      pop\n      pop\n      jump\t// out\n        /* \"#utility.yul\":7860:8017   */\n    tag_127:\n        /* \"#utility.yul\":8000:8009   */\n      0x4d65207061736500000000000000000000000000000000000000000000000000\n        /* \"#utility.yul\":7996:7997   */\n      0x00\n        /* \"#utility.yul\":7988:7994   */\n      dup3\n        /* \"#utility.yul\":7984:7998   */\n      add\n        /* \"#utility.yul\":7977:8010   */\n      mstore\n        /* \"#utility.yul\":7860:8017   */\n      pop\n      jump\t// out\n        /* \"#utility.yul\":8023:8388   */\n    tag_128:\n        /* \"#utility.yul\":8165:8168   */\n      0x00\n        /* \"#utility.yul\":8186:8252   */\n      tag_235\n        /* \"#utility.yul\":8250:8251   */\n      0x07\n        /* \"#utility.yul\":8245:8248   */\n      dup4\n        /* \"#utility.yul\":8186:8252   */\n      tag_114\n      jump\t// in\n    tag_235:\n        /* \"#utility.yul\":8179:8252   */\n      swap2\n      pop\n        /* \"#utility.yul\":8261:8354   */\n      tag_236\n        /* \"#utility.yul\":8350:8353   */\n      dup3\n        /* \"#utility.yul\":8261:8354   */\n      tag_127\n      jump\t// in\n    tag_236:\n        /* \"#utility.yul\":8379:8381   */\n      0x20\n        /* \"#utility.yul\":8374:8377   */\n      dup3\n        /* \"#utility.yul\":8370:8382   */\n      add\n        /* \"#utility.yul\":8363:8382   */\n      swap1\n      pop\n        /* \"#utility.yul\":8023:8388   */\n      swap2\n      swap1\n      pop\n      jump\t// out\n        /* \"#utility.yul\":8394:8813   */\n    tag_33:\n        /* \"#utility.yul\":8560:8564   */\n      0x00\n        /* \"#utility.yul\":8598:8600   */\n      0x20\n        /* \"#utility.yul\":8587:8596   */\n      dup3\n        /* \"#utility.yul\":8583:8601   */\n      add\n        /* \"#utility.yul\":8575:8601   */\n      swap1\n      pop\n        /* \"#utility.yul\":8647:8656   */\n      dup2\n        /* \"#utility.yul\":8641:8645   */\n      dup2\n        /* \"#utility.yul\":8637:8657   */\n      sub\n        /* \"#utility.yul\":8633:8634   */\n      0x00\n        /* \"#utility.yul\":8622:8631   */\n      dup4\n        /* \"#utility.yul\":8618:8635   */\n      add\n        /* \"#utility.yul\":8611:8658   */\n      mstore\n        /* \"#utility.yul\":8675:8806   */\n      tag_238\n        /* \"#utility.yul\":8801:8805   */\n      dup2\n        /* \"#utility.yul\":8675:8806   */\n      tag_128\n      jump\t// in\n    tag_238:\n        /* \"#utility.yul\":8667:8806   */\n      swap1\n      pop\n        /* \"#utility.yul\":8394:8813   */\n      swap2\n      swap1\n      pop\n      jump\t// out\n        /* \"#utility.yul\":8819:8999   */\n    tag_129:\n        /* \"#utility.yul\":8867:8944   */\n      0x4e487b7100000000000000000000000000000000000000000000000000000000\n        /* \"#utility.yul\":8864:8865   */\n      0x00\n        /* \"#utility.yul\":8857:8945   */\n      mstore\n        /* \"#utility.yul\":8964:8968   */\n      0x41\n        /* \"#utility.yul\":8961:8962   */\n      0x04\n        /* \"#utility.yul\":8954:8969   */\n      mstore\n        /* \"#utility.yul\":8988:8992   */\n      0x24\n        /* \"#utility.yul\":8985:8986   */\n      0x00\n        /* \"#utility.yul\":8978:8993   */\n      revert\n        /* \"#utility.yul\":9005:9185   */\n    tag_130:\n        /* \"#utility.yul\":9053:9130   */\n      0x4e487b7100000000000000000000000000000000000000000000000000000000\n        /* \"#utility.yul\":9050:9051   */\n      0x00\n        /* \"#utility.yul\":9043:9131   */\n      mstore\n        /* \"#utility.yul\":9150:9154   */\n      0x22\n        /* \"#utility.yul\":9147:9148   */\n      0x04\n        /* \"#utility.yul\":9140:9155   */\n      mstore\n        /* \"#utility.yul\":9174:9178   */\n      0x24\n        /* \"#utility.yul\":9171:9172   */\n      0x00\n        /* \"#utility.yul\":9164:9179   */\n      revert\n        /* \"#utility.yul\":9191:9511   */\n    tag_61:\n        /* \"#utility.yul\":9235:9241   */\n      0x00\n        /* \"#utility.yul\":9272:9273   */\n      0x02\n        /* \"#utility.yul\":9266:9270   */\n      dup3\n        /* \"#utility.yul\":9262:9274   */\n      div\n        /* \"#utility.yul\":9252:9274   */\n      swap1\n      pop\n        /* \"#utility.yul\":9319:9320   */\n      0x01\n        /* \"#utility.yul\":9313:9317   */\n      dup3\n        /* \"#utility.yul\":9309:9321   */\n      and\n        /* \"#utility.yul\":9340:9358   */\n      dup1\n        /* \"#utility.yul\":9330:9411   */\n      tag_242\n      jumpi\n        /* \"#utility.yul\":9396:9400   */\n      0x7f\n        /* \"#utility.yul\":9388:9394   */\n      dup3\n        /* \"#utility.yul\":9384:9401   */\n      and\n        /* \"#utility.yul\":9374:9401   */\n      swap2\n      pop\n        /* \"#utility.yul\":9330:9411   */\n    tag_242:\n        /* \"#utility.yul\":9458:9460   */\n      0x20\n        /* \"#utility.yul\":9450:9456   */\n      dup3\n        /* \"#utility.yul\":9447:9461   */\n      lt\n        /* \"#utility.yul\":9427:9445   */\n      dup2\n        /* \"#utility.yul\":9424:9462   */\n      sub\n        /* \"#utility.yul\":9421:9505   */\n      tag_243\n      jumpi\n        /* \"#utility.yul\":9477:9495   */\n      tag_244\n      tag_130\n      jump\t// in\n    tag_244:\n        /* \"#utility.yul\":9421:9505   */\n    tag_243:\n        /* \"#utility.yul\":9242:9511   */\n      pop\n        /* \"#utility.yul\":9191:9511   */\n      swap2\n      swap1\n      pop\n      jump\t// out\n        /* \"#utility.yul\":9517:9658   */\n    tag_131:\n        /* \"#utility.yul\":9566:9570   */\n      0x00\n        /* \"#utility.yul\":9589:9592   */\n      dup2\n        /* \"#utility.yul\":9581:9592   */\n      swap1\n      pop\n        /* \"#utility.yul\":9612:9615   */\n      dup2\n        /* \"#utility.yul\":9609:9610   */\n      0x00\n        /* \"#utility.yul\":9602:9616   */\n      mstore\n        /* \"#utility.yul\":9646:9650   */\n      0x20\n        /* \"#utility.yul\":9643:9644   */\n      0x00\n        /* \"#utility.yul\":9633:9651   */\n      keccak256\n        /* \"#utility.yul\":9625:9651   */\n      swap1\n      pop\n        /* \"#utility.yul\":9517:9658   */\n      swap2\n      swap1\n      pop\n      jump\t// out\n        /* \"#utility.yul\":9664:9757   */\n    tag_132:\n        /* \"#utility.yul\":9701:9707   */\n      0x00\n        /* \"#utility.yul\":9748:9750   */\n      0x20\n        /* \"#utility.yul\":9743:9745   */\n      0x1f\n        /* \"#utility.yul\":9736:9741   */\n      dup4\n        /* \"#utility.yul\":9732:9746   */\n      add\n        /* \"#utility.yul\":9728:9751   */\n      div\n        /* \"#utility.yul\":9718:9751   */\n      swap1\n      pop\n        /* \"#utility.yul\":9664:9757   */\n      swap2\n      swap1\n      pop\n      jump\t// out\n        /* \"#utility.yul\":9763:9870   */\n    tag_133:\n        /* \"#utility.yul\":9807:9815   */\n      0x00\n        /* \"#utility.yul\":9857:9862   */\n      dup3\n        /* \"#utility.yul\":9851:9855   */\n      dup3\n        /* \"#utility.yul\":9847:9863   */\n      shl\n        /* \"#utility.yul\":9826:9863   */\n      swap1\n      pop\n        /* \"#utility.yul\":9763:9870   */\n      swap3\n      swap2\n      pop\n      pop\n      jump\t// out\n        /* \"#utility.yul\":9876:10269   */\n    tag_134:\n        /* \"#utility.yul\":9945:9951   */\n      0x00\n        /* \"#utility.yul\":9995:9996   */\n      0x08\n        /* \"#utility.yul\":9983:9993   */\n      dup4\n        /* \"#utility.yul\":9979:9997   */\n      mul\n        /* \"#utility.yul\":10018:10115   */\n      tag_249\n        /* \"#utility.yul\":10048:10114   */\n      0xffffffffffffffffffffffffffffffffffffffffffffffffffffffffffffffff\n        /* \"#utility.yul\":10037:10046   */\n      dup3\n        /* \"#utility.yul\":10018:10115   */\n      tag_133\n      jump\t// in\n    tag_249:\n        /* \"#utility.yul\":10136:10175   */\n      tag_250\n        /* \"#utility.yul\":10166:10174   */\n      dup7\n        /* \"#utility.yul\":10155:10164   */\n      dup4\n        /* \"#utility.yul\":10136:10175   */\n      tag_133\n      jump\t// in\n    tag_250:\n        /* \"#utility.yul\":10124:10175   */\n      swap6\n      pop\n        /* \"#utility.yul\":10208:10212   */\n      dup1\n        /* \"#utility.yul\":10204:10213   */\n      not\n        /* \"#utility.yul\":10197:10202   */\n      dup5\n        /* \"#utility.yul\":10193:10214   */\n      and\n        /* \"#utility.yul\":10184:10214   */\n      swap4\n      pop\n        /* \"#utility.yul\":10257:10261   */\n      dup1\n        /* \"#utility.yul\":10247:10255   */\n      dup7\n        /* \"#utility.yul\":10243:10262   */\n      and\n        /* \"#utility.yul\":10236:10241   */\n      dup5\n        /* \"#utility.yul\":10233:10263   */\n      or\n        /* \"#utility.yul\":10223:10263   */\n      swap3\n      pop\n        /* \"#utility.yul\":9952:10269   */\n      pop\n      pop\n        /* \"#utility.yul\":9876:10269   */\n      swap4\n      swap3\n      pop\n      pop\n      pop\n      jump\t// out\n        /* \"#utility.yul\":10275:10335   */\n    tag_135:\n        /* \"#utility.yul\":10303:10306   */\n      0x00\n        /* \"#utility.yul\":10324:10329   */\n      dup2\n        /* \"#utility.yul\":10317:10329   */\n      swap1\n      pop\n        /* \"#utility.yul\":10275:10335   */\n      swap2\n      swap1\n      pop\n      jump\t// out\n        /* \"#utility.yul\":10341:10483   */\n    tag_136:\n        /* \"#utility.yul\":10391:10400   */\n      0x00\n        /* \"#utility.yul\":10424:10477   */\n      tag_253\n        /* \"#utility.yul\":10442:10476   */\n      tag_254\n        /* \"#utility.yul\":10451:10475   */\n      tag_255\n        /* \"#utility.yul\":10469:10474   */\n      dup5\n        /* \"#utility.yul\":10451:10475   */\n      tag_107\n      jump\t// in\n    tag_255:\n        /* \"#utility.yul\":10442:10476   */\n      tag_135\n      jump\t// in\n    tag_254:\n        /* \"#utility.yul\":10424:10477   */\n      tag_107\n      jump\t// in\n    tag_253:\n        /* \"#utility.yul\":10411:10477   */\n      swap1\n      pop\n        /* \"#utility.yul\":10341:10483   */\n      swap2\n      swap1\n      pop\n      jump\t// out\n        /* \"#utility.yul\":10489:10564   */\n    tag_137:\n        /* \"#utility.yul\":10532:10535   */\n      0x00\n        /* \"#utility.yul\":10553:10558   */\n      dup2\n        /* \"#utility.yul\":10546:10558   */\n      swap1\n      pop\n        /* \"#utility.yul\":10489:10564   */\n      swap2\n      swap1\n      pop\n      jump\t// out\n        /* \"#utility.yul\":10570:10839   */\n    tag_138:\n        /* \"#utility.yul\":10680:10719   */\n      tag_258\n        /* \"#utility.yul\":10711:10718   */\n      dup4\n        /* \"#utility.yul\":10680:10719   */\n      tag_136\n      jump\t// in\n    tag_258:\n        /* \"#utility.yul\":10741:10832   */\n      tag_259\n        /* \"#utility.yul\":10790:10831   */\n      tag_260\n        /* \"#utility.yul\":10814:10830   */\n      dup3\n        /* \"#utility.yul\":10790:10831   */\n      tag_137\n      jump\t// in\n    tag_260:\n        /* \"#utility.yul\":10782:10788   */\n      dup5\n        /* \"#utility.yul\":10775:10779   */\n      dup5\n        /* \"#utility.yul\":10769:10780   */\n      sload\n        /* \"#utility.yul\":10741:10832   */\n      tag_134\n      jump\t// in\n    tag_259:\n        /* \"#utility.yul\":10735:10739   */\n      dup3\n        /* \"#utility.yul\":10728:10833   */\n      sstore\n        /* \"#utility.yul\":10646:10839   */\n      pop\n        /* \"#utility.yul\":10570:10839   */\n      pop\n      pop\n      pop\n      jump\t// out\n        /* \"#utility.yul\":10845:10918   */\n    tag_139:\n        /* \"#utility.yul\":10890:10893   */\n      0x00\n        /* \"#utility.yul\":10845:10918   */\n      swap1\n      jump\t// out\n        /* \"#utility.yul\":10924:11113   */\n    tag_140:\n        /* \"#utility.yul\":11001:11033   */\n      tag_263\n      tag_139\n      jump\t// in\n    tag_263:\n        /* \"#utility.yul\":11042:11107   */\n      tag_264\n        /* \"#utility.yul\":11100:11106   */\n      dup2\n        /* \"#utility.yul\":11092:11098   */\n      dup5\n        /* \"#utility.yul\":11086:11090   */\n      dup5\n        /* \"#utility.yul\":11042:11107   */\n      tag_138\n      jump\t// in\n    tag_264:\n        /* \"#utility.yul\":10977:11113   */\n      pop\n        /* \"#utility.yul\":10924:11113   */\n      pop\n      pop\n      jump\t// out\n        /* \"#utility.yul\":11119:11305   */\n    tag_141:\n        /* \"#utility.yul\":11179:11299   */\n    tag_266:\n        /* \"#utility.yul\":11196:11199   */\n      dup2\n        /* \"#utility.yul\":11189:11194   */\n      dup2\n        /* \"#utility.yul\":11186:11200   */\n      lt\n        /* \"#utility.yul\":11179:11299   */\n      iszero\n      tag_268\n      jumpi\n        /* \"#utility.yul\":11250:11289   */\n      tag_269\n        /* \"#utility.yul\":11287:11288   */\n      0x00\n        /* \"#utility.yul\":11280:11285   */\n      dup3\n        /* \"#utility.yul\":11250:11289   */\n      tag_140\n      jump\t// in\n    tag_269:\n        /* \"#utility.yul\":11223:11224   */\n      0x01\n        /* \"#utility.yul\":11216:11221   */\n      dup2\n        /* \"#utility.yul\":11212:11225   */\n      add\n        /* \"#utility.yul\":11203:11225   */\n      swap1\n      pop\n        /* \"#utility.yul\":11179:11299   */\n      jump(tag_266)\n    tag_268:\n        /* \"#utility.yul\":11119:11305   */\n      pop\n      pop\n      jump\t// out\n        /* \"#utility.yul\":11311:11854   */\n    tag_142:\n        /* \"#utility.yul\":11412:11414   */\n      0x1f\n        /* \"#utility.yul\":11407:11410   */\n      dup3\n        /* \"#utility.yul\":11404:11415   */\n      gt\n        /* \"#utility.yul\":11401:11847   */\n      iszero\n      tag_271\n      jumpi\n        /* \"#utility.yul\":11446:11484   */\n      tag_272\n        /* \"#utility.yul\":11478:11483   */\n      dup2\n        /* \"#utility.yul\":11446:11484   */\n      tag_131\n      jump\t// in\n    tag_272:\n        /* \"#utility.yul\":11530:11559   */\n      tag_273\n        /* \"#utility.yul\":11548:11558   */\n      dup5\n        /* \"#utility.yul\":11530:11559   */\n      tag_132\n      jump\t// in\n    tag_273:\n        /* \"#utility.yul\":11520:11528   */\n      dup2\n        /* \"#utility.yul\":11516:11560   */\n      add\n        /* \"#utility.yul\":11713:11715   */\n      0x20\n        /* \"#utility.yul\":11701:11711   */\n      dup6\n        /* \"#utility.yul\":11698:11716   */\n      lt\n        /* \"#utility.yul\":11695:11744   */\n      iszero\n      tag_274\n      jumpi\n        /* \"#utility.yul\":11734:11742   */\n      dup2\n        /* \"#utility.yul\":11719:11742   */\n      swap1\n      pop\n        /* \"#utility.yul\":11695:11744   */\n    tag_274:\n        /* \"#utility.yul\":11757:11837   */\n      tag_275\n        /* \"#utility.yul\":11813:11835   */\n      tag_276\n        /* \"#utility.yul\":11831:11834   */\n      dup6\n        /* \"#utility.yul\":11813:11835   */\n      tag_132\n      jump\t// in\n    tag_276:\n        /* \"#utility.yul\":11803:11811   */\n      dup4\n        /* \"#utility.yul\":11799:11836   */\n      add\n        /* \"#utility.yul\":11786:11797   */\n      dup3\n        /* \"#utility.yul\":11757:11837   */\n      tag_141\n      jump\t// in\n    tag_275:\n        /* \"#utility.yul\":11416:11847   */\n      pop\n      pop\n        /* \"#utility.yul\":11401:11847   */\n    tag_271:\n        /* \"#utility.yul\":11311:11854   */\n      pop\n      pop\n      pop\n      jump\t// out\n        /* \"#utility.yul\":11860:11977   */\n    tag_143:\n        /* \"#utility.yul\":11914:11922   */\n      0x00\n        /* \"#utility.yul\":11964:11969   */\n      dup3\n        /* \"#utility.yul\":11958:11962   */\n      dup3\n        /* \"#utility.yul\":11954:11970   */\n      shr\n        /* \"#utility.yul\":11933:11970   */\n      swap1\n      pop\n        /* \"#utility.yul\":11860:11977   */\n      swap3\n      swap2\n      pop\n      pop\n      jump\t// out\n        /* \"#utility.yul\":11983:12152   */\n    tag_144:\n        /* \"#utility.yul\":12027:12033   */\n      0x00\n        /* \"#utility.yul\":12060:12111   */\n      tag_279\n        /* \"#utility.yul\":12108:12109   */\n      0x00\n        /* \"#utility.yul\":12104:12110   */\n      not\n        /* \"#utility.yul\":12096:12101   */\n      dup5\n        /* \"#utility.yul\":12093:12094   */\n      0x08\n        /* \"#utility.yul\":12089:12102   */\n      mul\n        /* \"#utility.yul\":12060:12111   */\n      tag_143\n      jump\t// in\n    tag_279:\n        /* \"#utility.yul\":12056:12112   */\n      not\n        /* \"#utility.yul\":12141:12145   */\n      dup1\n        /* \"#utility.yul\":12135:12139   */\n      dup4\n        /* \"#utility.yul\":12131:12146   */\n      and\n        /* \"#utility.yul\":12121:12146   */\n      swap2\n      pop\n        /* \"#utility.yul\":12034:12152   */\n      pop\n        /* \"#utility.yul\":11983:12152   */\n      swap3\n      swap2\n      pop\n      pop\n      jump\t// out\n        /* \"#utility.yul\":12157:12452   */\n    tag_145:\n        /* \"#utility.yul\":12233:12237   */\n      0x00\n        /* \"#utility.yul\":12379:12408   */\n      tag_281\n        /* \"#utility.yul\":12404:12407   */\n      dup4\n        /* \"#utility.yul\":12398:12402   */\n      dup4\n        /* \"#utility.yul\":12379:12408   */\n      tag_144\n      jump\t// in\n    tag_281:\n        /* \"#utility.yul\":12371:12408   */\n      swap2\n      pop\n        /* \"#utility.yul\":12441:12444   */\n      dup3\n        /* \"#utility.yul\":12438:12439   */\n      0x02\n        /* \"#utility.yul\":12434:12445   */\n      mul\n        /* \"#utility.yul\":12428:12432   */\n      dup3\n        /* \"#utility.yul\":12425:12446   */\n      or\n        /* \"#utility.yul\":12417:12446   */\n      swap1\n      pop\n        /* \"#utility.yul\":12157:12452   */\n      swap3\n      swap2\n      pop\n      pop\n      jump\t// out\n        /* \"#utility.yul\":12457:13852   */\n    tag_40:\n        /* \"#utility.yul\":12574:12611   */\n      tag_283\n        /* \"#utility.yul\":12607:12610   */\n      dup3\n        /* \"#utility.yul\":12574:12611   */\n      tag_113\n      jump\t// in\n    tag_283:\n        /* \"#utility.yul\":12676:12694   */\n      0xffffffffffffffff\n        /* \"#utility.yul\":12668:12674   */\n      dup2\n        /* \"#utility.yul\":12665:12695   */\n      gt\n        /* \"#utility.yul\":12662:12718   */\n      iszero\n      tag_284\n      jumpi\n        /* \"#utility.yul\":12698:12716   */\n      tag_285\n      tag_129\n      jump\t// in\n    tag_285:\n        /* \"#utility.yul\":12662:12718   */\n    tag_284:\n        /* \"#utility.yul\":12742:12780   */\n      tag_286\n        /* \"#utility.yul\":12774:12778   */\n      dup3\n        /* \"#utility.yul\":12768:12779   */\n      sload\n        /* \"#utility.yul\":12742:12780   */\n      tag_61\n      jump\t// in\n    tag_286:\n        /* \"#utility.yul\":12827:12894   */\n      tag_287\n        /* \"#utility.yul\":12887:12893   */\n      dup3\n        /* \"#utility.yul\":12879:12885   */\n      dup3\n        /* \"#utility.yul\":12873:12877   */\n      dup6\n        /* \"#utility.yul\":12827:12894   */\n      tag_142\n      jump\t// in\n    tag_287:\n        /* \"#utility.yul\":12921:12922   */\n      0x00\n        /* \"#utility.yul\":12945:12949   */\n      0x20\n        /* \"#utility.yul\":12932:12949   */\n      swap1\n      pop\n        /* \"#utility.yul\":12977:12979   */\n      0x1f\n        /* \"#utility.yul\":12969:12975   */\n      dup4\n        /* \"#utility.yul\":12966:12980   */\n      gt\n        /* \"#utility.yul\":12994:12995   */\n      0x01\n        /* \"#utility.yul\":12989:13607   */\n      dup2\n      eq\n      tag_289\n      jumpi\n        /* \"#utility.yul\":13651:13652   */\n      0x00\n        /* \"#utility.yul\":13668:13674   */\n      dup5\n        /* \"#utility.yul\":13665:13742   */\n      iszero\n      tag_290\n      jumpi\n        /* \"#utility.yul\":13717:13726   */\n      dup3\n        /* \"#utility.yul\":13712:13715   */\n      dup8\n        /* \"#utility.yul\":13708:13727   */\n      add\n        /* \"#utility.yul\":13702:13728   */\n      mload\n        /* \"#utility.yul\":13693:13728   */\n      swap1\n      pop\n        /* \"#utility.yul\":13665:13742   */\n    tag_290:\n        /* \"#utility.yul\":13768:13835   */\n      tag_291\n        /* \"#utility.yul\":13828:13834   */\n      dup6\n        /* \"#utility.yul\":13821:13826   */\n      dup3\n        /* \"#utility.yul\":13768:13835   */\n      tag_145\n      jump\t// in\n    tag_291:\n        /* \"#utility.yul\":13762:13766   */\n      dup7\n        /* \"#utility.yul\":13755:13836   */\n      sstore\n        /* \"#utility.yul\":13624:13846   */\n      pop\n        /* \"#utility.yul\":12959:13846   */\n      jump(tag_288)\n        /* \"#utility.yul\":12989:13607   */\n    tag_289:\n        /* \"#utility.yul\":13041:13045   */\n      0x1f\n        /* \"#utility.yul\":13037:13046   */\n      not\n        /* \"#utility.yul\":13029:13035   */\n      dup5\n        /* \"#utility.yul\":13025:13047   */\n      and\n        /* \"#utility.yul\":13075:13112   */\n      tag_292\n        /* \"#utility.yul\":13107:13111   */\n      dup7\n        /* \"#utility.yul\":13075:13112   */\n      tag_131\n      jump\t// in\n    tag_292:\n        /* \"#utility.yul\":13134:13135   */\n      0x00\n        /* \"#utility.yul\":13148:13356   */\n    tag_293:\n        /* \"#utility.yul\":13162:13169   */\n      dup3\n        /* \"#utility.yul\":13159:13160   */\n      dup2\n        /* \"#utility.yul\":13156:13170   */\n      lt\n        /* \"#utility.yul\":13148:13356   */\n      iszero\n      tag_295\n      jumpi\n        /* \"#utility.yul\":13241:13250   */\n      dup5\n        /* \"#utility.yul\":13236:13239   */\n      dup10\n        /* \"#utility.yul\":13232:13251   */\n      add\n        /* \"#utility.yul\":13226:13252   */\n      mload\n        /* \"#utility.yul\":13218:13224   */\n      dup3\n        /* \"#utility.yul\":13211:13253   */\n      sstore\n        /* \"#utility.yul\":13292:13293   */\n      0x01\n        /* \"#utility.yul\":13284:13290   */\n      dup3\n        /* \"#utility.yul\":13280:13294   */\n      add\n        /* \"#utility.yul\":13270:13294   */\n      swap2\n      pop\n        /* \"#utility.yul\":13339:13341   */\n      0x20\n        /* \"#utility.yul\":13328:13337   */\n      dup6\n        /* \"#utility.yul\":13324:13342   */\n      add\n        /* \"#utility.yul\":13311:13342   */\n      swap5\n      pop\n        /* \"#utility.yul\":13185:13189   */\n      0x20\n        /* \"#utility.yul\":13182:13183   */\n      dup2\n        /* \"#utility.yul\":13178:13190   */\n      add\n        /* \"#utility.yul\":13173:13190   */\n      swap1\n      pop\n        /* \"#utility.yul\":13148:13356   */\n      jump(tag_293)\n    tag_295:\n        /* \"#utility.yul\":13384:13390   */\n      dup7\n        /* \"#utility.yul\":13375:13382   */\n      dup4\n        /* \"#utility.yul\":13372:13391   */\n      lt\n        /* \"#utility.yul\":13369:13548   */\n      iszero\n      tag_296\n      jumpi\n        /* \"#utility.yul\":13442:13451   */\n      dup5\n        /* \"#utility.yul\":13437:13440   */\n      dup10\n        /* \"#utility.yul\":13433:13452   */\n      add\n        /* \"#utility.yul\":13427:13453   */\n      mload\n        /* \"#utility.yul\":13485:13533   */\n      tag_297\n        /* \"#utility.yul\":13527:13531   */\n      0x1f\n        /* \"#utility.yul\":13519:13525   */\n      dup10\n        /* \"#utility.yul\":13515:13532   */\n      and\n        /* \"#utility.yul\":13504:13513   */\n      dup3\n        /* \"#utility.yul\":13485:13533   */\n      tag_144\n      jump\t// in\n    tag_297:\n        /* \"#utility.yul\":13477:13483   */\n      dup4\n        /* \"#utility.yul\":13470:13534   */\n      sstore\n        /* \"#utility.yul\":13392:13548   */\n      pop\n        /* \"#utility.yul\":13369:13548   */\n    tag_296:\n        /* \"#utility.yul\":13594:13595   */\n      0x01\n        /* \"#utility.yul\":13590:13591   */\n      0x02\n        /* \"#utility.yul\":13582:13588   */\n      dup9\n        /* \"#utility.yul\":13578:13592   */\n      mul\n        /* \"#utility.yul\":13574:13596   */\n      add\n        /* \"#utility.yul\":13568:13572   */\n      dup9\n        /* \"#utility.yul\":13561:13597   */\n      sstore\n        /* \"#utility.yul\":12996:13607   */\n      pop\n      pop\n      pop\n        /* \"#utility.yul\":12959:13846   */\n    tag_288:\n      pop\n        /* \"#utility.yul\":12549:13852   */\n      pop\n      pop\n      pop\n        /* \"#utility.yul\":12457:13852   */\n      pop\n      pop\n      jump\t// out\n        /* \"#utility.yul\":13858:14006   */\n    tag_146:\n        /* \"#utility.yul\":13956:13962   */\n      dup3\n        /* \"#utility.yul\":13951:13954   */\n      dup2\n        /* \"#utility.yul\":13946:13949   */\n      dup4\n        /* \"#utility.yul\":13933:13963   */\n      calldatacopy\n        /* \"#utility.yul\":13997:13998   */\n      0x00\n        /* \"#utility.yul\":13988:13994   */\n      dup4\n        /* \"#utility.yul\":13983:13986   */\n      dup4\n        /* \"#utility.yul\":13979:13995   */\n      add\n        /* \"#utility.yul\":13972:13999   */\n      mstore\n        /* \"#utility.yul\":13858:14006   */\n      pop\n      pop\n      pop\n      jump\t// out\n        /* \"#utility.yul\":14036:14353   */\n    tag_147:\n        /* \"#utility.yul\":14134:14137   */\n      0x00\n        /* \"#utility.yul\":14155:14226   */\n      tag_300\n        /* \"#utility.yul\":14219:14225   */\n      dup4\n        /* \"#utility.yul\":14214:14217   */\n      dup6\n        /* \"#utility.yul\":14155:14226   */\n      tag_114\n      jump\t// in\n    tag_300:\n        /* \"#utility.yul\":14148:14226   */\n      swap4\n      pop\n        /* \"#utility.yul\":14236:14292   */\n      tag_301\n        /* \"#utility.yul\":14285:14291   */\n      dup4\n        /* \"#utility.yul\":14280:14283   */\n      dup6\n        /* \"#utility.yul\":14273:14278   */\n      dup5\n        /* \"#utility.yul\":14236:14292   */\n      tag_146\n      jump\t// in\n    tag_301:\n        /* \"#utility.yul\":14317:14346   */\n      tag_302\n        /* \"#utility.yul\":14339:14345   */\n      dup4\n        /* \"#utility.yul\":14317:14346   */\n      tag_116\n      jump\t// in\n    tag_302:\n        /* \"#utility.yul\":14312:14315   */\n      dup5\n        /* \"#utility.yul\":14308:14347   */\n      add\n        /* \"#utility.yul\":14301:14347   */\n      swap1\n      pop\n        /* \"#utility.yul\":14036:14353   */\n      swap4\n      swap3\n      pop\n      pop\n      pop\n      jump\t// out\n        /* \"#utility.yul\":14359:14692   */\n    tag_44:\n        /* \"#utility.yul\":14482:14486   */\n      0x00\n        /* \"#utility.yul\":14520:14522   */\n      0x20\n        /* \"#utility.yul\":14509:14518   */\n      dup3\n        /* \"#utility.yul\":14505:14523   */\n      add\n        /* \"#utility.yul\":14497:14523   */\n      swap1\n      pop\n        /* \"#utility.yul\":14569:14578   */\n      dup2\n        /* \"#utility.yul\":14563:14567   */\n      dup2\n        /* \"#utility.yul\":14559:14579   */\n      sub\n        /* \"#utility.yul\":14555:14556   */\n      0x00\n        /* \"#utility.yul\":14544:14553   */\n      dup4\n        /* \"#utility.yul\":14540:14557   */\n      add\n        /* \"#utility.yul\":14533:14580   */\n      mstore\n        /* \"#utility.yul\":14597:14685   */\n      tag_304\n        /* \"#utility.yul\":14680:14684   */\n      dup2\n        /* \"#utility.yul\":14671:14677   */\n      dup5\n        /* \"#utility.yul\":14663:14669   */\n      dup7\n        /* \"#utility.yul\":14597:14685   */\n      tag_147\n      jump\t// in\n    tag_304:\n        /* \"#utility.yul\":14589:14685   */\n      swap1\n      pop\n        /* \"#utility.yul\":14359:14692   */\n      swap4\n      swap3\n      pop\n      pop\n      pop\n      jump\t// out\n        /* \"#utility.yul\":14698:14878   */\n    tag_148:\n        /* \"#utility.yul\":14746:14823   */\n      0x4e487b7100000000000000000000000000000000000000000000000000000000\n        /* \"#utility.yul\":14743:14744   */\n      0x00\n        /* \"#utility.yul\":14736:14824   */\n      mstore\n        /* \"#utility.yul\":14843:14847   */\n      0x11\n        /* \"#utility.yul\":14840:14841   */\n      0x04\n        /* \"#utility.yul\":14833:14848   */\n      mstore\n        /* \"#utility.yul\":14867:14871   */\n      0x24\n        /* \"#utility.yul\":14864:14865   */\n      0x00\n        /* \"#utility.yul\":14857:14872   */\n      revert\n        /* \"#utility.yul\":14884:15117   */\n    tag_46:\n        /* \"#utility.yul\":14923:14926   */\n      0x00\n        /* \"#utility.yul\":14946:14970   */\n      tag_307\n        /* \"#utility.yul\":14964:14969   */\n      dup3\n        /* \"#utility.yul\":14946:14970   */\n      tag_107\n      jump\t// in\n    tag_307:\n        /* \"#utility.yul\":14937:14970   */\n      swap2\n      pop\n        /* \"#utility.yul\":14992:15058   */\n      0xffffffffffffffffffffffffffffffffffffffffffffffffffffffffffffffff\n        /* \"#utility.yul\":14985:14990   */\n      dup3\n        /* \"#utility.yul\":14982:15059   */\n      sub\n        /* \"#utility.yul\":14979:15082   */\n      tag_308\n      jumpi\n        /* \"#utility.yul\":15062:15080   */\n      tag_309\n      tag_148\n      jump\t// in\n    tag_309:\n        /* \"#utility.yul\":14979:15082   */\n    tag_308:\n        /* \"#utility.yul\":15109:15110   */\n      0x01\n        /* \"#utility.yul\":15102:15107   */\n      dup3\n        /* \"#utility.yul\":15098:15111   */\n      add\n        /* \"#utility.yul\":15091:15111   */\n      swap1\n      pop\n        /* \"#utility.yul\":14884:15117   */\n      swap2\n      swap1\n      pop\n      jump\t// out\n        /* \"#utility.yul\":15123:15282   */\n    tag_149:\n        /* \"#utility.yul\":15263:15274   */\n      0x6e6f742065786973740000000000000000000000000000000000000000000000\n        /* \"#utility.yul\":15259:15260   */\n      0x00\n        /* \"#utility.yul\":15251:15257   */\n      dup3\n        /* \"#utility.yul\":15247:15261   */\n      add\n        /* \"#utility.yul\":15240:15275   */\n      mstore\n        /* \"#utility.yul\":15123:15282   */\n      pop\n      jump\t// out\n        /* \"#utility.yul\":15288:15653   */\n    tag_150:\n        /* \"#utility.yul\":15430:15433   */\n      0x00\n        /* \"#utility.yul\":15451:15517   */\n      tag_312\n        /* \"#utility.yul\":15515:15516   */\n      0x09\n        /* \"#utility.yul\":15510:15513   */\n      dup4\n        /* \"#utility.yul\":15451:15517   */\n      tag_114\n      jump\t// in\n    tag_312:\n        /* \"#utility.yul\":15444:15517   */\n      swap2\n      pop\n        /* \"#utility.yul\":15526:15619   */\n      tag_313\n        /* \"#utility.yul\":15615:15618   */\n      dup3\n        /* \"#utility.yul\":15526:15619   */\n      tag_149\n      jump\t// in\n    tag_313:\n        /* \"#utility.yul\":15644:15646   */\n      0x20\n        /* \"#utility.yul\":15639:15642   */\n      dup3\n        /* \"#utility.yul\":15635:15647   */\n      add\n        /* \"#utility.yul\":15628:15647   */\n      swap1\n      pop\n        /* \"#utility.yul\":15288:15653   */\n      swap2\n      swap1\n      pop\n      jump\t// out\n        /* \"#utility.yul\":15659:16078   */\n    tag_50:\n        /* \"#utility.yul\":15825:15829   */\n      0x00\n        /* \"#utility.yul\":15863:15865   */\n      0x20\n        /* \"#utility.yul\":15852:15861   */\n      dup3\n        /* \"#utility.yul\":15848:15866   */\n      add\n        /* \"#utility.yul\":15840:15866   */\n      swap1\n      pop\n        /* \"#utility.yul\":15912:15921   */\n      dup2\n        /* \"#utility.yul\":15906:15910   */\n      dup2\n        /* \"#utility.yul\":15902:15922   */\n      sub\n        /* \"#utility.yul\":15898:15899   */\n      0x00\n        /* \"#utility.yul\":15887:15896   */\n      dup4\n        /* \"#utility.yul\":15883:15900   */\n      add\n        /* \"#utility.yul\":15876:15923   */\n      mstore\n        /* \"#utility.yul\":15940:16071   */\n      tag_315\n        /* \"#utility.yul\":16066:16070   */\n      dup2\n        /* \"#utility.yul\":15940:16071   */\n      tag_150\n      jump\t// in\n    tag_315:\n        /* \"#utility.yul\":15932:16071   */\n      swap1\n      pop\n        /* \"#utility.yul\":15659:16078   */\n      swap2\n      swap1\n      pop\n      jump\t// out\n        /* \"#utility.yul\":16084:16264   */\n    tag_54:\n        /* \"#utility.yul\":16132:16209   */\n      0x4e487b7100000000000000000000000000000000000000000000000000000000\n        /* \"#utility.yul\":16129:16130   */\n      0x00\n        /* \"#utility.yul\":16122:16210   */\n      mstore\n        /* \"#utility.yul\":16229:16233   */\n      0x32\n        /* \"#utility.yul\":16226:16227   */\n      0x04\n        /* \"#utility.yul\":16219:16234   */\n      mstore\n        /* \"#utility.yul\":16253:16257   */\n      0x24\n        /* \"#utility.yul\":16250:16251   */\n      0x00\n        /* \"#utility.yul\":16243:16258   */\n      revert\n        /* \"#utility.yul\":16270:16464   */\n    tag_85:\n        /* \"#utility.yul\":16310:16314   */\n      0x00\n        /* \"#utility.yul\":16330:16350   */\n      tag_318\n        /* \"#utility.yul\":16348:16349   */\n      dup3\n        /* \"#utility.yul\":16330:16350   */\n      tag_107\n      jump\t// in\n    tag_318:\n        /* \"#utility.yul\":16325:16350   */\n      swap2\n      pop\n        /* \"#utility.yul\":16364:16384   */\n      tag_319\n        /* \"#utility.yul\":16382:16383   */\n      dup4\n        /* \"#utility.yul\":16364:16384   */\n      tag_107\n      jump\t// in\n    tag_319:\n        /* \"#utility.yul\":16359:16384   */\n      swap3\n      pop\n        /* \"#utility.yul\":16408:16409   */\n      dup3\n        /* \"#utility.yul\":16405:16406   */\n      dup3\n        /* \"#utility.yul\":16401:16410   */\n      sub\n        /* \"#utility.yul\":16393:16410   */\n      swap1\n      pop\n        /* \"#utility.yul\":16432:16433   */\n      dup2\n        /* \"#utility.yul\":16426:16430   */\n      dup2\n        /* \"#utility.yul\":16423:16434   */\n      gt\n        /* \"#utility.yul\":16420:16457   */\n      iszero\n      tag_320\n      jumpi\n        /* \"#utility.yul\":16437:16455   */\n      tag_321\n      tag_148\n      jump\t// in\n    tag_321:\n        /* \"#utility.yul\":16420:16457   */\n    tag_320:\n        /* \"#utility.yul\":16270:16464   */\n      swap3\n      swap2\n      pop\n      pop\n      jump\t// out\n\n    auxdata: 0xa26469706673582212200b06e002e0fa6ebc8641a3dd5ca63859ff68dfa0daba2be80473f85a9011bae064736f6c634300081a0033\n}\n",
				"bytecode": {
					"linkReferences": {},
					"object": "6080604052348015600e575f80fd5b50610e8b8061001c5f395ff3fe608060405234801561000f575f80fd5b5060043610610055575f3560e01c8063111002aa146100595780633a1b3d311461007557806358671730146100915780638d977672146100af578063ab85789e146100e1575b5f80fd5b610073600480360381019061006e919061063b565b6100ff565b005b61008f600480360381019061008a91906106dc565b61028d565b005b610099610320565b6040516100a69190610729565b60405180910390f35b6100c960048036038101906100c49190610742565b610326565b6040516100d893929190610850565b60405180910390f35b6100e96103ec565b6040516100f6919061093f565b60405180910390f35b600a60015410610144576040517f08c379a000000000000000000000000000000000000000000000000000000000815260040161013b906109a9565b60405180910390fd5b5f60015490505f604051806060016040528083815260200185858080601f0160208091040260200160405190810160405280939291908181526020018383808284375f81840152601f19601f8201169050808301925050505050505081526020015f60028111156101b8576101b76107dd565b5b815250908060018154018082558091505060019003905f5260205f2090600302015f909190919091505f820151815f015560208201518160010190816101fe9190610bee565b506040820151816002015f6101000a81548160ff02191690836002811115610229576102286107dd565b5b02179055505050807fdc8a9d0709c6ad2a14185c02b1ef388b73a1024f451590c5de574f514bb56db08484604051610262929190610cf7565b60405180910390a260015f81548092919061027c90610d46565b919050555080600181905550505050565b8160015481106102d2576040517f08c379a00000000000000000000000000000000000000000000000000000000081526004016102c990610dd7565b60405180910390fd5b815f84815481106102e6576102e5610df5565b5b905f5260205f2090600302016002015f6101000a81548160ff02191690836002811115610316576103156107dd565b5b0217905550505050565b60015481565b5f8181548110610334575f80fd5b905f5260205f2090600302015f91509050805f01549080600101805461035990610a21565b80601f016020809104026020016040519081016040528092919081815260200182805461038590610a21565b80156103d05780601f106103a7576101008083540402835291602001916103d0565b820191905f5260205f20905b8154815290600101906020018083116103b357829003601f168201915b505050505090806002015f9054906101000a900460ff16905083565b6103f46105a1565b5f808054905090505f5b8160051015610491575f600281111561041a576104196107dd565b5b5f828154811061042d5761042c610df5565b5b905f5260205f2090600302016002015f9054906101000a900460ff16600281111561045b5761045a6107dd565b5b0361047e575f818154811061047357610472610df5565b5b905f5260205f209050505b808061048990610d46565b9150506103fe565b505f6001826104a09190610e22565b815481106104b1576104b0610df5565b5b905f5260205f2090600302016040518060600160405290815f82015481526020016001820180546104e190610a21565b80601f016020809104026020016040519081016040528092919081815260200182805461050d90610a21565b80156105585780601f1061052f57610100808354040283529160200191610558565b820191905f5260205f20905b81548152906001019060200180831161053b57829003601f168201915b50505050508152602001600282015f9054906101000a900460ff166002811115610585576105846107dd565b5b6002811115610597576105966107dd565b5b8152505091505090565b60405180606001604052805f8152602001606081526020015f60028111156105cc576105cb6107dd565b5b81525090565b5f80fd5b5f80fd5b5f80fd5b5f80fd5b5f80fd5b5f8083601f8401126105fb576105fa6105da565b5b8235905067ffffffffffffffff811115610618576106176105de565b5b602083019150836001820283011115610634576106336105e2565b5b9250929050565b5f8060208385031215610651576106506105d2565b5b5f83013567ffffffffffffffff81111561066e5761066d6105d6565b5b61067a858286016105e6565b92509250509250929050565b5f819050919050565b61069881610686565b81146106a2575f80fd5b50565b5f813590506106b38161068f565b92915050565b600381106106c5575f80fd5b50565b5f813590506106d6816106b9565b92915050565b5f80604083850312156106f2576106f16105d2565b5b5f6106ff858286016106a5565b9250506020610710858286016106c8565b9150509250929050565b61072381610686565b82525050565b5f60208201905061073c5f83018461071a565b92915050565b5f60208284031215610757576107566105d2565b5b5f610764848285016106a5565b91505092915050565b5f81519050919050565b5f82825260208201905092915050565b8281835e5f83830152505050565b5f601f19601f8301169050919050565b5f6107af8261076d565b6107b98185610777565b93506107c9818560208601610787565b6107d281610795565b840191505092915050565b7f4e487b71000000000000000000000000000000000000000000000000000000005f52602160045260245ffd5b6003811061081b5761081a6107dd565b5b50565b5f81905061082b8261080a565b919050565b5f61083a8261081e565b9050919050565b61084a81610830565b82525050565b5f6060820190506108635f83018661071a565b818103602083015261087581856107a5565b90506108846040830184610841565b949350505050565b61089581610686565b82525050565b5f82825260208201905092915050565b5f6108b58261076d565b6108bf818561089b565b93506108cf818560208601610787565b6108d881610795565b840191505092915050565b6108ec81610830565b82525050565b5f606083015f8301516109075f86018261088c565b506020830151848203602086015261091f82826108ab565b915050604083015161093460408601826108e3565b508091505092915050565b5f6020820190508181035f83015261095781846108f2565b905092915050565b7f4d652070617365000000000000000000000000000000000000000000000000005f82015250565b5f610993600783610777565b915061099e8261095f565b602082019050919050565b5f6020820190508181035f8301526109c081610987565b9050919050565b7f4e487b71000000000000000000000000000000000000000000000000000000005f52604160045260245ffd5b7f4e487b71000000000000000000000000000000000000000000000000000000005f52602260045260245ffd5b5f6002820490506001821680610a3857607f821691505b602082108103610a4b57610a4a6109f4565b5b50919050565b5f819050815f5260205f209050919050565b5f6020601f8301049050919050565b5f82821b905092915050565b5f60088302610aad7fffffffffffffffffffffffffffffffffffffffffffffffffffffffffffffffff82610a72565b610ab78683610a72565b95508019841693508086168417925050509392505050565b5f819050919050565b5f610af2610aed610ae884610686565b610acf565b610686565b9050919050565b5f819050919050565b610b0b83610ad8565b610b1f610b1782610af9565b848454610a7e565b825550505050565b5f90565b610b33610b27565b610b3e818484610b02565b505050565b5b81811015610b6157610b565f82610b2b565b600181019050610b44565b5050565b601f821115610ba657610b7781610a51565b610b8084610a63565b81016020851015610b8f578190505b610ba3610b9b85610a63565b830182610b43565b50505b505050565b5f82821c905092915050565b5f610bc65f1984600802610bab565b1980831691505092915050565b5f610bde8383610bb7565b9150826002028217905092915050565b610bf78261076d565b67ffffffffffffffff811115610c1057610c0f6109c7565b5b610c1a8254610a21565b610c25828285610b65565b5f60209050601f831160018114610c56575f8415610c44578287015190505b610c4e8582610bd3565b865550610cb5565b601f198416610c6486610a51565b5f5b82811015610c8b57848901518255600182019150602085019450602081019050610c66565b86831015610ca85784890151610ca4601f891682610bb7565b8355505b6001600288020188555050505b505050505050565b828183375f83830152505050565b5f610cd68385610777565b9350610ce3838584610cbd565b610cec83610795565b840190509392505050565b5f6020820190508181035f830152610d10818486610ccb565b90509392505050565b7f4e487b71000000000000000000000000000000000000000000000000000000005f52601160045260245ffd5b5f610d5082610686565b91507fffffffffffffffffffffffffffffffffffffffffffffffffffffffffffffffff8203610d8257610d81610d19565b5b600182019050919050565b7f6e6f7420657869737400000000000000000000000000000000000000000000005f82015250565b5f610dc1600983610777565b9150610dcc82610d8d565b602082019050919050565b5f6020820190508181035f830152610dee81610db5565b9050919050565b7f4e487b71000000000000000000000000000000000000000000000000000000005f52603260045260245ffd5b5f610e2c82610686565b9150610e3783610686565b9250828203905081811115610e4f57610e4e610d19565b5b9291505056fea26469706673582212200b06e002e0fa6ebc8641a3dd5ca63859ff68dfa0daba2be80473f85a9011bae064736f6c634300081a0033",
					"opcodes": "PUSH1 0x80 PUSH1 0x40 MSTORE CALLVALUE DUP1 ISZERO PUSH1 0xE JUMPI PUSH0 DUP1 REVERT JUMPDEST POP PUSH2 0xE8B DUP1 PUSH2 0x1C PUSH0 CODECOPY PUSH0 RETURN INVALID PUSH1 0x80 PUSH1 0x40 MSTORE CALLVALUE DUP1 ISZERO PUSH2 0xF JUMPI PUSH0 DUP1 REVERT JUMPDEST POP PUSH1 0x4 CALLDATASIZE LT PUSH2 0x55 JUMPI PUSH0 CALLDATALOAD PUSH1 0xE0 SHR DUP1 PUSH4 0x111002AA EQ PUSH2 0x59 JUMPI DUP1 PUSH4 0x3A1B3D31 EQ PUSH2 0x75 JUMPI DUP1 PUSH4 0x58671730 EQ PUSH2 0x91 JUMPI DUP1 PUSH4 0x8D977672 EQ PUSH2 0xAF JUMPI DUP1 PUSH4 0xAB85789E EQ PUSH2 0xE1 JUMPI JUMPDEST PUSH0 DUP1 REVERT JUMPDEST PUSH2 0x73 PUSH1 0x4 DUP1 CALLDATASIZE SUB DUP2 ADD SWAP1 PUSH2 0x6E SWAP2 SWAP1 PUSH2 0x63B JUMP JUMPDEST PUSH2 0xFF JUMP JUMPDEST STOP JUMPDEST PUSH2 0x8F PUSH1 0x4 DUP1 CALLDATASIZE SUB DUP2 ADD SWAP1 PUSH2 0x8A SWAP2 SWAP1 PUSH2 0x6DC JUMP JUMPDEST PUSH2 0x28D JUMP JUMPDEST STOP JUMPDEST PUSH2 0x99 PUSH2 0x320 JUMP JUMPDEST PUSH1 0x40 MLOAD PUSH2 0xA6 SWAP2 SWAP1 PUSH2 0x729 JUMP JUMPDEST PUSH1 0x40 MLOAD DUP1 SWAP2 SUB SWAP1 RETURN JUMPDEST PUSH2 0xC9 PUSH1 0x4 DUP1 CALLDATASIZE SUB DUP2 ADD SWAP1 PUSH2 0xC4 SWAP2 SWAP1 PUSH2 0x742 JUMP JUMPDEST PUSH2 0x326 JUMP JUMPDEST PUSH1 0x40 MLOAD PUSH2 0xD8 SWAP4 SWAP3 SWAP2 SWAP1 PUSH2 0x850 JUMP JUMPDEST PUSH1 0x40 MLOAD DUP1 SWAP2 SUB SWAP1 RETURN JUMPDEST PUSH2 0xE9 PUSH2 0x3EC JUMP JUMPDEST PUSH1 0x40 MLOAD PUSH2 0xF6 SWAP2 SWAP1 PUSH2 0x93F JUMP JUMPDEST PUSH1 0x40 MLOAD DUP1 SWAP2 SUB SWAP1 RETURN JUMPDEST PUSH1 0xA PUSH1 0x1 SLOAD LT PUSH2 0x144 JUMPI PUSH1 0x40 MLOAD PUSH32 0x8C379A000000000000000000000000000000000000000000000000000000000 DUP2 MSTORE PUSH1 0x4 ADD PUSH2 0x13B SWAP1 PUSH2 0x9A9 JUMP JUMPDEST PUSH1 0x40 MLOAD DUP1 SWAP2 SUB SWAP1 REVERT JUMPDEST PUSH0 PUSH1 0x1 SLOAD SWAP1 POP PUSH0 PUSH1 0x40 MLOAD DUP1 PUSH1 0x60 ADD PUSH1 0x40 MSTORE DUP1 DUP4 DUP2 MSTORE PUSH1 0x20 ADD DUP6 DUP6 DUP1 DUP1 PUSH1 0x1F ADD PUSH1 0x20 DUP1 SWAP2 DIV MUL PUSH1 0x20 ADD PUSH1 0x40 MLOAD SWAP1 DUP2 ADD PUSH1 0x40 MSTORE DUP1 SWAP4 SWAP3 SWAP2 SWAP1 DUP2 DUP2 MSTORE PUSH1 0x20 ADD DUP4 DUP4 DUP1 DUP3 DUP5 CALLDATACOPY PUSH0 DUP2 DUP5 ADD MSTORE PUSH1 0x1F NOT PUSH1 0x1F DUP3 ADD AND SWAP1 POP DUP1 DUP4 ADD SWAP3 POP POP POP POP POP POP POP DUP2 MSTORE PUSH1 0x20 ADD PUSH0 PUSH1 0x2 DUP2 GT ISZERO PUSH2 0x1B8 JUMPI PUSH2 0x1B7 PUSH2 0x7DD JUMP JUMPDEST JUMPDEST DUP2 MSTORE POP SWAP1 DUP1 PUSH1 0x1 DUP2 SLOAD ADD DUP1 DUP3 SSTORE DUP1 SWAP2 POP POP PUSH1 0x1 SWAP1 SUB SWAP1 PUSH0 MSTORE PUSH1 0x20 PUSH0 KECCAK256 SWAP1 PUSH1 0x3 MUL ADD PUSH0 SWAP1 SWAP2 SWAP1 SWAP2 SWAP1 SWAP2 POP PUSH0 DUP3 ADD MLOAD DUP2 PUSH0 ADD SSTORE PUSH1 0x20 DUP3 ADD MLOAD DUP2 PUSH1 0x1 ADD SWAP1 DUP2 PUSH2 0x1FE SWAP2 SWAP1 PUSH2 0xBEE JUMP JUMPDEST POP PUSH1 0x40 DUP3 ADD MLOAD DUP2 PUSH1 0x2 ADD PUSH0 PUSH2 0x100 EXP DUP2 SLOAD DUP2 PUSH1 0xFF MUL NOT AND SWAP1 DUP4 PUSH1 0x2 DUP2 GT ISZERO PUSH2 0x229 JUMPI PUSH2 0x228 PUSH2 0x7DD JUMP JUMPDEST JUMPDEST MUL OR SWAP1 SSTORE POP POP POP DUP1 PUSH32 0xDC8A9D0709C6AD2A14185C02B1EF388B73A1024F451590C5DE574F514BB56DB0 DUP5 DUP5 PUSH1 0x40 MLOAD PUSH2 0x262 SWAP3 SWAP2 SWAP1 PUSH2 0xCF7 JUMP JUMPDEST PUSH1 0x40 MLOAD DUP1 SWAP2 SUB SWAP1 LOG2 PUSH1 0x1 PUSH0 DUP2 SLOAD DUP1 SWAP3 SWAP2 SWAP1 PUSH2 0x27C SWAP1 PUSH2 0xD46 JUMP JUMPDEST SWAP2 SWAP1 POP SSTORE POP DUP1 PUSH1 0x1 DUP2 SWAP1 SSTORE POP POP POP POP JUMP JUMPDEST DUP2 PUSH1 0x1 SLOAD DUP2 LT PUSH2 0x2D2 JUMPI PUSH1 0x40 MLOAD PUSH32 0x8C379A000000000000000000000000000000000000000000000000000000000 DUP2 MSTORE PUSH1 0x4 ADD PUSH2 0x2C9 SWAP1 PUSH2 0xDD7 JUMP JUMPDEST PUSH1 0x40 MLOAD DUP1 SWAP2 SUB SWAP1 REVERT JUMPDEST DUP2 PUSH0 DUP5 DUP2 SLOAD DUP2 LT PUSH2 0x2E6 JUMPI PUSH2 0x2E5 PUSH2 0xDF5 JUMP JUMPDEST JUMPDEST SWAP1 PUSH0 MSTORE PUSH1 0x20 PUSH0 KECCAK256 SWAP1 PUSH1 0x3 MUL ADD PUSH1 0x2 ADD PUSH0 PUSH2 0x100 EXP DUP2 SLOAD DUP2 PUSH1 0xFF MUL NOT AND SWAP1 DUP4 PUSH1 0x2 DUP2 GT ISZERO PUSH2 0x316 JUMPI PUSH2 0x315 PUSH2 0x7DD JUMP JUMPDEST JUMPDEST MUL OR SWAP1 SSTORE POP POP POP POP JUMP JUMPDEST PUSH1 0x1 SLOAD DUP2 JUMP JUMPDEST PUSH0 DUP2 DUP2 SLOAD DUP2 LT PUSH2 0x334 JUMPI PUSH0 DUP1 REVERT JUMPDEST SWAP1 PUSH0 MSTORE PUSH1 0x20 PUSH0 KECCAK256 SWAP1 PUSH1 0x3 MUL ADD PUSH0 SWAP2 POP SWAP1 POP DUP1 PUSH0 ADD SLOAD SWAP1 DUP1 PUSH1 0x1 ADD DUP1 SLOAD PUSH2 0x359 SWAP1 PUSH2 0xA21 JUMP JUMPDEST DUP1 PUSH1 0x1F ADD PUSH1 0x20 DUP1 SWAP2 DIV MUL PUSH1 0x20 ADD PUSH1 0x40 MLOAD SWAP1 DUP2 ADD PUSH1 0x40 MSTORE DUP1 SWAP3 SWAP2 SWAP1 DUP2 DUP2 MSTORE PUSH1 0x20 ADD DUP3 DUP1 SLOAD PUSH2 0x385 SWAP1 PUSH2 0xA21 JUMP JUMPDEST DUP1 ISZERO PUSH2 0x3D0 JUMPI DUP1 PUSH1 0x1F LT PUSH2 0x3A7 JUMPI PUSH2 0x100 DUP1 DUP4 SLOAD DIV MUL DUP4 MSTORE SWAP2 PUSH1 0x20 ADD SWAP2 PUSH2 0x3D0 JUMP JUMPDEST DUP3 ADD SWAP2 SWAP1 PUSH0 MSTORE PUSH1 0x20 PUSH0 KECCAK256 SWAP1 JUMPDEST DUP2 SLOAD DUP2 MSTORE SWAP1 PUSH1 0x1 ADD SWAP1 PUSH1 0x20 ADD DUP1 DUP4 GT PUSH2 0x3B3 JUMPI DUP3 SWAP1 SUB PUSH1 0x1F AND DUP3 ADD SWAP2 JUMPDEST POP POP POP POP POP SWAP1 DUP1 PUSH1 0x2 ADD PUSH0 SWAP1 SLOAD SWAP1 PUSH2 0x100 EXP SWAP1 DIV PUSH1 0xFF AND SWAP1 POP DUP4 JUMP JUMPDEST PUSH2 0x3F4 PUSH2 0x5A1 JUMP JUMPDEST PUSH0 DUP1 DUP1 SLOAD SWAP1 POP SWAP1 POP PUSH0 JUMPDEST DUP2 PUSH1 0x5 LT ISZERO PUSH2 0x491 JUMPI PUSH0 PUSH1 0x2 DUP2 GT ISZERO PUSH2 0x41A JUMPI PUSH2 0x419 PUSH2 0x7DD JUMP JUMPDEST JUMPDEST PUSH0 DUP3 DUP2 SLOAD DUP2 LT PUSH2 0x42D JUMPI PUSH2 0x42C PUSH2 0xDF5 JUMP JUMPDEST JUMPDEST SWAP1 PUSH0 MSTORE PUSH1 0x20 PUSH0 KECCAK256 SWAP1 PUSH1 0x3 MUL ADD PUSH1 0x2 ADD PUSH0 SWAP1 SLOAD SWAP1 PUSH2 0x100 EXP SWAP1 DIV PUSH1 0xFF AND PUSH1 0x2 DUP2 GT ISZERO PUSH2 0x45B JUMPI PUSH2 0x45A PUSH2 0x7DD JUMP JUMPDEST JUMPDEST SUB PUSH2 0x47E JUMPI PUSH0 DUP2 DUP2 SLOAD DUP2 LT PUSH2 0x473 JUMPI PUSH2 0x472 PUSH2 0xDF5 JUMP JUMPDEST JUMPDEST SWAP1 PUSH0 MSTORE PUSH1 0x20 PUSH0 KECCAK256 SWAP1 POP POP JUMPDEST DUP1 DUP1 PUSH2 0x489 SWAP1 PUSH2 0xD46 JUMP JUMPDEST SWAP2 POP POP PUSH2 0x3FE JUMP JUMPDEST POP PUSH0 PUSH1 0x1 DUP3 PUSH2 0x4A0 SWAP2 SWAP1 PUSH2 0xE22 JUMP JUMPDEST DUP2 SLOAD DUP2 LT PUSH2 0x4B1 JUMPI PUSH2 0x4B0 PUSH2 0xDF5 JUMP JUMPDEST JUMPDEST SWAP1 PUSH0 MSTORE PUSH1 0x20 PUSH0 KECCAK256 SWAP1 PUSH1 0x3 MUL ADD PUSH1 0x40 MLOAD DUP1 PUSH1 0x60 ADD PUSH1 0x40 MSTORE SWAP1 DUP2 PUSH0 DUP3 ADD SLOAD DUP2 MSTORE PUSH1 0x20 ADD PUSH1 0x1 DUP3 ADD DUP1 SLOAD PUSH2 0x4E1 SWAP1 PUSH2 0xA21 JUMP JUMPDEST DUP1 PUSH1 0x1F ADD PUSH1 0x20 DUP1 SWAP2 DIV MUL PUSH1 0x20 ADD PUSH1 0x40 MLOAD SWAP1 DUP2 ADD PUSH1 0x40 MSTORE DUP1 SWAP3 SWAP2 SWAP1 DUP2 DUP2 MSTORE PUSH1 0x20 ADD DUP3 DUP1 SLOAD PUSH2 0x50D SWAP1 PUSH2 0xA21 JUMP JUMPDEST DUP1 ISZERO PUSH2 0x558 JUMPI DUP1 PUSH1 0x1F LT PUSH2 0x52F JUMPI PUSH2 0x100 DUP1 DUP4 SLOAD DIV MUL DUP4 MSTORE SWAP2 PUSH1 0x20 ADD SWAP2 PUSH2 0x558 JUMP JUMPDEST DUP3 ADD SWAP2 SWAP1 PUSH0 MSTORE PUSH1 0x20 PUSH0 KECCAK256 SWAP1 JUMPDEST DUP2 SLOAD DUP2 MSTORE SWAP1 PUSH1 0x1 ADD SWAP1 PUSH1 0x20 ADD DUP1 DUP4 GT PUSH2 0x53B JUMPI DUP3 SWAP1 SUB PUSH1 0x1F AND DUP3 ADD SWAP2 JUMPDEST POP POP POP POP POP DUP2 MSTORE PUSH1 0x20 ADD PUSH1 0x2 DUP3 ADD PUSH0 SWAP1 SLOAD SWAP1 PUSH2 0x100 EXP SWAP1 DIV PUSH1 0xFF AND PUSH1 0x2 DUP2 GT ISZERO PUSH2 0x585 JUMPI PUSH2 0x584 PUSH2 0x7DD JUMP JUMPDEST JUMPDEST PUSH1 0x2 DUP2 GT ISZERO PUSH2 0x597 JUMPI PUSH2 0x596 PUSH2 0x7DD JUMP JUMPDEST JUMPDEST DUP2 MSTORE POP POP SWAP2 POP POP SWAP1 JUMP JUMPDEST PUSH1 0x40 MLOAD DUP1 PUSH1 0x60 ADD PUSH1 0x40 MSTORE DUP1 PUSH0 DUP2 MSTORE PUSH1 0x20 ADD PUSH1 0x60 DUP2 MSTORE PUSH1 0x20 ADD PUSH0 PUSH1 0x2 DUP2 GT ISZERO PUSH2 0x5CC JUMPI PUSH2 0x5CB PUSH2 0x7DD JUMP JUMPDEST JUMPDEST DUP2 MSTORE POP SWAP1 JUMP JUMPDEST PUSH0 DUP1 REVERT JUMPDEST PUSH0 DUP1 REVERT JUMPDEST PUSH0 DUP1 REVERT JUMPDEST PUSH0 DUP1 REVERT JUMPDEST PUSH0 DUP1 REVERT JUMPDEST PUSH0 DUP1 DUP4 PUSH1 0x1F DUP5 ADD SLT PUSH2 0x5FB JUMPI PUSH2 0x5FA PUSH2 0x5DA JUMP JUMPDEST JUMPDEST DUP3 CALLDATALOAD SWAP1 POP PUSH8 0xFFFFFFFFFFFFFFFF DUP2 GT ISZERO PUSH2 0x618 JUMPI PUSH2 0x617 PUSH2 0x5DE JUMP JUMPDEST JUMPDEST PUSH1 0x20 DUP4 ADD SWAP2 POP DUP4 PUSH1 0x1 DUP3 MUL DUP4 ADD GT ISZERO PUSH2 0x634 JUMPI PUSH2 0x633 PUSH2 0x5E2 JUMP JUMPDEST JUMPDEST SWAP3 POP SWAP3 SWAP1 POP JUMP JUMPDEST PUSH0 DUP1 PUSH1 0x20 DUP4 DUP6 SUB SLT ISZERO PUSH2 0x651 JUMPI PUSH2 0x650 PUSH2 0x5D2 JUMP JUMPDEST JUMPDEST PUSH0 DUP4 ADD CALLDATALOAD PUSH8 0xFFFFFFFFFFFFFFFF DUP2 GT ISZERO PUSH2 0x66E JUMPI PUSH2 0x66D PUSH2 0x5D6 JUMP JUMPDEST JUMPDEST PUSH2 0x67A DUP6 DUP3 DUP7 ADD PUSH2 0x5E6 JUMP JUMPDEST SWAP3 POP SWAP3 POP POP SWAP3 POP SWAP3 SWAP1 POP JUMP JUMPDEST PUSH0 DUP2 SWAP1 POP SWAP2 SWAP1 POP JUMP JUMPDEST PUSH2 0x698 DUP2 PUSH2 0x686 JUMP JUMPDEST DUP2 EQ PUSH2 0x6A2 JUMPI PUSH0 DUP1 REVERT JUMPDEST POP JUMP JUMPDEST PUSH0 DUP2 CALLDATALOAD SWAP1 POP PUSH2 0x6B3 DUP2 PUSH2 0x68F JUMP JUMPDEST SWAP3 SWAP2 POP POP JUMP JUMPDEST PUSH1 0x3 DUP2 LT PUSH2 0x6C5 JUMPI PUSH0 DUP1 REVERT JUMPDEST POP JUMP JUMPDEST PUSH0 DUP2 CALLDATALOAD SWAP1 POP PUSH2 0x6D6 DUP2 PUSH2 0x6B9 JUMP JUMPDEST SWAP3 SWAP2 POP POP JUMP JUMPDEST PUSH0 DUP1 PUSH1 0x40 DUP4 DUP6 SUB SLT ISZERO PUSH2 0x6F2 JUMPI PUSH2 0x6F1 PUSH2 0x5D2 JUMP JUMPDEST JUMPDEST PUSH0 PUSH2 0x6FF DUP6 DUP3 DUP7 ADD PUSH2 0x6A5 JUMP JUMPDEST SWAP3 POP POP PUSH1 0x20 PUSH2 0x710 DUP6 DUP3 DUP7 ADD PUSH2 0x6C8 JUMP JUMPDEST SWAP2 POP POP SWAP3 POP SWAP3 SWAP1 POP JUMP JUMPDEST PUSH2 0x723 DUP2 PUSH2 0x686 JUMP JUMPDEST DUP3 MSTORE POP POP JUMP JUMPDEST PUSH0 PUSH1 0x20 DUP3 ADD SWAP1 POP PUSH2 0x73C PUSH0 DUP4 ADD DUP5 PUSH2 0x71A JUMP JUMPDEST SWAP3 SWAP2 POP POP JUMP JUMPDEST PUSH0 PUSH1 0x20 DUP3 DUP5 SUB SLT ISZERO PUSH2 0x757 JUMPI PUSH2 0x756 PUSH2 0x5D2 JUMP JUMPDEST JUMPDEST PUSH0 PUSH2 0x764 DUP5 DUP3 DUP6 ADD PUSH2 0x6A5 JUMP JUMPDEST SWAP2 POP POP SWAP3 SWAP2 POP POP JUMP JUMPDEST PUSH0 DUP2 MLOAD SWAP1 POP SWAP2 SWAP1 POP JUMP JUMPDEST PUSH0 DUP3 DUP3 MSTORE PUSH1 0x20 DUP3 ADD SWAP1 POP SWAP3 SWAP2 POP POP JUMP JUMPDEST DUP3 DUP2 DUP4 MCOPY PUSH0 DUP4 DUP4 ADD MSTORE POP POP POP JUMP JUMPDEST PUSH0 PUSH1 0x1F NOT PUSH1 0x1F DUP4 ADD AND SWAP1 POP SWAP2 SWAP1 POP JUMP JUMPDEST PUSH0 PUSH2 0x7AF DUP3 PUSH2 0x76D JUMP JUMPDEST PUSH2 0x7B9 DUP2 DUP6 PUSH2 0x777 JUMP JUMPDEST SWAP4 POP PUSH2 0x7C9 DUP2 DUP6 PUSH1 0x20 DUP7 ADD PUSH2 0x787 JUMP JUMPDEST PUSH2 0x7D2 DUP2 PUSH2 0x795 JUMP JUMPDEST DUP5 ADD SWAP2 POP POP SWAP3 SWAP2 POP POP JUMP JUMPDEST PUSH32 0x4E487B7100000000000000000000000000000000000000000000000000000000 PUSH0 MSTORE PUSH1 0x21 PUSH1 0x4 MSTORE PUSH1 0x24 PUSH0 REVERT JUMPDEST PUSH1 0x3 DUP2 LT PUSH2 0x81B JUMPI PUSH2 0x81A PUSH2 0x7DD JUMP JUMPDEST JUMPDEST POP JUMP JUMPDEST PUSH0 DUP2 SWAP1 POP PUSH2 0x82B DUP3 PUSH2 0x80A JUMP JUMPDEST SWAP2 SWAP1 POP JUMP JUMPDEST PUSH0 PUSH2 0x83A DUP3 PUSH2 0x81E JUMP JUMPDEST SWAP1 POP SWAP2 SWAP1 POP JUMP JUMPDEST PUSH2 0x84A DUP2 PUSH2 0x830 JUMP JUMPDEST DUP3 MSTORE POP POP JUMP JUMPDEST PUSH0 PUSH1 0x60 DUP3 ADD SWAP1 POP PUSH2 0x863 PUSH0 DUP4 ADD DUP7 PUSH2 0x71A JUMP JUMPDEST DUP2 DUP2 SUB PUSH1 0x20 DUP4 ADD MSTORE PUSH2 0x875 DUP2 DUP6 PUSH2 0x7A5 JUMP JUMPDEST SWAP1 POP PUSH2 0x884 PUSH1 0x40 DUP4 ADD DUP5 PUSH2 0x841 JUMP JUMPDEST SWAP5 SWAP4 POP POP POP POP JUMP JUMPDEST PUSH2 0x895 DUP2 PUSH2 0x686 JUMP JUMPDEST DUP3 MSTORE POP POP JUMP JUMPDEST PUSH0 DUP3 DUP3 MSTORE PUSH1 0x20 DUP3 ADD SWAP1 POP SWAP3 SWAP2 POP POP JUMP JUMPDEST PUSH0 PUSH2 0x8B5 DUP3 PUSH2 0x76D JUMP JUMPDEST PUSH2 0x8BF DUP2 DUP6 PUSH2 0x89B JUMP JUMPDEST SWAP4 POP PUSH2 0x8CF DUP2 DUP6 PUSH1 0x20 DUP7 ADD PUSH2 0x787 JUMP JUMPDEST PUSH2 0x8D8 DUP2 PUSH2 0x795 JUMP JUMPDEST DUP5 ADD SWAP2 POP POP SWAP3 SWAP2 POP POP JUMP JUMPDEST PUSH2 0x8EC DUP2 PUSH2 0x830 JUMP JUMPDEST DUP3 MSTORE POP POP JUMP JUMPDEST PUSH0 PUSH1 0x60 DUP4 ADD PUSH0 DUP4 ADD MLOAD PUSH2 0x907 PUSH0 DUP7 ADD DUP3 PUSH2 0x88C JUMP JUMPDEST POP PUSH1 0x20 DUP4 ADD MLOAD DUP5 DUP3 SUB PUSH1 0x20 DUP7 ADD MSTORE PUSH2 0x91F DUP3 DUP3 PUSH2 0x8AB JUMP JUMPDEST SWAP2 POP POP PUSH1 0x40 DUP4 ADD MLOAD PUSH2 0x934 PUSH1 0x40 DUP7 ADD DUP3 PUSH2 0x8E3 JUMP JUMPDEST POP DUP1 SWAP2 POP POP SWAP3 SWAP2 POP POP JUMP JUMPDEST PUSH0 PUSH1 0x20 DUP3 ADD SWAP1 POP DUP2 DUP2 SUB PUSH0 DUP4 ADD MSTORE PUSH2 0x957 DUP2 DUP5 PUSH2 0x8F2 JUMP JUMPDEST SWAP1 POP SWAP3 SWAP2 POP POP JUMP JUMPDEST PUSH32 0x4D65207061736500000000000000000000000000000000000000000000000000 PUSH0 DUP3 ADD MSTORE POP JUMP JUMPDEST PUSH0 PUSH2 0x993 PUSH1 0x7 DUP4 PUSH2 0x777 JUMP JUMPDEST SWAP2 POP PUSH2 0x99E DUP3 PUSH2 0x95F JUMP JUMPDEST PUSH1 0x20 DUP3 ADD SWAP1 POP SWAP2 SWAP1 POP JUMP JUMPDEST PUSH0 PUSH1 0x20 DUP3 ADD SWAP1 POP DUP2 DUP2 SUB PUSH0 DUP4 ADD MSTORE PUSH2 0x9C0 DUP2 PUSH2 0x987 JUMP JUMPDEST SWAP1 POP SWAP2 SWAP1 POP JUMP JUMPDEST PUSH32 0x4E487B7100000000000000000000000000000000000000000000000000000000 PUSH0 MSTORE PUSH1 0x41 PUSH1 0x4 MSTORE PUSH1 0x24 PUSH0 REVERT JUMPDEST PUSH32 0x4E487B7100000000000000000000000000000000000000000000000000000000 PUSH0 MSTORE PUSH1 0x22 PUSH1 0x4 MSTORE PUSH1 0x24 PUSH0 REVERT JUMPDEST PUSH0 PUSH1 0x2 DUP3 DIV SWAP1 POP PUSH1 0x1 DUP3 AND DUP1 PUSH2 0xA38 JUMPI PUSH1 0x7F DUP3 AND SWAP2 POP JUMPDEST PUSH1 0x20 DUP3 LT DUP2 SUB PUSH2 0xA4B JUMPI PUSH2 0xA4A PUSH2 0x9F4 JUMP JUMPDEST JUMPDEST POP SWAP2 SWAP1 POP JUMP JUMPDEST PUSH0 DUP2 SWAP1 POP DUP2 PUSH0 MSTORE PUSH1 0x20 PUSH0 KECCAK256 SWAP1 POP SWAP2 SWAP1 POP JUMP JUMPDEST PUSH0 PUSH1 0x20 PUSH1 0x1F DUP4 ADD DIV SWAP1 POP SWAP2 SWAP1 POP JUMP JUMPDEST PUSH0 DUP3 DUP3 SHL SWAP1 POP SWAP3 SWAP2 POP POP JUMP JUMPDEST PUSH0 PUSH1 0x8 DUP4 MUL PUSH2 0xAAD PUSH32 0xFFFFFFFFFFFFFFFFFFFFFFFFFFFFFFFFFFFFFFFFFFFFFFFFFFFFFFFFFFFFFFFF DUP3 PUSH2 0xA72 JUMP JUMPDEST PUSH2 0xAB7 DUP7 DUP4 PUSH2 0xA72 JUMP JUMPDEST SWAP6 POP DUP1 NOT DUP5 AND SWAP4 POP DUP1 DUP7 AND DUP5 OR SWAP3 POP POP POP SWAP4 SWAP3 POP POP POP JUMP JUMPDEST PUSH0 DUP2 SWAP1 POP SWAP2 SWAP1 POP JUMP JUMPDEST PUSH0 PUSH2 0xAF2 PUSH2 0xAED PUSH2 0xAE8 DUP5 PUSH2 0x686 JUMP JUMPDEST PUSH2 0xACF JUMP JUMPDEST PUSH2 0x686 JUMP JUMPDEST SWAP1 POP SWAP2 SWAP1 POP JUMP JUMPDEST PUSH0 DUP2 SWAP1 POP SWAP2 SWAP1 POP JUMP JUMPDEST PUSH2 0xB0B DUP4 PUSH2 0xAD8 JUMP JUMPDEST PUSH2 0xB1F PUSH2 0xB17 DUP3 PUSH2 0xAF9 JUMP JUMPDEST DUP5 DUP5 SLOAD PUSH2 0xA7E JUMP JUMPDEST DUP3 SSTORE POP POP POP POP JUMP JUMPDEST PUSH0 SWAP1 JUMP JUMPDEST PUSH2 0xB33 PUSH2 0xB27 JUMP JUMPDEST PUSH2 0xB3E DUP2 DUP5 DUP5 PUSH2 0xB02 JUMP JUMPDEST POP POP POP JUMP JUMPDEST JUMPDEST DUP2 DUP2 LT ISZERO PUSH2 0xB61 JUMPI PUSH2 0xB56 PUSH0 DUP3 PUSH2 0xB2B JUMP JUMPDEST PUSH1 0x1 DUP2 ADD SWAP1 POP PUSH2 0xB44 JUMP JUMPDEST POP POP JUMP JUMPDEST PUSH1 0x1F DUP3 GT ISZERO PUSH2 0xBA6 JUMPI PUSH2 0xB77 DUP2 PUSH2 0xA51 JUMP JUMPDEST PUSH2 0xB80 DUP5 PUSH2 0xA63 JUMP JUMPDEST DUP2 ADD PUSH1 0x20 DUP6 LT ISZERO PUSH2 0xB8F JUMPI DUP2 SWAP1 POP JUMPDEST PUSH2 0xBA3 PUSH2 0xB9B DUP6 PUSH2 0xA63 JUMP JUMPDEST DUP4 ADD DUP3 PUSH2 0xB43 JUMP JUMPDEST POP POP JUMPDEST POP POP POP JUMP JUMPDEST PUSH0 DUP3 DUP3 SHR SWAP1 POP SWAP3 SWAP2 POP POP JUMP JUMPDEST PUSH0 PUSH2 0xBC6 PUSH0 NOT DUP5 PUSH1 0x8 MUL PUSH2 0xBAB JUMP JUMPDEST NOT DUP1 DUP4 AND SWAP2 POP POP SWAP3 SWAP2 POP POP JUMP JUMPDEST PUSH0 PUSH2 0xBDE DUP4 DUP4 PUSH2 0xBB7 JUMP JUMPDEST SWAP2 POP DUP3 PUSH1 0x2 MUL DUP3 OR SWAP1 POP SWAP3 SWAP2 POP POP JUMP JUMPDEST PUSH2 0xBF7 DUP3 PUSH2 0x76D JUMP JUMPDEST PUSH8 0xFFFFFFFFFFFFFFFF DUP2 GT ISZERO PUSH2 0xC10 JUMPI PUSH2 0xC0F PUSH2 0x9C7 JUMP JUMPDEST JUMPDEST PUSH2 0xC1A DUP3 SLOAD PUSH2 0xA21 JUMP JUMPDEST PUSH2 0xC25 DUP3 DUP3 DUP6 PUSH2 0xB65 JUMP JUMPDEST PUSH0 PUSH1 0x20 SWAP1 POP PUSH1 0x1F DUP4 GT PUSH1 0x1 DUP2 EQ PUSH2 0xC56 JUMPI PUSH0 DUP5 ISZERO PUSH2 0xC44 JUMPI DUP3 DUP8 ADD MLOAD SWAP1 POP JUMPDEST PUSH2 0xC4E DUP6 DUP3 PUSH2 0xBD3 JUMP JUMPDEST DUP7 SSTORE POP PUSH2 0xCB5 JUMP JUMPDEST PUSH1 0x1F NOT DUP5 AND PUSH2 0xC64 DUP7 PUSH2 0xA51 JUMP JUMPDEST PUSH0 JUMPDEST DUP3 DUP2 LT ISZERO PUSH2 0xC8B JUMPI DUP5 DUP10 ADD MLOAD DUP3 SSTORE PUSH1 0x1 DUP3 ADD SWAP2 POP PUSH1 0x20 DUP6 ADD SWAP5 POP PUSH1 0x20 DUP2 ADD SWAP1 POP PUSH2 0xC66 JUMP JUMPDEST DUP7 DUP4 LT ISZERO PUSH2 0xCA8 JUMPI DUP5 DUP10 ADD MLOAD PUSH2 0xCA4 PUSH1 0x1F DUP10 AND DUP3 PUSH2 0xBB7 JUMP JUMPDEST DUP4 SSTORE POP JUMPDEST PUSH1 0x1 PUSH1 0x2 DUP9 MUL ADD DUP9 SSTORE POP POP POP JUMPDEST POP POP POP POP POP POP JUMP JUMPDEST DUP3 DUP2 DUP4 CALLDATACOPY PUSH0 DUP4 DUP4 ADD MSTORE POP POP POP JUMP JUMPDEST PUSH0 PUSH2 0xCD6 DUP4 DUP6 PUSH2 0x777 JUMP JUMPDEST SWAP4 POP PUSH2 0xCE3 DUP4 DUP6 DUP5 PUSH2 0xCBD JUMP JUMPDEST PUSH2 0xCEC DUP4 PUSH2 0x795 JUMP JUMPDEST DUP5 ADD SWAP1 POP SWAP4 SWAP3 POP POP POP JUMP JUMPDEST PUSH0 PUSH1 0x20 DUP3 ADD SWAP1 POP DUP2 DUP2 SUB PUSH0 DUP4 ADD MSTORE PUSH2 0xD10 DUP2 DUP5 DUP7 PUSH2 0xCCB JUMP JUMPDEST SWAP1 POP SWAP4 SWAP3 POP POP POP JUMP JUMPDEST PUSH32 0x4E487B7100000000000000000000000000000000000000000000000000000000 PUSH0 MSTORE PUSH1 0x11 PUSH1 0x4 MSTORE PUSH1 0x24 PUSH0 REVERT JUMPDEST PUSH0 PUSH2 0xD50 DUP3 PUSH2 0x686 JUMP JUMPDEST SWAP2 POP PUSH32 0xFFFFFFFFFFFFFFFFFFFFFFFFFFFFFFFFFFFFFFFFFFFFFFFFFFFFFFFFFFFFFFFF DUP3 SUB PUSH2 0xD82 JUMPI PUSH2 0xD81 PUSH2 0xD19 JUMP JUMPDEST JUMPDEST PUSH1 0x1 DUP3 ADD SWAP1 POP SWAP2 SWAP1 POP JUMP JUMPDEST PUSH32 0x6E6F742065786973740000000000000000000000000000000000000000000000 PUSH0 DUP3 ADD MSTORE POP JUMP JUMPDEST PUSH0 PUSH2 0xDC1 PUSH1 0x9 DUP4 PUSH2 0x777 JUMP JUMPDEST SWAP2 POP PUSH2 0xDCC DUP3 PUSH2 0xD8D JUMP JUMPDEST PUSH1 0x20 DUP3 ADD SWAP1 POP SWAP2 SWAP1 POP JUMP JUMPDEST PUSH0 PUSH1 0x20 DUP3 ADD SWAP1 POP DUP2 DUP2 SUB PUSH0 DUP4 ADD MSTORE PUSH2 0xDEE DUP2 PUSH2 0xDB5 JUMP JUMPDEST SWAP1 POP SWAP2 SWAP1 POP JUMP JUMPDEST PUSH32 0x4E487B7100000000000000000000000000000000000000000000000000000000 PUSH0 MSTORE PUSH1 0x32 PUSH1 0x4 MSTORE PUSH1 0x24 PUSH0 REVERT JUMPDEST PUSH0 PUSH2 0xE2C DUP3 PUSH2 0x686 JUMP JUMPDEST SWAP2 POP PUSH2 0xE37 DUP4 PUSH2 0x686 JUMP JUMPDEST SWAP3 POP DUP3 DUP3 SUB SWAP1 POP DUP2 DUP2 GT ISZERO PUSH2 0xE4F JUMPI PUSH2 0xE4E PUSH2 0xD19 JUMP JUMPDEST JUMPDEST SWAP3 SWAP2 POP POP JUMP INVALID LOG2 PUSH5 0x6970667358 0x22 SLT KECCAK256 SIGNEXTEND MOD 0xE0 MUL 0xE0 STATICCALL PUSH15 0xBC8641A3DD5CA63859FF68DFA0DABA 0x2B 0xE8 DIV PUSH20 0xF85A9011BAE064736F6C634300081A0033000000 "
				},
				"gasEstimates": {
					"creation": {
						"codeDepositCost": "744600",
						"executionCost": "777",
						"totalCost": "745377"
					},
					"external": {
						"createTask(string)": "infinite",
						"readFirstPending()": "infinite",
						"taskCounter()": "2447",
						"tasks(uint256)": "infinite",
						"updateStatus(uint256,uint8)": "29138"
					}
				},
				"methodIdentifiers": {
					"createTask(string)": "111002aa",
					"readFirstPending()": "ab85789e",
					"taskCounter()": "58671730",
					"tasks(uint256)": "8d977672",
					"updateStatus(uint256,uint8)": "3a1b3d31"
				}
			},
			"storageLayout": {
				"storage": [
					{
						"astId": 17,
						"contract": "TaskManager.sol:TaskManager",
						"label": "tasks",
						"offset": 0,
						"slot": "0",
						"type": "t_array(t_struct(Task)13_storage)dyn_storage"
					},
					{
						"astId": 19,
						"contract": "TaskManager.sol:TaskManager",
						"label": "taskCounter",
						"offset": 0,
						"slot": "1",
						"type": "t_uint256"
					}
				],
				"types": {
					"t_array(t_struct(Task)13_storage)dyn_storage": {
						"base": "t_struct(Task)13_storage",
						"encoding": "dynamic_array",
						"label": "struct TaskManager.Task[]",
						"numberOfBytes": "32"
					},
					"t_enum(TaskStatus)5": {
						"encoding": "inplace",
						"label": "enum TaskManager.TaskStatus",
						"numberOfBytes": "1"
					},
					"t_string_storage": {
						"encoding": "bytes",
						"label": "string",
						"numberOfBytes": "32"
					},
					"t_struct(Task)13_storage": {
						"encoding": "inplace",
						"label": "struct TaskManager.Task",
						"members": [
							{
								"astId": 7,
								"contract": "TaskManager.sol:TaskManager",
								"label": "id",
								"offset": 0,
								"slot": "0",
								"type": "t_uint256"
							},
							{
								"astId": 9,
								"contract": "TaskManager.sol:TaskManager",
								"label": "title",
								"offset": 0,
								"slot": "1",
								"type": "t_string_storage"
							},
							{
								"astId": 12,
								"contract": "TaskManager.sol:TaskManager",
								"label": "status",
								"offset": 0,
								"slot": "2",
								"type": "t_enum(TaskStatus)5"
							}
						],
						"numberOfBytes": "96"
					},
					"t_uint256": {
						"encoding": "inplace",
						"label": "uint256",
						"numberOfBytes": "32"
					}
				}
			},
			"userdoc": {
				"kind": "user",
				"methods": {},
				"version": 1
			}
		}
	}
}