{
	"Subasta.sol": {
		"Subasta": {
			"abi": [
				{
					"inputs": [],
					"stateMutability": "nonpayable",
					"type": "constructor"
				},
				{
					"inputs": [],
					"name": "FinalizarSubasta",
					"outputs": [],
					"stateMutability": "nonpayable",
					"type": "function"
				},
				{
					"inputs": [],
					"name": "fechaInicio",
					"outputs": [
						{
							"internalType": "uint256",
							"name": "",
							"type": "uint256"
						}
					],
					"stateMutability": "view",
					"type": "function"
				},
				{
					"inputs": [],
					"name": "getMayorOferta",
					"outputs": [
						{
							"internalType": "uint256",
							"name": "",
							"type": "uint256"
						}
					],
					"stateMutability": "view",
					"type": "function"
				},
				{
					"inputs": [],
					"name": "getOferenteGanador",
					"outputs": [
						{
							"internalType": "address",
							"name": "",
							"type": "address"
						}
					],
					"stateMutability": "view",
					"type": "function"
				},
				{
					"inputs": [],
					"name": "owner",
					"outputs": [
						{
							"internalType": "address",
							"name": "",
							"type": "address"
						}
					],
					"stateMutability": "view",
					"type": "function"
				},
				{
					"inputs": [],
					"name": "semaforo",
					"outputs": [
						{
							"internalType": "uint8",
							"name": "",
							"type": "uint8"
						}
					],
					"stateMutability": "view",
					"type": "function"
				},
				{
					"inputs": [],
					"name": "setOferta",
					"outputs": [],
					"stateMutability": "payable",
					"type": "function"
				},
				{
					"inputs": [],
					"name": "tiempoDuracion",
					"outputs": [
						{
							"internalType": "uint256",
							"name": "",
							"type": "uint256"
						}
					],
					"stateMutability": "view",
					"type": "function"
				},
				{
					"inputs": [],
					"name": "valorInicial",
					"outputs": [
						{
							"internalType": "uint256",
							"name": "",
							"type": "uint256"
						}
					],
					"stateMutability": "view",
					"type": "function"
				},
				{
					"inputs": [
						{
							"internalType": "address",
							"name": "",
							"type": "address"
						}
					],
					"name": "valorMetido",
					"outputs": [
						{
							"internalType": "uint256",
							"name": "",
							"type": "uint256"
						}
					],
					"stateMutability": "view",
					"type": "function"
				}
			],
			"devdoc": {
				"kind": "dev",
				"methods": {},
				"version": 1
			},
			"evm": {
				"assembly": "    /* \"Subasta.sol\":60:1628  contract Subasta {... */\n  mstore(0x40, 0x80)\n    /* \"Subasta.sol\":461:632  constructor() {... */\n  callvalue\n  dup1\n  iszero\n  tag_1\n  jumpi\n  0x00\n  dup1\n  revert\ntag_1:\n  pop\n    /* \"Subasta.sol\":494:504  msg.sender */\n  caller\n    /* \"Subasta.sol\":486:491  owner */\n  0x05\n  0x00\n    /* \"Subasta.sol\":486:504  owner = msg.sender */\n  0x0100\n  exp\n  dup2\n  sload\n  dup2\n  0xffffffffffffffffffffffffffffffffffffffff\n  mul\n  not\n  and\n  swap1\n  dup4\n  0xffffffffffffffffffffffffffffffffffffffff\n  and\n  mul\n  or\n  swap1\n  sstore\n  pop\n    /* \"Subasta.sol\":530:536  1 gwei */\n  0x3b9aca00\n    /* \"Subasta.sol\":515:527  valorInicial */\n  0x00\n    /* \"Subasta.sol\":515:536  valorInicial = 1 gwei */\n  dup2\n  swap1\n  sstore\n  pop\n    /* \"Subasta.sol\":561:576  block.timestamp */\n  timestamp\n    /* \"Subasta.sol\":547:558  fechaInicio */\n  0x01\n    /* \"Subasta.sol\":547:576  fechaInicio = block.timestamp */\n  dup2\n  swap1\n  sstore\n  pop\n    /* \"Subasta.sol\":618:624  7 days */\n  0x093a80\n    /* \"Subasta.sol\":604:615  fechaInicio */\n  sload(0x01)\n    /* \"Subasta.sol\":604:624  fechaInicio + 7 days */\n  tag_4\n  swap2\n  swap1\n  tag_5\n  jump\t// in\ntag_4:\n    /* \"Subasta.sol\":587:601  tiempoDuracion */\n  0x02\n    /* \"Subasta.sol\":587:624  tiempoDuracion = fechaInicio + 7 days */\n  dup2\n  swap1\n  sstore\n  pop\n    /* \"Subasta.sol\":60:1628  contract Subasta {... */\n  jump(tag_6)\n    /* \"#utility.yul\":7:84   */\ntag_7:\n    /* \"#utility.yul\":44:51   */\n  0x00\n    /* \"#utility.yul\":73:78   */\n  dup2\n    /* \"#utility.yul\":62:78   */\n  swap1\n  pop\n    /* \"#utility.yul\":7:84   */\n  swap2\n  swap1\n  pop\n  jump\t// out\n    /* \"#utility.yul\":90:270   */\ntag_8:\n    /* \"#utility.yul\":138:215   */\n  0x4e487b7100000000000000000000000000000000000000000000000000000000\n    /* \"#utility.yul\":135:136   */\n  0x00\n    /* \"#utility.yul\":128:216   */\n  mstore\n    /* \"#utility.yul\":235:239   */\n  0x11\n    /* \"#utility.yul\":232:233   */\n  0x04\n    /* \"#utility.yul\":225:240   */\n  mstore\n    /* \"#utility.yul\":259:263   */\n  0x24\n    /* \"#utility.yul\":256:257   */\n  0x00\n    /* \"#utility.yul\":249:264   */\n  revert\n    /* \"#utility.yul\":276:467   */\ntag_5:\n    /* \"#utility.yul\":316:319   */\n  0x00\n    /* \"#utility.yul\":335:355   */\n  tag_13\n    /* \"#utility.yul\":353:354   */\n  dup3\n    /* \"#utility.yul\":335:355   */\n  tag_7\n  jump\t// in\ntag_13:\n    /* \"#utility.yul\":330:355   */\n  swap2\n  pop\n    /* \"#utility.yul\":369:389   */\n  tag_14\n    /* \"#utility.yul\":387:388   */\n  dup4\n    /* \"#utility.yul\":369:389   */\n  tag_7\n  jump\t// in\ntag_14:\n    /* \"#utility.yul\":364:389   */\n  swap3\n  pop\n    /* \"#utility.yul\":412:413   */\n  dup3\n    /* \"#utility.yul\":409:410   */\n  dup3\n    /* \"#utility.yul\":405:414   */\n  add\n    /* \"#utility.yul\":398:414   */\n  swap1\n  pop\n    /* \"#utility.yul\":433:436   */\n  dup1\n    /* \"#utility.yul\":430:431   */\n  dup3\n    /* \"#utility.yul\":427:437   */\n  gt\n    /* \"#utility.yul\":424:460   */\n  iszero\n  tag_15\n  jumpi\n    /* \"#utility.yul\":440:458   */\n  tag_16\n  tag_8\n  jump\t// in\ntag_16:\n    /* \"#utility.yul\":424:460   */\ntag_15:\n    /* \"#utility.yul\":276:467   */\n  swap3\n  swap2\n  pop\n  pop\n  jump\t// out\n    /* \"Subasta.sol\":60:1628  contract Subasta {... */\ntag_6:\n  dataSize(sub_0)\n  dup1\n  dataOffset(sub_0)\n  0x00\n  codecopy\n  0x00\n  return\nstop\n\nsub_0: assembly {\n        /* \"Subasta.sol\":60:1628  contract Subasta {... */\n      mstore(0x40, 0x80)\n      jumpi(tag_1, lt(calldatasize, 0x04))\n      shr(0xe0, calldataload(0x00))\n      dup1\n      0x83f28094\n      gt\n      tag_12\n      jumpi\n      dup1\n      0x83f28094\n      eq\n      tag_7\n      jumpi\n      dup1\n      0x86549369\n      eq\n      tag_8\n      jumpi\n      dup1\n      0x8da5cb5b\n      eq\n      tag_9\n      jumpi\n      dup1\n      0xcb4ee133\n      eq\n      tag_10\n      jumpi\n      dup1\n      0xfc373179\n      eq\n      tag_11\n      jumpi\n      jump(tag_1)\n    tag_12:\n      dup1\n      0x209e1d46\n      eq\n      tag_2\n      jumpi\n      dup1\n      0x3483b353\n      eq\n      tag_3\n      jumpi\n      dup1\n      0x35e55041\n      eq\n      tag_4\n      jumpi\n      dup1\n      0x3f0cc5e8\n      eq\n      tag_5\n      jumpi\n      dup1\n      0x71b42bd0\n      eq\n      tag_6\n      jumpi\n    tag_1:\n      0x00\n      dup1\n      revert\n        /* \"Subasta.sol\":701:804  function getOferenteGanador() external view returns(address) {... */\n    tag_2:\n      callvalue\n      dup1\n      iszero\n      tag_13\n      jumpi\n      0x00\n      dup1\n      revert\n    tag_13:\n      pop\n      tag_14\n      tag_15\n      jump\t// in\n    tag_14:\n      mload(0x40)\n      tag_16\n      swap2\n      swap1\n      tag_17\n      jump\t// in\n    tag_16:\n      mload(0x40)\n      dup1\n      swap2\n      sub\n      swap1\n      return\n        /* \"Subasta.sol\":405:452  mapping (address => uint256) public valorMetido */\n    tag_3:\n      callvalue\n      dup1\n      iszero\n      tag_18\n      jumpi\n      0x00\n      dup1\n      revert\n    tag_18:\n      pop\n      tag_19\n      0x04\n      dup1\n      calldatasize\n      sub\n      dup2\n      add\n      swap1\n      tag_20\n      swap2\n      swap1\n      tag_21\n      jump\t// in\n    tag_20:\n      tag_22\n      jump\t// in\n    tag_19:\n      mload(0x40)\n      tag_23\n      swap2\n      swap1\n      tag_24\n      jump\t// in\n    tag_23:\n      mload(0x40)\n      dup1\n      swap2\n      sub\n      swap1\n      return\n        /* \"Subasta.sol\":812:906  function getMayorOferta() external view returns(uint256) {... */\n    tag_4:\n      callvalue\n      dup1\n      iszero\n      tag_25\n      jumpi\n      0x00\n      dup1\n      revert\n    tag_25:\n      pop\n      tag_26\n      tag_27\n      jump\t// in\n    tag_26:\n      mload(0x40)\n      tag_28\n      swap2\n      swap1\n      tag_24\n      jump\t// in\n    tag_28:\n      mload(0x40)\n      dup1\n      swap2\n      sub\n      swap1\n      return\n        /* \"Subasta.sol\":914:1459  function setOferta() external payable {... */\n    tag_5:\n      tag_29\n      tag_30\n      jump\t// in\n    tag_29:\n      stop\n        /* \"Subasta.sol\":1467:1625  function FinalizarSubasta( ) external {... */\n    tag_6:\n      callvalue\n      dup1\n      iszero\n      tag_31\n      jumpi\n      0x00\n      dup1\n      revert\n    tag_31:\n      pop\n      tag_32\n      tag_33\n      jump\t// in\n    tag_32:\n      stop\n        /* \"Subasta.sol\":174:201  uint256 public valorInicial */\n    tag_7:\n      callvalue\n      dup1\n      iszero\n      tag_34\n      jumpi\n      0x00\n      dup1\n      revert\n    tag_34:\n      pop\n      tag_35\n      tag_36\n      jump\t// in\n    tag_35:\n      mload(0x40)\n      tag_37\n      swap2\n      swap1\n      tag_24\n      jump\t// in\n    tag_37:\n      mload(0x40)\n      dup1\n      swap2\n      sub\n      swap1\n      return\n        /* \"Subasta.sol\":241:270  uint256 public tiempoDuracion */\n    tag_8:\n      callvalue\n      dup1\n      iszero\n      tag_38\n      jumpi\n      0x00\n      dup1\n      revert\n    tag_38:\n      pop\n      tag_39\n      tag_40\n      jump\t// in\n    tag_39:\n      mload(0x40)\n      tag_41\n      swap2\n      swap1\n      tag_24\n      jump\t// in\n    tag_41:\n      mload(0x40)\n      dup1\n      swap2\n      sub\n      swap1\n      return\n        /* \"Subasta.sol\":378:398  address public owner */\n    tag_9:\n      callvalue\n      dup1\n      iszero\n      tag_42\n      jumpi\n      0x00\n      dup1\n      revert\n    tag_42:\n      pop\n      tag_43\n      tag_44\n      jump\t// in\n    tag_43:\n      mload(0x40)\n      tag_45\n      swap2\n      swap1\n      tag_17\n      jump\t// in\n    tag_45:\n      mload(0x40)\n      dup1\n      swap2\n      sub\n      swap1\n      return\n        /* \"Subasta.sol\":350:371  uint8 public semaforo */\n    tag_10:\n      callvalue\n      dup1\n      iszero\n      tag_46\n      jumpi\n      0x00\n      dup1\n      revert\n    tag_46:\n      pop\n      tag_47\n      tag_48\n      jump\t// in\n    tag_47:\n      mload(0x40)\n      tag_49\n      swap2\n      swap1\n      tag_50\n      jump\t// in\n    tag_49:\n      mload(0x40)\n      dup1\n      swap2\n      sub\n      swap1\n      return\n        /* \"Subasta.sol\":208:234  uint256 public fechaInicio */\n    tag_11:\n      callvalue\n      dup1\n      iszero\n      tag_51\n      jumpi\n      0x00\n      dup1\n      revert\n    tag_51:\n      pop\n      tag_52\n      tag_53\n      jump\t// in\n    tag_52:\n      mload(0x40)\n      tag_54\n      swap2\n      swap1\n      tag_24\n      jump\t// in\n    tag_54:\n      mload(0x40)\n      dup1\n      swap2\n      sub\n      swap1\n      return\n        /* \"Subasta.sol\":701:804  function getOferenteGanador() external view returns(address) {... */\n    tag_15:\n        /* \"Subasta.sol\":753:760  address */\n      0x00\n        /* \"Subasta.sol\":780:796  ofertanteGanador */\n      0x04\n      0x00\n      swap1\n      sload\n      swap1\n      0x0100\n      exp\n      swap1\n      div\n      0xffffffffffffffffffffffffffffffffffffffff\n      and\n        /* \"Subasta.sol\":773:796  return ofertanteGanador */\n      swap1\n      pop\n        /* \"Subasta.sol\":701:804  function getOferenteGanador() external view returns(address) {... */\n      swap1\n      jump\t// out\n        /* \"Subasta.sol\":405:452  mapping (address => uint256) public valorMetido */\n    tag_22:\n      mstore(0x20, 0x06)\n      dup1\n      0x00\n      mstore\n      keccak256(0x00, 0x40)\n      0x00\n      swap2\n      pop\n      swap1\n      pop\n      sload\n      dup2\n      jump\t// out\n        /* \"Subasta.sol\":812:906  function getMayorOferta() external view returns(uint256) {... */\n    tag_27:\n        /* \"Subasta.sol\":860:867  uint256 */\n      0x00\n        /* \"Subasta.sol\":887:898  mayorOferta */\n      sload(0x03)\n        /* \"Subasta.sol\":880:898  return mayorOferta */\n      swap1\n      pop\n        /* \"Subasta.sol\":812:906  function getMayorOferta() external view returns(uint256) {... */\n      swap1\n      jump\t// out\n        /* \"Subasta.sol\":914:1459  function setOferta() external payable {... */\n    tag_30:\n        /* \"Subasta.sol\":981:982  0 */\n      0x00\n        /* \"Subasta.sol\":971:979  semaforo */\n      0x04\n      0x14\n      swap1\n      sload\n      swap1\n      0x0100\n      exp\n      swap1\n      div\n      0xff\n      and\n        /* \"Subasta.sol\":971:982  semaforo==0 */\n      0xff\n      and\n      eq\n        /* \"Subasta.sol\":963:1010  require(semaforo==0,\"La subasta ha finalizado\") */\n      tag_58\n      jumpi\n      mload(0x40)\n      0x08c379a000000000000000000000000000000000000000000000000000000000\n      dup2\n      mstore\n      0x04\n      add\n      tag_59\n      swap1\n      tag_60\n      jump\t// in\n    tag_59:\n      mload(0x40)\n      dup1\n      swap2\n      sub\n      swap1\n      revert\n    tag_58:\n        /* \"Subasta.sol\":1021:1043  uint256 _valorOfertado */\n      0x00\n        /* \"Subasta.sol\":1046:1055  msg.value */\n      callvalue\n        /* \"Subasta.sol\":1021:1055  uint256 _valorOfertado = msg.value */\n      swap1\n      pop\n        /* \"Subasta.sol\":1089:1101  valorInicial */\n      sload(0x00)\n        /* \"Subasta.sol\":1074:1088  _valorOfertado */\n      dup2\n        /* \"Subasta.sol\":1074:1101  _valorOfertado>valorInicial */\n      gt\n        /* \"Subasta.sol\":1066:1127  require(_valorOfertado>valorInicial,\"Valor menor al inicial\") */\n      tag_61\n      jumpi\n      mload(0x40)\n      0x08c379a000000000000000000000000000000000000000000000000000000000\n      dup2\n      mstore\n      0x04\n      add\n      tag_62\n      swap1\n      tag_63\n      jump\t// in\n    tag_62:\n      mload(0x40)\n      dup1\n      swap2\n      sub\n      swap1\n      revert\n    tag_61:\n        /* \"Subasta.sol\":1158:1169  mayorOferta */\n      sload(0x03)\n        /* \"Subasta.sol\":1141:1155  _valorOfertado */\n      dup2\n        /* \"Subasta.sol\":1141:1169  _valorOfertado > mayorOferta */\n      gt\n        /* \"Subasta.sol\":1138:1452  if(_valorOfertado > mayorOferta) {... */\n      iszero\n      tag_64\n      jumpi\n        /* \"Subasta.sol\":1186:1207  address _addrOferente */\n      0x00\n        /* \"Subasta.sol\":1210:1220  msg.sender */\n      caller\n        /* \"Subasta.sol\":1186:1220  address _addrOferente = msg.sender */\n      swap1\n      pop\n        /* \"Subasta.sol\":1249:1263  _valorOfertado */\n      dup2\n        /* \"Subasta.sol\":1235:1246  mayorOferta */\n      0x03\n        /* \"Subasta.sol\":1235:1263  mayorOferta = _valorOfertado */\n      dup2\n      swap1\n      sstore\n      pop\n        /* \"Subasta.sol\":1297:1310  _addrOferente */\n      dup1\n        /* \"Subasta.sol\":1278:1294  ofertanteGanador */\n      0x04\n      0x00\n        /* \"Subasta.sol\":1278:1310  ofertanteGanador = _addrOferente */\n      0x0100\n      exp\n      dup2\n      sload\n      dup2\n      0xffffffffffffffffffffffffffffffffffffffff\n      mul\n      not\n      and\n      swap1\n      dup4\n      0xffffffffffffffffffffffffffffffffffffffff\n      and\n      mul\n      or\n      swap1\n      sstore\n      pop\n        /* \"Subasta.sol\":1355:1369  _valorOfertado */\n      dup2\n        /* \"Subasta.sol\":1325:1336  valorMetido */\n      0x06\n        /* \"Subasta.sol\":1325:1351  valorMetido[_addrOferente] */\n      0x00\n        /* \"Subasta.sol\":1337:1350  _addrOferente */\n      dup4\n        /* \"Subasta.sol\":1325:1351  valorMetido[_addrOferente] */\n      0xffffffffffffffffffffffffffffffffffffffff\n      and\n      0xffffffffffffffffffffffffffffffffffffffff\n      and\n      dup2\n      mstore\n      0x20\n      add\n      swap1\n      dup2\n      mstore\n      0x20\n      add\n      0x00\n      keccak256\n      0x00\n        /* \"Subasta.sol\":1325:1369  valorMetido[_addrOferente] += _valorOfertado */\n      dup3\n      dup3\n      sload\n      tag_65\n      swap2\n      swap1\n      tag_66\n      jump\t// in\n    tag_65:\n      swap3\n      pop\n      pop\n      dup2\n      swap1\n      sstore\n      pop\n        /* \"Subasta.sol\":1171:1381  {... */\n      pop\n        /* \"Subasta.sol\":1138:1452  if(_valorOfertado > mayorOferta) {... */\n      jump(tag_67)\n    tag_64:\n        /* \"Subasta.sol\":1402:1440  revert(\"No superaste la mayor oferta\") */\n      mload(0x40)\n      0x08c379a000000000000000000000000000000000000000000000000000000000\n      dup2\n      mstore\n      0x04\n      add\n      tag_68\n      swap1\n      tag_69\n      jump\t// in\n    tag_68:\n      mload(0x40)\n      dup1\n      swap2\n      sub\n      swap1\n      revert\n        /* \"Subasta.sol\":1138:1452  if(_valorOfertado > mayorOferta) {... */\n    tag_67:\n        /* \"Subasta.sol\":952:1459  {... */\n      pop\n        /* \"Subasta.sol\":914:1459  function setOferta() external payable {... */\n      jump\t// out\n        /* \"Subasta.sol\":1467:1625  function FinalizarSubasta( ) external {... */\n    tag_33:\n        /* \"Subasta.sol\":1531:1541  msg.sender */\n      caller\n        /* \"Subasta.sol\":1524:1541  owner==msg.sender */\n      0xffffffffffffffffffffffffffffffffffffffff\n      and\n        /* \"Subasta.sol\":1524:1529  owner */\n      0x05\n      0x00\n      swap1\n      sload\n      swap1\n      0x0100\n      exp\n      swap1\n      div\n      0xffffffffffffffffffffffffffffffffffffffff\n      and\n        /* \"Subasta.sol\":1524:1541  owner==msg.sender */\n      0xffffffffffffffffffffffffffffffffffffffff\n      and\n      eq\n        /* \"Subasta.sol\":1516:1594  require(owner==msg.sender,\"Usted no tiene permisos para finalizar la subasta\") */\n      tag_71\n      jumpi\n      mload(0x40)\n      0x08c379a000000000000000000000000000000000000000000000000000000000\n      dup2\n      mstore\n      0x04\n      add\n      tag_72\n      swap1\n      tag_73\n      jump\t// in\n    tag_72:\n      mload(0x40)\n      dup1\n      swap2\n      sub\n      swap1\n      revert\n    tag_71:\n        /* \"Subasta.sol\":1616:1617  1 */\n      0x01\n        /* \"Subasta.sol\":1605:1613  semaforo */\n      0x04\n      0x14\n        /* \"Subasta.sol\":1605:1617  semaforo = 1 */\n      0x0100\n      exp\n      dup2\n      sload\n      dup2\n      0xff\n      mul\n      not\n      and\n      swap1\n      dup4\n      0xff\n      and\n      mul\n      or\n      swap1\n      sstore\n      pop\n        /* \"Subasta.sol\":1467:1625  function FinalizarSubasta( ) external {... */\n      jump\t// out\n        /* \"Subasta.sol\":174:201  uint256 public valorInicial */\n    tag_36:\n      sload(0x00)\n      dup2\n      jump\t// out\n        /* \"Subasta.sol\":241:270  uint256 public tiempoDuracion */\n    tag_40:\n      sload(0x02)\n      dup2\n      jump\t// out\n        /* \"Subasta.sol\":378:398  address public owner */\n    tag_44:\n      0x05\n      0x00\n      swap1\n      sload\n      swap1\n      0x0100\n      exp\n      swap1\n      div\n      0xffffffffffffffffffffffffffffffffffffffff\n      and\n      dup2\n      jump\t// out\n        /* \"Subasta.sol\":350:371  uint8 public semaforo */\n    tag_48:\n      0x04\n      0x14\n      swap1\n      sload\n      swap1\n      0x0100\n      exp\n      swap1\n      div\n      0xff\n      and\n      dup2\n      jump\t// out\n        /* \"Subasta.sol\":208:234  uint256 public fechaInicio */\n    tag_53:\n      sload(0x01)\n      dup2\n      jump\t// out\n        /* \"#utility.yul\":7:133   */\n    tag_74:\n        /* \"#utility.yul\":44:51   */\n      0x00\n        /* \"#utility.yul\":84:126   */\n      0xffffffffffffffffffffffffffffffffffffffff\n        /* \"#utility.yul\":77:82   */\n      dup3\n        /* \"#utility.yul\":73:127   */\n      and\n        /* \"#utility.yul\":62:127   */\n      swap1\n      pop\n        /* \"#utility.yul\":7:133   */\n      swap2\n      swap1\n      pop\n      jump\t// out\n        /* \"#utility.yul\":139:235   */\n    tag_75:\n        /* \"#utility.yul\":176:183   */\n      0x00\n        /* \"#utility.yul\":205:229   */\n      tag_99\n        /* \"#utility.yul\":223:228   */\n      dup3\n        /* \"#utility.yul\":205:229   */\n      tag_74\n      jump\t// in\n    tag_99:\n        /* \"#utility.yul\":194:229   */\n      swap1\n      pop\n        /* \"#utility.yul\":139:235   */\n      swap2\n      swap1\n      pop\n      jump\t// out\n        /* \"#utility.yul\":241:359   */\n    tag_76:\n        /* \"#utility.yul\":328:352   */\n      tag_101\n        /* \"#utility.yul\":346:351   */\n      dup2\n        /* \"#utility.yul\":328:352   */\n      tag_75\n      jump\t// in\n    tag_101:\n        /* \"#utility.yul\":323:326   */\n      dup3\n        /* \"#utility.yul\":316:353   */\n      mstore\n        /* \"#utility.yul\":241:359   */\n      pop\n      pop\n      jump\t// out\n        /* \"#utility.yul\":365:587   */\n    tag_17:\n        /* \"#utility.yul\":458:462   */\n      0x00\n        /* \"#utility.yul\":496:498   */\n      0x20\n        /* \"#utility.yul\":485:494   */\n      dup3\n        /* \"#utility.yul\":481:499   */\n      add\n        /* \"#utility.yul\":473:499   */\n      swap1\n      pop\n        /* \"#utility.yul\":509:580   */\n      tag_103\n        /* \"#utility.yul\":577:578   */\n      0x00\n        /* \"#utility.yul\":566:575   */\n      dup4\n        /* \"#utility.yul\":562:579   */\n      add\n        /* \"#utility.yul\":553:559   */\n      dup5\n        /* \"#utility.yul\":509:580   */\n      tag_76\n      jump\t// in\n    tag_103:\n        /* \"#utility.yul\":365:587   */\n      swap3\n      swap2\n      pop\n      pop\n      jump\t// out\n        /* \"#utility.yul\":674:791   */\n    tag_78:\n        /* \"#utility.yul\":783:784   */\n      0x00\n        /* \"#utility.yul\":780:781   */\n      dup1\n        /* \"#utility.yul\":773:785   */\n      revert\n        /* \"#utility.yul\":920:1042   */\n    tag_80:\n        /* \"#utility.yul\":993:1017   */\n      tag_108\n        /* \"#utility.yul\":1011:1016   */\n      dup2\n        /* \"#utility.yul\":993:1017   */\n      tag_75\n      jump\t// in\n    tag_108:\n        /* \"#utility.yul\":986:991   */\n      dup2\n        /* \"#utility.yul\":983:1018   */\n      eq\n        /* \"#utility.yul\":973:1036   */\n      tag_109\n      jumpi\n        /* \"#utility.yul\":1032:1033   */\n      0x00\n        /* \"#utility.yul\":1029:1030   */\n      dup1\n        /* \"#utility.yul\":1022:1034   */\n      revert\n        /* \"#utility.yul\":973:1036   */\n    tag_109:\n        /* \"#utility.yul\":920:1042   */\n      pop\n      jump\t// out\n        /* \"#utility.yul\":1048:1187   */\n    tag_81:\n        /* \"#utility.yul\":1094:1099   */\n      0x00\n        /* \"#utility.yul\":1132:1138   */\n      dup2\n        /* \"#utility.yul\":1119:1139   */\n      calldataload\n        /* \"#utility.yul\":1110:1139   */\n      swap1\n      pop\n        /* \"#utility.yul\":1148:1181   */\n      tag_111\n        /* \"#utility.yul\":1175:1180   */\n      dup2\n        /* \"#utility.yul\":1148:1181   */\n      tag_80\n      jump\t// in\n    tag_111:\n        /* \"#utility.yul\":1048:1187   */\n      swap3\n      swap2\n      pop\n      pop\n      jump\t// out\n        /* \"#utility.yul\":1193:1522   */\n    tag_21:\n        /* \"#utility.yul\":1252:1258   */\n      0x00\n        /* \"#utility.yul\":1301:1303   */\n      0x20\n        /* \"#utility.yul\":1289:1298   */\n      dup3\n        /* \"#utility.yul\":1280:1287   */\n      dup5\n        /* \"#utility.yul\":1276:1299   */\n      sub\n        /* \"#utility.yul\":1272:1304   */\n      slt\n        /* \"#utility.yul\":1269:1388   */\n      iszero\n      tag_113\n      jumpi\n        /* \"#utility.yul\":1307:1386   */\n      tag_114\n      tag_78\n      jump\t// in\n    tag_114:\n        /* \"#utility.yul\":1269:1388   */\n    tag_113:\n        /* \"#utility.yul\":1427:1428   */\n      0x00\n        /* \"#utility.yul\":1452:1505   */\n      tag_115\n        /* \"#utility.yul\":1497:1504   */\n      dup5\n        /* \"#utility.yul\":1488:1494   */\n      dup3\n        /* \"#utility.yul\":1477:1486   */\n      dup6\n        /* \"#utility.yul\":1473:1495   */\n      add\n        /* \"#utility.yul\":1452:1505   */\n      tag_81\n      jump\t// in\n    tag_115:\n        /* \"#utility.yul\":1442:1505   */\n      swap2\n      pop\n        /* \"#utility.yul\":1398:1515   */\n      pop\n        /* \"#utility.yul\":1193:1522   */\n      swap3\n      swap2\n      pop\n      pop\n      jump\t// out\n        /* \"#utility.yul\":1528:1605   */\n    tag_82:\n        /* \"#utility.yul\":1565:1572   */\n      0x00\n        /* \"#utility.yul\":1594:1599   */\n      dup2\n        /* \"#utility.yul\":1583:1599   */\n      swap1\n      pop\n        /* \"#utility.yul\":1528:1605   */\n      swap2\n      swap1\n      pop\n      jump\t// out\n        /* \"#utility.yul\":1611:1729   */\n    tag_83:\n        /* \"#utility.yul\":1698:1722   */\n      tag_118\n        /* \"#utility.yul\":1716:1721   */\n      dup2\n        /* \"#utility.yul\":1698:1722   */\n      tag_82\n      jump\t// in\n    tag_118:\n        /* \"#utility.yul\":1693:1696   */\n      dup3\n        /* \"#utility.yul\":1686:1723   */\n      mstore\n        /* \"#utility.yul\":1611:1729   */\n      pop\n      pop\n      jump\t// out\n        /* \"#utility.yul\":1735:1957   */\n    tag_24:\n        /* \"#utility.yul\":1828:1832   */\n      0x00\n        /* \"#utility.yul\":1866:1868   */\n      0x20\n        /* \"#utility.yul\":1855:1864   */\n      dup3\n        /* \"#utility.yul\":1851:1869   */\n      add\n        /* \"#utility.yul\":1843:1869   */\n      swap1\n      pop\n        /* \"#utility.yul\":1879:1950   */\n      tag_120\n        /* \"#utility.yul\":1947:1948   */\n      0x00\n        /* \"#utility.yul\":1936:1945   */\n      dup4\n        /* \"#utility.yul\":1932:1949   */\n      add\n        /* \"#utility.yul\":1923:1929   */\n      dup5\n        /* \"#utility.yul\":1879:1950   */\n      tag_83\n      jump\t// in\n    tag_120:\n        /* \"#utility.yul\":1735:1957   */\n      swap3\n      swap2\n      pop\n      pop\n      jump\t// out\n        /* \"#utility.yul\":1963:2049   */\n    tag_84:\n        /* \"#utility.yul\":1998:2005   */\n      0x00\n        /* \"#utility.yul\":2038:2042   */\n      0xff\n        /* \"#utility.yul\":2031:2036   */\n      dup3\n        /* \"#utility.yul\":2027:2043   */\n      and\n        /* \"#utility.yul\":2016:2043   */\n      swap1\n      pop\n        /* \"#utility.yul\":1963:2049   */\n      swap2\n      swap1\n      pop\n      jump\t// out\n        /* \"#utility.yul\":2055:2167   */\n    tag_85:\n        /* \"#utility.yul\":2138:2160   */\n      tag_123\n        /* \"#utility.yul\":2154:2159   */\n      dup2\n        /* \"#utility.yul\":2138:2160   */\n      tag_84\n      jump\t// in\n    tag_123:\n        /* \"#utility.yul\":2133:2136   */\n      dup3\n        /* \"#utility.yul\":2126:2161   */\n      mstore\n        /* \"#utility.yul\":2055:2167   */\n      pop\n      pop\n      jump\t// out\n        /* \"#utility.yul\":2173:2387   */\n    tag_50:\n        /* \"#utility.yul\":2262:2266   */\n      0x00\n        /* \"#utility.yul\":2300:2302   */\n      0x20\n        /* \"#utility.yul\":2289:2298   */\n      dup3\n        /* \"#utility.yul\":2285:2303   */\n      add\n        /* \"#utility.yul\":2277:2303   */\n      swap1\n      pop\n        /* \"#utility.yul\":2313:2380   */\n      tag_125\n        /* \"#utility.yul\":2377:2378   */\n      0x00\n        /* \"#utility.yul\":2366:2375   */\n      dup4\n        /* \"#utility.yul\":2362:2379   */\n      add\n        /* \"#utility.yul\":2353:2359   */\n      dup5\n        /* \"#utility.yul\":2313:2380   */\n      tag_85\n      jump\t// in\n    tag_125:\n        /* \"#utility.yul\":2173:2387   */\n      swap3\n      swap2\n      pop\n      pop\n      jump\t// out\n        /* \"#utility.yul\":2393:2562   */\n    tag_86:\n        /* \"#utility.yul\":2477:2488   */\n      0x00\n        /* \"#utility.yul\":2511:2517   */\n      dup3\n        /* \"#utility.yul\":2506:2509   */\n      dup3\n        /* \"#utility.yul\":2499:2518   */\n      mstore\n        /* \"#utility.yul\":2551:2555   */\n      0x20\n        /* \"#utility.yul\":2546:2549   */\n      dup3\n        /* \"#utility.yul\":2542:2556   */\n      add\n        /* \"#utility.yul\":2527:2556   */\n      swap1\n      pop\n        /* \"#utility.yul\":2393:2562   */\n      swap3\n      swap2\n      pop\n      pop\n      jump\t// out\n        /* \"#utility.yul\":2568:2742   */\n    tag_87:\n        /* \"#utility.yul\":2708:2734   */\n      0x4c6120737562617374612068612066696e616c697a61646f0000000000000000\n        /* \"#utility.yul\":2704:2705   */\n      0x00\n        /* \"#utility.yul\":2696:2702   */\n      dup3\n        /* \"#utility.yul\":2692:2706   */\n      add\n        /* \"#utility.yul\":2685:2735   */\n      mstore\n        /* \"#utility.yul\":2568:2742   */\n      pop\n      jump\t// out\n        /* \"#utility.yul\":2748:3114   */\n    tag_88:\n        /* \"#utility.yul\":2890:2893   */\n      0x00\n        /* \"#utility.yul\":2911:2978   */\n      tag_129\n        /* \"#utility.yul\":2975:2977   */\n      0x18\n        /* \"#utility.yul\":2970:2973   */\n      dup4\n        /* \"#utility.yul\":2911:2978   */\n      tag_86\n      jump\t// in\n    tag_129:\n        /* \"#utility.yul\":2904:2978   */\n      swap2\n      pop\n        /* \"#utility.yul\":2987:3080   */\n      tag_130\n        /* \"#utility.yul\":3076:3079   */\n      dup3\n        /* \"#utility.yul\":2987:3080   */\n      tag_87\n      jump\t// in\n    tag_130:\n        /* \"#utility.yul\":3105:3107   */\n      0x20\n        /* \"#utility.yul\":3100:3103   */\n      dup3\n        /* \"#utility.yul\":3096:3108   */\n      add\n        /* \"#utility.yul\":3089:3108   */\n      swap1\n      pop\n        /* \"#utility.yul\":2748:3114   */\n      swap2\n      swap1\n      pop\n      jump\t// out\n        /* \"#utility.yul\":3120:3539   */\n    tag_60:\n        /* \"#utility.yul\":3286:3290   */\n      0x00\n        /* \"#utility.yul\":3324:3326   */\n      0x20\n        /* \"#utility.yul\":3313:3322   */\n      dup3\n        /* \"#utility.yul\":3309:3327   */\n      add\n        /* \"#utility.yul\":3301:3327   */\n      swap1\n      pop\n        /* \"#utility.yul\":3373:3382   */\n      dup2\n        /* \"#utility.yul\":3367:3371   */\n      dup2\n        /* \"#utility.yul\":3363:3383   */\n      sub\n        /* \"#utility.yul\":3359:3360   */\n      0x00\n        /* \"#utility.yul\":3348:3357   */\n      dup4\n        /* \"#utility.yul\":3344:3361   */\n      add\n        /* \"#utility.yul\":3337:3384   */\n      mstore\n        /* \"#utility.yul\":3401:3532   */\n      tag_132\n        /* \"#utility.yul\":3527:3531   */\n      dup2\n        /* \"#utility.yul\":3401:3532   */\n      tag_88\n      jump\t// in\n    tag_132:\n        /* \"#utility.yul\":3393:3532   */\n      swap1\n      pop\n        /* \"#utility.yul\":3120:3539   */\n      swap2\n      swap1\n      pop\n      jump\t// out\n        /* \"#utility.yul\":3545:3717   */\n    tag_89:\n        /* \"#utility.yul\":3685:3709   */\n      0x56616c6f72206d656e6f7220616c20696e696369616c00000000000000000000\n        /* \"#utility.yul\":3681:3682   */\n      0x00\n        /* \"#utility.yul\":3673:3679   */\n      dup3\n        /* \"#utility.yul\":3669:3683   */\n      add\n        /* \"#utility.yul\":3662:3710   */\n      mstore\n        /* \"#utility.yul\":3545:3717   */\n      pop\n      jump\t// out\n        /* \"#utility.yul\":3723:4089   */\n    tag_90:\n        /* \"#utility.yul\":3865:3868   */\n      0x00\n        /* \"#utility.yul\":3886:3953   */\n      tag_135\n        /* \"#utility.yul\":3950:3952   */\n      0x16\n        /* \"#utility.yul\":3945:3948   */\n      dup4\n        /* \"#utility.yul\":3886:3953   */\n      tag_86\n      jump\t// in\n    tag_135:\n        /* \"#utility.yul\":3879:3953   */\n      swap2\n      pop\n        /* \"#utility.yul\":3962:4055   */\n      tag_136\n        /* \"#utility.yul\":4051:4054   */\n      dup3\n        /* \"#utility.yul\":3962:4055   */\n      tag_89\n      jump\t// in\n    tag_136:\n        /* \"#utility.yul\":4080:4082   */\n      0x20\n        /* \"#utility.yul\":4075:4078   */\n      dup3\n        /* \"#utility.yul\":4071:4083   */\n      add\n        /* \"#utility.yul\":4064:4083   */\n      swap1\n      pop\n        /* \"#utility.yul\":3723:4089   */\n      swap2\n      swap1\n      pop\n      jump\t// out\n        /* \"#utility.yul\":4095:4514   */\n    tag_63:\n        /* \"#utility.yul\":4261:4265   */\n      0x00\n        /* \"#utility.yul\":4299:4301   */\n      0x20\n        /* \"#utility.yul\":4288:4297   */\n      dup3\n        /* \"#utility.yul\":4284:4302   */\n      add\n        /* \"#utility.yul\":4276:4302   */\n      swap1\n      pop\n        /* \"#utility.yul\":4348:4357   */\n      dup2\n        /* \"#utility.yul\":4342:4346   */\n      dup2\n        /* \"#utility.yul\":4338:4358   */\n      sub\n        /* \"#utility.yul\":4334:4335   */\n      0x00\n        /* \"#utility.yul\":4323:4332   */\n      dup4\n        /* \"#utility.yul\":4319:4336   */\n      add\n        /* \"#utility.yul\":4312:4359   */\n      mstore\n        /* \"#utility.yul\":4376:4507   */\n      tag_138\n        /* \"#utility.yul\":4502:4506   */\n      dup2\n        /* \"#utility.yul\":4376:4507   */\n      tag_90\n      jump\t// in\n    tag_138:\n        /* \"#utility.yul\":4368:4507   */\n      swap1\n      pop\n        /* \"#utility.yul\":4095:4514   */\n      swap2\n      swap1\n      pop\n      jump\t// out\n        /* \"#utility.yul\":4520:4700   */\n    tag_91:\n        /* \"#utility.yul\":4568:4645   */\n      0x4e487b7100000000000000000000000000000000000000000000000000000000\n        /* \"#utility.yul\":4565:4566   */\n      0x00\n        /* \"#utility.yul\":4558:4646   */\n      mstore\n        /* \"#utility.yul\":4665:4669   */\n      0x11\n        /* \"#utility.yul\":4662:4663   */\n      0x04\n        /* \"#utility.yul\":4655:4670   */\n      mstore\n        /* \"#utility.yul\":4689:4693   */\n      0x24\n        /* \"#utility.yul\":4686:4687   */\n      0x00\n        /* \"#utility.yul\":4679:4694   */\n      revert\n        /* \"#utility.yul\":4706:4897   */\n    tag_66:\n        /* \"#utility.yul\":4746:4749   */\n      0x00\n        /* \"#utility.yul\":4765:4785   */\n      tag_141\n        /* \"#utility.yul\":4783:4784   */\n      dup3\n        /* \"#utility.yul\":4765:4785   */\n      tag_82\n      jump\t// in\n    tag_141:\n        /* \"#utility.yul\":4760:4785   */\n      swap2\n      pop\n        /* \"#utility.yul\":4799:4819   */\n      tag_142\n        /* \"#utility.yul\":4817:4818   */\n      dup4\n        /* \"#utility.yul\":4799:4819   */\n      tag_82\n      jump\t// in\n    tag_142:\n        /* \"#utility.yul\":4794:4819   */\n      swap3\n      pop\n        /* \"#utility.yul\":4842:4843   */\n      dup3\n        /* \"#utility.yul\":4839:4840   */\n      dup3\n        /* \"#utility.yul\":4835:4844   */\n      add\n        /* \"#utility.yul\":4828:4844   */\n      swap1\n      pop\n        /* \"#utility.yul\":4863:4866   */\n      dup1\n        /* \"#utility.yul\":4860:4861   */\n      dup3\n        /* \"#utility.yul\":4857:4867   */\n      gt\n        /* \"#utility.yul\":4854:4890   */\n      iszero\n      tag_143\n      jumpi\n        /* \"#utility.yul\":4870:4888   */\n      tag_144\n      tag_91\n      jump\t// in\n    tag_144:\n        /* \"#utility.yul\":4854:4890   */\n    tag_143:\n        /* \"#utility.yul\":4706:4897   */\n      swap3\n      swap2\n      pop\n      pop\n      jump\t// out\n        /* \"#utility.yul\":4903:5081   */\n    tag_92:\n        /* \"#utility.yul\":5043:5073   */\n      0x4e6f20737570657261737465206c61206d61796f72206f666572746100000000\n        /* \"#utility.yul\":5039:5040   */\n      0x00\n        /* \"#utility.yul\":5031:5037   */\n      dup3\n        /* \"#utility.yul\":5027:5041   */\n      add\n        /* \"#utility.yul\":5020:5074   */\n      mstore\n        /* \"#utility.yul\":4903:5081   */\n      pop\n      jump\t// out\n        /* \"#utility.yul\":5087:5453   */\n    tag_93:\n        /* \"#utility.yul\":5229:5232   */\n      0x00\n        /* \"#utility.yul\":5250:5317   */\n      tag_147\n        /* \"#utility.yul\":5314:5316   */\n      0x1c\n        /* \"#utility.yul\":5309:5312   */\n      dup4\n        /* \"#utility.yul\":5250:5317   */\n      tag_86\n      jump\t// in\n    tag_147:\n        /* \"#utility.yul\":5243:5317   */\n      swap2\n      pop\n        /* \"#utility.yul\":5326:5419   */\n      tag_148\n        /* \"#utility.yul\":5415:5418   */\n      dup3\n        /* \"#utility.yul\":5326:5419   */\n      tag_92\n      jump\t// in\n    tag_148:\n        /* \"#utility.yul\":5444:5446   */\n      0x20\n        /* \"#utility.yul\":5439:5442   */\n      dup3\n        /* \"#utility.yul\":5435:5447   */\n      add\n        /* \"#utility.yul\":5428:5447   */\n      swap1\n      pop\n        /* \"#utility.yul\":5087:5453   */\n      swap2\n      swap1\n      pop\n      jump\t// out\n        /* \"#utility.yul\":5459:5878   */\n    tag_69:\n        /* \"#utility.yul\":5625:5629   */\n      0x00\n        /* \"#utility.yul\":5663:5665   */\n      0x20\n        /* \"#utility.yul\":5652:5661   */\n      dup3\n        /* \"#utility.yul\":5648:5666   */\n      add\n        /* \"#utility.yul\":5640:5666   */\n      swap1\n      pop\n        /* \"#utility.yul\":5712:5721   */\n      dup2\n        /* \"#utility.yul\":5706:5710   */\n      dup2\n        /* \"#utility.yul\":5702:5722   */\n      sub\n        /* \"#utility.yul\":5698:5699   */\n      0x00\n        /* \"#utility.yul\":5687:5696   */\n      dup4\n        /* \"#utility.yul\":5683:5700   */\n      add\n        /* \"#utility.yul\":5676:5723   */\n      mstore\n        /* \"#utility.yul\":5740:5871   */\n      tag_150\n        /* \"#utility.yul\":5866:5870   */\n      dup2\n        /* \"#utility.yul\":5740:5871   */\n      tag_93\n      jump\t// in\n    tag_150:\n        /* \"#utility.yul\":5732:5871   */\n      swap1\n      pop\n        /* \"#utility.yul\":5459:5878   */\n      swap2\n      swap1\n      pop\n      jump\t// out\n        /* \"#utility.yul\":5884:6120   */\n    tag_94:\n        /* \"#utility.yul\":6024:6058   */\n      0x5573746564206e6f207469656e65207065726d69736f7320706172612066696e\n        /* \"#utility.yul\":6020:6021   */\n      0x00\n        /* \"#utility.yul\":6012:6018   */\n      dup3\n        /* \"#utility.yul\":6008:6022   */\n      add\n        /* \"#utility.yul\":6001:6059   */\n      mstore\n        /* \"#utility.yul\":6093:6112   */\n      0x616c697a6172206c612073756261737461000000000000000000000000000000\n        /* \"#utility.yul\":6088:6090   */\n      0x20\n        /* \"#utility.yul\":6080:6086   */\n      dup3\n        /* \"#utility.yul\":6076:6091   */\n      add\n        /* \"#utility.yul\":6069:6113   */\n      mstore\n        /* \"#utility.yul\":5884:6120   */\n      pop\n      jump\t// out\n        /* \"#utility.yul\":6126:6492   */\n    tag_95:\n        /* \"#utility.yul\":6268:6271   */\n      0x00\n        /* \"#utility.yul\":6289:6356   */\n      tag_153\n        /* \"#utility.yul\":6353:6355   */\n      0x31\n        /* \"#utility.yul\":6348:6351   */\n      dup4\n        /* \"#utility.yul\":6289:6356   */\n      tag_86\n      jump\t// in\n    tag_153:\n        /* \"#utility.yul\":6282:6356   */\n      swap2\n      pop\n        /* \"#utility.yul\":6365:6458   */\n      tag_154\n        /* \"#utility.yul\":6454:6457   */\n      dup3\n        /* \"#utility.yul\":6365:6458   */\n      tag_94\n      jump\t// in\n    tag_154:\n        /* \"#utility.yul\":6483:6485   */\n      0x40\n        /* \"#utility.yul\":6478:6481   */\n      dup3\n        /* \"#utility.yul\":6474:6486   */\n      add\n        /* \"#utility.yul\":6467:6486   */\n      swap1\n      pop\n        /* \"#utility.yul\":6126:6492   */\n      swap2\n      swap1\n      pop\n      jump\t// out\n        /* \"#utility.yul\":6498:6917   */\n    tag_73:\n        /* \"#utility.yul\":6664:6668   */\n      0x00\n        /* \"#utility.yul\":6702:6704   */\n      0x20\n        /* \"#utility.yul\":6691:6700   */\n      dup3\n        /* \"#utility.yul\":6687:6705   */\n      add\n        /* \"#utility.yul\":6679:6705   */\n      swap1\n      pop\n        /* \"#utility.yul\":6751:6760   */\n      dup2\n        /* \"#utility.yul\":6745:6749   */\n      dup2\n        /* \"#utility.yul\":6741:6761   */\n      sub\n        /* \"#utility.yul\":6737:6738   */\n      0x00\n        /* \"#utility.yul\":6726:6735   */\n      dup4\n        /* \"#utility.yul\":6722:6739   */\n      add\n        /* \"#utility.yul\":6715:6762   */\n      mstore\n        /* \"#utility.yul\":6779:6910   */\n      tag_156\n        /* \"#utility.yul\":6905:6909   */\n      dup2\n        /* \"#utility.yul\":6779:6910   */\n      tag_95\n      jump\t// in\n    tag_156:\n        /* \"#utility.yul\":6771:6910   */\n      swap1\n      pop\n        /* \"#utility.yul\":6498:6917   */\n      swap2\n      swap1\n      pop\n      jump\t// out\n\n    auxdata: 0xa2646970667358221220fb31e42e20a4812278a4c088f38e2e53e5e4de6545a1cb2834b1da48a6f778d564736f6c634300081a0033\n}\n",
				"bytecode": {
					"linkReferences": {},
					"object": "6080604052348015600e575f80fd5b503360055f6101000a81548173ffffffffffffffffffffffffffffffffffffffff021916908373ffffffffffffffffffffffffffffffffffffffff160217905550633b9aca005f819055504260018190555062093a80600154606f919060af565b60028190555060db565b5f819050919050565b7f4e487b71000000000000000000000000000000000000000000000000000000005f52601160045260245ffd5b5f60b7826079565b915060c0836079565b925082820190508082111560d55760d46082565b5b92915050565b61085b806100e85f395ff3fe608060405260043610610090575f3560e01c806383f280941161005857806383f2809414610144578063865493691461016e5780638da5cb5b14610198578063cb4ee133146101c2578063fc373179146101ec57610090565b8063209e1d46146100945780633483b353146100be57806335e55041146100fa5780633f0cc5e81461012457806371b42bd01461012e575b5f80fd5b34801561009f575f80fd5b506100a8610216565b6040516100b59190610518565b60405180910390f35b3480156100c9575f80fd5b506100e460048036038101906100df919061055f565b61023e565b6040516100f191906105a2565b60405180910390f35b348015610105575f80fd5b5061010e610253565b60405161011b91906105a2565b60405180910390f35b61012c61025c565b005b348015610139575f80fd5b506101426103e3565b005b34801561014f575f80fd5b50610158610490565b60405161016591906105a2565b60405180910390f35b348015610179575f80fd5b50610182610495565b60405161018f91906105a2565b60405180910390f35b3480156101a3575f80fd5b506101ac61049b565b6040516101b99190610518565b60405180910390f35b3480156101cd575f80fd5b506101d66104c0565b6040516101e391906105d6565b60405180910390f35b3480156101f7575f80fd5b506102006104d3565b60405161020d91906105a2565b60405180910390f35b5f60045f9054906101000a900473ffffffffffffffffffffffffffffffffffffffff16905090565b6006602052805f5260405f205f915090505481565b5f600354905090565b5f600460149054906101000a900460ff1660ff16146102b0576040517f08c379a00000000000000000000000000000000000000000000000000000000081526004016102a790610649565b60405180910390fd5b5f3490505f5481116102f7576040517f08c379a00000000000000000000000000000000000000000000000000000000081526004016102ee906106b1565b60405180910390fd5b6003548111156103a5575f339050816003819055508060045f6101000a81548173ffffffffffffffffffffffffffffffffffffffff021916908373ffffffffffffffffffffffffffffffffffffffff1602179055508160065f8373ffffffffffffffffffffffffffffffffffffffff1673ffffffffffffffffffffffffffffffffffffffff1681526020019081526020015f205f82825461039891906106fc565b92505081905550506103e0565b6040517f08c379a00000000000000000000000000000000000000000000000000000000081526004016103d790610779565b60405180910390fd5b50565b3373ffffffffffffffffffffffffffffffffffffffff1660055f9054906101000a900473ffffffffffffffffffffffffffffffffffffffff1673ffffffffffffffffffffffffffffffffffffffff1614610472576040517f08c379a000000000000000000000000000000000000000000000000000000000815260040161046990610807565b60405180910390fd5b6001600460146101000a81548160ff021916908360ff160217905550565b5f5481565b60025481565b60055f9054906101000a900473ffffffffffffffffffffffffffffffffffffffff1681565b600460149054906101000a900460ff1681565b60015481565b5f73ffffffffffffffffffffffffffffffffffffffff82169050919050565b5f610502826104d9565b9050919050565b610512816104f8565b82525050565b5f60208201905061052b5f830184610509565b92915050565b5f80fd5b61053e816104f8565b8114610548575f80fd5b50565b5f8135905061055981610535565b92915050565b5f6020828403121561057457610573610531565b5b5f6105818482850161054b565b91505092915050565b5f819050919050565b61059c8161058a565b82525050565b5f6020820190506105b55f830184610593565b92915050565b5f60ff82169050919050565b6105d0816105bb565b82525050565b5f6020820190506105e95f8301846105c7565b92915050565b5f82825260208201905092915050565b7f4c6120737562617374612068612066696e616c697a61646f00000000000000005f82015250565b5f6106336018836105ef565b915061063e826105ff565b602082019050919050565b5f6020820190508181035f83015261066081610627565b9050919050565b7f56616c6f72206d656e6f7220616c20696e696369616c000000000000000000005f82015250565b5f61069b6016836105ef565b91506106a682610667565b602082019050919050565b5f6020820190508181035f8301526106c88161068f565b9050919050565b7f4e487b71000000000000000000000000000000000000000000000000000000005f52601160045260245ffd5b5f6107068261058a565b91506107118361058a565b9250828201905080821115610729576107286106cf565b5b92915050565b7f4e6f20737570657261737465206c61206d61796f72206f6665727461000000005f82015250565b5f610763601c836105ef565b915061076e8261072f565b602082019050919050565b5f6020820190508181035f83015261079081610757565b9050919050565b7f5573746564206e6f207469656e65207065726d69736f7320706172612066696e5f8201527f616c697a6172206c612073756261737461000000000000000000000000000000602082015250565b5f6107f16031836105ef565b91506107fc82610797565b604082019050919050565b5f6020820190508181035f83015261081e816107e5565b905091905056fea2646970667358221220fb31e42e20a4812278a4c088f38e2e53e5e4de6545a1cb2834b1da48a6f778d564736f6c634300081a0033",
					"opcodes": "PUSH1 0x80 PUSH1 0x40 MSTORE CALLVALUE DUP1 ISZERO PUSH1 0xE JUMPI PUSH0 DUP1 REVERT JUMPDEST POP CALLER PUSH1 0x5 PUSH0 PUSH2 0x100 EXP DUP2 SLOAD DUP2 PUSH20 0xFFFFFFFFFFFFFFFFFFFFFFFFFFFFFFFFFFFFFFFF MUL NOT AND SWAP1 DUP4 PUSH20 0xFFFFFFFFFFFFFFFFFFFFFFFFFFFFFFFFFFFFFFFF AND MUL OR SWAP1 SSTORE POP PUSH4 0x3B9ACA00 PUSH0 DUP2 SWAP1 SSTORE POP TIMESTAMP PUSH1 0x1 DUP2 SWAP1 SSTORE POP PUSH3 0x93A80 PUSH1 0x1 SLOAD PUSH1 0x6F SWAP2 SWAP1 PUSH1 0xAF JUMP JUMPDEST PUSH1 0x2 DUP2 SWAP1 SSTORE POP PUSH1 0xDB JUMP JUMPDEST PUSH0 DUP2 SWAP1 POP SWAP2 SWAP1 POP JUMP JUMPDEST PUSH32 0x4E487B7100000000000000000000000000000000000000000000000000000000 PUSH0 MSTORE PUSH1 0x11 PUSH1 0x4 MSTORE PUSH1 0x24 PUSH0 REVERT JUMPDEST PUSH0 PUSH1 0xB7 DUP3 PUSH1 0x79 JUMP JUMPDEST SWAP2 POP PUSH1 0xC0 DUP4 PUSH1 0x79 JUMP JUMPDEST SWAP3 POP DUP3 DUP3 ADD SWAP1 POP DUP1 DUP3 GT ISZERO PUSH1 0xD5 JUMPI PUSH1 0xD4 PUSH1 0x82 JUMP JUMPDEST JUMPDEST SWAP3 SWAP2 POP POP JUMP JUMPDEST PUSH2 0x85B DUP1 PUSH2 0xE8 PUSH0 CODECOPY PUSH0 RETURN INVALID PUSH1 0x80 PUSH1 0x40 MSTORE PUSH1 0x4 CALLDATASIZE LT PUSH2 0x90 JUMPI PUSH0 CALLDATALOAD PUSH1 0xE0 SHR DUP1 PUSH4 0x83F28094 GT PUSH2 0x58 JUMPI DUP1 PUSH4 0x83F28094 EQ PUSH2 0x144 JUMPI DUP1 PUSH4 0x86549369 EQ PUSH2 0x16E JUMPI DUP1 PUSH4 0x8DA5CB5B EQ PUSH2 0x198 JUMPI DUP1 PUSH4 0xCB4EE133 EQ PUSH2 0x1C2 JUMPI DUP1 PUSH4 0xFC373179 EQ PUSH2 0x1EC JUMPI PUSH2 0x90 JUMP JUMPDEST DUP1 PUSH4 0x209E1D46 EQ PUSH2 0x94 JUMPI DUP1 PUSH4 0x3483B353 EQ PUSH2 0xBE JUMPI DUP1 PUSH4 0x35E55041 EQ PUSH2 0xFA JUMPI DUP1 PUSH4 0x3F0CC5E8 EQ PUSH2 0x124 JUMPI DUP1 PUSH4 0x71B42BD0 EQ PUSH2 0x12E JUMPI JUMPDEST PUSH0 DUP1 REVERT JUMPDEST CALLVALUE DUP1 ISZERO PUSH2 0x9F JUMPI PUSH0 DUP1 REVERT JUMPDEST POP PUSH2 0xA8 PUSH2 0x216 JUMP JUMPDEST PUSH1 0x40 MLOAD PUSH2 0xB5 SWAP2 SWAP1 PUSH2 0x518 JUMP JUMPDEST PUSH1 0x40 MLOAD DUP1 SWAP2 SUB SWAP1 RETURN JUMPDEST CALLVALUE DUP1 ISZERO PUSH2 0xC9 JUMPI PUSH0 DUP1 REVERT JUMPDEST POP PUSH2 0xE4 PUSH1 0x4 DUP1 CALLDATASIZE SUB DUP2 ADD SWAP1 PUSH2 0xDF SWAP2 SWAP1 PUSH2 0x55F JUMP JUMPDEST PUSH2 0x23E JUMP JUMPDEST PUSH1 0x40 MLOAD PUSH2 0xF1 SWAP2 SWAP1 PUSH2 0x5A2 JUMP JUMPDEST PUSH1 0x40 MLOAD DUP1 SWAP2 SUB SWAP1 RETURN JUMPDEST CALLVALUE DUP1 ISZERO PUSH2 0x105 JUMPI PUSH0 DUP1 REVERT JUMPDEST POP PUSH2 0x10E PUSH2 0x253 JUMP JUMPDEST PUSH1 0x40 MLOAD PUSH2 0x11B SWAP2 SWAP1 PUSH2 0x5A2 JUMP JUMPDEST PUSH1 0x40 MLOAD DUP1 SWAP2 SUB SWAP1 RETURN JUMPDEST PUSH2 0x12C PUSH2 0x25C JUMP JUMPDEST STOP JUMPDEST CALLVALUE DUP1 ISZERO PUSH2 0x139 JUMPI PUSH0 DUP1 REVERT JUMPDEST POP PUSH2 0x142 PUSH2 0x3E3 JUMP JUMPDEST STOP JUMPDEST CALLVALUE DUP1 ISZERO PUSH2 0x14F JUMPI PUSH0 DUP1 REVERT JUMPDEST POP PUSH2 0x158 PUSH2 0x490 JUMP JUMPDEST PUSH1 0x40 MLOAD PUSH2 0x165 SWAP2 SWAP1 PUSH2 0x5A2 JUMP JUMPDEST PUSH1 0x40 MLOAD DUP1 SWAP2 SUB SWAP1 RETURN JUMPDEST CALLVALUE DUP1 ISZERO PUSH2 0x179 JUMPI PUSH0 DUP1 REVERT JUMPDEST POP PUSH2 0x182 PUSH2 0x495 JUMP JUMPDEST PUSH1 0x40 MLOAD PUSH2 0x18F SWAP2 SWAP1 PUSH2 0x5A2 JUMP JUMPDEST PUSH1 0x40 MLOAD DUP1 SWAP2 SUB SWAP1 RETURN JUMPDEST CALLVALUE DUP1 ISZERO PUSH2 0x1A3 JUMPI PUSH0 DUP1 REVERT JUMPDEST POP PUSH2 0x1AC PUSH2 0x49B JUMP JUMPDEST PUSH1 0x40 MLOAD PUSH2 0x1B9 SWAP2 SWAP1 PUSH2 0x518 JUMP JUMPDEST PUSH1 0x40 MLOAD DUP1 SWAP2 SUB SWAP1 RETURN JUMPDEST CALLVALUE DUP1 ISZERO PUSH2 0x1CD JUMPI PUSH0 DUP1 REVERT JUMPDEST POP PUSH2 0x1D6 PUSH2 0x4C0 JUMP JUMPDEST PUSH1 0x40 MLOAD PUSH2 0x1E3 SWAP2 SWAP1 PUSH2 0x5D6 JUMP JUMPDEST PUSH1 0x40 MLOAD DUP1 SWAP2 SUB SWAP1 RETURN JUMPDEST CALLVALUE DUP1 ISZERO PUSH2 0x1F7 JUMPI PUSH0 DUP1 REVERT JUMPDEST POP PUSH2 0x200 PUSH2 0x4D3 JUMP JUMPDEST PUSH1 0x40 MLOAD PUSH2 0x20D SWAP2 SWAP1 PUSH2 0x5A2 JUMP JUMPDEST PUSH1 0x40 MLOAD DUP1 SWAP2 SUB SWAP1 RETURN JUMPDEST PUSH0 PUSH1 0x4 PUSH0 SWAP1 SLOAD SWAP1 PUSH2 0x100 EXP SWAP1 DIV PUSH20 0xFFFFFFFFFFFFFFFFFFFFFFFFFFFFFFFFFFFFFFFF AND SWAP1 POP SWAP1 JUMP JUMPDEST PUSH1 0x6 PUSH1 0x20 MSTORE DUP1 PUSH0 MSTORE PUSH1 0x40 PUSH0 KECCAK256 PUSH0 SWAP2 POP SWAP1 POP SLOAD DUP2 JUMP JUMPDEST PUSH0 PUSH1 0x3 SLOAD SWAP1 POP SWAP1 JUMP JUMPDEST PUSH0 PUSH1 0x4 PUSH1 0x14 SWAP1 SLOAD SWAP1 PUSH2 0x100 EXP SWAP1 DIV PUSH1 0xFF AND PUSH1 0xFF AND EQ PUSH2 0x2B0 JUMPI PUSH1 0x40 MLOAD PUSH32 0x8C379A000000000000000000000000000000000000000000000000000000000 DUP2 MSTORE PUSH1 0x4 ADD PUSH2 0x2A7 SWAP1 PUSH2 0x649 JUMP JUMPDEST PUSH1 0x40 MLOAD DUP1 SWAP2 SUB SWAP1 REVERT JUMPDEST PUSH0 CALLVALUE SWAP1 POP PUSH0 SLOAD DUP2 GT PUSH2 0x2F7 JUMPI PUSH1 0x40 MLOAD PUSH32 0x8C379A000000000000000000000000000000000000000000000000000000000 DUP2 MSTORE PUSH1 0x4 ADD PUSH2 0x2EE SWAP1 PUSH2 0x6B1 JUMP JUMPDEST PUSH1 0x40 MLOAD DUP1 SWAP2 SUB SWAP1 REVERT JUMPDEST PUSH1 0x3 SLOAD DUP2 GT ISZERO PUSH2 0x3A5 JUMPI PUSH0 CALLER SWAP1 POP DUP2 PUSH1 0x3 DUP2 SWAP1 SSTORE POP DUP1 PUSH1 0x4 PUSH0 PUSH2 0x100 EXP DUP2 SLOAD DUP2 PUSH20 0xFFFFFFFFFFFFFFFFFFFFFFFFFFFFFFFFFFFFFFFF MUL NOT AND SWAP1 DUP4 PUSH20 0xFFFFFFFFFFFFFFFFFFFFFFFFFFFFFFFFFFFFFFFF AND MUL OR SWAP1 SSTORE POP DUP2 PUSH1 0x6 PUSH0 DUP4 PUSH20 0xFFFFFFFFFFFFFFFFFFFFFFFFFFFFFFFFFFFFFFFF AND PUSH20 0xFFFFFFFFFFFFFFFFFFFFFFFFFFFFFFFFFFFFFFFF AND DUP2 MSTORE PUSH1 0x20 ADD SWAP1 DUP2 MSTORE PUSH1 0x20 ADD PUSH0 KECCAK256 PUSH0 DUP3 DUP3 SLOAD PUSH2 0x398 SWAP2 SWAP1 PUSH2 0x6FC JUMP JUMPDEST SWAP3 POP POP DUP2 SWAP1 SSTORE POP POP PUSH2 0x3E0 JUMP JUMPDEST PUSH1 0x40 MLOAD PUSH32 0x8C379A000000000000000000000000000000000000000000000000000000000 DUP2 MSTORE PUSH1 0x4 ADD PUSH2 0x3D7 SWAP1 PUSH2 0x779 JUMP JUMPDEST PUSH1 0x40 MLOAD DUP1 SWAP2 SUB SWAP1 REVERT JUMPDEST POP JUMP JUMPDEST CALLER PUSH20 0xFFFFFFFFFFFFFFFFFFFFFFFFFFFFFFFFFFFFFFFF AND PUSH1 0x5 PUSH0 SWAP1 SLOAD SWAP1 PUSH2 0x100 EXP SWAP1 DIV PUSH20 0xFFFFFFFFFFFFFFFFFFFFFFFFFFFFFFFFFFFFFFFF AND PUSH20 0xFFFFFFFFFFFFFFFFFFFFFFFFFFFFFFFFFFFFFFFF AND EQ PUSH2 0x472 JUMPI PUSH1 0x40 MLOAD PUSH32 0x8C379A000000000000000000000000000000000000000000000000000000000 DUP2 MSTORE PUSH1 0x4 ADD PUSH2 0x469 SWAP1 PUSH2 0x807 JUMP JUMPDEST PUSH1 0x40 MLOAD DUP1 SWAP2 SUB SWAP1 REVERT JUMPDEST PUSH1 0x1 PUSH1 0x4 PUSH1 0x14 PUSH2 0x100 EXP DUP2 SLOAD DUP2 PUSH1 0xFF MUL NOT AND SWAP1 DUP4 PUSH1 0xFF AND MUL OR SWAP1 SSTORE POP JUMP JUMPDEST PUSH0 SLOAD DUP2 JUMP JUMPDEST PUSH1 0x2 SLOAD DUP2 JUMP JUMPDEST PUSH1 0x5 PUSH0 SWAP1 SLOAD SWAP1 PUSH2 0x100 EXP SWAP1 DIV PUSH20 0xFFFFFFFFFFFFFFFFFFFFFFFFFFFFFFFFFFFFFFFF AND DUP2 JUMP JUMPDEST PUSH1 0x4 PUSH1 0x14 SWAP1 SLOAD SWAP1 PUSH2 0x100 EXP SWAP1 DIV PUSH1 0xFF AND DUP2 JUMP JUMPDEST PUSH1 0x1 SLOAD DUP2 JUMP JUMPDEST PUSH0 PUSH20 0xFFFFFFFFFFFFFFFFFFFFFFFFFFFFFFFFFFFFFFFF DUP3 AND SWAP1 POP SWAP2 SWAP1 POP JUMP JUMPDEST PUSH0 PUSH2 0x502 DUP3 PUSH2 0x4D9 JUMP JUMPDEST SWAP1 POP SWAP2 SWAP1 POP JUMP JUMPDEST PUSH2 0x512 DUP2 PUSH2 0x4F8 JUMP JUMPDEST DUP3 MSTORE POP POP JUMP JUMPDEST PUSH0 PUSH1 0x20 DUP3 ADD SWAP1 POP PUSH2 0x52B PUSH0 DUP4 ADD DUP5 PUSH2 0x509 JUMP JUMPDEST SWAP3 SWAP2 POP POP JUMP JUMPDEST PUSH0 DUP1 REVERT JUMPDEST PUSH2 0x53E DUP2 PUSH2 0x4F8 JUMP JUMPDEST DUP2 EQ PUSH2 0x548 JUMPI PUSH0 DUP1 REVERT JUMPDEST POP JUMP JUMPDEST PUSH0 DUP2 CALLDATALOAD SWAP1 POP PUSH2 0x559 DUP2 PUSH2 0x535 JUMP JUMPDEST SWAP3 SWAP2 POP POP JUMP JUMPDEST PUSH0 PUSH1 0x20 DUP3 DUP5 SUB SLT ISZERO PUSH2 0x574 JUMPI PUSH2 0x573 PUSH2 0x531 JUMP JUMPDEST JUMPDEST PUSH0 PUSH2 0x581 DUP5 DUP3 DUP6 ADD PUSH2 0x54B JUMP JUMPDEST SWAP2 POP POP SWAP3 SWAP2 POP POP JUMP JUMPDEST PUSH0 DUP2 SWAP1 POP SWAP2 SWAP1 POP JUMP JUMPDEST PUSH2 0x59C DUP2 PUSH2 0x58A JUMP JUMPDEST DUP3 MSTORE POP POP JUMP JUMPDEST PUSH0 PUSH1 0x20 DUP3 ADD SWAP1 POP PUSH2 0x5B5 PUSH0 DUP4 ADD DUP5 PUSH2 0x593 JUMP JUMPDEST SWAP3 SWAP2 POP POP JUMP JUMPDEST PUSH0 PUSH1 0xFF DUP3 AND SWAP1 POP SWAP2 SWAP1 POP JUMP JUMPDEST PUSH2 0x5D0 DUP2 PUSH2 0x5BB JUMP JUMPDEST DUP3 MSTORE POP POP JUMP JUMPDEST PUSH0 PUSH1 0x20 DUP3 ADD SWAP1 POP PUSH2 0x5E9 PUSH0 DUP4 ADD DUP5 PUSH2 0x5C7 JUMP JUMPDEST SWAP3 SWAP2 POP POP JUMP JUMPDEST PUSH0 DUP3 DUP3 MSTORE PUSH1 0x20 DUP3 ADD SWAP1 POP SWAP3 SWAP2 POP POP JUMP JUMPDEST PUSH32 0x4C6120737562617374612068612066696E616C697A61646F0000000000000000 PUSH0 DUP3 ADD MSTORE POP JUMP JUMPDEST PUSH0 PUSH2 0x633 PUSH1 0x18 DUP4 PUSH2 0x5EF JUMP JUMPDEST SWAP2 POP PUSH2 0x63E DUP3 PUSH2 0x5FF JUMP JUMPDEST PUSH1 0x20 DUP3 ADD SWAP1 POP SWAP2 SWAP1 POP JUMP JUMPDEST PUSH0 PUSH1 0x20 DUP3 ADD SWAP1 POP DUP2 DUP2 SUB PUSH0 DUP4 ADD MSTORE PUSH2 0x660 DUP2 PUSH2 0x627 JUMP JUMPDEST SWAP1 POP SWAP2 SWAP1 POP JUMP JUMPDEST PUSH32 0x56616C6F72206D656E6F7220616C20696E696369616C00000000000000000000 PUSH0 DUP3 ADD MSTORE POP JUMP JUMPDEST PUSH0 PUSH2 0x69B PUSH1 0x16 DUP4 PUSH2 0x5EF JUMP JUMPDEST SWAP2 POP PUSH2 0x6A6 DUP3 PUSH2 0x667 JUMP JUMPDEST PUSH1 0x20 DUP3 ADD SWAP1 POP SWAP2 SWAP1 POP JUMP JUMPDEST PUSH0 PUSH1 0x20 DUP3 ADD SWAP1 POP DUP2 DUP2 SUB PUSH0 DUP4 ADD MSTORE PUSH2 0x6C8 DUP2 PUSH2 0x68F JUMP JUMPDEST SWAP1 POP SWAP2 SWAP1 POP JUMP JUMPDEST PUSH32 0x4E487B7100000000000000000000000000000000000000000000000000000000 PUSH0 MSTORE PUSH1 0x11 PUSH1 0x4 MSTORE PUSH1 0x24 PUSH0 REVERT JUMPDEST PUSH0 PUSH2 0x706 DUP3 PUSH2 0x58A JUMP JUMPDEST SWAP2 POP PUSH2 0x711 DUP4 PUSH2 0x58A JUMP JUMPDEST SWAP3 POP DUP3 DUP3 ADD SWAP1 POP DUP1 DUP3 GT ISZERO PUSH2 0x729 JUMPI PUSH2 0x728 PUSH2 0x6CF JUMP JUMPDEST JUMPDEST SWAP3 SWAP2 POP POP JUMP JUMPDEST PUSH32 0x4E6F20737570657261737465206C61206D61796F72206F666572746100000000 PUSH0 DUP3 ADD MSTORE POP JUMP JUMPDEST PUSH0 PUSH2 0x763 PUSH1 0x1C DUP4 PUSH2 0x5EF JUMP JUMPDEST SWAP2 POP PUSH2 0x76E DUP3 PUSH2 0x72F JUMP JUMPDEST PUSH1 0x20 DUP3 ADD SWAP1 POP SWAP2 SWAP1 POP JUMP JUMPDEST PUSH0 PUSH1 0x20 DUP3 ADD SWAP1 POP DUP2 DUP2 SUB PUSH0 DUP4 ADD MSTORE PUSH2 0x790 DUP2 PUSH2 0x757 JUMP JUMPDEST SWAP1 POP SWAP2 SWAP1 POP JUMP JUMPDEST PUSH32 0x5573746564206E6F207469656E65207065726D69736F7320706172612066696E PUSH0 DUP3 ADD MSTORE PUSH32 0x616C697A6172206C612073756261737461000000000000000000000000000000 PUSH1 0x20 DUP3 ADD MSTORE POP JUMP JUMPDEST PUSH0 PUSH2 0x7F1 PUSH1 0x31 DUP4 PUSH2 0x5EF JUMP JUMPDEST SWAP2 POP PUSH2 0x7FC DUP3 PUSH2 0x797 JUMP JUMPDEST PUSH1 0x40 DUP3 ADD SWAP1 POP SWAP2 SWAP1 POP JUMP JUMPDEST PUSH0 PUSH1 0x20 DUP3 ADD SWAP1 POP DUP2 DUP2 SUB PUSH0 DUP4 ADD MSTORE PUSH2 0x81E DUP2 PUSH2 0x7E5 JUMP JUMPDEST SWAP1 POP SWAP2 SWAP1 POP JUMP INVALID LOG2 PUSH5 0x6970667358 0x22 SLT KECCAK256 0xFB BALANCE 0xE4 0x2E KECCAK256 LOG4 DUP2 0x22 PUSH25 0xA4C088F38E2E53E5E4DE6545A1CB2834B1DA48A6F778D56473 PUSH16 0x6C634300081A00330000000000000000 "
				},
				"gasEstimates": {
					"creation": {
						"codeDepositCost": "427800",
						"executionCost": "infinite",
						"totalCost": "infinite"
					},
					"external": {
						"FinalizarSubasta()": "26718",
						"fechaInicio()": "2513",
						"getMayorOferta()": "2477",
						"getOferenteGanador()": "2516",
						"owner()": "2552",
						"semaforo()": "2583",
						"setOferta()": "infinite",
						"tiempoDuracion()": "2447",
						"valorInicial()": "2424",
						"valorMetido(address)": "2825"
					}
				},
				"methodIdentifiers": {
					"FinalizarSubasta()": "71b42bd0",
					"fechaInicio()": "fc373179",
					"getMayorOferta()": "35e55041",
					"getOferenteGanador()": "209e1d46",
					"owner()": "8da5cb5b",
					"semaforo()": "cb4ee133",
					"setOferta()": "3f0cc5e8",
					"tiempoDuracion()": "86549369",
					"valorInicial()": "83f28094",
					"valorMetido(address)": "3483b353"
				}
			},
			"storageLayout": {
				"storage": [
					{
						"astId": 3,
						"contract": "Subasta.sol:Subasta",
						"label": "valorInicial",
						"offset": 0,
						"slot": "0",
						"type": "t_uint256"
					},
					{
						"astId": 5,
						"contract": "Subasta.sol:Subasta",
						"label": "fechaInicio",
						"offset": 0,
						"slot": "1",
						"type": "t_uint256"
					},
					{
						"astId": 7,
						"contract": "Subasta.sol:Subasta",
						"label": "tiempoDuracion",
						"offset": 0,
						"slot": "2",
						"type": "t_uint256"
					},
					{
						"astId": 9,
						"contract": "Subasta.sol:Subasta",
						"label": "mayorOferta",
						"offset": 0,
						"slot": "3",
						"type": "t_uint256"
					},
					{
						"astId": 11,
						"contract": "Subasta.sol:Subasta",
						"label": "ofertanteGanador",
						"offset": 0,
						"slot": "4",
						"type": "t_address"
					},
					{
						"astId": 13,
						"contract": "Subasta.sol:Subasta",
						"label": "semaforo",
						"offset": 20,
						"slot": "4",
						"type": "t_uint8"
					},
					{
						"astId": 15,
						"contract": "Subasta.sol:Subasta",
						"label": "owner",
						"offset": 0,
						"slot": "5",
						"type": "t_address"
					},
					{
						"astId": 19,
						"contract": "Subasta.sol:Subasta",
						"label": "valorMetido",
						"offset": 0,
						"slot": "6",
						"type": "t_mapping(t_address,t_uint256)"
					}
				],
				"types": {
					"t_address": {
						"encoding": "inplace",
						"label": "address",
						"numberOfBytes": "20"
					},
					"t_mapping(t_address,t_uint256)": {
						"encoding": "mapping",
						"key": "t_address",
						"label": "mapping(address => uint256)",
						"numberOfBytes": "32",
						"value": "t_uint256"
					},
					"t_uint256": {
						"encoding": "inplace",
						"label": "uint256",
						"numberOfBytes": "32"
					},
					"t_uint8": {
						"encoding": "inplace",
						"label": "uint8",
						"numberOfBytes": "1"
					}
				}
			},
			"userdoc": {
				"kind": "user",
				"methods": {},
				"version": 1
			}
		}
	}
}