{
	"contracts/SimpleDEXv2.sol": {
		"SimpleDEX": {
			"abi": [
				{
					"inputs": [
						{
							"internalType": "address",
							"name": "_tokenA",
							"type": "address"
						},
						{
							"internalType": "address",
							"name": "_tokenB",
							"type": "address"
						}
					],
					"stateMutability": "nonpayable",
					"type": "constructor"
				},
				{
					"anonymous": false,
					"inputs": [
						{
							"indexed": true,
							"internalType": "address",
							"name": "provider",
							"type": "address"
						},
						{
							"indexed": false,
							"internalType": "uint256",
							"name": "amountA",
							"type": "uint256"
						},
						{
							"indexed": false,
							"internalType": "uint256",
							"name": "amountB",
							"type": "uint256"
						}
					],
					"name": "LiquidityAdded",
					"type": "event"
				},
				{
					"anonymous": false,
					"inputs": [
						{
							"indexed": true,
							"internalType": "address",
							"name": "provider",
							"type": "address"
						},
						{
							"indexed": false,
							"internalType": "uint256",
							"name": "amountA",
							"type": "uint256"
						},
						{
							"indexed": false,
							"internalType": "uint256",
							"name": "amountB",
							"type": "uint256"
						}
					],
					"name": "LiquidityRemoved",
					"type": "event"
				},
				{
					"anonymous": false,
					"inputs": [
						{
							"indexed": true,
							"internalType": "address",
							"name": "swapper",
							"type": "address"
						},
						{
							"indexed": false,
							"internalType": "uint256",
							"name": "amountAIn",
							"type": "uint256"
						},
						{
							"indexed": false,
							"internalType": "uint256",
							"name": "amountBOut",
							"type": "uint256"
						}
					],
					"name": "SwapAforB",
					"type": "event"
				},
				{
					"anonymous": false,
					"inputs": [
						{
							"indexed": true,
							"internalType": "address",
							"name": "swapper",
							"type": "address"
						},
						{
							"indexed": false,
							"internalType": "uint256",
							"name": "amountBIn",
							"type": "uint256"
						},
						{
							"indexed": false,
							"internalType": "uint256",
							"name": "amountAOut",
							"type": "uint256"
						}
					],
					"name": "SwapBforA",
					"type": "event"
				},
				{
					"inputs": [
						{
							"internalType": "uint256",
							"name": "amountA",
							"type": "uint256"
						},
						{
							"internalType": "uint256",
							"name": "amountB",
							"type": "uint256"
						}
					],
					"name": "addLiquidity",
					"outputs": [],
					"stateMutability": "nonpayable",
					"type": "function"
				},
				{
					"inputs": [
						{
							"internalType": "address",
							"name": "_token",
							"type": "address"
						}
					],
					"name": "getPrice",
					"outputs": [
						{
							"internalType": "uint256",
							"name": "",
							"type": "uint256"
						}
					],
					"stateMutability": "view",
					"type": "function"
				},
				{
					"inputs": [],
					"name": "owner",
					"outputs": [
						{
							"internalType": "address",
							"name": "",
							"type": "address"
						}
					],
					"stateMutability": "view",
					"type": "function"
				},
				{
					"inputs": [
						{
							"internalType": "uint256",
							"name": "amountA",
							"type": "uint256"
						},
						{
							"internalType": "uint256",
							"name": "amountB",
							"type": "uint256"
						}
					],
					"name": "removeLiquidity",
					"outputs": [],
					"stateMutability": "nonpayable",
					"type": "function"
				},
				{
					"inputs": [],
					"name": "reserveA",
					"outputs": [
						{
							"internalType": "uint256",
							"name": "",
							"type": "uint256"
						}
					],
					"stateMutability": "view",
					"type": "function"
				},
				{
					"inputs": [],
					"name": "reserveB",
					"outputs": [
						{
							"internalType": "uint256",
							"name": "",
							"type": "uint256"
						}
					],
					"stateMutability": "view",
					"type": "function"
				},
				{
					"inputs": [
						{
							"internalType": "uint256",
							"name": "amountAIn",
							"type": "uint256"
						}
					],
					"name": "swapAforB",
					"outputs": [],
					"stateMutability": "nonpayable",
					"type": "function"
				},
				{
					"inputs": [
						{
							"internalType": "uint256",
							"name": "amountBIn",
							"type": "uint256"
						}
					],
					"name": "swapBforA",
					"outputs": [],
					"stateMutability": "nonpayable",
					"type": "function"
				},
				{
					"inputs": [],
					"name": "tokenA",
					"outputs": [
						{
							"internalType": "contract IERC20",
							"name": "",
							"type": "address"
						}
					],
					"stateMutability": "view",
					"type": "function"
				},
				{
					"inputs": [],
					"name": "tokenB",
					"outputs": [
						{
							"internalType": "contract IERC20",
							"name": "",
							"type": "address"
						}
					],
					"stateMutability": "view",
					"type": "function"
				}
			],
			"devdoc": {
				"author": "Claudia Metz",
				"details": "Allows adding and removing liquidity, as well as swapping TokenA for TokenB and vice versa.",
				"kind": "dev",
				"methods": {
					"addLiquidity(uint256,uint256)": {
						"params": {
							"amountA": ": Amount of TokenA to add.",
							"amountB": ": Amount of TokenB to add."
						}
					},
					"constructor": {
						"params": {
							"_tokenA": "Address of the TokenA contract.",
							"_tokenB": "Address of the TokenB contract."
						}
					},
					"getPrice(address)": {
						"params": {
							"_token": "Address of the token to get the price for."
						},
						"returns": {
							"_0": "The price of the token in terms of the other token."
						}
					},
					"removeLiquidity(uint256,uint256)": {
						"params": {
							"amountA": "Amount of TokenA to remove.",
							"amountB": "Amount of TokenB to remove."
						}
					},
					"swapAforB(uint256)": {
						"params": {
							"amountAIn": "Amount of TokenA to swap."
						}
					},
					"swapBforA(uint256)": {
						"params": {
							"amountBIn": "Amount of TokenB to swap."
						}
					}
				},
				"title": "SimpleDEX",
				"version": 1
			},
			"evm": {
				"assembly": "    /* \"contracts/SimpleDEXv2.sol\":383:4377  contract SimpleDEX {... */\n  mstore(0x40, 0x80)\n    /* \"contracts/SimpleDEXv2.sol\":705:829  constructor(address _tokenA, address _tokenB) {... */\n  callvalue\n  dup1\n  iszero\n  tag_1\n  jumpi\n  0x00\n  dup1\n  revert\ntag_1:\n  pop\n  mload(0x40)\n  sub(codesize, bytecodeSize)\n  dup1\n  bytecodeSize\n  dup4\n  codecopy\n  dup2\n  dup2\n  add\n  0x40\n  mstore\n  dup2\n  add\n  swap1\n  tag_2\n  swap2\n  swap1\n  tag_3\n  jump\t// in\ntag_2:\n    /* \"contracts/SimpleDEXv2.sol\":778:785  _tokenA */\n  dup2\n    /* \"contracts/SimpleDEXv2.sol\":762:768  tokenA */\n  0x00\n  dup1\n    /* \"contracts/SimpleDEXv2.sol\":762:786  tokenA = IERC20(_tokenA) */\n  0x0100\n  exp\n  dup2\n  sload\n  dup2\n  0xffffffffffffffffffffffffffffffffffffffff\n  mul\n  not\n  and\n  swap1\n  dup4\n  0xffffffffffffffffffffffffffffffffffffffff\n  and\n  mul\n  or\n  swap1\n  sstore\n  pop\n    /* \"contracts/SimpleDEXv2.sol\":813:820  _tokenB */\n  dup1\n    /* \"contracts/SimpleDEXv2.sol\":797:803  tokenB */\n  0x01\n  0x00\n    /* \"contracts/SimpleDEXv2.sol\":797:821  tokenB = IERC20(_tokenB) */\n  0x0100\n  exp\n  dup2\n  sload\n  dup2\n  0xffffffffffffffffffffffffffffffffffffffff\n  mul\n  not\n  and\n  swap1\n  dup4\n  0xffffffffffffffffffffffffffffffffffffffff\n  and\n  mul\n  or\n  swap1\n  sstore\n  pop\n    /* \"contracts/SimpleDEXv2.sol\":705:829  constructor(address _tokenA, address _tokenB) {... */\n  pop\n  pop\n    /* \"contracts/SimpleDEXv2.sol\":383:4377  contract SimpleDEX {... */\n  jump(tag_6)\n    /* \"#utility.yul\":88:205   */\ntag_8:\n    /* \"#utility.yul\":197:198   */\n  0x00\n    /* \"#utility.yul\":194:195   */\n  dup1\n    /* \"#utility.yul\":187:199   */\n  revert\n    /* \"#utility.yul\":334:460   */\ntag_10:\n    /* \"#utility.yul\":371:378   */\n  0x00\n    /* \"#utility.yul\":411:453   */\n  0xffffffffffffffffffffffffffffffffffffffff\n    /* \"#utility.yul\":404:409   */\n  dup3\n    /* \"#utility.yul\":400:454   */\n  and\n    /* \"#utility.yul\":389:454   */\n  swap1\n  pop\n    /* \"#utility.yul\":334:460   */\n  swap2\n  swap1\n  pop\n  jump\t// out\n    /* \"#utility.yul\":466:562   */\ntag_11:\n    /* \"#utility.yul\":503:510   */\n  0x00\n    /* \"#utility.yul\":532:556   */\n  tag_20\n    /* \"#utility.yul\":550:555   */\n  dup3\n    /* \"#utility.yul\":532:556   */\n  tag_10\n  jump\t// in\ntag_20:\n    /* \"#utility.yul\":521:556   */\n  swap1\n  pop\n    /* \"#utility.yul\":466:562   */\n  swap2\n  swap1\n  pop\n  jump\t// out\n    /* \"#utility.yul\":568:690   */\ntag_12:\n    /* \"#utility.yul\":641:665   */\n  tag_22\n    /* \"#utility.yul\":659:664   */\n  dup2\n    /* \"#utility.yul\":641:665   */\n  tag_11\n  jump\t// in\ntag_22:\n    /* \"#utility.yul\":634:639   */\n  dup2\n    /* \"#utility.yul\":631:666   */\n  eq\n    /* \"#utility.yul\":621:684   */\n  tag_23\n  jumpi\n    /* \"#utility.yul\":680:681   */\n  0x00\n    /* \"#utility.yul\":677:678   */\n  dup1\n    /* \"#utility.yul\":670:682   */\n  revert\n    /* \"#utility.yul\":621:684   */\ntag_23:\n    /* \"#utility.yul\":568:690   */\n  pop\n  jump\t// out\n    /* \"#utility.yul\":696:839   */\ntag_13:\n    /* \"#utility.yul\":753:758   */\n  0x00\n    /* \"#utility.yul\":784:790   */\n  dup2\n    /* \"#utility.yul\":778:791   */\n  mload\n    /* \"#utility.yul\":769:791   */\n  swap1\n  pop\n    /* \"#utility.yul\":800:833   */\n  tag_25\n    /* \"#utility.yul\":827:832   */\n  dup2\n    /* \"#utility.yul\":800:833   */\n  tag_12\n  jump\t// in\ntag_25:\n    /* \"#utility.yul\":696:839   */\n  swap3\n  swap2\n  pop\n  pop\n  jump\t// out\n    /* \"#utility.yul\":845:1352   */\ntag_3:\n    /* \"#utility.yul\":924:930   */\n  0x00\n    /* \"#utility.yul\":932:938   */\n  dup1\n    /* \"#utility.yul\":981:983   */\n  0x40\n    /* \"#utility.yul\":969:978   */\n  dup4\n    /* \"#utility.yul\":960:967   */\n  dup6\n    /* \"#utility.yul\":956:979   */\n  sub\n    /* \"#utility.yul\":952:984   */\n  slt\n    /* \"#utility.yul\":949:1068   */\n  iszero\n  tag_27\n  jumpi\n    /* \"#utility.yul\":987:1066   */\n  tag_28\n  tag_8\n  jump\t// in\ntag_28:\n    /* \"#utility.yul\":949:1068   */\ntag_27:\n    /* \"#utility.yul\":1107:1108   */\n  0x00\n    /* \"#utility.yul\":1132:1196   */\n  tag_29\n    /* \"#utility.yul\":1188:1195   */\n  dup6\n    /* \"#utility.yul\":1179:1185   */\n  dup3\n    /* \"#utility.yul\":1168:1177   */\n  dup7\n    /* \"#utility.yul\":1164:1186   */\n  add\n    /* \"#utility.yul\":1132:1196   */\n  tag_13\n  jump\t// in\ntag_29:\n    /* \"#utility.yul\":1122:1196   */\n  swap3\n  pop\n    /* \"#utility.yul\":1078:1206   */\n  pop\n    /* \"#utility.yul\":1245:1247   */\n  0x20\n    /* \"#utility.yul\":1271:1335   */\n  tag_30\n    /* \"#utility.yul\":1327:1334   */\n  dup6\n    /* \"#utility.yul\":1318:1324   */\n  dup3\n    /* \"#utility.yul\":1307:1316   */\n  dup7\n    /* \"#utility.yul\":1303:1325   */\n  add\n    /* \"#utility.yul\":1271:1335   */\n  tag_13\n  jump\t// in\ntag_30:\n    /* \"#utility.yul\":1261:1335   */\n  swap2\n  pop\n    /* \"#utility.yul\":1216:1345   */\n  pop\n    /* \"#utility.yul\":845:1352   */\n  swap3\n  pop\n  swap3\n  swap1\n  pop\n  jump\t// out\n    /* \"contracts/SimpleDEXv2.sol\":383:4377  contract SimpleDEX {... */\ntag_6:\n  dataSize(sub_0)\n  dup1\n  dataOffset(sub_0)\n  0x00\n  codecopy\n  0x00\n  return\nstop\n\nsub_0: assembly {\n        /* \"contracts/SimpleDEXv2.sol\":383:4377  contract SimpleDEX {... */\n      mstore(0x40, 0x80)\n      callvalue\n      dup1\n      iszero\n      tag_1\n      jumpi\n      0x00\n      dup1\n      revert\n    tag_1:\n      pop\n      jumpi(tag_2, lt(calldatasize, 0x04))\n      shr(0xe0, calldataload(0x00))\n      dup1\n      0x8da5cb5b\n      gt\n      tag_13\n      jumpi\n      dup1\n      0x8da5cb5b\n      eq\n      tag_8\n      jumpi\n      dup1\n      0x9cd441da\n      eq\n      tag_9\n      jumpi\n      dup1\n      0x9d7de6b3\n      eq\n      tag_10\n      jumpi\n      dup1\n      0xdc5fa6c5\n      eq\n      tag_11\n      jumpi\n      dup1\n      0xe4f1f70a\n      eq\n      tag_12\n      jumpi\n      jump(tag_2)\n    tag_13:\n      dup1\n      0x0fc63d10\n      eq\n      tag_3\n      jumpi\n      dup1\n      0x19e36f3b\n      eq\n      tag_4\n      jumpi\n      dup1\n      0x41976e09\n      eq\n      tag_5\n      jumpi\n      dup1\n      0x5f64b55b\n      eq\n      tag_6\n      jumpi\n      dup1\n      0x8014a7aa\n      eq\n      tag_7\n      jumpi\n    tag_2:\n      0x00\n      dup1\n      revert\n        /* \"contracts/SimpleDEXv2.sol\":409:429  IERC20 public tokenA */\n    tag_3:\n      tag_14\n      tag_15\n      jump\t// in\n    tag_14:\n      mload(0x40)\n      tag_16\n      swap2\n      swap1\n      tag_17\n      jump\t// in\n    tag_16:\n      mload(0x40)\n      dup1\n      swap2\n      sub\n      swap1\n      return\n        /* \"contracts/SimpleDEXv2.sol\":493:516  uint256 public reserveB */\n    tag_4:\n      tag_18\n      tag_19\n      jump\t// in\n    tag_18:\n      mload(0x40)\n      tag_20\n      swap2\n      swap1\n      tag_21\n      jump\t// in\n    tag_20:\n      mload(0x40)\n      dup1\n      swap2\n      sub\n      swap1\n      return\n        /* \"contracts/SimpleDEXv2.sol\":3474:3796  function getPrice(address _token) external view returns (uint256) {... */\n    tag_5:\n      tag_22\n      0x04\n      dup1\n      calldatasize\n      sub\n      dup2\n      add\n      swap1\n      tag_23\n      swap2\n      swap1\n      tag_24\n      jump\t// in\n    tag_23:\n      tag_25\n      jump\t// in\n    tag_22:\n      mload(0x40)\n      tag_26\n      swap2\n      swap1\n      tag_21\n      jump\t// in\n    tag_26:\n      mload(0x40)\n      dup1\n      swap2\n      sub\n      swap1\n      return\n        /* \"contracts/SimpleDEXv2.sol\":436:456  IERC20 public tokenB */\n    tag_6:\n      tag_27\n      tag_28\n      jump\t// in\n    tag_27:\n      mload(0x40)\n      tag_29\n      swap2\n      swap1\n      tag_17\n      jump\t// in\n    tag_29:\n      mload(0x40)\n      dup1\n      swap2\n      sub\n      swap1\n      return\n        /* \"contracts/SimpleDEXv2.sol\":2348:2721  function swapBforA(uint256 amountBIn) external {... */\n    tag_7:\n      tag_30\n      0x04\n      dup1\n      calldatasize\n      sub\n      dup2\n      add\n      swap1\n      tag_31\n      swap2\n      swap1\n      tag_32\n      jump\t// in\n    tag_31:\n      tag_33\n      jump\t// in\n    tag_30:\n      stop\n        /* \"contracts/SimpleDEXv2.sol\":523:543  address public owner */\n    tag_8:\n      tag_34\n      tag_35\n      jump\t// in\n    tag_34:\n      mload(0x40)\n      tag_36\n      swap2\n      swap1\n      tag_37\n      jump\t// in\n    tag_36:\n      mload(0x40)\n      dup1\n      swap2\n      sub\n      swap1\n      return\n        /* \"contracts/SimpleDEXv2.sol\":1446:1771  function addLiquidity(uint256 amountA, uint256 amountB) external {... */\n    tag_9:\n      tag_38\n      0x04\n      dup1\n      calldatasize\n      sub\n      dup2\n      add\n      swap1\n      tag_39\n      swap2\n      swap1\n      tag_40\n      jump\t// in\n    tag_39:\n      tag_41\n      jump\t// in\n    tag_38:\n      stop\n        /* \"contracts/SimpleDEXv2.sol\":2883:3263  function removeLiquidity(uint256 amountA, uint256 amountB) external {... */\n    tag_10:\n      tag_42\n      0x04\n      dup1\n      calldatasize\n      sub\n      dup2\n      add\n      swap1\n      tag_43\n      swap2\n      swap1\n      tag_40\n      jump\t// in\n    tag_43:\n      tag_44\n      jump\t// in\n    tag_42:\n      stop\n        /* \"contracts/SimpleDEXv2.sol\":463:486  uint256 public reserveA */\n    tag_11:\n      tag_45\n      tag_46\n      jump\t// in\n    tag_45:\n      mload(0x40)\n      tag_47\n      swap2\n      swap1\n      tag_21\n      jump\t// in\n    tag_47:\n      mload(0x40)\n      dup1\n      swap2\n      sub\n      swap1\n      return\n        /* \"contracts/SimpleDEXv2.sol\":1873:2246  function swapAforB(uint256 amountAIn) external {... */\n    tag_12:\n      tag_48\n      0x04\n      dup1\n      calldatasize\n      sub\n      dup2\n      add\n      swap1\n      tag_49\n      swap2\n      swap1\n      tag_32\n      jump\t// in\n    tag_49:\n      tag_50\n      jump\t// in\n    tag_48:\n      stop\n        /* \"contracts/SimpleDEXv2.sol\":409:429  IERC20 public tokenA */\n    tag_15:\n      0x00\n      dup1\n      sload\n      swap1\n      0x0100\n      exp\n      swap1\n      div\n      0xffffffffffffffffffffffffffffffffffffffff\n      and\n      dup2\n      jump\t// out\n        /* \"contracts/SimpleDEXv2.sol\":493:516  uint256 public reserveB */\n    tag_19:\n      sload(0x03)\n      dup2\n      jump\t// out\n        /* \"contracts/SimpleDEXv2.sol\":3474:3796  function getPrice(address _token) external view returns (uint256) {... */\n    tag_25:\n        /* \"contracts/SimpleDEXv2.sol\":3531:3538  uint256 */\n      0x00\n        /* \"contracts/SimpleDEXv2.sol\":3573:3579  tokenA */\n      dup1\n      0x00\n      swap1\n      sload\n      swap1\n      0x0100\n      exp\n      swap1\n      div\n      0xffffffffffffffffffffffffffffffffffffffff\n      and\n        /* \"contracts/SimpleDEXv2.sol\":3555:3580  _token == address(tokenA) */\n      0xffffffffffffffffffffffffffffffffffffffff\n      and\n        /* \"contracts/SimpleDEXv2.sol\":3555:3561  _token */\n      dup3\n        /* \"contracts/SimpleDEXv2.sol\":3555:3580  _token == address(tokenA) */\n      0xffffffffffffffffffffffffffffffffffffffff\n      and\n      sub\n        /* \"contracts/SimpleDEXv2.sol\":3551:3789  if (_token == address(tokenA)) {... */\n      tag_52\n      jumpi\n        /* \"contracts/SimpleDEXv2.sol\":3615:3623  reserveA */\n      sload(0x02)\n        /* \"contracts/SimpleDEXv2.sol\":3604:3612  reserveB */\n      sload(0x03)\n        /* \"contracts/SimpleDEXv2.sol\":3604:3623  reserveB / reserveA */\n      tag_53\n      swap2\n      swap1\n      tag_54\n      jump\t// in\n    tag_53:\n        /* \"contracts/SimpleDEXv2.sol\":3597:3623  return reserveB / reserveA */\n      swap1\n      pop\n      jump(tag_51)\n        /* \"contracts/SimpleDEXv2.sol\":3551:3789  if (_token == address(tokenA)) {... */\n    tag_52:\n        /* \"contracts/SimpleDEXv2.sol\":3663:3669  tokenB */\n      0x01\n      0x00\n      swap1\n      sload\n      swap1\n      0x0100\n      exp\n      swap1\n      div\n      0xffffffffffffffffffffffffffffffffffffffff\n      and\n        /* \"contracts/SimpleDEXv2.sol\":3645:3670  _token == address(tokenB) */\n      0xffffffffffffffffffffffffffffffffffffffff\n      and\n        /* \"contracts/SimpleDEXv2.sol\":3645:3651  _token */\n      dup3\n        /* \"contracts/SimpleDEXv2.sol\":3645:3670  _token == address(tokenB) */\n      0xffffffffffffffffffffffffffffffffffffffff\n      and\n      sub\n        /* \"contracts/SimpleDEXv2.sol\":3641:3789  if (_token == address(tokenB)) {... */\n      tag_56\n      jumpi\n        /* \"contracts/SimpleDEXv2.sol\":3705:3713  reserveB */\n      sload(0x03)\n        /* \"contracts/SimpleDEXv2.sol\":3694:3702  reserveA */\n      sload(0x02)\n        /* \"contracts/SimpleDEXv2.sol\":3694:3713  reserveA / reserveB */\n      tag_57\n      swap2\n      swap1\n      tag_54\n      jump\t// in\n    tag_57:\n        /* \"contracts/SimpleDEXv2.sol\":3687:3713  return reserveA / reserveB */\n      swap1\n      pop\n      jump(tag_51)\n        /* \"contracts/SimpleDEXv2.sol\":3641:3789  if (_token == address(tokenB)) {... */\n    tag_56:\n        /* \"contracts/SimpleDEXv2.sol\":3746:3777  revert(\"Invalid token address\") */\n      mload(0x40)\n      0x08c379a000000000000000000000000000000000000000000000000000000000\n      dup2\n      mstore\n      0x04\n      add\n      tag_59\n      swap1\n      tag_60\n      jump\t// in\n    tag_59:\n      mload(0x40)\n      dup1\n      swap2\n      sub\n      swap1\n      revert\n        /* \"contracts/SimpleDEXv2.sol\":3474:3796  function getPrice(address _token) external view returns (uint256) {... */\n    tag_51:\n      swap2\n      swap1\n      pop\n      jump\t// out\n        /* \"contracts/SimpleDEXv2.sol\":436:456  IERC20 public tokenB */\n    tag_28:\n      0x01\n      0x00\n      swap1\n      sload\n      swap1\n      0x0100\n      exp\n      swap1\n      div\n      0xffffffffffffffffffffffffffffffffffffffff\n      and\n      dup2\n      jump\t// out\n        /* \"contracts/SimpleDEXv2.sol\":2348:2721  function swapBforA(uint256 amountBIn) external {... */\n    tag_33:\n        /* \"contracts/SimpleDEXv2.sol\":2406:2424  uint256 amountAOut */\n      0x00\n        /* \"contracts/SimpleDEXv2.sol\":2427:2470  getAmountOut(amountBIn, reserveB, reserveA) */\n      tag_62\n        /* \"contracts/SimpleDEXv2.sol\":2440:2449  amountBIn */\n      dup3\n        /* \"contracts/SimpleDEXv2.sol\":2451:2459  reserveB */\n      sload(0x03)\n        /* \"contracts/SimpleDEXv2.sol\":2461:2469  reserveA */\n      sload(0x02)\n        /* \"contracts/SimpleDEXv2.sol\":2427:2439  getAmountOut */\n      tag_63\n        /* \"contracts/SimpleDEXv2.sol\":2427:2470  getAmountOut(amountBIn, reserveB, reserveA) */\n      jump\t// in\n    tag_62:\n        /* \"contracts/SimpleDEXv2.sol\":2406:2470  uint256 amountAOut = getAmountOut(amountBIn, reserveB, reserveA) */\n      swap1\n      pop\n        /* \"contracts/SimpleDEXv2.sol\":2481:2487  tokenB */\n      0x01\n      0x00\n      swap1\n      sload\n      swap1\n      0x0100\n      exp\n      swap1\n      div\n      0xffffffffffffffffffffffffffffffffffffffff\n      and\n        /* \"contracts/SimpleDEXv2.sol\":2481:2500  tokenB.transferFrom */\n      0xffffffffffffffffffffffffffffffffffffffff\n      and\n      0x23b872dd\n        /* \"contracts/SimpleDEXv2.sol\":2501:2511  msg.sender */\n      caller\n        /* \"contracts/SimpleDEXv2.sol\":2521:2525  this */\n      address\n        /* \"contracts/SimpleDEXv2.sol\":2528:2537  amountBIn */\n      dup6\n        /* \"contracts/SimpleDEXv2.sol\":2481:2538  tokenB.transferFrom(msg.sender, address(this), amountBIn) */\n      mload(0x40)\n      dup5\n      0xffffffff\n      and\n      0xe0\n      shl\n      dup2\n      mstore\n      0x04\n      add\n      tag_64\n      swap4\n      swap3\n      swap2\n      swap1\n      tag_65\n      jump\t// in\n    tag_64:\n      0x20\n      mload(0x40)\n      dup1\n      dup4\n      sub\n      dup2\n      0x00\n      dup8\n      gas\n      call\n      iszero\n      dup1\n      iszero\n      tag_67\n      jumpi\n      returndatasize\n      0x00\n      dup1\n      returndatacopy\n      revert(0x00, returndatasize)\n    tag_67:\n      pop\n      pop\n      pop\n      pop\n      mload(0x40)\n      returndatasize\n      not(0x1f)\n      0x1f\n      dup3\n      add\n      and\n      dup3\n      add\n      dup1\n      0x40\n      mstore\n      pop\n      dup2\n      add\n      swap1\n      tag_68\n      swap2\n      swap1\n      tag_69\n      jump\t// in\n    tag_68:\n      pop\n        /* \"contracts/SimpleDEXv2.sol\":2549:2555  tokenA */\n      0x00\n      dup1\n      sload\n      swap1\n      0x0100\n      exp\n      swap1\n      div\n      0xffffffffffffffffffffffffffffffffffffffff\n      and\n        /* \"contracts/SimpleDEXv2.sol\":2549:2564  tokenA.transfer */\n      0xffffffffffffffffffffffffffffffffffffffff\n      and\n      0xa9059cbb\n        /* \"contracts/SimpleDEXv2.sol\":2565:2575  msg.sender */\n      caller\n        /* \"contracts/SimpleDEXv2.sol\":2577:2587  amountAOut */\n      dup4\n        /* \"contracts/SimpleDEXv2.sol\":2549:2588  tokenA.transfer(msg.sender, amountAOut) */\n      mload(0x40)\n      dup4\n      0xffffffff\n      and\n      0xe0\n      shl\n      dup2\n      mstore\n      0x04\n      add\n      tag_70\n      swap3\n      swap2\n      swap1\n      tag_71\n      jump\t// in\n    tag_70:\n      0x20\n      mload(0x40)\n      dup1\n      dup4\n      sub\n      dup2\n      0x00\n      dup8\n      gas\n      call\n      iszero\n      dup1\n      iszero\n      tag_73\n      jumpi\n      returndatasize\n      0x00\n      dup1\n      returndatacopy\n      revert(0x00, returndatasize)\n    tag_73:\n      pop\n      pop\n      pop\n      pop\n      mload(0x40)\n      returndatasize\n      not(0x1f)\n      0x1f\n      dup3\n      add\n      and\n      dup3\n      add\n      dup1\n      0x40\n      mstore\n      pop\n      dup2\n      add\n      swap1\n      tag_74\n      swap2\n      swap1\n      tag_69\n      jump\t// in\n    tag_74:\n      pop\n        /* \"contracts/SimpleDEXv2.sol\":2611:2620  amountBIn */\n      dup2\n        /* \"contracts/SimpleDEXv2.sol\":2599:2607  reserveB */\n      0x03\n      0x00\n        /* \"contracts/SimpleDEXv2.sol\":2599:2620  reserveB += amountBIn */\n      dup3\n      dup3\n      sload\n      tag_75\n      swap2\n      swap1\n      tag_76\n      jump\t// in\n    tag_75:\n      swap3\n      pop\n      pop\n      dup2\n      swap1\n      sstore\n      pop\n        /* \"contracts/SimpleDEXv2.sol\":2643:2653  amountAOut */\n      dup1\n        /* \"contracts/SimpleDEXv2.sol\":2631:2639  reserveA */\n      0x02\n      0x00\n        /* \"contracts/SimpleDEXv2.sol\":2631:2653  reserveA -= amountAOut */\n      dup3\n      dup3\n      sload\n      tag_77\n      swap2\n      swap1\n      tag_78\n      jump\t// in\n    tag_77:\n      swap3\n      pop\n      pop\n      dup2\n      swap1\n      sstore\n      pop\n        /* \"contracts/SimpleDEXv2.sol\":2679:2689  msg.sender */\n      caller\n        /* \"contracts/SimpleDEXv2.sol\":2669:2713  SwapBforA(msg.sender, amountBIn, amountAOut) */\n      0xffffffffffffffffffffffffffffffffffffffff\n      and\n      0x18d89124d3f604d784e6ec54f7e2c6a8487fb2bff658ff580c4abbcb5088ad9b\n        /* \"contracts/SimpleDEXv2.sol\":2691:2700  amountBIn */\n      dup4\n        /* \"contracts/SimpleDEXv2.sol\":2702:2712  amountAOut */\n      dup4\n        /* \"contracts/SimpleDEXv2.sol\":2669:2713  SwapBforA(msg.sender, amountBIn, amountAOut) */\n      mload(0x40)\n      tag_79\n      swap3\n      swap2\n      swap1\n      tag_80\n      jump\t// in\n    tag_79:\n      mload(0x40)\n      dup1\n      swap2\n      sub\n      swap1\n      log2\n        /* \"contracts/SimpleDEXv2.sol\":2395:2721  {... */\n      pop\n        /* \"contracts/SimpleDEXv2.sol\":2348:2721  function swapBforA(uint256 amountBIn) external {... */\n      pop\n      jump\t// out\n        /* \"contracts/SimpleDEXv2.sol\":523:543  address public owner */\n    tag_35:\n      0x04\n      0x00\n      swap1\n      sload\n      swap1\n      0x0100\n      exp\n      swap1\n      div\n      0xffffffffffffffffffffffffffffffffffffffff\n      and\n      dup2\n      jump\t// out\n        /* \"contracts/SimpleDEXv2.sol\":1446:1771  function addLiquidity(uint256 amountA, uint256 amountB) external {... */\n    tag_41:\n        /* \"contracts/SimpleDEXv2.sol\":1522:1528  tokenA */\n      0x00\n      dup1\n      sload\n      swap1\n      0x0100\n      exp\n      swap1\n      div\n      0xffffffffffffffffffffffffffffffffffffffff\n      and\n        /* \"contracts/SimpleDEXv2.sol\":1522:1541  tokenA.transferFrom */\n      0xffffffffffffffffffffffffffffffffffffffff\n      and\n      0x23b872dd\n        /* \"contracts/SimpleDEXv2.sol\":1542:1552  msg.sender */\n      caller\n        /* \"contracts/SimpleDEXv2.sol\":1562:1566  this */\n      address\n        /* \"contracts/SimpleDEXv2.sol\":1569:1576  amountA */\n      dup6\n        /* \"contracts/SimpleDEXv2.sol\":1522:1577  tokenA.transferFrom(msg.sender, address(this), amountA) */\n      mload(0x40)\n      dup5\n      0xffffffff\n      and\n      0xe0\n      shl\n      dup2\n      mstore\n      0x04\n      add\n      tag_82\n      swap4\n      swap3\n      swap2\n      swap1\n      tag_65\n      jump\t// in\n    tag_82:\n      0x20\n      mload(0x40)\n      dup1\n      dup4\n      sub\n      dup2\n      0x00\n      dup8\n      gas\n      call\n      iszero\n      dup1\n      iszero\n      tag_84\n      jumpi\n      returndatasize\n      0x00\n      dup1\n      returndatacopy\n      revert(0x00, returndatasize)\n    tag_84:\n      pop\n      pop\n      pop\n      pop\n      mload(0x40)\n      returndatasize\n      not(0x1f)\n      0x1f\n      dup3\n      add\n      and\n      dup3\n      add\n      dup1\n      0x40\n      mstore\n      pop\n      dup2\n      add\n      swap1\n      tag_85\n      swap2\n      swap1\n      tag_69\n      jump\t// in\n    tag_85:\n      pop\n        /* \"contracts/SimpleDEXv2.sol\":1588:1594  tokenB */\n      0x01\n      0x00\n      swap1\n      sload\n      swap1\n      0x0100\n      exp\n      swap1\n      div\n      0xffffffffffffffffffffffffffffffffffffffff\n      and\n        /* \"contracts/SimpleDEXv2.sol\":1588:1607  tokenB.transferFrom */\n      0xffffffffffffffffffffffffffffffffffffffff\n      and\n      0x23b872dd\n        /* \"contracts/SimpleDEXv2.sol\":1608:1618  msg.sender */\n      caller\n        /* \"contracts/SimpleDEXv2.sol\":1628:1632  this */\n      address\n        /* \"contracts/SimpleDEXv2.sol\":1635:1642  amountB */\n      dup5\n        /* \"contracts/SimpleDEXv2.sol\":1588:1643  tokenB.transferFrom(msg.sender, address(this), amountB) */\n      mload(0x40)\n      dup5\n      0xffffffff\n      and\n      0xe0\n      shl\n      dup2\n      mstore\n      0x04\n      add\n      tag_86\n      swap4\n      swap3\n      swap2\n      swap1\n      tag_65\n      jump\t// in\n    tag_86:\n      0x20\n      mload(0x40)\n      dup1\n      dup4\n      sub\n      dup2\n      0x00\n      dup8\n      gas\n      call\n      iszero\n      dup1\n      iszero\n      tag_88\n      jumpi\n      returndatasize\n      0x00\n      dup1\n      returndatacopy\n      revert(0x00, returndatasize)\n    tag_88:\n      pop\n      pop\n      pop\n      pop\n      mload(0x40)\n      returndatasize\n      not(0x1f)\n      0x1f\n      dup3\n      add\n      and\n      dup3\n      add\n      dup1\n      0x40\n      mstore\n      pop\n      dup2\n      add\n      swap1\n      tag_89\n      swap2\n      swap1\n      tag_69\n      jump\t// in\n    tag_89:\n      pop\n        /* \"contracts/SimpleDEXv2.sol\":1666:1673  amountA */\n      dup2\n        /* \"contracts/SimpleDEXv2.sol\":1654:1662  reserveA */\n      0x02\n      0x00\n        /* \"contracts/SimpleDEXv2.sol\":1654:1673  reserveA += amountA */\n      dup3\n      dup3\n      sload\n      tag_90\n      swap2\n      swap1\n      tag_76\n      jump\t// in\n    tag_90:\n      swap3\n      pop\n      pop\n      dup2\n      swap1\n      sstore\n      pop\n        /* \"contracts/SimpleDEXv2.sol\":1696:1703  amountB */\n      dup1\n        /* \"contracts/SimpleDEXv2.sol\":1684:1692  reserveB */\n      0x03\n      0x00\n        /* \"contracts/SimpleDEXv2.sol\":1684:1703  reserveB += amountB */\n      dup3\n      dup3\n      sload\n      tag_91\n      swap2\n      swap1\n      tag_76\n      jump\t// in\n    tag_91:\n      swap3\n      pop\n      pop\n      dup2\n      swap1\n      sstore\n      pop\n        /* \"contracts/SimpleDEXv2.sol\":1734:1744  msg.sender */\n      caller\n        /* \"contracts/SimpleDEXv2.sol\":1719:1763  LiquidityAdded(msg.sender, amountA, amountB) */\n      0xffffffffffffffffffffffffffffffffffffffff\n      and\n      0xac1d76749e5447b7b16f5ab61447e1bd502f3bb4807af3b28e620d1700a6ee45\n        /* \"contracts/SimpleDEXv2.sol\":1746:1753  amountA */\n      dup4\n        /* \"contracts/SimpleDEXv2.sol\":1755:1762  amountB */\n      dup4\n        /* \"contracts/SimpleDEXv2.sol\":1719:1763  LiquidityAdded(msg.sender, amountA, amountB) */\n      mload(0x40)\n      tag_92\n      swap3\n      swap2\n      swap1\n      tag_80\n      jump\t// in\n    tag_92:\n      mload(0x40)\n      dup1\n      swap2\n      sub\n      swap1\n      log2\n        /* \"contracts/SimpleDEXv2.sol\":1446:1771  function addLiquidity(uint256 amountA, uint256 amountB) external {... */\n      pop\n      pop\n      jump\t// out\n        /* \"contracts/SimpleDEXv2.sol\":2883:3263  function removeLiquidity(uint256 amountA, uint256 amountB) external {... */\n    tag_44:\n        /* \"contracts/SimpleDEXv2.sol\":2982:2989  amountA */\n      dup2\n        /* \"contracts/SimpleDEXv2.sol\":2970:2978  reserveA */\n      sload(0x02)\n        /* \"contracts/SimpleDEXv2.sol\":2970:2989  reserveA >= amountA */\n      lt\n      iszero\n        /* \"contracts/SimpleDEXv2.sol\":2970:3012  reserveA >= amountA && reserveB >= amountB */\n      dup1\n      iszero\n      tag_94\n      jumpi\n      pop\n        /* \"contracts/SimpleDEXv2.sol\":3005:3012  amountB */\n      dup1\n        /* \"contracts/SimpleDEXv2.sol\":2993:3001  reserveB */\n      sload(0x03)\n        /* \"contracts/SimpleDEXv2.sol\":2993:3012  reserveB >= amountB */\n      lt\n      iszero\n        /* \"contracts/SimpleDEXv2.sol\":2970:3012  reserveA >= amountA && reserveB >= amountB */\n    tag_94:\n        /* \"contracts/SimpleDEXv2.sol\":2962:3039  require(reserveA >= amountA && reserveB >= amountB, \"Insufficient liquidity\") */\n      tag_95\n      jumpi\n      mload(0x40)\n      0x08c379a000000000000000000000000000000000000000000000000000000000\n      dup2\n      mstore\n      0x04\n      add\n      tag_96\n      swap1\n      tag_97\n      jump\t// in\n    tag_96:\n      mload(0x40)\n      dup1\n      swap2\n      sub\n      swap1\n      revert\n    tag_95:\n        /* \"contracts/SimpleDEXv2.sol\":3050:3056  tokenA */\n      0x00\n      dup1\n      sload\n      swap1\n      0x0100\n      exp\n      swap1\n      div\n      0xffffffffffffffffffffffffffffffffffffffff\n      and\n        /* \"contracts/SimpleDEXv2.sol\":3050:3065  tokenA.transfer */\n      0xffffffffffffffffffffffffffffffffffffffff\n      and\n      0xa9059cbb\n        /* \"contracts/SimpleDEXv2.sol\":3066:3076  msg.sender */\n      caller\n        /* \"contracts/SimpleDEXv2.sol\":3078:3085  amountA */\n      dup5\n        /* \"contracts/SimpleDEXv2.sol\":3050:3086  tokenA.transfer(msg.sender, amountA) */\n      mload(0x40)\n      dup4\n      0xffffffff\n      and\n      0xe0\n      shl\n      dup2\n      mstore\n      0x04\n      add\n      tag_98\n      swap3\n      swap2\n      swap1\n      tag_71\n      jump\t// in\n    tag_98:\n      0x20\n      mload(0x40)\n      dup1\n      dup4\n      sub\n      dup2\n      0x00\n      dup8\n      gas\n      call\n      iszero\n      dup1\n      iszero\n      tag_100\n      jumpi\n      returndatasize\n      0x00\n      dup1\n      returndatacopy\n      revert(0x00, returndatasize)\n    tag_100:\n      pop\n      pop\n      pop\n      pop\n      mload(0x40)\n      returndatasize\n      not(0x1f)\n      0x1f\n      dup3\n      add\n      and\n      dup3\n      add\n      dup1\n      0x40\n      mstore\n      pop\n      dup2\n      add\n      swap1\n      tag_101\n      swap2\n      swap1\n      tag_69\n      jump\t// in\n    tag_101:\n      pop\n        /* \"contracts/SimpleDEXv2.sol\":3097:3103  tokenB */\n      0x01\n      0x00\n      swap1\n      sload\n      swap1\n      0x0100\n      exp\n      swap1\n      div\n      0xffffffffffffffffffffffffffffffffffffffff\n      and\n        /* \"contracts/SimpleDEXv2.sol\":3097:3112  tokenB.transfer */\n      0xffffffffffffffffffffffffffffffffffffffff\n      and\n      0xa9059cbb\n        /* \"contracts/SimpleDEXv2.sol\":3113:3123  msg.sender */\n      caller\n        /* \"contracts/SimpleDEXv2.sol\":3125:3132  amountB */\n      dup4\n        /* \"contracts/SimpleDEXv2.sol\":3097:3133  tokenB.transfer(msg.sender, amountB) */\n      mload(0x40)\n      dup4\n      0xffffffff\n      and\n      0xe0\n      shl\n      dup2\n      mstore\n      0x04\n      add\n      tag_102\n      swap3\n      swap2\n      swap1\n      tag_71\n      jump\t// in\n    tag_102:\n      0x20\n      mload(0x40)\n      dup1\n      dup4\n      sub\n      dup2\n      0x00\n      dup8\n      gas\n      call\n      iszero\n      dup1\n      iszero\n      tag_104\n      jumpi\n      returndatasize\n      0x00\n      dup1\n      returndatacopy\n      revert(0x00, returndatasize)\n    tag_104:\n      pop\n      pop\n      pop\n      pop\n      mload(0x40)\n      returndatasize\n      not(0x1f)\n      0x1f\n      dup3\n      add\n      and\n      dup3\n      add\n      dup1\n      0x40\n      mstore\n      pop\n      dup2\n      add\n      swap1\n      tag_105\n      swap2\n      swap1\n      tag_69\n      jump\t// in\n    tag_105:\n      pop\n        /* \"contracts/SimpleDEXv2.sol\":3156:3163  amountA */\n      dup2\n        /* \"contracts/SimpleDEXv2.sol\":3144:3152  reserveA */\n      0x02\n      0x00\n        /* \"contracts/SimpleDEXv2.sol\":3144:3163  reserveA -= amountA */\n      dup3\n      dup3\n      sload\n      tag_106\n      swap2\n      swap1\n      tag_78\n      jump\t// in\n    tag_106:\n      swap3\n      pop\n      pop\n      dup2\n      swap1\n      sstore\n      pop\n        /* \"contracts/SimpleDEXv2.sol\":3186:3193  amountB */\n      dup1\n        /* \"contracts/SimpleDEXv2.sol\":3174:3182  reserveB */\n      0x03\n      0x00\n        /* \"contracts/SimpleDEXv2.sol\":3174:3193  reserveB -= amountB */\n      dup3\n      dup3\n      sload\n      tag_107\n      swap2\n      swap1\n      tag_78\n      jump\t// in\n    tag_107:\n      swap3\n      pop\n      pop\n      dup2\n      swap1\n      sstore\n      pop\n        /* \"contracts/SimpleDEXv2.sol\":3226:3236  msg.sender */\n      caller\n        /* \"contracts/SimpleDEXv2.sol\":3209:3255  LiquidityRemoved(msg.sender, amountA, amountB) */\n      0xffffffffffffffffffffffffffffffffffffffff\n      and\n      0x96cd817c6329656790ef8fba7675405193677d39619571282f5e21f3a98cd059\n        /* \"contracts/SimpleDEXv2.sol\":3238:3245  amountA */\n      dup4\n        /* \"contracts/SimpleDEXv2.sol\":3247:3254  amountB */\n      dup4\n        /* \"contracts/SimpleDEXv2.sol\":3209:3255  LiquidityRemoved(msg.sender, amountA, amountB) */\n      mload(0x40)\n      tag_108\n      swap3\n      swap2\n      swap1\n      tag_80\n      jump\t// in\n    tag_108:\n      mload(0x40)\n      dup1\n      swap2\n      sub\n      swap1\n      log2\n        /* \"contracts/SimpleDEXv2.sol\":2883:3263  function removeLiquidity(uint256 amountA, uint256 amountB) external {... */\n      pop\n      pop\n      jump\t// out\n        /* \"contracts/SimpleDEXv2.sol\":463:486  uint256 public reserveA */\n    tag_46:\n      sload(0x02)\n      dup2\n      jump\t// out\n        /* \"contracts/SimpleDEXv2.sol\":1873:2246  function swapAforB(uint256 amountAIn) external {... */\n    tag_50:\n        /* \"contracts/SimpleDEXv2.sol\":1931:1949  uint256 amountBOut */\n      0x00\n        /* \"contracts/SimpleDEXv2.sol\":1952:1995  getAmountOut(amountAIn, reserveA, reserveB) */\n      tag_110\n        /* \"contracts/SimpleDEXv2.sol\":1965:1974  amountAIn */\n      dup3\n        /* \"contracts/SimpleDEXv2.sol\":1976:1984  reserveA */\n      sload(0x02)\n        /* \"contracts/SimpleDEXv2.sol\":1986:1994  reserveB */\n      sload(0x03)\n        /* \"contracts/SimpleDEXv2.sol\":1952:1964  getAmountOut */\n      tag_63\n        /* \"contracts/SimpleDEXv2.sol\":1952:1995  getAmountOut(amountAIn, reserveA, reserveB) */\n      jump\t// in\n    tag_110:\n        /* \"contracts/SimpleDEXv2.sol\":1931:1995  uint256 amountBOut = getAmountOut(amountAIn, reserveA, reserveB) */\n      swap1\n      pop\n        /* \"contracts/SimpleDEXv2.sol\":2006:2012  tokenA */\n      0x00\n      dup1\n      sload\n      swap1\n      0x0100\n      exp\n      swap1\n      div\n      0xffffffffffffffffffffffffffffffffffffffff\n      and\n        /* \"contracts/SimpleDEXv2.sol\":2006:2025  tokenA.transferFrom */\n      0xffffffffffffffffffffffffffffffffffffffff\n      and\n      0x23b872dd\n        /* \"contracts/SimpleDEXv2.sol\":2026:2036  msg.sender */\n      caller\n        /* \"contracts/SimpleDEXv2.sol\":2046:2050  this */\n      address\n        /* \"contracts/SimpleDEXv2.sol\":2053:2062  amountAIn */\n      dup6\n        /* \"contracts/SimpleDEXv2.sol\":2006:2063  tokenA.transferFrom(msg.sender, address(this), amountAIn) */\n      mload(0x40)\n      dup5\n      0xffffffff\n      and\n      0xe0\n      shl\n      dup2\n      mstore\n      0x04\n      add\n      tag_111\n      swap4\n      swap3\n      swap2\n      swap1\n      tag_65\n      jump\t// in\n    tag_111:\n      0x20\n      mload(0x40)\n      dup1\n      dup4\n      sub\n      dup2\n      0x00\n      dup8\n      gas\n      call\n      iszero\n      dup1\n      iszero\n      tag_113\n      jumpi\n      returndatasize\n      0x00\n      dup1\n      returndatacopy\n      revert(0x00, returndatasize)\n    tag_113:\n      pop\n      pop\n      pop\n      pop\n      mload(0x40)\n      returndatasize\n      not(0x1f)\n      0x1f\n      dup3\n      add\n      and\n      dup3\n      add\n      dup1\n      0x40\n      mstore\n      pop\n      dup2\n      add\n      swap1\n      tag_114\n      swap2\n      swap1\n      tag_69\n      jump\t// in\n    tag_114:\n      pop\n        /* \"contracts/SimpleDEXv2.sol\":2074:2080  tokenB */\n      0x01\n      0x00\n      swap1\n      sload\n      swap1\n      0x0100\n      exp\n      swap1\n      div\n      0xffffffffffffffffffffffffffffffffffffffff\n      and\n        /* \"contracts/SimpleDEXv2.sol\":2074:2089  tokenB.transfer */\n      0xffffffffffffffffffffffffffffffffffffffff\n      and\n      0xa9059cbb\n        /* \"contracts/SimpleDEXv2.sol\":2090:2100  msg.sender */\n      caller\n        /* \"contracts/SimpleDEXv2.sol\":2102:2112  amountBOut */\n      dup4\n        /* \"contracts/SimpleDEXv2.sol\":2074:2113  tokenB.transfer(msg.sender, amountBOut) */\n      mload(0x40)\n      dup4\n      0xffffffff\n      and\n      0xe0\n      shl\n      dup2\n      mstore\n      0x04\n      add\n      tag_115\n      swap3\n      swap2\n      swap1\n      tag_71\n      jump\t// in\n    tag_115:\n      0x20\n      mload(0x40)\n      dup1\n      dup4\n      sub\n      dup2\n      0x00\n      dup8\n      gas\n      call\n      iszero\n      dup1\n      iszero\n      tag_117\n      jumpi\n      returndatasize\n      0x00\n      dup1\n      returndatacopy\n      revert(0x00, returndatasize)\n    tag_117:\n      pop\n      pop\n      pop\n      pop\n      mload(0x40)\n      returndatasize\n      not(0x1f)\n      0x1f\n      dup3\n      add\n      and\n      dup3\n      add\n      dup1\n      0x40\n      mstore\n      pop\n      dup2\n      add\n      swap1\n      tag_118\n      swap2\n      swap1\n      tag_69\n      jump\t// in\n    tag_118:\n      pop\n        /* \"contracts/SimpleDEXv2.sol\":2136:2145  amountAIn */\n      dup2\n        /* \"contracts/SimpleDEXv2.sol\":2124:2132  reserveA */\n      0x02\n      0x00\n        /* \"contracts/SimpleDEXv2.sol\":2124:2145  reserveA += amountAIn */\n      dup3\n      dup3\n      sload\n      tag_119\n      swap2\n      swap1\n      tag_76\n      jump\t// in\n    tag_119:\n      swap3\n      pop\n      pop\n      dup2\n      swap1\n      sstore\n      pop\n        /* \"contracts/SimpleDEXv2.sol\":2168:2178  amountBOut */\n      dup1\n        /* \"contracts/SimpleDEXv2.sol\":2156:2164  reserveB */\n      0x03\n      0x00\n        /* \"contracts/SimpleDEXv2.sol\":2156:2178  reserveB -= amountBOut */\n      dup3\n      dup3\n      sload\n      tag_120\n      swap2\n      swap1\n      tag_78\n      jump\t// in\n    tag_120:\n      swap3\n      pop\n      pop\n      dup2\n      swap1\n      sstore\n      pop\n        /* \"contracts/SimpleDEXv2.sol\":2204:2214  msg.sender */\n      caller\n        /* \"contracts/SimpleDEXv2.sol\":2194:2238  SwapAforB(msg.sender, amountAIn, amountBOut) */\n      0xffffffffffffffffffffffffffffffffffffffff\n      and\n      0xa73f8333ff34c4a2ca3172ce0c0ae8b5aa54bc107b961b36fb0cc6818c4e83e0\n        /* \"contracts/SimpleDEXv2.sol\":2216:2225  amountAIn */\n      dup4\n        /* \"contracts/SimpleDEXv2.sol\":2227:2237  amountBOut */\n      dup4\n        /* \"contracts/SimpleDEXv2.sol\":2194:2238  SwapAforB(msg.sender, amountAIn, amountBOut) */\n      mload(0x40)\n      tag_121\n      swap3\n      swap2\n      swap1\n      tag_80\n      jump\t// in\n    tag_121:\n      mload(0x40)\n      dup1\n      swap2\n      sub\n      swap1\n      log2\n        /* \"contracts/SimpleDEXv2.sol\":1920:2246  {... */\n      pop\n        /* \"contracts/SimpleDEXv2.sol\":1873:2246  function swapAforB(uint256 amountAIn) external {... */\n      pop\n      jump\t// out\n        /* \"contracts/SimpleDEXv2.sol\":4085:4374  function getAmountOut(uint256 amountIn, uint256 reserveIn, uint256 reserveOut) internal pure returns (uint256) {... */\n    tag_63:\n        /* \"contracts/SimpleDEXv2.sol\":4187:4194  uint256 */\n      0x00\n        /* \"contracts/SimpleDEXv2.sol\":4207:4227  uint256 newReserveIn */\n      dup1\n        /* \"contracts/SimpleDEXv2.sol\":4242:4250  amountIn */\n      dup5\n        /* \"contracts/SimpleDEXv2.sol\":4230:4239  reserveIn */\n      dup5\n        /* \"contracts/SimpleDEXv2.sol\":4230:4250  reserveIn + amountIn */\n      tag_123\n      swap2\n      swap1\n      tag_76\n      jump\t// in\n    tag_123:\n        /* \"contracts/SimpleDEXv2.sol\":4207:4250  uint256 newReserveIn = reserveIn + amountIn */\n      swap1\n      pop\n        /* \"contracts/SimpleDEXv2.sol\":4261:4282  uint256 newReserveOut */\n      0x00\n        /* \"contracts/SimpleDEXv2.sol\":4310:4322  newReserveIn */\n      dup2\n        /* \"contracts/SimpleDEXv2.sol\":4298:4307  reserveIn */\n      dup6\n        /* \"contracts/SimpleDEXv2.sol\":4285:4295  reserveOut */\n      dup6\n        /* \"contracts/SimpleDEXv2.sol\":4285:4307  reserveOut * reserveIn */\n      tag_124\n      swap2\n      swap1\n      tag_125\n      jump\t// in\n    tag_124:\n        /* \"contracts/SimpleDEXv2.sol\":4285:4322  reserveOut * reserveIn / newReserveIn */\n      tag_126\n      swap2\n      swap1\n      tag_54\n      jump\t// in\n    tag_126:\n        /* \"contracts/SimpleDEXv2.sol\":4261:4322  uint256 newReserveOut = reserveOut * reserveIn / newReserveIn */\n      swap1\n      pop\n        /* \"contracts/SimpleDEXv2.sol\":4353:4366  newReserveOut */\n      dup1\n        /* \"contracts/SimpleDEXv2.sol\":4340:4350  reserveOut */\n      dup5\n        /* \"contracts/SimpleDEXv2.sol\":4340:4366  reserveOut - newReserveOut */\n      tag_127\n      swap2\n      swap1\n      tag_78\n      jump\t// in\n    tag_127:\n        /* \"contracts/SimpleDEXv2.sol\":4333:4366  return reserveOut - newReserveOut */\n      swap3\n      pop\n      pop\n      pop\n        /* \"contracts/SimpleDEXv2.sol\":4085:4374  function getAmountOut(uint256 amountIn, uint256 reserveIn, uint256 reserveOut) internal pure returns (uint256) {... */\n      swap4\n      swap3\n      pop\n      pop\n      pop\n      jump\t// out\n        /* \"#utility.yul\":7:133   */\n    tag_128:\n        /* \"#utility.yul\":44:51   */\n      0x00\n        /* \"#utility.yul\":84:126   */\n      0xffffffffffffffffffffffffffffffffffffffff\n        /* \"#utility.yul\":77:82   */\n      dup3\n        /* \"#utility.yul\":73:127   */\n      and\n        /* \"#utility.yul\":62:127   */\n      swap1\n      pop\n        /* \"#utility.yul\":7:133   */\n      swap2\n      swap1\n      pop\n      jump\t// out\n        /* \"#utility.yul\":139:199   */\n    tag_129:\n        /* \"#utility.yul\":167:170   */\n      0x00\n        /* \"#utility.yul\":188:193   */\n      dup2\n        /* \"#utility.yul\":181:193   */\n      swap1\n      pop\n        /* \"#utility.yul\":139:199   */\n      swap2\n      swap1\n      pop\n      jump\t// out\n        /* \"#utility.yul\":205:347   */\n    tag_130:\n        /* \"#utility.yul\":255:264   */\n      0x00\n        /* \"#utility.yul\":288:341   */\n      tag_159\n        /* \"#utility.yul\":306:340   */\n      tag_160\n        /* \"#utility.yul\":315:339   */\n      tag_161\n        /* \"#utility.yul\":333:338   */\n      dup5\n        /* \"#utility.yul\":315:339   */\n      tag_128\n      jump\t// in\n    tag_161:\n        /* \"#utility.yul\":306:340   */\n      tag_129\n      jump\t// in\n    tag_160:\n        /* \"#utility.yul\":288:341   */\n      tag_128\n      jump\t// in\n    tag_159:\n        /* \"#utility.yul\":275:341   */\n      swap1\n      pop\n        /* \"#utility.yul\":205:347   */\n      swap2\n      swap1\n      pop\n      jump\t// out\n        /* \"#utility.yul\":353:479   */\n    tag_131:\n        /* \"#utility.yul\":403:412   */\n      0x00\n        /* \"#utility.yul\":436:473   */\n      tag_163\n        /* \"#utility.yul\":467:472   */\n      dup3\n        /* \"#utility.yul\":436:473   */\n      tag_130\n      jump\t// in\n    tag_163:\n        /* \"#utility.yul\":423:473   */\n      swap1\n      pop\n        /* \"#utility.yul\":353:479   */\n      swap2\n      swap1\n      pop\n      jump\t// out\n        /* \"#utility.yul\":485:624   */\n    tag_132:\n        /* \"#utility.yul\":548:557   */\n      0x00\n        /* \"#utility.yul\":581:618   */\n      tag_165\n        /* \"#utility.yul\":612:617   */\n      dup3\n        /* \"#utility.yul\":581:618   */\n      tag_131\n      jump\t// in\n    tag_165:\n        /* \"#utility.yul\":568:618   */\n      swap1\n      pop\n        /* \"#utility.yul\":485:624   */\n      swap2\n      swap1\n      pop\n      jump\t// out\n        /* \"#utility.yul\":630:787   */\n    tag_133:\n        /* \"#utility.yul\":730:780   */\n      tag_167\n        /* \"#utility.yul\":774:779   */\n      dup2\n        /* \"#utility.yul\":730:780   */\n      tag_132\n      jump\t// in\n    tag_167:\n        /* \"#utility.yul\":725:728   */\n      dup3\n        /* \"#utility.yul\":718:781   */\n      mstore\n        /* \"#utility.yul\":630:787   */\n      pop\n      pop\n      jump\t// out\n        /* \"#utility.yul\":793:1041   */\n    tag_17:\n        /* \"#utility.yul\":899:903   */\n      0x00\n        /* \"#utility.yul\":937:939   */\n      0x20\n        /* \"#utility.yul\":926:935   */\n      dup3\n        /* \"#utility.yul\":922:940   */\n      add\n        /* \"#utility.yul\":914:940   */\n      swap1\n      pop\n        /* \"#utility.yul\":950:1034   */\n      tag_169\n        /* \"#utility.yul\":1031:1032   */\n      0x00\n        /* \"#utility.yul\":1020:1029   */\n      dup4\n        /* \"#utility.yul\":1016:1033   */\n      add\n        /* \"#utility.yul\":1007:1013   */\n      dup5\n        /* \"#utility.yul\":950:1034   */\n      tag_133\n      jump\t// in\n    tag_169:\n        /* \"#utility.yul\":793:1041   */\n      swap3\n      swap2\n      pop\n      pop\n      jump\t// out\n        /* \"#utility.yul\":1047:1124   */\n    tag_134:\n        /* \"#utility.yul\":1084:1091   */\n      0x00\n        /* \"#utility.yul\":1113:1118   */\n      dup2\n        /* \"#utility.yul\":1102:1118   */\n      swap1\n      pop\n        /* \"#utility.yul\":1047:1124   */\n      swap2\n      swap1\n      pop\n      jump\t// out\n        /* \"#utility.yul\":1130:1248   */\n    tag_135:\n        /* \"#utility.yul\":1217:1241   */\n      tag_172\n        /* \"#utility.yul\":1235:1240   */\n      dup2\n        /* \"#utility.yul\":1217:1241   */\n      tag_134\n      jump\t// in\n    tag_172:\n        /* \"#utility.yul\":1212:1215   */\n      dup3\n        /* \"#utility.yul\":1205:1242   */\n      mstore\n        /* \"#utility.yul\":1130:1248   */\n      pop\n      pop\n      jump\t// out\n        /* \"#utility.yul\":1254:1476   */\n    tag_21:\n        /* \"#utility.yul\":1347:1351   */\n      0x00\n        /* \"#utility.yul\":1385:1387   */\n      0x20\n        /* \"#utility.yul\":1374:1383   */\n      dup3\n        /* \"#utility.yul\":1370:1388   */\n      add\n        /* \"#utility.yul\":1362:1388   */\n      swap1\n      pop\n        /* \"#utility.yul\":1398:1469   */\n      tag_174\n        /* \"#utility.yul\":1466:1467   */\n      0x00\n        /* \"#utility.yul\":1455:1464   */\n      dup4\n        /* \"#utility.yul\":1451:1468   */\n      add\n        /* \"#utility.yul\":1442:1448   */\n      dup5\n        /* \"#utility.yul\":1398:1469   */\n      tag_135\n      jump\t// in\n    tag_174:\n        /* \"#utility.yul\":1254:1476   */\n      swap3\n      swap2\n      pop\n      pop\n      jump\t// out\n        /* \"#utility.yul\":1563:1680   */\n    tag_137:\n        /* \"#utility.yul\":1672:1673   */\n      0x00\n        /* \"#utility.yul\":1669:1670   */\n      dup1\n        /* \"#utility.yul\":1662:1674   */\n      revert\n        /* \"#utility.yul\":1809:1905   */\n    tag_139:\n        /* \"#utility.yul\":1846:1853   */\n      0x00\n        /* \"#utility.yul\":1875:1899   */\n      tag_179\n        /* \"#utility.yul\":1893:1898   */\n      dup3\n        /* \"#utility.yul\":1875:1899   */\n      tag_128\n      jump\t// in\n    tag_179:\n        /* \"#utility.yul\":1864:1899   */\n      swap1\n      pop\n        /* \"#utility.yul\":1809:1905   */\n      swap2\n      swap1\n      pop\n      jump\t// out\n        /* \"#utility.yul\":1911:2033   */\n    tag_140:\n        /* \"#utility.yul\":1984:2008   */\n      tag_181\n        /* \"#utility.yul\":2002:2007   */\n      dup2\n        /* \"#utility.yul\":1984:2008   */\n      tag_139\n      jump\t// in\n    tag_181:\n        /* \"#utility.yul\":1977:1982   */\n      dup2\n        /* \"#utility.yul\":1974:2009   */\n      eq\n        /* \"#utility.yul\":1964:2027   */\n      tag_182\n      jumpi\n        /* \"#utility.yul\":2023:2024   */\n      0x00\n        /* \"#utility.yul\":2020:2021   */\n      dup1\n        /* \"#utility.yul\":2013:2025   */\n      revert\n        /* \"#utility.yul\":1964:2027   */\n    tag_182:\n        /* \"#utility.yul\":1911:2033   */\n      pop\n      jump\t// out\n        /* \"#utility.yul\":2039:2178   */\n    tag_141:\n        /* \"#utility.yul\":2085:2090   */\n      0x00\n        /* \"#utility.yul\":2123:2129   */\n      dup2\n        /* \"#utility.yul\":2110:2130   */\n      calldataload\n        /* \"#utility.yul\":2101:2130   */\n      swap1\n      pop\n        /* \"#utility.yul\":2139:2172   */\n      tag_184\n        /* \"#utility.yul\":2166:2171   */\n      dup2\n        /* \"#utility.yul\":2139:2172   */\n      tag_140\n      jump\t// in\n    tag_184:\n        /* \"#utility.yul\":2039:2178   */\n      swap3\n      swap2\n      pop\n      pop\n      jump\t// out\n        /* \"#utility.yul\":2184:2513   */\n    tag_24:\n        /* \"#utility.yul\":2243:2249   */\n      0x00\n        /* \"#utility.yul\":2292:2294   */\n      0x20\n        /* \"#utility.yul\":2280:2289   */\n      dup3\n        /* \"#utility.yul\":2271:2278   */\n      dup5\n        /* \"#utility.yul\":2267:2290   */\n      sub\n        /* \"#utility.yul\":2263:2295   */\n      slt\n        /* \"#utility.yul\":2260:2379   */\n      iszero\n      tag_186\n      jumpi\n        /* \"#utility.yul\":2298:2377   */\n      tag_187\n      tag_137\n      jump\t// in\n    tag_187:\n        /* \"#utility.yul\":2260:2379   */\n    tag_186:\n        /* \"#utility.yul\":2418:2419   */\n      0x00\n        /* \"#utility.yul\":2443:2496   */\n      tag_188\n        /* \"#utility.yul\":2488:2495   */\n      dup5\n        /* \"#utility.yul\":2479:2485   */\n      dup3\n        /* \"#utility.yul\":2468:2477   */\n      dup6\n        /* \"#utility.yul\":2464:2486   */\n      add\n        /* \"#utility.yul\":2443:2496   */\n      tag_141\n      jump\t// in\n    tag_188:\n        /* \"#utility.yul\":2433:2496   */\n      swap2\n      pop\n        /* \"#utility.yul\":2389:2506   */\n      pop\n        /* \"#utility.yul\":2184:2513   */\n      swap3\n      swap2\n      pop\n      pop\n      jump\t// out\n        /* \"#utility.yul\":2519:2641   */\n    tag_142:\n        /* \"#utility.yul\":2592:2616   */\n      tag_190\n        /* \"#utility.yul\":2610:2615   */\n      dup2\n        /* \"#utility.yul\":2592:2616   */\n      tag_134\n      jump\t// in\n    tag_190:\n        /* \"#utility.yul\":2585:2590   */\n      dup2\n        /* \"#utility.yul\":2582:2617   */\n      eq\n        /* \"#utility.yul\":2572:2635   */\n      tag_191\n      jumpi\n        /* \"#utility.yul\":2631:2632   */\n      0x00\n        /* \"#utility.yul\":2628:2629   */\n      dup1\n        /* \"#utility.yul\":2621:2633   */\n      revert\n        /* \"#utility.yul\":2572:2635   */\n    tag_191:\n        /* \"#utility.yul\":2519:2641   */\n      pop\n      jump\t// out\n        /* \"#utility.yul\":2647:2786   */\n    tag_143:\n        /* \"#utility.yul\":2693:2698   */\n      0x00\n        /* \"#utility.yul\":2731:2737   */\n      dup2\n        /* \"#utility.yul\":2718:2738   */\n      calldataload\n        /* \"#utility.yul\":2709:2738   */\n      swap1\n      pop\n        /* \"#utility.yul\":2747:2780   */\n      tag_193\n        /* \"#utility.yul\":2774:2779   */\n      dup2\n        /* \"#utility.yul\":2747:2780   */\n      tag_142\n      jump\t// in\n    tag_193:\n        /* \"#utility.yul\":2647:2786   */\n      swap3\n      swap2\n      pop\n      pop\n      jump\t// out\n        /* \"#utility.yul\":2792:3121   */\n    tag_32:\n        /* \"#utility.yul\":2851:2857   */\n      0x00\n        /* \"#utility.yul\":2900:2902   */\n      0x20\n        /* \"#utility.yul\":2888:2897   */\n      dup3\n        /* \"#utility.yul\":2879:2886   */\n      dup5\n        /* \"#utility.yul\":2875:2898   */\n      sub\n        /* \"#utility.yul\":2871:2903   */\n      slt\n        /* \"#utility.yul\":2868:2987   */\n      iszero\n      tag_195\n      jumpi\n        /* \"#utility.yul\":2906:2985   */\n      tag_196\n      tag_137\n      jump\t// in\n    tag_196:\n        /* \"#utility.yul\":2868:2987   */\n    tag_195:\n        /* \"#utility.yul\":3026:3027   */\n      0x00\n        /* \"#utility.yul\":3051:3104   */\n      tag_197\n        /* \"#utility.yul\":3096:3103   */\n      dup5\n        /* \"#utility.yul\":3087:3093   */\n      dup3\n        /* \"#utility.yul\":3076:3085   */\n      dup6\n        /* \"#utility.yul\":3072:3094   */\n      add\n        /* \"#utility.yul\":3051:3104   */\n      tag_143\n      jump\t// in\n    tag_197:\n        /* \"#utility.yul\":3041:3104   */\n      swap2\n      pop\n        /* \"#utility.yul\":2997:3114   */\n      pop\n        /* \"#utility.yul\":2792:3121   */\n      swap3\n      swap2\n      pop\n      pop\n      jump\t// out\n        /* \"#utility.yul\":3127:3245   */\n    tag_144:\n        /* \"#utility.yul\":3214:3238   */\n      tag_199\n        /* \"#utility.yul\":3232:3237   */\n      dup2\n        /* \"#utility.yul\":3214:3238   */\n      tag_139\n      jump\t// in\n    tag_199:\n        /* \"#utility.yul\":3209:3212   */\n      dup3\n        /* \"#utility.yul\":3202:3239   */\n      mstore\n        /* \"#utility.yul\":3127:3245   */\n      pop\n      pop\n      jump\t// out\n        /* \"#utility.yul\":3251:3473   */\n    tag_37:\n        /* \"#utility.yul\":3344:3348   */\n      0x00\n        /* \"#utility.yul\":3382:3384   */\n      0x20\n        /* \"#utility.yul\":3371:3380   */\n      dup3\n        /* \"#utility.yul\":3367:3385   */\n      add\n        /* \"#utility.yul\":3359:3385   */\n      swap1\n      pop\n        /* \"#utility.yul\":3395:3466   */\n      tag_201\n        /* \"#utility.yul\":3463:3464   */\n      0x00\n        /* \"#utility.yul\":3452:3461   */\n      dup4\n        /* \"#utility.yul\":3448:3465   */\n      add\n        /* \"#utility.yul\":3439:3445   */\n      dup5\n        /* \"#utility.yul\":3395:3466   */\n      tag_144\n      jump\t// in\n    tag_201:\n        /* \"#utility.yul\":3251:3473   */\n      swap3\n      swap2\n      pop\n      pop\n      jump\t// out\n        /* \"#utility.yul\":3479:3953   */\n    tag_40:\n        /* \"#utility.yul\":3547:3553   */\n      0x00\n        /* \"#utility.yul\":3555:3561   */\n      dup1\n        /* \"#utility.yul\":3604:3606   */\n      0x40\n        /* \"#utility.yul\":3592:3601   */\n      dup4\n        /* \"#utility.yul\":3583:3590   */\n      dup6\n        /* \"#utility.yul\":3579:3602   */\n      sub\n        /* \"#utility.yul\":3575:3607   */\n      slt\n        /* \"#utility.yul\":3572:3691   */\n      iszero\n      tag_203\n      jumpi\n        /* \"#utility.yul\":3610:3689   */\n      tag_204\n      tag_137\n      jump\t// in\n    tag_204:\n        /* \"#utility.yul\":3572:3691   */\n    tag_203:\n        /* \"#utility.yul\":3730:3731   */\n      0x00\n        /* \"#utility.yul\":3755:3808   */\n      tag_205\n        /* \"#utility.yul\":3800:3807   */\n      dup6\n        /* \"#utility.yul\":3791:3797   */\n      dup3\n        /* \"#utility.yul\":3780:3789   */\n      dup7\n        /* \"#utility.yul\":3776:3798   */\n      add\n        /* \"#utility.yul\":3755:3808   */\n      tag_143\n      jump\t// in\n    tag_205:\n        /* \"#utility.yul\":3745:3808   */\n      swap3\n      pop\n        /* \"#utility.yul\":3701:3818   */\n      pop\n        /* \"#utility.yul\":3857:3859   */\n      0x20\n        /* \"#utility.yul\":3883:3936   */\n      tag_206\n        /* \"#utility.yul\":3928:3935   */\n      dup6\n        /* \"#utility.yul\":3919:3925   */\n      dup3\n        /* \"#utility.yul\":3908:3917   */\n      dup7\n        /* \"#utility.yul\":3904:3926   */\n      add\n        /* \"#utility.yul\":3883:3936   */\n      tag_143\n      jump\t// in\n    tag_206:\n        /* \"#utility.yul\":3873:3936   */\n      swap2\n      pop\n        /* \"#utility.yul\":3828:3946   */\n      pop\n        /* \"#utility.yul\":3479:3953   */\n      swap3\n      pop\n      swap3\n      swap1\n      pop\n      jump\t// out\n        /* \"#utility.yul\":3959:4139   */\n    tag_145:\n        /* \"#utility.yul\":4007:4084   */\n      0x4e487b7100000000000000000000000000000000000000000000000000000000\n        /* \"#utility.yul\":4004:4005   */\n      0x00\n        /* \"#utility.yul\":3997:4085   */\n      mstore\n        /* \"#utility.yul\":4104:4108   */\n      0x12\n        /* \"#utility.yul\":4101:4102   */\n      0x04\n        /* \"#utility.yul\":4094:4109   */\n      mstore\n        /* \"#utility.yul\":4128:4132   */\n      0x24\n        /* \"#utility.yul\":4125:4126   */\n      0x00\n        /* \"#utility.yul\":4118:4133   */\n      revert\n        /* \"#utility.yul\":4145:4325   */\n    tag_146:\n        /* \"#utility.yul\":4193:4270   */\n      0x4e487b7100000000000000000000000000000000000000000000000000000000\n        /* \"#utility.yul\":4190:4191   */\n      0x00\n        /* \"#utility.yul\":4183:4271   */\n      mstore\n        /* \"#utility.yul\":4290:4294   */\n      0x11\n        /* \"#utility.yul\":4287:4288   */\n      0x04\n        /* \"#utility.yul\":4280:4295   */\n      mstore\n        /* \"#utility.yul\":4314:4318   */\n      0x24\n        /* \"#utility.yul\":4311:4312   */\n      0x00\n        /* \"#utility.yul\":4304:4319   */\n      revert\n        /* \"#utility.yul\":4331:4516   */\n    tag_54:\n        /* \"#utility.yul\":4371:4372   */\n      0x00\n        /* \"#utility.yul\":4388:4408   */\n      tag_210\n        /* \"#utility.yul\":4406:4407   */\n      dup3\n        /* \"#utility.yul\":4388:4408   */\n      tag_134\n      jump\t// in\n    tag_210:\n        /* \"#utility.yul\":4383:4408   */\n      swap2\n      pop\n        /* \"#utility.yul\":4422:4442   */\n      tag_211\n        /* \"#utility.yul\":4440:4441   */\n      dup4\n        /* \"#utility.yul\":4422:4442   */\n      tag_134\n      jump\t// in\n    tag_211:\n        /* \"#utility.yul\":4417:4442   */\n      swap3\n      pop\n        /* \"#utility.yul\":4461:4462   */\n      dup3\n        /* \"#utility.yul\":4451:4486   */\n      tag_212\n      jumpi\n        /* \"#utility.yul\":4466:4484   */\n      tag_213\n      tag_145\n      jump\t// in\n    tag_213:\n        /* \"#utility.yul\":4451:4486   */\n    tag_212:\n        /* \"#utility.yul\":4508:4509   */\n      dup3\n        /* \"#utility.yul\":4505:4506   */\n      dup3\n        /* \"#utility.yul\":4501:4510   */\n      div\n        /* \"#utility.yul\":4496:4510   */\n      swap1\n      pop\n        /* \"#utility.yul\":4331:4516   */\n      swap3\n      swap2\n      pop\n      pop\n      jump\t// out\n        /* \"#utility.yul\":4522:4691   */\n    tag_147:\n        /* \"#utility.yul\":4606:4617   */\n      0x00\n        /* \"#utility.yul\":4640:4646   */\n      dup3\n        /* \"#utility.yul\":4635:4638   */\n      dup3\n        /* \"#utility.yul\":4628:4647   */\n      mstore\n        /* \"#utility.yul\":4680:4684   */\n      0x20\n        /* \"#utility.yul\":4675:4678   */\n      dup3\n        /* \"#utility.yul\":4671:4685   */\n      add\n        /* \"#utility.yul\":4656:4685   */\n      swap1\n      pop\n        /* \"#utility.yul\":4522:4691   */\n      swap3\n      swap2\n      pop\n      pop\n      jump\t// out\n        /* \"#utility.yul\":4697:4868   */\n    tag_148:\n        /* \"#utility.yul\":4837:4860   */\n      0x496e76616c696420746f6b656e20616464726573730000000000000000000000\n        /* \"#utility.yul\":4833:4834   */\n      0x00\n        /* \"#utility.yul\":4825:4831   */\n      dup3\n        /* \"#utility.yul\":4821:4835   */\n      add\n        /* \"#utility.yul\":4814:4861   */\n      mstore\n        /* \"#utility.yul\":4697:4868   */\n      pop\n      jump\t// out\n        /* \"#utility.yul\":4874:5240   */\n    tag_149:\n        /* \"#utility.yul\":5016:5019   */\n      0x00\n        /* \"#utility.yul\":5037:5104   */\n      tag_217\n        /* \"#utility.yul\":5101:5103   */\n      0x15\n        /* \"#utility.yul\":5096:5099   */\n      dup4\n        /* \"#utility.yul\":5037:5104   */\n      tag_147\n      jump\t// in\n    tag_217:\n        /* \"#utility.yul\":5030:5104   */\n      swap2\n      pop\n        /* \"#utility.yul\":5113:5206   */\n      tag_218\n        /* \"#utility.yul\":5202:5205   */\n      dup3\n        /* \"#utility.yul\":5113:5206   */\n      tag_148\n      jump\t// in\n    tag_218:\n        /* \"#utility.yul\":5231:5233   */\n      0x20\n        /* \"#utility.yul\":5226:5229   */\n      dup3\n        /* \"#utility.yul\":5222:5234   */\n      add\n        /* \"#utility.yul\":5215:5234   */\n      swap1\n      pop\n        /* \"#utility.yul\":4874:5240   */\n      swap2\n      swap1\n      pop\n      jump\t// out\n        /* \"#utility.yul\":5246:5665   */\n    tag_60:\n        /* \"#utility.yul\":5412:5416   */\n      0x00\n        /* \"#utility.yul\":5450:5452   */\n      0x20\n        /* \"#utility.yul\":5439:5448   */\n      dup3\n        /* \"#utility.yul\":5435:5453   */\n      add\n        /* \"#utility.yul\":5427:5453   */\n      swap1\n      pop\n        /* \"#utility.yul\":5499:5508   */\n      dup2\n        /* \"#utility.yul\":5493:5497   */\n      dup2\n        /* \"#utility.yul\":5489:5509   */\n      sub\n        /* \"#utility.yul\":5485:5486   */\n      0x00\n        /* \"#utility.yul\":5474:5483   */\n      dup4\n        /* \"#utility.yul\":5470:5487   */\n      add\n        /* \"#utility.yul\":5463:5510   */\n      mstore\n        /* \"#utility.yul\":5527:5658   */\n      tag_220\n        /* \"#utility.yul\":5653:5657   */\n      dup2\n        /* \"#utility.yul\":5527:5658   */\n      tag_149\n      jump\t// in\n    tag_220:\n        /* \"#utility.yul\":5519:5658   */\n      swap1\n      pop\n        /* \"#utility.yul\":5246:5665   */\n      swap2\n      swap1\n      pop\n      jump\t// out\n        /* \"#utility.yul\":5671:6113   */\n    tag_65:\n        /* \"#utility.yul\":5820:5824   */\n      0x00\n        /* \"#utility.yul\":5858:5860   */\n      0x60\n        /* \"#utility.yul\":5847:5856   */\n      dup3\n        /* \"#utility.yul\":5843:5861   */\n      add\n        /* \"#utility.yul\":5835:5861   */\n      swap1\n      pop\n        /* \"#utility.yul\":5871:5942   */\n      tag_222\n        /* \"#utility.yul\":5939:5940   */\n      0x00\n        /* \"#utility.yul\":5928:5937   */\n      dup4\n        /* \"#utility.yul\":5924:5941   */\n      add\n        /* \"#utility.yul\":5915:5921   */\n      dup7\n        /* \"#utility.yul\":5871:5942   */\n      tag_144\n      jump\t// in\n    tag_222:\n        /* \"#utility.yul\":5952:6024   */\n      tag_223\n        /* \"#utility.yul\":6020:6022   */\n      0x20\n        /* \"#utility.yul\":6009:6018   */\n      dup4\n        /* \"#utility.yul\":6005:6023   */\n      add\n        /* \"#utility.yul\":5996:6002   */\n      dup6\n        /* \"#utility.yul\":5952:6024   */\n      tag_144\n      jump\t// in\n    tag_223:\n        /* \"#utility.yul\":6034:6106   */\n      tag_224\n        /* \"#utility.yul\":6102:6104   */\n      0x40\n        /* \"#utility.yul\":6091:6100   */\n      dup4\n        /* \"#utility.yul\":6087:6105   */\n      add\n        /* \"#utility.yul\":6078:6084   */\n      dup5\n        /* \"#utility.yul\":6034:6106   */\n      tag_135\n      jump\t// in\n    tag_224:\n        /* \"#utility.yul\":5671:6113   */\n      swap5\n      swap4\n      pop\n      pop\n      pop\n      pop\n      jump\t// out\n        /* \"#utility.yul\":6119:6209   */\n    tag_150:\n        /* \"#utility.yul\":6153:6160   */\n      0x00\n        /* \"#utility.yul\":6196:6201   */\n      dup2\n        /* \"#utility.yul\":6189:6202   */\n      iszero\n        /* \"#utility.yul\":6182:6203   */\n      iszero\n        /* \"#utility.yul\":6171:6203   */\n      swap1\n      pop\n        /* \"#utility.yul\":6119:6209   */\n      swap2\n      swap1\n      pop\n      jump\t// out\n        /* \"#utility.yul\":6215:6331   */\n    tag_151:\n        /* \"#utility.yul\":6285:6306   */\n      tag_227\n        /* \"#utility.yul\":6300:6305   */\n      dup2\n        /* \"#utility.yul\":6285:6306   */\n      tag_150\n      jump\t// in\n    tag_227:\n        /* \"#utility.yul\":6278:6283   */\n      dup2\n        /* \"#utility.yul\":6275:6307   */\n      eq\n        /* \"#utility.yul\":6265:6325   */\n      tag_228\n      jumpi\n        /* \"#utility.yul\":6321:6322   */\n      0x00\n        /* \"#utility.yul\":6318:6319   */\n      dup1\n        /* \"#utility.yul\":6311:6323   */\n      revert\n        /* \"#utility.yul\":6265:6325   */\n    tag_228:\n        /* \"#utility.yul\":6215:6331   */\n      pop\n      jump\t// out\n        /* \"#utility.yul\":6337:6474   */\n    tag_152:\n        /* \"#utility.yul\":6391:6396   */\n      0x00\n        /* \"#utility.yul\":6422:6428   */\n      dup2\n        /* \"#utility.yul\":6416:6429   */\n      mload\n        /* \"#utility.yul\":6407:6429   */\n      swap1\n      pop\n        /* \"#utility.yul\":6438:6468   */\n      tag_230\n        /* \"#utility.yul\":6462:6467   */\n      dup2\n        /* \"#utility.yul\":6438:6468   */\n      tag_151\n      jump\t// in\n    tag_230:\n        /* \"#utility.yul\":6337:6474   */\n      swap3\n      swap2\n      pop\n      pop\n      jump\t// out\n        /* \"#utility.yul\":6480:6825   */\n    tag_69:\n        /* \"#utility.yul\":6547:6553   */\n      0x00\n        /* \"#utility.yul\":6596:6598   */\n      0x20\n        /* \"#utility.yul\":6584:6593   */\n      dup3\n        /* \"#utility.yul\":6575:6582   */\n      dup5\n        /* \"#utility.yul\":6571:6594   */\n      sub\n        /* \"#utility.yul\":6567:6599   */\n      slt\n        /* \"#utility.yul\":6564:6683   */\n      iszero\n      tag_232\n      jumpi\n        /* \"#utility.yul\":6602:6681   */\n      tag_233\n      tag_137\n      jump\t// in\n    tag_233:\n        /* \"#utility.yul\":6564:6683   */\n    tag_232:\n        /* \"#utility.yul\":6722:6723   */\n      0x00\n        /* \"#utility.yul\":6747:6808   */\n      tag_234\n        /* \"#utility.yul\":6800:6807   */\n      dup5\n        /* \"#utility.yul\":6791:6797   */\n      dup3\n        /* \"#utility.yul\":6780:6789   */\n      dup6\n        /* \"#utility.yul\":6776:6798   */\n      add\n        /* \"#utility.yul\":6747:6808   */\n      tag_152\n      jump\t// in\n    tag_234:\n        /* \"#utility.yul\":6737:6808   */\n      swap2\n      pop\n        /* \"#utility.yul\":6693:6818   */\n      pop\n        /* \"#utility.yul\":6480:6825   */\n      swap3\n      swap2\n      pop\n      pop\n      jump\t// out\n        /* \"#utility.yul\":6831:7163   */\n    tag_71:\n        /* \"#utility.yul\":6952:6956   */\n      0x00\n        /* \"#utility.yul\":6990:6992   */\n      0x40\n        /* \"#utility.yul\":6979:6988   */\n      dup3\n        /* \"#utility.yul\":6975:6993   */\n      add\n        /* \"#utility.yul\":6967:6993   */\n      swap1\n      pop\n        /* \"#utility.yul\":7003:7074   */\n      tag_236\n        /* \"#utility.yul\":7071:7072   */\n      0x00\n        /* \"#utility.yul\":7060:7069   */\n      dup4\n        /* \"#utility.yul\":7056:7073   */\n      add\n        /* \"#utility.yul\":7047:7053   */\n      dup6\n        /* \"#utility.yul\":7003:7074   */\n      tag_144\n      jump\t// in\n    tag_236:\n        /* \"#utility.yul\":7084:7156   */\n      tag_237\n        /* \"#utility.yul\":7152:7154   */\n      0x20\n        /* \"#utility.yul\":7141:7150   */\n      dup4\n        /* \"#utility.yul\":7137:7155   */\n      add\n        /* \"#utility.yul\":7128:7134   */\n      dup5\n        /* \"#utility.yul\":7084:7156   */\n      tag_135\n      jump\t// in\n    tag_237:\n        /* \"#utility.yul\":6831:7163   */\n      swap4\n      swap3\n      pop\n      pop\n      pop\n      jump\t// out\n        /* \"#utility.yul\":7169:7360   */\n    tag_76:\n        /* \"#utility.yul\":7209:7212   */\n      0x00\n        /* \"#utility.yul\":7228:7248   */\n      tag_239\n        /* \"#utility.yul\":7246:7247   */\n      dup3\n        /* \"#utility.yul\":7228:7248   */\n      tag_134\n      jump\t// in\n    tag_239:\n        /* \"#utility.yul\":7223:7248   */\n      swap2\n      pop\n        /* \"#utility.yul\":7262:7282   */\n      tag_240\n        /* \"#utility.yul\":7280:7281   */\n      dup4\n        /* \"#utility.yul\":7262:7282   */\n      tag_134\n      jump\t// in\n    tag_240:\n        /* \"#utility.yul\":7257:7282   */\n      swap3\n      pop\n        /* \"#utility.yul\":7305:7306   */\n      dup3\n        /* \"#utility.yul\":7302:7303   */\n      dup3\n        /* \"#utility.yul\":7298:7307   */\n      add\n        /* \"#utility.yul\":7291:7307   */\n      swap1\n      pop\n        /* \"#utility.yul\":7326:7329   */\n      dup1\n        /* \"#utility.yul\":7323:7324   */\n      dup3\n        /* \"#utility.yul\":7320:7330   */\n      gt\n        /* \"#utility.yul\":7317:7353   */\n      iszero\n      tag_241\n      jumpi\n        /* \"#utility.yul\":7333:7351   */\n      tag_242\n      tag_146\n      jump\t// in\n    tag_242:\n        /* \"#utility.yul\":7317:7353   */\n    tag_241:\n        /* \"#utility.yul\":7169:7360   */\n      swap3\n      swap2\n      pop\n      pop\n      jump\t// out\n        /* \"#utility.yul\":7366:7560   */\n    tag_78:\n        /* \"#utility.yul\":7406:7410   */\n      0x00\n        /* \"#utility.yul\":7426:7446   */\n      tag_244\n        /* \"#utility.yul\":7444:7445   */\n      dup3\n        /* \"#utility.yul\":7426:7446   */\n      tag_134\n      jump\t// in\n    tag_244:\n        /* \"#utility.yul\":7421:7446   */\n      swap2\n      pop\n        /* \"#utility.yul\":7460:7480   */\n      tag_245\n        /* \"#utility.yul\":7478:7479   */\n      dup4\n        /* \"#utility.yul\":7460:7480   */\n      tag_134\n      jump\t// in\n    tag_245:\n        /* \"#utility.yul\":7455:7480   */\n      swap3\n      pop\n        /* \"#utility.yul\":7504:7505   */\n      dup3\n        /* \"#utility.yul\":7501:7502   */\n      dup3\n        /* \"#utility.yul\":7497:7506   */\n      sub\n        /* \"#utility.yul\":7489:7506   */\n      swap1\n      pop\n        /* \"#utility.yul\":7528:7529   */\n      dup2\n        /* \"#utility.yul\":7522:7526   */\n      dup2\n        /* \"#utility.yul\":7519:7530   */\n      gt\n        /* \"#utility.yul\":7516:7553   */\n      iszero\n      tag_246\n      jumpi\n        /* \"#utility.yul\":7533:7551   */\n      tag_247\n      tag_146\n      jump\t// in\n    tag_247:\n        /* \"#utility.yul\":7516:7553   */\n    tag_246:\n        /* \"#utility.yul\":7366:7560   */\n      swap3\n      swap2\n      pop\n      pop\n      jump\t// out\n        /* \"#utility.yul\":7566:7898   */\n    tag_80:\n        /* \"#utility.yul\":7687:7691   */\n      0x00\n        /* \"#utility.yul\":7725:7727   */\n      0x40\n        /* \"#utility.yul\":7714:7723   */\n      dup3\n        /* \"#utility.yul\":7710:7728   */\n      add\n        /* \"#utility.yul\":7702:7728   */\n      swap1\n      pop\n        /* \"#utility.yul\":7738:7809   */\n      tag_249\n        /* \"#utility.yul\":7806:7807   */\n      0x00\n        /* \"#utility.yul\":7795:7804   */\n      dup4\n        /* \"#utility.yul\":7791:7808   */\n      add\n        /* \"#utility.yul\":7782:7788   */\n      dup6\n        /* \"#utility.yul\":7738:7809   */\n      tag_135\n      jump\t// in\n    tag_249:\n        /* \"#utility.yul\":7819:7891   */\n      tag_250\n        /* \"#utility.yul\":7887:7889   */\n      0x20\n        /* \"#utility.yul\":7876:7885   */\n      dup4\n        /* \"#utility.yul\":7872:7890   */\n      add\n        /* \"#utility.yul\":7863:7869   */\n      dup5\n        /* \"#utility.yul\":7819:7891   */\n      tag_135\n      jump\t// in\n    tag_250:\n        /* \"#utility.yul\":7566:7898   */\n      swap4\n      swap3\n      pop\n      pop\n      pop\n      jump\t// out\n        /* \"#utility.yul\":7904:8076   */\n    tag_153:\n        /* \"#utility.yul\":8044:8068   */\n      0x496e73756666696369656e74206c697175696469747900000000000000000000\n        /* \"#utility.yul\":8040:8041   */\n      0x00\n        /* \"#utility.yul\":8032:8038   */\n      dup3\n        /* \"#utility.yul\":8028:8042   */\n      add\n        /* \"#utility.yul\":8021:8069   */\n      mstore\n        /* \"#utility.yul\":7904:8076   */\n      pop\n      jump\t// out\n        /* \"#utility.yul\":8082:8448   */\n    tag_154:\n        /* \"#utility.yul\":8224:8227   */\n      0x00\n        /* \"#utility.yul\":8245:8312   */\n      tag_253\n        /* \"#utility.yul\":8309:8311   */\n      0x16\n        /* \"#utility.yul\":8304:8307   */\n      dup4\n        /* \"#utility.yul\":8245:8312   */\n      tag_147\n      jump\t// in\n    tag_253:\n        /* \"#utility.yul\":8238:8312   */\n      swap2\n      pop\n        /* \"#utility.yul\":8321:8414   */\n      tag_254\n        /* \"#utility.yul\":8410:8413   */\n      dup3\n        /* \"#utility.yul\":8321:8414   */\n      tag_153\n      jump\t// in\n    tag_254:\n        /* \"#utility.yul\":8439:8441   */\n      0x20\n        /* \"#utility.yul\":8434:8437   */\n      dup3\n        /* \"#utility.yul\":8430:8442   */\n      add\n        /* \"#utility.yul\":8423:8442   */\n      swap1\n      pop\n        /* \"#utility.yul\":8082:8448   */\n      swap2\n      swap1\n      pop\n      jump\t// out\n        /* \"#utility.yul\":8454:8873   */\n    tag_97:\n        /* \"#utility.yul\":8620:8624   */\n      0x00\n        /* \"#utility.yul\":8658:8660   */\n      0x20\n        /* \"#utility.yul\":8647:8656   */\n      dup3\n        /* \"#utility.yul\":8643:8661   */\n      add\n        /* \"#utility.yul\":8635:8661   */\n      swap1\n      pop\n        /* \"#utility.yul\":8707:8716   */\n      dup2\n        /* \"#utility.yul\":8701:8705   */\n      dup2\n        /* \"#utility.yul\":8697:8717   */\n      sub\n        /* \"#utility.yul\":8693:8694   */\n      0x00\n        /* \"#utility.yul\":8682:8691   */\n      dup4\n        /* \"#utility.yul\":8678:8695   */\n      add\n        /* \"#utility.yul\":8671:8718   */\n      mstore\n        /* \"#utility.yul\":8735:8866   */\n      tag_256\n        /* \"#utility.yul\":8861:8865   */\n      dup2\n        /* \"#utility.yul\":8735:8866   */\n      tag_154\n      jump\t// in\n    tag_256:\n        /* \"#utility.yul\":8727:8866   */\n      swap1\n      pop\n        /* \"#utility.yul\":8454:8873   */\n      swap2\n      swap1\n      pop\n      jump\t// out\n        /* \"#utility.yul\":8879:9289   */\n    tag_125:\n        /* \"#utility.yul\":8919:8926   */\n      0x00\n        /* \"#utility.yul\":8942:8962   */\n      tag_258\n        /* \"#utility.yul\":8960:8961   */\n      dup3\n        /* \"#utility.yul\":8942:8962   */\n      tag_134\n      jump\t// in\n    tag_258:\n        /* \"#utility.yul\":8937:8962   */\n      swap2\n      pop\n        /* \"#utility.yul\":8976:8996   */\n      tag_259\n        /* \"#utility.yul\":8994:8995   */\n      dup4\n        /* \"#utility.yul\":8976:8996   */\n      tag_134\n      jump\t// in\n    tag_259:\n        /* \"#utility.yul\":8971:8996   */\n      swap3\n      pop\n        /* \"#utility.yul\":9031:9032   */\n      dup3\n        /* \"#utility.yul\":9028:9029   */\n      dup3\n        /* \"#utility.yul\":9024:9033   */\n      mul\n        /* \"#utility.yul\":9053:9083   */\n      tag_260\n        /* \"#utility.yul\":9071:9082   */\n      dup2\n        /* \"#utility.yul\":9053:9083   */\n      tag_134\n      jump\t// in\n    tag_260:\n        /* \"#utility.yul\":9042:9083   */\n      swap2\n      pop\n        /* \"#utility.yul\":9232:9233   */\n      dup3\n        /* \"#utility.yul\":9223:9230   */\n      dup3\n        /* \"#utility.yul\":9219:9234   */\n      div\n        /* \"#utility.yul\":9216:9217   */\n      dup5\n        /* \"#utility.yul\":9213:9235   */\n      eq\n        /* \"#utility.yul\":9193:9194   */\n      dup4\n        /* \"#utility.yul\":9186:9195   */\n      iszero\n        /* \"#utility.yul\":9166:9249   */\n      or\n        /* \"#utility.yul\":9143:9282   */\n      tag_261\n      jumpi\n        /* \"#utility.yul\":9262:9280   */\n      tag_262\n      tag_146\n      jump\t// in\n    tag_262:\n        /* \"#utility.yul\":9143:9282   */\n    tag_261:\n        /* \"#utility.yul\":8927:9289   */\n      pop\n        /* \"#utility.yul\":8879:9289   */\n      swap3\n      swap2\n      pop\n      pop\n      jump\t// out\n\n    auxdata: 0xa2646970667358221220fa0668b30f21a94ab2b521e94df0e702ad744471bc2eac6399c0cb2a159c54ad64736f6c634300081a0033\n}\n",
				"bytecode": {
					"linkReferences": {},
					"object": "608060405234801561000f575f80fd5b5060405161118838038061118883398181016040528101906100319190610115565b815f806101000a81548173ffffffffffffffffffffffffffffffffffffffff021916908373ffffffffffffffffffffffffffffffffffffffff1602179055508060015f6101000a81548173ffffffffffffffffffffffffffffffffffffffff021916908373ffffffffffffffffffffffffffffffffffffffff1602179055505050610153565b5f80fd5b5f73ffffffffffffffffffffffffffffffffffffffff82169050919050565b5f6100e4826100bb565b9050919050565b6100f4816100da565b81146100fe575f80fd5b50565b5f8151905061010f816100eb565b92915050565b5f806040838503121561012b5761012a6100b7565b5b5f61013885828601610101565b925050602061014985828601610101565b9150509250929050565b611028806101605f395ff3fe608060405234801561000f575f80fd5b506004361061009c575f3560e01c80638da5cb5b116100645780638da5cb5b146101465780639cd441da146101645780639d7de6b314610180578063dc5fa6c51461019c578063e4f1f70a146101ba5761009c565b80630fc63d10146100a057806319e36f3b146100be57806341976e09146100dc5780635f64b55b1461010c5780638014a7aa1461012a575b5f80fd5b6100a86101d6565b6040516100b59190610b8f565b60405180910390f35b6100c66101f9565b6040516100d39190610bc0565b60405180910390f35b6100f660048036038101906100f19190610c18565b6101ff565b6040516101039190610bc0565b60405180910390f35b610114610315565b6040516101219190610b8f565b60405180910390f35b610144600480360381019061013f9190610c6d565b61033a565b005b61014e61050a565b60405161015b9190610ca7565b60405180910390f35b61017e60048036038101906101799190610cc0565b61052f565b005b61019a60048036038101906101959190610cc0565b6106ef565b005b6101a46108fe565b6040516101b19190610bc0565b60405180910390f35b6101d460048036038101906101cf9190610c6d565b610904565b005b5f8054906101000a900473ffffffffffffffffffffffffffffffffffffffff1681565b60035481565b5f805f9054906101000a900473ffffffffffffffffffffffffffffffffffffffff1673ffffffffffffffffffffffffffffffffffffffff168273ffffffffffffffffffffffffffffffffffffffff160361026a576002546003546102639190610d58565b9050610310565b60015f9054906101000a900473ffffffffffffffffffffffffffffffffffffffff1673ffffffffffffffffffffffffffffffffffffffff168273ffffffffffffffffffffffffffffffffffffffff16036102d5576003546002546102ce9190610d58565b9050610310565b6040517f08c379a000000000000000000000000000000000000000000000000000000000815260040161030790610de2565b60405180910390fd5b919050565b60015f9054906101000a900473ffffffffffffffffffffffffffffffffffffffff1681565b5f61034a82600354600254610ad4565b905060015f9054906101000a900473ffffffffffffffffffffffffffffffffffffffff1673ffffffffffffffffffffffffffffffffffffffff166323b872dd3330856040518463ffffffff1660e01b81526004016103aa93929190610e00565b6020604051808303815f875af11580156103c6573d5f803e3d5ffd5b505050506040513d601f19601f820116820180604052508101906103ea9190610e6a565b505f8054906101000a900473ffffffffffffffffffffffffffffffffffffffff1673ffffffffffffffffffffffffffffffffffffffff1663a9059cbb33836040518363ffffffff1660e01b8152600401610445929190610e95565b6020604051808303815f875af1158015610461573d5f803e3d5ffd5b505050506040513d601f19601f820116820180604052508101906104859190610e6a565b508160035f8282546104979190610ebc565b925050819055508060025f8282546104af9190610eef565b925050819055503373ffffffffffffffffffffffffffffffffffffffff167f18d89124d3f604d784e6ec54f7e2c6a8487fb2bff658ff580c4abbcb5088ad9b83836040516104fe929190610f22565b60405180910390a25050565b60045f9054906101000a900473ffffffffffffffffffffffffffffffffffffffff1681565b5f8054906101000a900473ffffffffffffffffffffffffffffffffffffffff1673ffffffffffffffffffffffffffffffffffffffff166323b872dd3330856040518463ffffffff1660e01b815260040161058b93929190610e00565b6020604051808303815f875af11580156105a7573d5f803e3d5ffd5b505050506040513d601f19601f820116820180604052508101906105cb9190610e6a565b5060015f9054906101000a900473ffffffffffffffffffffffffffffffffffffffff1673ffffffffffffffffffffffffffffffffffffffff166323b872dd3330846040518463ffffffff1660e01b815260040161062a93929190610e00565b6020604051808303815f875af1158015610646573d5f803e3d5ffd5b505050506040513d601f19601f8201168201806040525081019061066a9190610e6a565b508160025f82825461067c9190610ebc565b925050819055508060035f8282546106949190610ebc565b925050819055503373ffffffffffffffffffffffffffffffffffffffff167fac1d76749e5447b7b16f5ab61447e1bd502f3bb4807af3b28e620d1700a6ee4583836040516106e3929190610f22565b60405180910390a25050565b816002541015801561070357508060035410155b610742576040517f08c379a000000000000000000000000000000000000000000000000000000000815260040161073990610f93565b60405180910390fd5b5f8054906101000a900473ffffffffffffffffffffffffffffffffffffffff1673ffffffffffffffffffffffffffffffffffffffff1663a9059cbb33846040518363ffffffff1660e01b815260040161079c929190610e95565b6020604051808303815f875af11580156107b8573d5f803e3d5ffd5b505050506040513d601f19601f820116820180604052508101906107dc9190610e6a565b5060015f9054906101000a900473ffffffffffffffffffffffffffffffffffffffff1673ffffffffffffffffffffffffffffffffffffffff1663a9059cbb33836040518363ffffffff1660e01b8152600401610839929190610e95565b6020604051808303815f875af1158015610855573d5f803e3d5ffd5b505050506040513d601f19601f820116820180604052508101906108799190610e6a565b508160025f82825461088b9190610eef565b925050819055508060035f8282546108a39190610eef565b925050819055503373ffffffffffffffffffffffffffffffffffffffff167f96cd817c6329656790ef8fba7675405193677d39619571282f5e21f3a98cd05983836040516108f2929190610f22565b60405180910390a25050565b60025481565b5f61091482600254600354610ad4565b90505f8054906101000a900473ffffffffffffffffffffffffffffffffffffffff1673ffffffffffffffffffffffffffffffffffffffff166323b872dd3330856040518463ffffffff1660e01b815260040161097293929190610e00565b6020604051808303815f875af115801561098e573d5f803e3d5ffd5b505050506040513d601f19601f820116820180604052508101906109b29190610e6a565b5060015f9054906101000a900473ffffffffffffffffffffffffffffffffffffffff1673ffffffffffffffffffffffffffffffffffffffff1663a9059cbb33836040518363ffffffff1660e01b8152600401610a0f929190610e95565b6020604051808303815f875af1158015610a2b573d5f803e3d5ffd5b505050506040513d601f19601f82011682018060405250810190610a4f9190610e6a565b508160025f828254610a619190610ebc565b925050819055508060035f828254610a799190610eef565b925050819055503373ffffffffffffffffffffffffffffffffffffffff167fa73f8333ff34c4a2ca3172ce0c0ae8b5aa54bc107b961b36fb0cc6818c4e83e08383604051610ac8929190610f22565b60405180910390a25050565b5f808484610ae29190610ebc565b90505f818585610af29190610fb1565b610afc9190610d58565b90508084610b0a9190610eef565b925050509392505050565b5f73ffffffffffffffffffffffffffffffffffffffff82169050919050565b5f819050919050565b5f610b57610b52610b4d84610b15565b610b34565b610b15565b9050919050565b5f610b6882610b3d565b9050919050565b5f610b7982610b5e565b9050919050565b610b8981610b6f565b82525050565b5f602082019050610ba25f830184610b80565b92915050565b5f819050919050565b610bba81610ba8565b82525050565b5f602082019050610bd35f830184610bb1565b92915050565b5f80fd5b5f610be782610b15565b9050919050565b610bf781610bdd565b8114610c01575f80fd5b50565b5f81359050610c1281610bee565b92915050565b5f60208284031215610c2d57610c2c610bd9565b5b5f610c3a84828501610c04565b91505092915050565b610c4c81610ba8565b8114610c56575f80fd5b50565b5f81359050610c6781610c43565b92915050565b5f60208284031215610c8257610c81610bd9565b5b5f610c8f84828501610c59565b91505092915050565b610ca181610bdd565b82525050565b5f602082019050610cba5f830184610c98565b92915050565b5f8060408385031215610cd657610cd5610bd9565b5b5f610ce385828601610c59565b9250506020610cf485828601610c59565b9150509250929050565b7f4e487b71000000000000000000000000000000000000000000000000000000005f52601260045260245ffd5b7f4e487b71000000000000000000000000000000000000000000000000000000005f52601160045260245ffd5b5f610d6282610ba8565b9150610d6d83610ba8565b925082610d7d57610d7c610cfe565b5b828204905092915050565b5f82825260208201905092915050565b7f496e76616c696420746f6b656e206164647265737300000000000000000000005f82015250565b5f610dcc601583610d88565b9150610dd782610d98565b602082019050919050565b5f6020820190508181035f830152610df981610dc0565b9050919050565b5f606082019050610e135f830186610c98565b610e206020830185610c98565b610e2d6040830184610bb1565b949350505050565b5f8115159050919050565b610e4981610e35565b8114610e53575f80fd5b50565b5f81519050610e6481610e40565b92915050565b5f60208284031215610e7f57610e7e610bd9565b5b5f610e8c84828501610e56565b91505092915050565b5f604082019050610ea85f830185610c98565b610eb56020830184610bb1565b9392505050565b5f610ec682610ba8565b9150610ed183610ba8565b9250828201905080821115610ee957610ee8610d2b565b5b92915050565b5f610ef982610ba8565b9150610f0483610ba8565b9250828203905081811115610f1c57610f1b610d2b565b5b92915050565b5f604082019050610f355f830185610bb1565b610f426020830184610bb1565b9392505050565b7f496e73756666696369656e74206c6971756964697479000000000000000000005f82015250565b5f610f7d601683610d88565b9150610f8882610f49565b602082019050919050565b5f6020820190508181035f830152610faa81610f71565b9050919050565b5f610fbb82610ba8565b9150610fc683610ba8565b9250828202610fd481610ba8565b91508282048414831517610feb57610fea610d2b565b5b509291505056fea2646970667358221220fa0668b30f21a94ab2b521e94df0e702ad744471bc2eac6399c0cb2a159c54ad64736f6c634300081a0033",
					"opcodes": "PUSH1 0x80 PUSH1 0x40 MSTORE CALLVALUE DUP1 ISZERO PUSH2 0xF JUMPI PUSH0 DUP1 REVERT JUMPDEST POP PUSH1 0x40 MLOAD PUSH2 0x1188 CODESIZE SUB DUP1 PUSH2 0x1188 DUP4 CODECOPY DUP2 DUP2 ADD PUSH1 0x40 MSTORE DUP2 ADD SWAP1 PUSH2 0x31 SWAP2 SWAP1 PUSH2 0x115 JUMP JUMPDEST DUP2 PUSH0 DUP1 PUSH2 0x100 EXP DUP2 SLOAD DUP2 PUSH20 0xFFFFFFFFFFFFFFFFFFFFFFFFFFFFFFFFFFFFFFFF MUL NOT AND SWAP1 DUP4 PUSH20 0xFFFFFFFFFFFFFFFFFFFFFFFFFFFFFFFFFFFFFFFF AND MUL OR SWAP1 SSTORE POP DUP1 PUSH1 0x1 PUSH0 PUSH2 0x100 EXP DUP2 SLOAD DUP2 PUSH20 0xFFFFFFFFFFFFFFFFFFFFFFFFFFFFFFFFFFFFFFFF MUL NOT AND SWAP1 DUP4 PUSH20 0xFFFFFFFFFFFFFFFFFFFFFFFFFFFFFFFFFFFFFFFF AND MUL OR SWAP1 SSTORE POP POP POP PUSH2 0x153 JUMP JUMPDEST PUSH0 DUP1 REVERT JUMPDEST PUSH0 PUSH20 0xFFFFFFFFFFFFFFFFFFFFFFFFFFFFFFFFFFFFFFFF DUP3 AND SWAP1 POP SWAP2 SWAP1 POP JUMP JUMPDEST PUSH0 PUSH2 0xE4 DUP3 PUSH2 0xBB JUMP JUMPDEST SWAP1 POP SWAP2 SWAP1 POP JUMP JUMPDEST PUSH2 0xF4 DUP2 PUSH2 0xDA JUMP JUMPDEST DUP2 EQ PUSH2 0xFE JUMPI PUSH0 DUP1 REVERT JUMPDEST POP JUMP JUMPDEST PUSH0 DUP2 MLOAD SWAP1 POP PUSH2 0x10F DUP2 PUSH2 0xEB JUMP JUMPDEST SWAP3 SWAP2 POP POP JUMP JUMPDEST PUSH0 DUP1 PUSH1 0x40 DUP4 DUP6 SUB SLT ISZERO PUSH2 0x12B JUMPI PUSH2 0x12A PUSH2 0xB7 JUMP JUMPDEST JUMPDEST PUSH0 PUSH2 0x138 DUP6 DUP3 DUP7 ADD PUSH2 0x101 JUMP JUMPDEST SWAP3 POP POP PUSH1 0x20 PUSH2 0x149 DUP6 DUP3 DUP7 ADD PUSH2 0x101 JUMP JUMPDEST SWAP2 POP POP SWAP3 POP SWAP3 SWAP1 POP JUMP JUMPDEST PUSH2 0x1028 DUP1 PUSH2 0x160 PUSH0 CODECOPY PUSH0 RETURN INVALID PUSH1 0x80 PUSH1 0x40 MSTORE CALLVALUE DUP1 ISZERO PUSH2 0xF JUMPI PUSH0 DUP1 REVERT JUMPDEST POP PUSH1 0x4 CALLDATASIZE LT PUSH2 0x9C JUMPI PUSH0 CALLDATALOAD PUSH1 0xE0 SHR DUP1 PUSH4 0x8DA5CB5B GT PUSH2 0x64 JUMPI DUP1 PUSH4 0x8DA5CB5B EQ PUSH2 0x146 JUMPI DUP1 PUSH4 0x9CD441DA EQ PUSH2 0x164 JUMPI DUP1 PUSH4 0x9D7DE6B3 EQ PUSH2 0x180 JUMPI DUP1 PUSH4 0xDC5FA6C5 EQ PUSH2 0x19C JUMPI DUP1 PUSH4 0xE4F1F70A EQ PUSH2 0x1BA JUMPI PUSH2 0x9C JUMP JUMPDEST DUP1 PUSH4 0xFC63D10 EQ PUSH2 0xA0 JUMPI DUP1 PUSH4 0x19E36F3B EQ PUSH2 0xBE JUMPI DUP1 PUSH4 0x41976E09 EQ PUSH2 0xDC JUMPI DUP1 PUSH4 0x5F64B55B EQ PUSH2 0x10C JUMPI DUP1 PUSH4 0x8014A7AA EQ PUSH2 0x12A JUMPI JUMPDEST PUSH0 DUP1 REVERT JUMPDEST PUSH2 0xA8 PUSH2 0x1D6 JUMP JUMPDEST PUSH1 0x40 MLOAD PUSH2 0xB5 SWAP2 SWAP1 PUSH2 0xB8F JUMP JUMPDEST PUSH1 0x40 MLOAD DUP1 SWAP2 SUB SWAP1 RETURN JUMPDEST PUSH2 0xC6 PUSH2 0x1F9 JUMP JUMPDEST PUSH1 0x40 MLOAD PUSH2 0xD3 SWAP2 SWAP1 PUSH2 0xBC0 JUMP JUMPDEST PUSH1 0x40 MLOAD DUP1 SWAP2 SUB SWAP1 RETURN JUMPDEST PUSH2 0xF6 PUSH1 0x4 DUP1 CALLDATASIZE SUB DUP2 ADD SWAP1 PUSH2 0xF1 SWAP2 SWAP1 PUSH2 0xC18 JUMP JUMPDEST PUSH2 0x1FF JUMP JUMPDEST PUSH1 0x40 MLOAD PUSH2 0x103 SWAP2 SWAP1 PUSH2 0xBC0 JUMP JUMPDEST PUSH1 0x40 MLOAD DUP1 SWAP2 SUB SWAP1 RETURN JUMPDEST PUSH2 0x114 PUSH2 0x315 JUMP JUMPDEST PUSH1 0x40 MLOAD PUSH2 0x121 SWAP2 SWAP1 PUSH2 0xB8F JUMP JUMPDEST PUSH1 0x40 MLOAD DUP1 SWAP2 SUB SWAP1 RETURN JUMPDEST PUSH2 0x144 PUSH1 0x4 DUP1 CALLDATASIZE SUB DUP2 ADD SWAP1 PUSH2 0x13F SWAP2 SWAP1 PUSH2 0xC6D JUMP JUMPDEST PUSH2 0x33A JUMP JUMPDEST STOP JUMPDEST PUSH2 0x14E PUSH2 0x50A JUMP JUMPDEST PUSH1 0x40 MLOAD PUSH2 0x15B SWAP2 SWAP1 PUSH2 0xCA7 JUMP JUMPDEST PUSH1 0x40 MLOAD DUP1 SWAP2 SUB SWAP1 RETURN JUMPDEST PUSH2 0x17E PUSH1 0x4 DUP1 CALLDATASIZE SUB DUP2 ADD SWAP1 PUSH2 0x179 SWAP2 SWAP1 PUSH2 0xCC0 JUMP JUMPDEST PUSH2 0x52F JUMP JUMPDEST STOP JUMPDEST PUSH2 0x19A PUSH1 0x4 DUP1 CALLDATASIZE SUB DUP2 ADD SWAP1 PUSH2 0x195 SWAP2 SWAP1 PUSH2 0xCC0 JUMP JUMPDEST PUSH2 0x6EF JUMP JUMPDEST STOP JUMPDEST PUSH2 0x1A4 PUSH2 0x8FE JUMP JUMPDEST PUSH1 0x40 MLOAD PUSH2 0x1B1 SWAP2 SWAP1 PUSH2 0xBC0 JUMP JUMPDEST PUSH1 0x40 MLOAD DUP1 SWAP2 SUB SWAP1 RETURN JUMPDEST PUSH2 0x1D4 PUSH1 0x4 DUP1 CALLDATASIZE SUB DUP2 ADD SWAP1 PUSH2 0x1CF SWAP2 SWAP1 PUSH2 0xC6D JUMP JUMPDEST PUSH2 0x904 JUMP JUMPDEST STOP JUMPDEST PUSH0 DUP1 SLOAD SWAP1 PUSH2 0x100 EXP SWAP1 DIV PUSH20 0xFFFFFFFFFFFFFFFFFFFFFFFFFFFFFFFFFFFFFFFF AND DUP2 JUMP JUMPDEST PUSH1 0x3 SLOAD DUP2 JUMP JUMPDEST PUSH0 DUP1 PUSH0 SWAP1 SLOAD SWAP1 PUSH2 0x100 EXP SWAP1 DIV PUSH20 0xFFFFFFFFFFFFFFFFFFFFFFFFFFFFFFFFFFFFFFFF AND PUSH20 0xFFFFFFFFFFFFFFFFFFFFFFFFFFFFFFFFFFFFFFFF AND DUP3 PUSH20 0xFFFFFFFFFFFFFFFFFFFFFFFFFFFFFFFFFFFFFFFF AND SUB PUSH2 0x26A JUMPI PUSH1 0x2 SLOAD PUSH1 0x3 SLOAD PUSH2 0x263 SWAP2 SWAP1 PUSH2 0xD58 JUMP JUMPDEST SWAP1 POP PUSH2 0x310 JUMP JUMPDEST PUSH1 0x1 PUSH0 SWAP1 SLOAD SWAP1 PUSH2 0x100 EXP SWAP1 DIV PUSH20 0xFFFFFFFFFFFFFFFFFFFFFFFFFFFFFFFFFFFFFFFF AND PUSH20 0xFFFFFFFFFFFFFFFFFFFFFFFFFFFFFFFFFFFFFFFF AND DUP3 PUSH20 0xFFFFFFFFFFFFFFFFFFFFFFFFFFFFFFFFFFFFFFFF AND SUB PUSH2 0x2D5 JUMPI PUSH1 0x3 SLOAD PUSH1 0x2 SLOAD PUSH2 0x2CE SWAP2 SWAP1 PUSH2 0xD58 JUMP JUMPDEST SWAP1 POP PUSH2 0x310 JUMP JUMPDEST PUSH1 0x40 MLOAD PUSH32 0x8C379A000000000000000000000000000000000000000000000000000000000 DUP2 MSTORE PUSH1 0x4 ADD PUSH2 0x307 SWAP1 PUSH2 0xDE2 JUMP JUMPDEST PUSH1 0x40 MLOAD DUP1 SWAP2 SUB SWAP1 REVERT JUMPDEST SWAP2 SWAP1 POP JUMP JUMPDEST PUSH1 0x1 PUSH0 SWAP1 SLOAD SWAP1 PUSH2 0x100 EXP SWAP1 DIV PUSH20 0xFFFFFFFFFFFFFFFFFFFFFFFFFFFFFFFFFFFFFFFF AND DUP2 JUMP JUMPDEST PUSH0 PUSH2 0x34A DUP3 PUSH1 0x3 SLOAD PUSH1 0x2 SLOAD PUSH2 0xAD4 JUMP JUMPDEST SWAP1 POP PUSH1 0x1 PUSH0 SWAP1 SLOAD SWAP1 PUSH2 0x100 EXP SWAP1 DIV PUSH20 0xFFFFFFFFFFFFFFFFFFFFFFFFFFFFFFFFFFFFFFFF AND PUSH20 0xFFFFFFFFFFFFFFFFFFFFFFFFFFFFFFFFFFFFFFFF AND PUSH4 0x23B872DD CALLER ADDRESS DUP6 PUSH1 0x40 MLOAD DUP5 PUSH4 0xFFFFFFFF AND PUSH1 0xE0 SHL DUP2 MSTORE PUSH1 0x4 ADD PUSH2 0x3AA SWAP4 SWAP3 SWAP2 SWAP1 PUSH2 0xE00 JUMP JUMPDEST PUSH1 0x20 PUSH1 0x40 MLOAD DUP1 DUP4 SUB DUP2 PUSH0 DUP8 GAS CALL ISZERO DUP1 ISZERO PUSH2 0x3C6 JUMPI RETURNDATASIZE PUSH0 DUP1 RETURNDATACOPY RETURNDATASIZE PUSH0 REVERT JUMPDEST POP POP POP POP PUSH1 0x40 MLOAD RETURNDATASIZE PUSH1 0x1F NOT PUSH1 0x1F DUP3 ADD AND DUP3 ADD DUP1 PUSH1 0x40 MSTORE POP DUP2 ADD SWAP1 PUSH2 0x3EA SWAP2 SWAP1 PUSH2 0xE6A JUMP JUMPDEST POP PUSH0 DUP1 SLOAD SWAP1 PUSH2 0x100 EXP SWAP1 DIV PUSH20 0xFFFFFFFFFFFFFFFFFFFFFFFFFFFFFFFFFFFFFFFF AND PUSH20 0xFFFFFFFFFFFFFFFFFFFFFFFFFFFFFFFFFFFFFFFF AND PUSH4 0xA9059CBB CALLER DUP4 PUSH1 0x40 MLOAD DUP4 PUSH4 0xFFFFFFFF AND PUSH1 0xE0 SHL DUP2 MSTORE PUSH1 0x4 ADD PUSH2 0x445 SWAP3 SWAP2 SWAP1 PUSH2 0xE95 JUMP JUMPDEST PUSH1 0x20 PUSH1 0x40 MLOAD DUP1 DUP4 SUB DUP2 PUSH0 DUP8 GAS CALL ISZERO DUP1 ISZERO PUSH2 0x461 JUMPI RETURNDATASIZE PUSH0 DUP1 RETURNDATACOPY RETURNDATASIZE PUSH0 REVERT JUMPDEST POP POP POP POP PUSH1 0x40 MLOAD RETURNDATASIZE PUSH1 0x1F NOT PUSH1 0x1F DUP3 ADD AND DUP3 ADD DUP1 PUSH1 0x40 MSTORE POP DUP2 ADD SWAP1 PUSH2 0x485 SWAP2 SWAP1 PUSH2 0xE6A JUMP JUMPDEST POP DUP2 PUSH1 0x3 PUSH0 DUP3 DUP3 SLOAD PUSH2 0x497 SWAP2 SWAP1 PUSH2 0xEBC JUMP JUMPDEST SWAP3 POP POP DUP2 SWAP1 SSTORE POP DUP1 PUSH1 0x2 PUSH0 DUP3 DUP3 SLOAD PUSH2 0x4AF SWAP2 SWAP1 PUSH2 0xEEF JUMP JUMPDEST SWAP3 POP POP DUP2 SWAP1 SSTORE POP CALLER PUSH20 0xFFFFFFFFFFFFFFFFFFFFFFFFFFFFFFFFFFFFFFFF AND PUSH32 0x18D89124D3F604D784E6EC54F7E2C6A8487FB2BFF658FF580C4ABBCB5088AD9B DUP4 DUP4 PUSH1 0x40 MLOAD PUSH2 0x4FE SWAP3 SWAP2 SWAP1 PUSH2 0xF22 JUMP JUMPDEST PUSH1 0x40 MLOAD DUP1 SWAP2 SUB SWAP1 LOG2 POP POP JUMP JUMPDEST PUSH1 0x4 PUSH0 SWAP1 SLOAD SWAP1 PUSH2 0x100 EXP SWAP1 DIV PUSH20 0xFFFFFFFFFFFFFFFFFFFFFFFFFFFFFFFFFFFFFFFF AND DUP2 JUMP JUMPDEST PUSH0 DUP1 SLOAD SWAP1 PUSH2 0x100 EXP SWAP1 DIV PUSH20 0xFFFFFFFFFFFFFFFFFFFFFFFFFFFFFFFFFFFFFFFF AND PUSH20 0xFFFFFFFFFFFFFFFFFFFFFFFFFFFFFFFFFFFFFFFF AND PUSH4 0x23B872DD CALLER ADDRESS DUP6 PUSH1 0x40 MLOAD DUP5 PUSH4 0xFFFFFFFF AND PUSH1 0xE0 SHL DUP2 MSTORE PUSH1 0x4 ADD PUSH2 0x58B SWAP4 SWAP3 SWAP2 SWAP1 PUSH2 0xE00 JUMP JUMPDEST PUSH1 0x20 PUSH1 0x40 MLOAD DUP1 DUP4 SUB DUP2 PUSH0 DUP8 GAS CALL ISZERO DUP1 ISZERO PUSH2 0x5A7 JUMPI RETURNDATASIZE PUSH0 DUP1 RETURNDATACOPY RETURNDATASIZE PUSH0 REVERT JUMPDEST POP POP POP POP PUSH1 0x40 MLOAD RETURNDATASIZE PUSH1 0x1F NOT PUSH1 0x1F DUP3 ADD AND DUP3 ADD DUP1 PUSH1 0x40 MSTORE POP DUP2 ADD SWAP1 PUSH2 0x5CB SWAP2 SWAP1 PUSH2 0xE6A JUMP JUMPDEST POP PUSH1 0x1 PUSH0 SWAP1 SLOAD SWAP1 PUSH2 0x100 EXP SWAP1 DIV PUSH20 0xFFFFFFFFFFFFFFFFFFFFFFFFFFFFFFFFFFFFFFFF AND PUSH20 0xFFFFFFFFFFFFFFFFFFFFFFFFFFFFFFFFFFFFFFFF AND PUSH4 0x23B872DD CALLER ADDRESS DUP5 PUSH1 0x40 MLOAD DUP5 PUSH4 0xFFFFFFFF AND PUSH1 0xE0 SHL DUP2 MSTORE PUSH1 0x4 ADD PUSH2 0x62A SWAP4 SWAP3 SWAP2 SWAP1 PUSH2 0xE00 JUMP JUMPDEST PUSH1 0x20 PUSH1 0x40 MLOAD DUP1 DUP4 SUB DUP2 PUSH0 DUP8 GAS CALL ISZERO DUP1 ISZERO PUSH2 0x646 JUMPI RETURNDATASIZE PUSH0 DUP1 RETURNDATACOPY RETURNDATASIZE PUSH0 REVERT JUMPDEST POP POP POP POP PUSH1 0x40 MLOAD RETURNDATASIZE PUSH1 0x1F NOT PUSH1 0x1F DUP3 ADD AND DUP3 ADD DUP1 PUSH1 0x40 MSTORE POP DUP2 ADD SWAP1 PUSH2 0x66A SWAP2 SWAP1 PUSH2 0xE6A JUMP JUMPDEST POP DUP2 PUSH1 0x2 PUSH0 DUP3 DUP3 SLOAD PUSH2 0x67C SWAP2 SWAP1 PUSH2 0xEBC JUMP JUMPDEST SWAP3 POP POP DUP2 SWAP1 SSTORE POP DUP1 PUSH1 0x3 PUSH0 DUP3 DUP3 SLOAD PUSH2 0x694 SWAP2 SWAP1 PUSH2 0xEBC JUMP JUMPDEST SWAP3 POP POP DUP2 SWAP1 SSTORE POP CALLER PUSH20 0xFFFFFFFFFFFFFFFFFFFFFFFFFFFFFFFFFFFFFFFF AND PUSH32 0xAC1D76749E5447B7B16F5AB61447E1BD502F3BB4807AF3B28E620D1700A6EE45 DUP4 DUP4 PUSH1 0x40 MLOAD PUSH2 0x6E3 SWAP3 SWAP2 SWAP1 PUSH2 0xF22 JUMP JUMPDEST PUSH1 0x40 MLOAD DUP1 SWAP2 SUB SWAP1 LOG2 POP POP JUMP JUMPDEST DUP2 PUSH1 0x2 SLOAD LT ISZERO DUP1 ISZERO PUSH2 0x703 JUMPI POP DUP1 PUSH1 0x3 SLOAD LT ISZERO JUMPDEST PUSH2 0x742 JUMPI PUSH1 0x40 MLOAD PUSH32 0x8C379A000000000000000000000000000000000000000000000000000000000 DUP2 MSTORE PUSH1 0x4 ADD PUSH2 0x739 SWAP1 PUSH2 0xF93 JUMP JUMPDEST PUSH1 0x40 MLOAD DUP1 SWAP2 SUB SWAP1 REVERT JUMPDEST PUSH0 DUP1 SLOAD SWAP1 PUSH2 0x100 EXP SWAP1 DIV PUSH20 0xFFFFFFFFFFFFFFFFFFFFFFFFFFFFFFFFFFFFFFFF AND PUSH20 0xFFFFFFFFFFFFFFFFFFFFFFFFFFFFFFFFFFFFFFFF AND PUSH4 0xA9059CBB CALLER DUP5 PUSH1 0x40 MLOAD DUP4 PUSH4 0xFFFFFFFF AND PUSH1 0xE0 SHL DUP2 MSTORE PUSH1 0x4 ADD PUSH2 0x79C SWAP3 SWAP2 SWAP1 PUSH2 0xE95 JUMP JUMPDEST PUSH1 0x20 PUSH1 0x40 MLOAD DUP1 DUP4 SUB DUP2 PUSH0 DUP8 GAS CALL ISZERO DUP1 ISZERO PUSH2 0x7B8 JUMPI RETURNDATASIZE PUSH0 DUP1 RETURNDATACOPY RETURNDATASIZE PUSH0 REVERT JUMPDEST POP POP POP POP PUSH1 0x40 MLOAD RETURNDATASIZE PUSH1 0x1F NOT PUSH1 0x1F DUP3 ADD AND DUP3 ADD DUP1 PUSH1 0x40 MSTORE POP DUP2 ADD SWAP1 PUSH2 0x7DC SWAP2 SWAP1 PUSH2 0xE6A JUMP JUMPDEST POP PUSH1 0x1 PUSH0 SWAP1 SLOAD SWAP1 PUSH2 0x100 EXP SWAP1 DIV PUSH20 0xFFFFFFFFFFFFFFFFFFFFFFFFFFFFFFFFFFFFFFFF AND PUSH20 0xFFFFFFFFFFFFFFFFFFFFFFFFFFFFFFFFFFFFFFFF AND PUSH4 0xA9059CBB CALLER DUP4 PUSH1 0x40 MLOAD DUP4 PUSH4 0xFFFFFFFF AND PUSH1 0xE0 SHL DUP2 MSTORE PUSH1 0x4 ADD PUSH2 0x839 SWAP3 SWAP2 SWAP1 PUSH2 0xE95 JUMP JUMPDEST PUSH1 0x20 PUSH1 0x40 MLOAD DUP1 DUP4 SUB DUP2 PUSH0 DUP8 GAS CALL ISZERO DUP1 ISZERO PUSH2 0x855 JUMPI RETURNDATASIZE PUSH0 DUP1 RETURNDATACOPY RETURNDATASIZE PUSH0 REVERT JUMPDEST POP POP POP POP PUSH1 0x40 MLOAD RETURNDATASIZE PUSH1 0x1F NOT PUSH1 0x1F DUP3 ADD AND DUP3 ADD DUP1 PUSH1 0x40 MSTORE POP DUP2 ADD SWAP1 PUSH2 0x879 SWAP2 SWAP1 PUSH2 0xE6A JUMP JUMPDEST POP DUP2 PUSH1 0x2 PUSH0 DUP3 DUP3 SLOAD PUSH2 0x88B SWAP2 SWAP1 PUSH2 0xEEF JUMP JUMPDEST SWAP3 POP POP DUP2 SWAP1 SSTORE POP DUP1 PUSH1 0x3 PUSH0 DUP3 DUP3 SLOAD PUSH2 0x8A3 SWAP2 SWAP1 PUSH2 0xEEF JUMP JUMPDEST SWAP3 POP POP DUP2 SWAP1 SSTORE POP CALLER PUSH20 0xFFFFFFFFFFFFFFFFFFFFFFFFFFFFFFFFFFFFFFFF AND PUSH32 0x96CD817C6329656790EF8FBA7675405193677D39619571282F5E21F3A98CD059 DUP4 DUP4 PUSH1 0x40 MLOAD PUSH2 0x8F2 SWAP3 SWAP2 SWAP1 PUSH2 0xF22 JUMP JUMPDEST PUSH1 0x40 MLOAD DUP1 SWAP2 SUB SWAP1 LOG2 POP POP JUMP JUMPDEST PUSH1 0x2 SLOAD DUP2 JUMP JUMPDEST PUSH0 PUSH2 0x914 DUP3 PUSH1 0x2 SLOAD PUSH1 0x3 SLOAD PUSH2 0xAD4 JUMP JUMPDEST SWAP1 POP PUSH0 DUP1 SLOAD SWAP1 PUSH2 0x100 EXP SWAP1 DIV PUSH20 0xFFFFFFFFFFFFFFFFFFFFFFFFFFFFFFFFFFFFFFFF AND PUSH20 0xFFFFFFFFFFFFFFFFFFFFFFFFFFFFFFFFFFFFFFFF AND PUSH4 0x23B872DD CALLER ADDRESS DUP6 PUSH1 0x40 MLOAD DUP5 PUSH4 0xFFFFFFFF AND PUSH1 0xE0 SHL DUP2 MSTORE PUSH1 0x4 ADD PUSH2 0x972 SWAP4 SWAP3 SWAP2 SWAP1 PUSH2 0xE00 JUMP JUMPDEST PUSH1 0x20 PUSH1 0x40 MLOAD DUP1 DUP4 SUB DUP2 PUSH0 DUP8 GAS CALL ISZERO DUP1 ISZERO PUSH2 0x98E JUMPI RETURNDATASIZE PUSH0 DUP1 RETURNDATACOPY RETURNDATASIZE PUSH0 REVERT JUMPDEST POP POP POP POP PUSH1 0x40 MLOAD RETURNDATASIZE PUSH1 0x1F NOT PUSH1 0x1F DUP3 ADD AND DUP3 ADD DUP1 PUSH1 0x40 MSTORE POP DUP2 ADD SWAP1 PUSH2 0x9B2 SWAP2 SWAP1 PUSH2 0xE6A JUMP JUMPDEST POP PUSH1 0x1 PUSH0 SWAP1 SLOAD SWAP1 PUSH2 0x100 EXP SWAP1 DIV PUSH20 0xFFFFFFFFFFFFFFFFFFFFFFFFFFFFFFFFFFFFFFFF AND PUSH20 0xFFFFFFFFFFFFFFFFFFFFFFFFFFFFFFFFFFFFFFFF AND PUSH4 0xA9059CBB CALLER DUP4 PUSH1 0x40 MLOAD DUP4 PUSH4 0xFFFFFFFF AND PUSH1 0xE0 SHL DUP2 MSTORE PUSH1 0x4 ADD PUSH2 0xA0F SWAP3 SWAP2 SWAP1 PUSH2 0xE95 JUMP JUMPDEST PUSH1 0x20 PUSH1 0x40 MLOAD DUP1 DUP4 SUB DUP2 PUSH0 DUP8 GAS CALL ISZERO DUP1 ISZERO PUSH2 0xA2B JUMPI RETURNDATASIZE PUSH0 DUP1 RETURNDATACOPY RETURNDATASIZE PUSH0 REVERT JUMPDEST POP POP POP POP PUSH1 0x40 MLOAD RETURNDATASIZE PUSH1 0x1F NOT PUSH1 0x1F DUP3 ADD AND DUP3 ADD DUP1 PUSH1 0x40 MSTORE POP DUP2 ADD SWAP1 PUSH2 0xA4F SWAP2 SWAP1 PUSH2 0xE6A JUMP JUMPDEST POP DUP2 PUSH1 0x2 PUSH0 DUP3 DUP3 SLOAD PUSH2 0xA61 SWAP2 SWAP1 PUSH2 0xEBC JUMP JUMPDEST SWAP3 POP POP DUP2 SWAP1 SSTORE POP DUP1 PUSH1 0x3 PUSH0 DUP3 DUP3 SLOAD PUSH2 0xA79 SWAP2 SWAP1 PUSH2 0xEEF JUMP JUMPDEST SWAP3 POP POP DUP2 SWAP1 SSTORE POP CALLER PUSH20 0xFFFFFFFFFFFFFFFFFFFFFFFFFFFFFFFFFFFFFFFF AND PUSH32 0xA73F8333FF34C4A2CA3172CE0C0AE8B5AA54BC107B961B36FB0CC6818C4E83E0 DUP4 DUP4 PUSH1 0x40 MLOAD PUSH2 0xAC8 SWAP3 SWAP2 SWAP1 PUSH2 0xF22 JUMP JUMPDEST PUSH1 0x40 MLOAD DUP1 SWAP2 SUB SWAP1 LOG2 POP POP JUMP JUMPDEST PUSH0 DUP1 DUP5 DUP5 PUSH2 0xAE2 SWAP2 SWAP1 PUSH2 0xEBC JUMP JUMPDEST SWAP1 POP PUSH0 DUP2 DUP6 DUP6 PUSH2 0xAF2 SWAP2 SWAP1 PUSH2 0xFB1 JUMP JUMPDEST PUSH2 0xAFC SWAP2 SWAP1 PUSH2 0xD58 JUMP JUMPDEST SWAP1 POP DUP1 DUP5 PUSH2 0xB0A SWAP2 SWAP1 PUSH2 0xEEF JUMP JUMPDEST SWAP3 POP POP POP SWAP4 SWAP3 POP POP POP JUMP JUMPDEST PUSH0 PUSH20 0xFFFFFFFFFFFFFFFFFFFFFFFFFFFFFFFFFFFFFFFF DUP3 AND SWAP1 POP SWAP2 SWAP1 POP JUMP JUMPDEST PUSH0 DUP2 SWAP1 POP SWAP2 SWAP1 POP JUMP JUMPDEST PUSH0 PUSH2 0xB57 PUSH2 0xB52 PUSH2 0xB4D DUP5 PUSH2 0xB15 JUMP JUMPDEST PUSH2 0xB34 JUMP JUMPDEST PUSH2 0xB15 JUMP JUMPDEST SWAP1 POP SWAP2 SWAP1 POP JUMP JUMPDEST PUSH0 PUSH2 0xB68 DUP3 PUSH2 0xB3D JUMP JUMPDEST SWAP1 POP SWAP2 SWAP1 POP JUMP JUMPDEST PUSH0 PUSH2 0xB79 DUP3 PUSH2 0xB5E JUMP JUMPDEST SWAP1 POP SWAP2 SWAP1 POP JUMP JUMPDEST PUSH2 0xB89 DUP2 PUSH2 0xB6F JUMP JUMPDEST DUP3 MSTORE POP POP JUMP JUMPDEST PUSH0 PUSH1 0x20 DUP3 ADD SWAP1 POP PUSH2 0xBA2 PUSH0 DUP4 ADD DUP5 PUSH2 0xB80 JUMP JUMPDEST SWAP3 SWAP2 POP POP JUMP JUMPDEST PUSH0 DUP2 SWAP1 POP SWAP2 SWAP1 POP JUMP JUMPDEST PUSH2 0xBBA DUP2 PUSH2 0xBA8 JUMP JUMPDEST DUP3 MSTORE POP POP JUMP JUMPDEST PUSH0 PUSH1 0x20 DUP3 ADD SWAP1 POP PUSH2 0xBD3 PUSH0 DUP4 ADD DUP5 PUSH2 0xBB1 JUMP JUMPDEST SWAP3 SWAP2 POP POP JUMP JUMPDEST PUSH0 DUP1 REVERT JUMPDEST PUSH0 PUSH2 0xBE7 DUP3 PUSH2 0xB15 JUMP JUMPDEST SWAP1 POP SWAP2 SWAP1 POP JUMP JUMPDEST PUSH2 0xBF7 DUP2 PUSH2 0xBDD JUMP JUMPDEST DUP2 EQ PUSH2 0xC01 JUMPI PUSH0 DUP1 REVERT JUMPDEST POP JUMP JUMPDEST PUSH0 DUP2 CALLDATALOAD SWAP1 POP PUSH2 0xC12 DUP2 PUSH2 0xBEE JUMP JUMPDEST SWAP3 SWAP2 POP POP JUMP JUMPDEST PUSH0 PUSH1 0x20 DUP3 DUP5 SUB SLT ISZERO PUSH2 0xC2D JUMPI PUSH2 0xC2C PUSH2 0xBD9 JUMP JUMPDEST JUMPDEST PUSH0 PUSH2 0xC3A DUP5 DUP3 DUP6 ADD PUSH2 0xC04 JUMP JUMPDEST SWAP2 POP POP SWAP3 SWAP2 POP POP JUMP JUMPDEST PUSH2 0xC4C DUP2 PUSH2 0xBA8 JUMP JUMPDEST DUP2 EQ PUSH2 0xC56 JUMPI PUSH0 DUP1 REVERT JUMPDEST POP JUMP JUMPDEST PUSH0 DUP2 CALLDATALOAD SWAP1 POP PUSH2 0xC67 DUP2 PUSH2 0xC43 JUMP JUMPDEST SWAP3 SWAP2 POP POP JUMP JUMPDEST PUSH0 PUSH1 0x20 DUP3 DUP5 SUB SLT ISZERO PUSH2 0xC82 JUMPI PUSH2 0xC81 PUSH2 0xBD9 JUMP JUMPDEST JUMPDEST PUSH0 PUSH2 0xC8F DUP5 DUP3 DUP6 ADD PUSH2 0xC59 JUMP JUMPDEST SWAP2 POP POP SWAP3 SWAP2 POP POP JUMP JUMPDEST PUSH2 0xCA1 DUP2 PUSH2 0xBDD JUMP JUMPDEST DUP3 MSTORE POP POP JUMP JUMPDEST PUSH0 PUSH1 0x20 DUP3 ADD SWAP1 POP PUSH2 0xCBA PUSH0 DUP4 ADD DUP5 PUSH2 0xC98 JUMP JUMPDEST SWAP3 SWAP2 POP POP JUMP JUMPDEST PUSH0 DUP1 PUSH1 0x40 DUP4 DUP6 SUB SLT ISZERO PUSH2 0xCD6 JUMPI PUSH2 0xCD5 PUSH2 0xBD9 JUMP JUMPDEST JUMPDEST PUSH0 PUSH2 0xCE3 DUP6 DUP3 DUP7 ADD PUSH2 0xC59 JUMP JUMPDEST SWAP3 POP POP PUSH1 0x20 PUSH2 0xCF4 DUP6 DUP3 DUP7 ADD PUSH2 0xC59 JUMP JUMPDEST SWAP2 POP POP SWAP3 POP SWAP3 SWAP1 POP JUMP JUMPDEST PUSH32 0x4E487B7100000000000000000000000000000000000000000000000000000000 PUSH0 MSTORE PUSH1 0x12 PUSH1 0x4 MSTORE PUSH1 0x24 PUSH0 REVERT JUMPDEST PUSH32 0x4E487B7100000000000000000000000000000000000000000000000000000000 PUSH0 MSTORE PUSH1 0x11 PUSH1 0x4 MSTORE PUSH1 0x24 PUSH0 REVERT JUMPDEST PUSH0 PUSH2 0xD62 DUP3 PUSH2 0xBA8 JUMP JUMPDEST SWAP2 POP PUSH2 0xD6D DUP4 PUSH2 0xBA8 JUMP JUMPDEST SWAP3 POP DUP3 PUSH2 0xD7D JUMPI PUSH2 0xD7C PUSH2 0xCFE JUMP JUMPDEST JUMPDEST DUP3 DUP3 DIV SWAP1 POP SWAP3 SWAP2 POP POP JUMP JUMPDEST PUSH0 DUP3 DUP3 MSTORE PUSH1 0x20 DUP3 ADD SWAP1 POP SWAP3 SWAP2 POP POP JUMP JUMPDEST PUSH32 0x496E76616C696420746F6B656E20616464726573730000000000000000000000 PUSH0 DUP3 ADD MSTORE POP JUMP JUMPDEST PUSH0 PUSH2 0xDCC PUSH1 0x15 DUP4 PUSH2 0xD88 JUMP JUMPDEST SWAP2 POP PUSH2 0xDD7 DUP3 PUSH2 0xD98 JUMP JUMPDEST PUSH1 0x20 DUP3 ADD SWAP1 POP SWAP2 SWAP1 POP JUMP JUMPDEST PUSH0 PUSH1 0x20 DUP3 ADD SWAP1 POP DUP2 DUP2 SUB PUSH0 DUP4 ADD MSTORE PUSH2 0xDF9 DUP2 PUSH2 0xDC0 JUMP JUMPDEST SWAP1 POP SWAP2 SWAP1 POP JUMP JUMPDEST PUSH0 PUSH1 0x60 DUP3 ADD SWAP1 POP PUSH2 0xE13 PUSH0 DUP4 ADD DUP7 PUSH2 0xC98 JUMP JUMPDEST PUSH2 0xE20 PUSH1 0x20 DUP4 ADD DUP6 PUSH2 0xC98 JUMP JUMPDEST PUSH2 0xE2D PUSH1 0x40 DUP4 ADD DUP5 PUSH2 0xBB1 JUMP JUMPDEST SWAP5 SWAP4 POP POP POP POP JUMP JUMPDEST PUSH0 DUP2 ISZERO ISZERO SWAP1 POP SWAP2 SWAP1 POP JUMP JUMPDEST PUSH2 0xE49 DUP2 PUSH2 0xE35 JUMP JUMPDEST DUP2 EQ PUSH2 0xE53 JUMPI PUSH0 DUP1 REVERT JUMPDEST POP JUMP JUMPDEST PUSH0 DUP2 MLOAD SWAP1 POP PUSH2 0xE64 DUP2 PUSH2 0xE40 JUMP JUMPDEST SWAP3 SWAP2 POP POP JUMP JUMPDEST PUSH0 PUSH1 0x20 DUP3 DUP5 SUB SLT ISZERO PUSH2 0xE7F JUMPI PUSH2 0xE7E PUSH2 0xBD9 JUMP JUMPDEST JUMPDEST PUSH0 PUSH2 0xE8C DUP5 DUP3 DUP6 ADD PUSH2 0xE56 JUMP JUMPDEST SWAP2 POP POP SWAP3 SWAP2 POP POP JUMP JUMPDEST PUSH0 PUSH1 0x40 DUP3 ADD SWAP1 POP PUSH2 0xEA8 PUSH0 DUP4 ADD DUP6 PUSH2 0xC98 JUMP JUMPDEST PUSH2 0xEB5 PUSH1 0x20 DUP4 ADD DUP5 PUSH2 0xBB1 JUMP JUMPDEST SWAP4 SWAP3 POP POP POP JUMP JUMPDEST PUSH0 PUSH2 0xEC6 DUP3 PUSH2 0xBA8 JUMP JUMPDEST SWAP2 POP PUSH2 0xED1 DUP4 PUSH2 0xBA8 JUMP JUMPDEST SWAP3 POP DUP3 DUP3 ADD SWAP1 POP DUP1 DUP3 GT ISZERO PUSH2 0xEE9 JUMPI PUSH2 0xEE8 PUSH2 0xD2B JUMP JUMPDEST JUMPDEST SWAP3 SWAP2 POP POP JUMP JUMPDEST PUSH0 PUSH2 0xEF9 DUP3 PUSH2 0xBA8 JUMP JUMPDEST SWAP2 POP PUSH2 0xF04 DUP4 PUSH2 0xBA8 JUMP JUMPDEST SWAP3 POP DUP3 DUP3 SUB SWAP1 POP DUP2 DUP2 GT ISZERO PUSH2 0xF1C JUMPI PUSH2 0xF1B PUSH2 0xD2B JUMP JUMPDEST JUMPDEST SWAP3 SWAP2 POP POP JUMP JUMPDEST PUSH0 PUSH1 0x40 DUP3 ADD SWAP1 POP PUSH2 0xF35 PUSH0 DUP4 ADD DUP6 PUSH2 0xBB1 JUMP JUMPDEST PUSH2 0xF42 PUSH1 0x20 DUP4 ADD DUP5 PUSH2 0xBB1 JUMP JUMPDEST SWAP4 SWAP3 POP POP POP JUMP JUMPDEST PUSH32 0x496E73756666696369656E74206C697175696469747900000000000000000000 PUSH0 DUP3 ADD MSTORE POP JUMP JUMPDEST PUSH0 PUSH2 0xF7D PUSH1 0x16 DUP4 PUSH2 0xD88 JUMP JUMPDEST SWAP2 POP PUSH2 0xF88 DUP3 PUSH2 0xF49 JUMP JUMPDEST PUSH1 0x20 DUP3 ADD SWAP1 POP SWAP2 SWAP1 POP JUMP JUMPDEST PUSH0 PUSH1 0x20 DUP3 ADD SWAP1 POP DUP2 DUP2 SUB PUSH0 DUP4 ADD MSTORE PUSH2 0xFAA DUP2 PUSH2 0xF71 JUMP JUMPDEST SWAP1 POP SWAP2 SWAP1 POP JUMP JUMPDEST PUSH0 PUSH2 0xFBB DUP3 PUSH2 0xBA8 JUMP JUMPDEST SWAP2 POP PUSH2 0xFC6 DUP4 PUSH2 0xBA8 JUMP JUMPDEST SWAP3 POP DUP3 DUP3 MUL PUSH2 0xFD4 DUP2 PUSH2 0xBA8 JUMP JUMPDEST SWAP2 POP DUP3 DUP3 DIV DUP5 EQ DUP4 ISZERO OR PUSH2 0xFEB JUMPI PUSH2 0xFEA PUSH2 0xD2B JUMP JUMPDEST JUMPDEST POP SWAP3 SWAP2 POP POP JUMP INVALID LOG2 PUSH5 0x6970667358 0x22 SLT KECCAK256 STATICCALL MOD PUSH9 0xB30F21A94AB2B521E9 0x4D CREATE 0xE7 MUL 0xAD PUSH21 0x4471BC2EAC6399C0CB2A159C54AD64736F6C634300 ADDMOD BYTE STOP CALLER "
				},
				"gasEstimates": {
					"creation": {
						"codeDepositCost": "827200",
						"executionCost": "infinite",
						"totalCost": "infinite"
					},
					"external": {
						"addLiquidity(uint256,uint256)": "infinite",
						"getPrice(address)": "infinite",
						"owner()": "2508",
						"removeLiquidity(uint256,uint256)": "infinite",
						"reserveA()": "2491",
						"reserveB()": "2448",
						"swapAforB(uint256)": "infinite",
						"swapBforA(uint256)": "infinite",
						"tokenA()": "infinite",
						"tokenB()": "infinite"
					},
					"internal": {
						"getAmountOut(uint256,uint256,uint256)": "infinite"
					}
				},
				"methodIdentifiers": {
					"addLiquidity(uint256,uint256)": "9cd441da",
					"getPrice(address)": "41976e09",
					"owner()": "8da5cb5b",
					"removeLiquidity(uint256,uint256)": "9d7de6b3",
					"reserveA()": "dc5fa6c5",
					"reserveB()": "19e36f3b",
					"swapAforB(uint256)": "e4f1f70a",
					"swapBforA(uint256)": "8014a7aa",
					"tokenA()": "0fc63d10",
					"tokenB()": "5f64b55b"
				}
			},
			"storageLayout": {
				"storage": [
					{
						"astId": 84,
						"contract": "contracts/SimpleDEXv2.sol:SimpleDEX",
						"label": "tokenA",
						"offset": 0,
						"slot": "0",
						"type": "t_contract(IERC20)77"
					},
					{
						"astId": 87,
						"contract": "contracts/SimpleDEXv2.sol:SimpleDEX",
						"label": "tokenB",
						"offset": 0,
						"slot": "1",
						"type": "t_contract(IERC20)77"
					},
					{
						"astId": 89,
						"contract": "contracts/SimpleDEXv2.sol:SimpleDEX",
						"label": "reserveA",
						"offset": 0,
						"slot": "2",
						"type": "t_uint256"
					},
					{
						"astId": 91,
						"contract": "contracts/SimpleDEXv2.sol:SimpleDEX",
						"label": "reserveB",
						"offset": 0,
						"slot": "3",
						"type": "t_uint256"
					},
					{
						"astId": 93,
						"contract": "contracts/SimpleDEXv2.sol:SimpleDEX",
						"label": "owner",
						"offset": 0,
						"slot": "4",
						"type": "t_address"
					}
				],
				"types": {
					"t_address": {
						"encoding": "inplace",
						"label": "address",
						"numberOfBytes": "20"
					},
					"t_contract(IERC20)77": {
						"encoding": "inplace",
						"label": "contract IERC20",
						"numberOfBytes": "20"
					},
					"t_uint256": {
						"encoding": "inplace",
						"label": "uint256",
						"numberOfBytes": "32"
					}
				}
			},
			"userdoc": {
				"kind": "user",
				"methods": {
					"addLiquidity(uint256,uint256)": {
						"notice": "Adds liquidity to the pool."
					},
					"constructor": {
						"notice": "Contract constructor."
					},
					"getPrice(address)": {
						"notice": "Gets the price of one token in terms of the other."
					},
					"removeLiquidity(uint256,uint256)": {
						"notice": "Removes liquidity from the pool."
					},
					"swapAforB(uint256)": {
						"notice": "Swaps TokenA for TokenB."
					},
					"swapBforA(uint256)": {
						"notice": "Swaps TokenB for TokenA."
					}
				},
				"notice": "This contract implements a simple decentralized exchange using the constant product formula.",
				"version": 1
			}
		}
	}
}