{
	"contracts/SimpleDEX.sol": {
		"SimpleDEX": {
			"abi": [
				{
					"inputs": [
						{
							"internalType": "address",
							"name": "_tokenA",
							"type": "address"
						},
						{
							"internalType": "address",
							"name": "_tokenB",
							"type": "address"
						}
					],
					"stateMutability": "nonpayable",
					"type": "constructor"
				},
				{
					"inputs": [
						{
							"internalType": "address",
							"name": "owner",
							"type": "address"
						}
					],
					"name": "OwnableInvalidOwner",
					"type": "error"
				},
				{
					"inputs": [
						{
							"internalType": "address",
							"name": "account",
							"type": "address"
						}
					],
					"name": "OwnableUnauthorizedAccount",
					"type": "error"
				},
				{
					"anonymous": false,
					"inputs": [
						{
							"indexed": true,
							"internalType": "address",
							"name": "previousOwner",
							"type": "address"
						},
						{
							"indexed": true,
							"internalType": "address",
							"name": "newOwner",
							"type": "address"
						}
					],
					"name": "OwnershipTransferred",
					"type": "event"
				},
				{
					"inputs": [
						{
							"internalType": "uint256",
							"name": "amountA",
							"type": "uint256"
						},
						{
							"internalType": "uint256",
							"name": "amountB",
							"type": "uint256"
						}
					],
					"name": "addLiquidity",
					"outputs": [],
					"stateMutability": "nonpayable",
					"type": "function"
				},
				{
					"inputs": [
						{
							"internalType": "address",
							"name": "_token",
							"type": "address"
						}
					],
					"name": "getPrice",
					"outputs": [
						{
							"internalType": "uint256",
							"name": "",
							"type": "uint256"
						}
					],
					"stateMutability": "view",
					"type": "function"
				},
				{
					"inputs": [],
					"name": "owner",
					"outputs": [
						{
							"internalType": "address",
							"name": "",
							"type": "address"
						}
					],
					"stateMutability": "view",
					"type": "function"
				},
				{
					"inputs": [
						{
							"internalType": "uint256",
							"name": "amountA",
							"type": "uint256"
						},
						{
							"internalType": "uint256",
							"name": "amountB",
							"type": "uint256"
						}
					],
					"name": "removeLiquidity",
					"outputs": [],
					"stateMutability": "nonpayable",
					"type": "function"
				},
				{
					"inputs": [],
					"name": "renounceOwnership",
					"outputs": [],
					"stateMutability": "nonpayable",
					"type": "function"
				},
				{
					"inputs": [],
					"name": "reserveA",
					"outputs": [
						{
							"internalType": "uint256",
							"name": "",
							"type": "uint256"
						}
					],
					"stateMutability": "view",
					"type": "function"
				},
				{
					"inputs": [],
					"name": "reserveB",
					"outputs": [
						{
							"internalType": "uint256",
							"name": "",
							"type": "uint256"
						}
					],
					"stateMutability": "view",
					"type": "function"
				},
				{
					"inputs": [
						{
							"internalType": "uint256",
							"name": "amountAIn",
							"type": "uint256"
						}
					],
					"name": "swapAforB",
					"outputs": [],
					"stateMutability": "nonpayable",
					"type": "function"
				},
				{
					"inputs": [
						{
							"internalType": "uint256",
							"name": "amountBIn",
							"type": "uint256"
						}
					],
					"name": "swapBforA",
					"outputs": [],
					"stateMutability": "nonpayable",
					"type": "function"
				},
				{
					"inputs": [],
					"name": "tokenA",
					"outputs": [
						{
							"internalType": "address",
							"name": "",
							"type": "address"
						}
					],
					"stateMutability": "view",
					"type": "function"
				},
				{
					"inputs": [],
					"name": "tokenB",
					"outputs": [
						{
							"internalType": "address",
							"name": "",
							"type": "address"
						}
					],
					"stateMutability": "view",
					"type": "function"
				},
				{
					"inputs": [
						{
							"internalType": "address",
							"name": "newOwner",
							"type": "address"
						}
					],
					"name": "transferOwnership",
					"outputs": [],
					"stateMutability": "nonpayable",
					"type": "function"
				}
			],
			"devdoc": {
				"errors": {
					"OwnableInvalidOwner(address)": [
						{
							"details": "The owner is not a valid owner account. (eg. `address(0)`)"
						}
					],
					"OwnableUnauthorizedAccount(address)": [
						{
							"details": "The caller account is not authorized to perform an operation."
						}
					]
				},
				"kind": "dev",
				"methods": {
					"owner()": {
						"details": "Returns the address of the current owner."
					},
					"renounceOwnership()": {
						"details": "Leaves the contract without owner. It will not be possible to call `onlyOwner` functions. Can only be called by the current owner. NOTE: Renouncing ownership will leave the contract without an owner, thereby disabling any functionality that is only available to the owner."
					},
					"transferOwnership(address)": {
						"details": "Transfers ownership of the contract to a new account (`newOwner`). Can only be called by the current owner."
					}
				},
				"version": 1
			},
			"evm": {
				"assembly": "    /* \"contracts/SimpleDEX.sol\":258:2394  contract SimpleDEX is Ownable {... */\n  mstore(0x40, 0x80)\n    /* \"contracts/SimpleDEX.sol\":413:542  constructor(address _tokenA, address _tokenB) Ownable (msg.sender) {... */\n  callvalue\n  dup1\n  iszero\n  tag_1\n  jumpi\n  0x00\n  dup1\n  revert\ntag_1:\n  pop\n  mload(0x40)\n  sub(codesize, bytecodeSize)\n  dup1\n  bytecodeSize\n  dup4\n  codecopy\n  dup2\n  dup2\n  add\n  0x40\n  mstore\n  dup2\n  add\n  swap1\n  tag_2\n  swap2\n  swap1\n  tag_3\n  jump\t// in\ntag_2:\n    /* \"contracts/SimpleDEX.sol\":468:478  msg.sender */\n  caller\n    /* \"@openzeppelin/contracts/access/Ownable.sol\":1297:1298  0 */\n  0x00\n    /* \"@openzeppelin/contracts/access/Ownable.sol\":1273:1299  initialOwner == address(0) */\n  0xffffffffffffffffffffffffffffffffffffffff\n  and\n    /* \"@openzeppelin/contracts/access/Ownable.sol\":1273:1285  initialOwner */\n  dup2\n    /* \"@openzeppelin/contracts/access/Ownable.sol\":1273:1299  initialOwner == address(0) */\n  0xffffffffffffffffffffffffffffffffffffffff\n  and\n  sub\n    /* \"@openzeppelin/contracts/access/Ownable.sol\":1269:1364  if (initialOwner == address(0)) {... */\n  tag_7\n  jumpi\n    /* \"@openzeppelin/contracts/access/Ownable.sol\":1350:1351  0 */\n  0x00\n    /* \"@openzeppelin/contracts/access/Ownable.sol\":1322:1353  OwnableInvalidOwner(address(0)) */\n  mload(0x40)\n  0x1e4fbdf700000000000000000000000000000000000000000000000000000000\n  dup2\n  mstore\n  0x04\n  add\n  tag_8\n  swap2\n  swap1\n  tag_9\n  jump\t// in\ntag_8:\n  mload(0x40)\n  dup1\n  swap2\n  sub\n  swap1\n  revert\n    /* \"@openzeppelin/contracts/access/Ownable.sol\":1269:1364  if (initialOwner == address(0)) {... */\ntag_7:\n    /* \"@openzeppelin/contracts/access/Ownable.sol\":1373:1405  _transferOwnership(initialOwner) */\n  tag_10\n    /* \"@openzeppelin/contracts/access/Ownable.sol\":1392:1404  initialOwner */\n  dup2\n    /* \"@openzeppelin/contracts/access/Ownable.sol\":1373:1391  _transferOwnership */\n  shl(0x20, tag_11)\n    /* \"@openzeppelin/contracts/access/Ownable.sol\":1373:1405  _transferOwnership(initialOwner) */\n  0x20\n  shr\n  jump\t// in\ntag_10:\n    /* \"@openzeppelin/contracts/access/Ownable.sol\":1225:1412  constructor(address initialOwner) {... */\n  pop\n    /* \"contracts/SimpleDEX.sol\":500:507  _tokenA */\n  dup2\n    /* \"contracts/SimpleDEX.sol\":491:497  tokenA */\n  0x01\n  0x00\n    /* \"contracts/SimpleDEX.sol\":491:507  tokenA = _tokenA */\n  0x0100\n  exp\n  dup2\n  sload\n  dup2\n  0xffffffffffffffffffffffffffffffffffffffff\n  mul\n  not\n  and\n  swap1\n  dup4\n  0xffffffffffffffffffffffffffffffffffffffff\n  and\n  mul\n  or\n  swap1\n  sstore\n  pop\n    /* \"contracts/SimpleDEX.sol\":527:534  _tokenB */\n  dup1\n    /* \"contracts/SimpleDEX.sol\":518:524  tokenB */\n  0x02\n  0x00\n    /* \"contracts/SimpleDEX.sol\":518:534  tokenB = _tokenB */\n  0x0100\n  exp\n  dup2\n  sload\n  dup2\n  0xffffffffffffffffffffffffffffffffffffffff\n  mul\n  not\n  and\n  swap1\n  dup4\n  0xffffffffffffffffffffffffffffffffffffffff\n  and\n  mul\n  or\n  swap1\n  sstore\n  pop\n    /* \"contracts/SimpleDEX.sol\":413:542  constructor(address _tokenA, address _tokenB) Ownable (msg.sender) {... */\n  pop\n  pop\n    /* \"contracts/SimpleDEX.sol\":258:2394  contract SimpleDEX is Ownable {... */\n  jump(tag_13)\n    /* \"@openzeppelin/contracts/access/Ownable.sol\":2912:3099  function _transferOwnership(address newOwner) internal virtual {... */\ntag_11:\n    /* \"@openzeppelin/contracts/access/Ownable.sol\":2985:3001  address oldOwner */\n  0x00\n    /* \"@openzeppelin/contracts/access/Ownable.sol\":3004:3010  _owner */\n  dup1\n  0x00\n  swap1\n  sload\n  swap1\n  0x0100\n  exp\n  swap1\n  div\n  0xffffffffffffffffffffffffffffffffffffffff\n  and\n    /* \"@openzeppelin/contracts/access/Ownable.sol\":2985:3010  address oldOwner = _owner */\n  swap1\n  pop\n    /* \"@openzeppelin/contracts/access/Ownable.sol\":3029:3037  newOwner */\n  dup2\n    /* \"@openzeppelin/contracts/access/Ownable.sol\":3020:3026  _owner */\n  0x00\n  dup1\n    /* \"@openzeppelin/contracts/access/Ownable.sol\":3020:3037  _owner = newOwner */\n  0x0100\n  exp\n  dup2\n  sload\n  dup2\n  0xffffffffffffffffffffffffffffffffffffffff\n  mul\n  not\n  and\n  swap1\n  dup4\n  0xffffffffffffffffffffffffffffffffffffffff\n  and\n  mul\n  or\n  swap1\n  sstore\n  pop\n    /* \"@openzeppelin/contracts/access/Ownable.sol\":3083:3091  newOwner */\n  dup2\n    /* \"@openzeppelin/contracts/access/Ownable.sol\":3052:3092  OwnershipTransferred(oldOwner, newOwner) */\n  0xffffffffffffffffffffffffffffffffffffffff\n  and\n    /* \"@openzeppelin/contracts/access/Ownable.sol\":3073:3081  oldOwner */\n  dup2\n    /* \"@openzeppelin/contracts/access/Ownable.sol\":3052:3092  OwnershipTransferred(oldOwner, newOwner) */\n  0xffffffffffffffffffffffffffffffffffffffff\n  and\n  0x8be0079c531659141344cd1fd0a4f28419497f9722a3daafe3b4186f6b6457e0\n  mload(0x40)\n  mload(0x40)\n  dup1\n  swap2\n  sub\n  swap1\n  log3\n    /* \"@openzeppelin/contracts/access/Ownable.sol\":2975:3099  {... */\n  pop\n    /* \"@openzeppelin/contracts/access/Ownable.sol\":2912:3099  function _transferOwnership(address newOwner) internal virtual {... */\n  pop\n  jump\t// out\n    /* \"#utility.yul\":88:205   */\ntag_16:\n    /* \"#utility.yul\":197:198   */\n  0x00\n    /* \"#utility.yul\":194:195   */\n  dup1\n    /* \"#utility.yul\":187:199   */\n  revert\n    /* \"#utility.yul\":334:460   */\ntag_18:\n    /* \"#utility.yul\":371:378   */\n  0x00\n    /* \"#utility.yul\":411:453   */\n  0xffffffffffffffffffffffffffffffffffffffff\n    /* \"#utility.yul\":404:409   */\n  dup3\n    /* \"#utility.yul\":400:454   */\n  and\n    /* \"#utility.yul\":389:454   */\n  swap1\n  pop\n    /* \"#utility.yul\":334:460   */\n  swap2\n  swap1\n  pop\n  jump\t// out\n    /* \"#utility.yul\":466:562   */\ntag_19:\n    /* \"#utility.yul\":503:510   */\n  0x00\n    /* \"#utility.yul\":532:556   */\n  tag_29\n    /* \"#utility.yul\":550:555   */\n  dup3\n    /* \"#utility.yul\":532:556   */\n  tag_18\n  jump\t// in\ntag_29:\n    /* \"#utility.yul\":521:556   */\n  swap1\n  pop\n    /* \"#utility.yul\":466:562   */\n  swap2\n  swap1\n  pop\n  jump\t// out\n    /* \"#utility.yul\":568:690   */\ntag_20:\n    /* \"#utility.yul\":641:665   */\n  tag_31\n    /* \"#utility.yul\":659:664   */\n  dup2\n    /* \"#utility.yul\":641:665   */\n  tag_19\n  jump\t// in\ntag_31:\n    /* \"#utility.yul\":634:639   */\n  dup2\n    /* \"#utility.yul\":631:666   */\n  eq\n    /* \"#utility.yul\":621:684   */\n  tag_32\n  jumpi\n    /* \"#utility.yul\":680:681   */\n  0x00\n    /* \"#utility.yul\":677:678   */\n  dup1\n    /* \"#utility.yul\":670:682   */\n  revert\n    /* \"#utility.yul\":621:684   */\ntag_32:\n    /* \"#utility.yul\":568:690   */\n  pop\n  jump\t// out\n    /* \"#utility.yul\":696:839   */\ntag_21:\n    /* \"#utility.yul\":753:758   */\n  0x00\n    /* \"#utility.yul\":784:790   */\n  dup2\n    /* \"#utility.yul\":778:791   */\n  mload\n    /* \"#utility.yul\":769:791   */\n  swap1\n  pop\n    /* \"#utility.yul\":800:833   */\n  tag_34\n    /* \"#utility.yul\":827:832   */\n  dup2\n    /* \"#utility.yul\":800:833   */\n  tag_20\n  jump\t// in\ntag_34:\n    /* \"#utility.yul\":696:839   */\n  swap3\n  swap2\n  pop\n  pop\n  jump\t// out\n    /* \"#utility.yul\":845:1352   */\ntag_3:\n    /* \"#utility.yul\":924:930   */\n  0x00\n    /* \"#utility.yul\":932:938   */\n  dup1\n    /* \"#utility.yul\":981:983   */\n  0x40\n    /* \"#utility.yul\":969:978   */\n  dup4\n    /* \"#utility.yul\":960:967   */\n  dup6\n    /* \"#utility.yul\":956:979   */\n  sub\n    /* \"#utility.yul\":952:984   */\n  slt\n    /* \"#utility.yul\":949:1068   */\n  iszero\n  tag_36\n  jumpi\n    /* \"#utility.yul\":987:1066   */\n  tag_37\n  tag_16\n  jump\t// in\ntag_37:\n    /* \"#utility.yul\":949:1068   */\ntag_36:\n    /* \"#utility.yul\":1107:1108   */\n  0x00\n    /* \"#utility.yul\":1132:1196   */\n  tag_38\n    /* \"#utility.yul\":1188:1195   */\n  dup6\n    /* \"#utility.yul\":1179:1185   */\n  dup3\n    /* \"#utility.yul\":1168:1177   */\n  dup7\n    /* \"#utility.yul\":1164:1186   */\n  add\n    /* \"#utility.yul\":1132:1196   */\n  tag_21\n  jump\t// in\ntag_38:\n    /* \"#utility.yul\":1122:1196   */\n  swap3\n  pop\n    /* \"#utility.yul\":1078:1206   */\n  pop\n    /* \"#utility.yul\":1245:1247   */\n  0x20\n    /* \"#utility.yul\":1271:1335   */\n  tag_39\n    /* \"#utility.yul\":1327:1334   */\n  dup6\n    /* \"#utility.yul\":1318:1324   */\n  dup3\n    /* \"#utility.yul\":1307:1316   */\n  dup7\n    /* \"#utility.yul\":1303:1325   */\n  add\n    /* \"#utility.yul\":1271:1335   */\n  tag_21\n  jump\t// in\ntag_39:\n    /* \"#utility.yul\":1261:1335   */\n  swap2\n  pop\n    /* \"#utility.yul\":1216:1345   */\n  pop\n    /* \"#utility.yul\":845:1352   */\n  swap3\n  pop\n  swap3\n  swap1\n  pop\n  jump\t// out\n    /* \"#utility.yul\":1358:1476   */\ntag_22:\n    /* \"#utility.yul\":1445:1469   */\n  tag_41\n    /* \"#utility.yul\":1463:1468   */\n  dup2\n    /* \"#utility.yul\":1445:1469   */\n  tag_19\n  jump\t// in\ntag_41:\n    /* \"#utility.yul\":1440:1443   */\n  dup3\n    /* \"#utility.yul\":1433:1470   */\n  mstore\n    /* \"#utility.yul\":1358:1476   */\n  pop\n  pop\n  jump\t// out\n    /* \"#utility.yul\":1482:1704   */\ntag_9:\n    /* \"#utility.yul\":1575:1579   */\n  0x00\n    /* \"#utility.yul\":1613:1615   */\n  0x20\n    /* \"#utility.yul\":1602:1611   */\n  dup3\n    /* \"#utility.yul\":1598:1616   */\n  add\n    /* \"#utility.yul\":1590:1616   */\n  swap1\n  pop\n    /* \"#utility.yul\":1626:1697   */\n  tag_43\n    /* \"#utility.yul\":1694:1695   */\n  0x00\n    /* \"#utility.yul\":1683:1692   */\n  dup4\n    /* \"#utility.yul\":1679:1696   */\n  add\n    /* \"#utility.yul\":1670:1676   */\n  dup5\n    /* \"#utility.yul\":1626:1697   */\n  tag_22\n  jump\t// in\ntag_43:\n    /* \"#utility.yul\":1482:1704   */\n  swap3\n  swap2\n  pop\n  pop\n  jump\t// out\n    /* \"contracts/SimpleDEX.sol\":258:2394  contract SimpleDEX is Ownable {... */\ntag_13:\n  dataSize(sub_0)\n  dup1\n  dataOffset(sub_0)\n  0x00\n  codecopy\n  0x00\n  return\nstop\n\nsub_0: assembly {\n        /* \"contracts/SimpleDEX.sol\":258:2394  contract SimpleDEX is Ownable {... */\n      mstore(0x40, 0x80)\n      callvalue\n      dup1\n      iszero\n      tag_1\n      jumpi\n      0x00\n      dup1\n      revert\n    tag_1:\n      pop\n      jumpi(tag_2, lt(calldatasize, 0x04))\n      shr(0xe0, calldataload(0x00))\n      dup1\n      0x8da5cb5b\n      gt\n      tag_15\n      jumpi\n      dup1\n      0x8da5cb5b\n      eq\n      tag_9\n      jumpi\n      dup1\n      0x9cd441da\n      eq\n      tag_10\n      jumpi\n      dup1\n      0x9d7de6b3\n      eq\n      tag_11\n      jumpi\n      dup1\n      0xdc5fa6c5\n      eq\n      tag_12\n      jumpi\n      dup1\n      0xe4f1f70a\n      eq\n      tag_13\n      jumpi\n      dup1\n      0xf2fde38b\n      eq\n      tag_14\n      jumpi\n      jump(tag_2)\n    tag_15:\n      dup1\n      0x0fc63d10\n      eq\n      tag_3\n      jumpi\n      dup1\n      0x19e36f3b\n      eq\n      tag_4\n      jumpi\n      dup1\n      0x41976e09\n      eq\n      tag_5\n      jumpi\n      dup1\n      0x5f64b55b\n      eq\n      tag_6\n      jumpi\n      dup1\n      0x715018a6\n      eq\n      tag_7\n      jumpi\n      dup1\n      0x8014a7aa\n      eq\n      tag_8\n      jumpi\n    tag_2:\n      0x00\n      dup1\n      revert\n        /* \"contracts/SimpleDEX.sol\":295:316  address public tokenA */\n    tag_3:\n      tag_16\n      tag_17\n      jump\t// in\n    tag_16:\n      mload(0x40)\n      tag_18\n      swap2\n      swap1\n      tag_19\n      jump\t// in\n    tag_18:\n      mload(0x40)\n      dup1\n      swap2\n      sub\n      swap1\n      return\n        /* \"contracts/SimpleDEX.sol\":381:404  uint256 public reserveB */\n    tag_4:\n      tag_20\n      tag_21\n      jump\t// in\n    tag_20:\n      mload(0x40)\n      tag_22\n      swap2\n      swap1\n      tag_23\n      jump\t// in\n    tag_22:\n      mload(0x40)\n      dup1\n      swap2\n      sub\n      swap1\n      return\n        /* \"contracts/SimpleDEX.sol\":2175:2391  function getPrice(address _token) public view returns (uint256) {... */\n    tag_5:\n      tag_24\n      0x04\n      dup1\n      calldatasize\n      sub\n      dup2\n      add\n      swap1\n      tag_25\n      swap2\n      swap1\n      tag_26\n      jump\t// in\n    tag_25:\n      tag_27\n      jump\t// in\n    tag_24:\n      mload(0x40)\n      tag_28\n      swap2\n      swap1\n      tag_23\n      jump\t// in\n    tag_28:\n      mload(0x40)\n      dup1\n      swap2\n      sub\n      swap1\n      return\n        /* \"contracts/SimpleDEX.sol\":323:344  address public tokenB */\n    tag_6:\n      tag_29\n      tag_30\n      jump\t// in\n    tag_29:\n      mload(0x40)\n      tag_31\n      swap2\n      swap1\n      tag_19\n      jump\t// in\n    tag_31:\n      mload(0x40)\n      dup1\n      swap2\n      sub\n      swap1\n      return\n        /* \"@openzeppelin/contracts/access/Ownable.sol\":2293:2394  function renounceOwnership() public virtual onlyOwner {... */\n    tag_7:\n      tag_32\n      tag_33\n      jump\t// in\n    tag_32:\n      stop\n        /* \"contracts/SimpleDEX.sol\":1336:1747  function swapBforA(uint256 amountBIn) public {... */\n    tag_8:\n      tag_34\n      0x04\n      dup1\n      calldatasize\n      sub\n      dup2\n      add\n      swap1\n      tag_35\n      swap2\n      swap1\n      tag_36\n      jump\t// in\n    tag_35:\n      tag_37\n      jump\t// in\n    tag_34:\n      stop\n        /* \"@openzeppelin/contracts/access/Ownable.sol\":1638:1723  function owner() public view virtual returns (address) {... */\n    tag_9:\n      tag_38\n      tag_39\n      jump\t// in\n    tag_38:\n      mload(0x40)\n      tag_40\n      swap2\n      swap1\n      tag_19\n      jump\t// in\n    tag_40:\n      mload(0x40)\n      dup1\n      swap2\n      sub\n      swap1\n      return\n        /* \"contracts/SimpleDEX.sol\":550:909  function addLiquidity(uint256 amountA, uint256 amountB) public {... */\n    tag_10:\n      tag_41\n      0x04\n      dup1\n      calldatasize\n      sub\n      dup2\n      add\n      swap1\n      tag_42\n      swap2\n      swap1\n      tag_43\n      jump\t// in\n    tag_42:\n      tag_44\n      jump\t// in\n    tag_41:\n      stop\n        /* \"contracts/SimpleDEX.sol\":1755:2167  function removeLiquidity(uint256 amountA, uint256 amountB) public {... */\n    tag_11:\n      tag_45\n      0x04\n      dup1\n      calldatasize\n      sub\n      dup2\n      add\n      swap1\n      tag_46\n      swap2\n      swap1\n      tag_43\n      jump\t// in\n    tag_46:\n      tag_47\n      jump\t// in\n    tag_45:\n      stop\n        /* \"contracts/SimpleDEX.sol\":351:374  uint256 public reserveA */\n    tag_12:\n      tag_48\n      tag_49\n      jump\t// in\n    tag_48:\n      mload(0x40)\n      tag_50\n      swap2\n      swap1\n      tag_23\n      jump\t// in\n    tag_50:\n      mload(0x40)\n      dup1\n      swap2\n      sub\n      swap1\n      return\n        /* \"contracts/SimpleDEX.sol\":917:1328  function swapAforB(uint256 amountAIn) public {... */\n    tag_13:\n      tag_51\n      0x04\n      dup1\n      calldatasize\n      sub\n      dup2\n      add\n      swap1\n      tag_52\n      swap2\n      swap1\n      tag_36\n      jump\t// in\n    tag_52:\n      tag_53\n      jump\t// in\n    tag_51:\n      stop\n        /* \"@openzeppelin/contracts/access/Ownable.sol\":2543:2758  function transferOwnership(address newOwner) public virtual onlyOwner {... */\n    tag_14:\n      tag_54\n      0x04\n      dup1\n      calldatasize\n      sub\n      dup2\n      add\n      swap1\n      tag_55\n      swap2\n      swap1\n      tag_26\n      jump\t// in\n    tag_55:\n      tag_56\n      jump\t// in\n    tag_54:\n      stop\n        /* \"contracts/SimpleDEX.sol\":295:316  address public tokenA */\n    tag_17:\n      0x01\n      0x00\n      swap1\n      sload\n      swap1\n      0x0100\n      exp\n      swap1\n      div\n      0xffffffffffffffffffffffffffffffffffffffff\n      and\n      dup2\n      jump\t// out\n        /* \"contracts/SimpleDEX.sol\":381:404  uint256 public reserveB */\n    tag_21:\n      sload(0x04)\n      dup2\n      jump\t// out\n        /* \"contracts/SimpleDEX.sol\":2175:2391  function getPrice(address _token) public view returns (uint256) {... */\n    tag_27:\n        /* \"contracts/SimpleDEX.sol\":2230:2237  uint256 */\n      0x00\n        /* \"contracts/SimpleDEX.sol\":2264:2270  tokenA */\n      0x01\n      0x00\n      swap1\n      sload\n      swap1\n      0x0100\n      exp\n      swap1\n      div\n      0xffffffffffffffffffffffffffffffffffffffff\n      and\n        /* \"contracts/SimpleDEX.sol\":2254:2270  _token == tokenA */\n      0xffffffffffffffffffffffffffffffffffffffff\n      and\n        /* \"contracts/SimpleDEX.sol\":2254:2260  _token */\n      dup3\n        /* \"contracts/SimpleDEX.sol\":2254:2270  _token == tokenA */\n      0xffffffffffffffffffffffffffffffffffffffff\n      and\n      sub\n        /* \"contracts/SimpleDEX.sol\":2250:2384  if (_token == tokenA) {... */\n      tag_58\n      jumpi\n        /* \"contracts/SimpleDEX.sol\":2305:2313  reserveA */\n      sload(0x03)\n        /* \"contracts/SimpleDEX.sol\":2294:2302  reserveB */\n      sload(0x04)\n        /* \"contracts/SimpleDEX.sol\":2294:2313  reserveB / reserveA */\n      tag_59\n      swap2\n      swap1\n      tag_60\n      jump\t// in\n    tag_59:\n        /* \"contracts/SimpleDEX.sol\":2287:2313  return reserveB / reserveA */\n      swap1\n      pop\n      jump(tag_57)\n        /* \"contracts/SimpleDEX.sol\":2250:2384  if (_token == tokenA) {... */\n    tag_58:\n        /* \"contracts/SimpleDEX.sol\":2364:2372  reserveB */\n      sload(0x04)\n        /* \"contracts/SimpleDEX.sol\":2353:2361  reserveA */\n      sload(0x03)\n        /* \"contracts/SimpleDEX.sol\":2353:2372  reserveA / reserveB */\n      tag_62\n      swap2\n      swap1\n      tag_60\n      jump\t// in\n    tag_62:\n        /* \"contracts/SimpleDEX.sol\":2346:2372  return reserveA / reserveB */\n      swap1\n      pop\n        /* \"contracts/SimpleDEX.sol\":2175:2391  function getPrice(address _token) public view returns (uint256) {... */\n    tag_57:\n      swap2\n      swap1\n      pop\n      jump\t// out\n        /* \"contracts/SimpleDEX.sol\":323:344  address public tokenB */\n    tag_30:\n      0x02\n      0x00\n      swap1\n      sload\n      swap1\n      0x0100\n      exp\n      swap1\n      div\n      0xffffffffffffffffffffffffffffffffffffffff\n      and\n      dup2\n      jump\t// out\n        /* \"@openzeppelin/contracts/access/Ownable.sol\":2293:2394  function renounceOwnership() public virtual onlyOwner {... */\n    tag_33:\n        /* \"@openzeppelin/contracts/access/Ownable.sol\":1531:1544  _checkOwner() */\n      tag_64\n        /* \"@openzeppelin/contracts/access/Ownable.sol\":1531:1542  _checkOwner */\n      tag_65\n        /* \"@openzeppelin/contracts/access/Ownable.sol\":1531:1544  _checkOwner() */\n      jump\t// in\n    tag_64:\n        /* \"@openzeppelin/contracts/access/Ownable.sol\":2357:2387  _transferOwnership(address(0)) */\n      tag_67\n        /* \"@openzeppelin/contracts/access/Ownable.sol\":2384:2385  0 */\n      0x00\n        /* \"@openzeppelin/contracts/access/Ownable.sol\":2357:2375  _transferOwnership */\n      tag_68\n        /* \"@openzeppelin/contracts/access/Ownable.sol\":2357:2387  _transferOwnership(address(0)) */\n      jump\t// in\n    tag_67:\n        /* \"@openzeppelin/contracts/access/Ownable.sol\":2293:2394  function renounceOwnership() public virtual onlyOwner {... */\n      jump\t// out\n        /* \"contracts/SimpleDEX.sol\":1336:1747  function swapBforA(uint256 amountBIn) public {... */\n    tag_37:\n        /* \"contracts/SimpleDEX.sol\":1392:1410  uint256 amountAOut */\n      0x00\n        /* \"contracts/SimpleDEX.sol\":1450:1459  amountBIn */\n      dup2\n        /* \"contracts/SimpleDEX.sol\":1439:1447  reserveB */\n      sload(0x04)\n        /* \"contracts/SimpleDEX.sol\":1439:1459  reserveB + amountBIn */\n      tag_70\n      swap2\n      swap1\n      tag_71\n      jump\t// in\n    tag_70:\n        /* \"contracts/SimpleDEX.sol\":1426:1434  reserveA */\n      sload(0x03)\n        /* \"contracts/SimpleDEX.sol\":1414:1423  amountBIn */\n      dup4\n        /* \"contracts/SimpleDEX.sol\":1414:1434  amountBIn * reserveA */\n      tag_72\n      swap2\n      swap1\n      tag_73\n      jump\t// in\n    tag_72:\n        /* \"contracts/SimpleDEX.sol\":1413:1460  (amountBIn * reserveA) / (reserveB + amountBIn) */\n      tag_74\n      swap2\n      swap1\n      tag_60\n      jump\t// in\n    tag_74:\n        /* \"contracts/SimpleDEX.sol\":1392:1460  uint256 amountAOut = (amountBIn * reserveA) / (reserveB + amountBIn) */\n      swap1\n      pop\n        /* \"contracts/SimpleDEX.sol\":1486:1492  tokenB */\n      0x02\n      0x00\n      swap1\n      sload\n      swap1\n      0x0100\n      exp\n      swap1\n      div\n      0xffffffffffffffffffffffffffffffffffffffff\n      and\n        /* \"contracts/SimpleDEX.sol\":1479:1506  IERC20(tokenB).transferFrom */\n      0xffffffffffffffffffffffffffffffffffffffff\n      and\n      0x23b872dd\n        /* \"contracts/SimpleDEX.sol\":1507:1517  msg.sender */\n      caller\n        /* \"contracts/SimpleDEX.sol\":1527:1531  this */\n      address\n        /* \"contracts/SimpleDEX.sol\":1534:1543  amountBIn */\n      dup6\n        /* \"contracts/SimpleDEX.sol\":1479:1544  IERC20(tokenB).transferFrom(msg.sender, address(this), amountBIn) */\n      mload(0x40)\n      dup5\n      0xffffffff\n      and\n      0xe0\n      shl\n      dup2\n      mstore\n      0x04\n      add\n      tag_75\n      swap4\n      swap3\n      swap2\n      swap1\n      tag_76\n      jump\t// in\n    tag_75:\n      0x20\n      mload(0x40)\n      dup1\n      dup4\n      sub\n      dup2\n      0x00\n      dup8\n      gas\n      call\n      iszero\n      dup1\n      iszero\n      tag_78\n      jumpi\n      returndatasize\n      0x00\n      dup1\n      returndatacopy\n      revert(0x00, returndatasize)\n    tag_78:\n      pop\n      pop\n      pop\n      pop\n      mload(0x40)\n      returndatasize\n      not(0x1f)\n      0x1f\n      dup3\n      add\n      and\n      dup3\n      add\n      dup1\n      0x40\n      mstore\n      pop\n      dup2\n      add\n      swap1\n      tag_79\n      swap2\n      swap1\n      tag_80\n      jump\t// in\n    tag_79:\n        /* \"contracts/SimpleDEX.sol\":1471:1575  require(IERC20(tokenB).transferFrom(msg.sender, address(this), amountBIn), \"Transfer of Token B failed\") */\n      tag_81\n      jumpi\n      mload(0x40)\n      0x08c379a000000000000000000000000000000000000000000000000000000000\n      dup2\n      mstore\n      0x04\n      add\n      tag_82\n      swap1\n      tag_83\n      jump\t// in\n    tag_82:\n      mload(0x40)\n      dup1\n      swap2\n      sub\n      swap1\n      revert\n    tag_81:\n        /* \"contracts/SimpleDEX.sol\":1601:1607  tokenA */\n      0x01\n      0x00\n      swap1\n      sload\n      swap1\n      0x0100\n      exp\n      swap1\n      div\n      0xffffffffffffffffffffffffffffffffffffffff\n      and\n        /* \"contracts/SimpleDEX.sol\":1594:1617  IERC20(tokenA).transfer */\n      0xffffffffffffffffffffffffffffffffffffffff\n      and\n      0xa9059cbb\n        /* \"contracts/SimpleDEX.sol\":1618:1628  msg.sender */\n      caller\n        /* \"contracts/SimpleDEX.sol\":1630:1640  amountAOut */\n      dup4\n        /* \"contracts/SimpleDEX.sol\":1594:1641  IERC20(tokenA).transfer(msg.sender, amountAOut) */\n      mload(0x40)\n      dup4\n      0xffffffff\n      and\n      0xe0\n      shl\n      dup2\n      mstore\n      0x04\n      add\n      tag_84\n      swap3\n      swap2\n      swap1\n      tag_85\n      jump\t// in\n    tag_84:\n      0x20\n      mload(0x40)\n      dup1\n      dup4\n      sub\n      dup2\n      0x00\n      dup8\n      gas\n      call\n      iszero\n      dup1\n      iszero\n      tag_87\n      jumpi\n      returndatasize\n      0x00\n      dup1\n      returndatacopy\n      revert(0x00, returndatasize)\n    tag_87:\n      pop\n      pop\n      pop\n      pop\n      mload(0x40)\n      returndatasize\n      not(0x1f)\n      0x1f\n      dup3\n      add\n      and\n      dup3\n      add\n      dup1\n      0x40\n      mstore\n      pop\n      dup2\n      add\n      swap1\n      tag_88\n      swap2\n      swap1\n      tag_80\n      jump\t// in\n    tag_88:\n        /* \"contracts/SimpleDEX.sol\":1586:1672  require(IERC20(tokenA).transfer(msg.sender, amountAOut), \"Transfer of Token A failed\") */\n      tag_89\n      jumpi\n      mload(0x40)\n      0x08c379a000000000000000000000000000000000000000000000000000000000\n      dup2\n      mstore\n      0x04\n      add\n      tag_90\n      swap1\n      tag_91\n      jump\t// in\n    tag_90:\n      mload(0x40)\n      dup1\n      swap2\n      sub\n      swap1\n      revert\n    tag_89:\n        /* \"contracts/SimpleDEX.sol\":1697:1707  amountAOut */\n      dup1\n        /* \"contracts/SimpleDEX.sol\":1685:1693  reserveA */\n      0x03\n      0x00\n        /* \"contracts/SimpleDEX.sol\":1685:1707  reserveA -= amountAOut */\n      dup3\n      dup3\n      sload\n      tag_92\n      swap2\n      swap1\n      tag_93\n      jump\t// in\n    tag_92:\n      swap3\n      pop\n      pop\n      dup2\n      swap1\n      sstore\n      pop\n        /* \"contracts/SimpleDEX.sol\":1730:1739  amountBIn */\n      dup2\n        /* \"contracts/SimpleDEX.sol\":1718:1726  reserveB */\n      0x04\n      0x00\n        /* \"contracts/SimpleDEX.sol\":1718:1739  reserveB += amountBIn */\n      dup3\n      dup3\n      sload\n      tag_94\n      swap2\n      swap1\n      tag_71\n      jump\t// in\n    tag_94:\n      swap3\n      pop\n      pop\n      dup2\n      swap1\n      sstore\n      pop\n        /* \"contracts/SimpleDEX.sol\":1381:1747  {... */\n      pop\n        /* \"contracts/SimpleDEX.sol\":1336:1747  function swapBforA(uint256 amountBIn) public {... */\n      pop\n      jump\t// out\n        /* \"@openzeppelin/contracts/access/Ownable.sol\":1638:1723  function owner() public view virtual returns (address) {... */\n    tag_39:\n        /* \"@openzeppelin/contracts/access/Ownable.sol\":1684:1691  address */\n      0x00\n        /* \"@openzeppelin/contracts/access/Ownable.sol\":1710:1716  _owner */\n      dup1\n      0x00\n      swap1\n      sload\n      swap1\n      0x0100\n      exp\n      swap1\n      div\n      0xffffffffffffffffffffffffffffffffffffffff\n      and\n        /* \"@openzeppelin/contracts/access/Ownable.sol\":1703:1716  return _owner */\n      swap1\n      pop\n        /* \"@openzeppelin/contracts/access/Ownable.sol\":1638:1723  function owner() public view virtual returns (address) {... */\n      swap1\n      jump\t// out\n        /* \"contracts/SimpleDEX.sol\":550:909  function addLiquidity(uint256 amountA, uint256 amountB) public {... */\n    tag_44:\n        /* \"contracts/SimpleDEX.sol\":639:645  tokenA */\n      0x01\n      0x00\n      swap1\n      sload\n      swap1\n      0x0100\n      exp\n      swap1\n      div\n      0xffffffffffffffffffffffffffffffffffffffff\n      and\n        /* \"contracts/SimpleDEX.sol\":632:659  IERC20(tokenA).transferFrom */\n      0xffffffffffffffffffffffffffffffffffffffff\n      and\n      0x23b872dd\n        /* \"contracts/SimpleDEX.sol\":660:670  msg.sender */\n      caller\n        /* \"contracts/SimpleDEX.sol\":680:684  this */\n      address\n        /* \"contracts/SimpleDEX.sol\":687:694  amountA */\n      dup6\n        /* \"contracts/SimpleDEX.sol\":632:695  IERC20(tokenA).transferFrom(msg.sender, address(this), amountA) */\n      mload(0x40)\n      dup5\n      0xffffffff\n      and\n      0xe0\n      shl\n      dup2\n      mstore\n      0x04\n      add\n      tag_97\n      swap4\n      swap3\n      swap2\n      swap1\n      tag_76\n      jump\t// in\n    tag_97:\n      0x20\n      mload(0x40)\n      dup1\n      dup4\n      sub\n      dup2\n      0x00\n      dup8\n      gas\n      call\n      iszero\n      dup1\n      iszero\n      tag_99\n      jumpi\n      returndatasize\n      0x00\n      dup1\n      returndatacopy\n      revert(0x00, returndatasize)\n    tag_99:\n      pop\n      pop\n      pop\n      pop\n      mload(0x40)\n      returndatasize\n      not(0x1f)\n      0x1f\n      dup3\n      add\n      and\n      dup3\n      add\n      dup1\n      0x40\n      mstore\n      pop\n      dup2\n      add\n      swap1\n      tag_100\n      swap2\n      swap1\n      tag_80\n      jump\t// in\n    tag_100:\n        /* \"contracts/SimpleDEX.sol\":624:726  require(IERC20(tokenA).transferFrom(msg.sender, address(this), amountA), \"Transfer of Token A failed\") */\n      tag_101\n      jumpi\n      mload(0x40)\n      0x08c379a000000000000000000000000000000000000000000000000000000000\n      dup2\n      mstore\n      0x04\n      add\n      tag_102\n      swap1\n      tag_91\n      jump\t// in\n    tag_102:\n      mload(0x40)\n      dup1\n      swap2\n      sub\n      swap1\n      revert\n    tag_101:\n        /* \"contracts/SimpleDEX.sol\":752:758  tokenB */\n      0x02\n      0x00\n      swap1\n      sload\n      swap1\n      0x0100\n      exp\n      swap1\n      div\n      0xffffffffffffffffffffffffffffffffffffffff\n      and\n        /* \"contracts/SimpleDEX.sol\":745:772  IERC20(tokenB).transferFrom */\n      0xffffffffffffffffffffffffffffffffffffffff\n      and\n      0x23b872dd\n        /* \"contracts/SimpleDEX.sol\":773:783  msg.sender */\n      caller\n        /* \"contracts/SimpleDEX.sol\":793:797  this */\n      address\n        /* \"contracts/SimpleDEX.sol\":800:807  amountB */\n      dup5\n        /* \"contracts/SimpleDEX.sol\":745:808  IERC20(tokenB).transferFrom(msg.sender, address(this), amountB) */\n      mload(0x40)\n      dup5\n      0xffffffff\n      and\n      0xe0\n      shl\n      dup2\n      mstore\n      0x04\n      add\n      tag_103\n      swap4\n      swap3\n      swap2\n      swap1\n      tag_76\n      jump\t// in\n    tag_103:\n      0x20\n      mload(0x40)\n      dup1\n      dup4\n      sub\n      dup2\n      0x00\n      dup8\n      gas\n      call\n      iszero\n      dup1\n      iszero\n      tag_105\n      jumpi\n      returndatasize\n      0x00\n      dup1\n      returndatacopy\n      revert(0x00, returndatasize)\n    tag_105:\n      pop\n      pop\n      pop\n      pop\n      mload(0x40)\n      returndatasize\n      not(0x1f)\n      0x1f\n      dup3\n      add\n      and\n      dup3\n      add\n      dup1\n      0x40\n      mstore\n      pop\n      dup2\n      add\n      swap1\n      tag_106\n      swap2\n      swap1\n      tag_80\n      jump\t// in\n    tag_106:\n        /* \"contracts/SimpleDEX.sol\":737:839  require(IERC20(tokenB).transferFrom(msg.sender, address(this), amountB), \"Transfer of Token B failed\") */\n      tag_107\n      jumpi\n      mload(0x40)\n      0x08c379a000000000000000000000000000000000000000000000000000000000\n      dup2\n      mstore\n      0x04\n      add\n      tag_108\n      swap1\n      tag_83\n      jump\t// in\n    tag_108:\n      mload(0x40)\n      dup1\n      swap2\n      sub\n      swap1\n      revert\n    tag_107:\n        /* \"contracts/SimpleDEX.sol\":864:871  amountA */\n      dup2\n        /* \"contracts/SimpleDEX.sol\":852:860  reserveA */\n      0x03\n      0x00\n        /* \"contracts/SimpleDEX.sol\":852:871  reserveA += amountA */\n      dup3\n      dup3\n      sload\n      tag_109\n      swap2\n      swap1\n      tag_71\n      jump\t// in\n    tag_109:\n      swap3\n      pop\n      pop\n      dup2\n      swap1\n      sstore\n      pop\n        /* \"contracts/SimpleDEX.sol\":894:901  amountB */\n      dup1\n        /* \"contracts/SimpleDEX.sol\":882:890  reserveB */\n      0x04\n      0x00\n        /* \"contracts/SimpleDEX.sol\":882:901  reserveB += amountB */\n      dup3\n      dup3\n      sload\n      tag_110\n      swap2\n      swap1\n      tag_71\n      jump\t// in\n    tag_110:\n      swap3\n      pop\n      pop\n      dup2\n      swap1\n      sstore\n      pop\n        /* \"contracts/SimpleDEX.sol\":550:909  function addLiquidity(uint256 amountA, uint256 amountB) public {... */\n      pop\n      pop\n      jump\t// out\n        /* \"contracts/SimpleDEX.sol\":1755:2167  function removeLiquidity(uint256 amountA, uint256 amountB) public {... */\n    tag_47:\n        /* \"contracts/SimpleDEX.sol\":1852:1859  amountA */\n      dup2\n        /* \"contracts/SimpleDEX.sol\":1840:1848  reserveA */\n      sload(0x03)\n        /* \"contracts/SimpleDEX.sol\":1840:1859  reserveA >= amountA */\n      lt\n      iszero\n        /* \"contracts/SimpleDEX.sol\":1840:1882  reserveA >= amountA && reserveB >= amountB */\n      dup1\n      iszero\n      tag_112\n      jumpi\n      pop\n        /* \"contracts/SimpleDEX.sol\":1875:1882  amountB */\n      dup1\n        /* \"contracts/SimpleDEX.sol\":1863:1871  reserveB */\n      sload(0x04)\n        /* \"contracts/SimpleDEX.sol\":1863:1882  reserveB >= amountB */\n      lt\n      iszero\n        /* \"contracts/SimpleDEX.sol\":1840:1882  reserveA >= amountA && reserveB >= amountB */\n    tag_112:\n        /* \"contracts/SimpleDEX.sol\":1832:1907  require(reserveA >= amountA && reserveB >= amountB, \"Not enough liquidity\") */\n      tag_113\n      jumpi\n      mload(0x40)\n      0x08c379a000000000000000000000000000000000000000000000000000000000\n      dup2\n      mstore\n      0x04\n      add\n      tag_114\n      swap1\n      tag_115\n      jump\t// in\n    tag_114:\n      mload(0x40)\n      dup1\n      swap2\n      sub\n      swap1\n      revert\n    tag_113:\n        /* \"contracts/SimpleDEX.sol\":1935:1941  tokenA */\n      0x01\n      0x00\n      swap1\n      sload\n      swap1\n      0x0100\n      exp\n      swap1\n      div\n      0xffffffffffffffffffffffffffffffffffffffff\n      and\n        /* \"contracts/SimpleDEX.sol\":1928:1951  IERC20(tokenA).transfer */\n      0xffffffffffffffffffffffffffffffffffffffff\n      and\n      0xa9059cbb\n        /* \"contracts/SimpleDEX.sol\":1952:1962  msg.sender */\n      caller\n        /* \"contracts/SimpleDEX.sol\":1964:1971  amountA */\n      dup5\n        /* \"contracts/SimpleDEX.sol\":1928:1972  IERC20(tokenA).transfer(msg.sender, amountA) */\n      mload(0x40)\n      dup4\n      0xffffffff\n      and\n      0xe0\n      shl\n      dup2\n      mstore\n      0x04\n      add\n      tag_116\n      swap3\n      swap2\n      swap1\n      tag_85\n      jump\t// in\n    tag_116:\n      0x20\n      mload(0x40)\n      dup1\n      dup4\n      sub\n      dup2\n      0x00\n      dup8\n      gas\n      call\n      iszero\n      dup1\n      iszero\n      tag_118\n      jumpi\n      returndatasize\n      0x00\n      dup1\n      returndatacopy\n      revert(0x00, returndatasize)\n    tag_118:\n      pop\n      pop\n      pop\n      pop\n      mload(0x40)\n      returndatasize\n      not(0x1f)\n      0x1f\n      dup3\n      add\n      and\n      dup3\n      add\n      dup1\n      0x40\n      mstore\n      pop\n      dup2\n      add\n      swap1\n      tag_119\n      swap2\n      swap1\n      tag_80\n      jump\t// in\n    tag_119:\n        /* \"contracts/SimpleDEX.sol\":1920:2003  require(IERC20(tokenA).transfer(msg.sender, amountA), \"Transfer of Token A failed\") */\n      tag_120\n      jumpi\n      mload(0x40)\n      0x08c379a000000000000000000000000000000000000000000000000000000000\n      dup2\n      mstore\n      0x04\n      add\n      tag_121\n      swap1\n      tag_91\n      jump\t// in\n    tag_121:\n      mload(0x40)\n      dup1\n      swap2\n      sub\n      swap1\n      revert\n    tag_120:\n        /* \"contracts/SimpleDEX.sol\":2029:2035  tokenB */\n      0x02\n      0x00\n      swap1\n      sload\n      swap1\n      0x0100\n      exp\n      swap1\n      div\n      0xffffffffffffffffffffffffffffffffffffffff\n      and\n        /* \"contracts/SimpleDEX.sol\":2022:2045  IERC20(tokenB).transfer */\n      0xffffffffffffffffffffffffffffffffffffffff\n      and\n      0xa9059cbb\n        /* \"contracts/SimpleDEX.sol\":2046:2056  msg.sender */\n      caller\n        /* \"contracts/SimpleDEX.sol\":2058:2065  amountB */\n      dup4\n        /* \"contracts/SimpleDEX.sol\":2022:2066  IERC20(tokenB).transfer(msg.sender, amountB) */\n      mload(0x40)\n      dup4\n      0xffffffff\n      and\n      0xe0\n      shl\n      dup2\n      mstore\n      0x04\n      add\n      tag_122\n      swap3\n      swap2\n      swap1\n      tag_85\n      jump\t// in\n    tag_122:\n      0x20\n      mload(0x40)\n      dup1\n      dup4\n      sub\n      dup2\n      0x00\n      dup8\n      gas\n      call\n      iszero\n      dup1\n      iszero\n      tag_124\n      jumpi\n      returndatasize\n      0x00\n      dup1\n      returndatacopy\n      revert(0x00, returndatasize)\n    tag_124:\n      pop\n      pop\n      pop\n      pop\n      mload(0x40)\n      returndatasize\n      not(0x1f)\n      0x1f\n      dup3\n      add\n      and\n      dup3\n      add\n      dup1\n      0x40\n      mstore\n      pop\n      dup2\n      add\n      swap1\n      tag_125\n      swap2\n      swap1\n      tag_80\n      jump\t// in\n    tag_125:\n        /* \"contracts/SimpleDEX.sol\":2014:2097  require(IERC20(tokenB).transfer(msg.sender, amountB), \"Transfer of Token B failed\") */\n      tag_126\n      jumpi\n      mload(0x40)\n      0x08c379a000000000000000000000000000000000000000000000000000000000\n      dup2\n      mstore\n      0x04\n      add\n      tag_127\n      swap1\n      tag_83\n      jump\t// in\n    tag_127:\n      mload(0x40)\n      dup1\n      swap2\n      sub\n      swap1\n      revert\n    tag_126:\n        /* \"contracts/SimpleDEX.sol\":2122:2129  amountA */\n      dup2\n        /* \"contracts/SimpleDEX.sol\":2110:2118  reserveA */\n      0x03\n      0x00\n        /* \"contracts/SimpleDEX.sol\":2110:2129  reserveA -= amountA */\n      dup3\n      dup3\n      sload\n      tag_128\n      swap2\n      swap1\n      tag_93\n      jump\t// in\n    tag_128:\n      swap3\n      pop\n      pop\n      dup2\n      swap1\n      sstore\n      pop\n        /* \"contracts/SimpleDEX.sol\":2152:2159  amountB */\n      dup1\n        /* \"contracts/SimpleDEX.sol\":2140:2148  reserveB */\n      0x04\n      0x00\n        /* \"contracts/SimpleDEX.sol\":2140:2159  reserveB -= amountB */\n      dup3\n      dup3\n      sload\n      tag_129\n      swap2\n      swap1\n      tag_93\n      jump\t// in\n    tag_129:\n      swap3\n      pop\n      pop\n      dup2\n      swap1\n      sstore\n      pop\n        /* \"contracts/SimpleDEX.sol\":1755:2167  function removeLiquidity(uint256 amountA, uint256 amountB) public {... */\n      pop\n      pop\n      jump\t// out\n        /* \"contracts/SimpleDEX.sol\":351:374  uint256 public reserveA */\n    tag_49:\n      sload(0x03)\n      dup2\n      jump\t// out\n        /* \"contracts/SimpleDEX.sol\":917:1328  function swapAforB(uint256 amountAIn) public {... */\n    tag_53:\n        /* \"contracts/SimpleDEX.sol\":973:991  uint256 amountBOut */\n      0x00\n        /* \"contracts/SimpleDEX.sol\":1031:1040  amountAIn */\n      dup2\n        /* \"contracts/SimpleDEX.sol\":1020:1028  reserveA */\n      sload(0x03)\n        /* \"contracts/SimpleDEX.sol\":1020:1040  reserveA + amountAIn */\n      tag_131\n      swap2\n      swap1\n      tag_71\n      jump\t// in\n    tag_131:\n        /* \"contracts/SimpleDEX.sol\":1007:1015  reserveB */\n      sload(0x04)\n        /* \"contracts/SimpleDEX.sol\":995:1004  amountAIn */\n      dup4\n        /* \"contracts/SimpleDEX.sol\":995:1015  amountAIn * reserveB */\n      tag_132\n      swap2\n      swap1\n      tag_73\n      jump\t// in\n    tag_132:\n        /* \"contracts/SimpleDEX.sol\":994:1041  (amountAIn * reserveB) / (reserveA + amountAIn) */\n      tag_133\n      swap2\n      swap1\n      tag_60\n      jump\t// in\n    tag_133:\n        /* \"contracts/SimpleDEX.sol\":973:1041  uint256 amountBOut = (amountAIn * reserveB) / (reserveA + amountAIn) */\n      swap1\n      pop\n        /* \"contracts/SimpleDEX.sol\":1067:1073  tokenA */\n      0x01\n      0x00\n      swap1\n      sload\n      swap1\n      0x0100\n      exp\n      swap1\n      div\n      0xffffffffffffffffffffffffffffffffffffffff\n      and\n        /* \"contracts/SimpleDEX.sol\":1060:1087  IERC20(tokenA).transferFrom */\n      0xffffffffffffffffffffffffffffffffffffffff\n      and\n      0x23b872dd\n        /* \"contracts/SimpleDEX.sol\":1088:1098  msg.sender */\n      caller\n        /* \"contracts/SimpleDEX.sol\":1108:1112  this */\n      address\n        /* \"contracts/SimpleDEX.sol\":1115:1124  amountAIn */\n      dup6\n        /* \"contracts/SimpleDEX.sol\":1060:1125  IERC20(tokenA).transferFrom(msg.sender, address(this), amountAIn) */\n      mload(0x40)\n      dup5\n      0xffffffff\n      and\n      0xe0\n      shl\n      dup2\n      mstore\n      0x04\n      add\n      tag_134\n      swap4\n      swap3\n      swap2\n      swap1\n      tag_76\n      jump\t// in\n    tag_134:\n      0x20\n      mload(0x40)\n      dup1\n      dup4\n      sub\n      dup2\n      0x00\n      dup8\n      gas\n      call\n      iszero\n      dup1\n      iszero\n      tag_136\n      jumpi\n      returndatasize\n      0x00\n      dup1\n      returndatacopy\n      revert(0x00, returndatasize)\n    tag_136:\n      pop\n      pop\n      pop\n      pop\n      mload(0x40)\n      returndatasize\n      not(0x1f)\n      0x1f\n      dup3\n      add\n      and\n      dup3\n      add\n      dup1\n      0x40\n      mstore\n      pop\n      dup2\n      add\n      swap1\n      tag_137\n      swap2\n      swap1\n      tag_80\n      jump\t// in\n    tag_137:\n        /* \"contracts/SimpleDEX.sol\":1052:1156  require(IERC20(tokenA).transferFrom(msg.sender, address(this), amountAIn), \"Transfer of Token A failed\") */\n      tag_138\n      jumpi\n      mload(0x40)\n      0x08c379a000000000000000000000000000000000000000000000000000000000\n      dup2\n      mstore\n      0x04\n      add\n      tag_139\n      swap1\n      tag_91\n      jump\t// in\n    tag_139:\n      mload(0x40)\n      dup1\n      swap2\n      sub\n      swap1\n      revert\n    tag_138:\n        /* \"contracts/SimpleDEX.sol\":1182:1188  tokenB */\n      0x02\n      0x00\n      swap1\n      sload\n      swap1\n      0x0100\n      exp\n      swap1\n      div\n      0xffffffffffffffffffffffffffffffffffffffff\n      and\n        /* \"contracts/SimpleDEX.sol\":1175:1198  IERC20(tokenB).transfer */\n      0xffffffffffffffffffffffffffffffffffffffff\n      and\n      0xa9059cbb\n        /* \"contracts/SimpleDEX.sol\":1199:1209  msg.sender */\n      caller\n        /* \"contracts/SimpleDEX.sol\":1211:1221  amountBOut */\n      dup4\n        /* \"contracts/SimpleDEX.sol\":1175:1222  IERC20(tokenB).transfer(msg.sender, amountBOut) */\n      mload(0x40)\n      dup4\n      0xffffffff\n      and\n      0xe0\n      shl\n      dup2\n      mstore\n      0x04\n      add\n      tag_140\n      swap3\n      swap2\n      swap1\n      tag_85\n      jump\t// in\n    tag_140:\n      0x20\n      mload(0x40)\n      dup1\n      dup4\n      sub\n      dup2\n      0x00\n      dup8\n      gas\n      call\n      iszero\n      dup1\n      iszero\n      tag_142\n      jumpi\n      returndatasize\n      0x00\n      dup1\n      returndatacopy\n      revert(0x00, returndatasize)\n    tag_142:\n      pop\n      pop\n      pop\n      pop\n      mload(0x40)\n      returndatasize\n      not(0x1f)\n      0x1f\n      dup3\n      add\n      and\n      dup3\n      add\n      dup1\n      0x40\n      mstore\n      pop\n      dup2\n      add\n      swap1\n      tag_143\n      swap2\n      swap1\n      tag_80\n      jump\t// in\n    tag_143:\n        /* \"contracts/SimpleDEX.sol\":1167:1253  require(IERC20(tokenB).transfer(msg.sender, amountBOut), \"Transfer of Token B failed\") */\n      tag_144\n      jumpi\n      mload(0x40)\n      0x08c379a000000000000000000000000000000000000000000000000000000000\n      dup2\n      mstore\n      0x04\n      add\n      tag_145\n      swap1\n      tag_83\n      jump\t// in\n    tag_145:\n      mload(0x40)\n      dup1\n      swap2\n      sub\n      swap1\n      revert\n    tag_144:\n        /* \"contracts/SimpleDEX.sol\":1278:1287  amountAIn */\n      dup2\n        /* \"contracts/SimpleDEX.sol\":1266:1274  reserveA */\n      0x03\n      0x00\n        /* \"contracts/SimpleDEX.sol\":1266:1287  reserveA += amountAIn */\n      dup3\n      dup3\n      sload\n      tag_146\n      swap2\n      swap1\n      tag_71\n      jump\t// in\n    tag_146:\n      swap3\n      pop\n      pop\n      dup2\n      swap1\n      sstore\n      pop\n        /* \"contracts/SimpleDEX.sol\":1310:1320  amountBOut */\n      dup1\n        /* \"contracts/SimpleDEX.sol\":1298:1306  reserveB */\n      0x04\n      0x00\n        /* \"contracts/SimpleDEX.sol\":1298:1320  reserveB -= amountBOut */\n      dup3\n      dup3\n      sload\n      tag_147\n      swap2\n      swap1\n      tag_93\n      jump\t// in\n    tag_147:\n      swap3\n      pop\n      pop\n      dup2\n      swap1\n      sstore\n      pop\n        /* \"contracts/SimpleDEX.sol\":962:1328  {... */\n      pop\n        /* \"contracts/SimpleDEX.sol\":917:1328  function swapAforB(uint256 amountAIn) public {... */\n      pop\n      jump\t// out\n        /* \"@openzeppelin/contracts/access/Ownable.sol\":2543:2758  function transferOwnership(address newOwner) public virtual onlyOwner {... */\n    tag_56:\n        /* \"@openzeppelin/contracts/access/Ownable.sol\":1531:1544  _checkOwner() */\n      tag_149\n        /* \"@openzeppelin/contracts/access/Ownable.sol\":1531:1542  _checkOwner */\n      tag_65\n        /* \"@openzeppelin/contracts/access/Ownable.sol\":1531:1544  _checkOwner() */\n      jump\t// in\n    tag_149:\n        /* \"@openzeppelin/contracts/access/Ownable.sol\":2647:2648  0 */\n      0x00\n        /* \"@openzeppelin/contracts/access/Ownable.sol\":2627:2649  newOwner == address(0) */\n      0xffffffffffffffffffffffffffffffffffffffff\n      and\n        /* \"@openzeppelin/contracts/access/Ownable.sol\":2627:2635  newOwner */\n      dup2\n        /* \"@openzeppelin/contracts/access/Ownable.sol\":2627:2649  newOwner == address(0) */\n      0xffffffffffffffffffffffffffffffffffffffff\n      and\n      sub\n        /* \"@openzeppelin/contracts/access/Ownable.sol\":2623:2714  if (newOwner == address(0)) {... */\n      tag_151\n      jumpi\n        /* \"@openzeppelin/contracts/access/Ownable.sol\":2700:2701  0 */\n      0x00\n        /* \"@openzeppelin/contracts/access/Ownable.sol\":2672:2703  OwnableInvalidOwner(address(0)) */\n      mload(0x40)\n      0x1e4fbdf700000000000000000000000000000000000000000000000000000000\n      dup2\n      mstore\n      0x04\n      add\n      tag_152\n      swap2\n      swap1\n      tag_19\n      jump\t// in\n    tag_152:\n      mload(0x40)\n      dup1\n      swap2\n      sub\n      swap1\n      revert\n        /* \"@openzeppelin/contracts/access/Ownable.sol\":2623:2714  if (newOwner == address(0)) {... */\n    tag_151:\n        /* \"@openzeppelin/contracts/access/Ownable.sol\":2723:2751  _transferOwnership(newOwner) */\n      tag_153\n        /* \"@openzeppelin/contracts/access/Ownable.sol\":2742:2750  newOwner */\n      dup2\n        /* \"@openzeppelin/contracts/access/Ownable.sol\":2723:2741  _transferOwnership */\n      tag_68\n        /* \"@openzeppelin/contracts/access/Ownable.sol\":2723:2751  _transferOwnership(newOwner) */\n      jump\t// in\n    tag_153:\n        /* \"@openzeppelin/contracts/access/Ownable.sol\":2543:2758  function transferOwnership(address newOwner) public virtual onlyOwner {... */\n      pop\n      jump\t// out\n        /* \"@openzeppelin/contracts/access/Ownable.sol\":1796:1958  function _checkOwner() internal view virtual {... */\n    tag_65:\n        /* \"@openzeppelin/contracts/access/Ownable.sol\":1866:1878  _msgSender() */\n      tag_155\n        /* \"@openzeppelin/contracts/access/Ownable.sol\":1866:1876  _msgSender */\n      tag_156\n        /* \"@openzeppelin/contracts/access/Ownable.sol\":1866:1878  _msgSender() */\n      jump\t// in\n    tag_155:\n        /* \"@openzeppelin/contracts/access/Ownable.sol\":1855:1878  owner() != _msgSender() */\n      0xffffffffffffffffffffffffffffffffffffffff\n      and\n        /* \"@openzeppelin/contracts/access/Ownable.sol\":1855:1862  owner() */\n      tag_157\n        /* \"@openzeppelin/contracts/access/Ownable.sol\":1855:1860  owner */\n      tag_39\n        /* \"@openzeppelin/contracts/access/Ownable.sol\":1855:1862  owner() */\n      jump\t// in\n    tag_157:\n        /* \"@openzeppelin/contracts/access/Ownable.sol\":1855:1878  owner() != _msgSender() */\n      0xffffffffffffffffffffffffffffffffffffffff\n      and\n      eq\n        /* \"@openzeppelin/contracts/access/Ownable.sol\":1851:1952  if (owner() != _msgSender()) {... */\n      tag_158\n      jumpi\n        /* \"@openzeppelin/contracts/access/Ownable.sol\":1928:1940  _msgSender() */\n      tag_159\n        /* \"@openzeppelin/contracts/access/Ownable.sol\":1928:1938  _msgSender */\n      tag_156\n        /* \"@openzeppelin/contracts/access/Ownable.sol\":1928:1940  _msgSender() */\n      jump\t// in\n    tag_159:\n        /* \"@openzeppelin/contracts/access/Ownable.sol\":1901:1941  OwnableUnauthorizedAccount(_msgSender()) */\n      mload(0x40)\n      0x118cdaa700000000000000000000000000000000000000000000000000000000\n      dup2\n      mstore\n      0x04\n      add\n      tag_160\n      swap2\n      swap1\n      tag_19\n      jump\t// in\n    tag_160:\n      mload(0x40)\n      dup1\n      swap2\n      sub\n      swap1\n      revert\n        /* \"@openzeppelin/contracts/access/Ownable.sol\":1851:1952  if (owner() != _msgSender()) {... */\n    tag_158:\n        /* \"@openzeppelin/contracts/access/Ownable.sol\":1796:1958  function _checkOwner() internal view virtual {... */\n      jump\t// out\n        /* \"@openzeppelin/contracts/access/Ownable.sol\":2912:3099  function _transferOwnership(address newOwner) internal virtual {... */\n    tag_68:\n        /* \"@openzeppelin/contracts/access/Ownable.sol\":2985:3001  address oldOwner */\n      0x00\n        /* \"@openzeppelin/contracts/access/Ownable.sol\":3004:3010  _owner */\n      dup1\n      0x00\n      swap1\n      sload\n      swap1\n      0x0100\n      exp\n      swap1\n      div\n      0xffffffffffffffffffffffffffffffffffffffff\n      and\n        /* \"@openzeppelin/contracts/access/Ownable.sol\":2985:3010  address oldOwner = _owner */\n      swap1\n      pop\n        /* \"@openzeppelin/contracts/access/Ownable.sol\":3029:3037  newOwner */\n      dup2\n        /* \"@openzeppelin/contracts/access/Ownable.sol\":3020:3026  _owner */\n      0x00\n      dup1\n        /* \"@openzeppelin/contracts/access/Ownable.sol\":3020:3037  _owner = newOwner */\n      0x0100\n      exp\n      dup2\n      sload\n      dup2\n      0xffffffffffffffffffffffffffffffffffffffff\n      mul\n      not\n      and\n      swap1\n      dup4\n      0xffffffffffffffffffffffffffffffffffffffff\n      and\n      mul\n      or\n      swap1\n      sstore\n      pop\n        /* \"@openzeppelin/contracts/access/Ownable.sol\":3083:3091  newOwner */\n      dup2\n        /* \"@openzeppelin/contracts/access/Ownable.sol\":3052:3092  OwnershipTransferred(oldOwner, newOwner) */\n      0xffffffffffffffffffffffffffffffffffffffff\n      and\n        /* \"@openzeppelin/contracts/access/Ownable.sol\":3073:3081  oldOwner */\n      dup2\n        /* \"@openzeppelin/contracts/access/Ownable.sol\":3052:3092  OwnershipTransferred(oldOwner, newOwner) */\n      0xffffffffffffffffffffffffffffffffffffffff\n      and\n      0x8be0079c531659141344cd1fd0a4f28419497f9722a3daafe3b4186f6b6457e0\n      mload(0x40)\n      mload(0x40)\n      dup1\n      swap2\n      sub\n      swap1\n      log3\n        /* \"@openzeppelin/contracts/access/Ownable.sol\":2975:3099  {... */\n      pop\n        /* \"@openzeppelin/contracts/access/Ownable.sol\":2912:3099  function _transferOwnership(address newOwner) internal virtual {... */\n      pop\n      jump\t// out\n        /* \"@openzeppelin/contracts/utils/Context.sol\":656:752  function _msgSender() internal view virtual returns (address) {... */\n    tag_156:\n        /* \"@openzeppelin/contracts/utils/Context.sol\":709:716  address */\n      0x00\n        /* \"@openzeppelin/contracts/utils/Context.sol\":735:745  msg.sender */\n      caller\n        /* \"@openzeppelin/contracts/utils/Context.sol\":728:745  return msg.sender */\n      swap1\n      pop\n        /* \"@openzeppelin/contracts/utils/Context.sol\":656:752  function _msgSender() internal view virtual returns (address) {... */\n      swap1\n      jump\t// out\n        /* \"#utility.yul\":7:133   */\n    tag_163:\n        /* \"#utility.yul\":44:51   */\n      0x00\n        /* \"#utility.yul\":84:126   */\n      0xffffffffffffffffffffffffffffffffffffffff\n        /* \"#utility.yul\":77:82   */\n      dup3\n        /* \"#utility.yul\":73:127   */\n      and\n        /* \"#utility.yul\":62:127   */\n      swap1\n      pop\n        /* \"#utility.yul\":7:133   */\n      swap2\n      swap1\n      pop\n      jump\t// out\n        /* \"#utility.yul\":139:235   */\n    tag_164:\n        /* \"#utility.yul\":176:183   */\n      0x00\n        /* \"#utility.yul\":205:229   */\n      tag_190\n        /* \"#utility.yul\":223:228   */\n      dup3\n        /* \"#utility.yul\":205:229   */\n      tag_163\n      jump\t// in\n    tag_190:\n        /* \"#utility.yul\":194:229   */\n      swap1\n      pop\n        /* \"#utility.yul\":139:235   */\n      swap2\n      swap1\n      pop\n      jump\t// out\n        /* \"#utility.yul\":241:359   */\n    tag_165:\n        /* \"#utility.yul\":328:352   */\n      tag_192\n        /* \"#utility.yul\":346:351   */\n      dup2\n        /* \"#utility.yul\":328:352   */\n      tag_164\n      jump\t// in\n    tag_192:\n        /* \"#utility.yul\":323:326   */\n      dup3\n        /* \"#utility.yul\":316:353   */\n      mstore\n        /* \"#utility.yul\":241:359   */\n      pop\n      pop\n      jump\t// out\n        /* \"#utility.yul\":365:587   */\n    tag_19:\n        /* \"#utility.yul\":458:462   */\n      0x00\n        /* \"#utility.yul\":496:498   */\n      0x20\n        /* \"#utility.yul\":485:494   */\n      dup3\n        /* \"#utility.yul\":481:499   */\n      add\n        /* \"#utility.yul\":473:499   */\n      swap1\n      pop\n        /* \"#utility.yul\":509:580   */\n      tag_194\n        /* \"#utility.yul\":577:578   */\n      0x00\n        /* \"#utility.yul\":566:575   */\n      dup4\n        /* \"#utility.yul\":562:579   */\n      add\n        /* \"#utility.yul\":553:559   */\n      dup5\n        /* \"#utility.yul\":509:580   */\n      tag_165\n      jump\t// in\n    tag_194:\n        /* \"#utility.yul\":365:587   */\n      swap3\n      swap2\n      pop\n      pop\n      jump\t// out\n        /* \"#utility.yul\":593:670   */\n    tag_166:\n        /* \"#utility.yul\":630:637   */\n      0x00\n        /* \"#utility.yul\":659:664   */\n      dup2\n        /* \"#utility.yul\":648:664   */\n      swap1\n      pop\n        /* \"#utility.yul\":593:670   */\n      swap2\n      swap1\n      pop\n      jump\t// out\n        /* \"#utility.yul\":676:794   */\n    tag_167:\n        /* \"#utility.yul\":763:787   */\n      tag_197\n        /* \"#utility.yul\":781:786   */\n      dup2\n        /* \"#utility.yul\":763:787   */\n      tag_166\n      jump\t// in\n    tag_197:\n        /* \"#utility.yul\":758:761   */\n      dup3\n        /* \"#utility.yul\":751:788   */\n      mstore\n        /* \"#utility.yul\":676:794   */\n      pop\n      pop\n      jump\t// out\n        /* \"#utility.yul\":800:1022   */\n    tag_23:\n        /* \"#utility.yul\":893:897   */\n      0x00\n        /* \"#utility.yul\":931:933   */\n      0x20\n        /* \"#utility.yul\":920:929   */\n      dup3\n        /* \"#utility.yul\":916:934   */\n      add\n        /* \"#utility.yul\":908:934   */\n      swap1\n      pop\n        /* \"#utility.yul\":944:1015   */\n      tag_199\n        /* \"#utility.yul\":1012:1013   */\n      0x00\n        /* \"#utility.yul\":1001:1010   */\n      dup4\n        /* \"#utility.yul\":997:1014   */\n      add\n        /* \"#utility.yul\":988:994   */\n      dup5\n        /* \"#utility.yul\":944:1015   */\n      tag_167\n      jump\t// in\n    tag_199:\n        /* \"#utility.yul\":800:1022   */\n      swap3\n      swap2\n      pop\n      pop\n      jump\t// out\n        /* \"#utility.yul\":1109:1226   */\n    tag_169:\n        /* \"#utility.yul\":1218:1219   */\n      0x00\n        /* \"#utility.yul\":1215:1216   */\n      dup1\n        /* \"#utility.yul\":1208:1220   */\n      revert\n        /* \"#utility.yul\":1355:1477   */\n    tag_171:\n        /* \"#utility.yul\":1428:1452   */\n      tag_204\n        /* \"#utility.yul\":1446:1451   */\n      dup2\n        /* \"#utility.yul\":1428:1452   */\n      tag_164\n      jump\t// in\n    tag_204:\n        /* \"#utility.yul\":1421:1426   */\n      dup2\n        /* \"#utility.yul\":1418:1453   */\n      eq\n        /* \"#utility.yul\":1408:1471   */\n      tag_205\n      jumpi\n        /* \"#utility.yul\":1467:1468   */\n      0x00\n        /* \"#utility.yul\":1464:1465   */\n      dup1\n        /* \"#utility.yul\":1457:1469   */\n      revert\n        /* \"#utility.yul\":1408:1471   */\n    tag_205:\n        /* \"#utility.yul\":1355:1477   */\n      pop\n      jump\t// out\n        /* \"#utility.yul\":1483:1622   */\n    tag_172:\n        /* \"#utility.yul\":1529:1534   */\n      0x00\n        /* \"#utility.yul\":1567:1573   */\n      dup2\n        /* \"#utility.yul\":1554:1574   */\n      calldataload\n        /* \"#utility.yul\":1545:1574   */\n      swap1\n      pop\n        /* \"#utility.yul\":1583:1616   */\n      tag_207\n        /* \"#utility.yul\":1610:1615   */\n      dup2\n        /* \"#utility.yul\":1583:1616   */\n      tag_171\n      jump\t// in\n    tag_207:\n        /* \"#utility.yul\":1483:1622   */\n      swap3\n      swap2\n      pop\n      pop\n      jump\t// out\n        /* \"#utility.yul\":1628:1957   */\n    tag_26:\n        /* \"#utility.yul\":1687:1693   */\n      0x00\n        /* \"#utility.yul\":1736:1738   */\n      0x20\n        /* \"#utility.yul\":1724:1733   */\n      dup3\n        /* \"#utility.yul\":1715:1722   */\n      dup5\n        /* \"#utility.yul\":1711:1734   */\n      sub\n        /* \"#utility.yul\":1707:1739   */\n      slt\n        /* \"#utility.yul\":1704:1823   */\n      iszero\n      tag_209\n      jumpi\n        /* \"#utility.yul\":1742:1821   */\n      tag_210\n      tag_169\n      jump\t// in\n    tag_210:\n        /* \"#utility.yul\":1704:1823   */\n    tag_209:\n        /* \"#utility.yul\":1862:1863   */\n      0x00\n        /* \"#utility.yul\":1887:1940   */\n      tag_211\n        /* \"#utility.yul\":1932:1939   */\n      dup5\n        /* \"#utility.yul\":1923:1929   */\n      dup3\n        /* \"#utility.yul\":1912:1921   */\n      dup6\n        /* \"#utility.yul\":1908:1930   */\n      add\n        /* \"#utility.yul\":1887:1940   */\n      tag_172\n      jump\t// in\n    tag_211:\n        /* \"#utility.yul\":1877:1940   */\n      swap2\n      pop\n        /* \"#utility.yul\":1833:1950   */\n      pop\n        /* \"#utility.yul\":1628:1957   */\n      swap3\n      swap2\n      pop\n      pop\n      jump\t// out\n        /* \"#utility.yul\":1963:2085   */\n    tag_173:\n        /* \"#utility.yul\":2036:2060   */\n      tag_213\n        /* \"#utility.yul\":2054:2059   */\n      dup2\n        /* \"#utility.yul\":2036:2060   */\n      tag_166\n      jump\t// in\n    tag_213:\n        /* \"#utility.yul\":2029:2034   */\n      dup2\n        /* \"#utility.yul\":2026:2061   */\n      eq\n        /* \"#utility.yul\":2016:2079   */\n      tag_214\n      jumpi\n        /* \"#utility.yul\":2075:2076   */\n      0x00\n        /* \"#utility.yul\":2072:2073   */\n      dup1\n        /* \"#utility.yul\":2065:2077   */\n      revert\n        /* \"#utility.yul\":2016:2079   */\n    tag_214:\n        /* \"#utility.yul\":1963:2085   */\n      pop\n      jump\t// out\n        /* \"#utility.yul\":2091:2230   */\n    tag_174:\n        /* \"#utility.yul\":2137:2142   */\n      0x00\n        /* \"#utility.yul\":2175:2181   */\n      dup2\n        /* \"#utility.yul\":2162:2182   */\n      calldataload\n        /* \"#utility.yul\":2153:2182   */\n      swap1\n      pop\n        /* \"#utility.yul\":2191:2224   */\n      tag_216\n        /* \"#utility.yul\":2218:2223   */\n      dup2\n        /* \"#utility.yul\":2191:2224   */\n      tag_173\n      jump\t// in\n    tag_216:\n        /* \"#utility.yul\":2091:2230   */\n      swap3\n      swap2\n      pop\n      pop\n      jump\t// out\n        /* \"#utility.yul\":2236:2565   */\n    tag_36:\n        /* \"#utility.yul\":2295:2301   */\n      0x00\n        /* \"#utility.yul\":2344:2346   */\n      0x20\n        /* \"#utility.yul\":2332:2341   */\n      dup3\n        /* \"#utility.yul\":2323:2330   */\n      dup5\n        /* \"#utility.yul\":2319:2342   */\n      sub\n        /* \"#utility.yul\":2315:2347   */\n      slt\n        /* \"#utility.yul\":2312:2431   */\n      iszero\n      tag_218\n      jumpi\n        /* \"#utility.yul\":2350:2429   */\n      tag_219\n      tag_169\n      jump\t// in\n    tag_219:\n        /* \"#utility.yul\":2312:2431   */\n    tag_218:\n        /* \"#utility.yul\":2470:2471   */\n      0x00\n        /* \"#utility.yul\":2495:2548   */\n      tag_220\n        /* \"#utility.yul\":2540:2547   */\n      dup5\n        /* \"#utility.yul\":2531:2537   */\n      dup3\n        /* \"#utility.yul\":2520:2529   */\n      dup6\n        /* \"#utility.yul\":2516:2538   */\n      add\n        /* \"#utility.yul\":2495:2548   */\n      tag_174\n      jump\t// in\n    tag_220:\n        /* \"#utility.yul\":2485:2548   */\n      swap2\n      pop\n        /* \"#utility.yul\":2441:2558   */\n      pop\n        /* \"#utility.yul\":2236:2565   */\n      swap3\n      swap2\n      pop\n      pop\n      jump\t// out\n        /* \"#utility.yul\":2571:3045   */\n    tag_43:\n        /* \"#utility.yul\":2639:2645   */\n      0x00\n        /* \"#utility.yul\":2647:2653   */\n      dup1\n        /* \"#utility.yul\":2696:2698   */\n      0x40\n        /* \"#utility.yul\":2684:2693   */\n      dup4\n        /* \"#utility.yul\":2675:2682   */\n      dup6\n        /* \"#utility.yul\":2671:2694   */\n      sub\n        /* \"#utility.yul\":2667:2699   */\n      slt\n        /* \"#utility.yul\":2664:2783   */\n      iszero\n      tag_222\n      jumpi\n        /* \"#utility.yul\":2702:2781   */\n      tag_223\n      tag_169\n      jump\t// in\n    tag_223:\n        /* \"#utility.yul\":2664:2783   */\n    tag_222:\n        /* \"#utility.yul\":2822:2823   */\n      0x00\n        /* \"#utility.yul\":2847:2900   */\n      tag_224\n        /* \"#utility.yul\":2892:2899   */\n      dup6\n        /* \"#utility.yul\":2883:2889   */\n      dup3\n        /* \"#utility.yul\":2872:2881   */\n      dup7\n        /* \"#utility.yul\":2868:2890   */\n      add\n        /* \"#utility.yul\":2847:2900   */\n      tag_174\n      jump\t// in\n    tag_224:\n        /* \"#utility.yul\":2837:2900   */\n      swap3\n      pop\n        /* \"#utility.yul\":2793:2910   */\n      pop\n        /* \"#utility.yul\":2949:2951   */\n      0x20\n        /* \"#utility.yul\":2975:3028   */\n      tag_225\n        /* \"#utility.yul\":3020:3027   */\n      dup6\n        /* \"#utility.yul\":3011:3017   */\n      dup3\n        /* \"#utility.yul\":3000:3009   */\n      dup7\n        /* \"#utility.yul\":2996:3018   */\n      add\n        /* \"#utility.yul\":2975:3028   */\n      tag_174\n      jump\t// in\n    tag_225:\n        /* \"#utility.yul\":2965:3028   */\n      swap2\n      pop\n        /* \"#utility.yul\":2920:3038   */\n      pop\n        /* \"#utility.yul\":2571:3045   */\n      swap3\n      pop\n      swap3\n      swap1\n      pop\n      jump\t// out\n        /* \"#utility.yul\":3051:3231   */\n    tag_175:\n        /* \"#utility.yul\":3099:3176   */\n      0x4e487b7100000000000000000000000000000000000000000000000000000000\n        /* \"#utility.yul\":3096:3097   */\n      0x00\n        /* \"#utility.yul\":3089:3177   */\n      mstore\n        /* \"#utility.yul\":3196:3200   */\n      0x12\n        /* \"#utility.yul\":3193:3194   */\n      0x04\n        /* \"#utility.yul\":3186:3201   */\n      mstore\n        /* \"#utility.yul\":3220:3224   */\n      0x24\n        /* \"#utility.yul\":3217:3218   */\n      0x00\n        /* \"#utility.yul\":3210:3225   */\n      revert\n        /* \"#utility.yul\":3237:3417   */\n    tag_176:\n        /* \"#utility.yul\":3285:3362   */\n      0x4e487b7100000000000000000000000000000000000000000000000000000000\n        /* \"#utility.yul\":3282:3283   */\n      0x00\n        /* \"#utility.yul\":3275:3363   */\n      mstore\n        /* \"#utility.yul\":3382:3386   */\n      0x11\n        /* \"#utility.yul\":3379:3380   */\n      0x04\n        /* \"#utility.yul\":3372:3387   */\n      mstore\n        /* \"#utility.yul\":3406:3410   */\n      0x24\n        /* \"#utility.yul\":3403:3404   */\n      0x00\n        /* \"#utility.yul\":3396:3411   */\n      revert\n        /* \"#utility.yul\":3423:3608   */\n    tag_60:\n        /* \"#utility.yul\":3463:3464   */\n      0x00\n        /* \"#utility.yul\":3480:3500   */\n      tag_229\n        /* \"#utility.yul\":3498:3499   */\n      dup3\n        /* \"#utility.yul\":3480:3500   */\n      tag_166\n      jump\t// in\n    tag_229:\n        /* \"#utility.yul\":3475:3500   */\n      swap2\n      pop\n        /* \"#utility.yul\":3514:3534   */\n      tag_230\n        /* \"#utility.yul\":3532:3533   */\n      dup4\n        /* \"#utility.yul\":3514:3534   */\n      tag_166\n      jump\t// in\n    tag_230:\n        /* \"#utility.yul\":3509:3534   */\n      swap3\n      pop\n        /* \"#utility.yul\":3553:3554   */\n      dup3\n        /* \"#utility.yul\":3543:3578   */\n      tag_231\n      jumpi\n        /* \"#utility.yul\":3558:3576   */\n      tag_232\n      tag_175\n      jump\t// in\n    tag_232:\n        /* \"#utility.yul\":3543:3578   */\n    tag_231:\n        /* \"#utility.yul\":3600:3601   */\n      dup3\n        /* \"#utility.yul\":3597:3598   */\n      dup3\n        /* \"#utility.yul\":3593:3602   */\n      div\n        /* \"#utility.yul\":3588:3602   */\n      swap1\n      pop\n        /* \"#utility.yul\":3423:3608   */\n      swap3\n      swap2\n      pop\n      pop\n      jump\t// out\n        /* \"#utility.yul\":3614:3805   */\n    tag_71:\n        /* \"#utility.yul\":3654:3657   */\n      0x00\n        /* \"#utility.yul\":3673:3693   */\n      tag_234\n        /* \"#utility.yul\":3691:3692   */\n      dup3\n        /* \"#utility.yul\":3673:3693   */\n      tag_166\n      jump\t// in\n    tag_234:\n        /* \"#utility.yul\":3668:3693   */\n      swap2\n      pop\n        /* \"#utility.yul\":3707:3727   */\n      tag_235\n        /* \"#utility.yul\":3725:3726   */\n      dup4\n        /* \"#utility.yul\":3707:3727   */\n      tag_166\n      jump\t// in\n    tag_235:\n        /* \"#utility.yul\":3702:3727   */\n      swap3\n      pop\n        /* \"#utility.yul\":3750:3751   */\n      dup3\n        /* \"#utility.yul\":3747:3748   */\n      dup3\n        /* \"#utility.yul\":3743:3752   */\n      add\n        /* \"#utility.yul\":3736:3752   */\n      swap1\n      pop\n        /* \"#utility.yul\":3771:3774   */\n      dup1\n        /* \"#utility.yul\":3768:3769   */\n      dup3\n        /* \"#utility.yul\":3765:3775   */\n      gt\n        /* \"#utility.yul\":3762:3798   */\n      iszero\n      tag_236\n      jumpi\n        /* \"#utility.yul\":3778:3796   */\n      tag_237\n      tag_176\n      jump\t// in\n    tag_237:\n        /* \"#utility.yul\":3762:3798   */\n    tag_236:\n        /* \"#utility.yul\":3614:3805   */\n      swap3\n      swap2\n      pop\n      pop\n      jump\t// out\n        /* \"#utility.yul\":3811:4221   */\n    tag_73:\n        /* \"#utility.yul\":3851:3858   */\n      0x00\n        /* \"#utility.yul\":3874:3894   */\n      tag_239\n        /* \"#utility.yul\":3892:3893   */\n      dup3\n        /* \"#utility.yul\":3874:3894   */\n      tag_166\n      jump\t// in\n    tag_239:\n        /* \"#utility.yul\":3869:3894   */\n      swap2\n      pop\n        /* \"#utility.yul\":3908:3928   */\n      tag_240\n        /* \"#utility.yul\":3926:3927   */\n      dup4\n        /* \"#utility.yul\":3908:3928   */\n      tag_166\n      jump\t// in\n    tag_240:\n        /* \"#utility.yul\":3903:3928   */\n      swap3\n      pop\n        /* \"#utility.yul\":3963:3964   */\n      dup3\n        /* \"#utility.yul\":3960:3961   */\n      dup3\n        /* \"#utility.yul\":3956:3965   */\n      mul\n        /* \"#utility.yul\":3985:4015   */\n      tag_241\n        /* \"#utility.yul\":4003:4014   */\n      dup2\n        /* \"#utility.yul\":3985:4015   */\n      tag_166\n      jump\t// in\n    tag_241:\n        /* \"#utility.yul\":3974:4015   */\n      swap2\n      pop\n        /* \"#utility.yul\":4164:4165   */\n      dup3\n        /* \"#utility.yul\":4155:4162   */\n      dup3\n        /* \"#utility.yul\":4151:4166   */\n      div\n        /* \"#utility.yul\":4148:4149   */\n      dup5\n        /* \"#utility.yul\":4145:4167   */\n      eq\n        /* \"#utility.yul\":4125:4126   */\n      dup4\n        /* \"#utility.yul\":4118:4127   */\n      iszero\n        /* \"#utility.yul\":4098:4181   */\n      or\n        /* \"#utility.yul\":4075:4214   */\n      tag_242\n      jumpi\n        /* \"#utility.yul\":4194:4212   */\n      tag_243\n      tag_176\n      jump\t// in\n    tag_243:\n        /* \"#utility.yul\":4075:4214   */\n    tag_242:\n        /* \"#utility.yul\":3859:4221   */\n      pop\n        /* \"#utility.yul\":3811:4221   */\n      swap3\n      swap2\n      pop\n      pop\n      jump\t// out\n        /* \"#utility.yul\":4227:4669   */\n    tag_76:\n        /* \"#utility.yul\":4376:4380   */\n      0x00\n        /* \"#utility.yul\":4414:4416   */\n      0x60\n        /* \"#utility.yul\":4403:4412   */\n      dup3\n        /* \"#utility.yul\":4399:4417   */\n      add\n        /* \"#utility.yul\":4391:4417   */\n      swap1\n      pop\n        /* \"#utility.yul\":4427:4498   */\n      tag_245\n        /* \"#utility.yul\":4495:4496   */\n      0x00\n        /* \"#utility.yul\":4484:4493   */\n      dup4\n        /* \"#utility.yul\":4480:4497   */\n      add\n        /* \"#utility.yul\":4471:4477   */\n      dup7\n        /* \"#utility.yul\":4427:4498   */\n      tag_165\n      jump\t// in\n    tag_245:\n        /* \"#utility.yul\":4508:4580   */\n      tag_246\n        /* \"#utility.yul\":4576:4578   */\n      0x20\n        /* \"#utility.yul\":4565:4574   */\n      dup4\n        /* \"#utility.yul\":4561:4579   */\n      add\n        /* \"#utility.yul\":4552:4558   */\n      dup6\n        /* \"#utility.yul\":4508:4580   */\n      tag_165\n      jump\t// in\n    tag_246:\n        /* \"#utility.yul\":4590:4662   */\n      tag_247\n        /* \"#utility.yul\":4658:4660   */\n      0x40\n        /* \"#utility.yul\":4647:4656   */\n      dup4\n        /* \"#utility.yul\":4643:4661   */\n      add\n        /* \"#utility.yul\":4634:4640   */\n      dup5\n        /* \"#utility.yul\":4590:4662   */\n      tag_167\n      jump\t// in\n    tag_247:\n        /* \"#utility.yul\":4227:4669   */\n      swap5\n      swap4\n      pop\n      pop\n      pop\n      pop\n      jump\t// out\n        /* \"#utility.yul\":4675:4765   */\n    tag_177:\n        /* \"#utility.yul\":4709:4716   */\n      0x00\n        /* \"#utility.yul\":4752:4757   */\n      dup2\n        /* \"#utility.yul\":4745:4758   */\n      iszero\n        /* \"#utility.yul\":4738:4759   */\n      iszero\n        /* \"#utility.yul\":4727:4759   */\n      swap1\n      pop\n        /* \"#utility.yul\":4675:4765   */\n      swap2\n      swap1\n      pop\n      jump\t// out\n        /* \"#utility.yul\":4771:4887   */\n    tag_178:\n        /* \"#utility.yul\":4841:4862   */\n      tag_250\n        /* \"#utility.yul\":4856:4861   */\n      dup2\n        /* \"#utility.yul\":4841:4862   */\n      tag_177\n      jump\t// in\n    tag_250:\n        /* \"#utility.yul\":4834:4839   */\n      dup2\n        /* \"#utility.yul\":4831:4863   */\n      eq\n        /* \"#utility.yul\":4821:4881   */\n      tag_251\n      jumpi\n        /* \"#utility.yul\":4877:4878   */\n      0x00\n        /* \"#utility.yul\":4874:4875   */\n      dup1\n        /* \"#utility.yul\":4867:4879   */\n      revert\n        /* \"#utility.yul\":4821:4881   */\n    tag_251:\n        /* \"#utility.yul\":4771:4887   */\n      pop\n      jump\t// out\n        /* \"#utility.yul\":4893:5030   */\n    tag_179:\n        /* \"#utility.yul\":4947:4952   */\n      0x00\n        /* \"#utility.yul\":4978:4984   */\n      dup2\n        /* \"#utility.yul\":4972:4985   */\n      mload\n        /* \"#utility.yul\":4963:4985   */\n      swap1\n      pop\n        /* \"#utility.yul\":4994:5024   */\n      tag_253\n        /* \"#utility.yul\":5018:5023   */\n      dup2\n        /* \"#utility.yul\":4994:5024   */\n      tag_178\n      jump\t// in\n    tag_253:\n        /* \"#utility.yul\":4893:5030   */\n      swap3\n      swap2\n      pop\n      pop\n      jump\t// out\n        /* \"#utility.yul\":5036:5381   */\n    tag_80:\n        /* \"#utility.yul\":5103:5109   */\n      0x00\n        /* \"#utility.yul\":5152:5154   */\n      0x20\n        /* \"#utility.yul\":5140:5149   */\n      dup3\n        /* \"#utility.yul\":5131:5138   */\n      dup5\n        /* \"#utility.yul\":5127:5150   */\n      sub\n        /* \"#utility.yul\":5123:5155   */\n      slt\n        /* \"#utility.yul\":5120:5239   */\n      iszero\n      tag_255\n      jumpi\n        /* \"#utility.yul\":5158:5237   */\n      tag_256\n      tag_169\n      jump\t// in\n    tag_256:\n        /* \"#utility.yul\":5120:5239   */\n    tag_255:\n        /* \"#utility.yul\":5278:5279   */\n      0x00\n        /* \"#utility.yul\":5303:5364   */\n      tag_257\n        /* \"#utility.yul\":5356:5363   */\n      dup5\n        /* \"#utility.yul\":5347:5353   */\n      dup3\n        /* \"#utility.yul\":5336:5345   */\n      dup6\n        /* \"#utility.yul\":5332:5354   */\n      add\n        /* \"#utility.yul\":5303:5364   */\n      tag_179\n      jump\t// in\n    tag_257:\n        /* \"#utility.yul\":5293:5364   */\n      swap2\n      pop\n        /* \"#utility.yul\":5249:5374   */\n      pop\n        /* \"#utility.yul\":5036:5381   */\n      swap3\n      swap2\n      pop\n      pop\n      jump\t// out\n        /* \"#utility.yul\":5387:5556   */\n    tag_180:\n        /* \"#utility.yul\":5471:5482   */\n      0x00\n        /* \"#utility.yul\":5505:5511   */\n      dup3\n        /* \"#utility.yul\":5500:5503   */\n      dup3\n        /* \"#utility.yul\":5493:5512   */\n      mstore\n        /* \"#utility.yul\":5545:5549   */\n      0x20\n        /* \"#utility.yul\":5540:5543   */\n      dup3\n        /* \"#utility.yul\":5536:5550   */\n      add\n        /* \"#utility.yul\":5521:5550   */\n      swap1\n      pop\n        /* \"#utility.yul\":5387:5556   */\n      swap3\n      swap2\n      pop\n      pop\n      jump\t// out\n        /* \"#utility.yul\":5562:5738   */\n    tag_181:\n        /* \"#utility.yul\":5702:5730   */\n      0x5472616e73666572206f6620546f6b656e2042206661696c6564000000000000\n        /* \"#utility.yul\":5698:5699   */\n      0x00\n        /* \"#utility.yul\":5690:5696   */\n      dup3\n        /* \"#utility.yul\":5686:5700   */\n      add\n        /* \"#utility.yul\":5679:5731   */\n      mstore\n        /* \"#utility.yul\":5562:5738   */\n      pop\n      jump\t// out\n        /* \"#utility.yul\":5744:6110   */\n    tag_182:\n        /* \"#utility.yul\":5886:5889   */\n      0x00\n        /* \"#utility.yul\":5907:5974   */\n      tag_261\n        /* \"#utility.yul\":5971:5973   */\n      0x1a\n        /* \"#utility.yul\":5966:5969   */\n      dup4\n        /* \"#utility.yul\":5907:5974   */\n      tag_180\n      jump\t// in\n    tag_261:\n        /* \"#utility.yul\":5900:5974   */\n      swap2\n      pop\n        /* \"#utility.yul\":5983:6076   */\n      tag_262\n        /* \"#utility.yul\":6072:6075   */\n      dup3\n        /* \"#utility.yul\":5983:6076   */\n      tag_181\n      jump\t// in\n    tag_262:\n        /* \"#utility.yul\":6101:6103   */\n      0x20\n        /* \"#utility.yul\":6096:6099   */\n      dup3\n        /* \"#utility.yul\":6092:6104   */\n      add\n        /* \"#utility.yul\":6085:6104   */\n      swap1\n      pop\n        /* \"#utility.yul\":5744:6110   */\n      swap2\n      swap1\n      pop\n      jump\t// out\n        /* \"#utility.yul\":6116:6535   */\n    tag_83:\n        /* \"#utility.yul\":6282:6286   */\n      0x00\n        /* \"#utility.yul\":6320:6322   */\n      0x20\n        /* \"#utility.yul\":6309:6318   */\n      dup3\n        /* \"#utility.yul\":6305:6323   */\n      add\n        /* \"#utility.yul\":6297:6323   */\n      swap1\n      pop\n        /* \"#utility.yul\":6369:6378   */\n      dup2\n        /* \"#utility.yul\":6363:6367   */\n      dup2\n        /* \"#utility.yul\":6359:6379   */\n      sub\n        /* \"#utility.yul\":6355:6356   */\n      0x00\n        /* \"#utility.yul\":6344:6353   */\n      dup4\n        /* \"#utility.yul\":6340:6357   */\n      add\n        /* \"#utility.yul\":6333:6380   */\n      mstore\n        /* \"#utility.yul\":6397:6528   */\n      tag_264\n        /* \"#utility.yul\":6523:6527   */\n      dup2\n        /* \"#utility.yul\":6397:6528   */\n      tag_182\n      jump\t// in\n    tag_264:\n        /* \"#utility.yul\":6389:6528   */\n      swap1\n      pop\n        /* \"#utility.yul\":6116:6535   */\n      swap2\n      swap1\n      pop\n      jump\t// out\n        /* \"#utility.yul\":6541:6873   */\n    tag_85:\n        /* \"#utility.yul\":6662:6666   */\n      0x00\n        /* \"#utility.yul\":6700:6702   */\n      0x40\n        /* \"#utility.yul\":6689:6698   */\n      dup3\n        /* \"#utility.yul\":6685:6703   */\n      add\n        /* \"#utility.yul\":6677:6703   */\n      swap1\n      pop\n        /* \"#utility.yul\":6713:6784   */\n      tag_266\n        /* \"#utility.yul\":6781:6782   */\n      0x00\n        /* \"#utility.yul\":6770:6779   */\n      dup4\n        /* \"#utility.yul\":6766:6783   */\n      add\n        /* \"#utility.yul\":6757:6763   */\n      dup6\n        /* \"#utility.yul\":6713:6784   */\n      tag_165\n      jump\t// in\n    tag_266:\n        /* \"#utility.yul\":6794:6866   */\n      tag_267\n        /* \"#utility.yul\":6862:6864   */\n      0x20\n        /* \"#utility.yul\":6851:6860   */\n      dup4\n        /* \"#utility.yul\":6847:6865   */\n      add\n        /* \"#utility.yul\":6838:6844   */\n      dup5\n        /* \"#utility.yul\":6794:6866   */\n      tag_167\n      jump\t// in\n    tag_267:\n        /* \"#utility.yul\":6541:6873   */\n      swap4\n      swap3\n      pop\n      pop\n      pop\n      jump\t// out\n        /* \"#utility.yul\":6879:7055   */\n    tag_183:\n        /* \"#utility.yul\":7019:7047   */\n      0x5472616e73666572206f6620546f6b656e2041206661696c6564000000000000\n        /* \"#utility.yul\":7015:7016   */\n      0x00\n        /* \"#utility.yul\":7007:7013   */\n      dup3\n        /* \"#utility.yul\":7003:7017   */\n      add\n        /* \"#utility.yul\":6996:7048   */\n      mstore\n        /* \"#utility.yul\":6879:7055   */\n      pop\n      jump\t// out\n        /* \"#utility.yul\":7061:7427   */\n    tag_184:\n        /* \"#utility.yul\":7203:7206   */\n      0x00\n        /* \"#utility.yul\":7224:7291   */\n      tag_270\n        /* \"#utility.yul\":7288:7290   */\n      0x1a\n        /* \"#utility.yul\":7283:7286   */\n      dup4\n        /* \"#utility.yul\":7224:7291   */\n      tag_180\n      jump\t// in\n    tag_270:\n        /* \"#utility.yul\":7217:7291   */\n      swap2\n      pop\n        /* \"#utility.yul\":7300:7393   */\n      tag_271\n        /* \"#utility.yul\":7389:7392   */\n      dup3\n        /* \"#utility.yul\":7300:7393   */\n      tag_183\n      jump\t// in\n    tag_271:\n        /* \"#utility.yul\":7418:7420   */\n      0x20\n        /* \"#utility.yul\":7413:7416   */\n      dup3\n        /* \"#utility.yul\":7409:7421   */\n      add\n        /* \"#utility.yul\":7402:7421   */\n      swap1\n      pop\n        /* \"#utility.yul\":7061:7427   */\n      swap2\n      swap1\n      pop\n      jump\t// out\n        /* \"#utility.yul\":7433:7852   */\n    tag_91:\n        /* \"#utility.yul\":7599:7603   */\n      0x00\n        /* \"#utility.yul\":7637:7639   */\n      0x20\n        /* \"#utility.yul\":7626:7635   */\n      dup3\n        /* \"#utility.yul\":7622:7640   */\n      add\n        /* \"#utility.yul\":7614:7640   */\n      swap1\n      pop\n        /* \"#utility.yul\":7686:7695   */\n      dup2\n        /* \"#utility.yul\":7680:7684   */\n      dup2\n        /* \"#utility.yul\":7676:7696   */\n      sub\n        /* \"#utility.yul\":7672:7673   */\n      0x00\n        /* \"#utility.yul\":7661:7670   */\n      dup4\n        /* \"#utility.yul\":7657:7674   */\n      add\n        /* \"#utility.yul\":7650:7697   */\n      mstore\n        /* \"#utility.yul\":7714:7845   */\n      tag_273\n        /* \"#utility.yul\":7840:7844   */\n      dup2\n        /* \"#utility.yul\":7714:7845   */\n      tag_184\n      jump\t// in\n    tag_273:\n        /* \"#utility.yul\":7706:7845   */\n      swap1\n      pop\n        /* \"#utility.yul\":7433:7852   */\n      swap2\n      swap1\n      pop\n      jump\t// out\n        /* \"#utility.yul\":7858:8052   */\n    tag_93:\n        /* \"#utility.yul\":7898:7902   */\n      0x00\n        /* \"#utility.yul\":7918:7938   */\n      tag_275\n        /* \"#utility.yul\":7936:7937   */\n      dup3\n        /* \"#utility.yul\":7918:7938   */\n      tag_166\n      jump\t// in\n    tag_275:\n        /* \"#utility.yul\":7913:7938   */\n      swap2\n      pop\n        /* \"#utility.yul\":7952:7972   */\n      tag_276\n        /* \"#utility.yul\":7970:7971   */\n      dup4\n        /* \"#utility.yul\":7952:7972   */\n      tag_166\n      jump\t// in\n    tag_276:\n        /* \"#utility.yul\":7947:7972   */\n      swap3\n      pop\n        /* \"#utility.yul\":7996:7997   */\n      dup3\n        /* \"#utility.yul\":7993:7994   */\n      dup3\n        /* \"#utility.yul\":7989:7998   */\n      sub\n        /* \"#utility.yul\":7981:7998   */\n      swap1\n      pop\n        /* \"#utility.yul\":8020:8021   */\n      dup2\n        /* \"#utility.yul\":8014:8018   */\n      dup2\n        /* \"#utility.yul\":8011:8022   */\n      gt\n        /* \"#utility.yul\":8008:8045   */\n      iszero\n      tag_277\n      jumpi\n        /* \"#utility.yul\":8025:8043   */\n      tag_278\n      tag_176\n      jump\t// in\n    tag_278:\n        /* \"#utility.yul\":8008:8045   */\n    tag_277:\n        /* \"#utility.yul\":7858:8052   */\n      swap3\n      swap2\n      pop\n      pop\n      jump\t// out\n        /* \"#utility.yul\":8058:8228   */\n    tag_185:\n        /* \"#utility.yul\":8198:8220   */\n      0x4e6f7420656e6f756768206c6971756964697479000000000000000000000000\n        /* \"#utility.yul\":8194:8195   */\n      0x00\n        /* \"#utility.yul\":8186:8192   */\n      dup3\n        /* \"#utility.yul\":8182:8196   */\n      add\n        /* \"#utility.yul\":8175:8221   */\n      mstore\n        /* \"#utility.yul\":8058:8228   */\n      pop\n      jump\t// out\n        /* \"#utility.yul\":8234:8600   */\n    tag_186:\n        /* \"#utility.yul\":8376:8379   */\n      0x00\n        /* \"#utility.yul\":8397:8464   */\n      tag_281\n        /* \"#utility.yul\":8461:8463   */\n      0x14\n        /* \"#utility.yul\":8456:8459   */\n      dup4\n        /* \"#utility.yul\":8397:8464   */\n      tag_180\n      jump\t// in\n    tag_281:\n        /* \"#utility.yul\":8390:8464   */\n      swap2\n      pop\n        /* \"#utility.yul\":8473:8566   */\n      tag_282\n        /* \"#utility.yul\":8562:8565   */\n      dup3\n        /* \"#utility.yul\":8473:8566   */\n      tag_185\n      jump\t// in\n    tag_282:\n        /* \"#utility.yul\":8591:8593   */\n      0x20\n        /* \"#utility.yul\":8586:8589   */\n      dup3\n        /* \"#utility.yul\":8582:8594   */\n      add\n        /* \"#utility.yul\":8575:8594   */\n      swap1\n      pop\n        /* \"#utility.yul\":8234:8600   */\n      swap2\n      swap1\n      pop\n      jump\t// out\n        /* \"#utility.yul\":8606:9025   */\n    tag_115:\n        /* \"#utility.yul\":8772:8776   */\n      0x00\n        /* \"#utility.yul\":8810:8812   */\n      0x20\n        /* \"#utility.yul\":8799:8808   */\n      dup3\n        /* \"#utility.yul\":8795:8813   */\n      add\n        /* \"#utility.yul\":8787:8813   */\n      swap1\n      pop\n        /* \"#utility.yul\":8859:8868   */\n      dup2\n        /* \"#utility.yul\":8853:8857   */\n      dup2\n        /* \"#utility.yul\":8849:8869   */\n      sub\n        /* \"#utility.yul\":8845:8846   */\n      0x00\n        /* \"#utility.yul\":8834:8843   */\n      dup4\n        /* \"#utility.yul\":8830:8847   */\n      add\n        /* \"#utility.yul\":8823:8870   */\n      mstore\n        /* \"#utility.yul\":8887:9018   */\n      tag_284\n        /* \"#utility.yul\":9013:9017   */\n      dup2\n        /* \"#utility.yul\":8887:9018   */\n      tag_186\n      jump\t// in\n    tag_284:\n        /* \"#utility.yul\":8879:9018   */\n      swap1\n      pop\n        /* \"#utility.yul\":8606:9025   */\n      swap2\n      swap1\n      pop\n      jump\t// out\n\n    auxdata: 0xa2646970667358221220ae0a4eef733895300f7f2ecbc7761bc3e0946d0df776987c65fcf8f6618c856e64736f6c634300081a0033\n}\n",
				"bytecode": {
					"linkReferences": {},
					"object": "608060405234801561000f575f80fd5b506040516114f93803806114f983398181016040528101906100319190610258565b335f73ffffffffffffffffffffffffffffffffffffffff168173ffffffffffffffffffffffffffffffffffffffff16036100a2575f6040517f1e4fbdf700000000000000000000000000000000000000000000000000000000815260040161009991906102a5565b60405180910390fd5b6100b18161013960201b60201c565b508160015f6101000a81548173ffffffffffffffffffffffffffffffffffffffff021916908373ffffffffffffffffffffffffffffffffffffffff1602179055508060025f6101000a81548173ffffffffffffffffffffffffffffffffffffffff021916908373ffffffffffffffffffffffffffffffffffffffff16021790555050506102be565b5f805f9054906101000a900473ffffffffffffffffffffffffffffffffffffffff169050815f806101000a81548173ffffffffffffffffffffffffffffffffffffffff021916908373ffffffffffffffffffffffffffffffffffffffff1602179055508173ffffffffffffffffffffffffffffffffffffffff168173ffffffffffffffffffffffffffffffffffffffff167f8be0079c531659141344cd1fd0a4f28419497f9722a3daafe3b4186f6b6457e060405160405180910390a35050565b5f80fd5b5f73ffffffffffffffffffffffffffffffffffffffff82169050919050565b5f610227826101fe565b9050919050565b6102378161021d565b8114610241575f80fd5b50565b5f815190506102528161022e565b92915050565b5f806040838503121561026e5761026d6101fa565b5b5f61027b85828601610244565b925050602061028c85828601610244565b9150509250929050565b61029f8161021d565b82525050565b5f6020820190506102b85f830184610296565b92915050565b61122e806102cb5f395ff3fe608060405234801561000f575f80fd5b50600436106100b2575f3560e01c80638da5cb5b1161006f5780638da5cb5b146101665780639cd441da146101845780639d7de6b3146101a0578063dc5fa6c5146101bc578063e4f1f70a146101da578063f2fde38b146101f6576100b2565b80630fc63d10146100b657806319e36f3b146100d457806341976e09146100f25780635f64b55b14610122578063715018a6146101405780638014a7aa1461014a575b5f80fd5b6100be610212565b6040516100cb9190610d8d565b60405180910390f35b6100dc610237565b6040516100e99190610dbe565b60405180910390f35b61010c60048036038101906101079190610e05565b61023d565b6040516101199190610dbe565b60405180910390f35b61012a6102c1565b6040516101379190610d8d565b60405180910390f35b6101486102e6565b005b610164600480360381019061015f9190610e5a565b6102f9565b005b61016e61050e565b60405161017b9190610d8d565b60405180910390f35b61019e60048036038101906101999190610e85565b610535565b005b6101ba60048036038101906101b59190610e85565b610723565b005b6101c4610960565b6040516101d19190610dbe565b60405180910390f35b6101f460048036038101906101ef9190610e5a565b610966565b005b610210600480360381019061020b9190610e05565b610b7b565b005b60015f9054906101000a900473ffffffffffffffffffffffffffffffffffffffff1681565b60045481565b5f60015f9054906101000a900473ffffffffffffffffffffffffffffffffffffffff1673ffffffffffffffffffffffffffffffffffffffff168273ffffffffffffffffffffffffffffffffffffffff16036102a9576003546004546102a29190610f1d565b90506102bc565b6004546003546102b99190610f1d565b90505b919050565b60025f9054906101000a900473ffffffffffffffffffffffffffffffffffffffff1681565b6102ee610bff565b6102f75f610c86565b565b5f816004546103089190610f4d565b600354836103169190610f80565b6103209190610f1d565b905060025f9054906101000a900473ffffffffffffffffffffffffffffffffffffffff1673ffffffffffffffffffffffffffffffffffffffff166323b872dd3330856040518463ffffffff1660e01b815260040161038093929190610fc1565b6020604051808303815f875af115801561039c573d5f803e3d5ffd5b505050506040513d601f19601f820116820180604052508101906103c0919061102b565b6103ff576040517f08c379a00000000000000000000000000000000000000000000000000000000081526004016103f6906110b0565b60405180910390fd5b60015f9054906101000a900473ffffffffffffffffffffffffffffffffffffffff1673ffffffffffffffffffffffffffffffffffffffff1663a9059cbb33836040518363ffffffff1660e01b815260040161045b9291906110ce565b6020604051808303815f875af1158015610477573d5f803e3d5ffd5b505050506040513d601f19601f8201168201806040525081019061049b919061102b565b6104da576040517f08c379a00000000000000000000000000000000000000000000000000000000081526004016104d19061113f565b60405180910390fd5b8060035f8282546104eb919061115d565b925050819055508160045f8282546105039190610f4d565b925050819055505050565b5f805f9054906101000a900473ffffffffffffffffffffffffffffffffffffffff16905090565b60015f9054906101000a900473ffffffffffffffffffffffffffffffffffffffff1673ffffffffffffffffffffffffffffffffffffffff166323b872dd3330856040518463ffffffff1660e01b815260040161059393929190610fc1565b6020604051808303815f875af11580156105af573d5f803e3d5ffd5b505050506040513d601f19601f820116820180604052508101906105d3919061102b565b610612576040517f08c379a00000000000000000000000000000000000000000000000000000000081526004016106099061113f565b60405180910390fd5b60025f9054906101000a900473ffffffffffffffffffffffffffffffffffffffff1673ffffffffffffffffffffffffffffffffffffffff166323b872dd3330846040518463ffffffff1660e01b815260040161067093929190610fc1565b6020604051808303815f875af115801561068c573d5f803e3d5ffd5b505050506040513d601f19601f820116820180604052508101906106b0919061102b565b6106ef576040517f08c379a00000000000000000000000000000000000000000000000000000000081526004016106e6906110b0565b60405180910390fd5b8160035f8282546107009190610f4d565b925050819055508060045f8282546107189190610f4d565b925050819055505050565b816003541015801561073757508060045410155b610776576040517f08c379a000000000000000000000000000000000000000000000000000000000815260040161076d906111da565b60405180910390fd5b60015f9054906101000a900473ffffffffffffffffffffffffffffffffffffffff1673ffffffffffffffffffffffffffffffffffffffff1663a9059cbb33846040518363ffffffff1660e01b81526004016107d29291906110ce565b6020604051808303815f875af11580156107ee573d5f803e3d5ffd5b505050506040513d601f19601f82011682018060405250810190610812919061102b565b610851576040517f08c379a00000000000000000000000000000000000000000000000000000000081526004016108489061113f565b60405180910390fd5b60025f9054906101000a900473ffffffffffffffffffffffffffffffffffffffff1673ffffffffffffffffffffffffffffffffffffffff1663a9059cbb33836040518363ffffffff1660e01b81526004016108ad9291906110ce565b6020604051808303815f875af11580156108c9573d5f803e3d5ffd5b505050506040513d601f19601f820116820180604052508101906108ed919061102b565b61092c576040517f08c379a0000000000000000000000000000000000000000000000000000000008152600401610923906110b0565b60405180910390fd5b8160035f82825461093d919061115d565b925050819055508060045f828254610955919061115d565b925050819055505050565b60035481565b5f816003546109759190610f4d565b600454836109839190610f80565b61098d9190610f1d565b905060015f9054906101000a900473ffffffffffffffffffffffffffffffffffffffff1673ffffffffffffffffffffffffffffffffffffffff166323b872dd3330856040518463ffffffff1660e01b81526004016109ed93929190610fc1565b6020604051808303815f875af1158015610a09573d5f803e3d5ffd5b505050506040513d601f19601f82011682018060405250810190610a2d919061102b565b610a6c576040517f08c379a0000000000000000000000000000000000000000000000000000000008152600401610a639061113f565b60405180910390fd5b60025f9054906101000a900473ffffffffffffffffffffffffffffffffffffffff1673ffffffffffffffffffffffffffffffffffffffff1663a9059cbb33836040518363ffffffff1660e01b8152600401610ac89291906110ce565b6020604051808303815f875af1158015610ae4573d5f803e3d5ffd5b505050506040513d601f19601f82011682018060405250810190610b08919061102b565b610b47576040517f08c379a0000000000000000000000000000000000000000000000000000000008152600401610b3e906110b0565b60405180910390fd5b8160035f828254610b589190610f4d565b925050819055508060045f828254610b70919061115d565b925050819055505050565b610b83610bff565b5f73ffffffffffffffffffffffffffffffffffffffff168173ffffffffffffffffffffffffffffffffffffffff1603610bf3575f6040517f1e4fbdf7000000000000000000000000000000000000000000000000000000008152600401610bea9190610d8d565b60405180910390fd5b610bfc81610c86565b50565b610c07610d47565b73ffffffffffffffffffffffffffffffffffffffff16610c2561050e565b73ffffffffffffffffffffffffffffffffffffffff1614610c8457610c48610d47565b6040517f118cdaa7000000000000000000000000000000000000000000000000000000008152600401610c7b9190610d8d565b60405180910390fd5b565b5f805f9054906101000a900473ffffffffffffffffffffffffffffffffffffffff169050815f806101000a81548173ffffffffffffffffffffffffffffffffffffffff021916908373ffffffffffffffffffffffffffffffffffffffff1602179055508173ffffffffffffffffffffffffffffffffffffffff168173ffffffffffffffffffffffffffffffffffffffff167f8be0079c531659141344cd1fd0a4f28419497f9722a3daafe3b4186f6b6457e060405160405180910390a35050565b5f33905090565b5f73ffffffffffffffffffffffffffffffffffffffff82169050919050565b5f610d7782610d4e565b9050919050565b610d8781610d6d565b82525050565b5f602082019050610da05f830184610d7e565b92915050565b5f819050919050565b610db881610da6565b82525050565b5f602082019050610dd15f830184610daf565b92915050565b5f80fd5b610de481610d6d565b8114610dee575f80fd5b50565b5f81359050610dff81610ddb565b92915050565b5f60208284031215610e1a57610e19610dd7565b5b5f610e2784828501610df1565b91505092915050565b610e3981610da6565b8114610e43575f80fd5b50565b5f81359050610e5481610e30565b92915050565b5f60208284031215610e6f57610e6e610dd7565b5b5f610e7c84828501610e46565b91505092915050565b5f8060408385031215610e9b57610e9a610dd7565b5b5f610ea885828601610e46565b9250506020610eb985828601610e46565b9150509250929050565b7f4e487b71000000000000000000000000000000000000000000000000000000005f52601260045260245ffd5b7f4e487b71000000000000000000000000000000000000000000000000000000005f52601160045260245ffd5b5f610f2782610da6565b9150610f3283610da6565b925082610f4257610f41610ec3565b5b828204905092915050565b5f610f5782610da6565b9150610f6283610da6565b9250828201905080821115610f7a57610f79610ef0565b5b92915050565b5f610f8a82610da6565b9150610f9583610da6565b9250828202610fa381610da6565b91508282048414831517610fba57610fb9610ef0565b5b5092915050565b5f606082019050610fd45f830186610d7e565b610fe16020830185610d7e565b610fee6040830184610daf565b949350505050565b5f8115159050919050565b61100a81610ff6565b8114611014575f80fd5b50565b5f8151905061102581611001565b92915050565b5f602082840312156110405761103f610dd7565b5b5f61104d84828501611017565b91505092915050565b5f82825260208201905092915050565b7f5472616e73666572206f6620546f6b656e2042206661696c65640000000000005f82015250565b5f61109a601a83611056565b91506110a582611066565b602082019050919050565b5f6020820190508181035f8301526110c78161108e565b9050919050565b5f6040820190506110e15f830185610d7e565b6110ee6020830184610daf565b9392505050565b7f5472616e73666572206f6620546f6b656e2041206661696c65640000000000005f82015250565b5f611129601a83611056565b9150611134826110f5565b602082019050919050565b5f6020820190508181035f8301526111568161111d565b9050919050565b5f61116782610da6565b915061117283610da6565b925082820390508181111561118a57611189610ef0565b5b92915050565b7f4e6f7420656e6f756768206c69717569646974790000000000000000000000005f82015250565b5f6111c4601483611056565b91506111cf82611190565b602082019050919050565b5f6020820190508181035f8301526111f1816111b8565b905091905056fea2646970667358221220ae0a4eef733895300f7f2ecbc7761bc3e0946d0df776987c65fcf8f6618c856e64736f6c634300081a0033",
					"opcodes": "PUSH1 0x80 PUSH1 0x40 MSTORE CALLVALUE DUP1 ISZERO PUSH2 0xF JUMPI PUSH0 DUP1 REVERT JUMPDEST POP PUSH1 0x40 MLOAD PUSH2 0x14F9 CODESIZE SUB DUP1 PUSH2 0x14F9 DUP4 CODECOPY DUP2 DUP2 ADD PUSH1 0x40 MSTORE DUP2 ADD SWAP1 PUSH2 0x31 SWAP2 SWAP1 PUSH2 0x258 JUMP JUMPDEST CALLER PUSH0 PUSH20 0xFFFFFFFFFFFFFFFFFFFFFFFFFFFFFFFFFFFFFFFF AND DUP2 PUSH20 0xFFFFFFFFFFFFFFFFFFFFFFFFFFFFFFFFFFFFFFFF AND SUB PUSH2 0xA2 JUMPI PUSH0 PUSH1 0x40 MLOAD PUSH32 0x1E4FBDF700000000000000000000000000000000000000000000000000000000 DUP2 MSTORE PUSH1 0x4 ADD PUSH2 0x99 SWAP2 SWAP1 PUSH2 0x2A5 JUMP JUMPDEST PUSH1 0x40 MLOAD DUP1 SWAP2 SUB SWAP1 REVERT JUMPDEST PUSH2 0xB1 DUP2 PUSH2 0x139 PUSH1 0x20 SHL PUSH1 0x20 SHR JUMP JUMPDEST POP DUP2 PUSH1 0x1 PUSH0 PUSH2 0x100 EXP DUP2 SLOAD DUP2 PUSH20 0xFFFFFFFFFFFFFFFFFFFFFFFFFFFFFFFFFFFFFFFF MUL NOT AND SWAP1 DUP4 PUSH20 0xFFFFFFFFFFFFFFFFFFFFFFFFFFFFFFFFFFFFFFFF AND MUL OR SWAP1 SSTORE POP DUP1 PUSH1 0x2 PUSH0 PUSH2 0x100 EXP DUP2 SLOAD DUP2 PUSH20 0xFFFFFFFFFFFFFFFFFFFFFFFFFFFFFFFFFFFFFFFF MUL NOT AND SWAP1 DUP4 PUSH20 0xFFFFFFFFFFFFFFFFFFFFFFFFFFFFFFFFFFFFFFFF AND MUL OR SWAP1 SSTORE POP POP POP PUSH2 0x2BE JUMP JUMPDEST PUSH0 DUP1 PUSH0 SWAP1 SLOAD SWAP1 PUSH2 0x100 EXP SWAP1 DIV PUSH20 0xFFFFFFFFFFFFFFFFFFFFFFFFFFFFFFFFFFFFFFFF AND SWAP1 POP DUP2 PUSH0 DUP1 PUSH2 0x100 EXP DUP2 SLOAD DUP2 PUSH20 0xFFFFFFFFFFFFFFFFFFFFFFFFFFFFFFFFFFFFFFFF MUL NOT AND SWAP1 DUP4 PUSH20 0xFFFFFFFFFFFFFFFFFFFFFFFFFFFFFFFFFFFFFFFF AND MUL OR SWAP1 SSTORE POP DUP2 PUSH20 0xFFFFFFFFFFFFFFFFFFFFFFFFFFFFFFFFFFFFFFFF AND DUP2 PUSH20 0xFFFFFFFFFFFFFFFFFFFFFFFFFFFFFFFFFFFFFFFF AND PUSH32 0x8BE0079C531659141344CD1FD0A4F28419497F9722A3DAAFE3B4186F6B6457E0 PUSH1 0x40 MLOAD PUSH1 0x40 MLOAD DUP1 SWAP2 SUB SWAP1 LOG3 POP POP JUMP JUMPDEST PUSH0 DUP1 REVERT JUMPDEST PUSH0 PUSH20 0xFFFFFFFFFFFFFFFFFFFFFFFFFFFFFFFFFFFFFFFF DUP3 AND SWAP1 POP SWAP2 SWAP1 POP JUMP JUMPDEST PUSH0 PUSH2 0x227 DUP3 PUSH2 0x1FE JUMP JUMPDEST SWAP1 POP SWAP2 SWAP1 POP JUMP JUMPDEST PUSH2 0x237 DUP2 PUSH2 0x21D JUMP JUMPDEST DUP2 EQ PUSH2 0x241 JUMPI PUSH0 DUP1 REVERT JUMPDEST POP JUMP JUMPDEST PUSH0 DUP2 MLOAD SWAP1 POP PUSH2 0x252 DUP2 PUSH2 0x22E JUMP JUMPDEST SWAP3 SWAP2 POP POP JUMP JUMPDEST PUSH0 DUP1 PUSH1 0x40 DUP4 DUP6 SUB SLT ISZERO PUSH2 0x26E JUMPI PUSH2 0x26D PUSH2 0x1FA JUMP JUMPDEST JUMPDEST PUSH0 PUSH2 0x27B DUP6 DUP3 DUP7 ADD PUSH2 0x244 JUMP JUMPDEST SWAP3 POP POP PUSH1 0x20 PUSH2 0x28C DUP6 DUP3 DUP7 ADD PUSH2 0x244 JUMP JUMPDEST SWAP2 POP POP SWAP3 POP SWAP3 SWAP1 POP JUMP JUMPDEST PUSH2 0x29F DUP2 PUSH2 0x21D JUMP JUMPDEST DUP3 MSTORE POP POP JUMP JUMPDEST PUSH0 PUSH1 0x20 DUP3 ADD SWAP1 POP PUSH2 0x2B8 PUSH0 DUP4 ADD DUP5 PUSH2 0x296 JUMP JUMPDEST SWAP3 SWAP2 POP POP JUMP JUMPDEST PUSH2 0x122E DUP1 PUSH2 0x2CB PUSH0 CODECOPY PUSH0 RETURN INVALID PUSH1 0x80 PUSH1 0x40 MSTORE CALLVALUE DUP1 ISZERO PUSH2 0xF JUMPI PUSH0 DUP1 REVERT JUMPDEST POP PUSH1 0x4 CALLDATASIZE LT PUSH2 0xB2 JUMPI PUSH0 CALLDATALOAD PUSH1 0xE0 SHR DUP1 PUSH4 0x8DA5CB5B GT PUSH2 0x6F JUMPI DUP1 PUSH4 0x8DA5CB5B EQ PUSH2 0x166 JUMPI DUP1 PUSH4 0x9CD441DA EQ PUSH2 0x184 JUMPI DUP1 PUSH4 0x9D7DE6B3 EQ PUSH2 0x1A0 JUMPI DUP1 PUSH4 0xDC5FA6C5 EQ PUSH2 0x1BC JUMPI DUP1 PUSH4 0xE4F1F70A EQ PUSH2 0x1DA JUMPI DUP1 PUSH4 0xF2FDE38B EQ PUSH2 0x1F6 JUMPI PUSH2 0xB2 JUMP JUMPDEST DUP1 PUSH4 0xFC63D10 EQ PUSH2 0xB6 JUMPI DUP1 PUSH4 0x19E36F3B EQ PUSH2 0xD4 JUMPI DUP1 PUSH4 0x41976E09 EQ PUSH2 0xF2 JUMPI DUP1 PUSH4 0x5F64B55B EQ PUSH2 0x122 JUMPI DUP1 PUSH4 0x715018A6 EQ PUSH2 0x140 JUMPI DUP1 PUSH4 0x8014A7AA EQ PUSH2 0x14A JUMPI JUMPDEST PUSH0 DUP1 REVERT JUMPDEST PUSH2 0xBE PUSH2 0x212 JUMP JUMPDEST PUSH1 0x40 MLOAD PUSH2 0xCB SWAP2 SWAP1 PUSH2 0xD8D JUMP JUMPDEST PUSH1 0x40 MLOAD DUP1 SWAP2 SUB SWAP1 RETURN JUMPDEST PUSH2 0xDC PUSH2 0x237 JUMP JUMPDEST PUSH1 0x40 MLOAD PUSH2 0xE9 SWAP2 SWAP1 PUSH2 0xDBE JUMP JUMPDEST PUSH1 0x40 MLOAD DUP1 SWAP2 SUB SWAP1 RETURN JUMPDEST PUSH2 0x10C PUSH1 0x4 DUP1 CALLDATASIZE SUB DUP2 ADD SWAP1 PUSH2 0x107 SWAP2 SWAP1 PUSH2 0xE05 JUMP JUMPDEST PUSH2 0x23D JUMP JUMPDEST PUSH1 0x40 MLOAD PUSH2 0x119 SWAP2 SWAP1 PUSH2 0xDBE JUMP JUMPDEST PUSH1 0x40 MLOAD DUP1 SWAP2 SUB SWAP1 RETURN JUMPDEST PUSH2 0x12A PUSH2 0x2C1 JUMP JUMPDEST PUSH1 0x40 MLOAD PUSH2 0x137 SWAP2 SWAP1 PUSH2 0xD8D JUMP JUMPDEST PUSH1 0x40 MLOAD DUP1 SWAP2 SUB SWAP1 RETURN JUMPDEST PUSH2 0x148 PUSH2 0x2E6 JUMP JUMPDEST STOP JUMPDEST PUSH2 0x164 PUSH1 0x4 DUP1 CALLDATASIZE SUB DUP2 ADD SWAP1 PUSH2 0x15F SWAP2 SWAP1 PUSH2 0xE5A JUMP JUMPDEST PUSH2 0x2F9 JUMP JUMPDEST STOP JUMPDEST PUSH2 0x16E PUSH2 0x50E JUMP JUMPDEST PUSH1 0x40 MLOAD PUSH2 0x17B SWAP2 SWAP1 PUSH2 0xD8D JUMP JUMPDEST PUSH1 0x40 MLOAD DUP1 SWAP2 SUB SWAP1 RETURN JUMPDEST PUSH2 0x19E PUSH1 0x4 DUP1 CALLDATASIZE SUB DUP2 ADD SWAP1 PUSH2 0x199 SWAP2 SWAP1 PUSH2 0xE85 JUMP JUMPDEST PUSH2 0x535 JUMP JUMPDEST STOP JUMPDEST PUSH2 0x1BA PUSH1 0x4 DUP1 CALLDATASIZE SUB DUP2 ADD SWAP1 PUSH2 0x1B5 SWAP2 SWAP1 PUSH2 0xE85 JUMP JUMPDEST PUSH2 0x723 JUMP JUMPDEST STOP JUMPDEST PUSH2 0x1C4 PUSH2 0x960 JUMP JUMPDEST PUSH1 0x40 MLOAD PUSH2 0x1D1 SWAP2 SWAP1 PUSH2 0xDBE JUMP JUMPDEST PUSH1 0x40 MLOAD DUP1 SWAP2 SUB SWAP1 RETURN JUMPDEST PUSH2 0x1F4 PUSH1 0x4 DUP1 CALLDATASIZE SUB DUP2 ADD SWAP1 PUSH2 0x1EF SWAP2 SWAP1 PUSH2 0xE5A JUMP JUMPDEST PUSH2 0x966 JUMP JUMPDEST STOP JUMPDEST PUSH2 0x210 PUSH1 0x4 DUP1 CALLDATASIZE SUB DUP2 ADD SWAP1 PUSH2 0x20B SWAP2 SWAP1 PUSH2 0xE05 JUMP JUMPDEST PUSH2 0xB7B JUMP JUMPDEST STOP JUMPDEST PUSH1 0x1 PUSH0 SWAP1 SLOAD SWAP1 PUSH2 0x100 EXP SWAP1 DIV PUSH20 0xFFFFFFFFFFFFFFFFFFFFFFFFFFFFFFFFFFFFFFFF AND DUP2 JUMP JUMPDEST PUSH1 0x4 SLOAD DUP2 JUMP JUMPDEST PUSH0 PUSH1 0x1 PUSH0 SWAP1 SLOAD SWAP1 PUSH2 0x100 EXP SWAP1 DIV PUSH20 0xFFFFFFFFFFFFFFFFFFFFFFFFFFFFFFFFFFFFFFFF AND PUSH20 0xFFFFFFFFFFFFFFFFFFFFFFFFFFFFFFFFFFFFFFFF AND DUP3 PUSH20 0xFFFFFFFFFFFFFFFFFFFFFFFFFFFFFFFFFFFFFFFF AND SUB PUSH2 0x2A9 JUMPI PUSH1 0x3 SLOAD PUSH1 0x4 SLOAD PUSH2 0x2A2 SWAP2 SWAP1 PUSH2 0xF1D JUMP JUMPDEST SWAP1 POP PUSH2 0x2BC JUMP JUMPDEST PUSH1 0x4 SLOAD PUSH1 0x3 SLOAD PUSH2 0x2B9 SWAP2 SWAP1 PUSH2 0xF1D JUMP JUMPDEST SWAP1 POP JUMPDEST SWAP2 SWAP1 POP JUMP JUMPDEST PUSH1 0x2 PUSH0 SWAP1 SLOAD SWAP1 PUSH2 0x100 EXP SWAP1 DIV PUSH20 0xFFFFFFFFFFFFFFFFFFFFFFFFFFFFFFFFFFFFFFFF AND DUP2 JUMP JUMPDEST PUSH2 0x2EE PUSH2 0xBFF JUMP JUMPDEST PUSH2 0x2F7 PUSH0 PUSH2 0xC86 JUMP JUMPDEST JUMP JUMPDEST PUSH0 DUP2 PUSH1 0x4 SLOAD PUSH2 0x308 SWAP2 SWAP1 PUSH2 0xF4D JUMP JUMPDEST PUSH1 0x3 SLOAD DUP4 PUSH2 0x316 SWAP2 SWAP1 PUSH2 0xF80 JUMP JUMPDEST PUSH2 0x320 SWAP2 SWAP1 PUSH2 0xF1D JUMP JUMPDEST SWAP1 POP PUSH1 0x2 PUSH0 SWAP1 SLOAD SWAP1 PUSH2 0x100 EXP SWAP1 DIV PUSH20 0xFFFFFFFFFFFFFFFFFFFFFFFFFFFFFFFFFFFFFFFF AND PUSH20 0xFFFFFFFFFFFFFFFFFFFFFFFFFFFFFFFFFFFFFFFF AND PUSH4 0x23B872DD CALLER ADDRESS DUP6 PUSH1 0x40 MLOAD DUP5 PUSH4 0xFFFFFFFF AND PUSH1 0xE0 SHL DUP2 MSTORE PUSH1 0x4 ADD PUSH2 0x380 SWAP4 SWAP3 SWAP2 SWAP1 PUSH2 0xFC1 JUMP JUMPDEST PUSH1 0x20 PUSH1 0x40 MLOAD DUP1 DUP4 SUB DUP2 PUSH0 DUP8 GAS CALL ISZERO DUP1 ISZERO PUSH2 0x39C JUMPI RETURNDATASIZE PUSH0 DUP1 RETURNDATACOPY RETURNDATASIZE PUSH0 REVERT JUMPDEST POP POP POP POP PUSH1 0x40 MLOAD RETURNDATASIZE PUSH1 0x1F NOT PUSH1 0x1F DUP3 ADD AND DUP3 ADD DUP1 PUSH1 0x40 MSTORE POP DUP2 ADD SWAP1 PUSH2 0x3C0 SWAP2 SWAP1 PUSH2 0x102B JUMP JUMPDEST PUSH2 0x3FF JUMPI PUSH1 0x40 MLOAD PUSH32 0x8C379A000000000000000000000000000000000000000000000000000000000 DUP2 MSTORE PUSH1 0x4 ADD PUSH2 0x3F6 SWAP1 PUSH2 0x10B0 JUMP JUMPDEST PUSH1 0x40 MLOAD DUP1 SWAP2 SUB SWAP1 REVERT JUMPDEST PUSH1 0x1 PUSH0 SWAP1 SLOAD SWAP1 PUSH2 0x100 EXP SWAP1 DIV PUSH20 0xFFFFFFFFFFFFFFFFFFFFFFFFFFFFFFFFFFFFFFFF AND PUSH20 0xFFFFFFFFFFFFFFFFFFFFFFFFFFFFFFFFFFFFFFFF AND PUSH4 0xA9059CBB CALLER DUP4 PUSH1 0x40 MLOAD DUP4 PUSH4 0xFFFFFFFF AND PUSH1 0xE0 SHL DUP2 MSTORE PUSH1 0x4 ADD PUSH2 0x45B SWAP3 SWAP2 SWAP1 PUSH2 0x10CE JUMP JUMPDEST PUSH1 0x20 PUSH1 0x40 MLOAD DUP1 DUP4 SUB DUP2 PUSH0 DUP8 GAS CALL ISZERO DUP1 ISZERO PUSH2 0x477 JUMPI RETURNDATASIZE PUSH0 DUP1 RETURNDATACOPY RETURNDATASIZE PUSH0 REVERT JUMPDEST POP POP POP POP PUSH1 0x40 MLOAD RETURNDATASIZE PUSH1 0x1F NOT PUSH1 0x1F DUP3 ADD AND DUP3 ADD DUP1 PUSH1 0x40 MSTORE POP DUP2 ADD SWAP1 PUSH2 0x49B SWAP2 SWAP1 PUSH2 0x102B JUMP JUMPDEST PUSH2 0x4DA JUMPI PUSH1 0x40 MLOAD PUSH32 0x8C379A000000000000000000000000000000000000000000000000000000000 DUP2 MSTORE PUSH1 0x4 ADD PUSH2 0x4D1 SWAP1 PUSH2 0x113F JUMP JUMPDEST PUSH1 0x40 MLOAD DUP1 SWAP2 SUB SWAP1 REVERT JUMPDEST DUP1 PUSH1 0x3 PUSH0 DUP3 DUP3 SLOAD PUSH2 0x4EB SWAP2 SWAP1 PUSH2 0x115D JUMP JUMPDEST SWAP3 POP POP DUP2 SWAP1 SSTORE POP DUP2 PUSH1 0x4 PUSH0 DUP3 DUP3 SLOAD PUSH2 0x503 SWAP2 SWAP1 PUSH2 0xF4D JUMP JUMPDEST SWAP3 POP POP DUP2 SWAP1 SSTORE POP POP POP JUMP JUMPDEST PUSH0 DUP1 PUSH0 SWAP1 SLOAD SWAP1 PUSH2 0x100 EXP SWAP1 DIV PUSH20 0xFFFFFFFFFFFFFFFFFFFFFFFFFFFFFFFFFFFFFFFF AND SWAP1 POP SWAP1 JUMP JUMPDEST PUSH1 0x1 PUSH0 SWAP1 SLOAD SWAP1 PUSH2 0x100 EXP SWAP1 DIV PUSH20 0xFFFFFFFFFFFFFFFFFFFFFFFFFFFFFFFFFFFFFFFF AND PUSH20 0xFFFFFFFFFFFFFFFFFFFFFFFFFFFFFFFFFFFFFFFF AND PUSH4 0x23B872DD CALLER ADDRESS DUP6 PUSH1 0x40 MLOAD DUP5 PUSH4 0xFFFFFFFF AND PUSH1 0xE0 SHL DUP2 MSTORE PUSH1 0x4 ADD PUSH2 0x593 SWAP4 SWAP3 SWAP2 SWAP1 PUSH2 0xFC1 JUMP JUMPDEST PUSH1 0x20 PUSH1 0x40 MLOAD DUP1 DUP4 SUB DUP2 PUSH0 DUP8 GAS CALL ISZERO DUP1 ISZERO PUSH2 0x5AF JUMPI RETURNDATASIZE PUSH0 DUP1 RETURNDATACOPY RETURNDATASIZE PUSH0 REVERT JUMPDEST POP POP POP POP PUSH1 0x40 MLOAD RETURNDATASIZE PUSH1 0x1F NOT PUSH1 0x1F DUP3 ADD AND DUP3 ADD DUP1 PUSH1 0x40 MSTORE POP DUP2 ADD SWAP1 PUSH2 0x5D3 SWAP2 SWAP1 PUSH2 0x102B JUMP JUMPDEST PUSH2 0x612 JUMPI PUSH1 0x40 MLOAD PUSH32 0x8C379A000000000000000000000000000000000000000000000000000000000 DUP2 MSTORE PUSH1 0x4 ADD PUSH2 0x609 SWAP1 PUSH2 0x113F JUMP JUMPDEST PUSH1 0x40 MLOAD DUP1 SWAP2 SUB SWAP1 REVERT JUMPDEST PUSH1 0x2 PUSH0 SWAP1 SLOAD SWAP1 PUSH2 0x100 EXP SWAP1 DIV PUSH20 0xFFFFFFFFFFFFFFFFFFFFFFFFFFFFFFFFFFFFFFFF AND PUSH20 0xFFFFFFFFFFFFFFFFFFFFFFFFFFFFFFFFFFFFFFFF AND PUSH4 0x23B872DD CALLER ADDRESS DUP5 PUSH1 0x40 MLOAD DUP5 PUSH4 0xFFFFFFFF AND PUSH1 0xE0 SHL DUP2 MSTORE PUSH1 0x4 ADD PUSH2 0x670 SWAP4 SWAP3 SWAP2 SWAP1 PUSH2 0xFC1 JUMP JUMPDEST PUSH1 0x20 PUSH1 0x40 MLOAD DUP1 DUP4 SUB DUP2 PUSH0 DUP8 GAS CALL ISZERO DUP1 ISZERO PUSH2 0x68C JUMPI RETURNDATASIZE PUSH0 DUP1 RETURNDATACOPY RETURNDATASIZE PUSH0 REVERT JUMPDEST POP POP POP POP PUSH1 0x40 MLOAD RETURNDATASIZE PUSH1 0x1F NOT PUSH1 0x1F DUP3 ADD AND DUP3 ADD DUP1 PUSH1 0x40 MSTORE POP DUP2 ADD SWAP1 PUSH2 0x6B0 SWAP2 SWAP1 PUSH2 0x102B JUMP JUMPDEST PUSH2 0x6EF JUMPI PUSH1 0x40 MLOAD PUSH32 0x8C379A000000000000000000000000000000000000000000000000000000000 DUP2 MSTORE PUSH1 0x4 ADD PUSH2 0x6E6 SWAP1 PUSH2 0x10B0 JUMP JUMPDEST PUSH1 0x40 MLOAD DUP1 SWAP2 SUB SWAP1 REVERT JUMPDEST DUP2 PUSH1 0x3 PUSH0 DUP3 DUP3 SLOAD PUSH2 0x700 SWAP2 SWAP1 PUSH2 0xF4D JUMP JUMPDEST SWAP3 POP POP DUP2 SWAP1 SSTORE POP DUP1 PUSH1 0x4 PUSH0 DUP3 DUP3 SLOAD PUSH2 0x718 SWAP2 SWAP1 PUSH2 0xF4D JUMP JUMPDEST SWAP3 POP POP DUP2 SWAP1 SSTORE POP POP POP JUMP JUMPDEST DUP2 PUSH1 0x3 SLOAD LT ISZERO DUP1 ISZERO PUSH2 0x737 JUMPI POP DUP1 PUSH1 0x4 SLOAD LT ISZERO JUMPDEST PUSH2 0x776 JUMPI PUSH1 0x40 MLOAD PUSH32 0x8C379A000000000000000000000000000000000000000000000000000000000 DUP2 MSTORE PUSH1 0x4 ADD PUSH2 0x76D SWAP1 PUSH2 0x11DA JUMP JUMPDEST PUSH1 0x40 MLOAD DUP1 SWAP2 SUB SWAP1 REVERT JUMPDEST PUSH1 0x1 PUSH0 SWAP1 SLOAD SWAP1 PUSH2 0x100 EXP SWAP1 DIV PUSH20 0xFFFFFFFFFFFFFFFFFFFFFFFFFFFFFFFFFFFFFFFF AND PUSH20 0xFFFFFFFFFFFFFFFFFFFFFFFFFFFFFFFFFFFFFFFF AND PUSH4 0xA9059CBB CALLER DUP5 PUSH1 0x40 MLOAD DUP4 PUSH4 0xFFFFFFFF AND PUSH1 0xE0 SHL DUP2 MSTORE PUSH1 0x4 ADD PUSH2 0x7D2 SWAP3 SWAP2 SWAP1 PUSH2 0x10CE JUMP JUMPDEST PUSH1 0x20 PUSH1 0x40 MLOAD DUP1 DUP4 SUB DUP2 PUSH0 DUP8 GAS CALL ISZERO DUP1 ISZERO PUSH2 0x7EE JUMPI RETURNDATASIZE PUSH0 DUP1 RETURNDATACOPY RETURNDATASIZE PUSH0 REVERT JUMPDEST POP POP POP POP PUSH1 0x40 MLOAD RETURNDATASIZE PUSH1 0x1F NOT PUSH1 0x1F DUP3 ADD AND DUP3 ADD DUP1 PUSH1 0x40 MSTORE POP DUP2 ADD SWAP1 PUSH2 0x812 SWAP2 SWAP1 PUSH2 0x102B JUMP JUMPDEST PUSH2 0x851 JUMPI PUSH1 0x40 MLOAD PUSH32 0x8C379A000000000000000000000000000000000000000000000000000000000 DUP2 MSTORE PUSH1 0x4 ADD PUSH2 0x848 SWAP1 PUSH2 0x113F JUMP JUMPDEST PUSH1 0x40 MLOAD DUP1 SWAP2 SUB SWAP1 REVERT JUMPDEST PUSH1 0x2 PUSH0 SWAP1 SLOAD SWAP1 PUSH2 0x100 EXP SWAP1 DIV PUSH20 0xFFFFFFFFFFFFFFFFFFFFFFFFFFFFFFFFFFFFFFFF AND PUSH20 0xFFFFFFFFFFFFFFFFFFFFFFFFFFFFFFFFFFFFFFFF AND PUSH4 0xA9059CBB CALLER DUP4 PUSH1 0x40 MLOAD DUP4 PUSH4 0xFFFFFFFF AND PUSH1 0xE0 SHL DUP2 MSTORE PUSH1 0x4 ADD PUSH2 0x8AD SWAP3 SWAP2 SWAP1 PUSH2 0x10CE JUMP JUMPDEST PUSH1 0x20 PUSH1 0x40 MLOAD DUP1 DUP4 SUB DUP2 PUSH0 DUP8 GAS CALL ISZERO DUP1 ISZERO PUSH2 0x8C9 JUMPI RETURNDATASIZE PUSH0 DUP1 RETURNDATACOPY RETURNDATASIZE PUSH0 REVERT JUMPDEST POP POP POP POP PUSH1 0x40 MLOAD RETURNDATASIZE PUSH1 0x1F NOT PUSH1 0x1F DUP3 ADD AND DUP3 ADD DUP1 PUSH1 0x40 MSTORE POP DUP2 ADD SWAP1 PUSH2 0x8ED SWAP2 SWAP1 PUSH2 0x102B JUMP JUMPDEST PUSH2 0x92C JUMPI PUSH1 0x40 MLOAD PUSH32 0x8C379A000000000000000000000000000000000000000000000000000000000 DUP2 MSTORE PUSH1 0x4 ADD PUSH2 0x923 SWAP1 PUSH2 0x10B0 JUMP JUMPDEST PUSH1 0x40 MLOAD DUP1 SWAP2 SUB SWAP1 REVERT JUMPDEST DUP2 PUSH1 0x3 PUSH0 DUP3 DUP3 SLOAD PUSH2 0x93D SWAP2 SWAP1 PUSH2 0x115D JUMP JUMPDEST SWAP3 POP POP DUP2 SWAP1 SSTORE POP DUP1 PUSH1 0x4 PUSH0 DUP3 DUP3 SLOAD PUSH2 0x955 SWAP2 SWAP1 PUSH2 0x115D JUMP JUMPDEST SWAP3 POP POP DUP2 SWAP1 SSTORE POP POP POP JUMP JUMPDEST PUSH1 0x3 SLOAD DUP2 JUMP JUMPDEST PUSH0 DUP2 PUSH1 0x3 SLOAD PUSH2 0x975 SWAP2 SWAP1 PUSH2 0xF4D JUMP JUMPDEST PUSH1 0x4 SLOAD DUP4 PUSH2 0x983 SWAP2 SWAP1 PUSH2 0xF80 JUMP JUMPDEST PUSH2 0x98D SWAP2 SWAP1 PUSH2 0xF1D JUMP JUMPDEST SWAP1 POP PUSH1 0x1 PUSH0 SWAP1 SLOAD SWAP1 PUSH2 0x100 EXP SWAP1 DIV PUSH20 0xFFFFFFFFFFFFFFFFFFFFFFFFFFFFFFFFFFFFFFFF AND PUSH20 0xFFFFFFFFFFFFFFFFFFFFFFFFFFFFFFFFFFFFFFFF AND PUSH4 0x23B872DD CALLER ADDRESS DUP6 PUSH1 0x40 MLOAD DUP5 PUSH4 0xFFFFFFFF AND PUSH1 0xE0 SHL DUP2 MSTORE PUSH1 0x4 ADD PUSH2 0x9ED SWAP4 SWAP3 SWAP2 SWAP1 PUSH2 0xFC1 JUMP JUMPDEST PUSH1 0x20 PUSH1 0x40 MLOAD DUP1 DUP4 SUB DUP2 PUSH0 DUP8 GAS CALL ISZERO DUP1 ISZERO PUSH2 0xA09 JUMPI RETURNDATASIZE PUSH0 DUP1 RETURNDATACOPY RETURNDATASIZE PUSH0 REVERT JUMPDEST POP POP POP POP PUSH1 0x40 MLOAD RETURNDATASIZE PUSH1 0x1F NOT PUSH1 0x1F DUP3 ADD AND DUP3 ADD DUP1 PUSH1 0x40 MSTORE POP DUP2 ADD SWAP1 PUSH2 0xA2D SWAP2 SWAP1 PUSH2 0x102B JUMP JUMPDEST PUSH2 0xA6C JUMPI PUSH1 0x40 MLOAD PUSH32 0x8C379A000000000000000000000000000000000000000000000000000000000 DUP2 MSTORE PUSH1 0x4 ADD PUSH2 0xA63 SWAP1 PUSH2 0x113F JUMP JUMPDEST PUSH1 0x40 MLOAD DUP1 SWAP2 SUB SWAP1 REVERT JUMPDEST PUSH1 0x2 PUSH0 SWAP1 SLOAD SWAP1 PUSH2 0x100 EXP SWAP1 DIV PUSH20 0xFFFFFFFFFFFFFFFFFFFFFFFFFFFFFFFFFFFFFFFF AND PUSH20 0xFFFFFFFFFFFFFFFFFFFFFFFFFFFFFFFFFFFFFFFF AND PUSH4 0xA9059CBB CALLER DUP4 PUSH1 0x40 MLOAD DUP4 PUSH4 0xFFFFFFFF AND PUSH1 0xE0 SHL DUP2 MSTORE PUSH1 0x4 ADD PUSH2 0xAC8 SWAP3 SWAP2 SWAP1 PUSH2 0x10CE JUMP JUMPDEST PUSH1 0x20 PUSH1 0x40 MLOAD DUP1 DUP4 SUB DUP2 PUSH0 DUP8 GAS CALL ISZERO DUP1 ISZERO PUSH2 0xAE4 JUMPI RETURNDATASIZE PUSH0 DUP1 RETURNDATACOPY RETURNDATASIZE PUSH0 REVERT JUMPDEST POP POP POP POP PUSH1 0x40 MLOAD RETURNDATASIZE PUSH1 0x1F NOT PUSH1 0x1F DUP3 ADD AND DUP3 ADD DUP1 PUSH1 0x40 MSTORE POP DUP2 ADD SWAP1 PUSH2 0xB08 SWAP2 SWAP1 PUSH2 0x102B JUMP JUMPDEST PUSH2 0xB47 JUMPI PUSH1 0x40 MLOAD PUSH32 0x8C379A000000000000000000000000000000000000000000000000000000000 DUP2 MSTORE PUSH1 0x4 ADD PUSH2 0xB3E SWAP1 PUSH2 0x10B0 JUMP JUMPDEST PUSH1 0x40 MLOAD DUP1 SWAP2 SUB SWAP1 REVERT JUMPDEST DUP2 PUSH1 0x3 PUSH0 DUP3 DUP3 SLOAD PUSH2 0xB58 SWAP2 SWAP1 PUSH2 0xF4D JUMP JUMPDEST SWAP3 POP POP DUP2 SWAP1 SSTORE POP DUP1 PUSH1 0x4 PUSH0 DUP3 DUP3 SLOAD PUSH2 0xB70 SWAP2 SWAP1 PUSH2 0x115D JUMP JUMPDEST SWAP3 POP POP DUP2 SWAP1 SSTORE POP POP POP JUMP JUMPDEST PUSH2 0xB83 PUSH2 0xBFF JUMP JUMPDEST PUSH0 PUSH20 0xFFFFFFFFFFFFFFFFFFFFFFFFFFFFFFFFFFFFFFFF AND DUP2 PUSH20 0xFFFFFFFFFFFFFFFFFFFFFFFFFFFFFFFFFFFFFFFF AND SUB PUSH2 0xBF3 JUMPI PUSH0 PUSH1 0x40 MLOAD PUSH32 0x1E4FBDF700000000000000000000000000000000000000000000000000000000 DUP2 MSTORE PUSH1 0x4 ADD PUSH2 0xBEA SWAP2 SWAP1 PUSH2 0xD8D JUMP JUMPDEST PUSH1 0x40 MLOAD DUP1 SWAP2 SUB SWAP1 REVERT JUMPDEST PUSH2 0xBFC DUP2 PUSH2 0xC86 JUMP JUMPDEST POP JUMP JUMPDEST PUSH2 0xC07 PUSH2 0xD47 JUMP JUMPDEST PUSH20 0xFFFFFFFFFFFFFFFFFFFFFFFFFFFFFFFFFFFFFFFF AND PUSH2 0xC25 PUSH2 0x50E JUMP JUMPDEST PUSH20 0xFFFFFFFFFFFFFFFFFFFFFFFFFFFFFFFFFFFFFFFF AND EQ PUSH2 0xC84 JUMPI PUSH2 0xC48 PUSH2 0xD47 JUMP JUMPDEST PUSH1 0x40 MLOAD PUSH32 0x118CDAA700000000000000000000000000000000000000000000000000000000 DUP2 MSTORE PUSH1 0x4 ADD PUSH2 0xC7B SWAP2 SWAP1 PUSH2 0xD8D JUMP JUMPDEST PUSH1 0x40 MLOAD DUP1 SWAP2 SUB SWAP1 REVERT JUMPDEST JUMP JUMPDEST PUSH0 DUP1 PUSH0 SWAP1 SLOAD SWAP1 PUSH2 0x100 EXP SWAP1 DIV PUSH20 0xFFFFFFFFFFFFFFFFFFFFFFFFFFFFFFFFFFFFFFFF AND SWAP1 POP DUP2 PUSH0 DUP1 PUSH2 0x100 EXP DUP2 SLOAD DUP2 PUSH20 0xFFFFFFFFFFFFFFFFFFFFFFFFFFFFFFFFFFFFFFFF MUL NOT AND SWAP1 DUP4 PUSH20 0xFFFFFFFFFFFFFFFFFFFFFFFFFFFFFFFFFFFFFFFF AND MUL OR SWAP1 SSTORE POP DUP2 PUSH20 0xFFFFFFFFFFFFFFFFFFFFFFFFFFFFFFFFFFFFFFFF AND DUP2 PUSH20 0xFFFFFFFFFFFFFFFFFFFFFFFFFFFFFFFFFFFFFFFF AND PUSH32 0x8BE0079C531659141344CD1FD0A4F28419497F9722A3DAAFE3B4186F6B6457E0 PUSH1 0x40 MLOAD PUSH1 0x40 MLOAD DUP1 SWAP2 SUB SWAP1 LOG3 POP POP JUMP JUMPDEST PUSH0 CALLER SWAP1 POP SWAP1 JUMP JUMPDEST PUSH0 PUSH20 0xFFFFFFFFFFFFFFFFFFFFFFFFFFFFFFFFFFFFFFFF DUP3 AND SWAP1 POP SWAP2 SWAP1 POP JUMP JUMPDEST PUSH0 PUSH2 0xD77 DUP3 PUSH2 0xD4E JUMP JUMPDEST SWAP1 POP SWAP2 SWAP1 POP JUMP JUMPDEST PUSH2 0xD87 DUP2 PUSH2 0xD6D JUMP JUMPDEST DUP3 MSTORE POP POP JUMP JUMPDEST PUSH0 PUSH1 0x20 DUP3 ADD SWAP1 POP PUSH2 0xDA0 PUSH0 DUP4 ADD DUP5 PUSH2 0xD7E JUMP JUMPDEST SWAP3 SWAP2 POP POP JUMP JUMPDEST PUSH0 DUP2 SWAP1 POP SWAP2 SWAP1 POP JUMP JUMPDEST PUSH2 0xDB8 DUP2 PUSH2 0xDA6 JUMP JUMPDEST DUP3 MSTORE POP POP JUMP JUMPDEST PUSH0 PUSH1 0x20 DUP3 ADD SWAP1 POP PUSH2 0xDD1 PUSH0 DUP4 ADD DUP5 PUSH2 0xDAF JUMP JUMPDEST SWAP3 SWAP2 POP POP JUMP JUMPDEST PUSH0 DUP1 REVERT JUMPDEST PUSH2 0xDE4 DUP2 PUSH2 0xD6D JUMP JUMPDEST DUP2 EQ PUSH2 0xDEE JUMPI PUSH0 DUP1 REVERT JUMPDEST POP JUMP JUMPDEST PUSH0 DUP2 CALLDATALOAD SWAP1 POP PUSH2 0xDFF DUP2 PUSH2 0xDDB JUMP JUMPDEST SWAP3 SWAP2 POP POP JUMP JUMPDEST PUSH0 PUSH1 0x20 DUP3 DUP5 SUB SLT ISZERO PUSH2 0xE1A JUMPI PUSH2 0xE19 PUSH2 0xDD7 JUMP JUMPDEST JUMPDEST PUSH0 PUSH2 0xE27 DUP5 DUP3 DUP6 ADD PUSH2 0xDF1 JUMP JUMPDEST SWAP2 POP POP SWAP3 SWAP2 POP POP JUMP JUMPDEST PUSH2 0xE39 DUP2 PUSH2 0xDA6 JUMP JUMPDEST DUP2 EQ PUSH2 0xE43 JUMPI PUSH0 DUP1 REVERT JUMPDEST POP JUMP JUMPDEST PUSH0 DUP2 CALLDATALOAD SWAP1 POP PUSH2 0xE54 DUP2 PUSH2 0xE30 JUMP JUMPDEST SWAP3 SWAP2 POP POP JUMP JUMPDEST PUSH0 PUSH1 0x20 DUP3 DUP5 SUB SLT ISZERO PUSH2 0xE6F JUMPI PUSH2 0xE6E PUSH2 0xDD7 JUMP JUMPDEST JUMPDEST PUSH0 PUSH2 0xE7C DUP5 DUP3 DUP6 ADD PUSH2 0xE46 JUMP JUMPDEST SWAP2 POP POP SWAP3 SWAP2 POP POP JUMP JUMPDEST PUSH0 DUP1 PUSH1 0x40 DUP4 DUP6 SUB SLT ISZERO PUSH2 0xE9B JUMPI PUSH2 0xE9A PUSH2 0xDD7 JUMP JUMPDEST JUMPDEST PUSH0 PUSH2 0xEA8 DUP6 DUP3 DUP7 ADD PUSH2 0xE46 JUMP JUMPDEST SWAP3 POP POP PUSH1 0x20 PUSH2 0xEB9 DUP6 DUP3 DUP7 ADD PUSH2 0xE46 JUMP JUMPDEST SWAP2 POP POP SWAP3 POP SWAP3 SWAP1 POP JUMP JUMPDEST PUSH32 0x4E487B7100000000000000000000000000000000000000000000000000000000 PUSH0 MSTORE PUSH1 0x12 PUSH1 0x4 MSTORE PUSH1 0x24 PUSH0 REVERT JUMPDEST PUSH32 0x4E487B7100000000000000000000000000000000000000000000000000000000 PUSH0 MSTORE PUSH1 0x11 PUSH1 0x4 MSTORE PUSH1 0x24 PUSH0 REVERT JUMPDEST PUSH0 PUSH2 0xF27 DUP3 PUSH2 0xDA6 JUMP JUMPDEST SWAP2 POP PUSH2 0xF32 DUP4 PUSH2 0xDA6 JUMP JUMPDEST SWAP3 POP DUP3 PUSH2 0xF42 JUMPI PUSH2 0xF41 PUSH2 0xEC3 JUMP JUMPDEST JUMPDEST DUP3 DUP3 DIV SWAP1 POP SWAP3 SWAP2 POP POP JUMP JUMPDEST PUSH0 PUSH2 0xF57 DUP3 PUSH2 0xDA6 JUMP JUMPDEST SWAP2 POP PUSH2 0xF62 DUP4 PUSH2 0xDA6 JUMP JUMPDEST SWAP3 POP DUP3 DUP3 ADD SWAP1 POP DUP1 DUP3 GT ISZERO PUSH2 0xF7A JUMPI PUSH2 0xF79 PUSH2 0xEF0 JUMP JUMPDEST JUMPDEST SWAP3 SWAP2 POP POP JUMP JUMPDEST PUSH0 PUSH2 0xF8A DUP3 PUSH2 0xDA6 JUMP JUMPDEST SWAP2 POP PUSH2 0xF95 DUP4 PUSH2 0xDA6 JUMP JUMPDEST SWAP3 POP DUP3 DUP3 MUL PUSH2 0xFA3 DUP2 PUSH2 0xDA6 JUMP JUMPDEST SWAP2 POP DUP3 DUP3 DIV DUP5 EQ DUP4 ISZERO OR PUSH2 0xFBA JUMPI PUSH2 0xFB9 PUSH2 0xEF0 JUMP JUMPDEST JUMPDEST POP SWAP3 SWAP2 POP POP JUMP JUMPDEST PUSH0 PUSH1 0x60 DUP3 ADD SWAP1 POP PUSH2 0xFD4 PUSH0 DUP4 ADD DUP7 PUSH2 0xD7E JUMP JUMPDEST PUSH2 0xFE1 PUSH1 0x20 DUP4 ADD DUP6 PUSH2 0xD7E JUMP JUMPDEST PUSH2 0xFEE PUSH1 0x40 DUP4 ADD DUP5 PUSH2 0xDAF JUMP JUMPDEST SWAP5 SWAP4 POP POP POP POP JUMP JUMPDEST PUSH0 DUP2 ISZERO ISZERO SWAP1 POP SWAP2 SWAP1 POP JUMP JUMPDEST PUSH2 0x100A DUP2 PUSH2 0xFF6 JUMP JUMPDEST DUP2 EQ PUSH2 0x1014 JUMPI PUSH0 DUP1 REVERT JUMPDEST POP JUMP JUMPDEST PUSH0 DUP2 MLOAD SWAP1 POP PUSH2 0x1025 DUP2 PUSH2 0x1001 JUMP JUMPDEST SWAP3 SWAP2 POP POP JUMP JUMPDEST PUSH0 PUSH1 0x20 DUP3 DUP5 SUB SLT ISZERO PUSH2 0x1040 JUMPI PUSH2 0x103F PUSH2 0xDD7 JUMP JUMPDEST JUMPDEST PUSH0 PUSH2 0x104D DUP5 DUP3 DUP6 ADD PUSH2 0x1017 JUMP JUMPDEST SWAP2 POP POP SWAP3 SWAP2 POP POP JUMP JUMPDEST PUSH0 DUP3 DUP3 MSTORE PUSH1 0x20 DUP3 ADD SWAP1 POP SWAP3 SWAP2 POP POP JUMP JUMPDEST PUSH32 0x5472616E73666572206F6620546F6B656E2042206661696C6564000000000000 PUSH0 DUP3 ADD MSTORE POP JUMP JUMPDEST PUSH0 PUSH2 0x109A PUSH1 0x1A DUP4 PUSH2 0x1056 JUMP JUMPDEST SWAP2 POP PUSH2 0x10A5 DUP3 PUSH2 0x1066 JUMP JUMPDEST PUSH1 0x20 DUP3 ADD SWAP1 POP SWAP2 SWAP1 POP JUMP JUMPDEST PUSH0 PUSH1 0x20 DUP3 ADD SWAP1 POP DUP2 DUP2 SUB PUSH0 DUP4 ADD MSTORE PUSH2 0x10C7 DUP2 PUSH2 0x108E JUMP JUMPDEST SWAP1 POP SWAP2 SWAP1 POP JUMP JUMPDEST PUSH0 PUSH1 0x40 DUP3 ADD SWAP1 POP PUSH2 0x10E1 PUSH0 DUP4 ADD DUP6 PUSH2 0xD7E JUMP JUMPDEST PUSH2 0x10EE PUSH1 0x20 DUP4 ADD DUP5 PUSH2 0xDAF JUMP JUMPDEST SWAP4 SWAP3 POP POP POP JUMP JUMPDEST PUSH32 0x5472616E73666572206F6620546F6B656E2041206661696C6564000000000000 PUSH0 DUP3 ADD MSTORE POP JUMP JUMPDEST PUSH0 PUSH2 0x1129 PUSH1 0x1A DUP4 PUSH2 0x1056 JUMP JUMPDEST SWAP2 POP PUSH2 0x1134 DUP3 PUSH2 0x10F5 JUMP JUMPDEST PUSH1 0x20 DUP3 ADD SWAP1 POP SWAP2 SWAP1 POP JUMP JUMPDEST PUSH0 PUSH1 0x20 DUP3 ADD SWAP1 POP DUP2 DUP2 SUB PUSH0 DUP4 ADD MSTORE PUSH2 0x1156 DUP2 PUSH2 0x111D JUMP JUMPDEST SWAP1 POP SWAP2 SWAP1 POP JUMP JUMPDEST PUSH0 PUSH2 0x1167 DUP3 PUSH2 0xDA6 JUMP JUMPDEST SWAP2 POP PUSH2 0x1172 DUP4 PUSH2 0xDA6 JUMP JUMPDEST SWAP3 POP DUP3 DUP3 SUB SWAP1 POP DUP2 DUP2 GT ISZERO PUSH2 0x118A JUMPI PUSH2 0x1189 PUSH2 0xEF0 JUMP JUMPDEST JUMPDEST SWAP3 SWAP2 POP POP JUMP JUMPDEST PUSH32 0x4E6F7420656E6F756768206C6971756964697479000000000000000000000000 PUSH0 DUP3 ADD MSTORE POP JUMP JUMPDEST PUSH0 PUSH2 0x11C4 PUSH1 0x14 DUP4 PUSH2 0x1056 JUMP JUMPDEST SWAP2 POP PUSH2 0x11CF DUP3 PUSH2 0x1190 JUMP JUMPDEST PUSH1 0x20 DUP3 ADD SWAP1 POP SWAP2 SWAP1 POP JUMP JUMPDEST PUSH0 PUSH1 0x20 DUP3 ADD SWAP1 POP DUP2 DUP2 SUB PUSH0 DUP4 ADD MSTORE PUSH2 0x11F1 DUP2 PUSH2 0x11B8 JUMP JUMPDEST SWAP1 POP SWAP2 SWAP1 POP JUMP INVALID LOG2 PUSH5 0x6970667358 0x22 SLT KECCAK256 0xAE EXP 0x4E 0xEF PUSH20 0x3895300F7F2ECBC7761BC3E0946D0DF776987C65 0xFC 0xF8 0xF6 PUSH2 0x8C85 PUSH15 0x64736F6C634300081A003300000000 "
				},
				"gasEstimates": {
					"creation": {
						"codeDepositCost": "930800",
						"executionCost": "infinite",
						"totalCost": "infinite"
					},
					"external": {
						"addLiquidity(uint256,uint256)": "infinite",
						"getPrice(address)": "infinite",
						"owner()": "2515",
						"removeLiquidity(uint256,uint256)": "infinite",
						"renounceOwnership()": "infinite",
						"reserveA()": "2491",
						"reserveB()": "2448",
						"swapAforB(uint256)": "infinite",
						"swapBforA(uint256)": "infinite",
						"tokenA()": "2509",
						"tokenB()": "2575",
						"transferOwnership(address)": "infinite"
					}
				},
				"methodIdentifiers": {
					"addLiquidity(uint256,uint256)": "9cd441da",
					"getPrice(address)": "41976e09",
					"owner()": "8da5cb5b",
					"removeLiquidity(uint256,uint256)": "9d7de6b3",
					"renounceOwnership()": "715018a6",
					"reserveA()": "dc5fa6c5",
					"reserveB()": "19e36f3b",
					"swapAforB(uint256)": "e4f1f70a",
					"swapBforA(uint256)": "8014a7aa",
					"tokenA()": "0fc63d10",
					"tokenB()": "5f64b55b",
					"transferOwnership(address)": "f2fde38b"
				}
			},
			"storageLayout": {
				"storage": [
					{
						"astId": 8,
						"contract": "contracts/SimpleDEX.sol:SimpleDEX",
						"label": "_owner",
						"offset": 0,
						"slot": "0",
						"type": "t_address"
					},
					{
						"astId": 264,
						"contract": "contracts/SimpleDEX.sol:SimpleDEX",
						"label": "tokenA",
						"offset": 0,
						"slot": "1",
						"type": "t_address"
					},
					{
						"astId": 266,
						"contract": "contracts/SimpleDEX.sol:SimpleDEX",
						"label": "tokenB",
						"offset": 0,
						"slot": "2",
						"type": "t_address"
					},
					{
						"astId": 268,
						"contract": "contracts/SimpleDEX.sol:SimpleDEX",
						"label": "reserveA",
						"offset": 0,
						"slot": "3",
						"type": "t_uint256"
					},
					{
						"astId": 270,
						"contract": "contracts/SimpleDEX.sol:SimpleDEX",
						"label": "reserveB",
						"offset": 0,
						"slot": "4",
						"type": "t_uint256"
					}
				],
				"types": {
					"t_address": {
						"encoding": "inplace",
						"label": "address",
						"numberOfBytes": "20"
					},
					"t_uint256": {
						"encoding": "inplace",
						"label": "uint256",
						"numberOfBytes": "32"
					}
				}
			},
			"userdoc": {
				"kind": "user",
				"methods": {},
				"version": 1
			}
		}
	}
}